:020000040800F2
:10000000004000206DC9000859C900085BC90008FC
:1000100000000000000000000000000000000000E0
:100020000000000000000000000000005DC90008A2
:1000300000000000000000005FC9000861C900085E
:10004000BDC90008BDC90008BDC90008BDC9000878
:10005000BDC90008BDC90008BDC90008D5B8000861
:10006000BDC90008BDC90008BDC90008D13D0008D0
:10007000BDC90008BDC90008BDC9000889560008EF
:10008000BDC90008BDC90008BDC90008BDC9000838
:10009000BDC90008BDC90008BDC90008BDC9000828
:1000A000B13D0008BDC90008BDC90008556C000875
:1000B000BD390008BDC90008BDC90008990D010877
:1000C00010B5064C2378002B07D1054B002B02D02E
:1000D000044800E000BF0123237010BDB0000020E1
:1000E00000000000F02D0108044B10B5002B03D0D8
:1000F0000349044800E000BF10BDC04600000000F6
:10010000B4000020F02D010802780B78002A03D0FB
:10011000013001319A42F7D0D01A70470023C25CF7
:100120000133002AFBD1581E7047000002B471460B
:1001300049084900095C49008E4402BC7047C0462A
:1001400003B47146490840004900095E49008E44E5
:1001500003BC704703B47146490840004900095A7E
:1001600049008E4403BC7047002243088B4274D37D
:1001700003098B425FD3030A8B4244D3030B8B42A8
:1001800028D3030C8B420DD3FF22090212BA030CB1
:100190008B4202D31212090265D0030B8B4219D392
:1001A00000E0090AC30B8B4201D3CB03C01A5241B2
:1001B000830B8B4201D38B03C01A5241430B8B42FA
:1001C00001D34B03C01A5241030B8B4201D30B03E3
:1001D000C01A5241C30A8B4201D3CB02C01A52410A
:1001E000830A8B4201D38B02C01A5241430A8B42CD
:1001F00001D34B02C01A5241030A8B4201D30B02B6
:10020000C01A5241CDD2C3098B4201D3CB01C01ACF
:10021000524183098B4201D38B01C01A52414309D9
:100220008B4201D34B01C01A524103098B4201D3C7
:100230000B01C01A5241C3088B4201D3CB00C01A34
:10024000524183088B4201D38B00C01A52414308AC
:100250008B4201D34B00C01A5241411A00D20146D1
:10026000524110467047FFE701B5002000F0F0F85A
:1002700002BDC0460029F7D076E7704703460B431E
:100280007FD4002243088B4274D303098B425FD38F
:10029000030A8B4244D3030B8B4228D3030C8B42BB
:1002A0000DD3FF22090212BA030C8B4202D31212A1
:1002B000090265D0030B8B4219D300E0090AC30B76
:1002C0008B4201D3CB03C01A5241830B8B4201D323
:1002D0008B03C01A5241430B8B4201D34B03C01A0C
:1002E0005241030B8B4201D30B03C01A5241C30A84
:1002F0008B4201D3CB02C01A5241830A8B4201D3F5
:100300008B02C01A5241430A8B4201D34B02C01ADE
:100310005241030A8B4201D30B02C01A5241CDD283
:10032000C3098B4201D3CB01C01A524183098B42CE
:1003300001D38B01C01A524143098B4201D34B01B7
:10034000C01A524103098B4201D30B01C01A52411A
:10035000C3088B4201D3CB00C01A524183088B42A1
:1003600001D38B00C01A524143088B4201D34B008A
:10037000C01A5241411A00D20146524110467047FC
:100380005DE0CA0F00D04942031000D34042534001
:1003900000229C4603098B422DD3030A8B4212D3C1
:1003A000FC22890112BA030A8B420CD389019211F3
:1003B0008B4208D3890192118B4204D389013AD030
:1003C000921100E08909C3098B4201D3CB01C01A05
:1003D000524183098B4201D38B01C01A5241430918
:1003E0008B4201D34B01C01A524103098B4201D306
:1003F0000B01C01A5241C3088B4201D3CB00C01A73
:10040000524183088B4201D38B00C01A5241D9D28A
:1004100043088B4201D34B00C01A5241411A00D20B
:100420000146634652415B10104601D34042002B07
:1004300000D54942704763465B1000D3404201B586
:10044000002000F005F802BD0029F8D016E770473B
:100450007047C046D0400B00D1409C46203AD34064
:10046000184352426346934018437047914003003B
:1004700090409C46203A9340194352426346D340F1
:1004800019437047844608006146FFE71FB500F036
:100490009BFB002801D40021C8421FBD10B500F00D
:1004A00027FB4042013010BD10B500F08DFB002845
:1004B00001DB002010BD012010BDC04610B500F0CA
:1004C00083FB002801DD002010BD012010BDC046C7
:1004D00010B500F033FB002801DC002010BD012026
:1004E00010BDC04610B500F029FB002801DA00203D
:1004F00010BD012010BDC046F0B5CE46474680B5C0
:10050000070099463B0C9C4613041B0C1D000E0073
:1005100061460004140C000C45434B4360436143A7
:10052000C0182C0C20188C46834203D980235B0210
:100530009846C444494679437243030C63442D04EE
:100540002D0CC918000440198918C0BCB946B04622
:10055000F0BDC0469E2110B5C905041CFFF7C2FFBF
:10056000002803D1201C00F05DFE10BD9E21201C40
:10057000C90500F093FC00F055FE80231B069C4645
:100580006044F2E7F0B5C64643025B0A4E024500FE
:100590004F00DA00C40F9C46700A904600B52D0E3D
:1005A0003F0EC90FB6098C424BD0EA1B002A36DD3C
:1005B000002F61D0FF2D00D1ADE08023DB041E436E
:1005C0001B2A00DCD3E001204346181A430100D463
:1005D0008CE080018709380000F0D4FE05388740A0
:1005E000854200DCB6E02D1AB3483840430704D0FA
:1005F0000F230340042B00D00430430100D478E0E3
:100600006A1CFE2D65D08001430A9C46D2B2634627
:10061000D0051843E407204380BCB846F0BD002A4B
:1006200035D07A1B002D00D0AFE04346002B00D11F
:10063000A7E0531E012A00D12FE1FF2A69D01A003A
:10064000AAE0E91B002970DD002F37D0FF2D62D012
:100650008023DB041E431B2900DCB0E00120404462
:10066000430143D50135FF2D33D00123934A034085
:10067000400810401843B9E7002E00D183E0511E16
:10068000012A00D1D8E0FF2A45D00A0098E7FE27CA
:100690006A1C174200D086E0002D00D0B7E0434628
:1006A000002B00D1F3E00022002EB0D0981B4301B4
:1006B00000D4FAE043460C00F01A97E7002E00D170
:1006C000C8E04A1E012900D1AEE0FF2923D0110065
:1006D000C1E70023FF229C4699E7FE216A1C1142D4
:1006E00077D0FF2AF5D0150046447008430700D0A4
:1006F0007EE7C308FF2D0ED05B025B0A9C46EAB280
:1007000085E7002E07D08022D203134203D0104287
:1007100001D10C000300002BDBD08020C003184364
:100720004002430A9C46FF2271E70029D5D07A1B7C
:10073000002D60D14346002B24D0531E012A73D0D4
:10074000FF2AE7D01A001B2A00DC85E001203D00CB
:10075000801985E720233A00451B38000135EA401F
:100760005D1BA840431E9841002510433EE720230F
:1007700030009B1A31009840D140431E98410843F5
:1007800022E70C0003001500B4E7FF2FC1D080233F
:100790004046DB04184380461B2A51DD01200C0033
:1007A0003D00301A12E743469F1B7B012BD4002FDC
:1007B00000D010E70023002400229C4627E72023D6
:1007C00032003000CA40591A8840431E98411043F5
:1007D00045E7002D4AD14346002B63D00022002E6E
:1007E00000D114E730004044430100D47EE7324B8F
:1007F000013518407AE7FF2F8CD080234146DB0477
:10080000194388469FE743460C00F71AE3E6424641
:10081000002A00D075E7002E00D07AE78023DB03A2
:1008200000249C46FF22F2E63000404401254301AB
:1008300000D45BE7022518E743460125981BC5E66F
:10084000202344464046D4409A1A9040431E984183
:100850002043A4E70D004DE7202341464046D14008
:100860009A1A9040431E9841084370E74246002A76
:1008700000D14FE7002E00D14DE78022D203134272
:1008800000D148E7104200D045E7030043E7002EBF
:1008900090D00C0084460022B9E643460C00F01AC2
:1008A000013593E684460022B1E6002800D01DE71A
:1008B000002300249C46AAE6FFFFFFFBFFFFFF7D0D
:1008C000F0B54F464646D6464502C0B547000C1C1B
:1008D0006D0A3F0EC60F002F00D170E0FF2F00D130
:1008E00075E0EB008025ED041D43002399469A46F0
:1008F0007F3F6002430A984663001B0EE40F002B03
:100900004ED0FF2B46D04246D0008022D204024374
:10091000904600227F3B3100FF1A4B466140C9B22E
:1009200013430F2B00D9B5E06E489B00C3589F4678
:10093000002398462600454692465346022B00D196
:1009400089E0032B00D19EE0012B18D03B007F33C0
:10095000002B69DD6A0704D00F222A40042A00D048
:1009600004352A0103D5604B1D403B008033FE2B2C
:1009700000DD70E0AD016D0AD8B202E00E0000208B
:100980000025C0052843F6073043E0BCBA46B1460F
:10099000A846F0BD4346002B3FD10222FF3F03E0B3
:1009A0004346002B2DD1012231004B466140C9B294
:1009B00013430F2B34D84D489B00C3589F46002D3E
:1009C00013D104239946033B00279A4691E7002D53
:1009D00005D108239946063BFF279A4689E70C2351
:1009E0009946093BFF279A4683E7280000F0CAFC96
:1009F0007627431F9D4000237F4299469A463F1A1F
:100A000077E7404600F0BEFC4246431F9A407623FB
:100A10005B4290461B1A00227DE7FF2303227AE700
:100A20000E00FF200025ACE70120C01A1B28A6DC21
:100A30009E372A00BD40C2406B1E9D4115436B0787
:100A400004D00F232B40042B00D004356B0144D578
:100A50000120002595E7FF20002592E7802500264C
:100A6000FF20ED038DE7002398468020C003054258
:100A700009D04346034206D1454605436D02260090
:100A8000FF206D0A7DE78020C00305436D02FF2033
:100A90006D0A76E742466B015001834219D21B2250
:100AA0000025013F01261C006D005B00002C01DBCE
:100AB000984201D81B1A3543013A002AF3D15A1E35
:100AC00093411D433B007F330E00002B00DD41E7C7
:100AD000AAE71A2201251B1AE4E7AD0100206D0ADE
:100AE0004FE7C046382E0108FFFFFFF7782E0108B8
:100AF00070B5420045024E024C00C30F6D0A012042
:100B0000120E760A240EC90FFF2A06D0FF2C03D03E
:100B1000A24201D1B54206D070BD002DFCD1FF2C00
:100B2000FAD1002EF8D18B4206D00120002AF3D151
:100B30002800431E9841EFE70020EDE770B5420022
:100B400045024E024C00C30F6D0A120E760A240EA7
:100B5000C80FFF2A1BD0FF2C0ED0002A1BD1002C5F
:100B600001D1002E1CD0002D0CD083421CD00221BC
:100B7000581E0840013870BD002E22D1002AF4D141
:100B8000002DF2D10028F6D101204042F3E7002DDC
:100B900017D1FF2CF0D0002CE7D1002EE5D1E6E7ED
:100BA0000020002DE7D0E2E7A24205DCEADBB542F7
:100BB00002D8E7D30020DEE7434258414000013825
:100BC000D9E702204042D6E770B5420045024E0206
:100BD0004C00C30F6D0A120E760A240EC80FFF2AAE
:100BE0000BD0FF2C0DD0002A1FD1002C16D1002EC7
:100BF00014D10020002D10D009E0002D0CD1FF2CC5
:100C000013D1002E08D1002A08D0834212D002212D
:100C1000581E0840013800E0022070BD002DF4D1BC
:100C20000028FAD101204042F7E7002CEDD1002E38
:100C3000EBD1ECE7A24205DCF2DBB54202D8EFD300
:100C40000020EAE74342584140000138E5E7C0464A
:100C5000F0B54F464646D64644024500C0B5640A44
:100C60000F1C2D0EC60F002D00D18DE0FF2D00D1E1
:100C700092E00023802099469A46E400C004044391
:100C80007F3D7802430A98467B001B0EFF0F002B26
:100C900000D170E0FF2B00D186E04246D0008022D8
:100CA0007F3BED180023D204024390469C4631005E
:100CB0004B467940681C0F2B1CD8764A9B00D358B2
:100CC0009F4639004446E2465346022B0FD0032B81
:100CD00000D1D7E0012B37D100200024C0052043EC
:100CE000C9070843E0BCBA46B146A846F0BDFF209C
:100CF0000024F3E7260C2404220C44462404240C8C
:100D0000434627001B0C574374435A435E43121952
:100D10003B0C9B189C4203D98022520294466644A5
:100D20003F041A043F0CD2199401671EBC411B0CEE
:100D3000920E9B1914439B011C431B0100D49BE0A2
:100D4000012362081C40144302007F32002A64DD44
:100D5000630704D00F232340042B00D00434230165
:100D600003D502004C4B80321C40FE2ABFDCA4019C
:100D7000640AD0B2B2E74346002B3DD14A46013364
:100D80001A4391469C4692E7002C29D104239946A8
:100D9000033B00259A4674E7002C1BD10823994693
:100DA000063BFF259A466CE74346FF35002B0BD1E7
:100DB00002234A461A4391469C4678E7534631003F
:100DC000022B00D083E792E703234A461A43914659
:100DD0009C466CE70C239946093BFF259A4650E751
:100DE000200000F0CFFA7625431F9C4000236D427F
:100DF00099469A462D1A44E7404600F0C3FA424607
:100E0000431F9A4000232D1A90469C46763D4EE79C
:100E100080240021FF20E40360E701239B1A1B2BA1
:100E200000DD59E722009E30DA4084401300621E44
:100E300094411C43630704D00F232340042B00D0AC
:100E4000043463011AD50120002447E78020C00341
:100E5000044209D04346034206D144460443640297
:100E60003900FF20640A39E78020C003044364028C
:100E70003100FF20640A31E7280065E7A401002063
:100E8000640A2BE78020C00304436402FF20640A45
:100E900024E7C046B82E0108FFFFFFF7F8B5CE469D
:100EA000474643025B0A4E02DA009446720A9146B4
:100EB00045004A0080B52D0E1F00C40F120EC90F49
:100EC000B609FF2A5BD0012041408C4239D0A81AD4
:100ED00000285ADD002A6AD0FF2D00D1D9E08022F7
:100EE000D20416431B2800DCE9E001206346181AEF
:100EF000430100D4B4E080018709380000F042FAD1
:100F000005388740854200DCCCE02D1AB5483840D2
:100F1000430704D00F230340042B00D004304301C7
:100F200000D4A0E06A1CFE2D00D18DE08001470AAC
:100F3000D2B2D0053843E4072043C0BCB946B0461E
:100F4000F8BDA81A8046002845DD002A70D0FF2D84
:100F500000D19EE08023DB041E4343461B2B00DCB4
:100F6000D2E00120604443017AD50135FF2D6BD0DA
:100F700001239D4A0340400810401843C8E7002E53
:100F800020D08C4223D02800FF38002839D0571BAE
:100F9000002D00D09DE06346002B00D1DBE07B1EDE
:100FA000012F00D10DE1FF2F71D01F0098E0002E1E
:100FB00000D1A7E0421E012800D1E6E0FF2868D05A
:100FC00010008FE701204140A14200D07FE7FF20C1
:100FD00040428046A8444046002838D0511B002D8E
:100FE00000D1AEE0FF2A00D1DFE080236046DB04C1
:100FF000184384461B2900DCD9E001201500801924
:10100000B1E7FE206A1C104271D1002D00D0A6E08D
:101010006346002B00D1D9E00022002E00D188E7E2
:10102000981B430100D4E1E063460C00F01A6FE71F
:10103000002E00D1B7E00200013A012800D19CE067
:10104000FF2826D0904688E7FF22002771E7FE2080
:101050006A1C104264D0FF2AF6D01500664470085E
:10106000430700D056E7C308FF2D12D05B025F0A8A
:10107000EAB25EE76246002A00D196E0002E08D070
:101080008022D203134204D04846104201D10C0002
:101090004B46002BD8D08027FF031F437F02FF223F
:1010A0007F0A46E720233A00451B38000135EA4015
:1010B0005D1BA840431E98410025104328E72023CC
:1010C0001B1A32009E40C2403000431E984110431C
:1010D0000CE7FF2ADBD080236046DB0418438446FC
:1010E0001B2F56DD01200C001500301A00E7634667
:1010F0009F1B7B013DD4002F00D0FEE60024002280
:10110000002716E70500AFE7320043464146DA40C4
:1011100020235B1A9E403000431E9841104321E774
:10112000002DA7D16346002B59D00022002E00D1FC
:10113000FFE630006044430192D52A4B0135184048
:101140008EE76346002B47D04B1E012915D0FF299F
:101150002BD019004EE70C004B463D0084E7624659
:10116000002A8BD1002E92D180270024FF22FF037A
:10117000DFE663460C00F71ABFE630006044012545
:10118000430100D46CE70225F2E663460125981B73
:10119000AEE6202364466046FC40DF1BB840431E99
:1011A000984120439FE705005EE74B4671E7202307
:1011B00065466046CD40591A8840431E98412843F1
:1011C0001CE763460C000125F01A91E6002E95D02D
:1011D0000C004F460022ACE64B460D0044E74F465C
:1011E0000022A6E6FFFFFFFBFFFFFF7D002800D0E7
:1011F00036E7002400279CE643024A0240004900EB
:101200005B0A520A090E000EFF2806D00020FF29B3
:1012100002D1531E9A4110007047FE38002BFBD1BB
:10122000F4E7C04641024200C30F490A0020120EF3
:101230007E2A03DD9D2A02DD094A98187047802026
:1012400000040143952A07DC9620821AD1404842C7
:10125000002BF3D10800F1E7963A9140F7E7C0463A
:10126000FFFFFF7FF8B5002813D0C317C6185E40F4
:10127000C40F300000F086F89E2305001B1A962B41
:101280000FDC082801DD083DAE407602760AD8B2B0
:1012900002E0002400200026C0053043E40720437C
:1012A000F8BD992B0CDD05223100121AD1400A003D
:1012B000010030001B318840411E88410243160066
:1012C000052D12DC31000D4F3940720709D00F2077
:1012D0003040042805D004314A0102D59F2339400B
:1012E0005B1B89014E0AD8B2D6E76A1F96403100CF
:1012F000024F39407207F4D0E9E7C046FFFFFFFB19
:1013000070B5051E0ED000F03DF89E2304001B1A98
:10131000962B0CDC082801DD083CA5406D026D0A07
:10132000D8B201E000200025C005284370BD992BEC
:1013300009DD020029001B3291404A1E914105221D
:10134000121AD5400D43052C12DC29000C4E3140F9
:101350006A0709D00F202840042805D004314A012B
:1013600002D59F2331401B1B89014D0AD8B2DBE710
:10137000621F95402900024E31406A07F4D0E9E728
:10138000FFFFFFFB1C2101231B04984201D3000C2B
:1013900010391B0A984201D3000A08391B099842E8
:1013A00001D30009043902A2105C40187047C046FE
:1013B000040302020101010100000000000000001E
:1013C0004B4259410023437083700133C370013392
:1013D0000371013301704371704743788B420DD024
:1013E000417001290BD0022914D000291DD10123FD
:1013F000C370DB1803718170013343717047037848
:10140000002B0AD001238370DB18C3700023037103
:101410000333F2E70378002BF4D002238370002318
:10142000C370013303710233E7E7FEE713B56A4681
:101430000B8813804B8853808B889380CB88D38014
:10144000831C06306C461A7801335200A25A0A8077
:1014500002318342F6D113BD030000207F2B08D058
:101460000130002B05DA1A007E30803201D05B4259
:10147000D8B2704703007F20002B01D05B4258B2E6
:101480007047030010B5FF207F2B10D01A000138E1
:1014900031320CDA1A000020783208DB783358B287
:1014A000FE23584346212330FEF7E8FEC0B210BDAC
:1014B00003000120834204DD024A98B2934200DD1A
:1014C00001487047FE070000FF070000064B10B5FB
:1014D000C018C3020549181AFEF7D0FE8023DB00AE
:1014E000C018FFF7E5FF10BD20FCFFFFAE070000AE
:1014F00010B5FFF7EBFF10BD03000020032B18DD34
:1015000001300C2B15DD01300F2B12DD0630122BB4
:101510000FDD0538162B0CDD0430192B09DD0338DF
:101520001C2B06DD01301F2B03DDFA30212B00DCE4
:10153000F938704703001320022B09D00C30012B1F
:1015400006D01E38002B03D0FE30032B00D190387C
:101550007047022806D0012805D0002805D00328AE
:1015600005D1083070470320FCE70520FAE7FF208B
:10157000F8E77F2800D10020C0B270470200613A2E
:1015800003000120192A0BD95F2B09D0233BDBB2C2
:101590000200162B02D80349D9408A43012050404B
:1015A0007047C04601EC7F00F7B504000F0006004D
:1015B0000025831D01933078FF2801D10135EDB25C
:1015C000FFF7DCFF002801D15F233370019B013658
:1015D000B342F0D1062D06D1002F04D02A003900E5
:1015E000200011F007FB0023A371F7BDF0B5831DA8
:1015F00085B00022039300230400012600250092F9
:101600000193114F3800217811F025FB002801D0FB
:10161000C31BD8B232002B000021FEF76DFF009AE9
:10162000019B12184B4130000092019329000023C6
:101630002822FEF761FF039B013406000D00A34240
:10164000E0D1009805B0F0BD062F010810B5417932
:1016500008003038C3B2092B04D80521FEF7F4FE88
:10166000C8B210BD054C200011F0F5FA002801D0D9
:10167000031BD8B20521FEF7FDFDF1E7062F010897
:1016800070B50400FEF74AFD002382B2501EE11837
:10169000834205DA0D78302D02D101339BB2F6E793
:1016A000D21A2000013211F0AEFA70BDF0B50C0074
:1016B0009BB0150000211A001F00060011F0B6FAB9
:1016C00000212A2203A86D00029111F0AFFA6319DC
:1016D0000193019BA34248D00023E05E2B4B98422C
:1016E00043D0002813DC2A490EA811F0C2FA02A840
:1016F000FEF714FD05000EA8FEF710FD2D18AF42F1
:1017000003D30EA902A811F099FA0234E1E7FA23F3
:101710009B0098420BDA0EA980B20FF01CFD0EA8B8
:10172000FFF7AEFF1B490EA811F088FADFE764212E
:101730003230FEF7A3FD0EA980B20FF00CFD0EA80B
:10174000FFF79EFF0EA8FEF7E9FC302102AA431E18
:101750005218D25C02AD6D1802392A54E9540EAB0E
:10176000181800230C494370DDE702A8FEF7D6FCE9
:10177000002804D002ABC0180023013803703000E9
:1017800002A911F076FA1BB0F0BDC046FF7F000041
:10179000F82E0108FD2E0108022F0108F0B50024E3
:1017A00089B00231E5B2AA4206D96F46A6008E5B27
:1017B00065007E530134F5E76946FFF777FF09B00E
:1017C000F0BD000070B50B490400FEF753FD20008A
:1017D0000D000849FEF7C8FC642104032800FEF749
:1017E00049FD280064186421FEF7BEFC8001201822
:1017F00080B270BD10270000064B020B010053435E
:101800003F22800911401040253250435B181818C0
:101810007047C0461027000070B50E0088B0040065
:101820001F493000FEF726FD0D0020001D4911F074
:1018300020FA30001A49FEF797FC69460FF099FC30
:101840006846FFF71DFF6946200011F0F7F9164EB4
:101850002000310011F0F2F964212800FEF784FC29
:1018600069460FF086FC6846FFF70AFF69462000CC
:1018700011F0E4F93100200011F0E0F928006421B2
:10188000FEF7F8FC080069460FF073FC6846FFF7A6
:10189000F7FE6946200011F0D1F908B070BDC046CE
:1018A00010270000403D01089738010870B50E0070
:1018B00000210400150011F0B9F900239AB29542F5
:1018C00005D9F25C002A02D0E2540133F6E770BD7C
:1018D00070B50E00150000210132040011F0A6F9C8
:1018E00000239AB2954205D9F25C002A02D0E25454
:1018F0000133F6E770BD30B50023040098B2904282
:101900000ED2E55CC85C002D03D143425841C0B201
:1019100030BD0028FCD001338542EFD00020F7E72E
:101920000120F5E77D234380044B09B2C360002307
:1019300001808180C38003727047C0463930000047
:101940000268044B5343044A9B185B005A08026028
:10195000580C7047FD430300C39E2600F0B50025D8
:1019600099B00160858004005622290002A811F078
:101970005DF90126627DAA4249D92000FFF7E0FF08
:10198000E779791BFEF760FD00221000CBB20193CE
:10199000D3B29F420AD902A9895C002904D10199D6
:1019A000884204D00130C0B20132F1E700230022A6
:1019B0001100207BD7B2B84206D92769BF5C9F428D
:1019C00000D131000132F5E70029D3D1A2796119A4
:1019D000033A012A07D9002D05D015228A56002A7C
:1019E0000ED1012BC6D98B75A1689A0051582A00D7
:1019F0000E3292001151013502AAD654EDB2B9E768
:101A0000501E8342EFDB01329342ECDCB2E700234D
:101A1000200080212375B83011F008F919B0F0BD0D
:101A2000F0B5150004009BB00160027143715622AD
:101A3000002104A8013D11F0F9F8EBB2E679019319
:101A4000022B22D830000321FEF78EFB0323C6B2FF
:101A5000039300231D000093627DAA4270D92000E9
:101A6000FFF76EFF711BFEF7EFFC00221300C9B2F7
:101A7000D0B286420ED904AFD75D002F03D18B427E
:101A800008D00133DBB20132F2E7012303930023D4
:101A90000193DEE7321C864200D9021C039BD2B2BE
:101AA00053430199207BCB18DBB20293002319002A
:101AB000DFB2B84208D92769FF5CBC46029FBC452B
:101AC00000D101210133F3E70029C5D1029B6079E0
:101AD0009900A368013859180B68032808D8FEF745
:101AE00025FB021D1F211B481B181B488342B3D92D
:101AF000002D04D0009B002B18D1012AACD90298EC
:101B0000631998752B0009680E339B001951012148
:101B100004AB6D189954EDB200929DE70F48E3E7CE
:101B20000F48E1E70F481B180F48DFE7009B013B18
:101B30009A42E4DB009B0133DBB29A42DFDC8BE7A5
:101B40000023200080212375B83011F06FF81BB0FE
:101B5000F0BDC046C54E47FF3BB10100776245FF6F
:101B6000287643FF3CB142FF3CB1010000234360B3
:101B7000836070470A2310B50400838003F0C4FF1C
:101B80002368E0809B6820009847A06010BD8368B0
:101B900070B50400002B0BDD8388002B09D0013BBE
:101BA0009BB28380002B03D103681B6820009847F9
:101BB00070BD03689B689847050003F0A5FFE388A4
:101BC000C01A281AA0600028F2DD23685B68EDE7E0
:101BD0007F23181A80B210B57F2815D83F23591AD1
:101BE00089B23F2910D80124CB08DB01C018094B6A
:101BF00080B21818DC83072328301940144204D01F
:101C00008C4003781C43047010BD8C400378A343C0
:101C10000370F9E7D000002010B57F2812D83F29C3
:101C200010D80124CB08DB01C018094B80B218186A
:101C3000DC83072328301940144204D08C400378F9
:101C40001C43047010BD8C400378A3430370F9E774
:101C5000D000002010B57F2915D83F23181A80B274
:101C60003F2810D80124C308DB01C918094B89B2E9
:101C70005918DC83072328311840144204D08440CB
:101C80000B781C430C7010BD84400B78A3430B7081
:101C9000F9E7C046D00000207F23591A89B210B559
:101CA0007F2912D83F2810D80124C308DB01C918A6
:101CB000094B89B25918DC83072328311840144294
:101CC00004D084400B781C430C7010BD84400B780A
:101CD000A3430B70F9E7C046D000002010B5134CA9
:101CE00082B0E38B002B0AD02388002B09D000237D
:101CF0006188A2882184A284E3846384E38302B0A0
:101D000010BD69460A4B00201A689B880092062283
:101D10008B8002F06FF88022210040202831D20011
:101D200002F07EF80028E2D0E9E7C046D0000020AB
:101D3000082E010810B502F085F80238431E9841BC
:101D4000C0B210BD144B10B5D880022822D016D8CE
:101D5000002818D011499960802240208024402119
:101D600018849A841800802259800021D2002830DB
:101D70009C80D9845984D98310F058FF10BD032862
:101D800001D10749E7E7074A9A60802040224024B2
:101D90008021E5E7044AF7E7D0000020991C0008FD
:101DA000551C0008191C0008D11B000810B5134B66
:101DB00059889A882024185F0139013A09B212B271
:101DC000002801DD002018842424185F884200DDEB
:101DD00099842220195E002901DA002159842620E5
:101DE000195E914200DADA84180001218022D98339
:101DF000D2000021283010F019FF10BDD0000020C3
:101E000010B5034B80B29B6889B2984710BDC0469D
:101E1000D0000020F0B51E0083B0002A12DB0FD0E6
:101E200084B2A21893B2124F8DB200932000BB6807
:101E30003200290098470134009BA4B29C42F5D19E
:101E400003B0F0BD002453420093094F83B20193C5
:101E50008DB2019BA4B2181B3200BB68290080B26E
:101E600098470134009B24B29C42F2DBE8E7C0466D
:101E7000D0000020F0B51E0083B0002A12DB0FD086
:101E80008CB2A21893B2124F85B200932100BB68A6
:101E90003200280098470134009BA4B29C42F5D13F
:101EA00003B0F0BD002453420093094F8BB201935D
:101EB00085B2019BA4B2191B3200BB68280089B20D
:101EC00098470134009B24B29C42F2DBE8E7C0460D
:101ED000D0000020F0B589B00590180004930EAB37
:101EE0001F88461C002800DB461EB3B20693002A5A
:101EF00051DB93B25E1EB0B20790002A00D19EE083
:101F00008AB201926A46958A4E4C2E005B199BB2AA
:101F100002933000A3683A00019998470136029B6A
:101F2000B6B2B342F5D1019B069E9C466644B6B25A
:101F30002800A3683A00310098470135029BADB2F2
:101F4000AB42F5D1049B002B54DB002B21D0019D2B
:101F50006A46AC4663449BB2968A3A4C0293290087
:101F6000A3683A00300098470135029BADB2AB42FE
:101F7000F5D1079B9E19B6B2019D3A002900A368CE
:101F8000300098472900029A01318BB201939A429E
:101F9000F2D109B0F0BD8BB2561C0193B3B20793D6
:101FA000534202936B4600259B8A264C0393039B66
:101FB000ADB2581B3A00A368019980B29847013529
:101FC000029B2DB2AB42F2DC019B00259C46069E93
:101FD0006644B6B2039BADB2581B3A00A368310009
:101FE00080B298470135029B2DB2AB42F2DC049BD4
:101FF000002BAADA5B4202936B4600259E8A114CA5
:10200000019BADB2591B3A00A368300089B29847D2
:102010000135029B2DB29D42F2DB0025079B9E19E4
:10202000B6B2019BADB2591B3A00A368300089B229
:1020300098470135029B2DB29D42F2DBA9E78BB296
:1020400001937FE7D0000020F0B587B003920CAA7F
:102050000D0017880490002B3BDB5B180593994219
:102060001BDA424E039B002B19DB00D16EE06B465E
:102070001C8A039BADB2E3189BB201932000B368A6
:102080003A00290098470134019BA4B2A342F5D13C
:102090000135059B2DB29D42E4DB07B0F0BD5B42EC
:1020A00002936B4600241B8AADB20193019BA4B23C
:1020B000181B3A00B368290080B298470134029B8C
:1020C00024B29C42F2DB0135059B2DB29D42C9DB57
:1020D000E3E75B1805939942DFDD039B234E002B5A
:1020E0001ADB002B3AD06B461C8A039BADB2E31877
:1020F0009BB201932000B3683A002900984701344D
:10210000019BA4B2A342F5D1013D059B2DB2AB4288
:10211000C3DA039B002BE4DA5B4201936B46002495
:102120001B8AADB20293029BA4B2181B3A00B3689B
:10213000290080B298470134019B24B29C42F2DB13
:10214000013D059B2DB2AB42E3DBA6E7ADB2013505
:10215000059B2DB29D4200DA84E79EE7ADB2013DBA
:10216000059B2DB2AB42D4DB97E7C046D0000020E0
:102170000122014B9A837047D00000200022014BBE
:102180009A837047D0000020014B98617047C04689
:10219000D00000200022014B9A617047D00000203F
:1021A0000122014B9A827047D00000200022014B8F
:1021B0009A827047D0000020014B98817047C0463A
:1021C000D0000020014BD8817047C046D0000020CD
:1021D000014B9881D9817047D0000020F0B587B0BD
:1021E0000A2800D16CE01F283CD93A4F20380C2334
:1021F000FE5E7B88B21DC0B29A4257DAB6B2B21DFB
:10220000FB8911B29C1F0233B981B98B049343003F
:102210001818314B4000A4B292B2C318039405922F
:102220000293002928D0029B1D781422BB5E002B4C
:1022300001D0ED43EDB26B461B8A039C0193210054
:10224000BB68AAB2300098470134019BA4B26D0864
:10225000A342F4D1029B013601330293059BB6B22F
:102260009E42E0D107B0F0BD029B013601330293DC
:10227000059BB6B2B342F5D01422BB5E029A157824
:10228000002B01D0ED43EDB26B461B8A039C0193FA
:10229000EB0704D5012221003000BB6898470134C8
:1022A000019BA4B26D089C42F2D1DDE7FB893A8A1A
:1022B00006219B1808339BB200260622FB81A1E76A
:1022C0000021044AD389108A91811B180833D381D5
:1022D000C8E7C046D0000020382F0108F0B5534BA6
:1022E0008DB005939B699D7A0A2800D16EE01C7A17
:1022F000A04269D35A7A824266D305275A68041BE2
:102300001B68E40008931419E757059E06970C23F1
:10231000F15E2279738AA078D218CB19A7781B189E
:1023200070880397E77892B20B970627E7578342A6
:1023300055DC8BB207930E21755E31009B189BB262
:10234000B3811423CB5E002B58D10599898B0129C9
:1023500000D167E05A4253419BB209930B9B2688F8
:10236000002B31D0039B002B2ED0ED19ABB2049380
:102370000023002500270A9300243B195B0703D1A3
:10238000089A731C955D9EB22B0609D5079B069A89
:1023900004999818059B20189B68099A80B2984761
:1023A0000134039B6D00A4B2ADB2A342E5D8DF199E
:1023B000049B0A9A01339BB2013204930B9B92B2A5
:1023C0000A92BFB29342D7D80DB0F0BD0022059952
:1023D000CB898A810A8A9B18ED18CD81F4E7002108
:1023E0000791F189308A130009186D1831002DB258
:1023F000F581B3811423CB5E002BA6D001230232DA
:1024000012B20093069B791E581E079B4919181893
:102410000B9B09B2023300B2FFF716FE059B142294
:102420009B5E97E70232009312B2EBE7D0000020E8
:10243000054B10B59B69002B02D0FFF74FFF10BD75
:10244000FFF7CCFEFBE7C046D000002070B50400CB
:102450000078002810D0094D05E00134FFF73EFF59
:102460002078002808D0AB69002BF6D10134FFF7A3
:10247000B5FE20780028F6D170BDC046D0000020FF
:10248000F0B5224E0400B56983B0002D35D06A7ACC
:10249000037894462F7A002B36D000220100708AF0
:1024A000019001319F420AD89C4508D30198DB1B5B
:1024B00082186868DB00C3181B79D21892B20B78B7
:1024C000002BEED173889B1ADA0FD2185210B2810A
:1024D0002078002807D10EE00134FFF7FFFE2078B6
:1024E000002808D0B569002DF6D10134FFF776FE3B
:1024F00020780028F6D103B0F0BDFDF70FFE4200B2
:102500001218520092B2DDE70022DBE7D000002073
:1025100070B5314C050082B02080002839D0C02130
:102520008022C9025202E160E2612021625E402104
:1025300000238020616029496080A3612361A38218
:10254000A160002A00DD23842422A35E7F2B01DD0D
:102550007F23A3842222A35E002B01DA002363845D
:102560002622A35E3E2B01DC3F23E38480221C4E07
:1025700000213000D20010F059FB002D13D0402272
:10258000802100232184A284E3846384E38302B056
:1025900070BD3C2001F028FC1F220020114901F0F1
:1025A00029FC2588BBE7104B69461A680020009279
:1025B0006A469B889380062201F01CFC8022310031
:1025C0004020D20001F02CFC0028E0D1283E02235C
:1025D000F15E0423F25ED4E7D0000020191C00084D
:1025E000F800002078310108082E0108082310B5F2
:1025F000484044B24100C8B2002C01DA5140C8B290
:10260000013B002BF5D110BD70B50C001D008E18DC
:10261000B44205D021782A00FFF7E8FF0134F7E73C
:1026200070BD0000C31770B50400C01858400D00FD
:1026300016000300022963D1002A0BD13F22002C8F
:1026400000DB4032904200DD13004022002C0ADB08
:10265000180070BD012A18D1632806DC4300002C45
:10266000F6DA802252001343F2E7554AFF239042E4
:10267000F5DCFEF745FE5349FEF7EAFA0FF024F9C0
:10268000FDF768FF43003343E9E70023022ADFD167
:10269000830063281EDDFA239B0098420CDAFEF7C4
:1026A0002FFE4849FEF7D4FA0FF00EF9FDF752FF5E
:1026B0000123800003430DE0434B98420FD8FEF7FF
:1026C0001FFE4249FEF7C4FA0FF0FEF8FDF742FF85
:1026D00083003343002CBBDA80229200C3E73C4BDB
:1026E00098420BD8FEF70CFE3A49FEF7B1FA0FF00C
:1026F000EBF8FDF72FFF03238000DBE7364BE9E71C
:1027000000230329A4D1012A1BD1FA239B0098425C
:1027100005DA4300002C9BDA80221201A3E7A023F4
:102720009B0198420BDAFEF7EBFD2649FEF790FA83
:102730000FF0CAF8FDF70EFF43003343EAE7274BDB
:10274000E8E7022A00D083E7FA239B00984206DAE2
:102750008300002C00DB7BE78022520183E71A4BC9
:1027600098420CDCFEF7CCFD1649FEF771FA0FF02B
:10277000ABF8FDF7EFFE012380000343E9E7184BB8
:1027800098420BD8FEF7BCFD1049FEF761FA0FF036
:102790009BF8FDF7DFFE83003343DAE7FA231B03E0
:1027A00098420BD2FEF7ACFD0A49FEF751FA0FF042
:1027B0008BF8FDF7CFFE83002B43CAE7094BC8E730
:1027C000F5040000CDCCCC3D0F2700000AD7233CF8
:1027D00017F001006F12833AFF010000FF070000AD
:1027E0009F860100FF0F0000002303607047000078
:1027F00070B504000D1C092900D90925064AEBB261
:1028000012789A4202D10023236070BD03F01CF8B5
:1028100025712060F9E7C046F8040020036810B570
:102820000400002B01D1002010BD03F00DF8236837
:10283000C01A074B9842F6D90023064A2360127843
:1028400023799A42EFD0044A0120D377ECE7C046BF
:10285000EE020000F804002030050020FF23437141
:1028600000230171837103818372704770B503790E
:1028700004000D00002B0DD04179A9420AD0002997
:1028800009D001290CD000236571A3719D420BD0A2
:10289000012D10D070BD03689B6820009847F2E7B7
:1028A000036800219B68F8E7012123689B682000EA
:1028B0009847A071EEE7236829009B68F7E70D238E
:1028C000F0B59C46C67B837B8FB00C0001933F2103
:1028D0003300019A0B405B01D2081A43037C457C0C
:1028E0009B00B60902921E4301222B0013409B025B
:1028F00033430F26D5409BB20393837CC77C1E4095
:10290000F601354304957F253D402D011B092B43DE
:102910000593FB09077D467D974035001F43032340
:102920001D406D023D431F27ADB20695857DB6085B
:102930002F40BF013E430796C67D6D099E4035433B
:1029400007260895457E077E2E40DD4036023E4331
:102950000996867E8444314049010D430A950F252E
:10296000B109C67EB6000E43017F0A4092021643AB
:10297000B2B20B92427F49081540ED0129430C91F8
:102980007F21857F1209294009010A430D92EA0936
:10299000C57F6D0015436246D67C177D33405B02D0
:1029A0001D431F233B409B01B6081E43537D7F09F7
:1029B000DB001F430723427B0198ADB218400002A1
:1029C000104380B2FEF782FD20800298FEF77EFD64
:1029D00060800398FEF77AFDA0800498FEF776FDEC
:1029E000E0800598FEF772FD20810698FEF76EFDE7
:1029F00060810798FEF76AFDA0810898FEF766FDE2
:102A0000E0810998FEF762FD20820A98FEF75EFDDC
:102A100060820B98FEF75AFDA0820C98FEF756FDD7
:102A2000E0820D98FEF752FD20832800FEF74EFD50
:102A300060833000FEF74AFDA0833800FEF746FDB4
:102A40008023DB00E083238463840FB0F0BD0000AB
:102A5000F8B504000F0003F057F8050023682000C4
:102A60001B689847061E1ED0236820005B689847A5
:102A7000A37A002B13D10F2813D101336381E37A9A
:102A8000E2180133DBB21073E372182B09D9390055
:102A90002000FFF714FF0023A3723000F8BD012BC4
:102AA000EDD02581DAE7A37A012BF6D12089034BFB
:102AB0002D1A9D42F1DDA672EFE7C046C409000061
:102AC00010B503008079002806D05A790020012A29
:102AD00002D81800FFF7BCFF10BD70477047704761
:102AE00070470020704700207047704700207047F3
:102AF000054B82B05A6902435A615B6918400190E4
:102B0000019B02B07047C04600100240054B82B0E6
:102B1000DA690243DA61DB6918400190019B02B077
:102B20007047C04600100240054B82B09A690243CC
:102B30009A619B6918400190019B02B07047C046A2
:102B400000100240EFF31082012383F3108820214C
:102B500003688B43036082F310887047EFF31082A1
:102B6000012383F31088402103688B43036082F3C1
:102B700010887047EFF31082012383F310888021BF
:102B800003688B43036082F31088704770470388A3
:102B90005940CAB211015140C9B21A0A0B09534037
:102BA0000A025340C90059400180704770B50600C1
:102BB00014000D00013C054BA4B29C4205D02978BD
:102BC0003000FFF7E4FF0135F4E770BDFFFF0000C0
:102BD00037B501236A460C0005005B42D380013CF7
:102BE000064BA4B29C4206D06B462978981DFFF78D
:102BF000CEFF0135F3E76B46D8883EBDFFFF0000EE
:102C000090238022DB0512029A6270479023802273
:102C1000DB0512029A61704770B58368456804004D
:102C2000E81A6423E0605843034B598DFDF79CFA82
:102C3000A560207470BDC046F80400204268836817
:102C40008260D31AC3607047044B1888044B1B88FA
:102C5000C01A431E9841C0B27047C0464A2D00209A
:102C6000482D00200023044A1380044A1380044A9C
:102C70001380044A13807047482D00204A2D0020FD
:102C80004C2F00204E2F002070470000064A0749B5
:102C9000138809880133DB05DB0D994202D0044912
:102CA000C85413807047C0464223002040230020B0
:102CB00040210020034BC21800235380014A835255
:102CC0007047C0466E020000034BC21800235380B9
:102CD000014A83527047C0465A0200000300304A3E
:102CE00010B5506A1A7A80B2002A0DD0FA249A8957
:102CF0006400821A92B2A24201D900221A729A7A10
:102D00004F2A01D900221A729881187A08280FD800
:102D1000FDF70CFA050E0E0E0E0E0F172200EE290F
:102D200001D0C82904D1012259759A7205321A724C
:102D300010BD9A7A501C9A189872517507225972D0
:102D4000F5E7987A421CD2B218189A724175597AEE
:102D50009142EDD20822EAE79A7A501C9A189872AA
:102D60005175DA7D162A04D11A00012165321170DD
:102D700010E059690B4A0A400B498A420CD1A22241
:102D8000598BD200914207D11A000121673211708C
:102D9000197F51700922CAE71A0001216632E6E75D
:102DA0000004004000FF00FF00C80032044B1888F8
:102DB000044B1B88C01A431E9841C0B27047C046DE
:102DC000422300204023002070470000044B0020D5
:102DD0001B78022B02D1034B723318787047C04620
:102DE00071080020EC06002010B568300288838846
:102DF000541C234044889C4202D082189171038065
:102E000010BD08B4024B9C46143808BC6047C0464D
:102E1000E92D0008074BC2185188C35A5B1A98B2B3
:102E20001B0403D593880133C01880B2431E984118
:102E3000C0B270476E02000008B4024B9C461438C2
:102E400008BC6047152E0008074B0749C218415AB5
:102E500053880020994205D0D11888799188013390
:102E60000B4053807047C0466E02000008B4024B0E
:102E70009C46143808BC6047492E000870B54A7853
:102E80000D0004000C31352A09D80FF0B3FE3622AC
:102E900068780021121A20180FF0C8FE70BD362283
:102EA0000FF0A8FEFAE770B54A780D0004000C3167
:102EB0001B2A09D80FF09EFE1C2268780021121AE6
:102EC00020180FF0B3FE70BD1C220FF093FEFAE73E
:102ED00070B54A780D0004000C31082A09D80FF0AB
:102EE00089FE092268780021121A20180FF09EFE30
:102EF00070BD09220FF07EFEFAE770B54A780D002A
:102F000004000C31072A09D80FF074FE08226878F3
:102F10000021121A20180FF089FE70BD08220FF050
:102F200069FEFAE7064B9A8CEFF31081012282F3D7
:102F3000108818681F3202431A6081F310887047A6
:102F400000440040064B00201B78022B07D1054BA4
:102F50004C331B78181C002B00D10120C0B27047E5
:102F600071080020781F00200288838810B5541C47
:102F7000234044889C4202D082189171038010BD86
:102F800010B50368DB68984710BD7047064B9A8CF4
:102F9000EFF31081012282F3108818681F32024378
:102FA0001A6081F3108870470038014070B5050041
:102FB0000C002178002905D02B682800DB68984791
:102FC0000134F6E770BD10B5FFF7F0FF10BD00004B
:102FD000902310B5DB050400984209D180208002BF
:102FE000FFF786FD0F4B9C420CD18020C00307E009
:102FF0000D4B984207D00D4B984207D1802000031B
:10300000FFF776FD10BD8020C002E9E7084B98422B
:1030100002D180204003F3E7064B9842E2D18020A2
:103020008003EDE700140048000400480008004851
:10303000000C0048001000481B4B10B504009842DB
:103040000BD180200001FFF76FFD184B9C420ED181
:1030500080204002FFF768FD25E08023DB059842D1
:103060000BD0134B98420CD10220FFF74FFD114BB0
:103070009C420CD180208002ECE70120FFF746FD46
:10308000E3E70D4B984208D11020FFF73FFD0B4BB3
:103090009C4208D18020C002DCE7094B9842D4D181
:1030A0002020FFF733FD10BD002C014000400140FF
:1030B000000400400044014000100040004801406E
:1030C00000140040044B10B5984203D180208000CA
:1030D000FFF72AFD10BDC04600240140F0B50E00E8
:1030E00089B000930EAB1F780FAB1B78050014005E
:1030F0000021142203A801930FF098FD02960B2CD7
:1031000023D82000FDF712F8060609131515151728
:1031100017171B1D0323039301E002230693009B53
:10312000032B21D81800FDF701F811131D110123FD
:10313000F4E70123EFE7012303930593EFE702236D
:10314000E9E702230393013BF7E7FEE70323049338
:10315000082F1BD83800FCF7E9FF1A1A080D0F11C9
:10316000131517000123F2E7FEE70123079302235B
:1031700003930EE00223F9E70323F7E70423F5E7BF
:103180000523F3E70623F1E70723EFE7FEE7002F28
:10319000EDD1019B002B02D02800FFF719FF601F23
:1031A000042805D8FCF7C2FF030A04030A00AE6234
:1031B000280002A90CF00EFA09B0F0BDAE61F7E7E5
:1031C00013B50124019400240094FFF787FF13BD79
:1031D00037B51C00012506AB1B7801950094FFF75D
:1031E0007DFF37BD37B50D489025FFF7ABFC0024B8
:1031F00002238021ED05280000930A220194013367
:103200008900FFF76BFF03238021280001229940EA
:1032100001940094FFF762FF37BDC04600380140BB
:10322000F0B5040087B001AD17000E001422002194
:1032300028000FF0FBFC2000FFF7FEFE042F38D81B
:103240003800FCF773FF2529032D37001A4B1B4963
:103250001868FCF789FF83B200222900013B200097
:10326000EA606A602A612B80AE600CF05DFB802210
:103270002368134993432360A3680B407021A36024
:1032800063688B436360A3689343A36007B0F0BD9A
:10329000094B0C491868DCE7074B0B491868D8E75D
:1032A000054B08491868FCF75FFF0A2343439BB2AC
:1032B000D2E7FEE70123CFE74000002080A81201FB
:1032C000F8BFFFFF40420F0000127A0010B5040063
:1032D000FFF7A6FF012322681343236010BD0121DD
:1032E00010B500224942FFF7F1FF10BD184B10B591
:1032F0001B68184C23600DF041FD09F061FB902024
:10330000C0050CF001F914480CF0FEF813480CF05D
:10331000FBF813480CF05AFC12480CF057FC0CF068
:10332000ABF90022104B1A605A609A6072B6012302
:103330000E4A5B42D367C0220D4952008B5062B6E1
:103340000C4B1B6883F3088823689847FEE7C04648
:1033500004C8FF1F80070020000400480008004840
:10336000003801400044004010E000E004E100E0CB
:1033700000E100E000C8FF1F10B58AB004000C2275
:10338000002102A80FF052FC1422002105A80FF022
:103390004DFC802301A91B06200001930CF07EF850
:1033A00000238022059306930893802392015B01FA
:1033B000200005A9079209930CF08CF80AB010BD03
:1033C000010010B504241800CB685203A343CB605E
:1033D0008B6A520B1A438A6207224B6913434B6173
:1033E000063A00230299FFF7EBFE10BD1023826816
:1033F000094910B50A401A43826082681A42FCD11A
:10340000022283680B401343836083681342FCD11C
:10341000FFF758FE10BDC046E8FFFF7F01220260A3
:10342000836804490B401343836003681342FCD054
:103430007047C046E8FFFF7F0748084B10B5C01A29
:10344000EFF30883591E0022884201D8C243D218E4
:10345000AA210FF0EBFB10BD00400020000400008B
:1034600070B59024E4052000032306220121FFF714
:10347000A7FE032380210F4D994028000222FFF769
:103480009FFE032328001A004021FFF799FE200029
:10349000032305221021FFF793FE280003230522B2
:1034A0000221FFF78DFE0323052220212000FFF7D4
:1034B00087FE70BD00040048024B18694006C00F2B
:1034C0007047C0460004004810B5FFF7F5FF00281C
:1034D00001D0C046F9E710BD0222044B9A62902346
:1034E0001E32DB059A61103A9A6170470004004869
:1034F00090231022DB059A6292189A62014B1E3AC1
:103500009A617047000400481249134A0B69C120B0
:103510001A4080235B0013430B61104B10495A681B
:1035200080000A405A601A680A401A60DA680A4045
:10353000DA6080229968D2000A4380219A60094AA1
:10354000090613581B021B0A0B43135080231360F8
:103550007047C04600000140FFF0FFFF000401403B
:10356000FFFBFFFF00E100E08023034ADB00536123
:1035700011680B431360704700040140802110B5AF
:103580000A4C0023200006224900FFF719FE200004
:10359000002306228021FFF713FE8021002306224C
:1035A00020008900FFF70CFE10BDC0460004004853
:1035B00080220549520448690304134080225200C6
:1035C000824313438B617047000400488022054901
:1035D00012044869030413408022824313438B6121
:1035E0007047C0460004004813B50D4C2000FFF79B
:1035F000FDFE2000FFF7C0FE802290230021200066
:103600000092DB05074AFFF7DBFE2000FFF706FF0D
:10361000A368054A1A4004231343A36013BDC046A0
:10362000002401408000001CE8FFFF7F104B0220B7
:103630001B6C9BB2C72B1AD9C7210E4A49009A1896
:1036400092B206308A4212D90B4A07389A1892B2BF
:103650008A420CD9094A03309A1892B28A4206D992
:103660000020074A9B189BB29942404100017047D5
:1036700000240140E9FCFFFF01F9FFFF4BF5FFFFCC
:103680003EF3FFFF9020002303228021C00510B5E8
:10369000FFF796FD9021102200238020C9050C69B8
:1036A000044201D10133DBB2013AD2B2002AF6D191
:1036B0000C2B01D9FFF71AFE10BD000010B502480F
:1036C000FFF70DFE10BDC046001400400449013054
:1036D0004A6A80B292B24B6A9B1A8342FBD370470C
:1036E0000014004070B5FA250400AD00002C05D090
:1036F0002800013CFFF7EAFFA4B2F7E770BD1FB551
:103700000023029001936946013301A8039309F055
:10371000A3FB431E9841043005B000BD0A000023FE
:10372000010010B5022009F031FB431E984104301E
:1037300010BD10B5FFF7E3FF04384342584180B293
:1037400010BD10B5FFF7EAFF04384342584180B27C
:1037500010BD0000F0B50E00140085B0012827D080
:103760003C27244B244D0293244B019309F0C6FAC5
:1037700039002800FFF7DDFF00282BD0002E01D1F3
:10378000FC24E4000334A410A3B22C00002703930C
:103790001034039ABBB29A421ED9002E0FD1029B5D
:1037A0005B1B1B1919684B1C0CD101370434F0E763
:1037B000114B3D270293124B0E4D0193D6E7BB00F0
:1037C000F158F0E7019B9C4212D22000FFF7B9FFAD
:1037D0000028EAD1002406E028000A49FFF7B1FFDB
:1037E00004240028F6D009F09DFA200005B0F0BDB1
:1037F0000324F8E700E8010800E00108FFE70108FA
:10380000FFEF01081111111110B509F077FA3C21F1
:103810000848FFF78EFF002806D03D210648FFF735
:1038200088FF0424002800D1002409F07BFA20003E
:1038300010BDC04600E0010800E80108002310B5F3
:10384000074C9AB2914207D9064A9A18A24205D06B
:103850001278C2540133F4E7042010BD0320FCE7C2
:10386000FFE7010810E0010870B504000D0072B612
:103870000A0001000020FFF76DFF62B6042806D1A0
:1038800072B62A0021000338FFF764FF62B670BDEC
:10389000104B70B51D68104B1C68104B9D4208D131
:1038A0000420AC4204D0002211000338FFF752FF7D
:1038B00070BD9C4203D1002211001000F6E7FFF713
:1038C000A3FF0428F4D1200028400130434258418E
:1038D0000130EDE700E0010800E8010811111111C5
:1038E0000122044B187399681142FCD0187BC0B2B6
:1038F0007047C0460030014010B508781400FFF74B
:10390000EFFF207010BD000030B58DB028220021DF
:1039100002A80FF08BF98025802090242D02E40569
:103920004001FFF701F92900200003230622FFF7D9
:1039300047FCA561032401230A2208211D480094A5
:10394000FFF746FC01230A2220211A480094FFF7C2
:103950003FFC22000123102116480094FFF738FC99
:10396000822252000392FC3200230792E0220825B3
:10397000114CD20005930693029309930A932000F9
:10398000073302A904920B9308950BF08FFF1022C6
:103990006368934363606368AB436360402322685A
:1039A000134323600223A2681A42FCD0237B0DB08C
:1039B00030BDC046000400480030014020231A4AB0
:1039C00070B5D069184211D0116819420ED0174C49
:1039D000918C174D23882D8801335B0589B25B0DCF
:1039E0009D4203D0134DC9B2E95423801F231362B3
:1039F0006133184212D0116819420FD00E4B0F4993
:103A000018880B8898420AD00B880133DB05DB0D40
:103A10000B800B880A499BB2CB5C138570BD0248B2
:103A2000FFF7A8F8FAE7C046004400404A2D0020FE
:103A3000482D0020482500204E2F00204C2F00202C
:103A40004C2D00200D4902000B880D4810B50133A4
:103A50000488DB050020DB0D9C420ED00948C254CF
:103A60000B80EFF31081012080F310888023064A39
:103A700014682343136081F3108810BD4E2F00207B
:103A80004C2F00204C2D00200044004010B50800B1
:103A9000FFF7D8FF10BD0000064B074A1B881288AD
:103AA0009B1A98B21B0403D580231B01C01880B257
:103AB0007047C0464A2D0020482D002010B5FFF762
:103AC000EBFF10BD0848094A018813889942FBD0D2
:103AD000138801335B055B0D13801388044A9BB286
:103AE000D05CC0B27047C0464A2D0020482D00204F
:103AF0004825002010B5FFF7E5FF10BD70B50C009C
:103B000088B0060015000021082206A80FF08EF8E4
:103B100023005A1E93411B0302930C2301A904485E
:103B200001960395049405930CF09AF808B070BDC3
:103B30000044004070B50125044C2368AB4323606A
:103B4000FFF7DCFF23681D43256070BD0044004083
:103B5000002210B508001100FFF7ECFF10BD0000B7
:103B600073B501258020354C800223680326AB43C2
:103B70002360FEF7CBFF902002230A220421009647
:103B8000C005FFF725FB9020022332000821009694
:103B9000C005FFF71DFB0022E12011004002FFF7E6
:103BA000ADFF6368264AC72013402A22FF216360C5
:103BB000A36880009343A360224B1A588A431100E4
:103BC00080220A431A50802252051A602000FEF714
:103BD000D1FF2000FEF7C2FF4023002623621A4BCC
:103BE00020001E80194B1E80FEF7ACFF184B194AAF
:103BF0001E80194B80211E806368890313400822B0
:103C00006360A3689343A3606368144A134022224D
:103C10006360A3689343A3608023A2685B0113439E
:103C2000A36023681D4380232560DB03E2690A4209
:103C3000FCD0E2691A42F9D073BDC046004400408E
:103C4000FFB7FFFF00E100E04C2F00204E2F0020C7
:103C5000482D0020FFF7FFFF4A2D0020FFBFFFFF88
:103C600010B5FFF77DFFFFF75DF910BD10B5FFF749
:103C7000F7FF10BDF0B58021022485B006000623B1
:103C80000B22244889010094FFF7A2FA80212148E1
:103C9000C90106230B220094FFF79AFA30681E49E7
:103CA000884209D180251D4AED03D4692C43D46193
:103CB000D3692B400293029B002380221027184DCA
:103CC000184C6B60AB60EA602B616B61AB61EB61C0
:103CD0006760A360E26023616361A361E36188427E
:103CE00016D101200D4A51690143516153690340C6
:103CF0000393039B0C4B28002B6008F001FF0B4B38
:103D00002000F5636E62236008F0FAFEB463666219
:103D100005B0F0BD0004004800580040001002400B
:103D2000640E0020A80E002058000240440002400B
:103D300010B501221A4C1B4BE260236000231A4A83
:103D40002000A36023616361E36123626260A36179
:103D500009F060FA011E21D120000AF057FA011E75
:103D60001CD120000AF078FA002817D1C620FF21C4
:103D70000E4B80001A588A431100C0220A431A5081
:103D8000802252041A60C02110381A580906120203
:103D9000120A0A431A50802212011A6010BDC0464E
:103DA000EC0E0020005800401A09102000E100E04D
:103DB000064810B503689A69E023DB001A4202D076
:103DC0000AF0E4F910BD09F091FCFBE7EC0E0020CD
:103DD00010B5034808F027FF024808F024FF10BD83
:103DE000A80E0020640E0020014B18707047C046DA
:103DF000400F00201FB5084B0C00197801235B42CF
:103E0000029301924900020000940233034809F032
:103E100057FA04B010BDC046400F0020EC0E002041
:103E200013B50C00054B19780192012302004900DB
:103E30000094034809F022FB16BDC046400F002045
:103E4000EC0E0020012310B5044A054811780A221F
:103E500099405B4209F0A6FB10BDC046400F002010
:103E6000EC0E002010B5FFF763FF0022014B1A7023
:103E700010BDC046400F002070B51A4C012520002F
:103E8000194B9022002108C00EF0D0FE174E2C23B3
:103E9000310005221648FDF781FC164B31006363A3
:103EA000154B6D42A36305222C231448A587FDF70B
:103EB00075FC0223E3662300220070331D8000237B
:103EC0007232137022000E4978320E4863671380F5
:103ED0000EF0CFFE23007F228F331A70052390341B
:103EE000237070BDEC06002001000700AC40010803
:103EF000F206002002000F00030005002A07002040
:103F0000C63101086607002070B5084C4518415CB1
:103F100020000EF0A0FE031E05D0001B0130C3B22E
:103F2000272B00D90023E35C2B7070BD6847010884
:103F300070B50D001100040016000EF09AFE002D61
:103F400013D0681E082808D8FCF7F0F805101214E2
:103F500016181A1C1E0035236371627973799A4210
:103F600003D105212000FFF7CFFF70BD6123F3E7E8
:103F70006623F1E76B23EFE77023EDE77523EBE7AB
:103F80007A23E9E73123E7E73223E5E773B5050054
:103F90002E0001001B4A68461136FFF7C9FF3601A3
:103FA000194CB01C694600190EF063FE1420022360
:103FB00000216843A61973722B0100191B19020016
:103FC000FE33998301234A321380E3840F4AFF337F
:103FD000A3620F4BC26402000425E3622300503247
:103FE000543015705180303301700C22094819701B
:103FF0000EF01CFE220002230832FF334834D38720
:10400000238073BD973101083005002001020000B4
:10401000030101006A050020F0B505002E0085B0FF
:104020000100B84A02A81136FFF782FF3701B64CEB
:10403000B81C001902A9E7190096FDF7B5FA7B7ABA
:10404000052B01D900237B72B04B009A198812010D
:104050000F00A218507A074101203E000640074297
:1040600010D1567200290DD00A000240014209D138
:104070000E001641D7B2064200D101E2009A1201A9
:10408000A21857722A01A118FF31C87E032801D94E
:104090000020C8765F88A1183E00FF31C87E064127
:1040A0000120064214D10226CE76002F10D0B9107E
:1040B0000E00064001420BD13100CEB201963E0007
:1040C0000E41064200D1E0E10198A118FF31C87607
:1040D000A118FF31087F032801D9002008779888AC
:1040E000A2180700FF32117F0F4101213E000E4050
:1040F000B4462E0101960F4211D16646167700286C
:104100000DD002000A40084209D106001641D7B27C
:104110000E4200D1BEE1019AA218FF321777009A31
:104120001601A619727A012A06D9042A04D00021A0
:10413000019AA218FF321177142211006943611805
:104140004A310878042801D9012008706A43A2186E
:104150004B321178042901D9002111701422998E53
:104160006A430E00A2184B32107806413000012637
:10417000304212D1167000290FD048100200324090
:1041800030420AD10F001741D0B2374200D186E148
:1041900014226A43A2184B32107014226A43A218E8
:1041A0004C321178032901D9012111701422D98EC2
:1041B0006A430E00A2184C321078064130000126E6
:1041C00007003740304211D1177000290ED00A0085
:1041D000324031420AD10F001741D0B2374200D1EC
:1041E00062E114226A43A2184C32107014226A430E
:1041F000A2184E321178012901D900211170142220
:10420000198F6A430E00A2184E3210780641300012
:10421000012607003740304211D1177000290ED017
:104220000A00324031420AD10F001741D0B2374262
:1042300000D13EE114226A43A2184E3210701422BB
:104240006A43A2184F321178022901D90021117056
:104250001422598F6A430E00A2184F32107806417B
:104260003000012607003740304211D11770002975
:104270000ED00A00324031420AD10F001741D0B2AD
:10428000374200D11AE114226A43A2184F3210704B
:1042900014221100694361184D310878022801D9B0
:1042A000022008706A43A21850321178052901D9FA
:1042B00004211170142211006943611852310878E9
:1042C000012801D9002008706A43A21853321178DE
:1042D000022901D9002111701422998F6A430E001E
:1042E000A2185332107806413000012607003740EB
:1042F000304218D11770002915D00A0032403142DF
:1043000011D105E09731010830050020EC060020AE
:104310000F001741D0B2374200D1D4E014226A43D3
:10432000A2185332107014221100694361185431DD
:104330000878022801D9002008706A43A2181100E9
:104340004C310978012905D14F321178022901D168
:1043500000211170E21DD17F042901D90121D177FB
:1043600022000832D17F042901D90021D1771A0017
:104370006C321088220006000832D17F0E410121E4
:104380000E4210D1D17700280DD0461032000A40DD
:104390000E4208D107001741D6B20F4200D197E074
:1043A00022000832D677220028321178022901D95A
:1043B00000211170220029321178022901D901212E
:1043C00011706E332000198829300A0003786E4E70
:1043D0001A41130001221F00174013420ED107702B
:1043E00000290BD00B001340114207D10F001F41D1
:1043F000D8B2174271D033002933187023002A3302
:104400001A780C2A01D900221A70323423780C2B26
:1044100001D90023237033002B331A78042A01D9E1
:1044200000221A7033002F331A78012A01D9002292
:104430001A70564B3000703319882F300A000378F9
:104440001A41130001221C00144013420ED10470C3
:1044500000290BD00B001340114207D10C001C4166
:10446000D8B214423DD033002F3318700023190006
:10447000474A002010560400783436DA117036E0CE
:104480000132102A00D0F3E5FCE50131102900D0FB
:1044900013E61DE60132102A00D036E63FE601326F
:1044A000102A00D06EE678E60132102A00D092E69B
:1044B0009CE60132102A00D0B6E6C0E60132102A8E
:1044C00000D0DAE6E4E60132102A00D020E72AE73D
:1044D0000132102A00D05DE765E70133102B85D14A
:1044E0008CE70133102BB9D1C0E77828C6DC013343
:1044F000DBB201320C2BBCD100230121254A1078FC
:10450000022800D911700133DBB20132042BF6D13D
:1045100033002C331A78052A01D903221A7033008C
:104520002D331A78012A01D901221A7033002E3353
:104530001A78022A01D901221A70330030331A780E
:10454000022A01D900221A701423FF216B43F218AA
:104550005132117032002D01751931321170012460
:104560002A0064425533FC32FE351462F0180922E9
:104570003462B4846C840EF059FB330033331C7006
:104580007463348705B0F0BD30050020EC060020D0
:104590006A05002076050020134B00B598700328AB
:1045A00020D8FBF7C3FD020D1319104A9A620022AE
:1045B0001A710A3203381A74421E9041987300BD72
:1045C0000B4A9A6201221A710E32F3E7094A9A6283
:1045D00002221A711732EDE7074A9A6200221A7115
:1045E0000732E7E7FEE7C046F80400201400320077
:1045F00020001F003500130009006F000300F0B514
:104600001133714D1B019F1C7F1985B006003800C6
:104610000193FCF7EBFF0421039003A8FEF7D8FAFF
:104620006A4C039B6A4AA36014237343EB184A3312
:104630001B7860829B009B5C00222373654B236385
:10464000230034331A70019BEB185B7A63703301DB
:104650000193EB18FF33D87EFFF79EFF628A6378E1
:10466000A261002263732377A277934203D13800BB
:10467000FCF7ECFFA0773301EB18FF331B7F637768
:10468000002B09D05449628A594352186282534A16
:104690005343A268D318A360207F05283FD8FBF7B7
:1046A00045FD03303234363CA078032828D8FBF788
:1046B0003DFD0223250218232375494B207DA38548
:1046C000FCF7D0FDFF218905FCF7C2FAFBF742FF9A
:1046D000C0B2E085FA20218D8000FBF7CFFD1423C6
:1046E0007343EB18503320841878052848D8FBF71B
:1046F0001DFD173F4245474A1223DDE70C23DBE748
:10470000FEE71923D8E70623D6E70223D4E7A378E8
:10471000012BF1D0022BF1D0FEE70323CCE7FEE71B
:1047200096239B0114202200636200234643353206
:10473000AE191370E38633004C331B78032B03D080
:104740004F363278022A03D122000121353211700E
:10475000012B02D1220036321370230035331B782F
:10476000002B13D0220036321278002A0ED0FEE73A
:104770009623DB01D6E796231B02D3E7E123FBE771
:10478000E1235B02CEE7E1239B02CBE714222178F1
:104790004A43AD184C352A78022A0CD12200012157
:1047A00037321170002B08D037342378002B01D119
:1047B00005B0F0BDFEE7002BFAD1230036331B789D
:1047C000002BF1D1F4E7C04630050020F8040020AA
:1047D000AC4001080101000111110000111111117B
:1047E000E2040000DE2210B5FF21024852000EF064
:1047F0001DFA10BD30050020DE2110B50248490029
:10480000FFF732F810BDC04630050020DE2110B59C
:1048100002484900FFF712F810BDC04630050020DD
:1048200010B5FFF7F3FF024B1878FFF7F5FB10BD4B
:10483000F8040020F8B5FFF7D5FFFFF729F80428A2
:104840000CD0FFF7CFFFFFF723F8042803D1FFF7C1
:10485000DDFF042806D0FFF7C5FF03E0FFF7D6FF12
:104860000428EED150264C4CFF36A38A0025B342D3
:104870001BD0A4225200934233D8433AFF3A47490F
:104880004748FDF725F82300627FFF339A76A27F21
:104890000135DA7628000135EDB2FFF777FB0A2DF6
:1048A000F8D10023E3770125A682A92322695B00C2
:1048B0009A4201D0012523613A4E10223100200096
:1048C0000EF0DFF9002837D0102231002000FCF76D
:1048D000EDFF082234493548FCF7E8FFFFF78CFF6D
:1048E0002CE0A722520093421DD803250121022764
:1048F000453A2F4BFF3A187801280CD003280CD0EA
:10490000D87801280BD002280BD0013AD2B2143348
:10491000002AF0D1C7E71D70F2E71970F0E7DF70E9
:10492000F3E7D970F1E7002528000135EDB2FFF774
:104930002DFB0A2DF8D1B4E7002DCFD1E37F092B51
:1049400001D90023E37714221100E07F02264143BE
:1049500061180D004C352B78B343012B12D1002385
:10496000134A2978D1541433C82BFAD1114DE37F5F
:104970002B70FFF781FA2878FFF74EFB2878FFF7B6
:104980003DFEF8BD002804D020004A314A300EF028
:1049900031F90023E377E9E73005002046050020E0
:1049A000420600209E310108AF310108E2060020D6
:1049B0007C050020F804002030B503AC2578C41A2B
:1049C0001234201C1F2C00DD1F20040400D5002001
:1049D00000B2A84200DD28B2C0B2123B0870C01875
:1049E000107030BD07B5080011001A00182300939D
:1049F000FFF7E2FF07BD000037B50500022900D927
:104A0000FEE70A4809014418A3786278095CAC60A3
:104A100028000CF09BFDE07963790190A079227960
:104A20000090E17828000CF0B9FD37BDAC680108B2
:104A300070B50300040002000068153345691432A4
:104A40002000A84720222000217D0CF0F6FD70BD3B
:104A500070B501618D7A040086B0002D2AD0012145
:104A60000CF054FD012120000CF044FE0121200037
:104A70000CF056FE0821236920005956FFF7D8FF95
:104A8000236920001978FFF7B7FF002220001100EA
:104A90000CF051FD00231C4A009320001B490CF030
:104AA00091FD200019490CF0B1FD20000CF02BFE07
:104AB00006B070BD03210CF029FD200001210CF08F
:104AC00019FE200001210CF02BFE08212369200093
:104AD0005956FFF7ADFF23692A005E680C4B200092
:104AE000E360862110230CF043FE0A4B042203935B
:104AF0005B23702101932000059504960295009593
:104B00004B3B0CF041FEC0E703400000FFFF0000FC
:104B100098680108E86A000010B504000CF0F3FD85
:104B2000200002490CF072FD10BDC046FFFF0000DE
:104B300070B503000400020001690068097A456944
:104B400015331432200049B2A84723699A7A002A03
:104B500008D01B78022B00D9FEE7044A1B01D318AA
:104B6000A36070BD024BE360FBE7C046AC68010880
:104B70009868010810B50B4CA368002B05D1E368B9
:104B8000002B02D12000FFF7D3FF23699B7A002B73
:104B900004D0A3689868044BC01810BDE368D868B7
:104BA000F9E7C0460020002018FCFFFF836810B51D
:104BB0000400002B04D1C368002B01D1FFF7B8FF1C
:104BC00023699B7A002B03D0A3680C20185E10BDCC
:104BD000E3681020185EFAE7836810B50400002B24
:104BE00004D1C368002B01D1FFF7A2FF1520205686
:104BF00010BD70B54A1E04000D0001700120002197
:104C0000FBF734FC01225242D317E1612261636158
:104C1000A060E160A0610134E57770BDF7B58368FD
:104C2000012200930369002701930023C1684669AC
:104C30008B4212D802D1009CA2420ED835001D40F2
:104C40002C00019D1540AC4625006446254301D04B
:104C50000137BFB292185B41EAE7431CDF778269F4
:104C6000C36992185B418B420DD802D100998A42E8
:104C700009D88261C3618369019D9D43C369056150
:104C80009E434661F7BD012200238261C361F2E7C2
:104C90000300D8331B78002B0AD0D930037807499A
:104CA0001B01CA18926859581278920050587047E0
:104CB000037D0E339B001858F9E7C0464C400108AD
:104CC000F0B587B01D000CAB160004CB04000392B6
:104CD0006A461B780F001371402B01D940231371D2
:104CE0006B461B795B220021200002930DF09EFF92
:104CF000072008219F4B32785B8A024023701B0AF1
:104D00006370A3783F0183431343A3707378DB0080
:104D10000B40A1781F4301400F43A770012740219A
:104D200002207279E3783A40BB431343E370B379CE
:104D30003B409A0163798B43134363713056FCF710
:104D40008BFB4300E078384018437F239C46614644
:104D5000E0706046F2781A4023798B431343237145
:104D600032793A40D101227902400A4322713079E6
:104D70003F22F84007266179104091430143617159
:104D8000019B5900A3793B400B43A37129786878B4
:104D9000E171217A3040B143014321721F21A8788B
:104DA0000840217AC0003140014321726888617A4D
:104DB00040091040914301436172032166462879FE
:104DC0000840617A8001114001436172A988890815
:104DD000A1726879E17A80083840B9430143E172F1
:104DE000A879C9B23040B840394001430F20E17280
:104DF000EE88217BF6090640814331430726217363
:104E00002B7A217CE3736B7AB14333401943231827
:104E100059701F21AE7A0E40F10007260191597892
:104E20003140019E314359706E8999787609164058
:104E300091433143997003212E7B0E409978B6013E
:104E40001140314366469970AA899208DA70697BED
:104E50001A7989083940BA430A431A71AA7B197929
:104E60003240BA400F4017431F71E9895A79C90986
:104E7000014082430A43C0215A712B8AC900DB08D2
:104E800063756B8ADB08A375AB8ADB08E375EB8A75
:104E9000DB0823762A8B02238A4206D2FF33FF33B4
:104EA00093429B4103215B420B403021227B1B013B
:104EB0008A43C021134323736A8B0223C9008A42A9
:104EC00006D2FF33FF3393429B4103225B421340E0
:104ED0003F21227B9B010A40C02113432373AA8BED
:104EE0000223C9008A4204D2FF33FF3393429B411D
:104EF0005B423021227D1B018A43C021134323756D
:104F0000EA8B0223C9008A4206D2FF33FF33934261
:104F10009B4103225B4213403F21227D9B010A40BB
:104F2000134322002375002319320298D9B2884214
:104F300004D90399C95CD1540133F6E704AB9D1D34
:104F40000123210028005B420D222B80FDF72EFE5D
:104F500021002B780D3163736B784C224B70280045
:104F6000FDF724FE2B78593423706B78637007B0FB
:104F7000F0BDC046F804002013B504AC24780093BB
:104F8000019413000A000021FFF79AFE13BD0000F0
:104F900037B5184A43780178528A1B02040001256C
:104FA0000B439A4221D10F2283789343103B1D007B
:104FB000E032154013421AD18379A52B17D801236B
:104FC0006A465B42D3806B4601005922981DFDF76B
:104FD000EDFD23006A4659335A3419782378D28874
:104FE0001B020B439A4200D0042528003EBD022537
:104FF000FBE7C046F804002030B54A4A0178D31DCB
:10500000DC7F0F231C4099432143017011000831BC
:10501000CC7F01782401194021430170110028310F
:105020000C7841781C40994321434170110029318B
:105030000C784178240119402143417011002A3134
:105040000C7881781C4099432143817011003231E2
:105050000C7881791C4099432143817111002B31D7
:105060000C788178240119402143817011002C3182
:105070000C78C1781C4099432143C17011002D3137
:105080000C78C178240119402143C17011002E31E0
:105090000C7801791C4099432143017111002F3193
:1050A0000C7801792401194021430171110030313C
:1050B0000C7841791C4099430B0023434371040051
:1050C000030019490B33173400254D5701311D706A
:1050D0000133A342F8D11300032146331C78C37D6A
:1050E0000C408B432343C375130047331C780C23B8
:1050F0000C40A500C47D9C4313002C43C475483369
:105100001B7849321940E3B230240901A3430B4311
:105110003F21C3751278DBB292010B401343C37574
:1051200030BDC046300500206A0500200278334BB0
:105130001207120FD91D30B5CA771900027808314D
:105140001209CA771900427828311207120F0A7023
:1051500019004278293112090A70190082782A311F
:105160001207120F0A701900827932311207120FDA
:105170000A70190082782B3112090A701900C2785E
:105180002C311207120F0A701900C2782D31120942
:105190000A70190002792E311207120F0A701900D5
:1051A00002792F3112090A70190042793031120741
:1051B000120F0A700400020011490B321734002547
:1051C000555701320D700131A242F8D11900C27D4C
:1051D00046319207920F0A701900C27D47311207BB
:1051E000920F0A701900C27D48319206920F0A7020
:1051F000C27D493392091A7030BDC0463005002087
:105200006A0500201FB503AC2370012301930094AD
:1052100013000A000221FFF753FD1FBD7FB5224D89
:1052200001222B0072331A700400C61D437A807A63
:1052300000021843FCF7E0FA6867237BE27A1B025E
:1052400013432A002100783213800D3114221748AD
:10525000FCF73EFB1A222B00B2568F331A70200047
:105260002B00F27E903323301A70FFF75FFF21008E
:105270001022684641310DF0BDFC2C2308226946FE
:105280000B48FCF713FA230051331A782B006C33C8
:105290001A80230052331A782B006E331A8053344D
:1052A000237870352B807FBDEC0600206607002038
:1052B0002A070020F0B5402697B006AC0390049171
:1052C00005920021320020000DF0B0FC22230A20BC
:1052D000174F184D397823700901133104ABFF3192
:1052E0004919C0180622FCF7E1FA0F203B781A0191
:1052F0001133AA181B01FF32EB18117F5B7AD27EA3
:10530000034012011A430B00617A034081431943A1
:1053100009A822726172FFF76FFE0221059B049AB1
:10532000039801960094FFF7CBFC17B0F0BDC04680
:10533000F80400203005002010B50400FDF76CFCD7
:1053400020001430FDF768FC20002830FDF764FCD5
:1053500020003C30FDF760FC20005030FDF76EFC73
:1053600020006430FDF76AFC10BD000070B500231A
:10537000082504000A4A83801268837183810384AC
:10538000826008492A0010300DF034FC20002A0009
:10539000054918300DF02EFC044B236070BDC0464B
:1053A0005C2F0020B5310108BE31010860EA000021
:1053B00010B50220FFF7F0F80E4C2000FFF7ACFB11
:1053C000802120004942FFF733FB002120000CF030
:1053D00087F8FA208000FEF779F9200001210CF00F
:1053E00095F8236920001978FFF706FB2000FFF7E6
:1053F00093FB10BD0020002010B51B4B441C1A6805
:10540000E37F811C002B02D1CB77826016E0CB7F3B
:10541000013B5BB2CB77002B08DC0023E377F4E79A
:105420004379002B1FD0012303711BE08368D21A3C
:10543000FA231B019A4201D9012343710379002BFE
:10544000EED00A4B427B1B78002A03D0022B01D0FE
:1054500003220273023B5A42534143738379002B68
:1054600001D00323037310BD5C2F002071080020BE
:105470000300007B0022811E012903D8591CC97F2B
:10548000914201D11A7370471000FCE70A4A70B5C7
:105490001388040001339BB20D00502B01D81380F8
:1054A00070BD002305491380FDF780FD2900200011
:1054B000FDF77CFDF4E7C046800D0020B8320108FE
:1054C000F0B51700050085B001916A49FDF76EFD42
:1054D00039002800FDF76AFD0023674A674C1380F6
:1054E000019A012A10D180260133FF33A361644859
:1054F000A662FEF7EBF86248A661FEF7E7F839000E
:105500002800FFF7C3FFF2E7019A8026022A0ED196
:10551000A661B6195A48A662FEF7D8F85848A6619F
:10552000FEF7D4F839002800FFF7B0FFF2E7019A40
:10553000032A0FD180235B00A3625148A662FEF7C5
:10554000C5F84F48A661FEF7C1F839002800FFF7FB
:105550009DFFF2E7019A042A0FD1A6628026760009
:105560004748A662FEF7B2F84548A661FEF7AEF8D6
:1055700039002800FFF78AFFF2E7019A052A12D1C5
:1055800080235B00A6623E48A362FEF79FF880235B
:105590005B00A6613A48A361FEF798F8390028003D
:1055A000FFF774FFECE7019A062A12D180235B0013
:1055B000A6623348A361FEF789F880235B00A661E9
:1055C0002F48A362FEF782F839002800FFF75EFF3C
:1055D000ECE7019A0A3A042A40D8019A0293093A60
:1055E000D2B20392029B039A934202D280235B00C1
:1055F000A362042680232248A362FEF767F8802373
:105600001F48A361013EFEF761F8F6B23900280099
:10561000FFF73CFF002EEDD180235B00A361043631
:1056200080231748A362FEF751F880231448A36132
:10563000013EFEF74BF8F6B239002800FFF726FFCF
:10564000002EEDD1029B0133DBB20293019B029A43
:10565000083BDBB29342C5D20296C3E780235B00CE
:10566000A662A3620748FEF731F839002800FFF769
:105670000DFFF7E7B8320108800D00200004004854
:10568000A861000050C30000802302220949524251
:10569000DB051A610A88013A92B20A800A88002A58
:1056A00006D10121DA688A43DA601A688A431A60EF
:1056B0007047C046C2070020802302220121DB057B
:1056C00052421A61DA688A43DA601A688A431A60B9
:1056D0007047000010B58AB0FFF7EEFF012380216C
:1056E00000930A220233194809018024FDF770FD56
:1056F000FA21E405200000228900FDF791FD0C222B
:10570000002103A80DF092FA022260238021029367
:105710000692A0330792200002AA49010893099338
:105720000AF052F90A4AC32053680A4980000B4024
:10573000C0215360084A090613581B021B0A0B4379
:10574000135080231B0213600AB010BD00040048F0
:1057500018000040FFFBFFFF00E100E010B5094822
:10576000FAF702FD80230122DB05D86240081864A5
:1057700019680A431A608022196A52010A431A62A0
:1057800010BDC04640420F0070B51048802415007F
:105790000E00FAF7E9FCE405E0624308FA2128006C
:1057A000236470438900FAF7DFFC094B80B218804C
:1057B000012322681A4322608022216A52010A438F
:1057C0002262E2681343E36070BDC04640420F00AE
:1057D000C207002010B5002904D1F531FF31FFF7D1
:1057E000BDFF10BD182905D8FA2252001100FFF79D
:1057F000CBFFF6E7FA224A2902D9632903D83222DD
:10580000FA214900F3E7FFF757FFEAE78023DB05BA
:105810001B6810B5DB0704D4FA2128224900FFF7E2
:10582000B3FF10BD054A064B11681B785B18136067
:10583000044A1368013313607047C0465C2F002090
:10584000440000207C0D0020014B18687047C046C2
:105850005C2F0020F7B50C001D0000280DD16B4611
:10586000064E9F1DD91D3A0030000BF034FF2B006F
:105870002200300039780BF010FEF7BD0020002028
:10588000F7B506000C0017000F4D0193002816D144
:10589000FDF722FE3B002200310028000BF0D9FD6D
:1058A00028000A490BF0B2FE019B28001A010121D1
:1058B00092B20BF0D0FE7D20FDF708FFF7BD280067
:1058C000FFF72AF9FAE7C04600200020FFFF00009A
:1058D000F7B55B270600274C3A0001912000002114
:1058E0000DF0A4F9337C01212370737C20006370D8
:1058F000B37C214DA370F37C0A30E370337D2371B8
:10590000737D6371B37DA371F37D1C4EE3711C4BFA
:105910001B78023B5A425A41637A8B4313436372AA
:105920003178062209011331FF314919FBF7BEFF17
:105930000F213378227C1B01EB18FF33D87E0A40FD
:105940000001024322741A7F637C0A408B43134395
:10595000637420004A31FDF73BF923005933187076
:10596000000A58703A00337C21000198FFF788FF45
:10597000F7BDC0462D20002030050020F80400208F
:1059800071080020F7B50C00002816D110480E0051
:1059900003697A369F7A6B469D1D002F0ED0320028
:1059A00029000BF07CFE0022AB5E002B0BDB0123F9
:1059B0005B422B802B8878342370F7BD29000BF0D5
:1059C00041FF3770EFE77F33F4DA7F23F0E7C0461B
:1059D0000020002070B50D0006001C4C5B23220047
:1059E00021002800FFF736FF637822781B02A17898
:1059F0001A43E378090411431B066079A27919431D
:105A00002379000218431204E3791043B2691B069C
:105A100003438A4217D1F2699A4214D120005921D6
:105A2000FDF7D6F823005A34593324781A78240223
:105A30001443241A63425C41E4B228000449FFF78E
:105A4000A1FF601C70BD0024F7E7C046601E002067
:105A5000781F00200A0010B501000148FFF730FD53
:105A600028000020F0B5170093B01C0018AB1E787A
:105A700019AB1B78050002A801930DF0FAF817493D
:105A800002A80DF0DBF838000BF002FC010002A8C0
:105A90000DF0D4F8124902A80DF0D0F8114BA40073
:105AA000E15802A80DF0CAF80F4902A80DF0C6F897
:105AB0000E4CB600315902A80DF0C0F80C4902A8EE
:105AC0000DF0BCF8019B02A89B0019590DF0B6F827
:105AD0002900084802AAFFF7F3FCC046C7310108B5
