:020000040800F2
:10000000000001202D4D0008054D0008074D000897
:10001000094D00080B4D00080D4D000800000000C0
:100020000000000000000000000000000F4D00086C
:10003000114D000800000000134D0008154D000888
:100040007D4D00087D4D00087D4D00087D4D000868
:100050007D4D00087D4D00087D4D00087D4D000858
:100060007D4D00087D4D00087D4D00087D4D000848
:100070007D4D00087D4D00087D4D00087D4D000838
:100080007D4D00087D4D00087D4D00087D4D000828
:100090007D4D00087D4D00087D4D00087D4D000818
:1000A0004D1800087D4D00087D4D00087D4D00086D
:1000B0007D4D000800000000000000007D4D00089C
:1000C0007D4D00087D4D00087D4D00087D4D0008E8
:1000D0007D4D0008251300087D4D00085D160008C1
:1000E0001D4100087D4D00080000000000000000D8
:1000F0000000000000000000000000000000000000
:10010000000000007D4D0008000000007D4D00084B
:1001100000000000000000007D4D00087D4D00083B
:100120007D4D00087D4D00087D4D00087D4D000887
:100130007D4D0008000000000000000000000000ED
:100140007D4D00087D4D00087D4D00087D4D000867
:100150007D4D00087D4D00087D4D00087D4D000857
:100160007D4D00087D4D00087D4D00080000000019
:100170007D4D00087D4D00087D4D00080000000009
:0C0180007D4D00087D4D00087D4D0008FD
:10018C0010B5054C237833B9044B13B10448AFF3C5
:10019C0000800123237010BDB0000020000000007F
:1001AC000C69000808B5034B1BB103490348AFF3B6
:1001BC00008008BD00000000B40000200C6900089D
:1001CC0010F8012B11F8013B012A28BF9A42F7D0F5
:1001DC00D01A7047034613F8012B002AFBD1181ACA
:1001EC00013870477F2807D0002807DA10F1800FFC
:1001FC0006D04042C0B270470020704701207047C3
:10020C007F20704710B1404240B270477F2070474A
:10021C007F280FD010F1310F0EDA10F1780F0DDBB3
:10022C007830FE2340B2584323304623B0FBF3F022
:10023C00C0B27047FF207047FE2070470020704707
:10024C00012805DD40F2FE73984203DC80B2704752
:10025C000120704740F2FF707047A0F57870C0EB3A
:10026C00C02040F2AE7390FBF3F000F58060FFF716
:10027C00E7BF000070B50D4D421E411D5F2412F802
:10028C00013FA3F16106192E0AD95F2B08D0233B3D
:10029C00DBB2162B03D825FA03F3DB0700D414705A
:1002AC008A42ECD10023837170BD00BF01EC7F004A
:1002BC0070B5411D451E01240020282615F8012F7C
:1002CC00A2F16103DBB2192B06D9A2F13003092B81
:1002DC000AD8A2F11603DBB2A3FB04321818A94208
:1002EC00A4FB0643EAD170BD5F2A08D0232A08D0AC
:1002FC002D2A08D02E2A14BF00232723ECE7242311
:10030C00EAE72523E8E72623E6E770B50446FFF77E
:10031C0061FF82B20023561E98B2B04214FA83F1E8
:10032C0004DA255C302D03F10103F5D0121A0132E9
:10033C002046BDE8704006F0FFB900002DE9F04FF3
:10034C000D4699B0164600211A461F46804606F007
:10035C000DFA00212A2201A8009106F007FADFF815
:10036C00CC90DFF8CCA0DFF8CCB005EB4606AE4263
:10037C004AD035F9020B47F6FF73984244D0002857
:10038C0012DC59460CA806F008FA6846FFF722FF63
:10039C0004460CA8FFF71EFF20448742E7D30CA9A4
:1003AC00684606F0EBF9E2E7B0F57A7F0BDA0CA9B8
:1003BC0080B205F046FF0CA8FFF7A7FF51460CA82A
:1003CC0006F0DCF9E1E70CA932306424B0FBF4F060
:1003DC0080B205F036FF0CA8FFF797FF0CA8FFF7CB
:1003EC00F9FE00F15F036B4400F160010DEB0100BD
:1003FC0013F8302C00F8302C2E2203F8302C00236C
:10040C0000F82F3C4946DAE76846FFF7E3FE30B1C7
:10041C0000F160030DEB0300002300F8613C69461A
:10042C00404606F0BAF919B0BDE8F08F2E69000805
:10043C002969000824690008F0B589B06D460024CC
:10044C002F468E1CE1B28A4205D936F8241025F8C5
:10045C00021B0134F6E73946FFF770FF09B0F0BD17
:10046C00020B00F03F0342F2107101FB0233C0F3A8
:10047C008510642202FB0030704770B50D460021D8
:10048C000446164606F072F900239AB2964204D935
:10049C00EA5C12B1E2540133F7E770BD70B50E4659
:1004AC00144600210132054606F060F900239AB289
:1004BC00944204D9F25C12B1EA540133F7E770BDEF
:1004CC0030B50024A3B293420DD2055D0B5D1DB96E
:1004DC00B3FA83F0400930BD3BB19D4204F10104F5
:1004EC00F0D00020F7E70120F5E71846F3E700000D
:1004FC0002680449044B01FB023323F00043036000
:10050C00180C7047FD430300C39E2600F0B595B050
:10051C000160044650220021684606F027F90025A8
:10052C000126627DAA4247D92046FFF7E1FF677991
:10053C007B1B002190FBF3F202FB1300C0B2EC46D4
:10054C000A46CBB29F420AD91CF801EBBEF1000F50
:10055C0003D1824204D00132D2B20131F1E700233F
:10056C000022277B1146D0B2874206D92069805CD5
:10057C000132984208BF0121F5E70029D1D1611958
:10058C0025B191F9152082B9012BCAD98B75A268B6
:10059C0052F82310503305F10E026B44013544F828
:1005AC00221003F8506CEDB2BBE7501E8342EDDB1A
:1005BC0001329342EADCB4E70023802104F1B80055
:1005CC00237515B0BDE8F04006F0D0B80023C0E9A3
:1005DC00013370470A2310B58380036804469B6877
:1005EC0098472368E080DB6820469847A06010BDE0
:1005FC008368002B70B504461CDD838843B1013B36
:10060C009BB28380B3B903681B68BDE87040184780
:10061C000368DB689847236805469B682046984723
:10062C00E388C01A281A0028A06003DD236820463E
:10063C005B68EAE770BDFF2303710023C38003727C
:10064C00704710B404798C42034603D0017121B178
:10065C00012902D05DF8044B70471B685DF8044B10
:10066C00DB6818472DE9F04F2DED068B85B0037B29
:10067C00877B0093437B009A057C467C90F813C0E3
:10068C0090F81EE090F82080BF000C4647EA9317C4
:10069C0003F03F01C37B490141EAD20103F001029F
:1006AC0047EA822705F00F02D20142EA530206F014
:1006BC007F031B0143EA1513857C01936D0045EA0A
:1006CC00D6150CF0030645EA4623067D029206F089
:1006DC001F05AD0108EE103A45EA9C03457D90F8E4
:1006EC0017C00391ED0008EE903A45EA5613857D4C
:1006FC000CF0070609EE103A45EA0623057E05F0D4
:10070C003F06760109EE903A46EADC03467E90F805
:10071C001AC0B60046EA95160CF0010546EA852685
:10072C00C57E05F00F0B4FEACB1B4BEA5C0B90F828
:10073C001CC00CF07F0A4FEA0A1A4AEA151A457FC8
:10074C006D0045EADC150EF0030C45EA4C2590F8DB
:10075C001FC00AEE103A4FEAC808009B48EA5C1822
:10076C000CF01F0990F80BC003F007004CEA0020B6
:10077C004FEA891949EA9E09FFF76FFD039920801A
:10078C000846FFF76AFD60803846FFF766FD029A5F
:10079C00A0801046FFF761FD019BE0801846FFF733
:1007AC005CFD208118EE100AFFF757FD608118EEF2
:1007BC00900AFFF752FDA08119EE100AFFF74DFDCC
:1007CC00E08119EE900AFFF748FD20821AEE100A1C
:1007DC00FFF743FD60823046FFF73FFDA08258468D
:1007EC00FFF73BFDE0825046FFF737FD208328469C
:1007FC00FFF733FD60834846FFF72FFDA08340468B
:10080C00FFF72BFD4FF48063E0832384638405B0F2
:10081C00BDEC068BBDE8F08F03682DE9F0419B68B9
:10082C0004460F4698474FF00108054623682046BA
:10083C001B6898470646F0B1236820465B689847CA
:10084C00237AA3B90F2814D1A4F80880637AE2188C
:10085C000133DBB2182B907263720AD939462046E9
:10086C00FFF700FF002323723046BDE8F081012B17
:10087C00ECD0E580DAE7237A012BF5D1E08840F65D
:10088C00C4132D1A9D42C8BF2672EDE70379012BC4
:10089C0001D8FFF7C1BF0020704770477047704701
:1008AC000020704700207047704700207047000000
:1008BC00054BDA6C0243DA64DB6C82B018400190B1
:1008CC00019B02B0704700BF00100240054B9A6DAF
:1008DC0002439A659B6D82B018400190019B02B057
:1008EC00704700BF00100240054B1A6E02431A6697
:1008FC001B6E82B018400190019B02B0704700BF84
:10090C000010024050E8003F43F0200340E8003262
:10091C00002AF7D1704700000A4B0B4A1B680B49A1
:10092C00A2FB03239B0C03FB00F0094B00F5FA72AE
:10093C00A3FB0232486892094B681B1A9342FBD303
:10094C00704700BF1C00002083DE1B43001000E03A
:10095C00D34D62100288514081EA0111C9B20B09D2
:10096C0083EA122343EA012383EAC1010180704721
:10097C0038B50C468D18AC4204D014F8011BFFF7A7
:10098C00E9FFF8E738BD37B54FF6FF730446ADF80D
:10099C0006304518AC4206D014F8011B0DF10600C8
:1009AC00FFF7D8FFF6E7BDF8060003B030BD000036
:1009BC0008B51E20FFF7B0FF044B4FF480529A622B
:1009CC002820BDE80840FFF7A7BF00BF000400487F
:1009DC0008B56420FFF7A0FF044B4FF480529A61D6
:1009EC006420BDE80840FFF797BF00BF0004004833
:1009FC00D0E901236421D31AC3604B430349C98A4C
:100A0C008260B3FBF1F30374704700BFCC0000208D
:100A1C00D0E90123D31AC0E902237047064B18789A
:100A2C0040B1064B1888064B1B8880B29BB2C01A8B
:100A3C0018BF0120704700BF0C000020CA14002012
:100A4C00C8140020044B1888044B1B8880B29BB23E
:100A5C00C01A18BF01207047D21A0020D01A0020EB
:100A6C00014B586A80B2704700400140704700004B
:100A7C00014B586A80B270470040014050294FEA40
:100A8C0010102DD019D830292DD00ED810292DD0DA
:100A9C0041F6786343F6F042202908BF1346174A03
:100AAC0002FA00F0B0FBF3F0704741F6786347F6BA
:100ABC001222402908BF1346F1E7802919D008D823
:100ACC00602918D00E4A41F67863702908BF134686
:100ADC00E5E70C4A41F67863902908BF1346DEE738
:100AEC004AF2E423DBE745F24013D8E742F6A003D1
:100AFC00D5E7054BD3E74FF22443D0E740420F0034
:100B0C0048E8010020A1070090D00300064B1B7899
:100B1C0043B1064A00231380054A1380054A13800B
:100B2C00054A1380704700BF0C000020C814002039
:100B3C00CA140020CC180020CE180020054B1B78BE
:100B4C003BB9054A1380054A1380054A1380054AB0
:100B5C00138070470C000020C8140020CA14002019
:100B6C00CC180020CE180020074B1B784BB9074B34
:100B7C001888074B1B8880B29BB2C01A18BF012083
:100B8C0070470020704700BF0C000020CA140020E2
:100B9C00C814002038B504464D1E15F8011F21B1AC
:100BAC00236820469B689847F7E738BD08B5FFF7E0
:100BBC00F1FF08BDB0F1904F02D10120FFF778BED4
:100BCC000A4B984205D003F58063984203D1042068
:100BDC00F4E70220F2E7064B984201D10820EDE73A
:100BEC00044B984200D070471020E7E700040048FF
:100BFC00000C00480010004808B5164B98420146FE
:100C0C0009D14FF40060FFF76FFE134B99421FD1CF
:100C1C004FF4003018E0B0F1804F07D00F4B9842E2
:100C2C0008D11020BDE80840FFF750BE0120FFF7A7
:100C3C004DFEEAE70A4B984201D12020F2E7094B1E
:100C4C009842E2D14FF48030BDE80840FFF74CBE2B
:100C5C0008BD00BF002C01400044014000100040C2
:100C6C0000140040004001402DE9F04387B00E46CF
:100C7C00054614460021142201A89DF838809DF8E1
:100C8C003C901F4605F072FD00960B2C07D8DFE850
:100C9C0004F007070A121414141616161A1CFEE791
:100CAC000323019301E002230493032F11D8DFE8FF
:100CBC0007F0111321110123F6E70123F1E70123BA
:100CCC0001930393F1E70223EBE702230193012342
:100CDC00F7E7FEE702230293B8F1100F0CD8DFE818
:100CEC0008F00E0E0C20222426282A2C2E3032340A
:100CFC0036383A000123EEE7FEE701230593059B06
:100D0C000BB102230193B9F1000F02D02846FFF773
:100D1C0051FF053C042C21D8DFE804F01F27201FCD
:100D2C0027000223EAE70323E8E70423E6E7052389
:100D3C00E4E70623E2E70723E0E70823DEE70923DD
:100D4C00DCE70A23DAE70B23D8E70C23D6E70D23DD
:100D5C00D4E70E23D2E70F23D0E7AE6269462846CC
:100D6C0004F02AFE07B0BDE8F083AE61F6E713B5D8
:100D7C004FF0010C0024CDE9004CFFF775FF02B0D9
:100D8C0010BD000070B586B004460D461646002115
:100D9C00142201A805F0EAFC2046FFF72DFF042ED3
:100DAC0004D8DFE806F02E3204363F00FEE71E4B77
:100DBC001E4A1B68B3FBF2F39BB20022013B01A954
:100DCC002046ADF80430CDE902250492059204F0DA
:100DDC00DDFF236823F080032360A36823F4A03392
:100DEC0023F00703A360636823F0700363606368F8
:100DFC0023F470036360A36823F08003A36006B040
:100E0C0070BD094B0A4A1B68D4E7074B094A1B689B
:100E1C00D0E7054B064A1B68B3FBF2F303EB8303E5
:100E2C005B00C9E70123C8E71C00002080A8120161
:100E3C0040420F008096980010B50446FFF7A2FFC1
:100E4C00236843F00103236010BD00224FF0FF31F3
:100E5C00FFF7F2BF10B50848032306224FF4804178
:100E6C00FFF785FFBDE81040032302224FF4004139
:100E7C004FF09040FFF77BBF00080048104A5369C1
:100E8C004FF4704123F4704391FAA1F153610D4B6F
:100E9C005A6822F400425A601A6822F400421A601E
:100EAC00DA6822F40042DA609A6842F400429A60EE
:100EBC00054BD02283F828234FF480725A60704778
:100ECC00000001400004014000E100E0044B4FF43D
:100EDC0000425A611A6842F400421A60704700BF1F
:100EEC0000040140064B1A6822F001021A605A688D
:100EFC0022F480325A601A6842F001021A6070477C
:100F0C0000480040064B1A6822F001021A605A6829
:100F1C0042F480325A601A6842F001021A6070473B
:100F2C00004800400248002303220121FFF71FBFA5
:100F3C0000040048024B1869C04300F001007047E0
:100F4C000004004810B5094C002305220821204656
:100F5C00FFF70DFF0023052204212046FFF707FFB2
:100F6C000823A3620423A36210BD00BF0004004841
:100F7C0005494B691A04DB4302F4002203F0080311
:100F8C0013438B61704700BF0004004805494B694F
:100F9C001A04DB4302F4802203F0040313438B6135
:100FAC00704700BF0004004808B50322002301214C
:100FBC000B48FFF7DCFE0A49102200230869C00722
:100FCC0058BF013302F1FF3258BFDBB212F0FF02FF
:100FDC00F4D1082B034A8CBF00230123137008BDE6
:100FEC00000400480C0000200C4BD3F8FC2022F02D
:100FFC008072C3F8FC20D3F8FC2042F08072C3F856
:10100C00FC20A3F55D431A6822F001021A601A68ED
:10101C0042F001021A6000225A60704700ED00E0B5
:10102C00064A074B51681B6810B5064CB3FBF4F32A
:10103C00584353685B1A8342FBD310BD001000E089
:10104C001C00002040420F007FB50123CDE90413A2
:10105C00002201A902A8CDE9022304F023F80028FC
:10106C000CBF0420052007B05DF804FB014608B551
:10107C00002003F071FF00280CBF0420052008BDE0
:10108C0008B5FFF7E1FF031F5842584108BD08B5EA
:10109C00FFF7ECFF031F5842584108BD2DE9F347F9
:1010AC00294B2A4D0128144629482A4A0E4617BFB7
:1010BC00AA463D213C211D46019106BF9A46804619
:1010CC00904603F001FF01992846FFF7D9FF38B38A
:1010DC00002E08BF4FF4FC640734E41005F1100730
:1010EC00B14606EBC404AAEB050AA1451FD06EB9A4
:1010FC000AEB0703D3E90023B3F1FF3F08BFB2F1BA
:10110C00FF3F06D1083709F10809EEE7D9E90023BA
:10111C00F2E7B84516D93846FFF7B9FF0028F1D1E8
:10112C00002403F0E3FE204602B0BDE8F0874FF048
:10113C0011324FF0FF332846FFF7A9FF0028EFD0FC
:10114C000424EEE70324ECE700E0010800E80108C2
:10115C00FFEF0108FFE7010810B503F0B5FE0848E2
:10116C003C21FFF78DFF20B106483D21FFF788FF9A
:10117C0020B9002403F0BAFE204610BD0424F9E780
:10118C0000E0010800E8010830B5084A084D0023CA
:10119C009CB2A14206D99C18AC4205D09C5CC454AC
:1011AC000133F5E7042030BD0320FCE710E0010813
:1011BC00FFE7010813B50A46044672B601910146D1
:1011CC000020FFF76BFF62B60428019A05D172B6B6
:1011DC0001202146FFF762FF62B602B010BD00008D
:1011EC0038B5124B1C68D3F80058B4F1113F09D133
:1011FC00B5F1113F17D0002211460120BDE838404F
:10120C00FFF74CBFB5F1113F03D100221146104638
:10121C00F4E7FFF7A1FF042804D12C4001340CBFE4
:10122C000220012038BD0420FCE700BF00E00108CB
:10123C00034B18739A68D207FCD5187B704700BF14
:10124C000038004038B5441E8D18A94206D014F859
:10125C00010FFFF7EDFF01F8010BF6E738BD08466B
:10126C0011461A46FFF7EEBF30B58DB0282200218B
:10127C0002A805F07BFA4FF48040FFF727FB4FF4F0
:10128C008051234803230622FFF771FD20480624D2
:10129C0001254FF4805383610A22CDE900450323D5
:1012AC004FF40051FFF7E0FCCDE90045184803234B
:1012BC000A224FF40041FFF7D7FC03231A46CDE96D
:1012CC0000451348134C4FF48041FFF7CDFC10221E
:1012DC0008924FF48272002303924FF40072CDE90E
:1012EC000533CDE909330293079207234FF4E062EB
:1012FC0002A920460B93049204F014FD236843F0DA
:10130C0040032360A3689B07FCD5237B0DB030BD45
:10131C0000040048003800401A4BD869820610B50A
:10132C000FD5194C19499A8C238809880133C3F3BA
:10133C000A0389B2994292B21FBF1549D2B2CA545C
:10134C002380104A1F231362030611D5114B124937
:10135C0018880B8880B29BB298420AD00B88013354
:10136C00C3F309030B800B880C499BB2CB5C138530
:10137C0010BD52E8003F23F0800342E80031002901
:10138C00F7D1F5E700380140CA140020C81400203A
:10139C00C80C0020CE180020CC180020CC14002043
:1013AC000C490D4A0B8812880133C3F3090392B21E
:1013BC009A420DD0094AD054094A0B8052E8003F9A
:1013CC0043F0800342E800310029F7D10120704737
:1013DC0000207047CE180020CC180020CC14002020
:1013EC0000380140034B1B7808460BB9FFF7D8BFF8
:1013FC00704700BF0C000020034B1B7808460BB154
:10140C00FFF7CEBF704700BF0C000020054B064A0B
:10141C001B8812889B1A98B21B0444BF00F500600D
:10142C0080B27047CA140020C8140020024B1878F0
:10143C0008B1FFF7EBBF70470C0000200848094AC1
:10144C000188138889B29BB29942F9D01388013371
:10145C00C3F30A0313801388034A9BB2D05C704712
:10146C00CA140020C8140020C80C0020024B1878A5
:10147C0008B1FFF7E3BF70470C000020034B1B784B
:10148C000BB9FFF7DBBF0020704700BF0C0000203A
:10149C0070B588B00C460646154600211C2201A8E2
:1014AC0005F064F901A804F053FE002C14BF4FF4AE
:1014BC0080530023CDE9023504940C23084C01968B
:1014CC000593236823F00103236001A9204604F04F
:1014DC00E9FD236843F00103236008B070BD00BF31
:1014EC0000380140044B1B7808461BB10022114602
:1014FC00FFF7CEBF704700BF0C00002010B588B0BE
:10150C001C220446002101A805F030F901A804F0C2
:10151C001FFE01940C23084C0593236823F0010350
:10152C00236001A9204604F0BDFD236843F00103AC
:10153C00236008B010BD00BF0038014070B5304CBE
:10154C00236823F001038AB02360082501264FF499
:10155C008040FFF7C9F94FF40071CDE90056032321
:10156C000A224FF09040FFF77FFB03231A46CDE988
:10157C0000564FF480614FF09040FFF775FB182236
:10158C00002104A805F0F2F84FF4964303930C23C2
:10159C000DEB03012046079304F084FD636823F4EC
:1015AC0090436360A36823F02A03A360154BB02219
:1015BC0083F8252320225A6054E8003F23F080034F
:1015CC0044E800310029F7D1402323620E4B0C482C
:1015DC0019800E4B1980FFF795F90D4B19800D4BA7
:1015EC001980636823F490436360A36823F02A0393
:1015FC00A360236843F0010323600AB070BD00BFF1
:10160C000038014000E100E0CC180020CE1800208A
:10161C00C8140020CA14002008B5FFF78FFFBDE8DE
:10162C0008400148FFF76EB90038014008B5FFF7D4
:10163C00F3FFFFF7B9FC054B1B782BB9BDE808404D
:10164C004FF4E130FFF75ABF08BD00BF0C0000207B
:10165C000B4BDA6992060FD50A480B499A8C038812
:10166C0009880133C3F3080389B2994292B21FBFB0
:10167C000649D2B2CA540380014B1F221A6270472A
:10168C0000480040D21A0020D01A0020D0180020A8
:10169C000848094A0188138889B29BB29942F9D04B
:1016AC0013880133C3F3080313801388034A9BB2D6
:1016BC00D05C7047D21A0020D01A0020D01800201D
:1016CC00FFF7E6BF70B588B00C46064615460021FC
:1016DC001C2201A805F04AF801A804F039FD002CE1
:1016EC0014BF4FF480530023CDE9023504940C232E
:1016FC00084C01960593236823F00103236001A98C
:10170C00204604F0CFFC236843F00103236008B0AB
:10171C0070BD00BF0048004013B54FF40052104894
:10172C000C464FF48061FFF7CDFF0120082184B9EE
:10173C00FFF7E8FBCDE900100323022209484FF420
:10174C000061FFF791FA084802B0BDE81040FFF7BE
:10175C00D9B8FFF7C7FB0323CDE900101A46EDE714
:10176C00A0860100000400480048004010B5234C3E
:10177C00236823F001038AB023604FF48020FFF725
:10178C00A5F808230122CDE9003203231A461C4890
:10179C004FF40061FFF768FA1822002104A804F046
:1017AC00E5FF184B03930C230DEB03012046079325
:1017BC0004F078FC636823F490436360A36823F01F
:1017CC002A03A360104BF02283F8272380225A604F
:1017DC002046FFF797F80D4A002313800C4A13801C
:1017EC00636823F490436360A36823F02A03A36027
:1017FC00236843F0010323600AB010BD0048004089
:10180C0000040048A086010000E100E0D01A00208E
:10181C00D21A0020084BDA6892070CD4074A01212F
:10182C0011805A6A10325A636FF002021A61DA6838
:10183C0042F00202DA607047004001409809002033
:10184C00324A13699B0710B526D56FF0020313615A
:10185C002F4B1B88516B11FA83F353632D4B198853
:10186C0089B2002946D01988013189B219801988AA
:10187C0089B2022911D84FF090434FF400629A625A
:10188C00254A13880133C3F3080313801388234AB2
:10189C009BB2D35C224A138010BD198889B20A29E5
:1018AC000FD81F4B1A8812F0010F4FF090424FF4D3
:1018BC00006114BF916191621A88C2F34E021A80C2
:1018CC00EAE7198889B20B294FF090414FF4006078
:1018DC00886109D1134A11880F4A128889B292B2D1
:1018EC009142D9D00122EAE7D16821F00201D160FE
:1018FC000022E4E74FF090404FF400648461D0681C
:10190C0020F00200D0601980C6E700BF0040014003
:10191C0094090020980900209C0B00209A090020B3
:10192C009A0B00209E0B002009490A4A08B50B8827
:10193C0012880133C3F3080392B29A4206D0064AC6
:10194C00D0540B80FFF766FF012008BD0020FCE798
:10195C009E0B00209C0B00209A0900200846FFF7E4
:10196C00E3BF0000B0F5614F0E4A0F4B0CD0B0F541
:10197C00E13F11D0B0F5165F0ED172B640F21241B4
:10198C00118040F21B6204E072B6AE2111804FF45C
:10199C0082721A8062B6704772B6572111806E221D
:1019AC00F7E700BF940900209609002010B5032327
:1019BC0088B005224FF400614FF09040FFF7D7F943
:1019CC00184C4FF090434FF400629A61204601226C
:1019DC004FF6FF71FFF730FA20220021684604F021
:1019EC00C5FE6A460121204604F00AFAA36923F0D9
:1019FC000403A3616FF0020323610B4BB02283F845
:101A0C0018234FF080721A604FF4E130FFF7AAFFF1
:101A1C00064A00231380064A1380064A138008B036
:101A2C0010BD00BF0040014000E100E09C0B002015
:101A3C009E0B002098090020FFF7B8BF38B5194C51
:101A4C00194B2546902245F8043B0021284604F00A
:101A5C008DFE284615492C230322FEF7EDFC144A73
:101A6C0012490123C4E90D2302252C23032204F17E
:101A7C003C006586FEF7E0FC00230E49E36604F1AA
:101A8C007A0084F870306367A4F87830A4F86A5050
:101A9C0004F083FE7F2384F88F30032384F8903086
:101AAC0038BD00BF54010020060004004474000837
:101ABC000500FFFF6169000810B5124C124904F1D2
:101ACC00160004F06AFE114A4FF480710123C4E938
:101ADC000A1240F201116377A4F846100023A164A6
:101AEC0040F20321C4E91312A377E38484F8303065
:101AFC00C4F83A30C4F83E30C4F8423084F854305C
:101B0C0010BD00BFEC00002032690008030001008A
:101B1C0010B59A4C04F11600FEF7ACFB637F022B58
:101B2C0084BF02236377964B617F1A880A41D207E0
:101B3C005CBF02226277A27F022A84BF0222A277B4
:101B4C00A17F5A880A41D0075CBF0222A27794F881
:101B5C004A20022A84BF022284F84A2094F84B209F
:101B6C00022A84BF002284F84B2094F84B105A8E22
:101B7C000A41D1075CBF012284F84B2094F84C2019
:101B8C00032A84BF002284F84C2094F84C109A8EBF
:101B9C000A4112F0010208BF84F84C2094F84E2040
:101BAC00012A84BF002284F84E2094F84E10DA8E5D
:101BBC000A4112F0010208BF84F84E2094F84F201D
:101BCC00022A84BF002284F84F2094F84F101A8FF9
:101BDC000A4112F0010208BF84F84F2094F84D20FE
:101BEC00022A84BF002284F84D2094F85020052A44
:101BFC0084BF032284F8502094F85120012A84BF1A
:101C0C00002284F8512094F85220042A84BF002228
:101C1C0084F8522094F85320022A84BF002284F8BE
:101C2C00532094F853105A8F0A4112F0010208BF46
:101C3C0084F8532094F854205249022A84BF00227D
:101C4C0084F85420E26C22F47F0222F47F428A4210
:101C5C0004BF002284F84C2094F82620022A84BF6A
:101C6C00022284F8262094F82720022A84BF00221E
:101C7C0084F8272094F82710B3F86A200A41D20779
:101C8C005CBF012284F8272094F82820022A84BF04
:101C9C00002284F8282094F82920022A84BF0022EC
:101CAC0084F8292094F82910B3F86C200A4112F01A
:101CBC00010208BF84F8292094F82A20082A84BF3E
:101CCC00002284F82A2094F82B20B3F86E30042AD2
:101CDC0084BF002284F82B2094F82F20012A84BF83
:101CEC00002284F82F2094F82F20134113F00103C5
:101CFC0008BF84F82F30244A0023194612F9010B2F
:101D0C0010F1780F02DA02F8011C01E07828FADCF5
:101D1C000133DBB20C2BF1D11C4A0023012112F848
:101D2C00010B01330228DBB288BF02F8011C042B23
:101D3C00F5D1124B93F82C20052A84BF032283F88B
:101D4C002C2093F82D20012A84BF002283F82D200B
:101D5C0093F82E20042A84BF002283F82E2093F8B7
:101D6C003120022A84BF012283F8312093F83020DD
:101D7C00022A84BF002283F8302010BDEC00002022
:101D8C005401002003000001260100203201002034
:101D9C000C4B0128187008D002280CD088B90A4ABC
:101DAC005A6158700A229A707047084A5A61002288
:101DBC005A700F22F7E7064A5A6100225A7019220C
:101DCC00F1E7FEE7CC0000201400320020001F00D9
:101DDC00350013001FB5334C04F11600FEF768FAFA
:101DEC000421039003A8FEF7CEFD94F84A202E4B55
:101DFC002E4913F822308B73012388808B83A07FAC
:101E0C00FFF7C6FF8B888B60637F012B2ED0022BD4
:101E1C002FD083BB0B78012B26D0022B26D03BBBBB
:101E2C001823CB8040F2EE230B83CB888A8A07EEF3
:101E3C00903AF8EEE77AB7EE087A67EE877AFCEE1E
:101E4C00E77ACDED017A9DF804304B834FF47A7329
:101E5C00B3FBF2F38B8194F85030052B19D8DFE8E3
:101E6C0003F00B1215181B1E1223DAE70C23D8E70C
:101E7C00FEE70623D5E7FEE74FF416530B6100236C
:101E8C00CB8304B010BD4FF49643F7E74FF41643E1
:101E9C00F4E74FF46143F1E74FF4E133EEE74FF42D
:101EAC006133EBE7EC00002044740008CC00002008
:101EBC0002486822FF2104F059BC00BFEC0000204E
:101ECC0001486821FFF776B9EC0000200148682131
:101EDC00FFF75AB9EC00002008B5FFF7F7FFBDE893
:101EEC000840FFF715BE000038B5FFF7E1FFFFF71C
:101EFC0077F904280CD0FFF7DBFFFFF771F9042802
:101F0C0003D1FFF7E3FF042806D0FFF7D1FF03E06E
:101F1C00FFF7DCFF0428EED1184CA38A022B21D04A
:101F2C00FFF7CAFD0223A382012523691449134834
:101F3C00B3F5987F18BF4FF498734FF010021CBF85
:101F4C002361012504F031FC70B10D490B481022BE
:101F5C00FEF793FA0B490C480822FEF78EFAFFF7AE
:101F6C00AFFF03E00025E0E7002DF8D1FFF766FD99
:101F7C00FFF7CEFDBDE83840FFF72CBFEC0000208A
:101F8C00396900084A6900084A010020023080F3D0
:101F9C000400C0B2087002381070704737B50C4698
:101FAC008B784A780978054604F0AAFAE37901930C
:101FBC00A3792279E17800932846637904F0D0FA6A
:101FCC0061782078FEF75AFDE86003B030BD13B598
:101FDC00044604F10902084604F10801FFF7D6FF94
:101FEC00322320463F220B2104F0E2F9092300930F
:101FFC007022237A8021204604F010FB02B010BD21
:10200C007FB5044604F007FA80238DF80F300123C6
:10201C000DF10F0219461F4D1F4E204604F075F9A5
:10202C00204604F0FEF96B7806EB03132046597832
:10203C00019104F013FA0199204604F020FA0322CE
:10204C002021204604F004FA04230C2226212046E9
:10205C0004F0AEF995F90E102046FFF7B8FF6D7835
:10206C0005B1FEE7314620466660FFF797FF2A462A
:10207C002946204604F037FA20462B46C022C821B8
:10208C0004F09AFAFF21204604B0BDE8704004F039
:10209C00B0BA00BFCC000020088C000810B50A4B69
:1020AC0000F1090200F10801044693F90E00FFF754
:1020BC006DFF5B7803B1FEE7044B636090216020F9
:1020CC00FEF7DCFCE06010BDCC000020088C0008A2
:1020DC0010B5054C636813B92046FFF7DFFF636842
:1020EC009868A0F57A7010BDA00B002030B50122C5
:1020FC00A1F12103C1F1210422FA04F44D1E02FACC
:10210C0003F32343AA404FF0FF344FF0FF35C0E9EF
:10211C000223C0E90445C0E90623017080F82010B1
:10212C0030BDF0B5D0E90276D0E904540022012389
:10213C0011469F4276EB020C0BD303EA050C02EA24
:10214C00040E5CEA0E0C1CBF013189B2DB18524143
:10215C00EFE7D0E90632DB1852419F4280F820109D
:10216C0076EB02013BBF01220023C0E90632C0E935
:10217C000623D0E9062325EA020524EA0304C0E974
:10218C000454F0BD90F8D8305BB190F8D930074AC0
:10219C00180102EB03139B681978135853F82100AC
:1021AC007047037D0E3350F8230070470474000809
:1021BC002DE9F3419DF824701646402F88464FF0C8
:1021CC005B024FF0000104461D4628BF402704F077
:1021DC00CDFA8E4B9B8823803278A37862F302036E
:1021EC00A3707378DB0003F0080343EA0811A378AB
:1021FC0003F007031943A1707279E37862F30003CB
:10220C00E370B279637962F38613637196F9020015
:10221C00FDF7E8FFE37860F34703E370F278237986
:10222C0062F306032371337903F00102237903F07F
:10223C007F0343EAC21323713379C3F345026379F5
:10224C0023F03F0313436371A37967F34703A3712F
:10225C002B78AA78E3716B7802F01F0203F0070366
:10226C0043EAC20323726B88C3F34512637A23F0EB
:10227C003F03134363722B7903F00302637A03F079
:10228C003F0343EA82136372AB88C3F38703A372E1
:10229C006B79C3F38002E37A23F001031343E372F7
:1022AC00AB7903F07F02E37A03F0010343EA4203C4
:1022BC00E372EB88C3F3C312237B23F00F031343A6
:1022CC0023732B7AAA7AE3736B7A02F01F0203F062
:1022DC00070343EAC20323746B89C3F34512637C7F
:1022EC0023F03F03134363742B7B03F00302637CE3
:1022FC0003F03F0343EA82136374AB89C3F3870390
:10230C00A3746B7BC3F38002E37C23F001031343C0
:10231C00E374AB7B03F07F02E37C03F0010343EA3D
:10232C004203E374EB89C3F3C312237D23F00F0341
:10233C00134323752B8ADB0863756B8ADB08A37543
:10234C00AB8ADB08E375EB8ADB0823762B8BB3F5C2
:10235C00C06F3AD2B3F5007F94BF00230123227BD8
:10236C0063F3051222736B8BB3F5C06F2FD2B3F5E9
:10237C00007F94BF00230123227B63F38712227317
:10238C00AB8BB3F5C06F24D2B3F5007F94BF0023A1
:10239C000123227D63F305122275EB8BB3F5C06F1D
:1023AC0019D2B3F5007F94BF00230123227D63F380
:1023BC008712089B22751F4404F11902BB420CD0F2
:1023CC0013F8011B02F8011BF8E70223C7E70223ED
:1023DC00D2E70223DDE70223E8E74FF6FF7321463D
:1023EC000DF106000D22ADF80630FEF7C1FA2146BC
:1023FC00BDF8063021F80D3F4C22FEF7B9FABDF8B6
:10240C000630A4F8593002B0BDE8F081CC000020B1
:10241C0013B59DF81040CDE9003413460A4600214F
:10242C00FFF7C6FE02B010BD13B5144B02889B8893
:10243C009A4204461DD1837803F0F003102B01D08F
:10244C00202B18D1A379A52B15D84FF6FF730DF1BE
:10245C00060059222146ADF80630FEF789FAB4F889
:10246C005900BDF80630984214BF0420002002B079
:10247C0010BD0120FBE70220F9E700BFCC000020D3
:10248C0030B5324B027893F8261061F303020270D8
:10249C0093F8271061F30712027093F82810427812
:1024AC0061F30302427093F8291061F30712427032
:1024BC0093F82A10827861F30302827093F82B1040
:1024CC0061F30712827093F82C10C27861F3030247
:1024DC00C27093F82D1061F30712C27093F82E108E
:1024EC00027961F30302027193F82F1061F3071262
:1024FC00027193F83010427961F30302427193F840
:10250C00311061F30712427103F13A0100F10B0231
:10251C0000F1170411F9015B02F8015BA242F9D139
:10252C0093F84610C27D61F30102C27593F847100F
:10253C0061F38302C27593F8481061F30512C275FA
:10254C0093F8493063F38712C27530BDEC0000205C
:10255C0002782F4BC2F3030230B583F826200278A1
:10256C00C2F3031283F827204278C2F3030283F8E4
:10257C0028204278C2F3031283F829208278C2F310
:10258C00030283F82A208278C2F3031283F82B20EB
:10259C00C278C2F3030283F82C20C278C2F3031270
:1025AC0083F82D200279C2F3030283F82E200279DE
:1025BC00C2F3031283F82F204279C2F3030283F88B
:1025CC0030204279C2F3031283F8312003F13A012F
:1025DC0000F10B0200F1170412F9015B01F8015B29
:1025EC00A242F9D1C27DC2F3010283F84620C27D1A
:1025FC00C2F3810283F84720C27DC2F3011283F833
:10260C004820C27DC2F3811283F8492030BD00BF3F
:10261C00EC0000201FB58DF80C300123019303ABA7
:10262C00009313460A460221FFF7C2FD05B05DF880
:10263C0004FB0000F0B5214D012385F870300446F1
:10264C0085B0B0F80900FDF70BFF6867B4F80B30E4
:10265C00A5F87830142204F10D0105F17A00FDF78C
:10266C001DFF94F9213085F88F3094F8223085F8CD
:10267C00903004F12300FFF76BFF6E4604F13E032C
:10268C0004F14E0718685968324603C20833BB423E
:10269C001646F7D10A482C2308226946FDF74EFE50
:1026AC0094F84E30A5F86A3094F84F30A5F86C3099
:1026BC0094F85030A5F86E3005B0F0BD54010020F0
:1026CC00900100202DE9F04395B00DF110084FF06A
:1026DC004009154F039205460E464A4600214046D6
:1026EC0004F044F8222207F116018DF810200DF1A8
:1026FC0012000622FDF7C1FE7C7FBA7F04F00F04A6
:10270C0044EA02140DF119008DF81840FFF7B8FED9
:10271C00CDE90089039B324602212846FFF748FD8C
:10272C0015B0BDE8F08300BFEC00002010B50446E6
:10273C00FEF75EF904F11400FEF75AF904F12800D3
:10274C00FEF756F904F13C00FEF752F904F1500083
:10275C00FEF75EF904F16400FEF75AF910BD0000B3
:10276C000A4A126882600A4A00238380837183813B
:10277C000384136803615368064A436113688361D9
:10278C005368C3614EF6602303607047E01A002063
:10279C00506900085969000808B50220FFF7F8FADB
:1027AC000C4803F03EFE0B480021FFF710FC0A4BCF
:1027BC0008485B7803B1FEE708494160FFF7EEFB80
:1027CC000448FF2103F015FFBDE80840014803F061
:1027DC0028BE00BFA00B0020CC000020088C0008F5
:1027EC0008B5274B196890F82030024673BBFEF7EA
:1027FC00A1FB30B982F8210092F82030002B36D0A2
:10280C000AE092F8213001335BB2032B82F82130BD
:10281C00F2DD012382F820309368CB1AB3F57A6F7E
:10282C0001D90123537113791BB3164B517B1B78C0
:10283C0019B1022B1CBF03211173991E4B424B4142
:10284C00537393790BB10323137308BDFEF772FB1B
:10285C0018B1042382F82130CEE792F82130013BE5
:10286C005BB2002B82F82130C6DC82F8200091602C
:10287C00D9E75379002BE8D001231371E4E700BFAB
:10288C00E01A0020AD020020037B9A1E012A4FF0B3
:10289C00000202D890F8201011B902731846704744
:1028AC001346FBE70A4A38B5138801339BB2502B09
:1028BC0004460D4601D8138038BD0023054913800A
:1028CC00FEF768F929462046FEF764F9F4E700BFE5
:1028DC00B802002065690008164680B505460F460B
:1028EC004B494C4CFEF756F931462846FEF752F947
:1028FC00494B0022012F1A8011D10823A36204270F
:10290C00A76146F2A810FEF78BFBA76246F2A8104F
:10291C00FEF786FB31462846FFF7C4FFF0E7022F8F
:10292C0011D10423A3620827A76146F2A810FEF771
:10293C0077FBA76246F2A810FEF772FB31462846D9
:10294C00FFF7B0FFF0E7032F11D10823A361042791
:10295C00A76146F2A810FEF763FBA76246F2A81027
:10296C00FEF75EFB31462846FFF79CFFF0E7042F8D
:10297C0010D1A7610827A76146F2A810FEF750FBFB
:10298C00A76246F2A810FEF74BFB31462846FFF72C
:10299C0089FFF0E7052F15D14FF004080827C4F87C
:1029AC00188046F2A810A761FEF73AFBC4F82880FD
:1029BC0046F2A810A762FEF733FB31462846FFF714
:1029CC0071FFEBE7062F15D14FF004080827C4F868
:1029DC00188046F2A810A762FEF722FBC4F82880E4
:1029EC0046F2A810A761FEF71BFB31462846FFF7FD
:1029FC0059FFEBE70423A3610823A3614CF2503089
:102A0C00FEF70EFB31462846FFF74CFFF6E700BFFA
:102A1C006569000800040048B8020020054A064B0E
:102A2C0011681B780B441360044A1368013313605C
:102A3C00704700BFE01A002020000020B4020020E4
:102A4C001FB50C4670B9084801930DF10E020DF13B
:102A5C000F0103F019FE019B9DF80E10024822464F
:102A6C0003F0C8FC04B010BDA00B002008B5134641
:102A7C0080B90A460146084803F0ABFC0648FF2122
:102A8C0003F0B7FD044803F0DFFDBDE808407D20EE
:102A9C00FEF7C6BA08BD00BFA00B00202DE9F0411F
:102AAC00184C05465B270E463A460021204603F09B
:102ABC005DFE2B6923606B696360134B134D1B78B0
:102ACC009A1E53425341627A63F30002627205F11B
:102ADC00160104F10A000622FDF7CFFC237CAA7F25
:102AEC00592162F3071320462374FDF74CFF084B62
:102AFC00A4F859003A46214630469B78BDE8F0418F
:102B0C00FFF7B4BFB50B0020AD020020EC00002095
:102B1C00CC00002013B50C4690B901F17A020C4898
:102B2C000DF1060103F09CFDBDF90630002B09DB0D
:102B3C004FF6FF73ADF80630BDF8063084F87830E8
:102B4C0002B010BD7F33F7DA4FF68173F2E700BFA6
:102B5C00A00B002070B5124C0D4606465B23224696
:102B6C0021462846FFF76CFFD6E9061320686268F9
:102B7C009A4208BF884211D120465921FDF703FF24
:102B8C00B4F859301B1A5C425C4128460549FFF7E2
:102B9C00C1FF002C0CBF0120022070BD0024F4E703
:102BAC00F60700200C0900200A4608B5014601482A
:102BBC00FFF792FE040000200148FEF746B900BF63
:102BCC0000400140F8B51D4A1D4B05464FF07F30C3
:102BDC000024C3E91E02FF264FF47F42C3E90244DE
:102BEC00C3E90744C3E90C44C3E91144C3E91644DF
:102BFC00C3E91B440F465C601C749C6183F8244041
:102C0C00DC6283F838401C6483F84C405C6583F8C4
:102C1C0060409C6683F87440A3F88260C3F88420FB
:102C2C0005F1080083F88160FFF760FA394605F179
:102C3C003000FFF75BFA2C80AE70F8BDFFFF7F0011
:102C4C000C09002010B504463030FFF76AFA04F185
:102C5C000800FFF766FA0E4B1B78022B16D04FF0CC
:102C6C00FF324FF0FF33D4E90E01C4E91023C4E95D
:102C7C000623D4E90423C4E91201C4E9082394F817
:102C8C003010237A84F8501084F8283010BD00BF1F
:102C9C00AD020020D0E9062310B5D0E9084122434B
:102CAC000B43C0E90623024A53680133536010BD3D
:102CBC000C090020D0E9102310B5D0E912412243B1
:102CCC000B43C0E91023024A93690133936110BD91
:102CDC000C090020064B1B78022B06D1054B93F8F0
:102CEC004C00012838BF012070470020704700BFFE
:102CFC00AD0200200C090020074B282202FB0030FB
:102D0C0083681A78542A05D15878A0F17803584270
:102D1C00584170470020704750740008074B282218
:102D2C0002FB003083681A78522A05D15878A0F13A
:102D3C00780358425841704700207047507400087F
:102D4C000378522B05D14078A0F1780358425841B2
:102D5C00704700207047022801D9FFF7DFBF012020
:102D6C0070470000292810B430D81A4C282303FBD4
:102D7C0000421279042A07D842B3023A022A05D833
:102D8C00DFE802F010161E00FE2A1FD12823434351
:102D9C00C9B2E3581A788A4218D019705DF8044BFE
:102DAC00FFF7D9BF434349B2E35893F90020F2E748
:102DBC004343E25814888BB29C4207D01180EDE754
:102DCC004343E2580BB2B2F90040F5E700205DF83E
:102DDC00044B704750740008292870B504460D4602
:102DEC0016D80C4A28234343D0180079FF280FD15A
:102DFC00D65806223046FDF763FB48B930462946C3
:102E0C000622FDF74BFB2046BDE87040FFF7A3BF41
:102E1C00002070BD5074000838B50546044655F8BE
:102E2C00050BFDF7B7FE20682946FDF7B3FE38BD4C
:102E3C0038B504460025016005710649053003F0DC
:102E4C00ACFC84F889506572C4F88C50A4F890508E
:102E5C0038BD00BF6269000803798B420DD001298F
:102E6C00017106D0022906D039B90449053003F0A6
:102E7C0094BC0349FAE70349F8E770476269000814
:102E8C00656900086469000890F88930642B08D8DB
:102E9C00C2180133DBB2517280F889301844002318
:102EAC00437270472DE9F047437A702B90B08046FF
:102EBC000F46164676D1837A202B73D1C07A03F055
:102ECC0025FC002842D000254FF002092C4608F1C1
:102EDC00090A5046FDF77EF9814515D208EB090326
:102EEC005B7A3D2B0ED0202B07D005F140016A1CDC
:102EFC000DEB010505F8403CD5B209F101035FFA71
:102F0C0083F9E6E72C46F0E705F140030DEB0305EA
:102F1C00002305F8403CE4B96846FDF75BF9E5B2DF
:102F2C00A84207EB050304F1010408D905F140039D
:102F3C006B4413F8400C03F0D9FC7855ECE70022F5
:102F4C0019491A70304603F028FC012010B0BDE876
:102F5C00F087E8461D4618F8010B03F0C7FC7855BE
:102F6C000135EBB2A342F6D300253D550134E4B252
:102F7C006846FDF72FF96719FFB2874206EB050883
:102F8C000CD207F140030DEB0307013517F8400C89
:102F9C0003F0ACFCEDB288F80000E9E7002388F8F8
:102FAC000030D2E70020D1E7676900082DE9F04333
:102FBC001446274A0646282000FB0122012B176ADB
:102FCC0087B003D1234B022908BF1F46FF238DF87E
:102FDC0000304FF0000801253846FDF7FBF85FFA8A
:102FEC0088F948450DD917F809302C2B06D105F175
:102FFC0018036B44013503F8188CEDB208F1010885
:10300C00EAE705F118036B44A54203F8188C05D8C0
:10301C0000233370184607B0BDE8F08304F11803A1
:10302C000DEB0304002314F8181C14F9174C013190
:10303C00C9B25A18D2B2A24206EB030004DABA5C47
:10304C0002700133DBB2F4E7002303700120E2E7E6
:10305C0050740008696900082DE9F041174E2825C5
:10306C004D43771913463A79FE2A044616D0FF2AA7
:10307C001AD0022A1DD17359014693F9000003F0AE
:10308C0009F93D692B783BB10D49204603F076FBDD
:10309C002946204603F072FB01200CE07259BDE872
:1030AC00F0411278FFF782BF71590622FDF7F6F94D
:1030BC00F2E700202070BDE8F08100BF50740008DA
:1030CC00966900080B4B282202FB003070B5066A8B
:1030DC003046FDF77FF8002204461146D5B24B1C52
:1030EC00AC42D8B205D9735D01322C2B08BF014616
:1030FC00F4E770BD50740008054B282202FB003029
:10310C00436A0BB1188870474FF6FF70704700BFC9
:10311C005074000810B50146FFF7EEFF0446084650
:10312C00FFF7D0FF00221346D1B2884207D944FAE8
:10313C0002F1C90744BF0133DBB20132F4E7184690
:10314C0010BD00002DE9F04F00241F4E93B0054632
:10315C000F46A046D6F808905FFA84FB4FF0000AA1
:10316C005FFA8AF148460191FDF734F8019901F1B3
:10317C00480388426B4410D919F80100019303F0FD
:10318C00B5FBC0B22028019B0ABF5F2203F8400C9C
:10319C0003F8402C0AF1010AE2E703F8408C3946A7
:1031AC0002A8FDF70DF828B985F800B0012013B07E
:1031BC00BDE8F08F01342A2C06F12806CAD185F817
:1031CC0000800020F3E700BF50740008F7B52F4FC4
:1031DC00282303FB027700243B790470FE2B054661
:1031EC0016461AD0FF2B2FD0022B13D1084603F012
:1031FC005EFA97F9183083420CDC97F91C30834245
:10320C0008DB4FF0000160F307013046FFF7AAFD21
:10321C0028700124204603B0F0BD084603F047FA9D
:10322C00071EF7DB3046FFF74DFFB842F2DD3046A4
:10323C00FFF762FF40FA07F313F0010324D04FF0BD
:10324C00000167F30701E0E708460191FCF7C2FFB4
:10325C000628DFD101990E4C4A1E481D12F8013F79
:10326C00A3F16107192F09D95F2B07D0233BDBB2E0
:10327C00162B09D824FA03F3DB0705D58242EDD1CE
:10328C003046FFF7A9FDC3E70024C3E750740008DC
:10329C0001EC7F002DE9FF472C4E282303FB016630
:1032AC0004463379FE2B0D4622D0FF2B4CD0022B3B
:1032BC001BD196F9185026490068FDF777FC284673
:1032CC00694602F0E7FF69462046FFF7A5FD96F92F
:1032DC001C5020492068FDF769FC6946284602F01D
:1032EC00D9FF69462046FFF797FD04B0BDE8F0878B
:1032FC000846FFF701FFDFF86490DFF864A0804612
:10330C000026F7B201233A4629466846FFF74EFEDF
:10331C000028EAD0B3B248FA03F3DB0712D52068D1
:10332C004946FDF737FC2068036807F130019B68BC
:10333C00C9B2984720685146FDF72CFC69462046D7
:10334C00FFF76AFD0136DCE70349CCE7507400084F
:10335C00856900088D6900089C690008956900085A
:10336C00986900082DE9F047044688B008460D46D8
:10337C00DFF8B890FFF7CEFE4FF0280808FB05F8F1
:10338C0009EB080A2349074626462068FDF70EFC80
:10339C00DAF808102068FDF709FC1F4956F8050BF0
:1033AC00FDF704FC57B920681C49FDF7FFFB2068AA
:1033BC00314608B0BDE8F047FDF7F8BB01222946BD
:1033CC006846FFF749FE20686946FDF7EFFB9AF85F
:1033DC000430FE2B17D159F80830114920681D789C
:1033EC00FDF7E4FB2068036805F130019B68C9B266
:1033FC0098470C492068FDF7D9FB012F03D10A49E6
:10340C002068FDF7D3FB20683146FDF7CFFB08B0F1
:10341C00BDE8F0879569000898690008AE69000856
:10342C00B0690008AC690008B36900085074000862
:10343C000129F8B506460D4601D9032907D1194BC8
:10344C001B78022B03D018493046FFF7E5FC154FCB
:10345C000024012D08D12046FFF74EFC50B9204620
:10346C00FFF75CFCA8B105E0022D08D12046FFF760
:10347C0043FC70B90134E4B22A2CEAD1F8BD032D17
:10348C000CD12046FFF74AFC0028F3D03B78022BE6
:10349C00E5D121463046FFF765FFEBE7002DF5D06F
:1034AC00F7E700BFAD020020C269000810B518494B
:1034BC000446FFF7B1FC20461649FFF7ADFC204649
:1034CC001549FFF7A9FC20461449FFF7A5FC204637
:1034DC001349FFF7A1FC20461249FFF79DFC20463B
:1034EC001149FFF799FC20461049FFF795FC20463F
:1034FC000F49FFF791FC20460E49FFF78DFC204643
:10350C000D49FFF789FC0D492046FFF785FC10BDDE
:10351C00DF690008FF690008246A00084C6A00088B
:10352C00706A0008946A0008BD6A0008E66A000820
:10353C002A6B00084C6B00086B6B00089A6B000838
:10354C0038B5394B1A6890F89130012B044669D183
:10355C00D0F88C30D31AB3F5FA7F63D3C0F88C2033
:10356C003248334DFFF7B6FB02F0A4FE014620684B
:10357C00FDF71CFB2F492068FDF718FB95F824007C
:10358C0002F098FE01462068FDF710FB2A492068DE
:10359C00FDF70CFB95F87F0002F08CFE01462068CD
:1035AC00FDF704FB25492068FDF700FB95F9780031
:1035BC0002F08AFE01462068FDF7F8FA20492068DF
:1035CC00FDF7F4FA95F97E0002F07EFE01462068C4
:1035DC00FDF7ECFA19492068FDF7E8FA95F97A003D
:1035EC0002F072FE01462068FDF7E0FA15492068EA
:1035FC00FDF7DCFAB5F85C0002F070FE01462068BD
:10360C00FDF7D4FA0D492068FDF7D0FAB5F8700033
:10361C0002F064FE01462068FDF7C8FA0A4920460C
:10362C00FFF7FAFB38BD00BFE01A0020700C002039
:10363C000C090020C76B0008C96B0008CC6B000894
:10364C00CA6B0008CF6B0008D26B00082DE9F04361
:10365C00036893B0044643B38F4B1E6890F88930CF
:10366C0083B1D0F88C30F31AB3F5FA6F0AD98B49C1
:10367C00FFF7D2FB8A492046FFF7CEFB002384F8E4
:10368C008930637294F89130ABB120680368DB68C1
:10369C00984768B1206803681B69984700238149E3
:1036AC0084F891302046FFF7B7FB13B0BDE8F083E8
:1036BC002046FFF745FF794FDFF84882DFF8489244
:1036CC0020680368DB6898470028EED02068036800
:1036DC001B6998470A280546C4F88C600FD00D2842
:1036EC000DD02C280BD03B2809D020680368294624
:1036FC009B68984729462046FFF7C6FBE0E739460A
:10370C00204604F10905FFF787FB41462846FCF7E4
:10371C0057FD38B92046FFF7C9FE002384F88930DD
:10372C006372CDE749462846FCF74AFD0028F1D0E4
:10373C005D492846FCF744FD0028EBD05B49284640
:10374C00FCF73EFD014618B92046FFF771FEE4E791
:10375C0057492846FCF734FD08B90121F4E75549CF
:10376C002846FCF72DFD08B90221EDE75249284601
:10377C00FCF726FD08B90321E6E70AAA02A92046B0
:10378C00FFF790FB00283DD002A90DF10600FFF7D2
:10379C00D9FC20B949492046FFF73EFBBDE7484B11
:1037AC001B78022B05D002A8FFF7CAFA08B14549CD
:1037BC00F1E79DF828303F2B0AD19DF806102046E2
:1037CC00FFF7D0FD9DF806102046FFF763FDA4E738
:1037DC000BB93D49DFE79DF806200AA90DF107005A
:1037EC00FFF7F4FC08B93949D5E79DF806102046D7
:1037FC00FFF7B8FD9DF80730002B8ED0012384F81D
:10380C0090308AE732492846FCF7DAFC70B902237B
:10381C0084F890302A4B1B78022B05D0294920467E
:10382C00FFF7FAFA2B49B6E72B49B4E72B492846A0
:10383C00FCF7C6FC20B90323294984F89030AAE789
:10384C0028492846FCF7BCFC70B9042384F8903056
:10385C001B4B1B78022B05D01A492046FFF7DCFACC
:10386C00214998E7214996E721492846FCF7A8FC0D
:10387C0040B901231F4984F891302046FFF7CCFA58
:10388C001D4988E794F889101C4A1D4B00290CBF70
:10389C00114619467FE700BFE01A0020EE6B0008C6
:1038AC00F06B0008FA6B000867690008196C0008D7
:1038BC001C6C0008216C0008276C00082D6C00089B
:1038CC00AD020020C2690008496C0008616C000858
:1038DC00746C00087B6C0008926C0008A66C0008E5
:1038EC00AB6C0008C26C0008C96C0008E26C0008E4
:1038FC000B6D0008F86C0008116D0008D46B000803
:10390C00E06B00081B710008146C000808B5054B2F
:10391C00054893F85410FFF79FFABDE80840024899
:10392C00FFF794BEEC0000201802002038B572B6E8
:10393C00FDF708FBFDF7F6FAFDF756FBFFF73CF930
:10394C001548164CFDF772FE1548FCF774FEFDF792
:10395C000DFF14491448FFF76BFAFEF727F8FEF732
:10396C00C3FA124B00225A60FDF77EFC4FF48045DF
:10397C00FDF770FA0E48FDF781FAFDF751FBA562D1
:10398C0041F28830FDF74CFBA5614CF25030FDF74D
:10399C0047FB62B638BD00BF10000020000800488D
:1039AC009C0300200000002018020020A00B002027
:1039BC00E093040010B51022044600210C3002F0F4
:1039CC00D5FE0023C4E90033C4E95233A360C4F824
:1039DC00503184F88032074B1B6803F57A73C4F8B6
:1039EC0084324FF47F43A4F88832FF2384F88A3260
:1039FC0010BD00BFE01A0020034B186810B103681B
:103A0C00DB681847704700BF08090020064B93F885
:103A1C005130012B02D10548FFF7EEBF044B18685B
:103A2C000368DB68184700BFEC000020D8030020B7
:103A3C0008090020034B186810B103681B6918476C
:103A4C00704700BF08090020064B93F85130012B3A
:103A5C0002D10548FFF7EEBF044B186803681B69D9
:103A6C00184700BFEC000020D803002008090020F4
:103A7C00034B186810B103685B691847704700BFA7
:103A8C000809002010B50548FFF7F2FF044B186831
:103A9C000368BDE810405B69184700BFD8030020DD
:103AAC0008090020F8B53A4F3B680446002B61D05A
:103ABC0090F858E190F8592180F88BE280F88C222C
:103ACC00D4F8603190F85CC190F85D51BEF1FD0FF7
:103ADC0000F28B26C3F3170190F85E01DBB24AD1DA
:103AEC0094F85AE184F88DE284F8923294F85BE110
:103AFC0084F890520B12091484F88EE284F88FC269
:103B0C0084F8910284F8933284F894120A2504F50F
:103B1C00B271701902F002FE94F85931B4F86422B3
:103B2C002B449D1CF2545A1CB4F8641292B2090A2C
:103B3C00B15494F85A21D207ADB20ED504F51A72CD
:103B4C00354404F51D7452F8041B45F8041BA242BD
:103B5C00F9D112782A700F339DB23F683446002693
:103B6C003B6814F8011B9B6801363846B6B298477F
:103B7C00AE42F5D1F8BD002184F88E5284F85A116A
:103B8C0084F88DC284F88F0284F890320625BEE743
:103B9C00080900207FB5D0F8601131F07F4604464B
:103BAC0021D190F85E31012B1DD190F8595100F5BF
:103BBC00B2712A4601A802F0B1FD082D06D801AB5E
:103BCC00C5F109023146581902F0D0FD9DF80930B3
:103BDC00082B08D094F85D3184F888329DF80A30AF
:103BEC00DB0984F8893294F88832EBB1D4F860316F
:103BFC00C3F31703F52B17D194F8595104F5B2718F
:103C0C002A4601A802F08AFD012D06D801ABC5F1A8
:103C1C0002020021581902F0A9FD9DF805309A1EE8
:103C2C005342534184F88A3204B070BD2DE9F04FF1
:103C3C004388B3F58C7F85B0044600F11C050CD38A
:103C4C0000230370CB1CDBB2012B21D90023638032
:103C5C000023237305B0BDE8F08F0278022A22D02E
:103C6C000ED8002AEED05A1C4280E954037FFD2B5B
:103C7C0089B212D10A230C318380C18002230AE05D
:103C8C000E2A19D00023037043808380C380E0E7A1
:103C9C000123638021772370DAE7062308318380C0
:103CAC00C1800E23F7E75A1C4280E954CF0742BF6C
:103CBC00C3880D33C380F4E75A1C4280E95443880F
:103CCC00C288934249D30023017F438003700223AF
:103CDC000373C28190F82130407FFD29024642D106
:103CEC00237594F82230637594F8253094F8246089
:103CFC001B0403EB062394F823603344236100F187
:103D0C000C03E381A37FDE0702D500F11903E381E5
:103D1C000026D4F810C0814FE68240F25D1E4FF0B1
:103D2C000C0806EB0E0301335B0808FB03F957F88C
:103D3C000990CC4520D203F1FF3EB645F1D80C23B7
:103D4C00734307EB030AFB589C4518D19AF805906E
:103D5C00814580F08F80042312E082889A423FF6DE
:103D6C0077AF012375E7E67F267594F82060236111
:103D7C00667500F10803CAE71E46E0D9DDE70323A8
:103D8C002373023B012B3FF665AF217F677F84F8DD
:103D9C005811FD29A67FE07F94F8203094F821205B
:103DAC00D4F8601184F8597140F0A88084F85C3123
:103DBC0094F8223084F85E3194F8253084F85D2133
:103DCC0094F8242084F85A611B0403EB022394F822
:103DDC00232084F85B01134463F31701C4F86011CA
:103DEC000A263A46A91904F5B27002F097FC94F829
:103DFC001980474504F5AC7907D207F10C00A8EB04
:103E0C0007020021484402F0B1FC94F859311E44D9
:103E1C00731C9BB2EA5CAB5D03EB0223A4F8643227
:103E2C0094F85A31DB070ED5023615FA86F304F5F1
:103E3C001A7203F10C0153F8040B42F8040B8B4279
:103E4C00F9D11B781370A37D84F87932E37D84F863
:103E5C007A32237E84F87B32237B84F87C82204662
:103E6C0084F87832FFF71EFE204605B0BDE8F04F0F
:103E7C00FFF790BEFD290CBF4FF00A084FF0060863
:103E8C004244511E89B204F11D000192FCF77BFDE6
:103E9C009AF804B0ADF80E0059460DF10E00FCF77F
:103EAC0059FD019A531CE95CAB5CBDF80E2003EB89
:103EBC0001239BB29A4201D0052361E79AF80630A0
:103ECC00D90708D59AF80720617F914282BF05EB8C
:103EDC0008018A5CA2759A070AD50C2303FB0676A7
:103EEC00627F337A9A4282BFA84418F80330E37594
:103EFC0084F818B084F81990022341E74FF0000CB5
:103F0C0062F3170184F85C61A4F85AC184F85D016E
:103F1C0084F85E31C4F86011062662E7E07A000886
:103F2C00064B93F85130012B02D10548FFF77EBEAA
:103F3C00044B186803689B68184700BFEC0000200E
:103F4C00D8030020080900207FB5524D044695F98E
:103F5C00782095F9793095F87C0000280CBF104634
:103F6C001846FCF755F9064695F97E00FCF750F912
:103F7C0095F97B2095F87C1095F97A3084F8686176
:103F8C00002918BF1346C3F10A0383F3070384F80F
:103F9C006B31FF2384F86C31332384F85D31442377
:103FAC00642184F85E31D4F8603184F86A116D2193
:103FBC0061F317030022C4F860314FF4394384F8DD
:103FCC00642184F8652184F8662184F8672184F8DB
:103FDC007922A4F87A32FD22092384F858218DF82D
:103FEC00042084F8690184F87C3204F5B27604F27A
:103FFC006D1212F8011D19B9013BDBB2012BF8D17E
:10400C0084F859318DF8053094F8523184F85C31CC
:10401C008DF80830013384F85231332300258DF8A4
:10402C00093044238DF80A3009216D23A4F85A5124
:10403C000DF105008DF80B308DF806508DF80750FA
:10404C008DF80C508DF80D50FCF79DFC94F859210F
:10405C00ADF8020031460DF10200FCF789FC94F832
:10406C007B12FCF777FCBDF8023094F87C22A4F8A4
:10407C00643294F85931934209D2E018D21A294685
:10408C0000F5B27004B0BDE8704002F06FBB04B034
:10409C0070BD00BF0C09002038B51A4A1A4B0446F3
:1040AC0010781B6802281FBF002284F8802203F5B9
:1040BC007A72C4F88422154A92F85110012920D141
:1040CC0092F85250BDB1D4F88412591A4FF47A7246
:1040DC00B2FBF5F2914210D30228C4F884320CD111
:1040EC000023204684F88032FFF72EFF2046BDE8DF
:1040FC003840FFF7D7BCC4F8843294F88032002BD8
:10410C00EED138BDAD020020E01A0020EC000020FA
:10411C00184B4FF4004273B55A611748174CFF21E6
:10412C0002F06DFA208023885B0612D5144E357987
:10413C008DB1114808236A46002102F05BF9D6E9DB
:10414C000602DDE900139A4208BF884201D0002321
:10415C00238002B070BD02236A460748294602F04C
:10416C0049F9084B9A88BDF800309A4218BF25804F
:10417C00EFE700BF00040140A00B0020CA030020A1
:10418C00E8010020CC000020044A00231370044AEC
:10419C001380044A1370044A13707047D203002032
:1041AC00D4030020B40B0020B20200200F4A117877
:1041BC000346C1B910700E4A012010700D4A032B32
:1041CC00118009D0042B01D083420DD10A4B00225F
:1041DC0083F8702001207047084B9B8A03EB430344
:1041EC005B00138070470020704700BFD203002093
:1041FC00B40B0020D403002054010020CC0000207C
:10420C00034A00231370034A1380034A1370704748
:10421C00D2030020D4030020B40B0020084A1388DA
:10422C0063B1013B9BB2138043B9064B1B78032B44
:10423C0002BF054B01221A70FFF7E2BF704700BFA7
:10424C00D4030020D2030020B202002008B5C379A9
:10425C00212B05D1FEF7EEF9BDE80840FFF7D0BFE2
:10426C0008BD000010B50D4B1B78013B032B14D877
:10427C00DFE803F002090D072023BDE81040FEF72C
:10428C00C9B92423F9E7BDE81040FEF71BBA232374
:10429C00FEF7C0F9024B00221A7010BDD2030020A9
:1042AC00B40B00202DE9F04F344F3D7885B0064615
:1042BC0088464DBB3248334C4022294602F056FA10
:1042CC00314B25701B78022B4ED1DFF8D0A0DFF8D4
:1042DC00B09040255046FFF799FB68B1504694F8D2
:1042EC0000B0FFF7B1FB237809F80B00013D013357
:1042FC0015F0FF052370EDD1244B21785A6D0A443B
:10430C005A65DA6A0132DA62204B214893F883202D
:10431C0093F87C1083F87D608DF8082093F9782051
:10432C0093F979308DF80980002918BF1A468DF859
:10433C000D108DF80E608DF80A20FEF7CBFC8DF871
:10434C000B001348FEF7C6FC3B788DF80C007BB9CC
:10435C000C4B104A1B7800930F48094B02A9FEF72F
:10436C0057F805B0BDE8F08F0C48FFF78BFBCBE797
:10437C00084A094802A9FFF775FFF2E7B40B0020C1
:10438C0090070020D0070020AD0200200C0900206F
:10439C00700C0020D2070020100C00201800002008
:1043AC002DE9F041CB78224DC3F3000385F8813021
:1043BC004B79C3F3801385F882300646C8784008E1
:1043CC000C46FBF71FFF85F87E002379C3F3060329
:1043DC0085F87F306379227903F03F035B0043EA71
:1043EC00D21385F880300EB3A37803F0F003202BA2
:1043FC0011D0DFF84080E71D0026A279F3B2B3EBB1
:10440C00520F4FEA52010BD217F8011B4046FFF72F
:10441C0087FD0136F1E72046BDE8F041FFF716BFF6
:10442C00AB6E0B44AB662B6C01332B64BDE8F08197
:10443C000C09002018000020164B1B7970B505469E
:10444C0033BBE0B9144B154E1B78154C012B1AD00D
:10445C0031460120FFF7A4FF1248FEF72BFCB3787E
:10446C00C3F3020284F88520C3F3C00384F88630BA
:10447C0084F87C500B48BDE87040FEF70BBC0A4B2F
:10448C000A4E1B78E1E7FF2384F885300023EDE723
:10449C0070BD00BFE8010020CE03002051080020B1
:1044AC000C090020700C0020CF030020AC08002069
:1044BC00034BFF2283F88520002283F88620704767
:1044CC000C0900200E4B1A7910B504462AB101468E
:1044DC00BDE810401846FEF7E1BA0A4A92F883305C
:1044EC000121013382F88330FFF7DCFE064B0749CC
:1044FC009B7820465B22BDE81040FEF7B7BA00BFA0
:10450C00E80100200C090020CC000020100C002039
:10451C0038B5114B1A79054632B1014600221846BE
:10452C00BDE83840FEF716BB0C4A0D495B23FEF77D
:10453C0087FA7DB90A48FDF777FF0128044607D0B2
:10454C0000280849284614BF01240224FEF7E2FA89
:10455C00204638BD0148EEE7E8010020AC080020F9
:10456C00510800200C0900202DE9F04FDFF8EC92E7
:10457C009C4F85B0FFF7DAF9D9F810109A48FCF780
:10458C00B1FF9A4B04229A6207244CF25030013C42
:10459C00FCF7FCFCFCF744FD14F0FF04F5D13846A5
:1045AC0002F080F8122803D091490120FEF7FCFAA2
:1045BC00384601F036FF4FF47A70FCF731FD38467F
:1045CC00FDF71EFD7D20FCF72BFD8A48FCF77EFCD9
:1045DC00FEF7C6F899F80600202800D9FEE7864BAE
:1045EC00D9F808105A7F012A0DD0022A0BD06AB9CB
:1045FC00824B1C71814C824B2279150103EB021604
:10460C005B5923B9FEE77D4B1A71F3E7FEE7B568FA
:10461C00A36025613379357B63715B1BDBB283420D
:10462C0028BF03462046002684F8D92063752573DD
:10463C00FBF76CFF204684F8D8602675FDF7A2FDC9
:10464C000146384601F0F3FE6E4BDFF814821E80F3
:10465C006D4B6E4D1E706E4BDFF808A21E706D4BCD
:10466C00A8F800601E706C4B2E701E706B4BAAF875
:10467C00006001201E70FFF787FDFFF797FD99F88A
:10468C000C106748FEF79EFA5B4B664893F84E1089
:10469C001E46FBF7D6FF6448FFF78CF996F84F30AF
:1046AC00012B38D0022B39D0002B3AD15F4B4E4A1C
:1046BC001A607B6813B93846FDF7F0FC5C485D4E18
:1046CC00FBF784FF5C4A002313805C4A13805C4A2E
:1046DC0013805C4A13605B4A1368002B50D013683C
:1046EC00013B1360BAF8003013B1013BAAF800305B
:1046FC002978514A0229138814D1B3B940F2F31323
:10470C00138013883B4A12798AB1C3B9FCF730FC89
:10471C00FCF73CFC13E0454B4B4AC9E7434B4B4A77
:10472C00C6E7FEE70BB9C723EAE7013BE8E7022936
:10473C002E484FD10BB9FCF71BFC042383623F4975
:10474C000B88002B4BD0013B9BB20B802D4B1B8855
:10475C0033B9B9F814304FF47A725343B3FBF2F314
:10476C00284A013B9BB2138013B9274A01231370CB
:10477C00FFF754FD0B881BB935493648FCF70AFA8C
:10478C00B8F80030012B6FD0032B00F08B803388EE
:10479C009BB2002B00F0B780B8F80030022B40F031
:1047AC009E803388180704D5002333800323A8F890
:1047BC00003033881A0607D5174A00231370174A9E
:1047CC003380A8F80030137033885B0640F1958075
:1047DC002149EAE608228262002BB0D198E740F228
:1047EC00E733B2E7A00B00201000002000040048C3
:1047FC002E6D0008E8010020EC000020BC02002017
:10480C00047400086C0C0020B3020020AD020020E0
:10481C00AE020020AC020020CE030020CF0300200B
:10482C00700C00209C030020D803002008090020F5
:10483C00D41A0020CA030020CC030020B00B0020A7
:10484C00B20B0020B402002008000020140000204D
:10485C00386D0008040000203A6D0008CC000020E0
:10486C00D0030020B0020020237D627DAC480133D0
:10487C00DBB29A4223759CBF00232375FDF782FCA3
:10488C000146384601F0D3FD0020FFF71BFEA54A78
:10489C00A5480223A8F80030002333801380FBF7CF
:1048AC0099FE74E7012302AA4FF0000B0D21384644
:1048BC008DF808B001F029FDFF21384601F099FE72
:1048CC00384601F0C7FE7D20FCF7AAFB0423A8F8AC
:1048DC000030944BA6F800B0A3F800B057E7042BB7
:1048EC007FF467AF338859067FF563AF00203080C3
:1048FC00FFF70EFE8D4B18705BE73388180702D557
:10490C008B49022052E68B4A1378002B00F08B80E7
:10491C00864B93F800B000201070BBF1000F1CD038
:10492C00FFF78AFD8449237D8B70804B834A1B786B
:10493C00012B94BF002301230B701378012B94BF20
:10494C0000230123BBF1010F4B7011D92B783BB124
:10495C00012B1DD002232B7006E0FFF7A9FDE1E728
:10496C000121297076490B70B9F81830AAF800307B
:10497C002B78022B1BD1734B01201870BAF8003026
:10498C0073B1BBF1010F12D86D4B002119700EE001
:10499C006B490B780133DBB2042B0B70E4D9D9E7EC
:1049AC002B70FFF703FC2B78644A022BE9D0012310
:1049BC00A8F80030002313705C49634A0B7013880D
:1049CC000BB9B9F81630013B9BB2138013B95F4891
:1049DC00FDF7ACFE2B78022B0ED05C4B5C4A4FF0F3
:1049EC007F31C3E91E12FF2283F88120A3F88220B5
:1049FC004FF47F42C3F884204F48FEF723F9554B00
:104A0C001B7813B1FDF75CFAB4E553480193FDF73D
:104A1C00E7FE5148FDF738FF0128019B834653D030
:104A2C0003283FF4A7AD4D4B93F84CB0BBF1020FEC
:104A3C0036D14B494B48FBF729FF88B3474B93F8CA
:104A4C004D20494B197891420DD0012A1A704FD044
:104A5C00022A53D0002A56D15A7001229A7083F838
:104A6C0003B003221A713E4A40481388ADF808304F
:104A7C005388ADF80A309388ADF80C30D388ADF874
:104A8C000E30042310F8011B0DF1100C0CEB41013E
:104A9C00013B31F8081C22F8021B13F0FF03F1D183
:104AAC003348FFF7F9FA2048FBF7A2FD314A92F898
:104ABC0090300021013B82F89010032B3FF60BAE97
:104ACC00DFE803F02229606423480193FDF764FEBC
:104ADC0041F28832A4F8DA20274A019B84F8D8B036
:104AEC000821A4F8DC309161042191622B709AE7C3
:104AFC005A7083F802B00022DA70B2E75A700022C2
:104B0C009A700122F8E7FEE7287802287FF4E3ADDB
:104B1C00FFF74CFBDFE52B78022B2FD10320F7E7B7
:104B2C00BC020020C8030020D41A0020CE030020B1
:104B3C004B6D0008B3020020700C0020CF03002046
:104B4C00AE020020AC020020B20B00200C090020A9
:104B5C00FFFF7F00B2020020E8010020EC000020E3
:104B6C00D20700209C03002010020020110200201C
:104B7C00D80300201802002000040048074B012233
:104B8C001A70A8E5064B01225A71A4E5FDF7A4F9A9
:104B9C002B78022B7FF49FAD0420B9E7B2020020E2
:104BAC00E80100200F4B104A1A60104B104A1A6093
:104BBC005A619A62DA630F4A1A655A660E4B0F49AC
:104BCC0000221A840E4B19600E4B1A705A70012277
:104BDC009A700222DA7003221A710B4B0B4A1A607C
:104BEC00704700BFA00B0020646D00080C0900206A
:104BFC00786D0008846D0008E8010020446E000800
:104C0C009C03002010020020D41A0020248C0008E1
:104C1C0000B597B04422002105A801F0A7FD14228D
:104C2C000021684601F0A2FD4FF4007000F0B0FACC
:104C3C0008B172B6FEE710230593602301220D9391
:104C4C000223CDE90B20CDE90F3228201192072247
:104C5C00CDE9120205A8CDE9143300F05FFB08B1D1
:104C6C0072B6FEE7CDE902000F2203230490042163
:104C7C006846CDE9002300F0F5FD08B172B6FEE7F9
:104C8C0017B05DF804FB000007B500F099F8FFF7CA
:104C9C00BFFF0C4BDA6C42F08002DA64DA6C02F083
:104CAC0080020192019ADA6C42F00102DA64DB6C48
:104CBC0003F001030093009B03B05DF804EBFFF7D6
:104CCC0053BC00BF001002400A4B1A6E42F00102A6
:104CDC001A661A6E82B002F001020092009A9A6D66
:104CEC0042F080529A659B6D03F080530193019BB7
:104CFC0002B0704700100240FEE7FEE7FEE7FEE759
:104D0C00FEE7704770477047FDF788BE034AD2F83C
:104D1C00883043F47003C2F88830704700ED00E02F
:104D2C00DFF834D0FFF7F2FF0C480D490D4A002391
:104D3C0002E0D458C4500433C4188C42F9D30A4A44
:104D4C000A4C002301E013600432A242FBD301F0B1
:104D5C00B9FCFFF799FFFEE70000012000000020DE
:104D6C00AC0000208C8D0008B0000020041B00203B
:104D7C00FEE7000038B50F4B0546187808B901203E
:104D8C0038BD0D4A4FF47A73B3FBF0F31068B0FBE7
:104D9C00F3F000F06FF804460028F0D10F2DEED898
:104DAC00024629464FF0FF3000F032F8034B204604
:104DBC001D60E5E7200000201C00002024000020DE
:104DCC0010B5032000F012F80F20FFF7D3FF0446B4
:104DDC0018B9FFF779FF204610BD0124FBE700004E
:104DEC00014B1868704700BFE01A00200749CA68D9
:104DFC0022F4E0620302120403F4E063120C134386
:104E0C0043F0BF6343F40033CB60704700ED00E028
:104E1C00164B30B5DC68C4F30224C4F10705231D1E
:104E2C00042D28BF0425062B4FF0FF338CBF033C09
:104E3C00002403FA05F521EA0501A34022EA030246
:104E4C00A140002841EA0203ACBF00F16040084ACF
:104E5C004FEA0313B8BF00F00F00DBB2AABF00F596
:104E6C006140135480F8003330BD00BF00ED00E00A
:104E7C0014ED00E00138B0F1807F0BD24FF0E0234D
:104E8C00054A5861F02182F823100020072298610E
:104E9C001A6170470120704700ED00E0094A536920
:104EAC0043F4802310B55361EFF3108272B60023E4
:104EBC00CC58C4500433B3F5807FF9D182F31088F9
:104ECC0010BD00BF00200240064B5A69002ABFBF2C
:104EDC00054A9A6002F188329A60BABF5869C00FCD
:104EEC00002070470020024023016745034A5369A4
:104EFC0043F0004353610020704700BF0020024084
:104F0C0070B50546FFF76CFF104C06462369DB03B2
:104F1C000AD420690E4A02400FD00E494B68134345
:104F2C004B600120226170BD6A1CEFD0FFF758FF67
:104F3C00801BA842EAD30320F5E7206910F001009A
:104F4C00F1D0012323611046EDE700BF00200240A1
:104F5C00FAC30200280000202DE9F843254C99469D
:104F6C002378012B06460F46904641D001234CF284
:104F7C0050302370FFF7C4FF054630BB60601E48FD
:104F8C00026812F4806217BF0368227723F48063EF
:104F9C0003601CBF02232377E6B9436943F0010386
:104FAC004361C7F80080BFF36F8F0126C7F80490E8
:104FBC004CF25030FFF7A4FF054626B10E4A536958
:104FCC0023EA0606566100F03DF8002323702846BC
:104FDC00BDE8F883731E012B01D90026E8E7414692
:104FEC003846FFF75BFF022EF7D14FF48026DFE740
:104FFC000225ECE72800002000200240064B10F0B0
:10500C00010F1EBF5A6942F004025A615A6942F4F8
:10501C0080325A61704700BF00200240084B5A6929
:10502C00C00022F47E7200F4FF60104358615A698C
:10503C0042F002025A615A6942F480325A61704756
:10504C00002002401548037FDAB203F0FD03012B68
:10505C0010D1134B196821F400711960196841F4CF
:10506C0000611960196821F400611960196841F434
:10507C0000711960931E012B0CD8094B1A6842F46D
:10508C0080521A601A6822F480521A601A6842F42C
:10509C0080621A6000230377704700BF280000204D
:1050AC00002002402DE9F047324D2B78012B0646AB
:1050BC0088465CD001274CF250302F70FFF720FF50
:1050CC00044610BB2C4B68601A6812F4007F1A68F7
:1050DC0020D0510506D51A6822F480621A60032389
:1050EC002B7700E02F773368012B1DD17068FFF709
:1050FC0085FF4CF25030FFF703FF1F4A536923F032
:10510C00040304465361FFF79DFF00232B702046D8
:10511C00BDE8F087520505D51A6822F480621A6042
:10512C000223DDE72877DEE74FF0FF33C8F80030C5
:10513C00B768DFF84490DFF844A0D6E90232134494
:10514C00BB42E0D971683846FFF768FF4CF250302B
:10515C00FFF7D6FED9F8143003EA0A03C9F8143065
:10516C0018B1C8F800700446CDE70137E5E7022412
:10517C00CDE700BF280000200020024005FCFFFF07
:10518C00024B186800F4C060704700BF007000400C
:10519C00174A1368B0F5007F03F4C0631DD1B3F553
:1051AC00007F01D100207047136823F4C06343F4DF
:1051BC00007313600F4B1B6832214B430E49B3FB3A
:1051CC00F1F301335169490500D523B953695B05E6
:1051DC00E8D503207047013BF4E7B3F5806F1FBFA0
:1051EC00136823F4C06343F480631360DAE700BFF1
:1051FC00007000401C00002040420F0037B51E4DCF
:10520C00AB6DDA00044618D5FFF7BAFFB0F5007F96
:10521C0023D1802C29D9A02C8CBF02200120174A25
:10522C00136823F0070303431360136803F00703A9
:10523C00181A18BF012003B030BDAB6D43F080537A
:10524C00AB65AB6D03F080530193019BFFF798FFA7
:10525C00AB6D23F08053AB65D8E7802C07D808D012
:10526C00A4F1700358425841D9E70020D7E7032036
:10527C00D5E70220D3E700BF001002400020024017
:10528C00224B9A68D96812F00C0205D00C2A15D161
:10529C0001F00301012918D119681D48090755BFF0
:1052AC00D3F894101968C1F30321C1F3031150F81A
:1052BC0021004AB30C2A09D000207047042A22D0BE
:1052CC00082A144818BF002070470020DA6802F042
:1052DC000302022A15D00F49032A08BF0846D968D1
:1052EC00DA68C2F306224243D868C0F34160C1F3C6
:1052FC000211013001314000B2FBF1F2B2FBF0F0CF
:10530C0070470548EBE70448704700BF00100240A7
:10531C004C8C000800127A000024F4002DE9F743AD
:10532C00054608B9012047E0944C0368A668E76875
:10533C00DB0606F00C0607F0030775D51EB10C2E24
:10534C0054D1012F52D12368980702D5AB69002B99
:10535C00E8D02368286A190756BFD4F8943023681C
:10536C001B0903F0F003984229D9FFF747FF0028E7
:10537C00D8D1236843F00803236023682A6A23F0FA
:10538C00F003134323606368EA6923F47F4343EA21
:10539C0002236360FFF774FFA368794AC3F3031316
:1053AC00D35C03F01F03D840764B1860764B18681B
:1053BC00FFF7E0FC002837D003B0BDE8F08323688A
:1053CC0043F008032360236823F0F00303432360B6
:1053DC006368EA6923F47F4343EA02236360002E87
:1053EC00D8D1FFF70BFF0028D4D09BE7AB69002B7B
:1053FC003AD0236843F001032360FFF7F1FC8046A9
:10540C0023689A0728D5236843F008032360236890
:10541C002A6A23F0F003134323606368EA6923F4D8
:10542C007F4343EA022363602B68D8072DD42B6893
:10543C0099076BD42B68180700F1A8802B685907C3
:10544C0000F1CE802B68990600F13781AB6A002BF6
:10545C0040F05D810020AFE7FFF7C2FCA0EB080035
:10546C000228CDD90320A7E7236823F0010323608A
:10547C00FFF7B6FC804623689B07D5D5FFF7B0FC39
:10548C00A0EB08000228F6D9ECE7082E03D00C2E6E
:10549C0008D1032F06D123689A03C8D56B68002B5B
:1054AC00C5D13FE76B68B3F5803F10D1236843F457
:1054BC0080332360FFF794FC804623689B03B6D4AB
:1054CC00FFF78EFCA0EB08006428F6D9CAE7B3F509
:1054DC00A02F04D1236843F480232360E6E72268DD
:1054EC0022F480322260226822F480222260002B77
:1054FC00E0D1FFF775FC80462368980397D5FFF73A
:10550C006FFCA0EB08006428F6D9ABE7042E03D09F
:10551C000C2E10D1022F0ED12368590503D5EB6840
:10552C00002B3FF4FFAE63682A6923F0F85343EA7B
:10553C00026363607EE7EB687BB1236843F480739E
:10554C002360FFF74DFC074623685A05EBD4FFF7A1
:10555C0047FCC01B0228F7D984E7236823F4807327
:10556C002360FFF73DFC074623685B057FF562AFC0
:10557C00FFF736FCC01B0228F6D973E70010024077
:10558C00348C00081C000020240000206B699BB1A7
:10559C00D4F8943043F00103C4F89430FFF720FCA6
:1055AC000746D4F894309A073FF548AFFFF718FC3C
:1055BC00C01B0228F5D955E7D4F8943023F0010329
:1055CC00C4F89430FFF70CFC0746D4F894309B07D2
:1055DC007FF534AFFFF704FCC01B0228F5D941E777
:1055EC00A36DD80029D4A36D43F08053A365A36D9C
:1055FC0003F080530193019B4FF00108964F3B68D9
:10560C00D9051DD5AB68012B2BD1D4F8903043F0C4
:10561C000103C4F89030FFF7E3FB41F288390746E9
:10562C00D4F890309B0742D5B8F1000F3FF40AAF85
:10563C00A36D23F08053A36504E74FF00008DDE76A
:10564C003B6843F480733B60FFF7CAFB81463B68C1
:10565C00DA05D7D4FFF7C4FBA0EB09000228F6D972
:10566C0000E7052B06D1D4F8903043F00403C4F8BE
:10567C009030CAE7D4F8902022F00102C4F89020B0
:10568C00D4F8902022F00402C4F89020002BC2D150
:10569C00FFF7A6FB41F288390746D4F890309807FB
:1056AC00C2D5FFF79DFBC01B4845F6D9DAE6FFF7DC
:1056BC0097FBC01B4845B3D9D4E66B6A9BB1D4F8B1
:1056CC00983043F00103C4F89830FFF789FB074684
:1056DC00D4F898309A073FF5B9AEFFF781FBC01BA1
:1056EC000228F5D9BEE6D4F8983023F00103C4F8AB
:1056FC009830FFF775FB0746D4F898309B077FF579
:10570C00A5AEFFF76DFBC01B0228F5D9AAE6022B4C
:10571C0040F08880E368EA6A03F00301914222D1E9
:10572C00296B03F070020139B2EB011F1BD1696BBD
:10573C0003F4FE42B2EB012F15D1A96B03F07842B2
:10574C00B2EBC16F0FD1EA6B520803F4C001013AFE
:10575C00B1EB425F07D12A6C520803F0C063013AE7
:10576C00B3EB426F45D00C2E3FF4DCAD23685E01E9
:10577C003FF5D8AD236823F080732360FFF730FB2F
:10578C000646236898012ED4E268344B1340EA6A2B
:10579C0013436A6B43EA0223AA6B43EAC2632A6B84
:1057AC00013A43EA0213EA6B5208013A43EA4253C4
:1057BC002A6C5208013A43EA4263E360236843F0DF
:1057CC0080732360E36843F08073E360FFF708FBAA
:1057DC000546236899013FF53DAEFFF701FB401BE1
:1057EC000228F6D93EE6FFF7FBFA801B0228C8D93F
:1057FC0038E623689A013FF52DAE236843F0807399
:10580C002360E36843F08073E360FFF7E9FA054631
:10581C0023689B013FF51EAEFFF7E2FA401B0228FE
:10582C00F6D91FE60C2E3FF47DAD236823F0807370
:10583C002360FFF7D5FA0546236813F0007304D1F3
:10584C00E168074A0A40E26004E6FFF7C9FA401B28
:10585C000228F1D906E600BF007000408C809D0143
:10586C00FCFFEEFE2DE9F0410D46044610B9012077
:10587C00BDE8F0814B4A136803F007038B422CD32D
:10588C002068860734D4C1073FD421688A0768D4BE
:10589C00444A136803F00703AB426FD811F0040FAE
:1058AC00414D77D10B0706D5AB68226923F46053C1
:1058BC0043EAC203AB60FFF7E3FCAB683B4AC3F3BC
:1058CC000313BDE8F041D35C03F01F03D840384B01
:1058DC001860384B1868FFF74DBA136823F00703AC
:1058EC000B431360136803F007038B42BFD1C7E768
:1058FC002D4AA668916801F0F0018E4281BF936831
:10590C0023F0F00333439360BDE76268264E032A0D
:10591C0033681AD113F0007FA9D0B36823F00303C6
:10592C001343B360FFF75CFA41F288380746B3685B
:10593C00626803F00C03B3EB820FA6D0FFF750FAAA
:10594C00C01B4045F3D9032092E7022A02D113F47D
:10595C00003FE1E712B913F0020FDDE713F4806F9B
:10596C00DAE7114AA668906800F0F00086423FBF63
:10597C00936823F0F0033343936089E7136823F0B3
:10598C0007032B431360136803F00703AB427FF448
:10599C006EAF83E7AB68E26823F4E0631343AB605C
:1059AC0080E700BF0020024000100240348C000849
:1059BC001C000020240000202DE9F04F02460D6849
:1059CC0095FAA5F44FF0010EB4FA84F403274FF0C6
:1059DC000F0C6FEA050835FA04F001D1BDE8F08F21
:1059EC000EFA04F32B4068D04868461E012E1ED8D0
:1059FC00966893FAA3F9B9FA89F94FEA490907FAB3
:105A0C0009F926EA090993FAA3FA8E68BAFA8AFA0E
:105A1C004FEA4A0A06FA0AF646EA090696605668FA
:105A2C0008EA0609CE686E4349EA06065660D6684F
:105A3C0093FAA3F9B9FA89F94FEA490907FA09F96E
:105A4C0026EA090993FAA3FA0E69BAFA8AFA4FEA16
:105A5C004A0A06FA0AF646EA09060228D66018D15E
:105A6C00FF2BD1F814A02AD8D2F8209093FAA3F6E1
:105A7C00B6FA86F6B6000CFA06F629EA060993FA87
:105A8C00A3F6B6FA86F6B6000AFA06F646EA090650
:105A9C001662D2F8009093FAA3F6B6FA86F6760060
:105AAC0007FA06F629EA060693FAA3F3B3FA83F388
:105ABC005B0000FA03F33343136001348BE7D2F835
:105ACC0024B04FEA132999FAA9F6B6FA86F6B6006D
