:020000040800F2
:1000000000500020C97E0008B17E0008B37E0008C1
:10001000B57E0008B77E0008B97E00080000000029
:10002000000000000000000000000000BB7E00088F
:10003000BD7E000800000000BF7E0008C17E0008F1
:10004000117F0008117F0008117F0008117F000850
:10005000117F0008117F0008117F0008117F000840
:10006000117F0008117F0008117F0008117F000830
:10007000117F0008117F0008117F0008117F000820
:10008000117F0008117F0008117F0008117F000810
:10009000117F0008117F0008117F0008117F000800
:1000A000117F0008813F0008117F0008117F0008C0
:1000B000117F0008117F0008117F0008117F0008E0
:1000C000117F0008117F0008117F0008117F0008D0
:1000D000117F00089D1B0008D91E00081D41000863
:1000E0001D700008117F0008117F0008000000004B
:1000F0000000000000000000000000000000000000
:0C01000000000000000000005FF808F1A3
:10010C0010B5054C237833B9044B13B10448AFF345
:10011C0000800123237010BD90000020000000001F
:10012C00E8AE000808B5034B1BB103490348AFF315
:10013C00008008BD0000000094000020E8AE00081C
:10014C0010F8012B11F8013B012A28BF9A42F7D075
:10015C00D01A7047034613F8012B002AFBD1181A4A
:10016C000138704780F0004002E000BF81F0004190
:10017C0042001FBF5FEA410392EA030F7FEA226C41
:10018C007FEA236C6AD04FEA1262D2EB1363C1BFD1
:10019C00D218414048404140B8BF5B42192B88BF40
:1001AC00704710F0004F40F4000020F07F4018BF63
:1001BC00404211F0004F41F4000121F07F4118BF83
:1001CC00494292EA030F3FD0A2F1010241FA03FC2B
:1001DC0010EB0C00C3F1200301FA03F100F0004313
:1001EC0002D5494260EB4000B0F5000F13D3B0F1DB
:1001FC00807F06D340084FEA310102F10102FE2A4A
:10020C0051D2B1F1004F40EBC25008BF20F00100B9
:10021C0040EA03007047490040EB0000013A28BF58
:10022C00B0F5000FEDD2B0FA80FCACF1080CB2EBDB
:10023C000C0200FA0CF0AABF00EBC2505242184359
:10024C00BCBFD0401843704792F0000F81F40001FE
:10025C0006BF80F400000132013BB5E74FEA4103D1
:10026C007FEA226C18BF7FEA236C21D092EA030F3D
:10027C0004D092F0000F08BF0846704790EA010FB7
:10028C001CBF0020704712F07F4F04D1400028BFE4
:10029C0040F00040704712F100723CBF00F50000C6
:1002AC00704700F0004343F0FE4040F400007047FC
:1002BC007FEA226216BF08467FEA236301464202A8
:1002CC0006BF5FEA412390EA010F40F480007047BB
:1002DC004FF0000304E000BF10F0004348BF404261
:1002EC005FEA000C08BF704743F0964301464FF09D
:1002FC0000001CE050EA010208BF70474FF00003F9
:10030C000AE000BF50EA010208BF704711F0004339
:10031C0002D5404261EB41015FEA010C02BF844609
:10032C000146002043F0B64308BFA3F18053A3F568
:10033C000003BCFA8CF2083AA3EBC25310DB01FAAF
:10034C0002FC634400FA02FCC2F12002BCF1004F33
:10035C0020FA02F243EB020008BF20F001007047C4
:10036C0002F1200201FA02FCC2F1200250EA4C0018
:10037C0021FA02F243EB020008BF20EADC7070475E
:10038C004FF0FF0C1CEAD0521EBF1CEAD15392EA6C
:10039C000C0F93EA0C0F6FD01A4480EA010C400248
:1003AC0018BF5FEA41211ED04FF0006343EA5010A2
:1003BC0043EA5111A0FB01310CF00040B1F5000FE4
:1003CC003EBF490041EAD3715B0040EA010062F193
:1003DC007F02FD2A1DD8B3F1004F40EBC25008BF7D
:1003EC0020F00100704790F0000F0CF0004C08BF9B
:1003FC0049024CEA502040EA51207F3AC2BFD2F168
:10040C00FF0340EAC250704740F400004FF0000375
:10041C00013A5DDC12F1190FDCBF00F000407047AF
:10042C00C2F10002410021FA02F1C2F1200200FAED
:10043C0002FC5FEA310040F1000053EA4C0308BFB4
:10044C0020EADC70704792F0000F00F0004C02BF05
:10045C00400010F4000F013AF9D040EA0C0093F080
:10046C00000F01F0004C02BF490011F4000F013BDA
:10047C00F9D041EA0C018FE70CEAD15392EA0C0F48
:10048C0018BF93EA0C0F0AD030F0004C18BF31F0B3
:10049C00004CD8D180EA010000F00040704790F089
:1004AC00000F17BF90F0004F084691F0000F91F02D
:1004BC00004F14D092EA0C0F01D142020FD193EAF3
:1004CC000C0F03D14B0218BF084608D180EA01007B
:1004DC0000F0004040F0FE4040F40000704740F057
:1004EC00FE4040F4400070474FF0FF0C1CEAD05225
:1004FC001EBF1CEAD15392EA0C0F93EA0C0F69D081
:10050C00A2EB030280EA010C49024FEA402037D0EB
:10051C004FF0805343EA111143EA10130CF00040E2
:10052C008B4238BF5B0042F17D024FF4000C8B42D2
:10053C0024BF5B1A40EA0C00B3EB510F24BFA3EBB2
:10054C00510340EA5C00B3EB910F24BFA3EB910382
:10055C0040EA9C00B3EBD10F24BFA3EBD10340EADC
:10056C00DC001B0118BF5FEA1C1CE0D1FD2A3FF622
:10057C0050AF8B4240EBC25008BF20F001007047D7
:10058C000CF0004C4CEA50207F32C2BFD2F1FF037A
:10059C0040EAC250704740F400004FF00003013AAB
:1005AC0037E792F0000F00F0004C02BF400010F44F
:1005BC00000F013AF9D040EA0C0093F0000F01F063
:1005CC00004C02BF490011F4000F013BF9D041EA85
:1005DC000C0195E70CEAD15392EA0C0F08D14202B8
:1005EC007FF47DAF93EA0C0F7FF470AF084676E78B
:1005FC0093EA0C0F04D14B023FF44CAF08466EE764
:10060C0030F0004C18BF31F0004CCAD130F0004231
:10061C007FF45CAF31F000437FF43CAF5FE700BF89
:10062C004FF0FF3C06E000BF4FF0010C02E000BFB2
:10063C004FF0010C4DF804CD4FEA40024FEA410354
:10064C007FEA226C18BF7FEA236C11D001B052EA0A
:10065C00530C18BF90EA010F58BFB2EB030088BFD0
:10066C00C81738BF6FEAE17018BF40F0010070473F
:10067C007FEA226C02D15FEA402C05D17FEA236C21
:10068C00E4D15FEA412CE1D05DF8040B704700BF68
:10069C00844608466146FFE70FB5FFF7C9FF0028FF
:1006AC0048BF10F1000F0FBD4DF808EDFFF7F4FF38
:1006BC000CBF012000205DF808FB00BF4DF808EDD1
:1006CC00FFF7EAFF34BF012000205DF808FB00BFF4
:1006DC004DF808EDFFF7E0FF94BF012000205DF816
:1006EC0008FB00BF4DF808EDFFF7D2FF94BF0120C7
:1006FC0000205DF808FB00BF4DF808EDFFF7C8FFC0
:10070C0034BF012000205DF808FB00BF4FEA400217
:10071C004FEA41037FEA226C02D15FEA402C08D1F8
:10072C007FEA236C02D15FEA412C02D14FF000002A
:10073C0070474FF0010070474FEA4002B2F1FE4F94
:10074C000FD34FF09E03B3EB12620DD94FEA002387
:10075C0043F0004310F0004F23FA02F018BF404260
:10076C0070474FF00000704712F1610F01D1420247
:10077C0005D110F0004008BF6FF0004070474FF0FB
:10078C000000704742000ED2B2F1FE4F0BD34FF077
:10079C009E03B3EB126209D44FEA002343F00043EB
:1007AC0023FA02F070474FF00000704712F1610F0E
:1007BC0001D1420202D14FF0FF3070474FF00000E0
:1007CC00704700BF7F2807D0002807DA10F1800F90
:1007DC0006D04042C0B270470020704701207047DD
:1007EC007F20704710B1404240B270477F20704765
:1007FC007F280FD010F1310F0EDA10F1780F0DDBCE
:10080C00FE23783040B2584346232330B0FBF3F03C
:10081C00C0B27047FF207047FE2070470020704721
:10082C00012805DD40F2FE73984203DC80B270476C
:10083C000120704740F2FF70704740F2AE73A0F594
:10084C007870C0EBC02090FBF3F000F58060FFF7F0
:10085C00E7BFFFF7F2BF032812DD0C2812DD0F28CB
:10086C0012DD122812DD162812DD192812DD1C28C3
:10087C0012DD1F2812DD2128CCBFFF200620704777
:10088C0000207047012070470220704708207047F5
:10089C0003207047072070470420704705207047DD
:1008AC00022806D0012806D0002814BFFF20012002
:1008BC007047132070471F207047022807D001286B
:1008CC0004D0002814BFFF20052070470320704778
:1008DC007F281ABF4042C0B20020704770B55F2419
:1008EC000C4D421E411D12F8013FA3F16106192E59
:1008FC000AD95F2B08D0233BDBB2162B03D825FA81
:10090C0003F3DB0700D414708A42ECD1002383710B
:10091C0070BD00BF01EC7F0070B5411D451E012468
:10092C000020282615F8012FA2F16103DBB2192B48
:10093C0006D9A2F13003092B0AD8A2F11603DBB2B7
:10094C00A3FB04321818A942A4FB0643EAD170BDDC
:10095C005F2A08D0232A08D02D2A08D02E2A14BFAB
:10096C0000232723ECE72423EAE72523E8E72623C3
:10097C00E6E770B50446FFF7EDFB002382B2561E86
:10098C0098B2B04204EB000103DA255C0133302D40
:10099C00F6D0121A01322046BDE870400AF0C0B9F8
:1009AC002DE9F0470C4692B0154600211A469846A0
:1009BC0007460AF0CFF900211E220AA809910AF075
:1009CC00C9F9DFF87C90DFF87CA004EB4505AC425C
:1009DC0026D047F6FF7334F9020B984220D000283A
:1009EC0012DC514601A80AF0CCF909A8FFF7B2FBBA
:1009FC00064601A8FFF7AEFB0644B045E7D301A9B4
:100A0C0009A80AF0AFF9E2E701A980B208F038FCB6
:100A1C0001A8FFF7AEFF494601A80AF0A3F9E4E7E5
:100A2C0009A8FFF797FB20B1002212AB034403F88F
:100A3C00252C384609A90AF0A4F912B0BDE8F087B4
:100A4C002DAF000828AF0008F0B589B06D46002422
:100A5C002F468E1CE1B28A4205D936F82410013497
:100A6C0025F8021BF6E73946FFF79AFF09B0F0BDEF
:100A7C0042F21073B0FBF3F2642103FB1200B0FBE3
:100A8C00F1F301FB130000EB023000EB831080B29A
:100A9C00704742F21071020B00F03F0301FB02336E
:100AAC006422C0F3851002FB0030704770B50D4610
:100ABC000021044616460AF04DF900239AB29642DC
:100ACC0004D9EA5C12B1E2540133F7E770BD70B59A
:100ADC000E4614460021013205460AF03BF900236C
:100AEC009AB2944204D9F25C12B1EA540133F7E79A
:100AFC0070BD30B50023044698B290420ED2E55C2E
:100B0C00C85C1DB9B0FA80F0400930BD0028FCD09B
:100B1C00854203F10103EFD00020F6E70120F4E752
:100B2C0002680449044B01FB023323F000430360C9
:100B3C00180C7047FD430300C39E2600F0B595B01A
:100B4C00016004465022002168460AF003F9002592
:100B5C000126627DAA4247D92046FFF7E1FF67795B
:100B6C0000217B1B90FBF3F2EC4602FB13000A46C0
:100B7C00C0B2CBB29F420AD91CF801EBBEF1000FF8
:100B8C0003D1824204D00132D2B20131F1E7002309
:100B9C0000221146277BD0B2874206D92069805C9F
:100BAC000132984208BF0121F5E70029D1D1611922
:100BBC0025B191F9152082B9012BCAD98B75A26880
:100BCC0052F8231005F10E0244F8221014AA134413
:100BDC00013503F8506CEDB2BBE7501E8342EDDBE0
:100BEC0001329342EADCB4E70023802104F1B8001F
:100BFC00237515B0BDE8F0400AF0ACB80023C0E98D
:100C0C00013370470A2310B58380036804469B6840
:100C1C0098472368E080DB6820469847A06010BDA9
:100C2C00836870B5002B04461CDD838843B1013BFF
:100C3C009BB28380B3B903681B68BDE8704018474A
:100C4C000368DB689847236805469B6820469847ED
:100C5C00E388C01A281A0028A06003DD2368204608
:100C6C005B68EAE770BD0823484010F0800F4FEA3C
:100C7C00400018BF5040013BC0B2F6D1704770B570
:100C8C000C461D468E18B44205D02A4614F8011B9A
:100C9C00FFF7E9FFF7E770BD10B50446022980EABB
:100CAC00E070A0EBE47068D15AB9002CACBF7F2384
:100CBC003F239842A8BF1846002C01DA40F04000B0
:100CCC0010BD012A1AD1632805DC4000002CF7DA8C
:100CDC0040F48070F4E740F2F54398420CDCFFF7E7
:100CEC00F7FA5749FFF74CFB08F032FDFFF74AFDC6
:100CFC00400040F00100E9E7FF20E7E7022A40F05E
:100D0C009C80632805DC8000002CD9DA40F400704C
:100D1C00D6E7B0F57A7F0CDAFFF7DAFA4849FFF735
:100D2C002FFB08F015FDFFF72DFD800040F00100B2
:100D3C00EAE742F20F7398420CD8FFF7C9FA41491F
:100D4C00FFF71EFB08F004FDFFF71CFD800040F0D0
:100D5C000200D9E73C4B98420CD8FFF7B9FA3B4953
:100D6C00FFF70EFB08F0F4FCFFF70CFD800040F0E1
:100D7C000300C9E740F2FF10C6E703295DD1012A41
:100D8C001BD1B0F57A7F05DA4000002C98DA40F4DC
:100D9C00006095E7B0F5205F0CDAFFF799FA284967
:100DAC00FFF7EEFA08F0D4FCFFF7ECFC400040F043
:100DBC000100EAE740F2FF70E7E7022A3DD1B0F507
:100DCC007A7F06DA8000002CBFF67AAF40F48050B0
:100DDC0076E742F20F7398420CDCFFF779FA184968
:100DEC00FFF7CEFA08F0B4FCFFF7CCFC800040F023
:100DFC000100E8E7164B98420CD8FFF769FA114945
:100E0C00FFF7BEFA08F0A4FCFFF7BCFC800040F032
:100E1C000200D8E7B0F57A2F0CD2FFF759FA0B493C
:100E2C00FFF7AEFA08F094FCFFF7ACFC800040F042
:100E3C000300C8E740F6FF70C5E7002040E700BF9D
:100E4C00CDCCCC3D0AD7233C17F001006F12833A6E
:100E5C009F860100FF2303710023C3800372704738
:100E6C0010B4047903468C4203D0017119B10129E5
:100E7C0001D010BC70471B6810BCDB68184770476A
:100E8C007047704700207047002070477047002063
:100E9C0070470000054B82B0DA690243DA61DB6906
:100EAC0018400190019B02B0704700BF0010024037
:100EBC00054B82B09A6902439A619B691840019074
:100ECC00019B02B0704700BF0010024000F10C0300
:100EDC0053E8003F43F0200300F10C0141E80032DD
:100EEC00002AF3D1704700F10C0353E8003F43F0A4
:100EFC00800300F10C0141E80032002AF3D1704765
:100F0C0000F10C0353E8003F23F0800300F10C01C7
:100F1C0041E80032002AF3D1704700000B4B0C4A19
:100F2C001B6830B4A2FB03239B0C00FB03F2094D9E
:100F3C0002F5FA72A5FB0232074992094C684B681C
:100F4C001B1B9342FBD330BC704700BF1C0000201E
:100F5C0083DE1B43D34D6210001000E00288514029
:100F6C0081EA0111C9B20B0983EA122343EA012376
:100F7C0083EAC1010180704738B50C468D18AC422C
:100F8C0004D014F8011BFFF7E9FFF8E738BD4FF662
:100F9C00FF7337B50446ADF806304518AC4206D0A1
:100FAC0014F8011B0DF10600FFF7D8FFF6E7BDF8AA
:100FBC00060003B030BD000008B51E20FFF7AEFFE1
:100FCC004FF48052034B28205A61BDE80840FFF7CC
:100FDC00A5BF00BF000C014008B56420FFF79EFFC1
:100FEC004FF48052024B1A61BDE80840FFF796BFE0
:100FFC00000C01406421D0E90123D31AC3604B4398
:10100C000349C98A8260B3FBF1F30374704700BFD4
:10101C00AC000020D0E90123D31AC0E902237047A9
:10102C00074B1B784BB9074B1888074B80B21B88B2
:10103C009BB2C01A18BF012070470020704700BF38
:10104C009B16002092230020902300200020704744
:10105C000020704700207047704701207047002324
:10106C00A0F86A32A0F8683270470023A0F85A3210
:10107C00A0F858327047037A3BB18389D31A9BB2DC
:10108C00B3F5FA7F84BF00230372037A8281082BA5
:10109C000FD8DFE803F0050E0E0E0E0E0F17220010
:1010AC00EE2901D0C82904D1012383720623C17310
:1010BC0003727047837A5A1C03448272D9730723D4
:1010CC004172F5E7827A531CDBB202448372D1730E
:1010DC00427A9A42EDD20823EAE7837A5A1C0344F7
:1010EC008272D973437C162B4FF001030CBF80F82E
:1010FC00103180F811310923DAE790F88F00B0FA3B
:10110C0080F0400970477047014B586A80B27047B5
:10111C0000040040B0F8622010B5B0F86640531CD3
:10112C002340B0F864409C421EBF121882F868102D
:10113C00A0F8623010BDA0F11000EBE7B0F86A32F5
:10114C00B0F86822D21A93B2120441BFB0F86C0204
:10115C0001301B189BB2181E18BF01207047A0F15C
:10116C001000EBE70346B0F86A22B0F8681291421F
:10117C001FBF811891F86E02B3F86C1201321ABFBE
:10118C000A40A3F86A2200207047A0F11000E9E79A
:10119C0038B50C464A780C31054609F0B3FD607839
:1011AC001B2807D8C0F11C0200212844BDE8384098
:1011BC0009F0D0BD38BD38B50C464A780C3105461F
:1011CC0009F0A0FD6078082807D8C0F109020021B9
:1011DC002844BDE8384009F0BDBD38BD38B50C46D3
:1011EC004A780C31054609F08DFD6078072807D840
:1011FC00C0F1080200212844BDE8384009F0AABD1E
:10120C0038BD00006FF0200301480360FFF75EBE9D
:10121C0000480040028810B58488531C2340448841
:10122C009C421EBF12189171038010BD50294FEAC9
:10123C0010122CD018D830292CD00DD810292CD025
:10124C0041F6786343F6F040202908BF034617485F
:10125C009040B0FBF3F0704741F6786347F61220EC
:10126C00402908BF0346F2E7802919D008D8602925
:10127C0018D041F678630E48702908BF0346E6E79C
:10128C0041F678630B48902908BF0346DFE74AF222
:10129C00E423DCE745F24013D9E742F6A003D6E796
:1012AC00054BD4E74FF22443D1E700BF40420F0077
:1012BC0048E8010020A1070090D003007047704758
:1012CC00064B1B7843B10023054A1380054A138053
:1012DC00054A1380054A1380704700BF9B160020F7
:1012EC009023002092230020942700209627002092
:1012FC00054B1B783BB9054A1380054A1380054AF8
:10130C001380054A138070479B1600209023002001
:10131C00922300209427002096270020064B187853
:10132C0040B1064B1888064B80B21B889BB2C01A82
:10133C0018BF0120704700BF9B160020922300208D
:10134C009023002038B504464D1E15F8011F21B11D
:10135C00236820469B689847F7E738BD08B5FFF728
:10136C00F1FF08BD0120FFF7A3BD00000D4B984213
:10137C0002D10420FFF79CBD0B4B984205D003F51E
:10138C008063984203D11020F4E70820F2E7074B62
:10139C00984201D12020EDE7054B984200D07047D0
:1013AC004020E7E700080140000C01400014014018
:1013BC00001801400B4B984203D14FF40060FFF72B
:1013CC0077BDB0F1804F04D0074B984204D1022076
:1013DC0000E00120FFF75EBD044B984201D10420D0
:1013EC00F8E77047002C0140000400400008004062
:1013FC002DE9F0410C46154686B007461022002117
:10140C0002A81E469DF8348009F0A4FC01940B2D13
:10141C0007D8DFE805F00E0E070A1414141616167A
:10142C001B1DFEE70823029303E00823029301230C
:10143C000593032E0ED8DFE806F00E1E200E0123B6
:10144C00F1E70123029304230493F2E70923EAE76B
:10145C000923F7E7FEE703230393B8F1000F02D04B
:10146C003846FFF783FF053D042D0BD8DFE805F068
:10147C0007110A0711000223EEE70123ECE7C4F37E
:10148C000F247C61384601A907F01EFC06B0BDE8AC
:10149C00F081C4F30F243C61F4E713B54FF0010C59
:1014AC000024CDE9004CFFF7A3FF02B010BD0000F3
:1014BC0070B50446164686B00D461422002101A8CC
:1014CC0009F048FC2046FFF775FF042E04D8DFE82E
:1014DC0006F02A2E04323B00FEE71C4B1C4A1B680C
:1014EC00B3FBF2F39BB20022013B204601A9ADF8FD
:1014FC000430CDE902250492059207F0F7FC23682D
:10150C0023F080032360A36823F4804323F00703B4
:10151C00A360636823F070036360A36823F0800307
:10152C00A36006B070BD094B0A4A1B68D8E7074B8D
:10153C00094A1B68D4E7054B064A1B68B3FBF2F358
:10154C0003EB83035B00CDE70123CCE71C000020F9
:10155C0080A8120140420F0000127A0010B5044618
:10156C00FFF7A6FF236843F00103236010BD0022A0
:10157C004FF0FF31FFF7F2BF10B50E4C03230622DC
:10158C000D490E48FFF789FF2046032302220C4920
:10159C00FFF783FF0323052240F608010948FFF7F4
:1015AC007CFF2046BDE810400323052244F2400195
:1015BC00FFF773BF000801404000400400100140D9
:1015CC0080008004000C01400822034B5A61402229
:1015DC00A3F580631A617047000C01404022034B55
:1015EC005A610822C3F81024704700BF000801405C
:1015FC00104A4FF47041536923F4704391FAA1F1EE
:10160C0053610D4B5A6822F400425A601A6822F456
:10161C0000421A60DA6822F40042DA609A6842F4F6
:10162C0000429A60D022054B83F828234FF4807235
:10163C005A607047000001400004014000E100E0E6
:10164C004FF40042034B5A611A6842F400421A608C
:10165C00704700BF000401400023032201490248E7
:10166C00FFF71BBF0100010400080140024B986802
:10167C00C043C0F3002070470008014010B50A4C6D
:10168C000023052220460949FFF707FF0023052206
:10169C0020460749FFF701FF4FF4805363614FF475
:1016AC000063636110BD00BF00080140100010040E
:1016BC00080008040549CB681A04DB4302F0805289
:1016CC0003F4805313430B61704700BF00080140C3
:1016DC000549CB681A04DB4302F0006203F4006393
:1016EC0013430B61704700BF000801400123032224
:1016FC0010B50F490F48FFF7D0FE102300220D4CF8
:10170C00A168013BC9045CBF0132D2B213F0FF03E4
:10171C00F6D1082A94BF00220122074905480A7015
:10172C0005220349FFF7B9FE4FF48053636110BDE6
:10173C0010001004000801409B16002037B5044629
:10174C001C2C0D4618461ADD1E23137040F634026D
:10175C0040F6E443C2EB0222B2FBF3F2C2F30B13EA
:10176C008DF80430036812015C688DF805200223A3
:10177C000C2101AAA04700232B7003B030BD192CFB
:10178C0004DD1B23137040F2C262E1E7162C04DD6A
:10179C001823137040F26E52DAE7122C04DD142376
:1017AC00137040F27442D3E70F2C04DD1123137035
:1017BC004FF47A72CCE70C2C04DD0E23137040F23C
:1017CC006B32C5E7052CCBBF0A23002313701370B3
:1017DC00CCBF4FF43472C822BAE700000C4BD3F8DC
:1017EC00FC2022F08072C3F8FC20D3F8FC2042F0DD
:1017FC008072C3F8FC20A3F55D431A6822F0010245
:10180C001A601A6842F001021A6000225A6070478E
:10181C0000ED00E0064B074A1B680749B3FBF2F3E7
:10182C00434310B54C684A68121B9A42FBD310BD57
:10183C001C00002040420F00001000E02DE9F04198
:10184C0080464CF250300D4616461C4606F034FCD1
:10185C0068BBB8F1010F06D0B8F1020F0CBF4FF006
:10186C0002084FF004080027124A136943F00103E1
:10187C0013613801C0F12002A0F1200304FA02F236
:10188C0026FA00F0104324FA03F3184380B225F82B
:10189C0017004CF2503006F00FFC18B90137FBB2B0
:1018AC004345E6D3034A136923F001031361BDE8F2
:1018BC00F08100BF002002407FB501230022CDE95A
:1018CC00040301A902A8CDE9022306F031FC00288B
:1018DC000CBF0420052007B05DF804FB0A4608B5D0
:1018EC00014600230220FFF7A9FF00280CBF0420AB
:1018FC00052008BD08B5FFF7DFFF031F584258410C
:10190C0008BD08B5FFF7EAFF031F5842584108BD50
:10191C002DE9F047254B264D01280FBF3D263C26CF
:10192C00AA461D460F4614462249234A06BF89463D
:10193C009A46914606F0A4FB31462846FFF7DAFF9B
:10194C0010B3002F08BF4FF478744FF00008033425
:10195C00A40805F11006AAEB050A1FFA88F39C42AD
:10196C0018D93FB95AF806104B1C06D108F10108DA
:10197C000436F2E757F82810F6E74E4513D23046F6
:10198C00FFF7BFFF0028F1D1002406F08BFB2046A7
:10199C00BDE8F0874FF011312846FFF7B2FF002861
:1019AC00F2D00424F1E70324EFE700BF00F00008B5
:1019BC0000F40008FFF70008FFF3000810B506F06C
:1019CC005FFB3C210748FFF795FF20B13D210648FE
:1019DC00FFF790FF20B9002406F064FB204610BDF1
:1019EC000424F9E700F0000800F40008002330B5E7
:1019FC00074A084D9CB2A14206D99C18AC4205D0AE
:101A0C009C5CC4540133F5E7042030BD0320FCE793
:101A1C0010F00008FFF3000838B504460D4672B606
:101A2C000A4601460020FFF773FF62B6042806D170
:101A3C0072B601202A462146FFF76AFF62B638BD0E
:101A4C0038B5124B1C68D3F80054B4F1113F09D1CE
:101A5C00B5F1113F17D0002201201146BDE83840E6
:101A6C00FFF756BFB5F1113F03D1002211461046C6
:101A7C00F4E7FFF7A3FF042804D12C4001340CBF7A
:101A8C000220012038BD0420FCE700BF00F0000854
:101A9C00034B18739A68D207FCD5187B704700BFAC
:101AAC000038004038B5441E8D18A94206D014F8F1
:101ABC00010FFFF7EDFF01F8010BF6E738BD084603
:101ACC0011461A46FFF7EEBF70B58EB02B4C28228C
:101ADC00002104A809F03EF9FFF744FC4FF48040C4
:101AEC00FFF7D8F92649204603230622FFF7D5FC39
:101AFC00062501264FF48053204623610A22032336
:101B0C002049CDE90056FFF773FC204603230A2237
:101B1C001D49CDE90056FFF76BFC032320461A46FE
:101B2C001A49CDE90056FFF763FC00234FF482728B
:101B3C004FF40071CDE904320822CDE90633CDE92A
:101B4C000B3308930723A4F55444CDE9091220461E
:101B5C0004A90D9307F09EF9236843F0400323601A
:101B6C00A3689B07FCD5237BADF80E30BDF80E3077
:101B7C009BB2ADF80E300EB070BD00BF000C014032
:101B8C001000100420002004800080044000400459
:101B9C00194B10B41A6890060ED5184C1848596891
:101BAC00238800880133C3F30A0380B298421FBF15
:101BBC001448C9B2C1542380110744BF0E4B5B6853
:101BCC00130613D5104B114A1988138889B29BB28E
:101BDC0099420DD013880133C3F309031380138882
:101BEC000B4A9BB2D35C044ADBB2536010BC704707
:101BFC00014810BCFFF784B9003801409223002043
:101C0C0090230020901B0020962700209427002072
:101C1C00942300200A490B4A08B50B88128801331B
:101C2C00C3F3090392B29A4207D0074AD05407482B
:101C3C000B80FFF758F9012008BD0020FCE700BF1E
:101C4C009627002094270020942300200038014080
:101C5C00034B08461B780BB9FFF7DCBF704700BF7E
:101C6C009B160020034B08461B780BB1FFF7D2BF25
:101C7C00704700BF9B160020054B064A1B88128834
:101C8C009B1A98B21B0444BF00F5006080B27047E9
:101C9C009223002090230020024B187808B1FFF704
:101CAC00EBBF70479B1600200848094A018813882F
:101CBC0089B29BB29942F9D013880133C3F30A035A
:101CCC0013801388034A9BB2D05C70479223002088
:101CDC0090230020901B0020024B187808B1FFF7CE
:101CEC00E3BF70479B160020034B1B780BB9FFF723
:101CFC00DBBF0020704700BF9B16002070B50C4660
:101D0C0088B00646154600211C2201A809F022F8CD
:101D1C0001A807F03DFA002C14BF4FF480530023A8
:101D2C00CDE902350C230494084C01960593E36825
:101D3C00204623F40053E36001A907F0D7F9E368C8
:101D4C0043F40053E36008B070BD00BF003801409D
:101D5C00044B08461B781BB100221146FFF7CEBF7F
:101D6C00704700BF9B16002010B588B01C2204469B
:101D7C00002101A808F0EEFF01A807F009FA0C23D6
:101D8C000194084C0593E368204623F40053E36068
:101D9C0001A907F0ABF9E36843F40053E36008B022
:101DAC0010BD00BF00380140F0B5082601272E4CAD
:101DBC008BB0E3682D4D23F40053E360FFF7D2FAA8
:101DCC004FF48040FFF774F82949284603230A2270
:101DDC00CDE90067FFF70CFB032328461A46CDE933
:101DEC0000672449FFF704FB1822002104A808F01F
:101DFC00B1FF4FF4964303930C2320460DEB0301E4
:101E0C00079307F073F9B0222369204623F490431B
:101E1C002361636923F02A036361174B83F825233D
:101E2C0020225A60FFF76CF86FF040032360002407
:101E3C00124B1C80124B1C806FF020030360FFF7C9
:101E4C0045F8104B1C80104B1C80036923F4904305
:101E5C000361436923F02A034361C36843F40053CD
:101E6C00C3600BB0F0BD00BF00380140000801405A
:101E7C00020002040400040400E100E094270020A6
:101E8C0096270020902300209223002008B5FFF70E
:101E9C008BFF6FF0200303480360BDE80840FFF799
:101EAC0015B800BF0038014008B5FFF7EFFFFFF78A
:101EBC001DFC054B1B782BB9BDE808404FF4E130F5
:101ECC00FFF752BF08BD00BF9B1600200D480368EA
:101EDC001B0615D50C4B0D4A1988138889B29BB279
:101EEC0099420BD013880133C3F308031380138872
:101EFC00074A9BB2D35CDBB243607047FFF700B874
:101F0C00704700BF004400409A2900209829002007
:101F1C00982700200A490B4A08B50B881288013310
:101F2C00C3F3080392B29A4207D0074AD054074829
:101F3C000B80FEF7D8FF012008BD0020FCE700BF96
:101F4C009A2900209829002098270020004400405E
:101F5C000846FFF7DFBF000010B5264C8AB0E368D7
:101F6C0040F2044123F40053E360FFF7FBF94FF414
:101F7C000030FEF78FFF082301221F48CDE9003205
:101F8C0003230A22FFF734FA1822002104A808F0D0
:101F9C00E1FE4FF4E13303930C2320460DEB0301D8
:101FAC00079307F0A3F8F0222369204623F490430B
:101FBC002361636923F02A036361104B83F82623A2
:101FCC0040225A60FEF79CFF6FF040032360002311
:101FDC000B4A13800B4A1380236923F4904323612B
:101FEC00636923F02A036361E36843F40053E360FD
:101FFC000AB010BD004400400008014000E100E0C0
:10200C00982900209A290020FFF7A6BF30B5026856
:10201C00124B85B09A421FD100240125FFF7A2F97B
:10202C0044F2400102230B220D48CDE90045FFF795
:10203C00DFF902230B2248F28001CDE90045084864
:10204C00FFF7D6F9074BDA6942F40012DA61DB6963
:10205C0003F400130393039B05B030BD0054004000
:10206C00000C0140001002400848094B4FF480421C
:10207C0003600023C0E90332064AC0E90533C0E916
:10208C000733C0E9012306F079B900BF100700201F
:10209C0000540040801A060013B50B460549024651
:1020AC000C784FF0FF3104480091610006F00EFAF5
:1020BC0002B010BD6407002010070020007910B595
:1020CC000C46194638B1044B10461C70FFF7E4FF60
:1020DC00B0FA80F0400910BD64070020044B0A22BE
:1020EC00197804484FF0FF33490006F0C7BA00BF17
:1020FC00640700201007002008B5FFF7B5FF002289
:10210C00014B1A7008BD00BF6407002010B50446CF
:10211C00FFF7F2FF0C22044B1A70FFF7DFFFB0FA47
:10212C0080F35B09237110BD6407002070B51A4C55
:10213C001A4B25461A4E45F8043B782200212846B6
:10214C0008F008FE2846202305223146FEF77CFCC9
:10215C000B220225134B3146C4E90A2304F130004B
:10216C0020230522E584FEF76FFC0F4B0F496365B6
:10217C00002304F1620084F85830E365A4F8603061
:10218C00A4F8525008F0FDFD7F2384F87730032328
:10219C0084F8783070BD00BF3401002006000400C4
:1021AC001CBA00080300FFFF0000FFFF61AF00082E
:1021BC0010B5124C124904F1160008F0E2FD4FF470
:1021CC008071104A0123C4E90A1240F201116377AD
:1021DC00A4F846100023A16440F20321A377C4E9BC
:1021EC001312E38484F83030C4F83A30C4F83E302B
:1021FC00C4F8423084F8543010BD00BFCC0000202D
:10220C0032AF00080300010010B5984C04F1160021
:10221C00FEF764FB637F022B84BF02236377944B2E
:10222C00617F1A880A41D2075CBF02226277A27FC3
:10223C00022A84BF0222A277A17F5A880A41D007C2
:10224C005CBF0222A27794F84A20042A84BF04229D
:10225C0084F84A2094F84B20022A84BF002284F888
:10226C004B2094F84B10DA8C0A41D1075CBF012249
:10227C0084F84B2094F84C20032A84BF002284F865
:10228C004C2094F84C101A8D0A4112F0010208BF30
:10229C0084F84C2094F84E20012A84BF002284F844
:1022AC004E2094F84E105A8D0A4112F0010208BFCC
:1022BC0084F84E2094F84F20022A84BF002284F820
:1022CC004F2094F84F109A8D0A4112F0010208BF6A
:1022DC0084F84F2094F84D20022A84BF002284F801
:1022EC004D2094F85020052A84BF032284F85020F6
:1022FC0094F85120012A84BF002284F8512094F8CC
:10230C005220042A84BF002284F8522094F85320CF
:10231C00022A84BF002284F8532094F85310DA8DDB
:10232C000A4112F0010208BF84F8532094F854209B
:10233C005049022A84BF002284F85420E26C22F413
:10234C007F0222F47F428A4204BF002284F84C2090
:10235C0094F82620042A84BF042284F8262094F8BA
:10236C002720022A84BF002284F8272094F8271003
:10237C00B3F852200A41D2075CBF012284F827200F
:10238C0094F82820022A84BF002284F8282094F88C
:10239C002920022A84BF002284F8292094F82910CD
:1023AC00B3F854200A4112F0010208BF84F8292026
:1023BC0094F82A20082A84BF002284F82A2094F852
:1023CC002B20B3F85630042A84BF002284F82B202B
:1023DC0094F82F20012A84BF002284F82F2094F82F
:1023EC002F20134113F0010308BF84F82F30002372
:1023FC001946214A12F9010B10F1780F02DA02F892
:10240C00011C01E07828FADC0133DBB20C2BF1D192
:10241C0000230121194A12F8010B01330228DBB207
:10242C0088BF02F8011C042BF5D1104B93F82C201B
:10243C00052A84BF032283F82C2093F82D20012A2F
:10244C0084BF002283F82D2093F82E20042A84BF09
:10245C00002283F82E20012283F8312093F83020BB
:10246C00022A84BF002283F8302010BDCC0000204B
:10247C00340100200300000106010020120100209D
:10248C000C4B0128187008D002280CD088B90A4AC5
:10249C0058705A610A229A707047084A5A61002291
:1024AC005A700F22F7E7064A5A6100225A70192215
:1024BC00F1E7FEE7AC0000201400320020001F0002
:1024CC003500130037B53D4D3D4C05F11600FEF7B8
:1024DC0023FA042101900DEB0100FEF758FD95F84D
:1024EC004A20384BA08013F82230A87FA373012315
:1024FC00A383FFF7C5FFA388A3606B7F012B29D0B3
:10250C00022B2AD05BBB2378012B21D0022B21D0AC
:10251C0013BB1823E38040F2EE23E0882383FDF7FE
:10252C00DBFE4FF07F51FDF72BFFFEF72BF94FF43D
:10253C007A73A28AC0B2B3FBF2F3A38195F8503040
:10254C006083052B2AD8DFE803F00B2326292C2FD8
:10255C001223DFE70C23DDE7FEE70623DAE7FEE7CD
:10256C004FF4165323610023E38395F84F30012B6E
:10257C001DD095F84C20012A19D095F84C30032B1E
:10258C0001D10123E377A37FABB1E37F9BB1FEE7DE
:10259C004FF49643E6E74FF41643E3E74FF46143F9
:1025AC00E0E74FF4E133DDE74FF46133DAE7012282
:1025BC009342A277E1D103B030BD00BFCC00002024
:1025CC00AC0000201CBA00086822FF21014808F06A
:1025DC00C1BB00BFCC00002068210148FFF71CBA2A
:1025EC00CC00002068210148FFF700BACC00002085
:1025FC0008B5FFF7F7FFBDE80840FFF705BE000080
:10260C0038B5FFF7E1FFFFF71BFA04280CD0FFF7F2
:10261C00DBFFFFF715FA042803D1FFF7E3FF0428CB
:10262C0006D0FFF7D1FF03E0FFF7DCFF0428EED163
:10263C00174CA38A022B1ED0FFF7BAFD02230125EB
:10264C00A38223691022D62B18BFD6231149104818
:10265C001CBF0125236108F09CFB70B110220D49B1
:10266C000B48FEF723FA08220B490C48FEF71EFA1A
:10267C00FFF7B2FF03E00025E3E7002DF8D1FFF7E9
:10268C0055FDFFF7C1FDBDE83840FFF71BBF00BF8C
:10269C00CC00002039AF00084AAF00082A01002006
:1026AC0037B50C4605468B784A78097806F044FF16
:1026BC00E37928460193A3792279E1780093637931
:1026CC0006F06AFF61782078FEF7B0FDE86003B091
:1026DC0030BD000013B504460B4B084604F109024B
:1026EC0004F10801FFF72AF8204632233F220B2180
:1026FC0006F07CFE09237022009380212046237A69
:10270C0006F0A8FF02B010BD20060020F7B5044665
:10271C0006F09DFE80238DF8073001230DF1070292
:10272C0019461F4D204606F00EFE204606F095FE7B
:10273C001C4E6B78204606EB03135F78394606F087
:10274C00A9FE3946204606F0B6FE0322202120467B
:10275C0006F09AFE04230C222621204606F046FEA3
:10276C0095F90E102046FFF7B5FF6D7805B1FEE721
:10277C00314620466660FFF793FF2A4629462046DD
:10278C0006F0CDFE20462B46C022C82106F030FFB5
:10279C00FF21204603B0BDE8F04006F046BF00BF65
:1027AC00AC000020DCD1000838B50B4D0B4B00F110
:1027BC00090200F10801044695F90E00FEF7BEFF70
:1027CC006B7803B1FEE7064B902160206360FEF747
:1027DC002DFDE06038BD00BFAC00002020060020BD
:1027EC00DCD1000810B5054C636813B92046FFF71F
:1027FC00DBFF63689868A0F57A7010BD6018002044
:10280C00436810B504460BB9FFF7CEFF6368B3F904
:10281C000C0010BD012230B5A1F12103C1F121043E
:10282C0022FA04F44D1E02FA03F32343AA404FF09C
:10283C00FF344FF0FF35C0E90223C0E90445C0E97D
:10284C000623017080F8201030BD002201231146B0
:10285C00F0B5D0E90276D0E904549F4276EB020C35
:10286C000BD303EA050C02EA040E5CEA0E0C1CBF47
:10287C00013189B2DB185241EFE7D0E90632DB189F
:10288C0052419F4280F8201076EB02010AD3C0E936
:10289C000632D0E9062325EA020524EA0304C0E93E
:1028AC000454F0BD01220023C0E90623F1E790F89F
:1028BC00D8302BB103691A78836853F8220070471B
:1028CC00037D0E3350F82300704700002DE9F341CF
:1028DC000446164688469DF824705B22402F4FF024
:1028EC0000011D4628BF402708F034FA8E4B9B8808
:1028FC0023803278A37862F30203A3707378DB0031
:10290C0003F0080343EA0811A37803F00703194303
:10291C00A1707279E37862F30003E370B2796379A2
:10292C0062F38613637196F90200FDF74BFFE378AF
:10293C0060F34703E370F278237962F306032371A3
:10294C00337903F00102237903F07F0343EAC213C6
:10295C0023713379C3F34502637923F03F031343A7
:10296C006371A37967F34703A3712B78AA78E3719A
:10297C006B7802F01F0203F0070343EAC2032372D1
:10298C006B88C3F34512637A23F03F0313436372DE
:10299C002B7903F00302637A03F03F0343EA8213BB
:1029AC006372AB88C3F38703A3726B79C3F38002A2
:1029BC00E37A23F001031343E372AB7903F07F0254
:1029CC00E37A03F0010343EA4203E372EB88C3F3B7
:1029DC00C312237B23F00F03134323732B7AAA7A9E
:1029EC00E3736B7A02F01F0203F0070343EAC2039E
:1029FC0023746B89C3F34512637C23F03F031343A9
:102A0C0063742B7B03F00302637C03F03F0343EA04
:102A1C0082136374AB89C3F38703A3746B7BC3F317
:102A2C008002E37C23F001031343E374AB7B03F0DC
:102A3C007F02E37C03F0010343EA4203E374EB8976
:102A4C00C3F3C312237D23F00F03134323752B8A87
:102A5C00DB0863756B8ADB08A375AB8ADB08E3754F
:102A6C00EB8ADB0823762B8BB3F5C06F3AD2B3F528
:102A7C00007F94BF00230123227B63F30512227392
:102A8C006B8BB3F5C06F2FD2B3F5007F94BF0023CF
:102A9C000123227B63F387122273AB8BB3F5C06FD8
:102AAC0024D2B3F5007F94BF00230123227D63F36E
:102ABC0005122275EB8BB3F5C06F19D2B3F5007FFD
:102ACC0094BF00230123227D63F38712089B227598
:102ADC001F4404F11902BB420CD013F8011B02F87D
:102AEC00011BF8E70223C7E70223D2E70223DDE745
:102AFC000223E8E74FF6FF7321460DF106000D2285
:102B0C00ADF80630FEF738FA2146BDF806304C22F7
:102B1C0021F80D3FFEF730FABDF80630A4F8593015
:102B2C0002B0BDE8F08100BFAC00002013B59DF8E9
:102B3C001040CDE9003413460A460021FFF7C6FECB
:102B4C0002B010BD13B5144B02889B8804469A4200
:102B5C001DD1837803F0F003102B01D0202B18D15A
:102B6C00A379A52B15D84FF6FF730DF1060059224A
:102B7C002146ADF80630FEF7FFF9B4F85900BDF860
:102B8C000630984214BF0420002002B010BD012072
:102B9C00FBE70220F9E700BFAC00002030B5324B58
:102BAC00027893F8261000F1170461F30302027007
:102BBC0093F8271061F30712027093F828104278EB
:102BCC0061F30302427093F8291061F3071242700B
:102BDC0093F82A10827861F30302827093F82B1019
:102BEC0061F30712827093F82C10C27861F3030220
:102BFC00C27093F82D1061F30712C27093F82E1067
:102C0C00027961F30302027193F82F1061F307123A
:102C1C00027193F83010427961F30302427193F818
:102C2C00311061F30712427103F13A0100F10B020A
:102C3C0011F9015B02F8015BA242F9D193F846103D
:102C4C00C27D61F30102C27593F8471061F38302F0
:102C5C00C27593F8481061F30512C27593F84930A8
:102C6C0063F38712C27530BDCC00002002782F4B65
:102C7C00C2F3030230B583F82620027803F13A013F
:102C8C00C2F3031283F82720427800F11704C2F331
:102C9C00030283F828204278C2F3031283F8292018
:102CAC008278C2F3030283F82A208278C2F30312DB
:102CBC0083F82B20C278C2F3030283F82C20C2784D
:102CCC00C2F3031283F82D200279C2F3030283F8B6
:102CDC002E200279C2F3031283F82F204279C2F31B
:102CEC00030283F830204279C2F3031283F83120B7
:102CFC0000F10B0212F9015BA24201F8015BF9D160
:102D0C00C27DC2F3010283F84620C27DC2F3810268
:102D1C0083F84720C27DC2F3011283F84820C27D9C
:102D2C00C2F3811283F8492030BD00BFCC000020D3
:102D3C001FB58DF80C300123019303AB00931346A0
:102D4C000A460221FFF7C2FD05B05DF804FB000046
:102D5C000123F0B5204D044685F8583085B0B0F805
:102D6C000900FDF796FE6E46E865B4F80B301422A8
:102D7C0004F10D0105F16200A5F86030FDF7A7FE26
:102D8C0094F9213004F1230085F8773094F822303F
:102D9C0004F14E0785F87830FFF768FF04F13E0325
:102DAC00324618685968083303C2BB421646F7D13D
:102DBC002023082269460948FDF7F2FD94F84E30AD
:102DCC00A5F8523094F84F30A5F8543094F85030A0
:102DDC00A5F8563005B0F0BD340100206401002088
:102DEC002DE9F0434FF0400993B00DF1080805466A
:102DFC000E46174600214A46404607F0ABFF2223F9
:102E0C00104C062204F116010DF10A008DF8083061
:102E1C00FDF74CFEA37F647F0DF1110004F00F044D
:102E2C0044EA03148DF81040FFF7B8FE3B463246D7
:102E3C0002212846CDE90089FFF748FD13B0BDE813
:102E4C00F08300BFCC00002010B50446FEF7D2F88A
:102E5C0004F11400FEF7CEF804F12800FEF7CAF8CE
:102E6C0004F13C00FEF7C6F804F15000FEF7D2F86E
:102E7C0004F16400FEF7CEF810BD0000002383803F
:102E8C0083718381084B094A1B6883601368036153
:102E9C005368074A4361136883615368C3614EF6F4
:102EAC0060230360704700BFA829002050AF0008C2
:102EBC0059AF000810B50E4C0220FFF7E1FA20467E
:102ECC0006F0CBFA00212046FFF704FC094B5B7897
:102EDC0003B1FEE7084920466160FFF7E1FB20469D
:102EEC00FF2106F0A2FB2046BDE8104006F0B5BA63
:102EFC0060180020AC000020DCD1000808B5144B91
:102F0C0002461968FEF7B2FBC8B19368C91AB1F54D
:102F1C007A6F01D901235371137993B10D4B517B06
:102F2C001B7819B1022B1CBF03211173991E4B4244
:102F3C004B41537393790BB10323137308BD916009
:102F4C00EAE75379002BF9D001231371F5E700BFA1
:102F5C00A82900207902002008B5037B0246023B19
:102F6C00012B03D90023107B137308BDFEF77EFBE6
:102F7C000028F7D00020F8E70A4A38B51388044631
:102F8C0001339BB2502B0D4601D8138038BD002362
:102F9C0005491380FEF7D6F929462046FEF7D2F9EB
:102FAC00F4E700BF3006002065AF00081646054662
:102FBC0080B50F464B49FEF7C5F931462846FEF75A
:102FCC00C1F90022484B012F484C1A8011D14FF403
:102FDC0080534FF40067636146F2A8102761FEF737
:102FEC0019FC6761FEF716FC31462846FFF7C4FF53
:102FFC00F2E7022F11D14FF400634FF48057636155
:10300C0046F2A8102761FEF705FC6761FEF702FC8B
:10301C0031462846FFF7B0FFF2E7032F11D14FF4EA
:10302C0080534FF40067236146F2A8102761FEF726
:10303C00F1FB6761FEF7EEFB31462846FFF79CFF7C
:10304C00F2E7042F11D14FF400634FF48057236142
:10305C0046F2A8102761FEF7DDFB6761FEF7DAFB8D
:10306C0031462846FFF788FFF2E7052F14D14FF4BD
:10307C0000684FF4805746F2A810C4F810802761FE
:10308C00FEF7C8FBC4F814806761FEF7C3FB31463A
:10309C002846FFF771FFEEE7062F14D14FF40068B6
:1030AC004FF4805746F2A810C4F810806761FEF701
:1030BC00B1FBC4F814802761FEF7ACFB31462846FF
:1030CC00FFF75AFFEEE74FF4006323614FF4805390
:1030DC0023614CF25030FEF79DFB31462846FFF73A
:1030EC004BFFF6E765AF00083006002000080140F2
:1030FC00054A064B11681B780B441360044A13688D
:10310C0001331360704700BFA82900202000002065
:10311C002C06002037B50C461D4668B907480DF142
:10312C0006020DF1070106F0C8FA2B4622469DF85F
:10313C000610024806F07BF903B030BD6018002081
:10314C0038B50C461546014690B9FEF73DFA0948CC
:10315C002B46224606F05BF9FF21064806F065FA7D
:10316C00044806F08AFABDE838407D20FEF752BBD1
:10317C0038BD00BF601800202DE9F0415B270546E3
:10318C00174C0E463A460021204607F0E3FD2B690A
:10319C0004F10A0023606B69124D6360124B05F158
:1031AC0016011B789A1E53425341627A63F3000254
:1031BC0062720622FDF77AFC237CAA7F592162F306
:1031CC00071320462374FDF7E2FE084BA4F85900C0
:1031DC003A4621463046BDE8F0419B78FFF7B0BF38
:1031EC0075180020CC00002079020020AC000020D3
:1031FC0013B50C4690B901F17A020C480DF1060199
:10320C0006F047FABDF90630002B09DB4FF6FF73C9
:10321C00ADF80630BDF8063084F8783002B010BD39
:10322C007F33F7DA4FF68173F2E700BF60180020A6
:10323C0070B50D460646114C5B23224621462846A6
:10324C00FFF768FFD6E90613206862689A4208BF48
:10325C00884211D120465921FDF799FEB4F8594006
:10326C00231A5C425C4128460549FFF7C1FF002C3C
:10327C000CBF0120022070BD0024F4E7C016002012
:10328C00D81700200A4608B501460148FFF78EFE04
:10329C00040000200148FEF76AB900BF000400409A
:1032AC00F8B505464FF07F301B4B1C4A0024C3E990
:1032BC001E02FF264FF47F420F46C3E90244C3E9C6
:1032CC000744C3E90C44C3E91144C3E91644C3E9F8
:1032DC001B445C601C749C6183F82440DC6283F8A2
:1032EC0038401C6483F84C405C6583F860409C66F5
:1032FC0083F87440A3F88260C3F8842005F10800B9
:10330C0083F88160FFF786FA394605F13000FFF744
:10331C0081FA2C80AE70F8BDD8170020FFFF7F001B
:10332C0010B504463030FFF790FA04F10800FFF7AF
:10333C008CFA0E4B1B78022B16D0D4E90E014FF0F1
:10334C00FF324FF0FF33C4E91201C4E91023C4E982
:10335C000623D4E9042394F83010C4E90823237A13
:10336C0084F8501084F8283010BD00BF790200207A
:10337C00D0E9062310B5D0E9084122430B43C0E93C
:10338C000623024A53680133536010BDD81700203E
:10339C00D0E9102310B5D0E9124122430B43C0E908
:1033AC001023024A93690133936110BDD817002092
:1033BC00064B1B78022B06D1054B93F84C000128C9
:1033CC0038BF012070470020704700BF79020020F1
:1033DC00D81700202822074B02FB00339B681A7871
:1033EC00542A05D15878A0F17803584258417047B7
:1033FC000020704730BA00082822074B02FB00332C
:10340C009B681A78522A05D15878A0F17803584253
:10341C00584170470020704730BA0008022801D983
:10342C00FFF7EABF01207047292810B42FD82823B2
:10343C00184C03FB00421279042A07D83AB3023A1B
:10344C00022A05D8DFE802F00F151D00FE2A1ED156
:10345C0028234343E358C9B21A788A4217D019700B
:10346C0010BCFFF7DBBF4343E35849B293F900208C
:10347C00F3E74343E2588BB214889C4207D0118087
:10348C00EEE74343E2580BB2B2F90040F5E70020F7
:10349C0010BC704730BA0008292870B504460D4698
:1034AC0016D8282343430B4AD0180079FF280FD194
:1034BC00D65806223046FDF71CFB48B93046294643
:1034CC000622FDF704FB2046BDE87040FFF7A6BFBF
:1034DC00002070BD30BA000838B50546044655F8D2
:1034EC00050BFDF72FFF29462068FDF72BFF38BD94
:1034FC0038B500250446016005710649053007F012
:10350C0040FC84F889506572C4F88C50A4F8905033
:10351C0038BD00BF62AF000803798B420DD0012982
:10352C00017106D0022906D039B90449053007F0DB
:10353C0028BC0349FAE70349F8E7704762AF000873
:10354C0065AF000864AF000890F88930642B08D888
:10355C00C2180133DBB2517280F889301844002351
:10356C00437270472DE9F047437A8046702B0F4623
:10357C00164690B06FD1837A202B6CD1C07A07F0AD
:10358C00B9FB00283DD000254FF002092C4608F16C
:10359C00090A5046FCF7DEFD814513D208EB0903FE
:1035AC005B7A3D2B0CD0202B05D010A96A1C0D4446
:1035BC0005F8403CD5B209F101035FFA83F9E8E75D
:1035CC002C46F2E710AB1D44002305F8403CDCB957
:1035DC006846FCF7BFFDE5B2A84207EB050304F112
:1035EC00010407D910AB2B4413F8400C07F06CFC0A
:1035FC007855EDE70022304618491A7007F0C1FBE8
:10360C00012010B0BDE8F087E8461D4618F8010B04
:10361C0007F05AFC78550135EBB2A342F6D30025DE
:10362C003D550134E4B26846FCF794FD6719FFB2CE
:10363C00874206EB05080AD210AB1F4417F8400C62
:10364C0007F042FC0135EDB288F80000EBE70023EF
:10365C0088F80030D4E70020D3E700BF67AF00083C
:10366C002DE9F043064628201446244A012B00FB82
:10367C00012287B0176A03D1214B022908BF1F46CC
:10368C00FF234FF0000801258DF800303846FCF779
:10369C0061FD5FFA88F948450CD917F809302C2BD5
:1036AC0005D106AB2B44013503F8188CEDB208F1AB
:1036BC000108EBE706AB2B44A54203F8188C04D8A1
:1036CC000020307007B0BDE8F08306AB1C4400232B
:1036DC0014F8181C14F9174C0131C9B25A18D2B28B
:1036EC00A24206EB030004DABA5C0133DBB20270CF
:1036FC00F4E7002303700120E4E700BF30BA0008B0
:10370C0069AF00082DE9F04128254D43164E1346AC
:10371C0077193A790446FE2A16D0FF2A1AD0022AC3
:10372C001DD17359014693F9000005F0D2FD3D6996
:10373C002B783BB10D49204607F014FB2946204657
:10374C0007F010FB01200CE07259BDE8F041127833
:10375C00FFF786BF06227159FDF7B9F9F2E7002091
:10376C002070BDE8F08100BF30BA000896AF0008A9
:10377C0028220B4B70B502FB00331E6A3046FCF757
:10378C00E9FC002204461146D5B24B1CAC42D8B21F
:10379C0005D9735D01322C2B08BF0146F4E770BDCF
:1037AC0030BA00082822054B02FB00335B6A0BB1D0
:1037BC00188870474FF6FF70704700BF30BA00088A
:1037CC002DE9F04F002405460F46A0461D4E93B040
:1037DC004FF0000AD6F808905FFA84FB5FFA8AF182
:1037EC0048460191FCF7B6FC019912AB88420B4498
:1037FC0011D919F80100019307F066FBC0B220281B
:10380C0008BF5F22019B0AF1010A14BF03F8400CA8
:10381C0003F8402CE2E7394603F8408C02A8FCF789
:10382C008FFC28B9012085F800B013B0BDE8F08FEB
:10383C0001342A2C06F12806CAD1002085F8008014
:10384C00F3E700BF30BA00082DE9F0414FF028082B
:10385C0000242F4B054608FB023898F804300F461D
:10386C00FE2B164604701AD0FF2B2FD0022B13D12F
:10387C00084607F011FA98F9183083420CDC98F9D5
:10388C001C30834208DB4FF0000160F30701304627
:10389C00FFF7CAFD012428702046BDE8F0810846D8
:1038AC0007F0FAF9071EF7DB3046FFF761FFB84265
:1038BC00F2DD3046FFF776FF40FA07F313F0010014
:1038CC0023D04FF0000167F30701E0E70846FCF74F
:1038DC0041FC0628E0D10F487A1E791D12F8013FF1
:1038EC00A3F16104192C09D95F2B07D0233BDBB260
:1038FC00162B0AD820FA03F3DB0706D58A42EDD142
:10390C0039463046FFF7C8FDC4E70024C4E700BFC2
:10391C0030BA000801EC7F002DE9FF4728232C4E1C
:10392C00044603FB016633790D46FE2B22D0FF2B98
:10393C004CD0022B1BD196F9185026490068FDF784
:10394C000DFD2846694605F0C4FC69462046FFF784
:10395C00C3FD96F91C5020492068FDF7FFFC694611
:10396C00284605F0B6FC69462046FFF7B5FD04B0C5
:10397C00BDE8F0870846FFF715FF00268046DFF804
:10398C005C90DFF85CA0F7B201233A462946684602
:10399C00FFF766FE0028EAD0B3B248FA03F3DB0760
:1039AC0012D549462068FDF7CDFC206807F130019F
:1039BC000368C9B29B68984751462068FDF7C2FC62
:1039CC0069462046FFF788FD0136DCE70549CCE760
:1039DC0030BA000885AF00088DAF000895AF00081D
:1039EC0098AF00089CAF00082DE9F0410E46282541
:1039FC00044675431A4F88B01A49006807EB05084E
:103A0C00FDF7ACFCD8F808102068FDF7A7FC1649A8
:103A1C002068FDF7A3FC012231466846FFF772FED1
:103A2C0069462068FDF79AFC98F80430FE2B10D1FB
:103A3C007B590E4920681D78FDF790FC206805F134
:103A4C0030010368C9B29B68984709492068FDF7A3
:103A5C0085FC2068611DFDF781FC08B0BDE8F08194
:103A6C0030BA000895AF000898AF0008AEAF000858
:103A7C00ACAF00080129F8B506460D4601D903295B
:103A8C0007D1194B1B78022B03D030461749FFF78F
:103A9C0023FD0024144F012D08D12046FFF79AFC7A
:103AAC0050B92046FFF7A8FCA8B105E0022D08D1BB
:103ABC002046FFF78FFC70B90134E4B22A2CEAD10E
:103ACC00F8BD032D0CD12046FFF796FC0028F3D04F
:103ADC003B78022BE5D121463046FFF785FFEBE71B
:103AEC00002DF5D0F7E700BF79020020B1AF000838
:103AFC0010B504461749FFF7EFFC20461649FFF7AF
:103B0C00EBFC20461549FFF7E7FC20461449FFF76C
:103B1C00E3FC20461349FFF7DFFC20461249FFF770
:103B2C00DBFC20461149FFF7D7FC20461049FFF774
:103B3C00D3FC20460F49FFF7CFFC20460E49FFF778
:103B4C00CBFC20460D49FFF7C7FC20460C49FFF77C
:103B5C00C3FC10BDCEAF0008EEAF000813B00008D8
:103B6C003BB000085FB0000883B00008ACB00008A0
:103B7C00D5B0000819B100083BB100085AB10008D3
:103B8C0089B1000838B5394B04461A6890F8913061
:103B9C00012B69D1D0F88C30D31AB3F5FA7F63D3EB
:103BAC00C0F88C203248FFF703FC05F0A1FB314D27
:103BBC0001462068FDF7D2FB2F492068FDF7CEFBAC
:103BCC0095F8240005F094FB01462068FDF7C6FB30
:103BDC002A492068FDF7C2FB95F87F0005F088FBA9
:103BEC0001462068FDF7BAFB25492068FDF7B6FBB6
:103BFC0095F9780005F086FB01462068FDF7AEFBD1
:103C0C0020492068FDF7AAFB95F97E0005F07AFBA8
:103C1C0001462068FDF7A2FB19492068FDF79EFBC1
:103C2C0095F97A0005F06EFB01462068FDF796FBCE
:103C3C0015492068FDF792FBB5F85C0005F06CFBAC
:103C4C0001462068FDF78AFB0D492068FDF786FBCD
:103C5C00B5F8700005F060FB01462068FDF77EFBAF
:103C6C0020460A49FFF738FC38BD00BFA8290020C0
:103C7C0030190020D8170020B6B10008B8B10008E0
:103C8C00BBB10008B9B10008BEB10008C1B1000851
:103C9C002DE9F0430368044693B043B38F4B1E6881
:103CAC0090F8893083B1D0F88C30F31AB3F5FA6FF1
:103CBC000AD98B49FFF710FC20468A49FFF70CFC08
:103CCC00002384F88930637294F89130ABB120688A
:103CDC000368DB68984768B1206803681B699847DC
:103CEC0000232046804984F89130FFF7F5FB13B090
:103CFC00BDE8F0832046FFF745FF794FDFF8EC81F4
:103D0C00DFF8EC9120680368DB6898470028EED058
:103D1C00206803681B6998470A280546C4F88C601C
:103D2C000FD00D280DD02C280BD03B2809D02068A3
:103D3C00294603689B68984729462046FFF704FCF0
:103D4C00E0E73946204604F10905FFF7C5FB41467B
:103D5C002846FCF7F5F938B92046FFF7C9FE0023D1
:103D6C0084F889306372CDE749462846FCF7E8F9B8
:103D7C000028F1D028465F49FCF7E2F90028EBD087
:103D8C005D492846FCF7DCF9014618B92046FFF7D7
:103D9C0071FEE4E728465949FCF7D2F908B901212C
:103DAC00F4E728465649FCF7CBF908B90221EDE7B0
:103DBC0028465449FCF7C4F908B90321E6E7204624
:103DCC000AAA02A9FFF7CEFB00283DD002A90DF1EB
:103DDC000600FFF7F5FC20B94B492046FFF77CFBAA
:103DEC00BDE74A4B1B78022B05D09DF80830522BAF
:103DFC0001D14749F1E79DF828303F2B0AD12046E5
:103E0C009DF80610FFF7F0FD20469DF80610FFF711
:103E1C0083FDA4E70BB93F49DFE79DF806200AA90B
:103E2C000DF10700FFF710FD08B93B49D5E7204617
:103E3C009DF80610FFF7D8FD9DF80730002B8ED0AB
:103E4C00012384F890308AE728463449FCF778F946
:103E5C0070B9022384F890302C4B1B78022B05D0C0
:103E6C002B492046FFF738FB2D49B6E72D49B4E71F
:103E7C0028462D49FCF764F920B903232B4984F813
:103E8C009030AAE728462A49FCF75AF970B904235E
:103E9C0084F890301D4B1B78022B05D01C49204612
:103EAC00FFF71AFB234998E7234996E7284623494D
:103EBC00FCF746F940B901232149204684F891309A
:103ECC00FFF70AFB1F4988E794F889101E4A1F4B1D
:103EDC0000290CBF114619467FE700BFA829002016
:103EEC00DDB10008DFB10008E9B1000827B7000810
:103EFC0003B2000867AF000808B200080BB2000854
:103F0C0010B2000816B200081CB20008790200209A
:103F1C00B1AF000838B2000850B2000863B2000814
:103F2C006AB2000881B2000895B200089AB2000883
:103F3C00B1B20008B8B20008D1B20008FAB2000859
:103F4C00E7B2000800B30008C3B10008CFB1000805
:103F5C0010B5064B064C93F854102046FFF7DCFACC
:103F6C002046BDE81040FFF793BE00BFCC000020F8
:103F7C00E40100206FF00102094B0A491A610A881A
:103F8C00013A92B20A800A8892B23AB9DA6822F0FF
:103F9C000102DA601A6822F001021A60704700BF51
:103FAC00002C0140DA0100206FF00102054B1A6170
:103FBC00DA6822F00102DA601A6822F001021A6053
:103FCC00704700BF002C014010B51F4C88B0FFF7A4
:103FDC00EBFF40F2022101230A221C48FDF75DFA97
:103FEC00204600224FF47A71FDF762FA0023CDE9E6
:103FFC000133039360234FF48071009302236A46CC
:10400C002046CDE905310493079104F0A7FF104A2F
:10401C00536823F0040353600E4A536823F0E063A3
:10402C0023F0C00343F0E06343F040035360E0220D
:10403C00636C43F400436364074B83F819234FF01C
:10404C0000721A6008B010BD002C0140000C014039
:10405C00182C01400000014000E100E0074BB3FBCD
:10406C00F1F1074BD9624908D9631A6842F0010291
:10407C001A601A6A42F480621A62704740420F005A
:10408C00002C01400D480E4BB0FBF1F051434FF4A6
:10409C007A72B1FBF2F1D8624008D863196301213E
:1040AC00084A11801A680A431A601A6A42F480623C
:1040BC001A62DA680A43DA60704700BF40420F00A8
:1040CC00002C0140DA01002019B94FF4FA71FFF706
:1040DC00C5BF182905D84FF4FA724FF4FA71FFF7DF
:1040EC00D1BF4A2901D8FA22F7E7632901D8322235
:1040FC00F3E7FFF759BF0000044B1B68DB0704D440
:10410C0028224FF4FA71FFF7BDBF7047002C014015
:10411C00244B10B51C68A00604D55868224BC0B2BD
:10412C001B689847210744BF1E4B5B68220613D5BA
:10413C001E4B1F4A1988138889B29BB299421FD013
:10414C0013880133C3F3080313801388194A9BB2F5
:10415C00D35C144ADBB25360630621D5164A52E88D
:10416C00003F23F0400342E800310029F7D1BDE8BD
:10417C0010406FF040020B4B1A60104B1B68184735
:10418C000848FCF7BDFE6FF040030B4A036052E891
:10419C00003F43F0400342E800310029F7D1DBE750
:1041AC0010BD00BF00480040140000208E1B0020F2
:1041BC008C1B00208C1900200C480040180000209B
:1041CC0001280DD0074A52E8003F23F0200342E8B3
:1041DC0000310029F7D16FF02002034B1A607047B1
:1041EC00FDF710B80C48004000480040F0B5082618
:1041FC0001272D4C8BB0E3682C4D23F40053E36066
:10420C00FDF7B0F84FF48020FCF744FE284928460F
:10421C0003230A22CDE90067FDF7EAF803232846B9
:10422C001A46CDE900672349FDF7E2F81822002170
:10423C0004A806F08FFD204B204603930C230DEBB6
:10424C000301079304F052FFA0222369204623F4B4
:10425C0090432361636923F02A036361174B83F84E
:10426C00272380225A60FCF74BFE6FF0400323603B
:10427C000024134B1C80134B1C806FF02003036035
:10428C00FCF724FE104B1C80104B1C80036923F49C
:10429C0090430361436923F02A034361C36843F4E9
:1042AC000053C3600BB0F0BD00480040000C01404F
:1042BC000400040408000804801A060000E100E071
:1042CC008C1B00208E1B0020881900208A190020CE
:1042DC000649074A0B8812880133C3F3080392B2CC
:1042EC009A421EBF034AD0540B8070478E1B00208D
:1042FC008C1B00208C19002038B5037A0446082B3F
:10430C0020D990F88F200020D2B1092B18D1FFF7BB
:10431C0057FF202200250C4B1A6194F88F20EBB22A
:10432C00934206D2234493F89000FFF7D1FF013556
:10433C00F3E7002384F88F300A230120237238BD61
:10434C002072FCE70020FAE7000801400148FCF766
:10435C00CABD00BF0048004070B520260A4D044677
:10436C000323052242F220012846FDF796F86E61E0
:10437C00FFF73CFF6E61FCF745FF0023A3816360F0
:10438C002381A37270BD00BF0008014038B50379CA
:10439C00044615461BB1002303710123C380E38837
:1043AC000B70E3880BB9002038BD6379002BFAD071
:1043BC00236820469B6898470028F4D00022E388A5
:1043CC00627101339BB2AB4294BFE380E280EBE7B6
:1043DC0010B5037A0446082B84BF00230372084BE4
:1043EC005A6A036892B21B689847236820465B6838
:1043FC00984718B1BDE81040FFF7A8BF10BD00BF2B
:10440C000004004001460148FFF7E2BF600B0020AA
:10441C0001460148FFF7DCBF800200202022044B3C
:10442C0010B55A610446FCF7EDFE0023237210BD53
:10443C00000801400148FFF7F1BF00BF600B0020EE
:10444C000148FFF7EBBF00BF800200200238C0B26A
:10445C000E289ABF014B185C002070470CBA00085C
:10446C0010B5037A044633B18389D31A9BB2FA2B65
:10447C0084BF00230372237AA281052B19D8DFE8AD
:10448C0003F003080E334A564F2912D1012323722D
:10449C000FE0572901D10223F9E70023F7E70023A6
:1044AC00FF29A37206D141F204732381637D002B93
:1044BC00F3D110BD9F290FD9012201F01F00A27268
:1044CC0084F82F00FFF7C2FF607218B984F82E2011
:1044DC000923DCE70523DAE71829DED80029F7D011
:1044EC00032361722372E1E7B4F86822B4F86C021A
:1044FC00531C0340B4F86A0298421EBF121982F88A
:10450C006E12A4F86832A37A627A0133DBB29A4253
:10451C00A372DDD9CDE7A27A531CDBB22244A3727D
:10452C00D175627A9A42C4D80123A375D0E7A27AD6
:10453C00531CDBB22244A37282F82F10627A9A4287
:10454C00B7D2012384F82E30C2E7F0B5447D87B092
:10455C00002C36D16E463546B0F86270B0F8643037
:10456C00F91A8AB2090441BFB0F866100131521829
:10457C0092B20AB39F420EBF0022B0F86610C21866
:10458C0004F101041EBF013392F868200B40E4B221
:10459C0018BFA0F86430182C05F8012BDED10020D0
:1045AC00FFF796FE0546013516F8010BEDB2FFF745
:1045BC008FFEA542F7D301E0002CF0D1204607B0C6
:1045CC00F0BD0024FAE738B5447D05465CB995F892
:1045DC004820E3B29A4206D92B4493F84900FFF7DE
:1045EC0077FE0134F3E738BD38B5457D04460DBB85
:1045FC00037A082B03D9092B03D0002323722846F6
:10460C0038BD90F8483093B1FFF7DDFF94F84800BF
:10461C0084F84850C0B20028EFD00020FFF7D0FD3E
:10462C002022054B01251A610A232372E7E7FFF7C5
:10463C008CFFF0E70025E2E700080140027EC37D15
:10464C0002F0070243EA02230B80038BC3F3CA0375
:10465C004B808369C3F38A338B80037FC27E03F064
:10466C000F03DB0143EA5203CB80838BC3F30A13A2
:10467C000B81C369C3F3CA334B8190F82030C27FDE
:10468C0003F01F039B0143EA92038B81038CC3F35A
:10469C004A13CB81438CC3F30A030B8290F824306A
:1046AC0090F8232003F03F035B0143EAD2034B82D3
:1046BC00436AC3F38A138B82C38CC3F34A03CB8242
:1046CC0090F8283090F8272003F07F031B0143EA71
:1046DC0012130B83836AC3F3CA134B83438DC3F347
:1046EC008A038B8390F82C3090F82B20DB0043EA64
:1046FC005213CB8340F2547390F82D2012F0010F1B
:10470C0014BF1A46AC220A8490F82D2012F0020F26
:10471C0008BFAC234B847047F8B51F46437D044655
:10472C000D4616467BB100230E440372B54207D0EA
:10473C0023683A4620461B6815F8011B9847F5E795
:10474C0000232372A375F8BD0346407D30B568B1D4
:10475C0093F8484004F0FF054CB103F149040C6098
:10476C0093F848101170002283F8482030BD284679
:10477C00FCE7000010B50175044642750AB301232D
:10478C00037540F2FF12A4F8662040F2FF7200237A
:10479C00A4F86C227F22A375A4F8643084F82E3020
:1047AC00A4F8623084F84830A4F86A32A4F868326D
:1047BC00A4F8703AA4F86E3AA4F8722A84F8F43A81
:1047CC0010BD0029FCD0044B044A1A60044B054A66
:1047DC001A60FFF7C1FDD4E7140000201144000853
:1047EC001800002041440008427D38B552B9047DC0
:1047FC0034B1857D05F0FF0415B18275FFF71EFFFE
:10480C00204638BD0024FBE737B5457D0C46BDB9C5
:10481C00037D7BB10F220DF10701FFF7B7FD0346B6
:10482C0040B19DF80720062A07D0092A05D0012A95
:10483C0006D12570184603B030BD01222270F9E76D
:10484C000023F7E70346007D60B193F82E2002F0B9
:10485C00FF003AB1002283F82E2093F82F3003F09A
:10486C001F030B707047F8B50D460646174600211E
:10487C001922493006F06EFA2846FFF7E7FD044688
:10488C0005F01F05603D01340246394686F8495053
:10489C0006F14A00E4B206F035FA86F84840F8BD55
:1048AC0070B590F8F44A0346DCB9B0F86E6AB0F80B
:1048BC00702AB51AA8B22D0441BFB3F8725A01354B
:1048CC00401980B260B1964208D0981890F8744A9A
:1048DC00B3F8720A01320240A3F8702A01200C705E
:1048EC0070BD0020FCE7000010B51E4C86B01822ED
:1048FC000021684606F02EFA2046FDF781FF63681A
:10490C00ADF8000013B92046FDF74EFF0122637A83
:10491C008DF803309DF8053062F34203124ADBB286
:10492C0092F85810B1B192F8771092F8782023F0E1
:10493C001903D20002F0180242F001028DF80410A3
:10494C0013436A460B2109488DF80530FFF78BFF9E
:10495C0006B010BD7F2223F019038DF8042043F01C
:10496C001803EEE76018002034010020600B0020D3
:10497C007FB518220021684606F0ECF9D620FCF72A
:10498C0077F80223ADF80000142201A80649ADF80F
:10499C000230FCF78BF86A4604210448FFF763FFEA
:1049AC0007B05DF804FB00BF1DB30008600B0020CE
:1049BC0010B5114C86B018220021684606F0CAF9D1
:1049CC0094F85830ABB1E06DFCF752F81422B4F8FF
:1049DC006030ADF80000ADF8023004F1620101A8BE
:1049EC00FCF764F86A4605210448FFF73CFF06B063
:1049FC0010BD14220249F2E734010020600B0020A4
:104A0C0061AF00080023044A07211370034A0448CD
:104A1C001370FCF7FFBB00BF58160020591600207E
:104A2C00CE15002010B50B780C46033B082B0BD889
:104A3C00DFE803F010050C1A0A0A0A0A0E0004211A
:104A4C0000F66E20FCF7E6FB207810BD0521F7E799
:104A5C000B21F5E7042100F66E20FCF7DBFB0521AA
:104A6C00FCF7D8FB0B21EDE7FFF7CCFFECE707B524
:104A7C008DF807100DF10701FFF7D4FF03B05DF8B7
:104A8C0004FB00002DE9F0417A4D86B095F80080CA
:104A9C00B8F1290F0FD918220021684606F05AF9EF
:104AAC00FF236A46072174488DF80030FFF7DBFEC0
:104ABC0006B0BDE8F081714E18223178704F002994
:104ACC0061D1684606F046F9282303FB08F17A18F1
:104ADC0012798DF80080042A07D852B1023A022AC2
:104AEC001FD8DFE802F0232E3800FE2A3CD0FF2A24
:104AFC003FD028222B780DF1020002FB0373102209
:104B0C009968FBF7D3FF6A4607215B48FFF7ABFEBA
:104B1C000123337007215B4806B0BDE8F041FCF778
:104B2C0079BB03FB08F3FB581B7807E0012203FB5E
:104B3C0008F3FB588DF8012093F900308DF81230F2
:104B4C00D7E7022203FB08F3FB588DF801201B88E2
:104B5C00ADF81230CDE7032203FB08F3FB588DF8B8
:104B6C000120B3F90030F3E704238DF801307B58B2
:104B7C00DAE70523062279580DF112008DF8013081
:104B8C00FBF794FFB5E7012968464FF000015AD1B5
:104B9C0006F0E0F8282303FB087214798DF80080E6
:104BAC00042C09D85CB1023C03FB0873022C0FD80F
:104BBC00DFE804F00E1E1E00FE2C23D000246A46F3
:104BCC0008212D48FFF74FFE002C37D00223A0E719
:104BDC001A7D8DF805201A7E8DF801201A7F8DF82C
:104BEC000320062219690DF10700FBF75FFFE5E7CB
:104BFC009A8AADF805201A8BADF801209A8BADF886
:104C0C000320EEE7536AB3B11B882824ADF80130BA
:104C1C0004FB08731522196A0DF10300FBF746FF1C
:104C2C002B7804FB0373186AFBF794FA142894BFCF
:104C3C0000240124C3E74FF6FF73E6E734702B78AA
:104C4C0001332B7066E706F085F8282303FB087305
:104C5C00196A172215310DF101008DF80080FBF750
:104C6C0025FF6A4609210448FFF7FDFD0023337038
:104C7C00E5E700BF58160020600B002059160020F5
:104C8C0030BA0008CE150020002310B50B70024678
:104C9C0000780C46292811D82821094B01FB003338
:104CAC001B79FF2B06D0B2F90110FEF7BDFB20706B
:104CBC00012010BD511CFEF7EFFBF8E71846F8E792
:104CCC0030BA0008043807280DD8DFE800F00406D5
:104CDC000C080C0C0C0AFFF74BBEFFF769BEFFF774
:104CEC00D1BEFFF701BE7047142210B50021044657
:104CFC002A3006F02FF800230122C4F8583284F829
:104D0C005C22637010BDF0B54AF6FF7C00260124CE
:104D1C00F3B2994259D91588D2F80230B5F5006F23
:104D2C0012D005EB0C07BFB20C2F15D8A5F5A0457A
:104D3C00013D0C2D10D8DFE805F012161A1E222C9E
:104D4C0030340F383C404400002BB9BF436480F82A
:104D5C002B40036480F82A4001360632D8E7C3643E
:104D6C0080F82D40F8E7036580F82E40F4E74365A2
:104D7C0080F82F40F0E7836580F83040ECE7DD00E9
:104D8C0047BFC0F88C3080F83D40C36580F8314097
:104D9C00E2E7036680F83240DEE7436680F8334092
:104DAC00DAE7836680F83440D6E7036780F836404C
:104DBC00D2E7436780F83740CEE7836780F8384006
:104DCC00CAE7C36780F83940C6E7F0BD48F20772FE
:104DDC0010B40C88944209D1012242700C794A1DFE
:104DEC000621B4FBF1F110BCFFF78DBF10BC70476E
:104DFC00012343704A1D0979FFF785BF0B68C0F882
:104E0C0090304B68C0F894300B7A80F898300123BE
:104E1C0080F82D3080F8333090F89630DB0980F82C
:104E2C005B327047993001F1280351F8042B9942F9
:104E3C0040F8042BF9D10B8803808B788370704772
:104E4C0010B500F1C40301F1340251F8044B914246
:104E5C0043F8044BF9D1012380F82E3010BDF83003
:104E6C0001F11C0351F8042B994240F8042BF9D1A1
:104E7C000B780370704710B500F2151301F11C028A
:104E8C0051F8044B914243F8044BF9D1012380F8BB
:104E9C00323010BD10B500F2311301F11C0251F883
:104EAC00044B914243F8044BF9D140F20113438572
:104EBC00012380F8303080F8583290F85B3253B9C7
:104ECC0090F85A323BB9D0F83931C0F82032D0F8CA
:104EDC003531C0F81C3210BD0B68C0F867318B88B7
:104EEC00A0F86B31704700F24D1001F1180351F826
:104EFC00042B994240F8042BF9D10B88038070479E
:104F0C0010B500F26D1301F1140251F8044B9142EB
:104F1C0043F8044BF9D1012380F83130D0F89930A3
:104F2C0013F0100308D0D0F89D3013F010031CBF01
:104F3C00D0F8A130C3F3001380F83D3010BD00F25F
:104F4C00811001F1140351F8042B994240F8042B01
:104F5C00F9D10B880380704791F8203030B57BB9BC
:104F6C000B4600F2971201F1340453F8045BA34290
:104F7C0042F8045BF9D11B881380012380F82F3091
:104F8C0091F82030012B0ED100F2CD1301F1340237
:104F9C0051F8044B914243F8044BF9D10A881A801A
:104FAC00012380F8343030BD0B68C0F803324B68F5
:104FBC00C0F807320B7A80F80B32012380F8593293
:104FCC0070470B68C0F80C324B68C0F810320123E4
:104FDC0080F8323070470B68C0F814324B68C0F858
:104FEC001832012380F83630704710B500F507737E
:104FFC0001F13C0251F8044B914243F8044BF9D1B6
:10500C00012380F8303080F85A3210BDF0B50025FD
:10501C0001272C46AB4204D907FA05F63443013577
:10502C00F8E703680C4094401C430460F0BD38B5AD
:10503C00044694F82A50084615B90025284638BD70
:10504C000023627884F82A301AB1236C15460B6061
:10505C00F4E794F8E030022BEFD90A603221D4F84F
:10506C003531002BC8BF5B42B3FBF1F11E2301EBC2
:10507C004101FFF7CBFFD4F8351102231E22C90FD3
:10508C00FFF7C4FFDAE738B5044694F82B5008460E
:10509C0015B90025284638BD0023627884F82B30DA
:1050AC001AB1636C15460B60F4E794F8E030022BF0
:1050BC00EFD93221D4F839310260002BC8BF5B42E2
:1050CC00B3FBF1F11E2301EB4101FFF79FFFD4F875
:1050DC0039311E22002B4FF00203B4BF03211946B5
:1050EC00FFF794FFD6E703462DE9F04793F82D50D0
:1050FC0008463DB1002283F82D205A782AB1154676
:10510C00DB6C0B602846BDE8F08793F80962D3F896
:10511C009010B3F87F41003E18BF012693F85B82D4
:10512C0093F8597201314CB1632CDFBF6422C4EB8C
:10513C0084143134B4FBF2F4C8BF3F24B3F91331F7
:10514C00002B42D0642293FBF2F3522BA8BF5223C4
:10515C00132BB8BF1323A3F113094FF0000A052337
:10516C005246C0F800A0FFF751FF5146022305221A
:10517C00FFF74CFF414601230722FFF747FF0123AE
:10518C000822FFF743FF514601230922FFF73EFF98
:10519C0002230A22FFF73AFF01230C22FFF736FF06
:1051AC00394601230D22FFF731FF314601230E2230
:1051BC00FFF72CFF214607231322FFF727FF0623B7
:1051CC001A224946FFF722FF9CE79946C5E70000E3
:1051DC002DE9F84390F82E700D463FB1002341782D
:1051EC0080F82E3029B10F46036D2B603846BDE890
:1051FC00F88390F8E130FF2B03D00F2B28BF0F233F
:10520C00194690F8E030022B03F00309C3F3810830
:10521C0039D90A23B0F8D860D0F8D440B6FBF3F6ED
:10522C001C4B7F2EA8BF7F269C422FDC1A4B9C4226
:10523C002EDB642394FBF3F4002228462A6004231B
:10524C00FFF7E4FE022349460422FFF7DFFE0122AA
:10525C0002213046FBF720FD082301460622284692
:10526C00FFF7D4FE022341460E22FFF7CFFE0222A7
:10527C0020461146FBF710FD0A230146162228464C
:10528C00FFF7C4FEB2E77F260024D5E7034CD3E733
:10529C00034CD1E7C3C9C1003D363EFF18F00100F5
:1052AC00E80FFEFF2DE9F04F90F8303004460E4623
:1052BC0085B023B90027384605B0BDE8F08F002330
:1052CC00477880F8303017B1836D0B60F3E790F8B6
:1052DC005872002FEED0D0F81C02FAF7FDFF6B4984
:1052EC00FBF74EF86A49FBF74BF88246D4F83501C8
:1052FC00FAF7F2FF6549FBF743F86549FBF740F80D
:10530C008146504604F0ECF90090484604F0E8F968
:10531C008046D4F83901FAF7DFFF5C49FBF730F827
:10532C005B49FBF72DF80546D4F82002FAF7D4FFB9
:10533C005649FBF725F85649FBF722F80146284653
:10534C00FAF714FF834604F027FA0190484604F05C
:10535C0023FA0546504604F01FFA0390584604F011
:10536C00BFF9294602900098FBF70AF8039B054603
:10537C0019464046FBF704F8029A1146FBF700F871
:10538C0001462846FAF7F2FE054601994046FAF71F
:10539C00F7FF294604F062FA3E49FAF7F1FF0021C3
:1053AC000546FBF78BF920B128463B49FAF7E0FE9E
:1053BC0005462846FBF7C0F980B2A0F1B4052DB222
:1053CC00002DBCBFB43005B2B5F5B47FA8BFA5F5B0
:1053DC00B47551464846A8BF2DB2FAF7C7FE4FF038
:1053EC007C51FAF7CDFF04F0D7F94FF07C51814690
:1053FC005846FAF7C5FF04F0CFF90146FAF7C0FF9B
:10540C000099FAF7BDFF4146FAF7BAFF49468046C4
:10541C004846FAF7B5FF01464046FAF7A9FE04F0F4
:10542C001FFA4FF0000804F0F1F96423D4F841415D
:10543C001A49C6F8008094FBF3F4FAF7A1FFFBF7C6
:10544C007BF9FAF749FFFBF777F902220321FBF707
:10545C0023FC0C23014642463046FFF7D7FD20467D
:10546C00FAF73AFFFBF768F902220321FBF714FC69
:10547C000D2301460C223046FFF7C8FD03210723FC
:10548C00192295FBF1F1FFF7C1FD14E795BFD63357
:10549C0035FA8E3CE12E65420000B443706D424BF0
:1054AC002DE9F84390F8317004460D463FB10023C6
:1054BC00467880F831302EB13746C36D0B603846D4
:1054CC00BDE8F8831C49D0F87901FAF759FF04F0CC
:1054DC003FF919498146D4F87101FAF751FF04F0EC
:1054EC0037F9B4F97D1180462E60484601EB8104F2
:1054FC00FBF722F901220221FBF7CEFB092301461F
:10550C0032462846FFF782FD4046FBF715F901228B
:10551C000221FBF7C1FB0823014609222846FFF7AD
:10552C0075FD21460B231122FFF770FD01231C2270
:10553C003146FFF76BFDC2E7000020412DE9F8432F
:10554C0090F83D7004460D4647B10023467880F82C
:10555C003D3036B13746D0F88C300B603846BDE85C
:10556C00F8831D49D0F87901FAF70AFF04F0F0F836
:10557C0019498146D4F86D01FAF702FF04F0E8F8F6
:10558C00B4F97D1180462E60484601EB8104FBF78F
:10559C00D3F801220221FBF77FFB09230146324697
:1055AC002846FFF733FD4046FBF7C6F801220221DF
:1055BC00FBF772FB0823014609222846FFF726FD5C
:1055CC0021460B231122FFF721FD01231C22194632
:1055DC00FFF71CFDC2E700BF000020412DE9F84396
:1055EC0090F8327004460D463FB10023467880F89F
:1055FC0032302EB13746036E0B603846BDE8F88367
:10560C00D0F819012149FAF7BBFE2149FAF7B8FE87
:10561C002049FAF7ADFD04F09BF81C498146D4F8FB
:10562C001D01FAF7ADFE1A49FAF7AAFE1A49FAF764
:10563C009FFD04F08DF819498046D4F80C02FAF756
:10564C009FFE04F085F82E6004464846FBF774F87C
:10565C00324601460B232846FFF7D8FC4046FBF7A1
:10566C006BF80A2301460B222846FFF7CFFC204695
:10567C00FBF762F801220321FBF70EFB0B2301461B
:10568C0015222846FFF7C2FCB7E700BFE12E6542A2
:10569C000000A040000061440000E1430000C8424B
:1056AC0038B5034693F83350084615B90022104616
:1056BC0038BD002283F833205A7812B15B6E0B6030
:1056CC00F5E793F85C42611CC9B2042983F85C12BB
:1056DC0003D9012183F85C12E9E7012CE6D193F898
:1056EC00941018230260FFF791FC18220423214622
:1056FC00FFF78CFC2A46DAE738B50446304B821C9F
:10570C0003F1280153F8040B8B4242F8040BF9D136
:10571C0000252B222946C4E9245584F8985004F11D
:10572C00990005F017FB2946342204F1C40005F05A
:10573C0011FB29461D2204F1F80005F00BFB29464C
:10574C001C2204F2151005F005FB29461C2204F25C
:10575C00311005F0FFFA29461A2204F24D1005F01B
:10576C00F9FA29461422C4F86751A4F86B5104F2D3
:10577C006D1005F0EFFA2946162204F2811005F09F
:10578C00E9FA2946362204F2971005F0E3FA294685
:10579C00362204F2CD1005F0DDFA3C222946C4E98C
:1057AC008355C4E98555C4F80352C4F8075284F8EC
:1057BC000B5204F5077005F0CDFA204638BD00BF3A
:1057CC0000AF00082DE9F04F477D037DBF000C466C
:1057DC0047EA931703F03F01837DC57D03F0010277
:1057EC00067E47EA822705F00F02D20142EA5302F5
:1057FC0006F07F031B0143EA1513457E90F81AE06F
:10580C006D0089B045EAD6150EF00306059345EAFE
:10581C004623C67E009306F01F05AD0145EA9E03A4
:10582C00057F90F81EE0ED00019345EA5613457F85
:10583C000EF00706029345EA0623C57F039305F095
:10584C003F06760146EADE0390F8206090F821E0EE
:10585C00B60046EA95160EF0010546EA852690F844
:10586C00225090F8258005F00F0B4FEACB1B4BEA2A
:10587C005E0B90F823E090F813C00EF07F0A4FEA0D
:10588C000A1A4AEA151A90F8245049016D0045EAA3
:10589C00DE1508F0030E45EA4E2590F826E041EAA5
:1058AC00DC010EF01F094FEA891949EA980990F8B2
:1058BC002780807C0CF0070C40EA0C204FEAC808CB
:1058CC0048EA5E18049306920791FAF7C2FF07990B
:1058DC0020800846FAF7BDFF60803846FAF7B9FF1A
:1058EC00069AA0801046FAF7B4FF059BE080184694
:1058FC00FAF7AFFF20810098FAF7ABFF60810198AF
:10590C00FAF7A7FFA0810298FAF7A3FFE0810398AA
:10591C00FAF79FFF20820498FAF79BFF60823046CB
:10592C00FAF797FFA0825846FAF793FFE0825046A9
:10593C00FAF78FFF20832846FAF78BFF60834846DF
:10594C00FAF787FFA0834046FAF783FFE08309B09C
:10595C00BDE8F08F10B50446817339B3144B154A6A
:10596C001A60154B154A1A60FEF7F6FC4FF6FF72DB
:10597C000023A4F82221124A84F88F3084F81A31BB
:10598C0084F8103184F8213184F81131C4F82421C1
:10599C0084F8373184F83A3184F83D3184F83E315B
:1059AC0004F5A070BDE81040FFF79EB910BD00BF14
:1059BC00140000201D440008180000204D4400086D
:1059CC000000C07F10B5847B4CB190F8102102F020
:1059DC00FF0422B1002280F81021FFF7F3FE2046CD
:1059EC0010BD0000837B37B50D462BB3D41FE4B23A
:1059FC001E2C28BF1E240DF107012246FEF7C6FC03
:105A0C000346C8B19DF807101D2905D8082905D8EB
:105A1C0001290FD0052912D000230DE001220B48DB
:105A2C008A4002420DD191040DD412F40072F3D0CD
:105A3C00022200E000222A70184603B030BD012279
:105A4C00F9E78C42E8D30322F5E700BF00002222DD
:105A5C00827B034610B50AB9002010BD90F81121C5
:105A6C0002F0FF00002AF7D00024DA7B83F8114102
:105A7C00C82A0AD15A7C322AEED11A7D102AEBD1CF
:105A8C005B7D052BE8D10C70E7E7EE2AE4D15B7C5B
:105A9C00812BE1D101230B70DFE74A78D52300205D
:105AAC00013A0231FBF7EBB838B504461D46EA2340
:105ABC00084684F89030AB1C114684F891302A4685
:105ACC0084F8920004F1930005F01CF9204604F1CF
