:020000040800F2
:1000000000500020197A0008017A0008037A0008DD
:10001000057A0008077A0008097A00080000000045
:100020000000000000000000000000000B7A000843
:100030000D7A0008000000000F7A0008117A00080D
:10004000617A0008617A0008617A0008617A000824
:10005000617A0008617A0008617A0008617A000814
:10006000617A0008617A0008617A0008617A000804
:10007000617A0008617A0008617A0008617A0008F4
:10008000617A0008617A0008617A0008617A0008E4
:10009000617A0008617A0008617A0008F96B00084B
:1000A000617A0008617A0008617A0008617A0008C4
:1000B000617A0008617A0008617A0008617A0008B4
:1000C000617A0008617A0008617A0008617A0008A4
:1000D000617A0008293C0008811A0008011D000807
:1000E000617A0008617A0008617A00080000000067
:1000F0000000000000000000000000000000000000
:0C01000000000000000000005FF808F1A3
:10010C0010B5054C237833B9044B13B10448AFF345
:10011C0000800123237010BD90000020000000001F
:10012C001CA4000808B5034B1BB103490348AFF3EB
:10013C00008008BD00000000940000201CA40008F2
:10014C0010F8012B11F8013B012A28BF9A42F7D075
:10015C00D01A7047034613F8012B002AFBD1181A4A
:10016C000138704780F0004002E000BF81F0004190
:10017C0042001FBF5FEA410392EA030F7FEA226C41
:10018C007FEA236C6AD04FEA1262D2EB1363C1BFD1
:10019C00D218414048404140B8BF5B42192B88BF40
:1001AC00704710F0004F40F4000020F07F4018BF63
:1001BC00404211F0004F41F4000121F07F4118BF83
:1001CC00494292EA030F3FD0A2F1010241FA03FC2B
:1001DC0010EB0C00C3F1200301FA03F100F0004313
:1001EC0002D5494260EB4000B0F5000F13D3B0F1DB
:1001FC00807F06D340084FEA310102F10102FE2A4A
:10020C0051D2B1F1004F40EBC25008BF20F00100B9
:10021C0040EA03007047490040EB0000013A28BF58
:10022C00B0F5000FEDD2B0FA80FCACF1080CB2EBDB
:10023C000C0200FA0CF0AABF00EBC2505242184359
:10024C00BCBFD0401843704792F0000F81F40001FE
:10025C0006BF80F400000132013BB5E74FEA4103D1
:10026C007FEA226C18BF7FEA236C21D092EA030F3D
:10027C0004D092F0000F08BF0846704790EA010FB7
:10028C001CBF0020704712F07F4F04D1400028BFE4
:10029C0040F00040704712F100723CBF00F50000C6
:1002AC00704700F0004343F0FE4040F400007047FC
:1002BC007FEA226216BF08467FEA236301464202A8
:1002CC0006BF5FEA412390EA010F40F480007047BB
:1002DC004FF0000304E000BF10F0004348BF404261
:1002EC005FEA000C08BF704743F0964301464FF09D
:1002FC0000001CE050EA010208BF70474FF00003F9
:10030C000AE000BF50EA010208BF704711F0004339
:10031C0002D5404261EB41015FEA010C02BF844609
:10032C000146002043F0B64308BFA3F18053A3F568
:10033C000003BCFA8CF2083AA3EBC25310DB01FAAF
:10034C0002FC634400FA02FCC2F12002BCF1004F33
:10035C0020FA02F243EB020008BF20F001007047C4
:10036C0002F1200201FA02FCC2F1200250EA4C0018
:10037C0021FA02F243EB020008BF20EADC7070475E
:10038C004FF0FF0C1CEAD0521EBF1CEAD15392EA6C
:10039C000C0F93EA0C0F6FD01A4480EA010C400248
:1003AC0018BF5FEA41211ED04FF0006343EA5010A2
:1003BC0043EA5111A0FB01310CF00040B1F5000FE4
:1003CC003EBF490041EAD3715B0040EA010062F193
:1003DC007F02FD2A1DD8B3F1004F40EBC25008BF7D
:1003EC0020F00100704790F0000F0CF0004C08BF9B
:1003FC0049024CEA502040EA51207F3AC2BFD2F168
:10040C00FF0340EAC250704740F400004FF0000375
:10041C00013A5DDC12F1190FDCBF00F000407047AF
:10042C00C2F10002410021FA02F1C2F1200200FAED
:10043C0002FC5FEA310040F1000053EA4C0308BFB4
:10044C0020EADC70704792F0000F00F0004C02BF05
:10045C00400010F4000F013AF9D040EA0C0093F080
:10046C00000F01F0004C02BF490011F4000F013BDA
:10047C00F9D041EA0C018FE70CEAD15392EA0C0F48
:10048C0018BF93EA0C0F0AD030F0004C18BF31F0B3
:10049C00004CD8D180EA010000F00040704790F089
:1004AC00000F17BF90F0004F084691F0000F91F02D
:1004BC00004F14D092EA0C0F01D142020FD193EAF3
:1004CC000C0F03D14B0218BF084608D180EA01007B
:1004DC0000F0004040F0FE4040F40000704740F057
:1004EC00FE4040F4400070474FF0FF0C1CEAD05225
:1004FC001EBF1CEAD15392EA0C0F93EA0C0F69D081
:10050C00A2EB030280EA010C49024FEA402037D0EB
:10051C004FF0805343EA111143EA10130CF00040E2
:10052C008B4238BF5B0042F17D024FF4000C8B42D2
:10053C0024BF5B1A40EA0C00B3EB510F24BFA3EBB2
:10054C00510340EA5C00B3EB910F24BFA3EB910382
:10055C0040EA9C00B3EBD10F24BFA3EBD10340EADC
:10056C00DC001B0118BF5FEA1C1CE0D1FD2A3FF622
:10057C0050AF8B4240EBC25008BF20F001007047D7
:10058C000CF0004C4CEA50207F32C2BFD2F1FF037A
:10059C0040EAC250704740F400004FF00003013AAB
:1005AC0037E792F0000F00F0004C02BF400010F44F
:1005BC00000F013AF9D040EA0C0093F0000F01F063
:1005CC00004C02BF490011F4000F013BF9D041EA85
:1005DC000C0195E70CEAD15392EA0C0F08D14202B8
:1005EC007FF47DAF93EA0C0F7FF470AF084676E78B
:1005FC0093EA0C0F04D14B023FF44CAF08466EE764
:10060C0030F0004C18BF31F0004CCAD130F0004231
:10061C007FF45CAF31F000437FF43CAF5FE700BF89
:10062C004FF0FF3C06E000BF4FF0010C02E000BFB2
:10063C004FF0010C4DF804CD4FEA40024FEA410354
:10064C007FEA226C18BF7FEA236C11D001B052EA0A
:10065C00530C18BF90EA010F58BFB2EB030088BFD0
:10066C00C81738BF6FEAE17018BF40F0010070473F
:10067C007FEA226C02D15FEA402C05D17FEA236C21
:10068C00E4D15FEA412CE1D05DF8040B704700BF68
:10069C00844608466146FFE70FB5FFF7C9FF0028FF
:1006AC0048BF10F1000F0FBD4DF808EDFFF7F4FF38
:1006BC000CBF012000205DF808FB00BF4DF808EDD1
:1006CC00FFF7EAFF34BF012000205DF808FB00BFF4
:1006DC004DF808EDFFF7E0FF94BF012000205DF816
:1006EC0008FB00BF4DF808EDFFF7D2FF94BF0120C7
:1006FC0000205DF808FB00BF4DF808EDFFF7C8FFC0
:10070C0034BF012000205DF808FB00BF4FEA400217
:10071C004FEA41037FEA226C02D15FEA402C08D1F8
:10072C007FEA236C02D15FEA412C02D14FF000002A
:10073C0070474FF0010070474FEA4002B2F1FE4F94
:10074C000FD34FF09E03B3EB12620DD94FEA002387
:10075C0043F0004310F0004F23FA02F018BF404260
:10076C0070474FF00000704712F1610F01D1420247
:10077C0005D110F0004008BF6FF0004070474FF0FB
:10078C000000704742000ED2B2F1FE4F0BD34FF077
:10079C009E03B3EB126209D44FEA002343F00043EB
:1007AC0023FA02F070474FF00000704712F1610F0E
:1007BC0001D1420202D14FF0FF3070474FF00000E0
:1007CC00704700BF7F2807D0002807DA10F1800F90
:1007DC0006D04042C0B270470020704701207047DD
:1007EC007F20704710B1404240B270477F20704765
:1007FC007F280FD010F1310F0EDA10F1780F0DDBCE
:10080C00FE23783040B2584346232330B0FBF3F03C
:10081C00C0B27047FF207047FE2070470020704721
:10082C00012805DD40F2FE73984203DC80B270476C
:10083C000120704740F2FF70704740F2AE73A0F594
:10084C007870C0EBC02090FBF3F000F58060FFF7F0
:10085C00E7BFFFF7F2BF032812DD0C2812DD0F28CB
:10086C0012DD122812DD162812DD192812DD1C28C3
:10087C0012DD1F2812DD2128CCBFFF200620704777
:10088C0000207047012070470220704708207047F5
:10089C0003207047072070470420704705207047DD
:1008AC00022806D0012806D0002814BFFF20012002
:1008BC007047132070471F207047022807D001286B
:1008CC0004D0002814BFFF20052070470320704778
:1008DC007F281ABF4042C0B20020704770B55F2419
:1008EC000C4D421E411D12F8013FA3F16106192E59
:1008FC000AD95F2B08D0233BDBB2162B03D825FA81
:10090C0003F3DB0700D414708A42ECD1002383710B
:10091C0070BD00BF01EC7F0070B5411D451E012468
:10092C000020282615F8012FA2F16103DBB2192B48
:10093C0006D9A2F13003092B0AD8A2F11603DBB2B7
:10094C00A3FB04321818A942A4FB0643EAD170BDDC
:10095C005F2A08D0232A08D02D2A08D02E2A14BFAB
:10096C0000232723ECE72423EAE72523E8E72623C3
:10097C00E6E770B50446FFF7EDFB002382B2561E86
:10098C0098B2B04204EB000103DA255C0133302D40
:10099C00F6D0121A01322046BDE8704009F05ABC5C
:1009AC002DE9F0470C4692B0154600211A469846A0
:1009BC00074609F069FC00211E220AA8099109F0DA
:1009CC0063FCDFF87C90DFF87CA004EB4505AC42BF
:1009DC0026D047F6FF7334F9020B984220D000283A
:1009EC0012DC514601A809F066FC09A8FFF7B2FB1E
:1009FC00064601A8FFF7AEFB0644B045E7D301A9B4
:100A0C0009A809F049FCE2E701A980B207F004FE4D
:100A1C0001A8FFF7AEFF494601A809F03DFCE4E749
:100A2C0009A8FFF797FB20B1002212AB034403F88F
:100A3C00252C384609A909F03EFC12B0BDE8F08718
:100A4C0061A400085CA40008F0B589B06D460024D0
:100A5C002F468E1CE1B28A4205D936F82410013497
:100A6C0025F8021BF6E73946FFF79AFF09B0F0BDEF
:100A7C0042F21073B0FBF3F2642103FB1200B0FBE3
:100A8C00F1F301FB130000EB023000EB831080B29A
:100A9C00704742F21071020B00F03F0301FB02336E
:100AAC006422C0F3851002FB0030704770B50D4610
:100ABC0000210446164609F0E7FB00239AB2964241
:100ACC0004D9EA5C12B1E2540133F7E770BD70B59A
:100ADC000E46144600210132054609F0D5FB0023D1
:100AEC009AB2944204D9F25C12B1EA540133F7E79A
:100AFC0070BD30B50023044698B290420ED2E55C2E
:100B0C00C85C1DB9B0FA80F0400930BD0028FCD09B
:100B1C00854203F10103EFD00020F6E70120F4E752
:100B2C0002680449044B01FB023323F000430360C9
:100B3C00180C7047FD430300C39E2600F0B595B01A
:100B4C000160044650220021684609F09DFB0025F7
:100B5C000126627DAA4247D92046FFF7E1FF67795B
:100B6C0000217B1B90FBF3F2EC4602FB13000A46C0
:100B7C00C0B2CBB29F420AD91CF801EBBEF1000FF8
:100B8C0003D1824204D00132D2B20131F1E7002309
:100B9C0000221146277BD0B2874206D92069805C9F
:100BAC000132984208BF0121F5E70029D1D1611922
:100BBC0025B191F9152082B9012BCAD98B75A26880
:100BCC0052F8231005F10E0244F8221014AA134413
:100BDC00013503F8506CEDB2BBE7501E8342EDDBE0
:100BEC0001329342EADCB4E70023802104F1B8001F
:100BFC00237515B0BDE8F04009F046BB0023C0E9F1
:100C0C00013370470A2310B58380036804469B6840
:100C1C0098472368E080DB6820469847A06010BDA9
:100C2C00836870B5002B04461CDD838843B1013BFF
:100C3C009BB28380B3B903681B68BDE8704018474A
:100C4C000368DB689847236805469B6820469847ED
:100C5C00E388C01A281A0028A06003DD2368204608
:100C6C005B68EAE770BD0823484010F0800F4FEA3C
:100C7C00400018BF5040013BC0B2F6D1704770B570
:100C8C000C461D468E18B44205D02A4614F8011B9A
:100C9C00FFF7E9FFF7E770BD10B50446022980EABB
:100CAC00E070A0EBE47068D15AB9002CACBF7F2384
:100CBC003F239842A8BF1846002C01DA40F04000B0
:100CCC0010BD012A1AD1632805DC4000002CF7DA8C
:100CDC0040F48070F4E740F2F54398420CDCFFF7E7
:100CEC00F7FA5749FFF74CFB07F0CCFFFFF74AFD2B
:100CFC00400040F00100E9E7FF20E7E7022A40F05E
:100D0C009C80632805DC8000002CD9DA40F400704C
:100D1C00D6E7B0F57A7F0CDAFFF7DAFA4849FFF735
:100D2C002FFB07F0AFFFFFF72DFD800040F0010017
:100D3C00EAE742F20F7398420CD8FFF7C9FA41491F
:100D4C00FFF71EFB07F09EFFFFF71CFD800040F035
:100D5C000200D9E73C4B98420CD8FFF7B9FA3B4953
:100D6C00FFF70EFB07F08EFFFFF70CFD800040F045
:100D7C000300C9E740F2FF10C6E703295DD1012A41
:100D8C001BD1B0F57A7F05DA4000002C98DA40F4DC
:100D9C00006095E7B0F5205F0CDAFFF799FA284967
:100DAC00FFF7EEFA07F06EFFFFF7ECFC400040F0A7
:100DBC000100EAE740F2FF70E7E7022A3DD1B0F507
:100DCC007A7F06DA8000002CBFF67AAF40F48050B0
:100DDC0076E742F20F7398420CDCFFF779FA184968
:100DEC00FFF7CEFA07F04EFFFFF7CCFC800040F087
:100DFC000100E8E7164B98420CD8FFF769FA114945
:100E0C00FFF7BEFA07F03EFFFFF7BCFC800040F096
:100E1C000200D8E7B0F57A2F0CD2FFF759FA0B493C
:100E2C00FFF7AEFA07F02EFFFFF7ACFC800040F0A6
:100E3C000300C8E740F6FF70C5E7002040E700BF9D
:100E4C00CDCCCC3D0AD7233C17F001006F12833A6E
:100E5C009F860100FF2303710023C3800372704738
:100E6C0010B4047903468C4203D0017119B10129E5
:100E7C0001D010BC70471B6810BCDB68184770476A
:100E8C007047704700207047002070477047002063
:100E9C0070470000054B82B0DA690243DA61DB6906
:100EAC0018400190019B02B0704700BF0010024037
:100EBC00054B82B09A6902439A619B691840019074
:100ECC00019B02B0704700BF0010024000F10C0300
:100EDC0053E8003F43F0200300F10C0141E80032DD
:100EEC00002AF3D1704700F10C0353E8003F43F0A4
:100EFC00800300F10C0141E80032002AF3D1704765
:100F0C0000F10C0353E8003F23F0800300F10C01C7
:100F1C0041E80032002AF3D1704700000B4B0C4A19
:100F2C001B6830B4A2FB03239B0C00FB03F2094D9E
:100F3C0002F5FA72A5FB0232074992094C684B681C
:100F4C001B1B9342FBD330BC704700BF1C0000201E
:100F5C0083DE1B43D34D6210001000E00288514029
:100F6C0081EA0111C9B20B0983EA122343EA012376
:100F7C0083EAC1010180704738B50C468D18AC422C
:100F8C0004D014F8011BFFF7E9FFF8E738BD4FF662
:100F9C00FF7337B50446ADF806304518AC4206D0A1
:100FAC0014F8011B0DF10600FFF7D8FFF6E7BDF8AA
:100FBC00060003B030BD0000054B064A1B68B3FBAE
:100FCC00F2F34B430361044B5B684361704700BF12
:100FDC001C00002040420F00001000E008B59620D5
:100FEC00FFF79CFF4FF48052034B32205A61BDE84F
:100FFC000840FFF793BF00BF000C014008B532203A
:10100C00FFF78CFF4FF48052034B64201A61BDE84C
:10101C000840FFF783BF00BF000C01406421D0E9FA
:10102C000123D31AC3604B430349C98A8260B3FBC3
:10103C00F1F30374704700BFAC000020D0E901232A
:10104C00D31AC0E902237047044B1888044B80B2B2
:10105C001B889BB2C01A18BF01207047A223002026
:10106C00A02300200023044A1380044A1380044A5E
:10107C001380044A13807047A0230020A223002071
:10108C00A4270020A62700207047002070470020CE
:10109C007047704700207047002070470020704751
:1010AC007047012070470023A0F86A32A0F868321C
:1010BC0070470023A0F85A32A0F858327047037AD0
:1010CC003BB18389D31A9BB2B3F5FA7F84BF00235B
:1010DC000372037A8281082B0FD8DFE803F0050E28
:1010EC000E0E0E0E0F172200EE2901D0C82904D1C6
:1010FC00012383720623C17303727047837A5A1CCF
:10110C0003448272D97307234172F5E7827A531C28
:10111C00DBB202448372D173427A9A42EDD2082335
:10112C00EAE7837A5A1C03448272D973437C162BE8
:10113C004FF001030CBF80F8103180F811310923F6
:10114C00DAE790F88F00B0FA80F0400970477047EA
:10115C00014B586A80B2704700040040B0F862201E
:10116C0010B5B0F86640531C2340B0F864409C4264
:10117C001EBF121882F86810A0F8623010BDA0F1E2
:10118C001000EBE7B0F86A32B0F86822D21A93B2CA
:10119C00120441BFB0F86C0201301B189BB2181E30
:1011AC0018BF01207047A0F11000EBE70346B0F820
:1011BC006A22B0F8681291421FBF811891F86E0232
:1011CC00B3F86C1201321ABF0A40A3F86A2200204D
:1011DC007047A0F11000E9E738B50C464A780C319D
:1011EC00054609F029F86078352807D8C0F1360291
:1011FC0000212844BDE8384009F046B838BD38B560
:10120C000C464A780C31054609F016F860781B2814
:10121C0007D8C0F11C0200212844BDE8384009F071
:10122C0033B838BD38B50C464A780C31054609F050
:10123C0003F86078082807D8C0F109020021284477
:10124C00BDE8384009F020B838BD38B50C464A78AE
:10125C000C31054608F0F0FF6078072807D8C0F17C
:10126C00080200212844BDE8384009F00DB838BD0B
:10127C00036953B1054A416953685B1A01698B4292
:10128C0001D200BFF7E7002303617047001000E0B4
:10129C006FF0200301480360FFF718BE00380140CF
:1012AC0008B5FFF7F5FF0022014B1A7208BD00BF0D
:1012BC00680B002008B5FFF7EBFF0022014B1A72F8
:1012CC0008BD00BF7C020020028810B58488531C26
:1012DC00234044889C421EBF12189171038010BD9C
:1012EC007047704738B504464D1E15F8011F21B1E3
:1012FC00236820469B689847F7E738BD08B5FFF789
:10130C00F1FF08BD0120FFF7D3BD00000D4B984243
:10131C0002D10420FFF7CCBD0B4B984205D003F54E
:10132C008063984203D11020F4E70820F2E7074BC2
:10133C00984201D12020EDE7054B984200D0704730
:10134C004020E7E700080140000C01400014014078
:10135C00001801400B4B984203D14FF40060FFF78B
:10136C00A7BDB0F1804F04D0074B984204D10220A6
:10137C0000E00120FFF78EBD044B984201D1042000
:10138C00F8E77047002C01400004004000080040C2
:10139C002DE9F0410C46154686B007461022002177
:1013AC0002A81E469DF8348008F06EFF01940B2DA8
:1013BC0007D8DFE805F00E0E070A141414161616DB
:1013CC001B1DFEE70823029303E00823029301236D
:1013DC000593032E0ED8DFE806F00E1E200E012317
:1013EC00F1E70123029304230493F2E70923EAE7CC
:1013FC000923F7E7FEE703230393B8F1000F02D0AC
:10140C003846FFF783FF053D042D0BD8DFE805F0C8
:10141C0007110A0711000223EEE70123ECE7C4F3DE
:10142C000F247C61384601A906F0E2FE06B0BDE847
:10143C00F081C4F30F243C61F4E713B54FF0010CB9
:10144C000024CDE9004CFFF7A3FF02B010BD000053
:10145C0070B50446164686B00D461422002101A82C
:10146C0008F012FF2046FFF775FF042E04D8DFE8C2
:10147C0006F02A2E04323B00FEE71C4B1C4A1B686C
:10148C00B3FBF2F39BB20022013B204601A9ADF85D
:10149C000430CDE902250492059206F0BBFF2368C7
:1014AC0023F080032360A36823F4804323F0070315
:1014BC00A360636823F070036360A36823F0800368
:1014CC00A36006B070BD094B0A4A1B68D8E7074BEE
:1014DC00094A1B68D4E7054B064A1B68B3FBF2F3B9
:1014EC0003EB83035B00CDE70123CCE71C0000205A
:1014FC0080A8120140420F0000127A0010B5044679
:10150C00FFF7A6FF236843F00103236010BD002200
:10151C004FF0FF31FFF7F2BF10B50E4C03232046FE
:10152C00052241F21001FFF788FF20460323062213
:10153C000949FFF782FF20460323062240F60801E3
:10154C00FFF77BFF2046BDE810400323022203492E
:10155C00FFF773BF000C01400200020401000104FC
:10156C0013480F22036992FAA2F20121B2FA82F215
:10157C0023F00F0301FA02F2134303610D4B5A6877
:10158C0022F480725A601A6822F480721A60DA6847
:10159C0022F48072DA609A6842F480729A60D022E7
:1015AC00054B83F817234FF400021A60704700BFF5
:1015BC00000001400004014000E100E04FF48072A3
:1015CC00034B5A611A6842F480721A60704700BF6C
:1015DC00000401400023032240F201110148FFF7EF
:1015EC002CBF00BF000C0140024B9868C04300F0B8
:1015FC0001007047000C014038B5134D134C00230B
:10160C00062248F280012846FFF717FF0023062226
:10161C0028460F49FFF711FF0023062240F2022152
:10162C002046FFF70AFF0023062240F20441204621
:10163C00FFF703FF80232B614FF400432B6104233E
:10164C0023610223236138BD00080140000C0140D6
:10165C00800080040549CB681A04DB4302F40002C5
:10166C0003F0800313430B61704700BF0008014077
:10167C000549CB681A04DB4302F0004203F4004333
:10168C0013430B61704700BF0008014010B50F4CAD
:10169C0000232046032240F20111FFF7CEFE204624
:1016AC000023032240F20221FFF7C7FE204600234D
:1016BC00032241F21001FFF7C0FE2046BDE81040A6
:1016CC000023032242F22001FFF7B7BE00080140BD
:1016DC000C4BD3F8FC2022F08072C3F8FC20D3F81A
:1016EC00FC2042F08072C3F8FC20A3F55D431A681D
:1016FC0022F001021A601A6842F001021A600022FC
:10170C005A60704700ED00E0064B074A1B6807491A
:10171C00B3FBF2F3434310B54C684A68121B9A4270
:10172C00FBD310BD1C00002040420F00001000E055
:10173C002DE9F04180464CF250300D4616461C46C1
:10174C0006F062FA68BBB8F1010F06D0B8F1020FCF
:10175C000CBF4FF002084FF004080027124A13691F
:10176C0043F0010313613801C0F12002A0F1200302
:10177C0004FA02F226FA00F0104324FA03F3184399
:10178C0080B225F817004CF2503006F03DFA18B92B
:10179C000137FBB24345E6D3034A136923F0010337
:1017AC001361BDE8F08100BF002002407FB501232A
:1017BC000022CDE9040301A902A8CDE9022306F019
:1017CC005FFA00280CBF0420052007B05DF804FB6D
:1017DC000A4608B5014600230220FFF7A9FF00289E
:1017EC000CBF0420052008BD08B5FFF7DFFF031F61
:1017FC005842584108BD08B5FFF7EAFF031F58428D
:10180C00584108BD2DE9F047254B264D01280FBF47
:10181C003D263C26AA461D460F4614462249234A1D
:10182C0006BF89469A46914606F0D2F931462846BB
:10183C00FFF7DAFF10B3002F08BF4FF478744FF0A6
:10184C0000080334A40805F11006AAEB050A1FFAD8
:10185C0088F39C4218D93FB95AF806104B1C06D194
:10186C0008F101080436F2E757F82810F6E74E4560
:10187C0013D23046FFF7BFFF0028F1D1002406F049
:10188C00B9F92046BDE8F0874FF011312846FFF733
:10189C00B2FF0028F2D00424F1E70324EFE700BFE5
:1018AC0000F0000800F40008FFF70008FFF3000840
:1018BC0010B506F08DF93C210748FFF795FF20B1D4
:1018CC003D210648FFF790FF20B9002406F092F95D
:1018DC00204610BD0424F9E700F0000800F40008CD
:1018EC00002330B5074A084D9CB2A14206D99C187A
:1018FC00AC4205D09C5CC4540133F5E7042030BDE8
:10190C000320FCE710F00008FFF3000838B504468C
:10191C000D4672B60A4601460020FFF773FF62B609
:10192C00042806D172B601202A462146FFF76AFF29
:10193C0062B638BD38B5124B1C68D3F80054B4F1FC
:10194C00113F09D1B5F1113F17D0002201201146EA
:10195C00BDE83840FFF756BFB5F1113F03D1002267
:10196C0011461046F4E7FFF7A3FF042804D12C40DE
:10197C0001340CBF0220012038BD0420FCE700BF5D
:10198C0000F00008034B18739A68D207FCD5187B3B
:10199C00704700BF0038004038B5441E8D18A9426E
:1019AC0006D014F8010FFFF7EDFF01F8010BF6E775
:1019BC0038BD084611461A46FFF7EEBF70B58CB01D
:1019CC00274C2822002102A808F05EFCFFF79AFCA5
:1019DC004FF48040FFF75EFA22492046032306228B
:1019EC00FFF72BFD062501264FF48053204623617B
:1019FC000A2203231C49CDE90056FFF7C9FC2046F7
:101A0C0003230A221949CDE90056FFF7C1FC032331
:101A1C0020461A461649CDE90056FFF7B9FC0822B4
:101A2C00002308924FF48272CDE90533CDE90933D6
:101A3C000293039204934FF400720723A4F55444C9
:101A4C00204602A90B93079206F0B8FC236843F0DA
:101A5C0040032360A3689B07FCD5237B0CB070BDAF
:101A6C00000C0140100010042000200480008004B1
:101A7C0040004004194B10B41A6890060ED5184C4F
:101A8C0018485968238800880133C3F30A0380B2CD
:101A9C0098421FBF1448C9B2C1542380110744BFD8
:101AAC000E4B5B68130613D5104B114A198813881B
:101ABC0089B29BB299420DD013880133C3F3090349
:101ACC00138013880B4A9BB2D35C044ADBB253607D
:101ADC0010BC7047014810BCFFF712BA004400401C
:101AEC00A2230020A0230020A01B0020A62700205A
:101AFC00A4270020A42300200A490B4A08B50B8810
:101B0C0012880133C3F3090392B29A4207D0074AF1
:101B1C00D05407480B80FFF7E6F9012008BD0020E0
:101B2C00FCE700BFA6270020A4270020A423002048
:101B3C00004400400846FFF7DFBF0000054B064A93
:101B4C001B8812889B1A98B21B0444BF00F50060D6
:101B5C0080B27047A2230020A0230020FFF7EEBF25
:101B6C000848094A0188138889B29BB29942F9D076
:101B7C0013880133C3F30A0313801388034A9BB2FF
:101B8C00D05C7047A2230020A0230020A01B0020C3
:101B9C00FFF7E6BF70B50C4688B006461546002127
:101BAC001C2201A808F070FB01A806F0BDFC002C5B
:101BBC0014BF4FF480530023CDE902350C23049459
:101BCC00084C01960593E368204623F40053E36028
:101BDC0001A906F057FCE36843F40053E36008B036
:101BEC0070BD00BF00440040002208461146FFF7BC
:101BFC00D1BF0000F0B5082601272F4C8BB0E3684D
:101C0C002E4D23F40053E360FFF77CFB4FF40030C0
:101C1C00FFF740F940F20441284603230A22CDE99C
:101C2C000067FFF7B5FB032328461A4640F6080168
:101C3C00CDE90067FFF7ACFB1822002104A808F0DF
:101C4C0023FB4FF4964303930C2320460DEB030127
:101C5C00079306F017FCB0222369204623F4904327
:101C6C002361636923F02A036361154B83F82623F0
:101C7C0040225A60FFF744F96FF0400323600024C0
:101C8C00104B1C80104B1C806FF020030360FFF77F
:101C9C001DF90E4B1C800E4B1C80036923F49043E2
:101CAC000361436923F02A034361C36843F400537F
:101CBC00C3600BB0F0BD00BF004400400008014001
:101CCC0000E100E0A4270020A6270020A02300208C
:101CDC00A223002008B5FFF78DFF6FF02003034807
:101CEC000360BDE80840FFF7F1B800BF00440040B6
:101CFC00FFF7F0BF0D4803681B0615D50C4B0D4ABA
:101D0C001988138889B29BB299420BD0138801337E
:101D1C00C3F3080313801388074A9BB2D35CDBB26E
:101D2C0043607047FFF7ECB8704700BF00480040B5
:101D3C00AA290020A8290020A82700200A490B4A1C
:101D4C0008B50B8812880133C3F3080392B29A4288
:101D5C0007D0074AD05407480B80FFF7C4F801207E
:101D6C0008BD0020FCE700BFAA290020A8290020FC
:101D7C00A8270020004800400846FFF7DFBF0000FE
:101D8C0010B5264C8AB0E368254923F40053E36070
:101D9C00FFF7B8FA4FF48020FFF77CF808230122F4
:101DAC002048CDE9003203230A22FFF7F1FA18226A
:101DBC00002104A808F068FA4FF4E13303930C23D4
:101DCC0020460DEB0301079306F05CFBF022236920
:101DDC00204623F490432361636923F02A03636153
:101DEC00114B83F8272380225A60FFF789F86FF094
:101DFC004003236000230D4A13800D4A138023698E
:101E0C0023F490432361636923F02A036361E3683D
:101E1C0043F40053E3600AB010BD00BF004800401B
:101E2C0004000404000C014000E100E0A82900209B
:101E3C00AA290020FFF7A4BFF8B5194C194B254669
:101E4C00194F45F8043B78220021284608F01CFA6B
:101E5C002846202303223946FEF7F6FD03250B23E3
:101E6C0002262A463946C4E90A3504F130002023FB
:101E7C00E684FEF7E9FD00230C4904F1620063657A
:101E8C0084F85830E365A4F86030A4F8526008F088
:101E9C0012FA7F2384F8785084F87730F8BD00BFAD
:101EAC00340100200100FFFF4CAF000895A400088E
:101EBC0010B5124C124904F1160008F0FCF94FF45D
:101ECC008071104A0123C4E90A1240F201116377B0
:101EDC00A4F846100023A16440F20321A377C4E9BF
:101EEC001312E38484F83030C4F83A30C4F83E302E
:101EFC00C4F8423084F8543010BD00BFCC00002030
:101F0C0066A400080300010010B5984C04F11600FB
:101F1C00FEF7E4FC637F022B84BF00236377944BB2
:101F2C00617F1A880A4112F0010208BF6277A27F12
:101F3C00022A84BF0222A277A17F5A880A41D007C5
:101F4C005CBF0222A27794F84A20022A84BF0222A4
:101F5C0084F84A2094F84B20022A84BF002284F88B
:101F6C004B2094F84B10DA8C0A41D1075CBF01224C
:101F7C0084F84B2094F84C20032A84BF002284F868
:101F8C004C2094F84C101A8D0A4112F0010208BF33
:101F9C0084F84C2094F84E20012A84BF002284F847
:101FAC004E2094F84E105A8D0A4112F0010208BFCF
:101FBC0084F84E2094F84F20022A84BF002284F823
:101FCC004F2094F84F109A8D0A4112F0010208BF6D
:101FDC0084F84F2094F84D20022A84BF002284F804
:101FEC004D2094F85020052A84BF032284F85020F9
:101FFC0094F85120012A84BF002284F8512094F8CF
:10200C005220042A84BF002284F8522094F85320D2
:10201C00022A84BF002284F8532094F85310DA8DDE
:10202C000A4112F0010208BF84F8532094F854209E
:10203C005049022A84BF002284F85420E26C22F416
:10204C007F0222F47F428A4204BF002284F84C2093
:10205C0094F82620022A84BF022284F8262094F8C1
:10206C002720022A84BF002284F8272094F8271006
:10207C00B3F852200A41D2075CBF012284F8272012
:10208C0094F82820022A84BF002284F8282094F88F
:10209C002920022A84BF002284F8292094F82910D0
:1020AC00B3F854200A4112F0010208BF84F8292029
:1020BC0094F82A20082A84BF002284F82A2094F855
:1020CC002B20B3F85630042A84BF002284F82B202E
:1020DC0094F82F20012A84BF002284F82F2094F832
:1020EC002F20134113F0010308BF84F82F30002375
:1020FC001946214A12F9010B10F1780F02DA02F895
:10210C00011C01E07828FADC0133DBB20C2BF1D195
:10211C0000230121194A12F8010B01330228DBB20A
:10212C0088BF02F8011C042BF5D1104B93F82C201E
:10213C00052A84BF032283F82C2093F82D20012A32
:10214C0084BF002283F82D2093F82E20042A84BF0C
:10215C00002283F82E20012283F8312093F83020BE
:10216C00022A84BF002283F8302010BDCC0000204E
:10217C0034010020030000010601002012010020A0
:10218C000B4B0128187008D002280BD078B9094ADB
:10219C0058705A610A229A707047074A58705A61EF
:1021AC000F22F8E7054A58705A611922F3E7FEE747
:1021BC00AC0000201400320020001F00350013007A
:1021CC0037B53D4D3D4C05F11600FEF7A5FB04213E
:1021DC0001900DEB0100FEF7DAFE95F84A20384B22
:1021EC00A08013F82230A87FA3730123A383FFF7E9
:1021FC00C7FFA388A3606B7F012B29D0022B2AD0A9
:10220C005BBB2378012B21D0022B21D013BB1823CD
:10221C00E38040F2EE23E0882383FEF75DF84FF075
:10222C007F51FEF7ADF8FEF7ADFA4FF47A73A28A40
:10223C00C0B2B3FBF2F3A38195F850306083052B49
:10224C002AD8DFE803F00B2326292C2F1223DFE7F3
:10225C000C23DDE7FEE70623DAE7FEE74FF416531F
:10226C0023610023E38395F84F30012B1DD095F8A3
:10227C004C20012A19D095F84C30032B01D10123A5
:10228C00E377A37FABB1E37F9BB1FEE74FF49643BB
:10229C00E6E74FF41643E3E74FF46143E0E74FF40E
:1022AC00E133DDE74FF46133DAE701229342A277A1
:1022BC00E1D103B030BD00BFCC000020AC00002049
:1022CC004CAF00086822FF21014807F0DDBF00BFBA
:1022DC00CC00002068210148FFF718BBCC0000207F
:1022EC0068210148FFF7FCBACC00002008B5FFF7C5
:1022FC00F7FFBDE80840FFF707BE000038B5FFF751
:10230C00E1FFFFF717FB04280CD0FFF7DBFFFFF70B
:10231C0011FB042803D1FFF7E3FF042806D0FFF7D5
:10232C00D1FF03E0FFF7DCFF0428EED1174CA38AA2
:10233C00022B1ED0FFF7BCFD02230125A3822369CB
:10234C001022D82B18BFD823114910481CBF0125C7
:10235C00236107F0B8FF70B110220D490B48FEF74E
:10236C00A5FB08220B490C48FEF7A0FBFFF7B2FFB8
:10237C0003E00025E3E7002DF8D1FFF75DFDFFF743
:10238C00C3FDBDE83840FFF71BBF00BFCC000020E9
:10239C006DA400087EA400082A010020031F152B41
:1023AC00A8BF152323EAE373DBB20B70043313705D
:1023BC00704700000229F7B5054600D9FEE70B4E21
:1023CC000F0106EB0114A3786278F15D846006F0CE
:1023DC00DDFAE37928460193A37922790093E17819
:1023EC00637906F005FB03B0F0BD00BF54C70008CD
:1023FC0010B50446084604F10D0204F10C01FFF778
:10240C00CDFF2046217B2022BDE8104006F054BBB6
:10241C0037B50446012106F08FFA154D20460121EF
:10242C0006F0B3FB2046012106F0C9FB204695F9C6
:10243C000E10FFF7DDFF20466978FFF7BBFF002287
:10244C002046114606F095FA002344F2030220467A
:10245C0000934FF6FF7106F0E7FA20464FF6FF7136
:10246C0006F010FB204603B0BDE8304006F099BBE7
:10247C00AC00002038B5094D00F10D0200F10C0143
:10248C00044695F90E00FFF789FF6A78022A00D9F5
:10249C00FEE7034B03EB0213A36038BDAC00002036
:1024AC0054C7000810B5054CA36813B92046FFF7B4
:1024BC00E1FFA3689868A0F57A7010BD6818002039
:1024CC00836810B504460BB9FFF7D4FFA368B3F9C2
:1024DC000C0010BD012230B5A1F12103C1F1210482
:1024EC0022FA04F44D1E02FA03F32343AA404FF0E0
:1024FC00FF344FF0FF35C0E90223C0E90445C0E9C1
:10250C000623017080F8201030BD002201231146F3
:10251C00F0B5D0E90276D0E904549F4276EB020C78
:10252C000BD303EA050C02EA040E5CEA0E0C1CBF8A
:10253C00013189B2DB185241EFE7D0E90632DB18E2
:10254C0052419F4280F8201076EB02010AD3C0E979
:10255C000632D0E9062325EA020524EA0304C0E981
:10256C000454F0BD01220023C0E90623F1E790F8E2
:10257C00D8302BB103691A78836853F8220070475E
:10258C00037D0E3350F82300704700002DE9F34112
:10259C000446164688469DF824705B22402F4FF067
:1025AC0000011D4628BF402707F06EFE8E4B9B880E
:1025BC0023803278A37862F30203A3707378DB0074
:1025CC0003F0080343EA0811A37803F00703194347
:1025DC00A1707279E37862F30003E370B2796379E6
:1025EC0062F38613637196F90200FEF7EBF8E37859
:1025FC0060F34703E370F278237962F306032371E7
:10260C00337903F00102237903F07F0343EAC21309
:10261C0023713379C3F34502637923F03F031343EA
:10262C006371A37967F34703A3712B78AA78E371DD
:10263C006B7802F01F0203F0070343EAC203237214
:10264C006B88C3F34512637A23F03F031343637221
:10265C002B7903F00302637A03F03F0343EA8213FE
:10266C006372AB88C3F38703A3726B79C3F38002E5
:10267C00E37A23F001031343E372AB7903F07F0297
:10268C00E37A03F0010343EA4203E372EB88C3F3FA
:10269C00C312237B23F00F03134323732B7AAA7AE1
:1026AC00E3736B7A02F01F0203F0070343EAC203E1
:1026BC0023746B89C3F34512637C23F03F031343EC
:1026CC0063742B7B03F00302637C03F03F0343EA48
:1026DC0082136374AB89C3F38703A3746B7BC3F35B
:1026EC008002E37C23F001031343E374AB7B03F020
:1026FC007F02E37C03F0010343EA4203E374EB89BA
:10270C00C3F3C312237D23F00F03134323752B8ACA
:10271C00DB0863756B8ADB08A375AB8ADB08E37592
:10272C00EB8ADB0823762B8BB3F5C06F3AD2B3F56B
:10273C00007F94BF00230123227B63F305122273D5
:10274C006B8BB3F5C06F2FD2B3F5007F94BF002312
:10275C000123227B63F387122273AB8BB3F5C06F1B
:10276C0024D2B3F5007F94BF00230123227D63F3B1
:10277C0005122275EB8BB3F5C06F19D2B3F5007F40
:10278C0094BF00230123227D63F38712089B2275DB
:10279C001F4404F11902BB420CD013F8011B02F8C0
:1027AC00011BF8E70223C7E70223D2E70223DDE788
:1027BC000223E8E74FF6FF7321460DF106000D22C8
:1027CC00ADF80630FEF7D8FB2146BDF806304C229A
:1027DC0021F80D3FFEF7D0FBBDF80630A4F85930B8
:1027EC0002B0BDE8F08100BFAC00002013B59DF82D
:1027FC001040CDE9003413460A460021FFF7C6FE0F
:10280C0002B010BD13B5144B02889B8804469A4243
:10281C001DD1837803F0F003102B01D0202B18D19D
:10282C00A379A52B15D84FF6FF730DF1060059228D
:10283C002146ADF80630FEF79FFBB4F85900BDF801
:10284C000630984214BF0420002002B010BD0120B5
:10285C00FBE70220F9E700BFAC00002030B5324B9B
:10286C00027893F8261000F1170461F3030202704A
:10287C0093F8271061F30712027093F8281042782E
:10288C0061F30302427093F8291061F3071242704E
:10289C0093F82A10827861F30302827093F82B105C
:1028AC0061F30712827093F82C10C27861F3030263
:1028BC00C27093F82D1061F30712C27093F82E10AA
:1028CC00027961F30302027193F82F1061F307127E
:1028DC00027193F83010427961F30302427193F85C
:1028EC00311061F30712427103F13A0100F10B024E
:1028FC0011F9015B02F8015BA242F9D193F8461081
:10290C00C27D61F30102C27593F8471061F3830233
:10291C00C27593F8481061F30512C27593F84930EB
:10292C0063F38712C27530BDCC00002002782F4BA8
:10293C00C2F3030230B583F82620027803F13A0182
:10294C00C2F3031283F82720427800F11704C2F374
:10295C00030283F828204278C2F3031283F829205B
:10296C008278C2F3030283F82A208278C2F303121E
:10297C0083F82B20C278C2F3030283F82C20C27890
:10298C00C2F3031283F82D200279C2F3030283F8F9
:10299C002E200279C2F3031283F82F204279C2F35E
:1029AC00030283F830204279C2F3031283F83120FA
:1029BC0000F10B0212F9015BA24201F8015BF9D1A3
:1029CC00C27DC2F3010283F84620C27DC2F38102AC
:1029DC0083F84720C27DC2F3011283F84820C27DE0
:1029EC00C2F3811283F8492030BD00BFCC00002017
:1029FC001FB58DF80C300123019303AB00931346E4
:102A0C000A460221FFF7C2FD05B05DF804FB000089
:102A1C000123F0B5204D044685F8583085B0B0F848
:102A2C000900FEF736F86E46E865B4F80B30142250
:102A3C0004F10D0105F16200A5F86030FEF747F8CE
:102A4C0094F9213004F1230085F8773094F8223082
:102A5C0004F14E0785F87830FFF768FF04F13E0368
:102A6C00324618685968083303C2BB421646F7D180
:102A7C002023082269460948FDF792FF94F84E304E
:102A8C00A5F8523094F84F30A5F8543094F85030E3
:102A9C00A5F8563005B0F0BD3401002064010020CB
:102AAC002DE9F0434FF0400993B00DF108080546AD
:102ABC000E46174600214A46404607F0E5FB222306
:102ACC00104C062204F116010DF10A008DF80830A5
:102ADC00FDF7ECFFA37F647F0DF1110004F00F04F0
:102AEC0044EA03148DF81040FFF7B8FE3B4632461B
:102AFC0002212846CDE90089FFF748FD13B0BDE857
:102B0C00F08300BFCC00002010B50446FEF786FA17
:102B1C0004F11400FEF782FA04F12800FEF77EFAA5
:102B2C0004F13C00FEF77AFA04F15000FEF786FA45
:102B3C0004F16400FEF782FA10BD000000238380CC
:102B4C0083718381084B094A1B6883601368036196
:102B5C005368074A4361136883615368C3614EF637
:102B6C0060230360704700BFB829002084A40008CC
:102B7C008DA4000810B50D4C0220FFF701FB204678
:102B8C0006F00FF820460021FFF732FC084B2046D8
:102B9C005978FFF70FFC20464FF6FF7105F072FFD6
:102BAC002046BDE8104005F0FCBF00BF68180020AF
:102BBC00AC00002008B5144B02461968FEF714FD52
:102BCC00C8B19368C91AB1F57A6F01D90123537151
:102BDC00137993B10D4B517B1B7819B1022B1CBF90
:102BEC0003211173991E4B424B41537393790BB1D3
:102BFC000323137308BD9160EAE75379002BF9D0D6
:102C0C0001231371F5E700BFB829002075020020DD
:102C1C0008B5037B0246023B012B03D90023107B32
:102C2C00137308BDFEF7E0FC0028F7D00020F8E78E
:102C3C000A4A38B51388044601339BB2502B0D4613
:102C4C0001D8138038BD002305491380FEF74AFBD9
:102C5C0029462046FEF746FBF4E700BF900600200D
:102C6C0099A400081646054680B50F464849FEF75C
:102C7C0039FB31462846FEF735FB0022454B012F28
:102C8C00454C1A8010D180234FF40047236146F243
:102C9C00A8106761FEF738FD2761FEF735FD314658
:102CAC002846FFF7C5FFF2E7022F10D14FF400437F
:102CBC008027236146F2A8106761FEF725FD276186
:102CCC00FEF722FD31462846FFF7B2FFF2E7032F4D
:102CDC0010D180234FF40047636146F2A81067615E
:102CEC00FEF712FD2761FEF70FFD31462846FFF770
:102CFC009FFFF2E7042F10D14FF40043802763614C
:102D0C0046F2A8106761FEF7FFFC2761FEF7FCFC9A
:102D1C0031462846FFF78CFFF2E7052F13D14FF40D
:102D2C000048802746F2A810C4F814806761FEF7AB
:102D3C00EBFCC4F810802761FEF7E6FC3146284610
:102D4C00FFF776FFEEE7062F13D14FF400488027EC
:102D5C0046F2A810C4F814802761FEF7D5FCC4F81D
:102D6C0010806761FEF7D0FC31462846FFF760FF04
:102D7C00EEE74FF400436361802363614CF2503003
:102D8C00FEF7C2FC31462846FFF752FFF6E700BFBC
:102D9C0099A400089006002000080140054A064B43
:102DAC0011681B780B441360044A136801331360D9
:102DBC00704700BFB8290020200000208C0600209E
:102DCC0037B50C461D4668B907480DF106020DF1E2
:102DDC00070105F0BEFE2B4622469DF80610024860
:102DEC0005F066FD03B030BD6818002038B50D46FF
:102DFC001C460146C0B94FF400700C4B18611346C9
:102E0C000B482A4605F02CFD4FF6FF71084805F0DB
:102E1C0039FE22010648012192B205F05DFEBDE8A3
:102E2C0038407D20FEF770BC38BD00BF000C01405F
:102E3C00681800202DE9F0415B270546174C0E461B
:102E4C003A460021204607F01FFA2B6904F10A00CC
:102E5C0023606B69124D6360124B05F116011B78F0
:102E6C009A1E53425341627A63F300026272062245
:102E7C00FDF71CFE237CAA7F592162F30713204621
:102E8C002374FEF784F8084BA4F859003A462146FF
:102E9C003046BDE8F0419B78FFF7A8BF85180020AD
:102EAC00CC00002075020020AC00002028B901F1F4
:102EBC007A020248783105F039BE70476818002054
:102ECC0070B50D460646114C5B232246214628461A
:102EDC00FFF776FFD6E90613206862689A4208BFAE
:102EEC00884211D120465921FEF751F8B4F85940C7
:102EFC00231A5C425C4128460549FFF7D7FF002C9A
:102F0C000CBF0120022070BD0024F4E7C81600207D
:102F1C00E01700200A4608B501460148FFF7A2FE5B
:102F2C00040000200148FEF7F2BA00BF0004004084
:102F3C00F8B505464FF07F301B4B1C4A0024C3E903
:102F4C001E02FF264FF47F420F46C3E90244C3E939
:102F5C000744C3E90C44C3E91144C3E91644C3E96B
:102F6C001B445C601C749C6183F82440DC6283F815
:102F7C0038401C6483F84C405C6583F860409C6668
:102F8C0083F87440A3F88260C3F8842005F108002C
:102F9C0083F88160FFF79EFA394605F13000FFF7A0
:102FAC0099FA2C80AE70F8BDE0170020FFFF7F006F
:102FBC0010B504463030FFF7A8FA04F10800FFF70B
:102FCC00A4FA0E4B1B78022B16D0D4E90E014FF04D
:102FDC00FF324FF0FF33C4E91201C4E91023C4E9F6
:102FEC000623D4E9042394F83010C4E90823237A87
:102FFC0084F8501084F8283010BD00BF75020020F2
:10300C00D0E9062310B5D0E9084122430B43C0E9AF
:10301C000623024A53680133536010BDE0170020A9
:10302C00D0E9102310B5D0E9124122430B43C0E97B
:10303C001023024A93690133936110BDE0170020FD
:10304C00064B1B78022B06D1054B93F84C0001283C
:10305C0038BF012070470020704700BF7502002068
:10306C00E01700202822074B02FB00339B681A78DC
:10307C00542A05D15878A0F178035842584170472A
:10308C000020704758AF00082822074B02FB003382
:10309C009B681A78522A05D15878A0F178035842C7
:1030AC00584170470020704758AF00080378522BE6
:1030BC0005D14078A0F17803584258417047002060
:1030CC007047022801D9FFF7DFBF012070470000CD
:1030DC00292810B42FD82823184C03FB004212794E
:1030EC00042A07D83AB3023A022A05D8DFE802F0DC
:1030FC000F151D00FE2A1ED128234343E358C9B2E5
:10310C001A788A4217D0197010BCFFF7DABF434304
:10311C00E35849B293F90020F3E74343E2588BB2EA
:10312C0014889C4207D01180EEE74343E2580BB25F
:10313C00B2F90040F5E7002010BC704758AF00080A
:10314C00292870B504460D4616D8282343430B4A4C
:10315C00D0180079FF280FD1D65806223046FDF73B
:10316C00C8FC48B9304629460622FDF7B0FC20467B
:10317C00BDE87040FFF7A5BF002070BD58AF000838
:10318C0038B50546044655F8050BFEF7ABF829464D
:10319C002068FEF7A7F838BD38B500250446016055
:1031AC0005710649053007F086F884F88950657278
:1031BC00C4F88C50A4F8905038BD00BF96A40008F9
:1031CC0003798B420DD00129017106D0022906D05A
:1031DC0039B90449053007F06EB80349FAE70349D9
:1031EC00F8E7704796A4000899A4000898A4000872
:1031FC0090F88930642B08D8C2180133DBB25172B5
:10320C0080F8893018440023437270472DE9F04749
:10321C00437A8046702B0F46164690B06FD1837A56
:10322C00202B6CD1C07A06F0FFFF00283DD0002582
:10323C004FF002092C4608F1090A5046FCF78AFFA8
:10324C00814513D208EB09035B7A3D2B0CD0202B64
:10325C0005D010A96A1C0D4405F8403CD5B209F103
:10326C0001035FFA83F9E8E72C46F2E710AB1D4443
:10327C00002305F8403CDCB96846FCF76BFFE5B26F
:10328C00A84207EB050304F1010407D910AB2B444A
:10329C0013F8400C07F0B2F87855EDE700223046F1
:1032AC0018491A7007F007F8012010B0BDE8F08734
:1032BC00E8461D4618F8010B07F0A0F878550135C3
:1032CC00EBB2A342F6D300253D550134E4B2684677
:1032DC00FCF740FF6719FFB2874206EB05080AD2DC
:1032EC0010AB1F4417F8400C07F088F80135EDB20D
:1032FC0088F80000EBE7002388F80030D4E70020C2
:10330C00D3E700BF9BA400082DE9F0430646282014
:10331C001446244A012B00FB012287B0176A03D103
:10332C00214B022908BF1F46FF234FF0000801253F
:10333C008DF800303846FCF70DFF5FFA88F94845E8
:10334C000CD917F809302C2B05D106AB2B440135C1
:10335C0003F8188CEDB208F10108EBE706AB2B442F
:10336C00A54203F8188C04D80020307007B0BDE8D3
:10337C00F08306AB1C44002314F8181C14F9174CEA
:10338C000131C9B25A18D2B2A24206EB030004DAD8
:10339C00BA5C0133DBB20270F4E700230370012046
:1033AC00E4E700BF58AF00089DA400082DE9F041E8
:1033BC0028254D43164E134677193A790446FE2AB2
:1033CC0016D0FF2A1AD0022A1DD17359014693F93F
:1033DC00000005F04AF93D692B783BB10D492046B8
:1033EC0006F05AFF2946204606F056FF01200CE055
:1033FC007259BDE8F0411278FFF786BF0622715969
:10340C00FDF765FBF2E700202070BDE8F08100BFFE
:10341C0058AF0008CAA4000828220B4B70B502FB59
:10342C0000331E6A3046FCF795FE00220446114616
:10343C00D5B24B1CAC42D8B205D9735D01322C2BE2
:10344C0008BF0146F4E770BD58AF00082822054BB1
:10345C0002FB00335B6A0BB1188870474FF6FF70A4
:10346C00704700BF58AF00082DE9F04F0024054607
:10347C000F46A0461D4E93B04FF0000AD6F80890A8
:10348C005FFA84FB5FFA8AF148460191FCF762FE11
:10349C00019912AB88420B4411D919F80100019320
:1034AC0006F0ACFFC0B2202808BF5F22019B0AF1D6
:1034BC00010A14BF03F8400C03F8402CE2E739462C
:1034CC0003F8408C02A8FCF73BFE28B9012085F8D4
:1034DC0000B013B0BDE8F08F01342A2C06F1280699
:1034EC00CAD1002085F80080F3E700BF58AF000870
:1034FC002DE9F0414FF0280800242F4B054608FB1E
:10350C00023898F804300F46FE2B164604701AD079
:10351C00FF2B2FD0022B13D1084606F057FE98F93B
:10352C00183083420CDC98F91C30834208DB4FF0D6
:10353C00000160F307013046FFF7CAFD0124287033
:10354C002046BDE8F081084606F040FE071EF7DB7A
:10355C003046FFF761FFB842F2DD3046FFF776FFE9
:10356C0040FA07F313F0010023D04FF0000167F38A
:10357C000701E0E70846FCF7EDFD0628E0D10F480F
:10358C007A1E791D12F8013FA3F16104192C09D997
:10359C005F2B07D0233BDBB2162B0AD820FA03F3A0
:1035AC00DB0706D58A42EDD139463046FFF7C8FD18
:1035BC00C4E70024C4E700BF58AF000801EC7F004B
:1035CC002DE9FF4728232C4E044603FB0166337973
:1035DC000D46FE2B22D0FF2B4CD0022B1BD196F983
:1035EC00185026490068FDF789FE2846694605F003
:1035FC003CF869462046FFF7C3FD96F91C5020495C
:10360C002068FDF77BFE6946284605F02EF86946D2
:10361C002046FFF7B5FD04B0BDE8F0870846FFF77C
:10362C0015FF00268046DFF85C90DFF85CA0F7B24F
:10363C0001233A4629466846FFF766FE0028EAD081
:10364C00B3B248FA03F3DB0712D549462068FDF7FD
:10365C0049FE206807F130010368C9B29B6898479E
:10366C0051462068FDF73EFE69462046FFF788FD6F
:10367C000136DCE70549CCE758AF0008B9A40008CF
:10368C00C1A40008C9A40008CCA40008D0A4000858
:10369C002DE9F0410E462825044675431A4F88B093
:1036AC001A49006807EB0508FDF728FED8F8081042
:1036BC002068FDF723FE16492068FDF71FFE012246
:1036CC0031466846FFF772FE69462068FDF716FE24
:1036DC0098F80430FE2B10D17B590E4920681D78C8
:1036EC00FDF70CFE206805F130010368C9B29B6838
:1036FC00984709492068FDF701FE2068611DFDF718
:10370C00FDFD08B0BDE8F08158AF0008C9A4000861
:10371C00CCA40008E2A40008E0A400080129F8B534
:10372C0006460D4601D9032907D1194B1B78022BEC
:10373C0003D030461749FFF723FD0024144F012D09
:10374C0008D12046FFF78EFC50B92046FFF79CFCB1
:10375C00A8B105E0022D08D12046FFF783FC70B913
:10376C000134E4B22A2CEAD1F8BD032D0CD1204649
:10377C00FFF78AFC0028F3D03B78022BE5D12146D9
:10378C003046FFF785FFEBE7002DF5D0F7E700BFDC
:10379C0075020020E5A4000810B504461749FFF790
:1037AC00EFFC20461649FFF7EBFC20461549FFF7C6
:1037BC00E7FC20461449FFF7E3FC20461349FFF7CA
:1037CC00DFFC20461249FFF7DBFC20461149FFF7CE
:1037DC00D7FC20461049FFF7D3FC20460F49FFF7D2
:1037EC00CFFC20460E49FFF7CBFC20460D49FFF7D6
:1037FC00C7FC20460C49FFF7C3FC10BD02A500080E
:10380C0022A5000847A500086FA5000893A500088D
:10381C00B7A50008E0A5000809A600084DA60008F9
:10382C006FA600088EA60008BDA6000838B5394B57
:10383C0004461A6890F89130012B69D1D0F88C307D
:10384C00D31AB3F5FA7F63D3C0F88C203248FFF754
:10385C00F7FB04F019FF314D01462068FDF74EFDD2
:10386C002F492068FDF74AFD95F8240004F00CFF61
:10387C0001462068FDF742FD2A492068FDF73EFD10
:10388C0095F87F0004F000FF01462068FDF736FD37
:10389C0025492068FDF732FD95F9780004F0FEFE0D
:1038AC0001462068FDF72AFD20492068FDF726FD1A
:1038BC0095F97E0004F0F2FE01462068FDF71EFD2E
:1038CC0019492068FDF71AFD95F97A0004F0E6FE17
:1038DC0001462068FDF712FD15492068FDF70EFD25
:1038EC00B5F85C0004F0E4FE01462068FDF706FD27
:1038FC000D492068FDF702FDB5F8700004F0D8FE04
:10390C0001462068FDF7FAFC20460A49FFF738FC0F
:10391C0038BD00BFB829002040190020E017002056
:10392C00EAA60008ECA60008EFA60008EDA6000821
:10393C00F2A60008F5A600082DE9F043036804463A
:10394C0093B043B38F4B1E6890F8893083B1D0F895
:10395C008C30F31AB3F5FA6F0AD98B49FFF710FCC8
:10396C0020468A49FFF70CFC002384F889306372E7
:10397C0094F89130ABB120680368DB68984768B164
:10398C00206803681B69984700232046804984F807
:10399C009130FFF7F5FB13B0BDE8F0832046FFF73D
:1039AC0045FF794FDFF8EC81DFF8EC912068036874
:1039BC00DB6898470028EED0206803681B6998479D
:1039CC000A280546C4F88C600FD00D280DD02C2881
:1039DC000BD03B2809D02068294603689B68984780
:1039EC0029462046FFF704FCE0E73946204604F15F
:1039FC000905FFF7C5FB41462846FCF7A1FB38B982
:103A0C002046FFF7C9FE002384F889306372CDE7A6
:103A1C0049462846FCF794FB0028F1D028465F491C
:103A2C00FCF78EFB0028EBD05D492846FCF788FBA1
:103A3C00014618B92046FFF771FEE4E728465949BC
:103A4C00FCF77EFB08B90121F4E728465649FCF740
:103A5C0077FB08B90221EDE728465449FCF770FBC7
:103A6C0008B90321E6E720460AAA02A9FFF7CEFB14
:103A7C0000283DD002A90DF10600FFF7F5FC20B996
:103A8C004B492046FFF77CFBBDE74A4B1B78022BCA
:103A9C0005D002A8FFF70AFB08B14749F1E79DF8EA
:103AAC0028303F2B0AD120469DF80610FFF7F0FD79
:103ABC0020469DF80610FFF783FDA4E70BB93F499C
:103ACC00DFE79DF806200AA90DF10700FFF710FDAE
:103ADC0008B93B49D5E720469DF80610FFF7D8FDFD
:103AEC009DF80730002B8ED0012384F890308AE7A4
:103AFC0028463449FCF724FB70B9022384F8903033
:103B0C002C4B1B78022B05D02B492046FFF738FB9A
:103B1C002D49B6E72D49B4E728462D49FCF710FB93
:103B2C0020B903232B4984F89030AAE728462A4968
:103B3C00FCF706FB70B9042384F890301D4B1B78FE
:103B4C00022B05D01C492046FFF71AFB234998E7A6
:103B5C00234996E728462349FCF7F2FA40B901239A
:103B6C002149204684F89130FFF70AFB1F4988E76A
:103B7C0094F889101E4A1F4B00290CBF1146194698
:103B8C007FE700BFB829002011A7000813A7000881
:103B9C001DA7000857AC000837A700089BA4000815
:103BAC003CA700083FA7000844A700084AA7000844
:103BBC0050A7000875020020E5A400086CA70008B7
:103BCC0084A7000897A700089EA70008B5A70008BF
:103BDC00C9A70008CEA70008E5A70008ECA70008B5
:103BEC0005A800082EA800081BA8000834A8000887
:103BFC00F7A6000803A7000810B5064B064C93F86F
:103C0C0054102046FFF7DCFA2046BDE81040FFF7C1
:103C1C0093BE00BFCC000020E0010020244B10B567
:103C2C001C68A00604D55868224BC0B21B68984784
:103C3C00210744BF1E4B5B68220613D51E4B1F4A3F
:103C4C001988138889B29BB299421FD0138801330B
:103C5C00C3F3080313801388194A9BB2D35C144A2C
:103C6C00DBB25360630621D5164A52E8003F23F0BD
:103C7C00400342E800310029F7D1BDE810406FF055
:103C8C0040020B4B1A60104B1B6818470848FDF795
:103C9C0037F96FF040030B4A036052E8003F43F0E2
:103CAC00400342E800310029F7D1DBE710BD00BF2B
:103CBC0000380140140000209E1B00209C1B00209B
:103CCC009C1900200C3801401800002001280DD050
:103CDC00074A52E8003F23F0200342E80031002954
:103CEC00F7D16FF02002034B1A607047FDF7D0BA82
:103CFC000C38014000380140F0B5082601272D4C46
:103D0C008BB0E3682C4D23F40053E360FDF7FAFA13
:103D1C004FF48040FDF7CCF82849284603230A22AB
:103D2C00CDE90067FDF734FB032328461A46CDE99D
:103D3C0000672349FDF72CFB1822002104A806F08C
:103D4C00A3FA204B204603930C230DEB030107939E
:103D5C0004F098FBA0222369204623F490432361AE
:103D6C00636923F02A036361174B83F82523202210
:103D7C005A60FDF7C5F86FF0400323600024134B25
:103D8C001C80134B1C806FF020030360FDF79EF822
:103D9C00104B1C80104B1C80036923F4904303616F
:103DAC00436923F02A034361C36843F40053C3609F
:103DBC000BB0F0BD003801400008014002000204C5
:103DCC0004000404801A060000E100E09C1B0020A3
:103DDC009E1B0020981900209A1900200649074ABA
:103DEC000B8812880133C3F3080392B29A421EBFA8
:103DFC00034AD0540B8070479E1B00209C1B002054
:103E0C009C19002038B5037A0446082B1DD990F86C
:103E1C008F200020BAB1092B15D1FFF757FF0025D1
:103E2C0094F88F20EBB2934206D2234493F890007F
:103E3C00FFF7D4FF0135F3E7002384F88F300A2312
:103E4C000120237238BD2072FCE70020FAE7000045
:103E5C000148FDF748B800BF0038014038B50F4D98
:103E6C0004460323062248F280012846FDF7E5FAB2
:103E7C00062244F2400128460323FDF7DEFA802394
:103E8C002B6140232B61FFF737FFFDF701FA00236D
:103E9C00A38163602381A37238BD00BF000C014075
:103EAC0038B50379044615461BB100230371012371
:103EBC00C380E3880B70E3880BB9002038BD6379AD
:103ECC00002BFAD0236820469B6898470028F4D032
:103EDC000022E388627101339BB2AB4294BFE38052
:103EEC00E280EBE710B5037A0446082B84BF00236D
:103EFC000372084B5A6A036892B21B68984723688E
:103F0C0020465B68984718B1BDE81040FFF7A0BF8A
:103F1C0010BD00BF0004004001460148FFF7E2BF9E
:103F2C00680B002001460148FFF7DCBF7C02002033
:103F3C000238C0B20E289ABF014B185C00207047A3
:103F4C003CAF000810B5037A044633B18389D31A09
:103F5C009BB2FA2B84BF00230372237AA281052B18
:103F6C0019D8DFE803F003080E334A564F2912D153
:103F7C00012323720FE0572901D10223F9E7002313
:103F8C00F7E70023FF29A37206D141F204732381C2
:103F9C00637D002BF3D110BD9F290FD9012201F0B5
:103FAC001F00A27284F82F00FFF7C2FF607218B9CD
:103FBC0084F82E200923DCE70523DAE71829DED85C
:103FCC000029F7D0032361722372E1E7B4F8682269
:103FDC00B4F86C02531C0340B4F86A0298421EBF3A
:103FEC00121982F86E12A4F86832A37A627A01333D
:103FFC00DBB29A42A372DDD9CDE7A27A531CDBB2B5
:10400C002244A372D175627A9A42C4D80123A37553
:10401C00D0E7A27A531CDBB22244A37282F82F1091
:10402C00627A9A42B7D2012384F82E30C2E7F0B5F7
:10403C00447D87B0002C36D16E463546B0F86270A0
:10404C00B0F86430F91A8AB2090441BFB0F86610AE
:10405C000131521892B20AB39F420EBF0022B0F83F
:10406C006610C21804F101041EBF013392F86820D7
:10407C000B40E4B218BFA0F86430182C05F8012BE3
:10408C00DED10020FFF7AAFE0546013516F8010B1C
:10409C00EDB2FFF7A3FEA542F7D301E0002CF0D15F
:1040AC00204607B0F0BD0024FAE738B5447D05463C
:1040BC005CB995F84820E3B29A4206D92B4493F8A0
:1040CC004900FFF78BFE0134F3E738BD38B5457D69
:1040DC000446F5B9037A082B03D9092B03D0002326
:1040EC002372284638BD90F848307BB1FFF7DDFFCE
:1040FC0094F8480084F84850C0B20028EFD0002053
:10410C00FFF7E4FD0A2301252372EAE7FFF78FFF8F
:10411C00F3E70025E5E7027EC37D02F0070243EAE0
:10412C0002230B80038BC3F3CA034B808369C3F355
:10413C008A338B80037FC27E03F00F03DB0143EADB
:10414C005203CB80838BC3F30A130B81C369C3F374
:10415C00CA334B8190F82030C27F03F01F039B01C0
:10416C0043EA92038B81038CC3F34A13CB81438CB8
:10417C00C3F30A030B8290F8243090F8232003F049
:10418C003F035B0143EAD2034B82436AC3F38A13B6
:10419C008B82C38CC3F34A03CB8290F8283090F8FF
:1041AC00272003F07F031B0143EA12130B83836A5E
:1041BC00C3F3CA134B83438DC3F38A038B8390F8E9
:1041CC002C3090F82B20DB0043EA5213CB8340F2C7
:1041DC00547390F82D2012F0010F14BF1A46AC2224
:1041EC000A8490F82D2012F0020F08BFAC234B84E8
:1041FC007047F8B51F46437D04460D4616467BB105
:10420C0000230E440372B54207D023683A46204679
:10421C001B6815F8011B9847F5E700232372A3755B
:10422C00F8BD0346407D30B568B193F8484004F0C2
:10423C00FF054CB103F149040C6093F84810117060
:10424C00002283F8482030BD2846FCE710B50175E4
:10425C00044642750AB30123037540F2FF12A4F819
:10426C00662040F2FF720023A4F86C227F22A37513
:10427C00A4F8643084F82E30A4F8623084F8483006
:10428C00A4F86A32A4F86832A4F8703AA4F86E3A2A
:10429C00A4F8722A84F8F43A10BD0029FCD0044B1F
:1042AC00044A1A60044B054A1A60FFF7D7FDD4E79D
:1042BC0014000020253F000818000020AD12000853
:1042CC00427D38B552B9047D34B1857D05F0FF04CB
:1042DC0015B18275FFF71FFF204638BD0024FBE7A0
:1042EC0037B5457D0C46BDB9037D7BB10F220DF171
:1042FC000701FFF7D5FD034640B19DF80720062ABC
:10430C0007D0092A05D0012A06D12570184603B01A
:10431C0030BD01222270F9E70023F7E70346007D48
:10432C0060B193F82E2002F0FF003AB1002283F81E
:10433C002E2093F82F3003F01F030B707047F8B545
:10434C000D460646174600211922493005F09CFF00
:10435C002846FFF7EDFD044605F01F05603D0134CE
:10436C000246394686F8495006F14A00E4B205F097
:10437C0063FF86F84840F8BD70B590F8F44A0346E0
:10438C00DCB9B0F86E6AB0F8702AB51AA8B22D0470
:10439C0041BFB3F8725A0135401980B260B19642F0
:1043AC0008D0981890F8744AB3F8720A0132024097
:1043BC00A3F8702A01200C7070BD0020FCE70000EF
:1043CC0010B51E4C86B018220021684605F05CFF23
:1043DC002046FEF775F8A368ADF8000013B9204627
:1043EC00FEF748F80122637B8DF803309DF8053009
:1043FC0062F34203124ADBB292F85810B1B192F850
:10440C00771092F8782023F01903D20002F01802EA
:10441C0042F001028DF8041013436A460B2109483F
:10442C008DF80530FFF78BFF06B010BD7F2223F00F
:10443C0019038DF8042043F01803EEE768180020E8
:10444C0034010020680B00207FB51822002168463B
:10445C0005F01AFFD820FCF70BFB0223ADF8000087
:10446C00142201A80649ADF80230FCF71FFB6A467E
:10447C0004210448FFF763FF07B05DF804FB00BF9D
:10448C0051A80008680B002010B5114C86B01822FA
:10449C000021684605F0F8FE94F85830ABB1E06D99
:1044AC00FCF7E6FA1422B4F86030ADF80000ADF871
:1044BC00023004F1620101A8FCF7F8FA6A46052102
:1044CC000448FFF73CFF06B010BD14220249F2E786
:1044DC0034010020680B002095A400080023044A36
:1044EC0007211370034A04481370FCF7EDBE00BF9C
:1044FC006016002061160020D615002010B50B7830
:10450C000C46033B082B0BD8DFE803F010050C1A04
:10451C000A0A0A0A0E00042100F66E20FCF7D4FEEB
:10452C00207810BD0521F7E70B21F5E7042100F6F3
:10453C006E20FCF7C9FE0521FCF7C6FE0B21EDE74A
:10454C00FFF7CCFFECE707B58DF807100DF107016D
:10455C00FFF7D4FF03B05DF804FB00002DE9F04138
:10456C007A4D86B095F80080B8F1290F0FD9182232
:10457C000021684605F088FEFF236A46072174482F
:10458C008DF80030FFF7DBFE06B0BDE8F081714E10
:10459C0018223178704F002961D1684605F074FEFD
:1045AC00282303FB08F17A1812798DF80080042A6D
:1045BC0007D852B1023A022A1FD8DFE802F0232EA4
:1045CC003800FE2A3CD0FF2A3FD028222B780DF150
:1045DC00020002FB037310229968FCF767FA6A4623
:1045EC0007215B48FFF7ABFE0123337007215B48C3
:1045FC0006B0BDE8F041FCF767BE03FB08F3FB58BF
:10460C001B7807E0012203FB08F3FB588DF801200F
:10461C0093F900308DF81230D7E7022203FB08F330
:10462C00FB588DF801201B88ADF81230CDE7032222
:10463C0003FB08F3FB588DF80120B3F90030F3E7C6
:10464C0004238DF801307B58DAE7052306227958CC
:10465C000DF112008DF80130FCF728FAB5E70129AD
:10466C0068464FF000015AD105F00EFE282303FBDB
:10467C00087214798DF80080042C09D85CB1023CC6
:10468C0003FB0873022C0FD8DFE804F00E1E1E008B
:10469C00FE2C23D000246A4608212D48FFF74FFE3C
:1046AC00002C37D00223A0E71A7D8DF805201A7E46
:1046BC008DF801201A7F8DF80320062219690DF15F
:1046CC000700FCF7F3F9E5E79A8AADF805201A8B99
:1046DC00ADF801209A8BADF80320EEE7536AB3B125
:1046EC001B882824ADF8013004FB08731522196AC5
:1046FC000DF10300FCF7DAF92B7804FB0373186A4D
:10470C00FBF728FD142894BF00240124C3E74FF6BF
:10471C00FF73E6E734702B7801332B7066E705F0F6
:10472C00B3FD282303FB0873196A172215310DF109
:10473C0001008DF80080FCF7B9F96A46092104489C
:10474C00FFF7FDFD00233370E5E700BF6016002086
:10475C00680B00206116002058AF0008D615002009
:10476C00002310B50B70024600780C46292811D88E
:10477C002821094B01FB00331B79FF2B06D0B2F922
:10478C000110FEF7A5FC2070012010BD511CFEF796
:10479C00D7FCF8E71846F8E758AF000804380728A4
:1047AC000DD8DFE800F004060C080C0C0C0AFFF71F
:1047BC004BBEFFF769BEFFF7D1BEFFF701BE7047D6
:1047CC00142210B5002104462A3005F05DFD0023AB
:1047DC000122C4F8C432A4F8C83284F8CA22637027
:1047EC0010BDF0B54AF6FF7C00260124F3B29942C5
:1047FC0059D91588D2F80230B5F5006F12D005EBF7
:10480C000C07BFB20C2F15D8A5F5A045013D0C2DFA
:10481C0010D8DFE805F012161A1E222C30340F388F
:10482C003C404400002BB9BF436480F82B40036428
:10483C0080F82A4001360632D8E7C36480F82D4050
:10484C00F8E7036580F82E40F4E7436580F82F40C5
:10485C00F0E7836580F83040ECE7DD0047BFC0F837
:10486C008C3080F83D40C36580F83140E2E7036648
:10487C0080F83240DEE7436680F83340DAE783663F
:10488C0080F83440D6E7036780F83640D2E74367B8
:10489C0080F83740CEE7836780F83840CAE7C367B3
:1048AC0080F83940C6E7F0BD48F2077210B40C88A6
:1048BC00944209D1012242700C794A1D0621B4FBA5
:1048CC00F1F110BCFFF78DBF10BC70470123437092
:1048DC004A1D0979FFF785BF0B68C0F890304B680B
:1048EC00C0F894300B7A80F89830012380F82D3082
:1048FC0080F8333090F89630DB0980F8C932704775
:10490C00993001F1280351F8042B994240F8042BFB
:10491C00F9D10B8803808B788370704710B500F148
:10492C00C40301F1340251F8044B914243F8044B97
:10493C00F9D1012380F82E3010BDF83001F11C03A1
:10494C0051F8042B994240F8042BF9D10B780370E1
:10495C00704710B500F2151301F11C0251F8044B0D
:10496C00914243F8044BF9D1012380F8323010BD49
:10497C0010B500F2311301F11C0251F8044B9142B5
:10498C0043F8044BF9D140F201134385012380F81D
:10499C00303080F8C63290F8C93253B990F8C8322A
:1049AC003BB9D0F83931C0F82032D0F83531C0F8E5
:1049BC001C3210BD0B68C0F867318B88A0F86B31C6
:1049CC00704700F24D1001F1180351F8042B994275
:1049DC0040F8042BF9D10B880380704710B500F216
:1049EC006D1301F1140251F8044B914243F8044B3E
:1049FC00F9D1012380F83130D0F8993013F010033D
:104A0C0008D0D0F89D3013F010031CBFD0F8A130A3
:104A1C00C3F3001380F83D3010BD00F2811001F19A
:104A2C00140351F8042B994240F8042BF9D10B884C
:104A3C000380704791F8203030B57BB90B4600F2FB
:104A4C00971201F1340453F8045BA34242F8045B5F
:104A5C00F9D11B881380012380F82F3091F8203076
:104A6C00012B0ED100F2CD1301F1340251F8044B9D
:104A7C00914243F8044BF9D10A881A80012380F83B
:104A8C00343030BD0B68C0F803324B68C0F80732C5
:104A9C000B7A80F80B32012380F8C73270470B6811
:104AAC00C0F80C324B68C0F81032012380F8323059
:104ABC0070470B68C0F814324B68C0F818320123E9
:104ACC0080F83630704710B500F5077301F13C02E1
:104ADC0051F8044B914243F8044BF9D1012380F86F
:104AEC00303080F8C83210BD10B500F5167301F1E6
:104AFC00340251F8044B914243F8044BF9D10A8823
:104B0C001A80012380F82C3010BDF0B50025012748
:104B1C002C46AB4204D907FA05F634430135F8E7C5
:104B2C0003680C4094401C430460F0BD38B5044647
:104B3C0094F82A50084615B90025284638BD00239C
:104B4C00627884F82A301AB1236C15460B60F4E7AE
:104B5C0094F8E030022BEFD90A603221D4F83531C9
:104B6C00002BC8BF5B42B3FBF1F11E2301EB4101EB
:104B7C00FFF7CBFFD4F8351102231E22C90FFFF724
:104B8C00C4FFDAE738B5044694F82B50084615B93B
:104B9C000025284638BD0023627884F82B301AB1E2
:104BAC00636C15460B60F4E794F8E030022BEFD9F8
:104BBC003221D4F839310260002BC8BF5B42B3FB01
:104BCC00F1F11E2301EB4101FFF79FFFD4F83931BE
:104BDC001E22002B4FF00203B4BF03211946FFF72E
:104BEC0094FFD6E738B5044694F8C4220846AAB90F
:104BFC0094F82C30DBB384F82C2004F5167304F2F3
:104C0C008E2204F5237153F8045B8B4242F8045B4B
:104C1C00F9D11B8813800123A4F8C4320023182275
:104C2C00036094F8C532312B06D8591C84F8C51290
:104C3C00234493F88F12E1B9012394F88E120722C2
:104C4C001940FFF762FF94F88E1201230F22C1F373
:104C5C004001FFF75AFF94F88E1201231722C1F37B
:104C6C008001FFF752FF002384F8C4320123184659
:104C7C0038BD0723FFF749FF083AD2B2F82AD0D142
:104C8C0094F8C532312BD7D8F0E703462DE9F0471D
:104C9C0093F82D5008463DB1002283F82D205A7808
:104CAC002AB11546DB6C0B602846BDE8F08793F8FB
:104CBC000962D3F89010B3F87F41003E18BF01266B
:104CCC0093F8C98293F8C77201314CB1632CDFBFE2
:104CDC006422C4EB84143134B4FBF2F4C8BF3F2417
:104CEC00B3F91331002B42D0642293FBF2F3522B15
:104CFC00A8BF5223132BB8BF1323A3F113094FF0F2
:104D0C00000A05235246C0F800A0FFF7FEFE5146EC
:104D1C0002230522FFF7F9FE414601230722FFF784
:104D2C00F4FE01230822FFF7F0FE5146012309226D
:104D3C00FFF7EBFE02230A22FFF7E7FE01230C220A
:104D4C00FFF7E3FE394601230D22FFF7DEFE314665
:104D5C0001230E22FFF7D9FE214607231322FFF76A
:104D6C00D4FE06231A224946FFF7CFFE9CE799464C
:104D7C00C5E700002DE9F84390F82E700D463FB1C1
:104D8C000023417880F82E3029B10F46036D2B603B
:104D9C003846BDE8F88390F8E130FF2B03D00F2B99
:104DAC0028BF0F23194690F8E030022B03F00309BB
:104DBC00C3F3810839D90A23B0F8D860D0F8D440AD
:104DCC00B6FBF3F61C4B7F2EA8BF7F269C422FDC34
:104DDC001A4B9C422EDB642394FBF3F400222846EE
:104DEC002A600423FFF791FE022349460422FFF7B1
:104DFC008CFE012202213046FBF74EFF08230146B0
:104E0C0006222846FFF781FE022341460E22FFF7B9
:104E1C007CFE022220461146FBF73EFF0A23014688
:104E2C0016222846FFF771FEB2E77F260024D5E74D
:104E3C00034CD3E7034CD1E7C3C9C1003D363EFF59
:104E4C0018F00100E80FFEFF2DE9F04F90F830301C
:104E5C0004460E4685B023B90027384605B0BDE898
:104E6C00F08F0023477880F8303017B1836D0B60DA
:104E7C00F3E790F8C672002FEED0D0F81C02FBF7C7
:104E8C002BFA6B49FBF77CFA6A49FBF779FA8246F5
:104E9C00D4F83501FBF720FA6549FBF771FA65493F
:104EAC00FBF76EFA8146504603F0B4FE009048467C
:104EBC0003F0B0FE8046D4F83901FBF70DFA5C49DB
:104ECC00FBF75EFA5B49FBF75BFA0546D4F8200268
:104EDC00FBF702FA5649FBF753FA5649FBF750FA1F
:104EEC0001462846FBF742F9834603F0EFFE01909A
:104EFC00484603F0EBFE0546504603F0E7FE0390F0
:104F0C00584603F087FE294602900098FBF738FAC2
:104F1C00039B054619464046FBF732FA029A1146A6
:104F2C00FBF72EFA01462846FBF720F905460199B6
:104F3C004046FBF725FA294603F02AFF3E49FBF7CA
:104F4C001FFA00210546FBF7B9FB20B128463B4967
:104F5C00FBF70EF905462846FBF7EEFB80B2A0F1F5
:104F6C00B4052DB2002DBCBFB43005B2B5F5B47F7D
:104F7C00A8BFA5F5B47551464846A8BF2DB2FBF79E
:104F8C00F5F84FF07C51FBF7FBF903F09FFE4FF067
:104F9C007C5181465846FBF7F3F903F097FE014626
:104FAC00FBF7EEF90099FBF7EBF94146FBF7E8F953
:104FBC00494680464846FBF7E3F901464046FBF775
:104FCC00D7F803F0E7FE4FF0000803F0B9FE6423B6
:104FDC00D4F841411A49C6F8008094FBF3F4FBF76E
:104FEC00CFF9FBF7A9FBFBF777F9FBF7A5FB02223F
:104FFC000321FBF751FE0C23014642463046FFF7D6
:10500C0084FD2046FBF768F9FBF796FB022203218F
:10501C00FBF742FE0D2301460C223046FFF775FDCF
:10502C0003210723192295FBF1F1FFF76EFD14E71D
:10503C0095BFD63335FA8E3CE12E65420000B44361
:10504C00706D424B2DE9F84390F8317004460D46D3
:10505C003FB10023467880F831302EB13746C36D0E
:10506C000B603846BDE8F8831C49D0F87901FBF792
:10507C0087F903F007FE19498146D4F87101FBF753
:10508C007FF903F0FFFDB4F97D1180462E60484690
:10509C0001EB8104FBF750FB01220221FBF7FCFD25
:1050AC000923014632462846FFF72FFD4046FBF701
:1050BC0043FB01220221FBF7EFFD082301460922E5
:1050CC002846FFF722FD21460B231122FFF71DFD79
:1050DC0001231C223146FFF718FDC2E700002041D6
:1050EC002DE9F84390F83D7004460D4647B1002376
:1050FC00467880F83D3036B13746D0F88C300B60AE
:10510C003846BDE8F8831D49D0F87901FBF738F92A
:10511C0003F0B8FD19498146D4F86D01FBF730F95D
:10512C0003F0B0FDB4F97D1180462E60484601EBCA
:10513C008104FBF701FB01220221FBF7ADFD0923E2
:10514C00014632462846FFF7E0FC4046FBF7F4FAEE
:10515C0001220221FBF7A0FD082301460922284663
:10516C00FFF7D3FC21460B231122FFF7CEFC0123C2
:10517C001C221946FFF7C9FCC2E700BF0000204102
:10518C002DE9F84390F8327004460D463FB10023E8
:10519C00467880F832302EB13746036E0B603846B5
:1051AC00BDE8F883D0F819012149FBF7E9F821494A
:1051BC00FBF7E6F82049FAF7DBFF03F063FD1C4927
:1051CC008146D4F81D01FBF7DBF81A49FBF7D8F838
:1051DC001A49FAF7CDFF03F055FD19498046D4F86A
:1051EC000C02FBF7CDF803F04DFD2E60044648464B
:1051FC00FBF7A2FA324601460B232846FFF785FC43
:10520C004046FBF799FA0A2301460B222846FFF782
:10521C007CFC2046FBF790FA01220321FBF73CFDB6
:10522C000B23014615222846FFF76FFCB7E700BF9A
:10523C00E12E65420000A040000061440000E14303
:10524C000000C84238B5034693F83350084615B9E8
:10525C000022104638BD002283F833205A7812B150
:10526C005B6E0B60F5E793F8CA42611CC9B2042966
:10527C0083F8CA1203D9012183F8CA12E9E7012C79
:10528C00E6D193F8941018230260FFF73EFC182225
:10529C0004232146FFF739FC2A46DAE738B50446E1
:1052AC00364B821C03F1280153F8040B8B4242F855
:1052BC00040BF9D100252B222946C4E9245584F886
:1052CC00985004F1990004F0DFFF2946342204F1D0
:1052DC00C40004F0D9FF29461D2204F1F80004F0A3
:1052EC00D3FF29461C2204F2151004F0CDFF2946E9
:1052FC001C2204F2311004F0C7FF29461A2204F2D2
:10530C004D1004F0C1FF29461422C4F86751A4F8CB
:10531C006B5104F26D1004F0B7FF2946162204F20B
:10532C00811004F0B1FF2946362204F2971004F0E4
:10533C00ABFF2946362204F2CD1004F0A5FF294616
:10534C003C22C4E98355C4E98555C4F80352C4F81A
:10535C00075284F80B5204F5077004F095FF2946A8
:10536C00362204F5167004F08FFF3622294604F21B
:10537C008E2004F089FF204638BD00BF34A40008FD
:10538C002DE9F04F477D037DBF000C4647EA93178C
:10539C0003F03F01837DC57D03F00102067E47EAE1
:1053AC00822705F00F02D20142EA530206F07F0376
:1053BC001B0143EA1513457E90F81AE06D0089B085
:1053CC0045EAD6150EF00306059345EA4623C67E3C
:1053DC00009306F01F05AD0145EA9E03057F90F88A
:1053EC001EE0ED00019345EA5613457F0EF00706CB
:1053FC00029345EA0623C57F039305F03F06760129
:10540C0046EADE0390F8206090F821E0B60046EA08
:10541C0095160EF0010546EA852690F8225090F874
:10542C00258005F00F0B4FEACB1B4BEA5E0B90F877
:10543C0023E090F813C00EF07F0A4FEA0A1A4AEAEA
:10544C00151A90F8245049016D0045EADE1508F054
:10545C00030E45EA4E2590F826E041EADC010EF0F9
:10546C001F094FEA891949EA980990F82780807C2E
:10547C000CF0070C40EA0C204FEAC80848EA5E180A
:10548C00049306920791FBF7E4F9079920800846EC
:10549C00FBF7DFF960803846FBF7DBF9069AA08052
:1054AC001046FBF7D6F9059BE0801846FBF7D1F9BF
:1054BC0020810098FBF7CDF960810198FBF7C9F9C1
:1054CC00A0810298FBF7C5F9E0810398FBF7C1F9BD
:1054DC0020820498FBF7BDF960823046FBF7B9F9DE
:1054EC00A0825846FBF7B5F9E0825046FBF7B1F9BC
:1054FC0020832846FBF7ADF960834846FBF7A9F9F2
:10550C00A0834046FBF7A5F9E08309B0BDE8F08F16
:10551C0010B50446817339B3144B154A1A60154BF8
:10552C00154A1A60FEF79AFC4FF6FF720023A4F896
:10553C002221124A84F88F3084F81A3184F8103101
:10554C0084F8213184F81131C4F8242184F83731DE
:10555C0084F83A3184F83D3184F83E3104F5A0707A
:10556C00BDE81040FFF72CB910BD00BF140000209F
:10557C00313F000818000020C11200080000C07F55
:10558C0010B5847B4CB190F8102102F0FF0422B1CD
:10559C00002280F81021FFF7F3FE204610BD00001A
:1055AC00837B37B50D462BB3D41FE4B21E2C28BF1A
:1055BC001E240DF107012246FEF772FC0346C8B10A
:1055CC009DF807101D2905D8082905D801290FD0E9
:1055DC00052912D000230DE001220B488A4002421B
:1055EC000DD191040DD412F40072F3D0022200E01C
:1055FC0000222A70184603B030BD0122F9E78C4214
:10560C00E8D30322F5E700BF00002222827B034689
:10561C0010B50AB9002010BD90F8112102F0FF005E
:10562C00002AF7D00024DA7B83F81141C82A0AD16A
:10563C005A7C322AEED11A7D102AEBD15B7D052BD8
:10564C00E8D10C70E7E7EE2AE4D15B7C812BE1D149
:10565C0001230B70DFE74A78D5230020013A023191
:10566C00FBF70DBB38B504461D46EA23084684F803
:10567C009030AB1C114684F891302A4684F8920085
:10568C0004F1930004F0D8FD204604F19001FFF7DB
:10569C00E2FF6319043583F89300EDB284F88F5060
:1056AC0038BD0A460A231421FFF7DCBF0A4606233D
:1056BC001D21FFF7D7BF0A4605231C21FFF7D2BFD8
:1056CC0013460A468221FFF7CDBF002310B51946B9
:1056DC004FF6FF741A1D00EB420252880133A242AE
:1056EC0018BF89180A2BF5D1B0F82920B0F82B3047
:1056FC000A441A44B0F82D30B0F82F001344184463
:10570C0010BD2DE9F04190F82F7004460D463FB1C5
:10571C000023467880F82F302EB13746436D0B604E
:10572C003846BDE8F08100F29710FFF7CEFFB4F9D0
:10573C00B531D4F89781002BA8BF0A244FF064012F
:10574C00ACBF93FBF4F4344690FBF1F109232846EB
:10575C0000222E60FFF7D9F9012202212046FBF727
:10576C009BFA0823014609222846FFF7CEF947F693
:10577C00FF7141454FF00F034FF01102A8BF414696
:10578C00FFF7C3F9CCE72DE9F04190F834700446EB
:10579C000D463FB10023467880F834302EB13746A1
:1057AC00836E0B603846BDE8F08100F2CD10FFF738
:1057BC008CFFB4F9EB31D4F8CD81002BA8BF0A24AF
:1057CC004FF06401ACBF93FBF4F4344690FBF1F161
:1057DC000923284600222E60FFF797F901220221A7
:1057EC002046FBF759FA0823014609222846FFF701
:1057FC008CF947F6FF7141454FF00F034FF0110242
:10580C00A8BF4146FFF781F9CCE7F223F0B591B080
:10581C008DF8083000230D4601A9044616468DF874
:10582C000930FFF732FA38B12389ADF80A30019B01
:10583C00039301238DF80930204601A9FFF702FCE0
:10584C0070B106229DF8093010A902FB0312218ABF
:10585C00013322F8361C01998DF8093042F8341CBA
:10586C00204601A9FFF73CFC70B106229DF80930D7
:10587C0010A902FB0312218D013322F8361C019969
:10588C008DF8093042F8341C204601A9FFF778FC4A
:10589C0070B106229DF8093010A902FB0312618A2F
:1058AC00013322F8361C01998DF8093042F8341C6A
:1058BC00204601A9FFF75EFA70B106229DF8093067
:1058CC0010A902FB03126189013322F8361C0199DD
:1058DC008DF8093042F8341C204601A9FFF726F94F
:1058EC0070B106229DF8093010A902FB03126188E1
:1058FC00013322F8361C01998DF8093042F8341C1A
:10590C00204601A9FFF73EF970B106229DF8093037
:10591C0010A902FB0312A188013322F8361C01994D
:10592C008DF8093042F8341C9DF80970082F11D8F5
:10593C00204601A9FFF7E5FE60B1062310AA03FB80
:10594C000723A289013723F8362C019A8DF80970A8
:10595C0043F8342C9DF80970082F11D8204601A962
:10596C00FFF711FF60B1062310AA03FB0723E28A9D
:10597C00013723F8362C019A8DF8097043F8342C32
:10598C009DF80970082F11D8204601A9FFF75CFA81
:10599C0060B1062310AA03FB0723E289013723F821
:1059AC00362C019A8DF8097043F8342C9DF8097047
:1059BC00082F11D8204601A9FFF744FC60B106233B
:1059CC0010AA03FB0723A28A013723F8362C019A6D
:1059DC008DF8097043F8342C9DF80970082F11D8F4
:1059EC00204601A9FFF7FEF860B1062310AA03FBBD
:1059FC000723E288013723F8362C019A8DF80970B9
:105A0C0043F8342C9DF8090050B100EB40004300E2
:105A1C000233DAB22846327002A904F00DFC0120E0
:105A2C0011B0F0BD70B591F8205004460E465DBB28
:105A3C000846FFF74AFE642390FBF3F040BAA4F843
:105A4C001201B6F91E30581C1CBF0A2593FBF5F544
:105A5C006DBAA4F814513368591C16D00C4A9342F1
:105A6C0028BF13461A0C84F816211A0A84F8172139
:105A7C0084F8183196F923305A1C08BF002384F897
:105A8C001931012384F81A3170BD0023EAE700BFF5
:105A9C00FFFF7F0038B50D4604460F49A868FAF79A
:105AAC006FFCFAF749FE40BAA4F81B0168680A4972
:105ABC00FAF766FCFAF740FE40BAA4F81D01E86854
:105ACC000549FAF75DFCFAF737FE012340BAA4F852
