:020000040800F2
:1000000000500020A59500086D9500086F95000828
:1000100071950008739500087595000800000000B0
:1000200000000000000000000000000077950008BC
:1000300079950008000000007B9500087D95000878
:10004000ED950008ED950008ED950008ED95000888
:10005000ED950008ED950008ED950008ED95000878
:10006000ED950008ED950008ED950008ED95000868
:10007000ED950008ED950008ED950008ED95000858
:10008000ED950008ED950008ED950008ED95000848
:10009000ED950008ED950008ED950008ED95000838
:1000A000ED950008153A0008ED950008ED9500085B
:1000B000ED950008ED950008ED950008ED95000818
:1000C000ED950008ED950008ED950008ED95000808
:1000D000ED95000869200008692300082D4F0008ED
:1000E0006D850008ED950008ED9500080000000002
:1000F0000000000000000000000000000000000000
:0C01000000000000000000005FF808F1A3
:10010C0010B5054C237833B9044B13B10448AFF345
:10011C0000800123237010BD90000020000000001F
:10012C0024C7000808B5034B1BB103490348AFF3C0
:10013C00008008BD000000009400002024C70008C7
:10014C0010F8012B11F8013B012A28BF9A42F7D075
:10015C00D01A7047034613F8012B002AFBD1181A4A
:10016C000138704780F0004002E000BF81F0004190
:10017C0042001FBF5FEA410392EA030F7FEA226C41
:10018C007FEA236C6AD04FEA1262D2EB1363C1BFD1
:10019C00D218414048404140B8BF5B42192B88BF40
:1001AC00704710F0004F40F4000020F07F4018BF63
:1001BC00404211F0004F41F4000121F07F4118BF83
:1001CC00494292EA030F3FD0A2F1010241FA03FC2B
:1001DC0010EB0C00C3F1200301FA03F100F0004313
:1001EC0002D5494260EB4000B0F5000F13D3B0F1DB
:1001FC00807F06D340084FEA310102F10102FE2A4A
:10020C0051D2B1F1004F40EBC25008BF20F00100B9
:10021C0040EA03007047490040EB0000013A28BF58
:10022C00B0F5000FEDD2B0FA80FCACF1080CB2EBDB
:10023C000C0200FA0CF0AABF00EBC2505242184359
:10024C00BCBFD0401843704792F0000F81F40001FE
:10025C0006BF80F400000132013BB5E74FEA4103D1
:10026C007FEA226C18BF7FEA236C21D092EA030F3D
:10027C0004D092F0000F08BF0846704790EA010FB7
:10028C001CBF0020704712F07F4F04D1400028BFE4
:10029C0040F00040704712F100723CBF00F50000C6
:1002AC00704700F0004343F0FE4040F400007047FC
:1002BC007FEA226216BF08467FEA236301464202A8
:1002CC0006BF5FEA412390EA010F40F480007047BB
:1002DC004FF0000304E000BF10F0004348BF404261
:1002EC005FEA000C08BF704743F0964301464FF09D
:1002FC0000001CE050EA010208BF70474FF00003F9
:10030C000AE000BF50EA010208BF704711F0004339
:10031C0002D5404261EB41015FEA010C02BF844609
:10032C000146002043F0B64308BFA3F18053A3F568
:10033C000003BCFA8CF2083AA3EBC25310DB01FAAF
:10034C0002FC634400FA02FCC2F12002BCF1004F33
:10035C0020FA02F243EB020008BF20F001007047C4
:10036C0002F1200201FA02FCC2F1200250EA4C0018
:10037C0021FA02F243EB020008BF20EADC7070475E
:10038C004FF0FF0C1CEAD0521EBF1CEAD15392EA6C
:10039C000C0F93EA0C0F6FD01A4480EA010C400248
:1003AC0018BF5FEA41211ED04FF0006343EA5010A2
:1003BC0043EA5111A0FB01310CF00040B1F5000FE4
:1003CC003EBF490041EAD3715B0040EA010062F193
:1003DC007F02FD2A1DD8B3F1004F40EBC25008BF7D
:1003EC0020F00100704790F0000F0CF0004C08BF9B
:1003FC0049024CEA502040EA51207F3AC2BFD2F168
:10040C00FF0340EAC250704740F400004FF0000375
:10041C00013A5DDC12F1190FDCBF00F000407047AF
:10042C00C2F10002410021FA02F1C2F1200200FAED
:10043C0002FC5FEA310040F1000053EA4C0308BFB4
:10044C0020EADC70704792F0000F00F0004C02BF05
:10045C00400010F4000F013AF9D040EA0C0093F080
:10046C00000F01F0004C02BF490011F4000F013BDA
:10047C00F9D041EA0C018FE70CEAD15392EA0C0F48
:10048C0018BF93EA0C0F0AD030F0004C18BF31F0B3
:10049C00004CD8D180EA010000F00040704790F089
:1004AC00000F17BF90F0004F084691F0000F91F02D
:1004BC00004F14D092EA0C0F01D142020FD193EAF3
:1004CC000C0F03D14B0218BF084608D180EA01007B
:1004DC0000F0004040F0FE4040F40000704740F057
:1004EC00FE4040F4400070474FF0FF0C1CEAD05225
:1004FC001EBF1CEAD15392EA0C0F93EA0C0F69D081
:10050C00A2EB030280EA010C49024FEA402037D0EB
:10051C004FF0805343EA111143EA10130CF00040E2
:10052C008B4238BF5B0042F17D024FF4000C8B42D2
:10053C0024BF5B1A40EA0C00B3EB510F24BFA3EBB2
:10054C00510340EA5C00B3EB910F24BFA3EB910382
:10055C0040EA9C00B3EBD10F24BFA3EBD10340EADC
:10056C00DC001B0118BF5FEA1C1CE0D1FD2A3FF622
:10057C0050AF8B4240EBC25008BF20F001007047D7
:10058C000CF0004C4CEA50207F32C2BFD2F1FF037A
:10059C0040EAC250704740F400004FF00003013AAB
:1005AC0037E792F0000F00F0004C02BF400010F44F
:1005BC00000F013AF9D040EA0C0093F0000F01F063
:1005CC00004C02BF490011F4000F013BF9D041EA85
:1005DC000C0195E70CEAD15392EA0C0F08D14202B8
:1005EC007FF47DAF93EA0C0F7FF470AF084676E78B
:1005FC0093EA0C0F04D14B023FF44CAF08466EE764
:10060C0030F0004C18BF31F0004CCAD130F0004231
:10061C007FF45CAF31F000437FF43CAF5FE700BF89
:10062C004FF0FF3C06E000BF4FF0010C02E000BFB2
:10063C004FF0010C4DF804CD4FEA40024FEA410354
:10064C007FEA226C18BF7FEA236C11D001B052EA0A
:10065C00530C18BF90EA010F58BFB2EB030088BFD0
:10066C00C81738BF6FEAE17018BF40F0010070473F
:10067C007FEA226C02D15FEA402C05D17FEA236C21
:10068C00E4D15FEA412CE1D05DF8040B704700BF68
:10069C00844608466146FFE70FB5FFF7C9FF0028FF
:1006AC0048BF10F1000F0FBD4DF808EDFFF7F4FF38
:1006BC000CBF012000205DF808FB00BF4DF808EDD1
:1006CC00FFF7EAFF34BF012000205DF808FB00BFF4
:1006DC004DF808EDFFF7E0FF94BF012000205DF816
:1006EC0008FB00BF4DF808EDFFF7D2FF94BF0120C7
:1006FC0000205DF808FB00BF4DF808EDFFF7C8FFC0
:10070C0034BF012000205DF808FB00BF4FEA400217
:10071C004FEA41037FEA226C02D15FEA402C08D1F8
:10072C007FEA236C02D15FEA412C02D14FF000002A
:10073C0070474FF0010070474FEA4002B2F1FE4F94
:10074C000FD34FF09E03B3EB12620DD94FEA002387
:10075C0043F0004310F0004F23FA02F018BF404260
:10076C0070474FF00000704712F1610F01D1420247
:10077C0005D110F0004008BF6FF0004070474FF0FB
:10078C000000704742000ED2B2F1FE4F0BD34FF077
:10079C009E03B3EB126209D44FEA002343F00043EB
:1007AC0023FA02F070474FF00000704712F1610F0E
:1007BC0001D1420202D14FF0FF3070474FF00000E0
:1007CC00704700BF0022427082700122C270022268
:1007DC00B1FA81F10271032249090170427170472B
:1007EC0043788B421FD0012941700AD0022910D0C6
:1007FC00C1B90123C37002238170037103234371B8
:10080C007047037843B1012383700223C370002324
:10081C00F3E70378002BF6D0022383700023C37018
:10082C000123EAE7FEE770470B8882B0ADF8003091
:10083C004B880239ADF80230CB88ADF804300B8907
:10084C00ADF80630831C063013F8012B0DF1080CA3
:10085C000CEB420232F8082C834221F8022FF3D120
:10086C0002B070477F2807D0002807DA10F1800FFC
:10087C0006D04042C0B2704700207047012070473C
:10088C007F20704710B1404240B270477F207047C4
:10089C007F280FD010F1310F0EDA10F1780F0DDB2D
:1008AC00FE23783040B2584346232330B0FBF3F09C
:1008BC00C0B27047FF207047FE2070470020704781
:1008CC00012805DD40F2FE73984203DC80B27047CC
:1008DC000120704740F2FF70704740F2AE73A0F5F4
:1008EC007870C0EBC02090FBF3F000F58060FFF750
:1008FC00E7BFFFF7F2BF032812DD0C2812DD0F282B
:10090C0012DD122812DD162812DD192812DD1C2822
:10091C0012DD1F2812DD2128CCBFFF2006207047D6
:10092C000020704701207047022070470820704754
:10093C00032070470720704704207047052070473C
:10094C00022807D0012807D040B1032814BFFF208C
:10095C008F207047132070471F207047012070476D
:10096C0002280AD0012805D030B1032814BFFF207B
:10097C000E20704703207047052070477F2808BF62
:10098C000020C0B270470000A0F16103192B0FD9F1
:10099C005F280DD02338C3B2162B97BF0548012012
:1009AC00D840C04398BF00F0010080F001007047B0
:1009BC000120704701EC7F00F8B5024600245F2748
:1009CC00451E461D15F8010FFF2804BF0134E4B283
:1009DC00FFF7DAFF00B92F70AE42F3D1062C04D129
:1009EC0019B10B6813608B88938000239371F8BD49
:1009FC002DE9F843012500264FF02808DFF82C904C
:100A0C00471E441D17F8011F08480BF0CCFD10B110
:100A1C00A0EB0900C0B2A0FB05038619A742A5FBF9
:100A2C000853EFD13046BDE8F88300BF74C7000807
:100A3C0010B54179A1F13000C3B2092B07D80523B9
:100A4C00B0FBF3F303EB8303C01AC0B210BD044C2C
:100A5C0020460BF0A8FD0028F1D0001BC0B2EEE739
:100A6C0074C7000870B50446FFF774FB002382B20C
:100A7C00561E98B2B04204EB000103DA255C013338
:100A8C00302DF6D0121A01322046BDE870400BF022
:100A9C0015BD00002DE9F04F0D4699B0164600210A
:100AAC001A461F4680460BF023FD00212A2201A87E
:100ABC0000910BF01DFDDFF8CC90DFF8CCA0DFF837
:100ACC00CCB005EB4606AE424AD047F6FF7335F97B
:100ADC00020B984244D0002812DC59460CA80BF0AB
:100AEC006FFD6846FFF736FB04460CA8FFF732FB98
:100AFC000444A742E7D368460CA90BF045FDE2E796
:100B0C00B0F57A7F0BDA0CA980B20AF084F80CA845
:100B1C00FFF7A8FF51460CA80BF036FDE1E7642463
:100B2C003230B0FBF4F00CA980B20AF074F80CA8C7
:100B3C00FFF798FF0CA8FFF70DFB00F15F036B4468
:100B4C0013F8302C00F160010DEB010000F8302C93
:100B5C002E2203F8302C0023494600F82F3CDAE70C
:100B6C006846FFF7F7FA30B100F160030DEB0300B4
:100B7C00002300F8613C694640460BF021FD19B09A
:100B8C00BDE8F08F6EC7000869C7000864C700088D
:100B9C00F0B589B06D4600242F468E1CE1B28A4216
:100BAC0005D936F82410013425F8021BF6E739462E
:100BBC00FFF770FF09B0F0BD42F21073B0FBF3F217
:100BCC00642103FB1200B0FBF1F301FB130000EBFB
:100BDC00023000EB831080B2704742F21071020BAE
:100BEC0000F03F0301FB02336422C0F3851002FBCB
:100BFC00003070472DE9F04142F21075B1FBF5F66B
:100C0C00642705FB161588B01A4904460BF0D8FC6E
:100C1C00694630460AF00DF86846FFF723FFB5FB2E
:100C2C00F7F6DFF85480694620460BF0ADFC4146E0
:100C3C0020460BF0A9FC6946304609F0FAFF6846DD
:100C4C00FFF710FF694620460BF09EFC41462046FC
:100C5C000BF09AFC694607FB165009F0EAFF684650
:100C6C00FFF700FF694620460BF08EFC08B0BDE88C
:100C7C00F08100BF33D2000872C7000870B50D4672
:100C8C000021044616460BF033FC00239AB2964220
:100C9C0004D9EA5C12B1E2540133F7E770BD70B5C8
:100CAC000E4614460021013205460BF021FC0023B0
:100CBC009AB2944204D9F25C12B1EA540133F7E7C8
:100CCC0070BD30B50023044698B290420ED2E55C5C
:100CDC00C85C1DB9B0FA80F0400930BD0028FCD0CA
:100CEC00854203F10103EFD00020F6E70120F4E781
:100CFC007D23438043F23903C360002309B2018092
:100D0C008180C3800372704702680449044B01FB65
:100D1C00023323F000430360180C7047FD430300BB
:100D2C00C39E2600F0B5002597B00160858004466F
:100D3C005622294668460BF0DBFB0126627DAA424F
:100D4C004BD92046FFF7E0FFE77900217B1B90FB96
:100D5C00F3F2EC4602FB13000A46C0B2CBB29F4240
:100D6C000AD91CF801EBBEF1000F03D1824204D06A
:100D7C000132D2B20131F1E7002300221146277B68
:100D8C00D0B2874206D92069805C0132984208BFF4
:100D9C000121F5E70029D1D1A2796119033A012A81
:100DAC0005D925B191F9152082B9012BC6D98B75BE
:100DBC00A26852F82310583305F10E026B4401352A
:100DCC0044F8221003F8586CEDB2B7E7501E83427A
:100DDC00EDDB01329342EADCB0E70023802104F121
:100DEC00B800237517B0BDE8F0400BF081BB2DE9BE
:100DFC00F047154696B0013D0160027104464371FF
:100E0C00EDB25622002168460BF072FB022D98BF02
:100E1C004FF003094FF0000794F807808ABF4FF09A
:100E2C000109B8FBF9F800253E464FF0010A627D36
:100E3C00B24250D92046FFF767FFA8EB060390FBA0
:100E4C00F3F2002102FB1300EC460A46C0B2CBB20F
:100E5C0043450AD21CF801EBBEF1000F03D18242CC
:100E6C0003D00132D2B20131F1E70020434528BF53
:100E7C004346844609FB035194F80CE0C9B2C2B254
:100E8C00964507D92269125C01308A4208BF4FF09F
:100E9C00010CF4E7BCF1000FC9D116B19FB9012BBD
:100EAC00C5D9A2199175A2681F4652F8211006F1F6
:100EBC000E0244F8221003F158026A44013602F87B
:100ECC0058ACF6B2B3E77A1E9342EADB7A1CD2B284
:100EDC009342E6DCABE70023802104F1B8002375D4
:100EEC0016B0BDE8F0470BF003BB0023C0E901339B
:100EFC0070470A2310B50446838002F051FF236823
:100F0C00E0809B6820469847A06010BD836870B550
:100F1C00002B04461ADD838843B1013B9BB28380CE
:100F2C00A3B903681B68BDE87040184703689B6849
:100F3C009847054602F034FFE388C01A281A0028A7
:100F4C00A06003DD236820465B68ECE770BD0823D6
:100F5C00484010F0800F4FEA400018BF5040013B52
:100F6C00C0B2F6D1704770B50C461D468E18B4420F
:100F7C0005D02A4614F8011BFFF7E9FFF7E770BD0F
:100F8C0010B50446022980EAE070A0EBE47068D149
:100F9C005AB9002CACBF7F233F239842A8BF1846F8
:100FAC00002C01DA40F0400010BD012A1AD1632850
:100FBC0005DC4000002CF7DA40F48070F4E740F2D6
:100FCC00F54398420CDCFFF783F95749FFF7D8F942
:100FDC000AF0C8F8FFF7D6FB400040F00100E9E743
:100FEC00FF20E7E7022A40F09C80632805DC8000A4
:100FFC00002CD9DA40F40070D6E7B0F57A7F0CDA21
:10100C00FFF766F94849FFF7BBF90AF0ABF8FFF7B1
:10101C00B9FB800040F00100EAE742F20F739842FE
:10102C000CD8FFF755F94149FFF7AAF90AF09AF8DD
:10103C00FFF7A8FB800040F00200D9E73C4B984238
:10104C000CD8FFF745F93B49FFF79AF90AF08AF8F3
:10105C00FFF798FB800040F00300C9E740F2FF1057
:10106C00C6E703295DD1012A1BD1B0F57A7F05DAD9
:10107C004000002C98DA40F4006095E7B0F5205F52
:10108C000CDAFFF725F92849FFF77AF90AF06AF824
:10109C00FFF778FB400040F00100EAE740F2FF70F8
:1010AC00E7E7022A3DD1B0F57A7F06DA8000002C02
:1010BC00BFF67AAF40F4805076E742F20F73984255
:1010CC000CDCFFF705F91849FFF75AF90AF04AF852
:1010DC00FFF758FB800040F00100E8E7164B984200
:1010EC000CD8FFF7F5F81149FFF74AF90AF03AF86E
:1010FC00FFF748FB800040F00200D8E7B0F57A2FEC
:10110C000CD2FFF7E5F80B49FFF73AF90AF02AF889
:10111C00FFF738FB800040F00300C8E740F6FF7093
:10112C00C5E7002040E700BFCDCCCC3D0AD7233C1F
:10113C0017F001006F12833A9F86010000230360B1
:10114C0070470000092928BF092138B5064B044611
:10115C001B780D468B4202D10023036038BD02F090
:10116C0043FD25712060F9E7AC000020036810B541
:10117C0004460BB9002010BD02F036FD2368C01ADE
:10118C0040F2EE239842F5D90023054A23601278E9
:10119C0023799A42EED0034A0120D377EBE700BFC4
:1011AC00AC000020DC000020FF2303710023C3806F
:1011BC000372704710B4047903468C4203D001715A
:1011CC0019B1012901D010BC70471B6810BC9B6879
:1011DC0018477047704770477047002070470020D1
:1011EC007047704700207047054B82B0DA690243A4
:1011FC00DA61DB6918400190019B02B0704700BFB7
:10120C0000100240054B82B09A6902439A619B69B7
:10121C0018400190019B02B0704700BF00100240C3
:10122C0000F10C0353E8003F43F0800300F10C0184
:10123C0041E80032002AF3D1704700F10C0353E867
:10124C00003F23F0200300F10C0141E80032002A9A
:10125C00F3D1704700F10C0353E8003F23F0400337
:10126C0000F10C0141E80032002AF3D1704700F183
:10127C000C0353E8003F23F0800300F10C0141E81C
:10128C000032002AF3D170470B4B0C4A1B6830B468
:10129C00A2FB03239B0C00FB03F2094D02F5FA722F
:1012AC00A5FB0232074992094C684B681B1B934201
:1012BC00FBD330BC704700BF1C00002083DE1B43F7
:1012CC00D34D6210001000E00288514081EA0111F8
:1012DC00C9B20B0983EA122343EA012383EAC10151
:1012EC000180704738B50C468D18AC4204D014F808
:1012FC00011BFFF7E9FFF8E738BD4FF6FF7337B571
:10130C000446ADF806304518AC4206D014F8011B63
:10131C000DF10600FFF7D8FFF6E7BDF8060003B0A5
:10132C0030BD000008B51E20FFF7AEFF4FF4805211
:10133C00034B28205A61BDE80840FFF7A5BF00BF4A
:10134C00000C014008B56420FFF79EFF4FF480525B
:10135C00024B1A61BDE80840FFF796BF000C014034
:10136C006421D0E90123D31AC3604B430349498C50
:10137C008260B3FBF1F30374704700BFAC00002034
:10138C00D0E90123D31AC0E902237047074B1B781D
:10139C004BB9074B1888074B80B21B889BB2C01AFD
:1013AC0018BF012070470020704700BF9318002021
:1013BC00A2250020A02500200020704700207047A7
:1013CC007047012070470023A0F86A32A0F86832F9
:1013DC0070470023A0F85A32A0F858327047037AAD
:1013EC003BB18389D31A9BB2B3F5FA7F84BF002338
:1013FC000372037A8281082B0FD8DFE803F0050E05
:10140C000E0E0E0E0F172200EE2901D0C82904D1A2
:10141C00012383720623C17303727047837A5A1CAB
:10142C0003448272D97307234172F5E7827A531C05
:10143C00DBB202448372D173427A9A42EDD2082312
:10144C00EAE7837A5A1C03448272D973437C162BC5
:10145C004FF001030CBF80F8103180F811310923D3
:10146C00DAE790F88F00B0FA80F0400970477047C7
:10147C00044B1B78022B06BF034B93F87200002021
:10148C00704700BF1104002098020020B0F86220C1
:10149C0010B5B0F86640531C2340B0F864409C4231
:1014AC001EBF121882F86810A0F8623010BDA0F1AF
:1014BC001000EBE7B0F86A32B0F86822D21A93B297
:1014CC00120441BFB0F86C0201301B189BB2181EFD
:1014DC0018BF01207047A0F11000EBE70346B0F8ED
:1014EC006A22B0F8681291421FBF811891F86E02FF
:1014FC00B3F86C1201321ABF0A40A3F86A2200201A
:10150C007047A0F11000E9E738B54A780D46352A46
:10151C00044601F10C010AD80AF0C2FF68780021D8
:10152C00C0F136022044BDE838400AF0E1BF403536
:10153C0051F8043BA94240F8043BF9D10B880380D5
:10154C0038BD38B54A780C461B2A054601F10C010A
:10155C000AD80AF0A5FF60780021C0F11C022844CB
:10156C00BDE838400AF0C4BF283451F8043BA1420E
:10157C0045F8043BF9D138BD38B54A780D46082AF0
:10158C00044601F10C010AD80AF08AFF68780021A0
:10159C00C0F109022044BDE838400AF0A9BFEB684D
:1015AC0003604B6843600B7A037238BD38B54A78D8
:1015BC000C46072A054601F10C010AD80AF070FF07
:1015CC0060780021C0F108022844BDE838400AF0D8
:1015DC008FBFE36803604B68436038BD6FF0200237
:1015EC00064B1A605B68064A52E8003F43F0200342
:1015FC0042E800310029F7D1704700BF0048004095
:10160C000C480040028810B58488531C2340448841
:10161C009C421EBF12189171038010BD0368DB68D9
:10162C001847000050294FEA10122CD018D8302936
:10163C002CD00DD810292CD041F6786343F6F0400D
:10164C00202908BF034617489040B0FBF3F07047C1
:10165C0041F6786347F61220402908BF0346F2E7AB
:10166C00802919D008D8602918D041F678630E4823
:10167C00702908BF0346E6E741F678630B489029CA
:10168C0008BF0346DFE74AF2E423DCE745F24013E8
:10169C00D9E742F6A003D6E7054BD4E74FF2244333
:1016AC00D1E700BF40420F0048E8010020A107002D
:1016BC0090D0030070477047064B1B7843B1002352
:1016CC00054A1380054A1380054A1380054A138086
:1016DC00704700BF93180020A0250020A2250020F1
:1016EC00A4290020A6290020054B1B783BB9054AEC
:1016FC001380054A1380054A1380054A13807047EE
:10170C0093180020A0250020A2250020A429002049
:10171C00A62900206FF02002064B1A605B68064A6F
:10172C0052E8003F43F0200342E800310029F7D192
:10173C00704700BF003801400C380140064B187848
:10174C0040B1064B1888064B80B21B889BB2C01A5E
:10175C0018BF0120704700BF93180020A22500205D
:10176C00A025002038B504464D1E15F8011F21B1E7
:10177C0023682046DB689847F7E738BD08B5FFF7C4
:10178C00F1FF08BD0120FFF73DBD00000D4B984255
:10179C0002D10420FFF736BD0B4B984205D003F560
:1017AC008063984203D11020F4E70820F2E7074B3E
:1017BC00984201D12020EDE7054B984200D07047AC
:1017CC004020E7E700080140000C014000140140F4
:1017DC00001801400B4B984203D14FF40060FFF707
:1017EC0011BDB0F1804F04D0074B984204D10220B8
:1017FC0000E00120FFF7F8BC044B984201D1042013
:10180C00F8E77047002C014000040040000800403D
:10181C002DE9F0410C46154686B0074610220021F2
:10182C0002A81E469DF834800AF062FE01940B2D2E
:10183C0007D8DFE805F00E0E070A14141416161656
:10184C001B1DFEE70823029303E0082302930123E8
:10185C000593032E0ED8DFE806F00E1E200E012392
:10186C00F1E70123029304230493F2E70923EAE747
:10187C000923F7E7FEE703230393B8F1000F02D027
:10188C003846FFF783FF053D042D0BD8DFE805F044
:10189C0007110A0711000223EEE70123ECE7C4F35A
:1018AC000F247C61384601A908F0F8FD06B0BDE8AC
:1018BC00F081C4F30F243C61F4E713B54FF0010C35
:1018CC000024CDE9004CFFF7A3FF02B010BD0000CF
:1018DC0070B50446164686B00D461422002101A8A8
:1018EC000AF006FE2046FFF775FF042E04D8DFE849
:1018FC0006F02A2E04323B00FEE71C4B1C4A1B68E8
:10190C00B3FBF2F39BB20022013B204601A9ADF8D8
:10191C000430CDE902250492059208F0FDFE2368FF
:10192C0023F080032360A36823F4804323F0070390
:10193C00A360636823F070036360A36823F08003E3
:10194C00A36006B070BD094B0A4A1B68D8E7074B69
:10195C00094A1B68D4E7054B064A1B68B3FBF2F334
:10196C0003EB83035B00CDE70123CCE71C000020D5
:10197C0080A8120140420F0000127A0010B50446F4
:10198C00FFF7A6FF236843F00103236010BD00227C
:10199C004FF0FF31FFF7F2BF1A4B10B55B681A4CD2
:1019AC00236007F01FFE194808F028FD184808F0BE
:1019BC0025FD184808F022FD174808F0ADFF174820
:1019CC0008F0AAFF08F0EEFD4FF0E02200231361AF
:1019DC005361936172B64FF0FF319A0002F160428D
:1019EC00013302F56142082BC2F88010C2F8801155
:1019FC00F3D162B6034B1B6883F3088823689847BE
:101A0C00FEE700BF00F0FF1F2C0300200008014080
:101A1C00000C01400010014000380140004400401F
:101A2C0010B50E4C032306220D490E48FFF745FF57
:101A3C002046032302220C49FFF73FFF0323052214
:101A4C0040F608010948FFF738FF2046BDE8104072
:101A5C000323052244F24001FFF72FBF0008014089
:101A6C00400040040010014080008004000C014044
:101A7C000822034B5A614022A3F580631A61704718
:101A8C00000C01404022034B5A610822C3F8102479
:101A9C00704700BF00080140104A4FF47041536971
:101AAC0023F4704391FAA1F153610D4B5A6822F45F
:101ABC0000425A601A6822F400421A60DA6822F472
:101ACC000042DA609A6842F400429A60D022054BD8
:101ADC0083F828234FF480725A607047000001404D
:101AEC000004014000E100E04FF40042034B5A6156
:101AFC001A6842F400421A60704700BF00040140AB
:101B0C000023032201490248FFF7D7BE010001045C
:101B1C0000080140024B9868C043C0F30020704796
:101B2C000008014010B50A4C002305222046094943
:101B3C00FFF7C3FE0023052220460749FFF7BDFE31
:101B4C004FF4805363614FF40063636110BD00BFB9
:101B5C000008014010001004080008040549CB6877
:101B6C001A04DB4302F0805203F4805313430B61DD
:101B7C00704700BF000801400549CB681A04DB43DD
:101B8C0002F0006203F4006313430B61704700BF63
:101B9C00000801400123032210B50F490F48FFF73D
:101BAC008CFE102300220D4CA168013BC9045CBFC4
:101BBC000132D2B213F0FF03F6D1082A94BF0022EF
:101BCC000122074905480A7005220349FFF775FEF3
:101BDC004FF48053636110BD1000100400080140E5
:101BEC009318002010B5054C00230522204604490B
:101BFC00FFF763FE4FF40073636110BD000C0140EE
:101C0C00020002044FF40072024B1628CCBF1A617A
:101C1C005A617047000C014037B504461C2C0D4628
:101C2C0018461ADD1E23137040F6CA0240F6E44330
:101C3C00C2EB0222B2FBF3F2C2F30B138DF80430A9
:101C4C00036812015C688DF8052002230C2101AA9F
:101C5C00A04700232B7003B030BD192C04DD1B23CF
:101C6C00137040F2C262E1E7162C04DD18231370E6
:101C7C0040F2C352DAE7122C04DD1423137040F245
:101C8C00AB42D3E70F2C04DD112313704FF47A729F
:101C9C00CCE70C2C04DD0E23137040F26B32C5E73D
:101CAC00052CCBBF0A23032313701370CCBF4FF446
:101CBC0034726422BAE700000C4BD3F8FC2022F0FB
:101CCC008072C3F8FC20D3F8FC2042F08072C3F879
:101CDC00FC20A3F55D431A6822F001021A601A6811
:101CEC0042F001021A6000225A60704700ED00E0D9
:101CFC00064B074A1B680749B3FBF2F3434310B585
:101D0C004C684A68121B9A42FBD310BD1C00002081
:101D1C0040420F00001000E02DE9F04180464CF2EB
:101D2C0050300D4616461C4607F044FD68BBB8F112
:101D3C00010F06D0B8F1020F0CBF4FF002084FF0A4
:101D4C0004080027124A136943F001031361380198
:101D5C00C0F12002A0F1200304FA02F226FA00F0EE
:101D6C00104324FA03F3184380B225F817004CF201
:101D7C00503007F01FFD18B90137FBB24345E6D3CD
:101D8C00034A136923F001031361BDE8F08100BF1E
:101D9C00002002407FB501230022CDE9040301A9F4
:101DAC0002A8CDE9022307F041FD00280CBF042056
:101DBC00052007B05DF804FB0A4608B50146002370
:101DCC000220FFF7A9FF00280CBF0420052008BD46
:101DDC0008B5FFF7DFFF031F5842584108BD08B58F
:101DEC00FFF7EAFF031F5842584108BD2DE9F047A1
:101DFC00254B264D01280FBF7D267C26AA461D4665
:101E0C000F4614462249234A06BF89469A469146F4
:101E1C0007F0B4FC31462846FFF7DAFF10B3002F69
:101E2C0008BF4FF478744FF000080334A40805F190
:101E3C001006AAEB050A1FFA88F39C4218D93FB981
:101E4C005AF806104B1C06D108F101080436F2E7CB
:101E5C0057F82810F6E74E4513D23046FFF7BFFF70
:101E6C000028F1D1002407F09BFC2046BDE8F08748
:101E7C004FF011312846FFF7B2FF0028F2D00424AE
:101E8C00F1E70324EFE700BF00F0010800F40108BC
:101E9C00FFF70108FFF3010810B507F06FFC7C2178
:101EAC000748FFF795FF20B17D210648FFF790FF0B
:101EBC0020B9002407F074FC204610BD0424F9E777
:101ECC0000F0010800F40108002330B5074A084D62
:101EDC009CB2A14206D99C18AC4205D09C5CC4545F
:101EEC000133F5E7042030BD0320FCE710F00108B6
:101EFC00FFF3010838B504460D4672B60A46014692
:101F0C000020FFF773FF62B6042806D172B60120D9
:101F1C002A462146FFF76AFF62B638BD38B5124B28
:101F2C001C68D3F80054B4F1113F09D1B5F1113F3D
:101F3C0017D0002201201146BDE83840FFF756BFEC
:101F4C00B5F1113F03D1002211461046F4E7FFF71B
:101F5C00A3FF042804D12C4001340CBF0220012023
:101F6C0038BD0420FCE700BF00F00108034B1873D8
:101F7C009A68D207FCD5187B704700BF0038004028
:101F8C0038B5441E8D18A94206D014F8010FFFF77E
:101F9C00EDFF01F8010BF6E738BD084611461A466D
:101FAC00FFF7EEBF70B58CB0274C2822002102A899
:101FBC000AF09EFAFFF7E6FB4FF48040FFF714F9A6
:101FCC002249204603230622FFF777FC062501262B
:101FDC004FF48053204623610A2203231C49CDE988
:101FEC000056FFF715FC204603230A221949CDE9B8
:101FFC000056FFF70DFC032320461A461649CDE97F
:10200C000056FFF705FC0822002308924FF4827259
:10201C00CDE90533CDE909330293039204934FF4D0
:10202C0000720723A4F55444204602A90B9307928F
:10203C0008F046FB236843F040032360A3689B072A
:10204C00FCD5237B0CB070BD000C014010001004BB
:10205C002000200480008004400040041C4B10B47D
:10206C001A68940611D5D96888060ED5194C1A48E9
:10207C005968238800880133C3F30A0380B298425D
:10208C001FBF1648C9B2C1542380110744BF104B5F
:10209C005B68120616D50E48C3681B0612D5104B8A
:1020AC00104A1988138889B29BB299420CD01388B4
:1020BC000133C3F30903138013880B4A9BB2D35C1F
:1020CC00DBB2436010BC704710BCFFF7D0B800BF48
:1020DC0000380140A2250020A0250020A01D0020D2
:1020EC00A6290020A4290020A42500200A490B4A77
:1020FC0008B50B8812880133C3F3090392B29A42D4
:10210C0007D0074AD05407480B80FFF789F8012005
:10211C0008BD0020FCE700BFA6290020A429002050
:10212C00A425002000380140034B08461B780BB94E
:10213C00FFF7DCBF704700BF93180020034B084625
:10214C001B780BB1FFF7D2BF704700BF931800206C
:10215C00054B064A1B8812889B1A98B21B0444BF75
:10216C0000F5006080B27047A2250020A025002059
:10217C00024B187808B1FFF7EBBF7047931800209B
:10218C000848094A0188138889B29BB29942F9D050
:10219C0013880133C3F30A0313801388034A9BB2D9
:1021AC00D05C7047A2250020A0250020A01D002097
:1021BC00024B187808B1FFF7E3BF70479318002063
:1021CC00034B1B780BB9FFF7DBBF0020704700BF38
:1021DC0093180020002300B5002989B0CDE90633FF
:1021EC0018BF4FF48053CDE902320C2301900491B7
:1021FC00034801A9059308F0C1FB09B05DF804FB85
:10220C000038014010B5064CE36823F40053E3603A
:10221C00FFF7E0FFE36843F40053E36010BD00BF39
:10222C0000380140044B08461B781BB100221146B4
:10223C00FFF7E8BF704700BF93180020002211463B
:10224C00FFF7E0BFF7B5082601272E4C2E4DE368AB
:10225C002E4923F40053E360FFF794FA4FF48040C7
:10226C00FEF7D0FF284603230A22CDE90067FFF7CB
:10227C00CFFA032328461A46CDE900672449FFF715
:10228C00C7FA00224FF4E1301146FFF7A3FFB0224A
:10229C00236923F490432361636923F02A03636168
:1022AC001C4B83F8252320225A602046FEF7DFFFC3
:1022BC00FEF7D0FF6FF0400323600024164B1C8008
:1022CC00164B1C80FEF7B9FF6FF020030360144B14
:1022DC001C80144B1C80036923F400630361436965
:1022EC0023F008034361036923F4804303614369CA
:1022FC0023F022034361C36843F40053C36003B06B
:10230C00F0BD00BF0038014000080140020002048B
:10231C000400040400E100E0A4290020A629002008
:10232C00A0250020A225002008B5FFF78BFFBDE8F3
:10233C000840FFF7EFB9000008B5FFF7F5FFFFF70E
:10234C0029FC054B1B782BB9BDE808404FF4E13054
:10235C00FFF774BF08BD00BF931800200E48036838
:10236C001A0618D5C3681B0615D50C4B0C4A1988D0
:10237C00138889B29BB299420BD013880133C3F3F3
:10238C00080313801388074A9BB2D35CDBB243600B
:10239C007047FEF76CBF704700440040AA2B00202A
:1023AC00A82B0020A82900200A490B4A08B50B8845
:1023BC0012880133C3F3080392B29A4207D0074A3A
:1023CC00D05407480B80FEF72BFF012008BD0020DE
:1023DC00FCE700BFAA2B0020A82B0020A829002076
:1023EC00004400400846FFF7DFBF0000002300B5A3
:1023FC00002989B0CDE9063318BF4FF48053CDE9DD
:10240C0002320C2301900491034801A9059308F0B2
:10241C00B5FA09B05DF804FB0044004013B5264C36
:10242C0040F20441E36823F40053E360FFF7AAF998
:10243C004FF40030FEF7D8FE082301221F48CDE9E7
:10244C00003203230A22FFF7E3F900224FF4E130B4
:10245C001146FFF7CBFFF022236923F4904323614D
:10246C00636923F02A036361154B83F8262340220A
:10247C005A602046FEF7FBFEFEF7ECFE6FF04003C1
:10248C00236000230F4A13800F4A1380236923F41F
:10249C0000632361636923F008036361236923F4F8
:1024AC0080432361636923F022036361E36843F48F
:1024BC000053E36002B010BD00440040000801402E
:1024CC0000E100E0A82B0020AA2B0020FFF7A6BFFC
:1024DC007FB500250126044644F24001FFF752F96E
:1024EC0002230B220F48CDE90056FFF791F9022386
:1024FC000B2248F28001CDE900560A48FFF788F913
:10250C002268094B9A420AD103F5DE33DA6942F4A8
:10251C000012DA61DB6903F400130393039B04B02C
:10252C0070BD00BF000C0140005400400848094B2E
:10253C004FF4804203600023C0E90332064AC0E92D
:10254C000533C0E90733C0E9012307F0B3BA00BF74
:10255C004C09002000540040801A060013B50B46AD
:10256C00054902460C784FF0FF3104480091610098
:10257C0007F048FB02B010BDA00900204C09002058
:10258C00007910B50C46194638B1044B10461C7036
:10259C00FFF7E4FFB0FA80F0400910BDA00900205D
:1025AC00044B0A22197804484FF0FF33490007F016
:1025BC0001BC00BFA00900204C09002008B5FFF7A2
:1025CC00B5FF0022014B1A7008BD00BFA009002006
:1025DC0010B50446FFF7F2FF0C22044B1A70FFF7FC
:1025EC00DFFFB0FA80F35B09237110BDA009002056
:1025FC0070B51B4C1B4B20469022002140F8043B2D
:10260C0009F076FF0622184EA0182C233146FEF74F
:10261C00BFFA4FF440334FF6FF75144A3146C4E904
:10262C000D2304F13E002C230622A587FEF7B0FAF9
:10263C000223E36600230E4904F17A0084F8723019
:10264C006367A4F87830A4F8705009F0B9FF7F23C1
:10265C0084F88F3040F20333A4F8903070BD00BF83
:10266C009802002006000400ACD5000802000B0004
:10267C00CCC7000870B5094E05460C46415C304687
:10268C0009F091FF034628B1831B0133DBB2282BE1
:10269C0028BF0023F35C2B5570BD00BFA4DC0008E1
:1026AC0070B50C461146064609F08AFF44B1002568
:1026BC00052130460135FFF7DDFFEBB29C42F7D820
:1026CC0070BD000073B5054605F111061D4C0146A1
:1026DC001D4A68463601FFF7E3FFB01C69462044EB
:1026EC0009F06EFF022314202644737240F203217A
:1026FC00002300FB054004EB0512A2F81A3101225D
:10270C00C1640421A0F84A2080F85010A0F852307F
:10271C004FF48071A0F8543084F8333084F83030A2
:10272C00C4F83A30C4F83E30C4F8423040F20113D9
:10273C00E284064AA4F84630C4E90A12A4F84830E8
:10274C0002B070BDDC0000209DC700080301010031
:10275C00F7B5054605F11106BE4C0146BE4A684662
:10276C003701FFF79DFFB81C694627442044FEF74C
:10277C0023F97B7A04EB0611052B84BF02237B72B1
:10278C00B64B487A1A880241D7075CBF02224A72BC
:10279C0004EB051191F81A012A01032802D9002033
:1027AC0081F81A01A018598890F81A713941C90793
:1027BC0002D4022180F81A11A11891F81B010328E8
:1027CC0002D9002081F81B01A018998890F81B7180
:1027DC00394111F0010101D180F81B1104EB0616EF
:1027EC00717A012905D904291EBF0021121982F81A
:1027FC001B11142202FB054191F84A00052802D94D
:10280C00012081F84A0002FB054292F84B10022984
:10281C0002D9002182F84B10142202FB0546988E37
:10282C0096F84B1040FA01F1CF0702D4012186F83B
:10283C004B1002FB054292F85510022902D90021D7
:10284C0082F85510142202FB054696F8551040FAF2
:10285C0001F1C90702D4012186F8551002FB05428B
:10286C0092F84C10032902D9032182F84C10142140
:10287C0001FB0540DA8E90F84C60324112F00102F7
:10288C0001D180F84C2001FB054191F84E20012A22
:10289C0002D9002281F84E20142101FB05401A8F29
:1028AC0090F84E60324112F0010201D180F84E20B6
:1028BC0001FB054191F84F20022A02D9002281F830
:1028CC004F20142101FB05405A8F90F84F60324184
:1028DC0012F0010201D180F84F2001FB054191F863
:1028EC004D20022A02D9022281F84D20142202FB2B
:1028FC00054191F85000052802D9042081F85000B8
:10290C0002FB054292F85210012902D9002182F8EB
:10291C005210142202FB054292F85310022902D9DC
:10292C00002182F85310142101FB05409A8F90F876
:10293C005360324112F0010201D180F8532001FBA7
:10294C00054191F85420022A02D9002281F8542022
:10295C00142202FB054292F84F10012906D192F87D
:10296C004C10032904BF002182F84C1094F8262047
:10297C00052A02D9012284F8262094F82720022A5D
:10298C0002D9002284F82720B3F86C3094F8272061
:10299C0043FA02F2D00702D4012284F8272094F8DB
:1029AC003320022A02D9002284F8332094F83320F1
:1029BC001341DE0702D4012384F8333094F8283015
:1029CC00022B02D9002384F82830224B93F82920BB
:1029DC00022A02D9012283F82920204993F82900E0
:1029EC00B1F86E20024112F0010201D183F82920C6
:1029FC0093F82A200C2A02D9002283F82A2093F873
:102A0C0032200C2A02D9002283F8322093F82B2092
:102A1C00042A02D9002283F82B2093F82F20012AB4
:102A2C0002D9002283F82F20B1F8702093F82F10D0
:102A3C000A4112F0010201D183F82F200C22002050
:102A4C00074911F9014B14F1780F0BDA01F8010C5D
:102A5C000AE000BFDC0000209DC70008980200209F
:102A6C0016010020782CF1DC013A12F0FF02E8D1BB
:102A7C0004220120214911F8014B013A022C88BF94
:102A8C0001F8010C12F0FF02F5D193F82C20052A65
:102A9C0002D9032283F82C2093F82D20012A02D985
:102AAC00012283F82D2093F82E20022A02D901222C
:102ABC0083F82E2093F83020022A02D9002283F8C2
:102ACC0030201421FF226943581880F851204FF60A
:102ADC00FF7083F831204FF0FF3203EB05155631B0
:102AEC00A5F8200158181A629A84C5F81C215A506E
:102AFC0042605A631A8703B0F0BD00BF2201002068
:102B0C00104B9870032803D8DFE800F0030A101666
:102B1C00FEE70D4A1A620022DA700A221A71704717
:102B2C000A4A1A620022DA700F22F7E7084A1A6280
:102B3C000022DA701922F1E7064A1A620022DA70D2
:102B4C000322EBE7AC0000201400320020001F0031
:102B5C003500130007008F002DE9F34100F1110738
:102B6C00604E3F0107F10208B04405464046FDF7B0
:102B7C003FFF042101900DEB0100FEF7BEFB5A4C08
:102B8C00019B3744A360142303FB056393F84A208D
:102B9C00564BA08113F8223023764FF00113A36219
:102BAC007B7A2F01637006EB051393F81A01FFF77C
:102BBC00A7FFA38923610023637563781BB9404683
:102BCC00FDF736FF6075374497F81B21227562B10B
:102BDC00A18902EB021303EB03230B444FF01131D9
:102BEC00A381A36801FB0233A3606378052B04D88F
:102BFC00DFE803F004323436383EFEE7A378032BCB
:102C0C0003D8DFE803F003252703FEE71823E3814D
:102C1C0040F2E243E089A384FDF75EFB4FF07F5165
:102C2C00FDF7AEFBFDF7AEFD4FF47A73228CC0B20C
:102C3C00B3FBF2F3E382142303FB056393F85030E8
:102C4C00E084052B40D8DFE803F01536393C3F42D1
:102C5C001223DCE70C23DAE71923D8E70623D6E79F
:102C6C000223D4E7A378012BF2D0022BF2D0FEE79B
:102C7C000323CCE74FF41653E3610023A3851423FD
:102C8C0003FB056393F84F20012A23D093F84C30B3
:102C9C00012B1FD0142000FB056595F84C30032B3D
:102CAC0002D1012384F82D3094F82C30BBB194F868
:102CBC002D30A3B1FEE74FF49643DDE74FF41643F6
:102CCC00DAE74FF46143D7E74FF4E133D4E74FF43D
:102CDC006133D1E701239A4284F82C30DAD102B067
:102CEC00BDE8F081DC000020AC000020ACD5000871
:102CFC004FF4DE72FF21014809F0FABBDC00002022
:102D0C004FF4DE710148FFF7F5B800BFDC0000207E
:102D1C004FF4DE710148FFF7D7B800BFDC0000208C
:102D2C0008B5FFF7F5FF034B1878BDE80840FFF72F
:102D3C000FBD00BFAC00002038B5FFF7D9FFFFF77F
:102D4C00EDF804280CD0FFF7D3FFFFF7E7F80428C1
:102D5C0003D1FFF7DDFF042806D0FFF7C9FF03E01E
:102D6C00FFF7D6FF0428EED140F24912384CA38A63
:102D7C0093423CD0B3F5A47F35D8062204F116015A
:102D8C0004F58970FDF78BFF637F84F81931A37FFD
:102D9C0084F81A31012528460135EDB2FFF792FC73
:102DAC000A2DF8D10023E37740F249130125A382C1
:102DBC0040F24D13226927499A4225484FF01002E0
:102DCC001CBF0125236109F003FC90B1102221499D
:102DDC001F48FDF753FF08221F492048FDF74EFFFF
:102DEC00FFF78EFF07E00020FFF76CFCD2E7002511
:102DFC00DEE7002DF4D1E37F092B84BF0023E377BA
:102E0C001423E27F03FB024292F84C1001F0FD0305
:102E1C00012B4FF0000316D10D4992F84C000133F1
:102E2C000A2B81F84C0001F11401F6D10C4DE37F13
:102E3C002B70FFF7DDFB2878FFF78AFC2878BDE8BC
:102E4C003840FFF789BE84F84C10E377EEE700BFFB
:102E5C00DC000020A4C70008B5C700088E020020C3
:102E6C00AC00002037B50C4605468B784A780978BB
:102E7C0008F051F8E37928460193A3792279E17897
:102E8C000093637908F077F861782078FEF7CAFB35
:102E9C00686103B030BD000013B504460B4B084607
:102EAC0004F1110204F11001FEF7B6FE20463223A4
:102EBC003F220B2107F089FF092370220093802108
:102ECC002046237C08F0B5F802B010BD580800204D
:102EDC00F7B5044607F0AAFF80238DF807300123CD
:102EEC000DF1070219461F4D204607F01BFF204627
:102EFC0007F0A2FF1C4EEB78204606EB03135F781D
:102F0C00394607F0B6FF3946204607F0C3FF0322C7
:102F1C002021204607F0A7FF04230C22262120465F
:102F2C0007F053FF95F918102046FFF7B5FFED7821
:102F3C0005B1FEE731462046E660FFF793FF2A46CF
:102F4C002946204607F0DAFF20462B46C022C8212E
:102F5C0008F03DF8FF21204603B0BDE8F04008F032
:102F6C0053B800BFAC0000206CEE000810B504464E
:102F7C0007F062FF2046BDE81040FF2108F044B87E
:102F8C0038B50B4D0B4B00F1110200F1100104464A
:102F9C0095F91800FEF740FEEB7803B1FEE7064BFF
:102FAC0090216020E360FEF73DFB606138BD00BFFF
:102FBC00AC000020580800206CEE000810B5054C41
:102FCC00E36813B92046FFF7DBFFE3689868A0F5C8
:102FDC007A7010BD581A0020C36810B504460BB99E
:102FEC00FFF7CEFFE368B3F90C0010BDC36810B552
:102FFC0004460BB9FFF7C4FF94F9110010BD012270
:10300C0030B5A1F12103C1F1210422FA04F44D1EC3
:10301C0002FA03F32343AA404FF0FF344FF0FF357D
:10302C00C0E90223C0E90445C0E90623017080F819
:10303C00201030BD002201231146F0B5D0E90276F4
:10304C00D0E904549F4276EB020C0BD303EA050C37
:10305C0002EA040E5CEA0E0C1CBF013189B2DB18CB
:10306C005241EFE7D0E90632DB1852419F4280F81B
:10307C00201076EB02010AD3C0E90632D0E9062310
:10308C0025EA020524EA0304C0E90454F0BD012238
:10309C000023C0E90623F1E790F8D8305BB190F833
:1030AC00D930074A180102EB03139B68197813589F
:1030BC0053F821007047037D0E3350F823007047FE
:1030CC004CD500082DE9F3410446164688469DF878
:1030DC0024705B22402F4FF000011D4628BF402773
:1030EC0009F006FA8E4B9B8923803278A37862F321
:1030FC000203A3707378DB0003F0080343EA0811A2
:10310C00A37803F007031943A1707279E37862F393
:10311C000003E370B279637962F38613637196F9F5
:10312C000200FDF79FFBE37860F34703E370F2784E
:10313C00237962F306032371337903F001022379B7
:10314C0003F07F0343EAC21323713379C3F34502BF
:10315C00637923F03F0313436371A37967F3470348
:10316C00A3712B78AA78E3716B7802F01F0203F03D
:10317C00070343EAC20323726B88C3F34512637AD5
:10318C0023F03F03134363722B7903F00302637A3A
:10319C0003F03F0343EA82136372AB88C3F38703E4
:1031AC00A3726B79C3F38002E37A23F00103134318
:1031BC00E372AB7903F07F02E37A03F0010343EA95
:1031CC004203E372EB88C3F3C312237B23F00F0398
:1031DC00134323732B7AAA7AE3736B7A02F01F02E0
:1031EC0003F0070343EAC20323746B89C3F345124C
:1031FC00637C23F03F03134363742B7B03F00302C4
:10320C00637C03F03F0343EA82136374AB89C3F31B
:10321C008703A3746B7BC3F38002E37C23F001036D
:10322C001343E374AB7B03F07F02E37C03F00103F5
:10323C0043EA4203E374EB89C3F3C312237D23F007
:10324C000F03134323752B8ADB0863756B8ADB082A
:10325C00A375AB8ADB08E375EB8ADB0823762B8B33
:10326C00B3F5C06F3AD2B3F5007F94BF00230123AE
:10327C00227B63F3051222736B8BB3F5C06F2FD2D5
:10328C00B3F5007F94BF00230123227B63F38712E5
:10329C002273AB8BB3F5C06F24D2B3F5007F94BF10
:1032AC0000230123227D63F305122275EB8BB3F50A
:1032BC00C06F19D2B3F5007F94BF00230123227D88
:1032CC0063F38712089B22751F4404F11902BB4259
:1032DC000CD013F8011B02F8011BF8E70223C7E717
:1032EC000223D2E70223DDE70223E8E74FF6FF7360
:1032FC0021460DF106000D22ADF80630FDF7F2FF68
:10330C002146BDF806304C2221F80D3FFDF7EAFFAF
:10331C00BDF80630A4F8593002B0BDE8F08100BF0A
:10332C00AC00002013B59DF81040CDE900341346D5
:10333C000A460021FFF7C6FE02B010BD13B5144BB0
:10334C0002889B8904469A421DD1837803F0F003CE
:10335C00102B01D0202B18D1A379A52B15D84FF603
:10336C00FF730DF1060059222146ADF80630FDF72A
:10337C00B9FFB4F85900BDF80630984214BF0420C8
:10338C00002002B010BD0120FBE70220F9E700BFCE
:10339C00AC00002030B5364B027893F8261000F1C3
:1033AC00170461F30302027093F8271061F30712FC
:1033BC00027093F83310827961F30712827193F8DB
:1033CC002810427861F30302427093F8291061F3DC
:1033DC000712427093F82A10827861F3030282700C
:1033EC0093F83210827961F30302827193F82B10F7
:1033FC00827861F30712827093F82C10C27861F313
:10340C000302C27093F82D1061F30712C27093F887
:10341C002E10027961F30302027193F82F1061F3FD
:10342C000712027193F83010427961F30302427172
:10343C0003F13A0100F10B0211F9015B02F8015B97
:10344C00A242F9D193F84610C27D61F30102C27514
:10345C0093F8471061F38302C27593F8481061F337
:10346C000512C27593F8493063F38712C27530BDEB
:10347C00DC0000200278314BC2F3030230B583F834
:10348C002620027803F13A01C2F3031283F82720B5
:10349C00827900F11704C2F3031283F833204278C7
:1034AC00C2F3030283F828204278C2F3031283F894
:1034BC0029208278C2F3030283F82A208279C2F38E
:1034CC00030283F832208278C2F3031283F82B2094
:1034DC00C278C2F3030283F82C20C278C2F3031221
:1034EC0083F82D200279C2F3030283F82E2002798F
:1034FC00C2F3031283F82F204279C2F3030283F83C
:10350C00302000F10B0212F9015BA24201F8015BC1
:10351C00F9D1C27DC2F3010283F84620C27DC2F309
:10352C00810283F84720C27DC2F3011283F8482040
:10353C00C27DC2F3811283F8492030BDDC0000202B
:10354C001FB58DF80C300123019303AB0093134688
:10355C000A460221FFF7B6FD05B05DF804FB00003A
:10356C000123F0B5224D044685F8723085B0B0F8D1
:10357C000900FDF732FB6E466867B4F80B30142275
:10358C0004F10D0105F17A00A5F87830FDF787FB01
:10359C0094F9213004F1230085F88F3094F822300F
:1035AC0004F1510785F8903094F8583085F8913033
:1035BC00FFF760FF04F1410332461868596808337D
:1035CC0003C2BB421646F7D12C2308226946094890
:1035DC00FDF760FA94F85130A5F86C3094F852303D
:1035EC00A5F86E3094F85330A5F8703005B0F0BDE6
:1035FC0098020020D60200202DE9F0474FF0400A37
:10360C0092B00DF1080906460F469046002152462D
:10361C00484608F06DFF2223194C1A4D21780DF104
:10362C000A0005EB0111062201F589718DF80830AD
:10363C00FDF724FB237805A805EB031205EB031516
:10364C0095F8194192F81B119DF8113092F81A2136
:10365C0004F00F0444EA021461F303038DF81130F3
:10366C008DF81040FFF796FE43463A46022130464D
:10367C00CDE9009AFFF726FD12B0BDE8F08700BF38
:10368C00AC000020DC00002010B50446FDF768FEFD
:10369C0004F11400FDF764FE04F12800FDF760FE50
:1036AC0004F13C00FDF75CFE04F15000FDF768FEF0
:1036BC0004F16400FDF764FE10BD000000230A4A0B
:1036CC008380126883718260084A83810384136843
:1036DC0003615368064A4361136883615368C3618D
:1036EC004EF6602303607047B82B0020BBC7000860
:1036FC00C4C7000810B50C4C0220FFF701FA204695
:10370C00FFF734FC03212046FFF7C6FB074BDB78A1
:10371C0003B1FEE706492046E160FFF7A3FB204614
:10372C00FFF724FC10BD00BF581A0020AC0000208D
:10373C006CEE000808B5274B0246196890F820304B
:10374C0073BBFEF7E7F930B982F8210092F820300C
:10375C00002B36D00AE092F8213001335BB2032BF8
:10376C0082F82130F2DD012382F820309368CB1AE5
:10377C00B3F57A6F01D90123537113791BB3164B2F
:10378C00517B1B7819B1022B1CBF03211173991E9D
:10379C004B424B41537393790BB10323137308BD05
:1037AC00FEF7B8F918B1042382F82130CEE792F86D
:1037BC002130013B5BB2002B82F82130C6DC82F851
:1037CC0020009160D9E75379002BE8D001231371C5
:1037DC00E4E700BFB82B0020110400200346007B57
:1037EC00821E012A4FF0000202D893F8201009B96A
:1037FC001A737047104670470A4A38B51388044646
:10380C0001339BB2502B0D4601D8138038BD0023D9
:10381C0005491380FDF7A6FF29462046FDF7A2FFB8
:10382C00F4E700BF6808002036C800082DE9F74F00
:10383C0016460546884600277049FDF793FF31462A
:10384C002846FDF78FFF6E4BB8F1010F6D4C1F80B2
:10385C0011D14FF480534FF40067636146F2A81006
:10386C002761FEF745FA6761FEF742FA31462846B2
:10387C00FFF7C2FFF2E7B8F1020F11D14FF400636A
:10388C004FF48057636146F2A8102761FEF730FAB7
:10389C006761FEF72DFA31462846FFF7ADFFF2E7D8
:1038AC00B8F1030F11D14FF480534FF4006723612B
:1038BC0046F2A8102761FEF71BFA6761FEF718FAAB
:1038CC0031462846FFF798FFF2E7B8F1040F11D103
:1038DC004FF400634FF48057236146F2A810276120
:1038EC00FEF706FA6761FEF703FA31462846FFF742
:1038FC0083FFF2E7B8F1050F14D14FF400684FF4D1
:10390C00805746F2A810C4F810802761FEF7F0F932
:10391C00C4F814806761FEF7EBF931462846FFF7CF
:10392C006BFFEEE7B8F1060F14D14FF400684FF4BB
:10393C00805746F2A810C4F810806761FEF7D8F9DA
:10394C00C4F814802761FEF7D3F931462846FFF7F7
:10395C0053FFEEE7A8F10A03042B40D84FF4805B29
:10396C004FF40069A8F1090A5FFA8AFA0423574553
:10397C0038BFC4F810B0019346F2A810C4F81090E8
:10398C00FEF7B6F9C4F81490FEF7B2F931462846A2
:10399C00FFF732FF019B013B13F0FF03EBD1042334
:1039AC00C4F814B0019346F2A810C4F81090FEF7B6
:1039BC009FF9C4F81490FEF79BF931462846FFF79F
:1039CC001BFF019B013B13F0FF03EBD10137A8F167
:1039DC000803FFB2DBB2BB4238BF0027C6E74FF487
:1039EC00006323614FF4805323614CF25030FEF797
:1039FC007FF931462846FFF7FFFEF6E736C8000888
:103A0C0068080020000801406FF00102094B0A49C8
:103A1C001A610A88013A92B20A800A8892B23AB9BB
:103A2C00DA6822F00102DA601A6822F001021A60E8
:103A3C00704700BF002C0140620300206FF00102B0
:103A4C00054B1A61DA6822F00102DA601A6822F07A
:103A5C0001021A60704700BF002C014010B51F4CCA
:103A6C0088B0FFF7EBFF40F2022101230A221C4829
:103A7C00FDF723FF204600224FF47A71FDF728FF53
:103A8C000023CDE90133039360234FF4807100933D
:103A9C0002236A462046CDE905310493079106F0CE
:103AAC0073FE104A536823F0040353600E4A5368A4
:103ABC0023F0E06323F0C00343F0E06343F04003E2
:103ACC005360E022636C43F400436364074B83F858
:103ADC0019234FF000721A6008B010BD002C014081
:103AEC00000C0140182C01400000014000E100E0F6
:103AFC00074BB3FBF1F1074BD9624908D9631A683C
:103B0C0042F001021A601A6A42F480621A6270472B
:103B1C0040420F00002C01400D480E4BB0FBF1F061
:103B2C0051434FF47A72B1FBF2F1D8624008D8637A
:103B3C0019630121084A11801A680A431A601A6A2B
:103B4C0042F480621A62DA680A43DA60704700BF96
:103B5C0040420F00002C01406203002019B94FF4C1
:103B6C00FA71FFF7C5BF182905D84FF4FA724FF454
:103B7C00FA71FFF7D1BF4A2901D8FA22F7E7632976
:103B8C0001D83222F3E7FFF759BF0000044B1B6842
:103B9C00DB0704D428224FF4FA71FFF7BDBF70473E
:103BAC00002C014010B5044694F9013008468B42B4
:103BBC0001D1237823B901232370FEF723F8607019
:103BCC0010BD0000054A064B11681B780B441360AE
:103BDC00044A136801331360704700BFB82B0020F0
:103BEC002000002064080020014B1868704700BFBB
:103BFC00B82B002037B50C461D4668B907480DF1A7
:103C0C0006020DF1070107F047FA2B4622469DF8F4
:103C1C000610024807F0FAF803B030BD581A00201D
:103C2C0038B50C461546014690B9FDF721FF0A48F8
:103C3C002B46224607F0DAF8FF21074807F0E4F993
:103C4C00054807F009FABDE838407D20FEF750B86A
:103C5C000148FFF78BF938BD581A00202DE9F041C7
:103C6C004FF05B0805461E4C0E464246002120468E
:103C7C0008F03EFC2B691B4F23606B69397863603D
:103C8C00194B1A4D1B7805EB01119A1E53425341E7
:103C9C00627A04F10A0063F30002627201F5897121
:103CAC000622FCF7EBFF3B78592105EB031595F841
:103CBC001A21237C204662F30713237495F81B21E9
:103CCC00637C62F303036374FDF717FB4246A4F8AD
:103CDC005900214630463B79BDE8F041FFF7A0BFC3
:103CEC00851A0020AC00002011040020DC0000200C
:103CFC0013B50C4690B901F17A020C480DF106018E
:103D0C0007F0B6F9BDF90630002B09DB4FF6FF734F
:103D1C00ADF80630BDF8063084F8783002B010BD2E
:103D2C007F33F7DA4FF68173F2E700BF581A0020A1
:103D3C0070B50D460646114C5B232246214628469B
:103D4C00FFF758FFD6E90613206862689A4208BF4D
:103D5C00884211D120465921FDF7CFFAB4F85940C9
:103D6C00231A5C425C4128460549FFF7C1FF002C31
:103D7C000CBF0120022070BD0024F4E7B81800200D
:103D8C00D01900200A4608B501460148FFF74EFD40
:103D9C00040000200148FDF7FABD00BF00040040FC
:103DAC00014B586A80B2704700040040F8B50546D4
:103DBC004FF07F301C4B1D4A0024C3E91E024FF606
:103DCC00FF720E46FF27C3E90244C3E90744C3E967
:103DDC000C44C3E91144C3E91644C3E91B445C60B9
:103DEC001C749C6183F82440DC6283F838401C64AA
:103DFC0083F84C405C6583F860409C6683F87440A3
:103E0C00A3F88220A3F8844005F1080083F88170A0
:103E1C0083F88640FFF7F3F8314605F13000FFF7E1
:103E2C00EEF82C80AF70F8BDD0190020FFFF7F009A
:103E3C0010B504463030FFF7FDF804F10800FFF729
:103E4C00F9F810BD4FF07F31144B154A30B5C3E96A
:103E5C001E12FF2283F881204FF6FF72A3F88220F6
:103E6C000022A3F8842083F886204FF0FF32D0E99B
:103E7C000E454FF0FF3390F83010C0E91023C0E925
:103E8C000623D0E90423C0E90823037AC0E91245CC
:103E9C0080F8501080F8283030BD00BFD0190020B9
:103EAC00FFFF7F00D0E9062310B5D0E9084122437B
:103EBC000B43C0E90623024A53680133536010BD1B
:103ECC00D0190020D0E9102310B5D0E912412243BB
:103EDC000B43C0E91023024A93690133936110BD6F
:103EEC00D0190020064B1B78022B06D1054B93F8FA
:103EFC004C00012838BF012070470020704700BFDC
:103F0C0011040020D01900202822074B02FB00339B
:103F1C009B681A78542A05D15878A0F17803584236
:103F2C005841704700207047C4D500082822074B21
:103F3C0002FB00339B681A78522A05D15878A0F1FD
:103F4C00780358425841704700207047C4D5000888
:103F5C002822074B02FB00339B681A78542A04D1A1
:103F6C005878783818BF012070470120704700BF7F
:103F7C00C4D50008282343430A4A10B5D158044637
:103F8C00FFF7D4FF40B92046FFF7BEFF064B1B7866
:103F9C0020B1142202FB0311084610BD01EB0311E2
:103FAC00FAE700BFC4D50008AC0000202B2838B5B8
:103FBC0005460C4631D82822194B02FB00331B79DD
:103FCC00042B07D84BB3023B022B05D8DFE803F0D8
:103FDC0011171F00FE2B20D12846FFF7CBFF0378CB
:103FEC00E4B2A34219D004702846BDE83840FFF76C
:103FFC00AFBFFFF7BFFF64B290F90030F1E7FFF7F6
:10400C00B9FF0288A3B29A4207D00480ECE7FFF70D
:10401C00B1FF23B2B0F90020F5E7002038BD00BF96
:10402C00C4D500082B2838B504460D4619D82822CB
:10403C000D4B02FB00331B79FF2B12D1FFF79AFFBC
:10404C0006222946FCF73DFE58B92046FFF792FFA1
:10405C0029460622FCF723FE2046BDE83840FFF730
:10406C0077BF002038BD00BFC4D500082DE9F04350
:10407C00074628201546284A012B00FB012287B051
:10408C00146A1ED1254B022908BF1C46FF234FF092
:10409C00000801268DF800302046FCF75BF85FFA2B
:1040AC0088F9484511D914F809302C2B06D106F1A2
:1040BC0018036B44013603F8188CF6B208F10108AA
:1040CC00EAE7022BE2D1164BDDE706F118036B444D
:1040DC00AE4203F8188C04D80020387007B0BDE845
:1040EC00F08305F118030DEB0305002315F8181CDC
:1040FC0015F9175C0131C9B25A18D2B2AA4207EBB2
:10410C00030004DAA25C0133DBB20270F4E7002393
:10411C0003700120E2E700BFC4D50008CDC700083A
:10412C0006C800082822054B02FB00335B6A0BB162
:10413C00188870474FF6FF70704700BFC4D5000851
:10414C0028220B4B70B502FB00331E6A3046FCF77D
:10415C0001F8002204461146D5B24B1CAC42D8B231
:10416C0005D9735D01322C2B08BF0146F4E770BDF5
:10417C00C4D5000828220F4B014602FB00331B79E3
:10418C0010B5FE2B13D1FFF7CDFF04460846FFF701
:10419C00D7FF002201461046D3B2994208D944FAFF
:1041AC0002F3DB0744BF431CD8B20132F4E7FF2013
:1041BC0010BD00BFC4D500082DE9F04F0024054602
:1041CC000F46A0461D4E93B04FF0000AD6F808904B
:1041DC005FFA84FB5FFA8AF148460191FBF7BAFF5C
:1041EC00019901F1480388426B4411D919F8010077
:1041FC00019308F087FAC0B2202808BF5F22019B08
:10420C000AF1010A14BF03F8400C03F8402CE1E753
:10421C00394603F8408C02A8FBF792FF28B901201D
:10422C0085F800B013B0BDE8F08F01342C2C06F1EA
:10423C002806C9D1002085F80080F3E7C4D5000812
:10424C0028232DE9F0411D4E044603FB016633790A
:10425C000D46FE2B174618D0FF2B21D0022B28D150
:10426C000846FFF787FE214690F9000006F017FD7F
:10427C0035692B783BB11249204608F085F929465F
:10428C00204608F081F9012015E00846FFF772FE80
:10429C003B46294602782046BDE8F041FFF7E6BED2
:1042AC000846FFF767FE062201462046FCF7F7FC9E
:1042BC00E9E700202070BDE8F08100BFC4D50008FC
:1042CC0055C80008F8B5164628220024174B074697
:1042DC0002FB06331A790D46022A047003D0FE2A1B
:1042EC0013D02046F8BD93F918208A42F9DC93F9D3
:1042FC001C309942F5DC4FF00001304665F30701A4
:10430C00FFF754FE01243870EBE70029E9DB304657
:10431C00FFF716FFA842E4DD3046FFF703FF40FA33
:10432C0005F313F00100E6D10446DAE7C4D5000822
:10433C002DE9F8430023174628220370114B06463B
:10434C0002FB07331B790C46FF2B03D000252846B4
:10435C00BDE8F8830846FBF7FDFE0628F6D104F10C
:10436C00FF3804F1050918F8010FFCF70DFB0546A1
:10437C000028EBD0C845F6D121463846FFF752FE4F
:10438C003070E4E7C4D500084FF0280CF8B50027CE
:10439C000F4B04460CFB02331B790E46FE2B1546C5
:1043AC00077004D0FF2B0CD0013B032B0DD83046EB
:1043BC0008F03FF82A4601462046BDE8F840FFF7D2
:1043CC0081BFBDE8F840FFF7B3BF3846F8BD00BF6A
:1043DC00C4D5000838B50546044655F8050BFDF75D
:1043EC00C1F929462068FDF7BDF938BD38B500255F
:1043FC000446016005710749053008F0E1F884F8BE
:10440C0089506572C4F88C5084F8905084F8985098
:10441C0038BD00BF33C8000803798B420DD0012989
:10442C00017106D0022906D039B90449053008F0CB
:10443C00C7B80349FAE70349F8E7704733C80008DF
:10444C0036C8000835C8000890F88930642B08D8A5
:10445C00C2180133DBB2517280F889301844002342
:10446C004372704708B50930FBF76AFEB0FA80F06A
:10447C00400908BD2DE9F043064691B00846884630
:10448C001546FBF767FE06F1090904464846FBF79B
:10449C0061FEE4B2631CC7B2BB4203DB002011B067
:1044AC00BDE8F08322464146484608F091F80028C2
:1044BC00F4D1224604F109031E44BA4203460CD23D
:1044CC0016F8011B202905D0403301306B44C0B2D3
:1044DC0003F8401C0132D2B2EFE7002200F1400396
:1044EC006B44022803F8402CD8D19DF800303D2BAA
:1044FC00D4D19DF80130303BDAB2092ACED8012054
:10450C002B60CCE710B5044607490068FDF736F977
:10451C00064B206819783031C9B2FDF77FF8204678
:10452C000349FFF757FF10BD38C80008AC00002046
:10453C00CCC700082DE9F047437A8046702B0F4614
:10454C00164690B072D1837A202B6FD1C07A07F0C7
:10455C009FFF002842D000254FF002092C4608F19D
:10456C00090A5046FBF7F6FD814515D208EB090305
:10457C005B7A3D2B0ED0202B07D005F140016A1C35
:10458C000DEB010505F8403CD5B209F101035FFACA
:10459C0083F9E6E72C46F0E705F140030DEB030544
:1045AC00002305F8403CE4B96846FBF7D3FDE5B2BF
:1045BC00A84207EB050304F1010408D905F14003F7
:1045CC006B4413F8400C08F09DF87855ECE700228A
:1045DC00304617491A7007F0F3FF012010B0BDE800
:1045EC00F087E8461D4618F8010B08F08BF8785553
:1045FC000135EBB2A342F6D300253D550134E4B2AC
:10460C006846FBF7A7FD6719FFB2874206EB050367
:10461C0009D207F140020DEB020717F8402C0135C7
:10462C00EDB21A70ECE700221A70D6E70020D5E73D
:10463C0042C800082DE9FF4728232C4E044603FBF3
:10464C00016633790D46FE2B22D0FF2B4BD0022B6B
:10465C001BD196F9185026490068FDF78FF82846AB
:10466C00694606F01CFB69462046FFF7B3FE96F937
:10467C001C5020492068FDF781F86946284606F051
:10468C000EFB69462046FFF7A5FE04B0BDE8F08797
:10469C000846FFF747FD00268046DFF85C90DFF800
:1046AC005CA0F7B201233A4629466846FFF7DEFCC8
:1046BC000028EAD0B3B248FA03F3DB0711D5494618
:1046CC002068FDF75BF807F130012068C9B2FCF7F0
:1046DC00A5FF51462068FDF751F869462046FFF7C3
:1046EC0079FE0136DDE70649CDE700BFC4D50008E9
:1046FC0044C800084CC8000854C8000857C8000833
:10470C005BC80008F0B5044689B008460D46FFF7B3
:10471C0031FD2E4906462068FDF730F828232C4F32
:10472C00206803FB0577B968FDF728F8294920684C
:10473C00FDF724F82EB920462749FFF74BFE09B0A8
:10474C00F0BD012229466846FFF77AFD69462068CC
:10475C00FDF714F83B79FE2B06D0FF2B1DD02068FB
:10476C00611DFDF70BF8EAE72846FFF703FC057817
:10477C001A492068FDF702F805F130012068C9B22A
:10478C00FCF74CFF16492068FCF7F8FF012EE6D128
:10479C0014492068FCF7F2FFE1E7134B5B78002B20
:1047AC00DDD16846FCF744F90428D8D8DFE800F0DE
:1047BC00030507090B000D49EBE70D49E9E70D4926
:1047CC00E7E70D49E5E70D49E3E700BF54C80008EA
:1047DC00C4D5000857C800086AC800087AC8000881
:1047EC0068C800087DC80008AC0000208CC8000810
:1047FC0091C8000896C800089BC80008A1C800080A
:10480C000129F8B506460D4601D9032907D11B4BE2
:10481C001B78022B03D030461949FFF7DBFD00242F
:10482C00164F012D08D12046FFF76EFB50B92046DC
:10483C00FFF77CFBA8B105E0022D08D12046FFF75D
:10484C0063FB70B90134E4B22C2CEAD1F8BD032D12
:10485C0010D12046FFF76AFB0028F3D03B78022BDF
:10486C00E5D130462146FFF74DFF42F21070FDF7BF
:10487C003FFAE7E7002DF1D0F3E700BF1104002069
:10488C00A7C8000838B5394B04461A6890F8983018
:10489C00012B69D1D0F88C30D31AB3F5FA7F63D3DE
:1048AC00C0F88C203248FFF71DFB06F007FA314D9B
:1048BC0001462068FCF762FF2F492068FCF75EFF79
:1048CC0095F8240006F0FAF901462068FCF756FF2B
:1048DC002A492068FCF752FF95F87F0006F0EEF9A4
:1048EC0001462068FCF74AFF25492068FCF746FF83
:1048FC0095F9780006F0ECF901462068FCF73EFFCC
:10490C0020492068FCF73AFF95F97E0006F0E0F9A3
:10491C0001462068FCF732FF19492068FCF72EFF8E
:10492C0095F97A0006F0D4F901462068FCF726FFC9
:10493C0015492068FCF722FFB5F85C0006F0D2F9A7
:10494C0001462068FCF71AFF0D492068FCF716FF9A
:10495C00B5F8700006F0C6F901462068FCF70EFFAA
:10496C0020460A49FFF736FD38BD00BFB82B0020A2
:10497C00401B0020D0190020C4C80008C6C800087D
:10498C00C9C80008C7C80008CCC80008CFC80008B0
:10499C0030B50446134989B0FFF71CFD1249206855
:1049AC00FCF7ECFE114B1B78022B18D1104D95F82F
:1049BC00723093B1206805F17A01FCF7DFFE0D49E6
:1049CC002068FCF7DBFE696F6846FCF713F9694653
:1049DC002046FFF7FFFC09B030BD0749F8E707494F
:1049EC00F6E700BFD1C80008EAC80008110400208F
:1049FC0098020020C9C80008F1C80008ADC800081A
:104A0C0010B504462349FFF7E5FC20462249FFF781
:104A1C00E1FC20462149FFF7DDFC20462049FFF749
:104A2C00D9FC20461F49FFF7D5FC20461E49FFF74D
:104A3C00D1FC42F21070FDF75BF920461B49FFF7E1
:104A4C00C9FC20461A49FFF7C5FC20461949FFF757
:104A5C00C1FC20461849FFF7BDFC42F21070FDF76F
:104A6C0047F920461549FFF7B5FC20461449FFF7D6
:104A7C00B1FC20461349FFF7ADFC42F21070FDF774
:104A8C0037F920461049FFF7A5FC20460F49FFF7E0
:104A9C00A1FC10BD06C9000826C9000850C90008B1
:104AAC0075C900089DC90008C1C90008E5C90008FE
:104ABC000ECA000837CA00087BCA00089DCA000845
:104ACC00BCCA0008EBCA000818CB000842CB00088F
:104ADC002DE9F0410D460446002837D0002935D089
:104AEC004FF4006200261A4BB0465A614FF48052C4
:104AFC00184F1A613B684BB1C7F8008026B3013ED2
:104B0C00B6B21EB9FDF72AF8FDF736F82368204631
:104B1C001B69984740B1236820465B6998472B680E
:104B2C000146DB68284698472B6828461B6998473E
:104B3C000028DFD02B6828465B699847236801461C
:104B4C00DB6820469847D5E76326DFE7BDE8F081B0
:104B5C0000080140640800202DE9F0430368044676
:104B6C0093B043B3A54B1E6890F8893083B1D0F84D
:104B7C008C30F31AB3F5FA6F0AD9A149FFF72AFC66
:104B8C002046A049FFF726FC002384F88930637285
:104B9C0094F89830ABB1206803681B69984768B1EA
:104BAC00206803685B69984700232046964984F87F
:104BBC009830FFF70FFC13B0BDE8F0832046FFF7E9
:104BCC0061FE8F4FDFF84482DFF84492206803685F
:104BDC001B6998470028EED0206803685B699847EA
:104BEC000A280546C4F88C600ED00D280CD02C2851
:104BFC000AD03B2808D001462068FCF70FFD294657
:104C0C002046FFF721FCE1E739462046FFF7E2FB9F
:104C1C0041462046FFF726FC38B12046FFF7F0FE50
:104C2C00002384F889306372D0E749462046FFF7A9
:104C3C0019FC0028F1D120467649FFF713FC002817
:104C4C00EBD120467449FFF70DFC054618B1204600
:104C5C00FFF79EFEE4E720467049FFF703FC38B1EE
:104C6C002046FFF74FFC29462046FFF7C9FDD7E742
:104C7C0020466B49FFF7F6FB20B12046FFF742FCBC
:104C8C000121F1E720466749FFF7ECFB20B12046F4
:104C9C00FFF738FC0221E7E720466349FFF7E2FB08
:104CAC0020B12046FFF72EFC0321DDE720460AAA9F
:104CBC0002A9FFF73FFC002845D002A90DF1020024
:104CCC00FFF77AFA20B959492046FFF783FBA7E78B
:104CDC00574B1B78022B06D09DF80200FFF726F9E4
:104CEC0008B15449F0E79DF828303F2B0DD12046F0
:104CFC00FFF708FC20469DF80210FFF703FD204645
:104D0C009DF80210FFF796FC8AE70BB94A49DBE7DE
:104D1C009DF802200AA90DF10300FFF735FB08B935
:104D2C004649D1E72046FFF7EDFB20469DF80210DF
:104D3C00FFF7E8FC9DF80330002B3FF471AF012323
:104D4C0084F890306CE720463D49FFF78BFB88B127
:104D5C000223204684F89030FFF7D4FB344B1B78A9
:104D6C00022B05D033492046FFF734FB3549ABE71E
:104D7C003549A9E720463549FFF774FB20B10323D9
:104D8C00334984F890309FE720463249FFF76AFB9D
:104D9C0088B10423204684F89030FFF7B3FB244BF2
:104DAC001B78022B05D023492046FFF713FB2A4919
:104DBC008AE72A4988E72046294901AAFFF75AFBC6
:104DCC00002857D02046FFF79DFB264A019B1278FE
:104DDC009A4201D1244977E707222449206884F8B4
:104DEC009020C4F89430FCF7C9FC0199206830314C
:104DFC00C9B2FCF713FC1E4966E700BFB82B0020B4
:104E0C0084CB000886CB000890CB0008AAD30008FE
:104E1C00AACB000842C8000833D20008AFCB000868
:104E2C00B2CB0008B7CB0008BDCB0008C3CB000841
:104E3C0011040020A7C80008DFCB0008F7CB00083E
:104E4C000ACC000811CC000828CC00083CCC000887
:104E5C0041CC000858CC00085FCC000878CC000886
:104E6C008ECC0008AC0000209ACC0008AFCC000817
:104E7C00CCC7000820461649FFF7F4FA40B10123CD
:104E8C001449204684F89830FFF7A4FA12491BE71E
:104E9C0020461249FFF7E6FA08B1052350E72046F1
:104EAC000F49FFF7DFFA48B14FF4E1310D48FDF738
:104EBC00B9F90C492068FFF70BFEB1E694F889109C
:104ECC00094A0A4B00290CBF11461946FCE600BFE3
:104EDC00D8CC0008C5CC0008DECC0008FBCC000800
:104EEC0006CD0008080000206ACB000876CB00082D
:104EFC00142110B5074B084C1A78084B204601FBBF
:104F0C00023393F85410FFF787FA2046BDE810409F
:104F1C00FFF722BEAC0000206C030020DC00002058
:104F2C00244B10B51C68A10607D5DA68920604D587
:104F3C005868214BC0B21B689847230744BF1D4BD0
:104F4C005B68200616D51B48C368190612D51B4B87
:104F5C001B4A1988138889B29BB299421AD01388BC
:104F6C000133C3F3080313801388164A9BB2D35C36
:104F7C00DBB2436062061CD50E48C3685B0618D5CD
:104F8C00FCF768F9BDE810406FF0400303600E4B6E
:104F9C001B681847FCF76BF96FF040030B4A036072
:104FAC0052E8003F43F0400342E800310029F7D1BA
:104FBC00E0E710BD00480040140000209E1D0020BA
:104FCC009C1D00209C1B0020180000200C48004059
:104FDC00002300B5002989B0CDE9063318BF4FF482
:104FEC008053CDE902320C2301900491034801A9AE
:104FFC00059305F0C3FC09B05DF804FB00480040C4
:10500C00012808B503D1BDE80840FCF7E7BA03480E
:10501C00FCF713F96FF02003036008BD0048004053
:10502C00F7B5082601272D4C2D4DE3682D4923F4A7
:10503C000053E360FCF7A6FB4FF48020FCF7D4F898
:10504C00284603230A22CDE90067FCF7E1FB032382
:10505C0028461A46CDE900672349FCF7D9FB002204
:10506C0022481146FFF7B4FFA022236923F4904392
:10507C002361636923F02A0363611D4B83F82723A3
:10508C0080225A602046FCF7F2F8FCF7E3F86FF048
:10509C00400323600024174B1C80174B1C80FCF72B
:1050AC00CCF86FF020030360144B1C80144B1C8055
:1050BC00036923F400630361436923F0080343612C
:1050CC00036923F480430361436923F022034361A2
:1050DC00C36843F40053C36003B0F0BD0048004004
:1050EC00000C01400400040408000804801A0600A7
:1050FC0000E100E09C1D00209E1D0020981B00205C
:10510C009A1B00200649074A0B8812880133C3F307
:10511C00080392B29A421EBF034AD0540B807047C8
:10512C009E1D00209C1D00209C1B002038B5037A7E
:10513C000446082B20D990F88F200020D2B1092BDF
:10514C0018D1FFF75DFF202200250C4B1A6194F853
:10515C008F20EBB2934206D2234493F89000FFF7D2
:10516C00D1FF0135F3E7002384F88F300A230120A7
:10517C00237238BD2072FCE70020FAE700080140DA
:10518C000148FCF74DB800BF0048004070B5202620
:10519C000A4D04460323052242F220012846FCF75F
:1051AC008CFB6E61FFF73CFF6E61FCF717FA002376
:1051BC00A38163602381A37270BD00BF000801400E
:1051CC0038B50379044615461BB10023037101233E
:1051DC00C380E3880B70E3880BB9002038BD63797A
:1051EC00002BFAD0236820469B6898470028F4D0FF
:1051FC000022E388627101339BB2AB4294BFE3801F
:10520C00E280EBE710B5037A0446082B84BF002339
:10521C000372084B5A6A036892B21B68984723685A
:10522C0020465B68984718B1BDE81040FFF7A8BF4F
:10523C0010BD00BF0004004001460148FFF7E2BF6B
:10524C00980D002001460148FFF7DCBF1804002030
:10525C00202208B5034B5A61FCF7C0F900230372F6
:10526C0008BD00BF000801400148FFF7F1BF00BFB7
:10527C00980D00200148FFF7EBBF00BF1804002079
:10528C000238C0B20F289ABF014B185C002070473F
:10529C0018D5000810B5037A044633B18389D31AA4
:1052AC009BB2FA2B84BF00230372237AA281052BB5
:1052BC0019D8DFE803F003080E334A564F2912D1F0
:1052CC00012323720FE0572901D10223F9E70023B0
:1052DC00F7E70023FF29A37206D141F2047323815F
:1052EC00637D002BF3D110BD9F290FD9012201F052
:1052FC001F00A27284F82F00FFF7C2FF607218B96A
:10530C0084F82E200923DCE70523DAE71829DED8F8
:10531C000029F7D0032361722372E1E7B4F8682205
:10532C00B4F86C02531C0340B4F86A0298421EBFD6
:10533C00121982F86E12A4F86832A37A627A0133D9
:10534C00DBB29A42A372DDD9CDE7A27A531CDBB251
:10535C002244A372D175627A9A42C4D80123A375F0
:10536C00D0E7A27A531CDBB22244A37282F82F102E
:10537C00627A9A42B7D2012384F82E30C2E7F0B594
:10538C00447D87B0002C36D16E463546B0F862703D
:10539C00B0F86430F91A8AB2090441BFB0F866104B
:1053AC000131521892B20AB39F420EBF0022B0F8DC
:1053BC006610C21804F101041EBF013392F8682074
:1053CC000B40E4B218BFA0F86430182C05F8012B80
:1053DC00DED10020FFF796FE0546013516F8010BCD
:1053EC00EDB2FFF78FFEA542F7D301E0002CF0D110
:1053FC00204607B0F0BD0024FAE738B5447D0546D9
:10540C005CB995F84820E3B29A4206D92B4493F83C
:10541C004900FFF777FE0134F3E738BD38B5457D19
:10542C0004460DBB037A082B03D9092B03D00023A8
:10543C002372284638BD90F8483093B1FFF7DDFF52
:10544C0094F8480084F84850C0B20028EFD00020EF
:10545C00FFF7D6FD2022054B01251A610A23237282
:10546C00E7E7FFF78CFFF0E70025E2E700080140D3
:10547C00027EC37D02F0070243EA02230B80038BFA
:10548C00C3F3CA034B808369C3F38A338B80037FD6
:10549C00C27E03F00F03DB0143EA5203CB80838B04
:1054AC00C3F30A130B81C369C3F3CA334B8190F85E
:1054BC002030C27F03F01F039B0143EA92038B81D0
:1054CC00038CC3F34A13CB81438CC3F30A030B82C3
:1054DC0090F8243090F8232003F03F035B0143EA5B
:1054EC00D2034B82436AC3F38A138B82C38CC3F3FC
:1054FC004A03CB8290F8283090F8272003F07F03E2
:10550C001B0143EA12130B83836AC3F3CA134B8345
:10551C00438DC3F38A038B8390F82C3090F82B20A7
:10552C00DB0043EA5213CB8340F2547390F82D20E6
:10553C0012F0010F14BF1A46AC220A8490F82D20E9
:10554C0012F0020F08BFAC234B847047F8B51F460E
:10555C00437D04460D4616467BB100230E44037270
:10556C00B54207D023683A4620461B6815F8011B44
:10557C009847F5E700232372A375F8BD0346407DD9
:10558C0030B568B193F8484004F0FF054CB103F115
:10559C0049040C6093F848101170002283F84820DD
:1055AC0030BD2846FCE7000010B501750446427575
:1055BC000AB30123037540F2FF12A4F8662040F2EF
:1055CC00FF720023A4F86C227F22A375A4F8643028
:1055DC0084F82E30A4F8623084F84830A4F86A328B
:1055EC00A4F86832A4F8703AA4F86E3AA4F8722AB7
:1055FC0084F8F43A10BD0029FCD0044B044A1A601C
:10560C00044B054A1A60FFF7C1FDD4E714000020D3
:10561C00455200081800002075520008427D38B52C
:10562C0052B9047D34B1857D05F0FF0415B1827546
:10563C00FFF71EFF204638BD0024FBE737B5457D3C
:10564C000C46BDB9037D7BB10F220DF10701FFF7AD
:10565C00B7FD034640B19DF80720062A07D0092A5A
:10566C0005D0012A06D12570184603B030BD0122A1
:10567C002270F9E70023F7E70346007D60B193F849
:10568C002E2002F0FF003AB1002283F82E2093F86E
:10569C002F3003F01F030B707047F8B50D4606460C
:1056AC00174600211922493006F022FF2846FFF741
:1056BC00E7FD044605F01F05603D013402463946FE
:1056CC0086F8495006F14A00E4B206F0E9FE86F885
:1056DC004840F8BD70B590F8F44A0346DCB9B0F810
:1056EC006E6AB0F8702AB51AA8B22D0441BFB3F88F
:1056FC00725A0135401980B260B1964208D09818A0
:10570C0090F8744AB3F8720A01320240A3F8702A76
:10571C0001200C7070BD0020FCE700007FB5182242
:10572C000021684606F0E4FE234B24481B788DF8D4
:10573C000630FDF751FCADF800002048FDF756FC93
:10574C0001219DF805309DF807208DF803001C48B9
:10575C0061F3420361F3010290F87210DBB2D2B232
:10576C00E9B190F88F1023F019038DF8041090F81C
:10577C009010C90001F0180141F001010B438DF8A4
:10578C00053090F8913063F383028DF807200B21DC
:10579C006A460C48FFF781FF07B05DF804FB7F21D8
:1057AC0023F0190343F018038DF804108DF805301D
:1057BC0042F00C02E9E700BFAC000020581A0020B0
:1057CC0098020020980D00207FB518220021684611
:1057DC0006F08EFE40F24D10FBF7EEF940F2491345
:1057EC00ADF80000142201A80649ADF80230FBF711
:1057FC0045FA6A4604210448FFF74FFF07B05DF8ED
:10580C0004FB00BF0CCD0008980D002010B5114C06
:10581C0086B018220021684606F06AFE94F87230B1
:10582C00ABB1606FFBF7C8F91422B4F87830ADF85F
:10583C000000ADF8023004F17A0101A8FBF71EFA62
:10584C006A4605210448FFF728FF06B010BD142254
:10585C000249F2E798020020980D0020CCC70008FE
:10586C000022054B07211870044B05481A700122C1
:10587C00044B1A70FBF7C6BE91180020921800203A
:10588C0006180020901800200023054A07211370E9
:10589C00044A05481370054A1370FBF7B3BE00BFEA
:1058AC009118002092180020061800209018002053
:1058BC0010B50B780C46033B082B0BD8DFE803F034
:1058CC0010050C1A1D0A0A0A0E00042100F66E209F
:1058DC00FBF798FE207810BD0521F7E70B21F5E7C3
:1058EC00042100F66E20FBF78DFE0521FBF78AFEE6
:1058FC000B21EDE7FFF7C8FFECE74878FFF7B0FFA7
:10590C00E8E707B58DF807100DF10701FFF7D0FF99
:10591C0003B05DF804FB00002DE9F0417D4D86B02D
:10592C002C782B2C0FD918220021684606F0E0FDAC
:10593C00FF236A46072178488DF80030FFF7ADFE4B
:10594C0006B0BDE8F081754E18223178744F0029ED
:10595C0061D1684606F0CCFD282303FB04731B7948
:10596C008DF80040042B07D853B1023B022B40D8D2
:10597C00DFE803F01E293300FE2B37D0FF2B3DD080
:10598C0028222B780DF1020002FB03731022996878
:10599C00FBF774F96A4607215F48FFF77EFE012387
:1059AC00337007215F4806B0BDE8F041FBF72ABE13
:1059BC00012320468DF80130FEF7DCFA90F9003017
:1059CC008DF81230DCE7022320468DF80130FEF70B
:1059DC00D1FA0388ADF81230D2E7032320468DF8B4
:1059EC000130FEF7C7FAB0F90030F3E704238DF865
:1059FC0001302046FEF7BEFA0378E1E70523204686
:105A0C008DF80130FEF7B6FA062201460DF11200B0
:105A1C00FBF734F9B4E7012968464FF0000163D174
:105A2C0006F066FD282303FB047210798DF8004004
:105A3C0004280AD800284BD0023803FB0473022830
:105A4C000FD8DFE800F00E1E1E00FE2823D0002425
:105A5C006A4608213048FFF720FE002C3AD002237A
:105A6C009EE71A7D8DF805201A7E8DF801201A7F8D
:105A7C008DF80320062219690DF10700FBF7FEF8DB
:105A8C00E5E79A8AADF805201A8BADF801209A8BC0
:105A9C00ADF80320EEE7536ABBB11B884FF0280822
:105AAC00ADF8013008FB04731522196A0DF10300DF
:105ABC00FBF7E4F82B7808FB0373186AFAF74AFB38
:105ACC00142894BF00240124C2E74FF6FF73E5E7C6
