:020000040800F2
:1000000000000120F9960008E1960008E396000838
:10001000E5960008E7960008E99600080000000051
:10002000000000000000000000000000EB96000847
:10003000ED96000800000000EF960008F196000819
:100040004997000849970008499700084997000810
:100050004997000849970008499700084997000800
:1000600049970008499700084997000849970008F0
:1000700049970008499700084997000849970008E0
:1000800049970008499700084997000849970008D0
:100090000000000049970008797C00084997000893
:1000A000499700084997000849970008DD2F000884
:1000B00049970008192B000849970008499700083C
:1000C0004997000849970008499700084997000890
:1000D0002D280008114E000849970008499700088C
:1000E0004997000849970008499700084997000870
:1000F0004997000800000000000000004997000830
:1001000049970008499700080D7C000849970008A6
:10011000499700084997000849970008499700083F
:10012000499700084997000849970008499700082F
:080130004997000849970008F7
:1001380010B5054C237833B9044B13B10448AFF319
:1001480000800123237010BD48000020000000003B
:100158005CBC000808B5034B1BB103490348AFF367
:10016800008008BD000000004C0000205CBC0008B6
:10017800034613F8012B002AFBD1181A01387047DF
:100188004FF0FF0C1CEAD0521EBF1CEAD15392EA72
:100198000C0F93EA0C0F6FD01A4480EA010C40024E
:1001A80018BF5FEA41211ED04FF0006343EA5010A8
:1001B80043EA5111A0FB01310CF00040B1F5000FEA
:1001C8003EBF490041EAD3715B0040EA010062F199
:1001D8007F02FD2A1DD8B3F1004F40EBC25008BF83
:1001E80020F00100704790F0000F0CF0004C08BFA1
:1001F80049024CEA502040EA51207F3AC2BFD2F16E
:10020800FF0340EAC250704740F400004FF000037B
:10021800013A5DDC12F1190FDCBF00F000407047B5
:10022800C2F10002410021FA02F1C2F1200200FAF3
:1002380002FC5FEA310040F1000053EA4C0308BFBA
:1002480020EADC70704792F0000F00F0004C02BF0B
:10025800400010F4000F013AF9D040EA0C0093F086
:10026800000F01F0004C02BF490011F4000F013BE0
:10027800F9D041EA0C018FE70CEAD15392EA0C0F4E
:1002880018BF93EA0C0F0AD030F0004C18BF31F0B9
:10029800004CD8D180EA010000F00040704790F08F
:1002A800000F17BF90F0004F084691F0000F91F033
:1002B800004F14D092EA0C0F01D142020FD193EAF9
:1002C8000C0F03D14B0218BF084608D180EA010081
:1002D80000F0004040F0FE4040F40000704740F05D
:1002E800FE4040F44000704781F0004102E000BF4A
:1002F80083F0004330B54FEA41044FEA430594EADE
:10030800050F08BF90EA020F1FBF54EA000C55EA18
:10031800020C7FEA645C7FEA655C00F0E2804FEAE9
:100328005454D4EB5555B8BF6D420CDD2C4480EACB
:10033800020281EA030382EA000083EA010180EAFB
:10034800020281EA0303362D88BF30BD11F0004F49
:100358004FEA01314FF4801C4CEA113102D040427F
:1003680061EB410113F0004F4FEA03334CEA1333BA
:1003780002D0524263EB430394EA050F00F0A780D2
:10038800A4F10104D5F1200E0DDB02FA0EFC22FACD
:1003980005F2801841F1000103FA0EF2801843FAC1
:1003A80005F359410EE0A5F120050EF1200E012AB2
:1003B80003FA0EFC28BF4CF0020C43FA05F3C018F0
:1003C80051EBE37101F0004507D54FF0000EDCF169
:1003D800000C7EEB00006EEB0101B1F5801F1BD312
:1003E800B1F5001F0CD349085FEA30004FEA3C0C16
:1003F80004F101044FEA445212F5800F80F09A800C
:10040800BCF1004F08BF5FEA500C50F1000041EB0F
:10041800045141EA050130BD5FEA4C0C404141EB13
:100428000101013C28BFB1F5801FE9D291F0000F0E
:1004380004BF01460020B1FA81F308BF2033A3F1BD
:100448000B03B3F120020CDA0C3208DD02F1140CB4
:10045800C2F10C0201FA0CF021FA02F10CE002F1EF
:100468001402D8BFC2F1200C01FA02F120FA0CFCE8
:10047800DCBF41EA0C019040E41AA2BF01EB045131
:10048800294330BD6FEA04041F3C1CDA0C340EDC2F
:1004980004F11404C4F1200220FA04F001FA02F372
:1004A80040EA030021FA04F345EA030130BDC4F130
:1004B8000C04C4F1200220FA02F001FA04F340EA25
:1004C8000300294630BD21FA04F0294630BD94F0D6
:1004D800000F83F4801306BF81F480110134013DBD
:1004E8004EE77FEA645C18BF7FEA655C29D094EA2E
:1004F800050F08BF90EA020F05D054EA000C04BFAC
:100508001946104630BD91EA030F1EBF0021002096
:1005180030BD5FEA545C05D14000494128BF41F035
:10052800004130BD14F580043CBF01F5801130BD99
:1005380001F0004545F0FE4141F470014FF0000024
:1005480030BD7FEA645C1ABF194610467FEA655CD5
:100558001CBF0B46024650EA013406BF52EA033577
:1005680091EA030F41F4002130BD00BF90F0000F65
:1005780004BF0021704730B54FF4806404F13204A1
:100588004FF000054FF0000150E700BF90F0000F5A
:1005980004BF0021704730B54FF4806404F1320481
:1005A80010F0004548BF40424FF000013EE700BF51
:1005B80042004FEAE2014FEA31014FEA02701FBFE1
:1005C80012F07F4393F07F4F81F06051704732F013
:1005D8007F4208BF704793F07F4F04BF41F400216A
:1005E800704730B54FF4607401F0004521F00041C8
:1005F8001CE700BF50EA010208BF704730B54FF052
:1006080000050AE050EA010208BF704730B511F052
:10061800004502D5404261EB41014FF4806404F18A
:1006280032045FEA915C3FF4D8AE4FF003025FEA10
:10063800DC0C18BF03325FEADC0C18BF033202EB94
:10064800DC02C2F1200300FA03FC20FA02F001FAEE
:1006580003FE40EA0E0021FA02F11444BDE600BF91
:1006680070B54FF0FF0C4CF4E06C1CEA11541DBF40
:100678001CEA135594EA0C0F95EA0C0F00F0DEF80B
:100688002C4481EA030621EA4C5123EA4C5350EAF0
:10069800013518BF52EA033541F4801143F4801341
:1006A80038D0A0FB02CE4FF00005E1FB02E506F0D2
:1006B8000042E0FB03E54FF00006E1FB03569CF027
:1006C800000F18BF4EF0010EA4F1FF04B6F5007F2D
:1006D80064F5407404D25FEA4E0E6D4146EB06069F
:1006E80042EAC62141EA55514FEAC52040EA5E5028
:1006F8004FEACE2EB4F1FD0C88BFBCF5E06F1ED8D2
:10070800BEF1004F08BF5FEA500E50F1000041EB08
:10071800045170BD06F0004646EA010140EA0200B5
:1007280081EA0301B4EB5C04C2BFD4EB0C0541EAD7
:10073800045170BD41F480114FF0000E013C00F3EC
:10074800AB8014F1360FDEBF002001F0004170BD10
:10075800C4F10004203C35DA0C341BDC04F1140429
:10076800C4F1200500FA05F320FA04F001FA05F2B5
:1007780040EA020001F0004221F0004110EBD37082
:1007880021FA04F642EB06015EEA430E08BF20EAAE
:10079800D37070BDC4F10C04C4F1200500FA04F351
:1007A80020FA05F001FA04F240EA020001F00041E3
:1007B80010EBD37041F100015EEA430E08BF20EA56
:1007C800D37070BDC4F1200500FA05F24EEA020E9E
:1007D80020FA04F301FA05F243EA020321FA04F0CD
:1007E80001F0004121FA04F220EA020000EBD37084
:1007F8005EEA430E08BF20EAD37070BD94F0000F84
:100808000FD101F00046400041EB010111F4801FB7
:1008180008BF013CF7D041EA060195F0000F18BF68
:10082800704703F00046520043EB030313F4801FA4
:1008380008BF013DF7D043EA0603704794EA0C0F5E
:100848000CEA135518BF95EA0C0F0CD050EA410674
:1008580018BF52EA4306D1D181EA030101F00041F1
:100868004FF0000070BD50EA410606BF1046194619
:1008780052EA430619D094EA0C0F02D150EA013625
:1008880013D195EA0C0F05D152EA03361CBF104666
:1008980019460AD181EA030101F0004141F0FE4105
:1008A80041F470014FF0000070BD41F0FE4141F489
:1008B800780170BD70B54FF0FF0C4CF4E06C1CEA89
:1008C80011541DBF1CEA135594EA0C0F95EA0C0F3E
:1008D80000F0A7F8A4EB050481EA030E52EA0335F9
:1008E8004FEA013100F088804FEA03334FF080551A
:1008F80045EA131343EA12634FEA022245EA111547
:1009080045EA10654FEA00260EF000419D4208BFF7
:10091800964244F1FD0404F5407402D25B084FEAA4
:100928003202B61A65EB03055B084FEA32024FF450
:1009380080104FF4002CB6EB020E75EB030E22BFAD
:10094800B61A754640EA0C005B084FEA3202B6EB6D
:10095800020E75EB030E22BFB61A754640EA5C001C
:100968005B084FEA3202B6EB020E75EB030E22BFAC
:10097800B61A754640EA9C005B084FEA3202B6EBAD
:10098800020E75EB030E22BFB61A754640EADC006C
:1009980055EA060E18D04FEA051545EA16754FEACE
:1009A80006164FEAC30343EA52734FEAC2025FEAEC
:1009B8001C1CC0D111F4801F0BD141EA00014FF07B
:1009C80000004FF0004CB6E711F4801F04BF01434C
:1009D8000020B4F1FD0C88BFBCF5E06F3FF6AFAE68
:1009E800B5EB030C04BFB6EB020C5FEA500C50F1F8
:1009F800000041EB045170BD0EF0004E4EEA11317B
:100A080014EB5C04C2BFD4EB0C0541EA045170BD81
:100A180041F480114FF0000E013C90E645EA060EC5
:100A28008DE60CEA135594EA0C0F08BF95EA0C0FF3
:100A38003FF43BAF94EA0C0F0AD150EA01347FF43B
:100A480034AF95EA0C0F7FF425AF104619462CE712
:100A580095EA0C0F06D152EA03353FF4FDAE104675
:100A6800194622E750EA410618BF52EA43067FF4C6
:100A7800C5AE50EA41047FF40DAF52EA43057FF456
:100A8800EBAE12E74A0011D212F5001211D20DD5C1
:100A98006FF47873B3EB62520ED44FEAC12343F07C
:100AA800004343EA505323FA02F070474FF0000026
:100AB800704750EA013002D14FF0FF3070474FF0D5
:100AC8000000704780F0004002E000BF81F0004164
:100AD80042001FBF5FEA410392EA030F7FEA226CDC
:100AE8007FEA236C6AD04FEA1262D2EB1363C1BF6C
:100AF800D218414048404140B8BF5B42192B88BFDB
:100B0800704710F0004F40F4000020F07F4018BFFD
:100B1800404211F0004F41F4000121F07F4118BF1D
:100B2800494292EA030F3FD0A2F1010241FA03FCC5
:100B380010EB0C00C3F1200301FA03F100F00043AD
:100B480002D5494260EB4000B0F5000F13D3B0F175
:100B5800807F06D340084FEA310102F10102FE2AE4
:100B680051D2B1F1004F40EBC25008BF20F0010054
:100B780040EA03007047490040EB0000013A28BFF3
:100B8800B0F5000FEDD2B0FA80FCACF1080CB2EB76
:100B98000C0200FA0CF0AABF00EBC25052421843F4
:100BA800BCBFD0401843704792F0000F81F4000199
:100BB80006BF80F400000132013BB5E74FEA41036C
:100BC8007FEA226C18BF7FEA236C21D092EA030FD8
:100BD80004D092F0000F08BF0846704790EA010F52
:100BE8001CBF0020704712F07F4F04D1400028BF7F
:100BF80040F00040704712F100723CBF00F5000061
:100C0800704700F0004343F0FE4040F40000704796
:100C18007FEA226216BF08467FEA23630146420242
:100C280006BF5FEA412390EA010F40F48000704755
:100C38004FF0000304E000BF10F0004348BF4042FB
:100C48005FEA000C08BF704743F0964301464FF037
:100C580000001CE050EA010208BF70474FF0000393
:100C68000AE000BF50EA010208BF704711F00043D4
:100C780002D5404261EB41015FEA010C02BF8446A4
:100C88000146002043F0B64308BFA3F18053A3F503
:100C98000003BCFA8CF2083AA3EBC25310DB01FA4A
:100CA80002FC634400FA02FCC2F12002BCF1004FCE
:100CB80020FA02F243EB020008BF20F0010070475F
:100CC80002F1200201FA02FCC2F1200250EA4C00B3
:100CD80021FA02F243EB020008BF20EADC707047F9
:100CE8004FF0FF3C06E000BF4FF0010C02E000BFF0
:100CF8004FF0010C4DF804CD4FEA40024FEA410392
:100D08007FEA226C18BF7FEA236C11D001B052EA47
:100D1800530C18BF90EA010F58BFB2EB030088BF0D
:100D2800C81738BF6FEAE17018BF40F0010070477C
:100D38007FEA226C02D15FEA402C05D17FEA236C5E
:100D4800E4D15FEA412CE1D05DF8040B704700BFA5
:100D5800844608466146FFE70FB5FFF7C9FF00283C
:100D680048BF10F1000F0FBD4DF808EDFFF7F4FF75
:100D78000CBF012000205DF808FB00BF4DF808ED0E
:100D8800FFF7EAFF34BF012000205DF808FB00BF31
:100D98004DF808EDFFF7E0FF94BF012000205DF853
:100DA80008FB00BF4DF808EDFFF7D2FF94BF012004
:100DB80000205DF808FB00BF4DF808EDFFF7C8FFFD
:100DC80034BF012000205DF808FB00BF42000ED2AE
:100DD800B2F1FE4F0BD34FF09E03B3EB126209D46E
:100DE8004FEA002343F0004323FA02F070474FF024
:100DF8000000704712F1610F01D1420202D14FF099
:100E0800FF3070474FF00000704700BF002242706B
:100E180082700122C270B1FA81F10222490902717D
:100E2800032201704271704743788B421FD0012919
:100E380041700AD0022910D0C1B90123C370817052
:100E480002230371032343717047037843B10123DD
:100E580083700223C3700023F3E70378002BF6D0D6
:100E6800022383700023C3700123EAE7FEE770477B
:100E780082B00B88ADF800304B88ADF802308B8813
:100E8800ADF80430CB88ADF806300239431C053084
:100E980013F8012F0DF1080C0CEB4202834232F8D3
:100EA800082C21F8022FF3D102B07047084480784B
:100EB80070477F2807D0002807DA10F1800F06D086
:100EC8004042C0B2704700207047012070477F2021
:100ED800704710B1404240B270477F2070477F286A
:100EE8000FD010F1310F0EDA10F1780F0DDB7830DA
:100EF800FE2340B2584323304623B0FBF3F0C0B280
:100F08007047FF207047FE207047002070477F28F9
:100F180005D031B1002806DA4042C0B27047FF2040
:100F28007047FE207047002070477F2811D010F1CD
:100F3800310F10DA10F1780F10DB783040F2A96326
:100F480040B2584323304623B0FBF3F0AC3080B2B4
:100F580070470020704740F255707047AC207047CA
:100F680063289FBF40F241635843323064239DBFDA
:100F7800B0FBF3F0BF3080B24FF4E06070474FF43D
:100F8800F063A0F58060584340F2FF7390FBF3F0E4
:100F980000F5787080B27047FFF7F1BF4FF49663A1
:100FA800A0F58060584340F2FF7390FBF3F000F225
:100FB800DC5080B27047A0F58060D0EB001048BFCD
:100FC800033040F38F007047032812DD0C2812DD30
:100FD8000F2812DD122812DD162812DD192812DD5D
:100FE8001C2812DD1F2812DD2128CCBFFF20062077
:100FF8007047002070470120704702207047082082
:101008007047032070470720704704207047052069
:101018007047000004289ABF014B185CFF207047F6
:101028008EBC00087F281ABF4042C0B2002070471B
:10103800014B4840185C704794BC000852B110B48A
:10104800054C0A4411F8013B58408A42205CF9D10A
:1010580010BC7047704700BF94BC0008392808D8F6
:1010680022280ED9094B2338C0B2C34003F001002F
:1010780070475F2807D0613819288CBF00200120ED
:101088007047002070470120704700BF01EC7F00C7
:10109800F8B50246451E461D00245F2715F8010FC6
:1010A800FF2804BF0134E4B2FFF7D8FF00B92F705E
:1010B800AE42F3D1062C04D119B10B6813608B88AA
:1010C800938000239371F8BD2DE9F843DFF834903D
:1010D800471E441D012500264FF0280817F8011F58
:1010E80008480AF05EFD034610B1A0EB0903DBB225
:1010F800A3FB05329E19A742A5FB0853EED1304643
:10110800BDE8F88394BD000810B54179A1F130001D
:10111800C3B2092B07D80523B0FBF3F303EB830312
:10112800C01AC0B210BD044C20460AF03AFD00288F
:10113800F1D0001BC0B2EEE794BD000870B50446BC
:10114800FFF716F882B20023551E98B2A84214FA87
:1011580083F104DA265C302E03F10103F5D0121A6C
:1011680001322046BDE870400AF0EABC2DE9F04F94
:101178000D4699B0164600211A461F4680460AF0C9
:10118800F9FC00212A2201A800910AF0F3FCDFF8FB
:10119800CC90DFF8CCA0DFF8CCB005EB4606AE4229
:1011A80011D16846FEF7E4FF30B100F160030DEBA2
:1011B8000300002300F8613C694640460AF034FD0C
:1011C80019B0BDE8F08F35F9020B47F6FF73984266
:1011D800E7D0002812DC59460CA80AF025FD68461D
:1011E800FEF7C6FF04460CA8FEF7C2FF0444A74258
:1011F800D5D30CA968460AF0C5FCD0E7B0F57A7FCC
:101208000BDA0CA980B209F0A3FD0CA8FFF796FF32
:1012180051460CA80AF0B6FCE1E764230CA9323069
:10122800B0FBF3F080B209F093FD0CA8FFF786FF3E
:101238000CA8FEF79DFF00F15F036B4400F160010D
:101248000DEB010013F8302C00F8302C2E2203F897
:10125800302C002300F82F3C4946DAE78ABC000806
:1012680085BC000880BC0008F0B589B06D46002434
:101278002F468E1CE1B28A4204D83946FFF776FF22
:1012880009B0F0BD36F8241025F8021B0134F1E747
:1012980042F210736421B0FBF3F203FB1200B0FBBF
:1012A800F1F301FB130000EB023000EB831080B276
:1012B800704770B50E460021054614460AF05AFCE0
:1012C80000239AB2944200D870BDF25C002AFBD089
:1012D800EA540133F5E770B50E4614460021013291
:1012E80005460AF047FC00239AB2944200D870BD24
:1012F800F25C002AFBD0EA540133F5E7914206D1AB
:101308009DF900008342CCBF0020012070470329CB
:101318000DD0032A09D0022909D0022A05D00129B3
:1013280005D0531E5842584170470120704700208D
:1013380070477D23438043F2390309B2C360002319
:1013480001808180C380037270470000C26804492D
:10135800044B01FB023323F00043C360980F70472E
:10136800FD430300C39E260010B501290446807979
:101378000ED8042801D80130A071012AE0790BD8D1
:10138800042801D80130E071032925D14B2319E045
:101398000028F2D00138EFE708B10138E0710329DD
:1013A8000AD1032A18D19DF90820934208DC3ADAB9
:1013B80023885B421BB205E002290DD1022AF1E71E
:1013C800B4F9003062881A4412B27C2A30DD7D22DA
:1013D8006280002222722FE09142D7D825D30129BA
:1013E80010D1012A0ED1A279E3799A4208D302D901
:1013F8006FF07C03E6E72046FFF7A8FF0028F7D048
:101408007D23DFE7B4F90400B4F900302288B4F989
:101418000210002804DB7C29D4DD524213B2D1E744
:101428007C31CFDBF9E70023CCE76FF04A03C9E74B
:1014380012F17C0F02DB6280A38010BD4FF683722D
:1014480062800122C6E7000002680449044B01FBE0
:10145800023323F000430360180C7047FD43030078
:10146800C39E2600F0B5002597B00160858004462C
:101478005622294668460AF07DFB0126E27DAA42EB
:1014880009D80023802104F1B800A37517B0BDE87E
:10149800F0400AF06FBB2046FFF7D6FFE7797B1BC9
:1014A800002190FBF3F202FB1300C0B2EC460A469F
:1014B800CBB29F4223D800230022277B1146D0B20B
:1014C800874227D80029D9D1A279033A012A04EB07
:1014D800050105D925B191F9172012BB012BCDD9EA
:1014E8000B76A26852F82310583305F10E026B44AC
:1014F800013544F8221003F8586CEDB2BEE71CF829
:1015080001EBBEF1000F03D18242D5D00132D2B235
:101518000131CDE72069805C0132984208BF012182
:10152800CDE7501E8342DBDB01329342D8DCA5E7CE
:101538002DE9F04F154697B0013D01600271044650
:101548004371EDB2562200216846994600270AF0F9
:1015580011FB022D84BF4FF0010A00253E4694F886
:1015680007809CBF4FF0030AB8FBFAF8E27DB2424D
:1015780009D80023802104F1B800A37517B0BDE88D
:10158800F04F0AF0F7BA2046FFF75EFFA8EB060314
:1015980090FBF3F202FB13030020DBB2EC46024699
:1015A800C1B2414506D21CF801EBBEF1000F22D1B1
:1015B8009A421ED1414528BF414601FB0A500022EC
:1015C80094F80CE000F0FF009446D3B29E4514D87E
:1015D800BCF1000FCAD1A3680FFA80FC09F1FF3EE5
:1015E80053F82C20BEF1030F15D8DFE80EF00E2AB1
:1015F8002D300132D2B20130D2E723699B5C01322F
:10160800834208BF4FF0010CDFE7DFF864E096443F
:10161800184A9645AAD916B117BB0129A6D9A21905
:101628000F46107653F82C2006F10E0344F82320B9
:1016380001F1580301226B44164403F8582CF6B202
:1016480094E7DFF834E0E2E7DFF830E0DFE7A2F51F
:101658003D02DFF82CE0A2F59D42443A7245D9E7F5
:101668007A1E9142DBDB7A1C9142D8DC7EE700BF10
:10167800C54E47FF3BB10100776245FF287643FF1F
:101688003CB101000023C0E90133C3600374704713
:10169800F0B5047C0360012C11D944688568C668DC
:1016A800141B4FF47A774D1B7C4305FB16442B44DF
:1016B80094FBF3F33344C360C0E90121F0BD1CB9C6
:1016C800C46001230374F7E743684FF47A74D31AAC
:1016D800634384680C1B93FBF4F3C3600223F1E7B4
:1016E80070477047002070470020704770470020FF
:1016F80070474FF0B04382B0DA6C0243DA64DB6CB7
:1017080003400193019B02B070474FF0B04382B091
:101718009A6D02439A659B6D03400193019B02B049
:1017280070474FF0B04382B01A6E02431A661B6EC0
:1017380003400193019B02B0704750E8003F23F03B
:10174800800340E80032002AF7D17047704770479D
:101758000288044B5140C9B233F8113083EA12238E
:1017680003807047BCD400089AB110B4B0F800C028
:10177800084C0A4411F8013B83EA0C03DBB291429E
:1017880034F8133083EA1C2CA0F800C0F2D110BC46
:1017980070477047BCD4000837B54FF6FF7304464E
:1017A800ADF806304518AC4203D1BDF8060003B0C9
:1017B80030BD14F8011B0DF10600FFF7C9FFF2E771
:1017C800D0E901236421D31AC3604B430349B1F81C
:1017D8004A108260B3FBF1F303747047680000207D
:1017E800D0E90123D31AC0E902237047044B1888B3
:1017F800044B1B8880B29BB2C01A18BF01207047E7
:10180800A41D0020A21D00207047000008B51E225C
:10181800034800210AF0AEF9024B00221A7008BDF5
:1018280040060020140300202DE9F04113780370CE
:1018380092F8018080F80180FD2B04460F4615467A
:1018480054D193788370D378C37013790371537923
:101858004371937983716B7A127A1B0403EB022329
:10186800EA79134423F07F430A26A26863F3170238
:10187800A260A919424604F10C000AF0DDF97A7B4E
:10188800904507D208F10C00A2EB08020021204481
:101898000AF070F963781E44AB195A78AB5D03EB14
:1018A8000223A4F80C31A378DB070ED5023615FA0B
:1018B80086F304F5887203F10C0153F8040B42F81F
:1018C800040B8B42F9D11B781370BB7A84F8213151
:1018D800FB7A84F822313B7B84F823317B7B84F8C4
:1018E80024313B7884F82031BDE8F081002343801F
:1018F80093780371D37843711379837153790626EA
:10190800B3E770B50B7803704B7843700B78FD2BF9
:1019180005460C4638D18B788370CB78C3700B7929
:1019280003714B7943718B7983718B68C3718B68B1
:10193800C3F30F2303728B7A43720A26627804F189
:101948000C01A8190AF078F96378B4F80C2133442B
:10195800981CEA545A1CB4F80C1192B2090AA954FA
:10196800A278D20780B20ED504F58872054404F532
:101978008E7452F8041B45F8041BA242F9D1127860
:101988002A700F3398B270BD00238B700B79837067
:101998004B79C3708B7903718B6843710626CDE749
:1019A80070B50D4C0D4E0546062204F10A0106F5E8
:1019B8008970FFF790FC237CC3F3031386F81A3170
:1019C800637CC3F3030386F81B31637ADB0744BFE8
:1019D80002232B7370BD00BF8D130020C0000020B0
:1019E8000A4A0B4B12680B49A3FB02323220920CB5
:1019F80000FB02F2084B486802F5FA72A3FB0232B8
:101A080092094B681B1A9A42FBD87047380000208D
:101A180083DE1B43001000E0D34D621008B5FFF7CA
:101A2800DFFF024B04229A6108BD00BF0004004892
:101A3800024B04229A62FFF7D3BF00BF000400489C
:101A4800074B084A5B6A02F5006353E8003F43F01E
:101A5800200302F5006040E800310029F3D1704707
:101A680000380140003001402DE9F04F0C46518804
:101A7800B1F58C7F85B0054611D300211170D91CB2
:101A8800C9B2012995BF01210023518053809CBF11
:101A98002370117000232B7005B0BDE8F08F10780B
:101AA8000E2800F28B8001A656F820F0871A00084D
:101AB800F11A0008191B0008331B0008C51B000891
:101AC800C51B0008C51B0008C51B0008C51B00086E
:101AD800C51B0008C51B0008C51B0008C51B00085E
:101AE800C51B0008451B0008481C5080635421781A
:101AF800FD299BB206D10C330A21D38091800223A1
:101B08001370C7E708330621D38091800E23F7E7C7
:101B1800481C50806354D80742BFD1880D31D1800A
:101B2800012B8CBF00230323EAE7002B01F10100FE
:101B38005080635414BF00230E23E1E7481C5080F3
:101B480063545388D1888B4232D300235380137057
:101B580002232B7069802378FD2B35D163792B7292
:101B6800A3796B72637A227A1B0403EB0223E2796E
:101B780013446B60637803F10C026A80A278D10782
:101B880001D519336B8000266968DFF8F0806E8113
:101B980040F26B120C20B31801335B0800FB03F70B
:101BA80058F80770B94218D25A1EB242F3D816E054
:101BB80092889A423FF66EAF01236CE700231370B8
:101BC80053809380D38066E7E3782B7223796B7216
:101BD80063796B6063780833D4E71E46E5D80C2731
:101BE800774358F80730994227D123782046FD2BB0
:101BF80010F801BF0CBF4FF00A094FF0060909EBB6
:101C08000B03591E89B247440193FFF7C5FD97F8A6
:101C180004A0ADF80E0051460DF10E00FFF798FD37
:101C2800019BE218E35C527803EB0223BDF80E2017
:101C38009BB29A4203D005232DE703232BE7BB79F8
:101C4800DA0706D5FA79934582BF04EB09018A5C65
:101C5800AA729B0709D50C2303FB068362781B7ABB
:101C68009A4282BF4C44E35CEB720C2303FB06836D
:101C780085F80CA05B796B730EE700BF98C100086C
:101C8800F0B50546FD2305F80C3B85B004468DF8F4
:101C9800043090F8243103F10C020244012B42D89D
:101CA8000026637066808DF805308B7A23718DF875
:101CB80008308B7AADF8066001338B7263798DF842
:101CC8000930A3798DF80A30A368C3F317031A12F1
:101CD8008DF80B3009211B140DF105008DF80D301E
:101CE8008DF80C20FFF758FD6778ADF802003A46EA
:101CF80029460DF10200FFF737FD94F82311FFF78D
:101D080027FD94F82421BDF80230A4F80C3197423D
:101D180010D207F10C00D21B3146204405B0BDE8B3
:101D2800F04009F027BF12F8010D0028B8D1013B97
:101D3800DBB2B3E705B0F0BD044A00231380044AC0
:101D48001380044A1380044A13807047A21D0020A0
:101D5800A41D0020A6210020A8210020044AD2F8B2
:101D6800903023F40043C2F89030FFF739BE00BF2B
:101D78000004005808B5FFF733FE044AD2F8903043
:101D880043F40043C2F8903008BD00BF0004005877
:101D980038B505464C1E14F8011F01B938BD2B682B
:101DA8002846DB689847F6E7B0F1904F02D101204A
:101DB800FFF79FBC084B984205D003F58063984213
:101DC80003D10420F4E70220F2E7044B984201D142
:101DD8008020EDE7704700BF00040048001C004861
:101DE8000C4B984203D14FF40060FFF79ABCB0F156
:101DF800804F05D0084B984205D14FF40030F4E7E6
:101E08000120FFF782BC054B984202D14FF4802095
:101E1800EBE77047002C01400044014000480140B6
:101E28002DE9F04387B00E460546144600211422DA
:101E380001A89DF838809DF83C901F4609F09AFE4D
:101E480000960B2C07D8DFE804F007070A121414D1
:101E5800141616161A1CFEE70323019301E0022349
:101E68000493032F11D8DFE807F011132111012380
:101E7800F6E70123F1E7012301930393F1E7022336
:101E8800EBE7022301930123F7E7FEE7022302931E
:101E9800B8F1100F0CD8DFE808F02D2D0C11131530
:101EA80017191B1D1F21232527292B000123EEE7C6
:101EB800FEE701230593022301931EE00223F9E7BD
:101EC8000323F7E70423F5E70523F3E70623F1E700
:101ED8000723EFE70823EDE70923EBE70A23E9E700
:101EE8000B23E7E70C23E5E70D23E3E70E23E1E700
:101EF8000F23DFE7B8F1000FDDD1B9F1000F02D0F1
:101F08002846FFF751FF053C042C05D8DFE804F00C
:101F1800030B04030B00AE626946284608F0ACFACE
:101F280007B0BDE8F083AE61F6E713B54FF0010CDA
:101F38000024CDE9004CFFF773FF02B010BD00008C
:101F480030B587B0002315460446ADF80630FFF7D4
:101F580047FF042D04D8DFE805F02E3204363F0091
:101F6800FEE71E4B1E4A1B68B3FBF2F39BB200222E
:101F7800CDE90221013B01A92046ADF804300492C5
:101F8800059208F0A5FC236823F080032360A3686A
:101F980023F4A03323F00703A360636823F07003DE
:101FA8006360636823F470036360A36823F08003AD
:101FB800A36007B030BD094B0A4A1B68D4E7074B3A
:101FC800094A1B68D0E7054B064A1B68B3FBF2F3C6
:101FD80003EB83035B00C9E70123C8E7380000204F
:101FE80080A8120140420F0000127A0010B5044682
:101FF800FFF7A6FF236843F00103236010BD00220A
:102008004FF0FF31FFF7F2BF1A4B10B51A4C5B685F
:10201800236007F097FB4FF0904008F0EFF917485E
:1020280008F0ECF9164808F0E9F9164808F0DEFD62
:10203800154808F0DBFD08F07DFB4FF0E022002397
:1020480013615361936172B64FF0FF319A0002F148
:10205800604202F561420133082BC2F88010C2F8D1
:102068008011F3D162B6034B1B6883F30888236899
:102078009847FEE70000FF1F1003002000040048F7
:102088000008004800380140004400400749084A59
:10209800881AEFF30883521A1A44013A013B98420E
:1020A80088BF0022AA2109F065BD00BF00000120F9
:1020B80000040000044B5A69586910F0020018BF68
:1020C800C2F38000704700BF000400584FF0B042D0
:1020D800D2F8943043F40043C2F894304FF47A7342
:1020E80000BF013B9BB2002BFAD14FF0B043D3F8AD
:1020F800942022F40042C3F89420D3F89420520488
:10210800FBD40C4BD3F8902022F40042C3F8902063
:102118004FF47A7200BF013A92B2002AFAD1D3F88A
:10212800902042F40042C3F890204FF400629A6174
:10213800704700BF0004005810B503230522402152
:102148004FF09040FFF7F1FEBDE810400323052251
:1021580080214FF09040FFF7E8BE08B5FFF7AAFFCF
:10216800003818BF012008BD08B5FFF7F6FF00B911
:1021780008BD00BFF9E74FF0904380229A624022E1
:102188009A6170474FF0904340229A6280229A6188
:1021980070470000024B4FF480225A60704700BF1E
:1021A80000E100E010B5134C0323062202214FF092
:1021B8009040FFF7BAFE2046032302224FF48071B5
:1021C800FFF7B3FE03231A4601214FF09040FFF7B3
:1021D800ACFE0323052210214FF09040FFF7A5FE27
:1021E80020460323BDE8104005224FF48051FFF735
:1021F8009CBE00BF000400484FF09043186900F0EF
:102208000100704708B5FFF7F7FF00B908BD00BF28
:10221800F9E70000044B4FF480529A624FF0904364
:1022280010229A61704700BF000400484FF09043A5
:1022380010229A624FF48052C3F8182470470000A5
:10224800164801690F2321F00F0193FAA3F3B3FA9B
:1022580083F3012203F00F0302FA03F30B43036134
:102268000F4BD3F8842022F48072C3F88420D3F86B
:10227800802022F48072C3F880205A6822F4807289
:102288005A601A6842F480721A60064BD02283F8AA
:1022980016234FF480021A60704700BF0000014007
:1022A8000008005800E100E0054B4FF48072DA6046
:1022B800D3F8802042F48072C3F88020704700BFB2
:1022C80000080058064B1A6822F001021A605A6882
:1022D80022F400325A601A6842F001021A6070470C
:1022E80000440040064B1A6822F001021A605A683E
:1022F80042F400325A601A6842F001021A607047CC
:1023080000440040002303224FF400414FF0904066
:10231800FFF70BBE4FF09043186980F40040C0F3FC
:10232800C030704710B5074C002320460522102105
:10233800FFF7FBFD20460023BDE8104005220821D9
:10234800FFF7F3BD0004004805494B691A04DB4355
:1023580002F4801203F0100313438B61704700BF2F
:102368000004004805494B691A04DB4302F40022C3
:1023780003F0080313438B61704700BF0004004853
:102388000C4BD3F8FC2022F08072C3F8FC20D3F861
:10239800FC2042F08072C3F8FC20A3F55D431A6864
:1023A80022F001021A601A6842F001021A60002243
:1023B8005A60704700ED00E00649074B074A1B6862
:1023C800B3FBF2F310B54C6843434A68121B9A42B8
:1023D800FBD310BD001000E03800002040420F0081
:1023E8001FB50223CDE9013101A8012369460393F2
:1023F80007F012FB00280CBF0420052005B05DF88B
:1024080004FB014608B5012007F0C0FA00280CBFFC
:102418000420052008BD08B5FFF7E2FF031F584256
:10242800584108BD08B5FFF7ECFF031F5842584153
:1024380008BD00002DE9F047294B2A4D01280E461A
:1024480014462949294A0FBF79277827AA461D46E5
:1024580006BF88469A46904607F04CFA3946284601
:10246800FFF7D9FF28B9002407F056FA2046BDE83F
:10247800F087002E08BF4FF4FC64073424F00704EB
:1024880005F11007B1463444AAEB050AA1450BD162
:102498004FF011324FF0FF332846FFF7C3FF041EF9
:1024A80018BF0124A400DFE76EB90AEB0703D3E9DC
:1024B8000023B3F1FF3F08BFB2F1FF3F06D1083751
:1024C80009F10809E2E7D9E90023F2E7B84505D997
:1024D8003846FFF7A7FF0028F1D1C4E70324C3E774
:1024E80000C0030800C80308FFCF0308FFC703089C
:1024F80010B507F0FFF909487821FFF78CFF04466B
:1025080038B107487921FFF786FF041E18BF012458
:10251800A40007F001FA204610BD00BF00C0030860
:1025280000C8030830B5084D002340F2EF749AB292
:10253800914201D8042030BDA34203D05A5DC25451
:102548000133F4E70320F6E710C0030838B5044662
:102558000D4672B60A4601460020FFF76BFF62B6C9
:10256800042806D172B601202A462146FFF762FFE9
:1025780062B638BD38B5124B1C68D3F80058B4F1B0
:10258800113F09D1B5F1113F17D0002211460120A2
:10259800BDE83840FFF74EBFB5F1113F03D1002227
:1025A80011461046F4E7FFF7A3FF042804D12C4096
:1025B80001340CBF0220012038BD0420FCE700BF15
:1025C80000C00308044B9A689107FCD518739A68F1
:1025D800D207FCD5187B70470000015870B50C462F
:1025E800451E8E18B44200D170BD15F8010FFFF7D3
:1025F800E9FF04F8010BF5E7084611461A46FFF70C
:10260800EDBF000070B5064E04464518A54200D13E
:1026180070BD3078FFF7D6FF04F8010BF6E700BF6E
:102628003000002008461146FFF7ECBF38B50446D5
:102638004518AC4200D138BD14F8010BFFF7C2FFB2
:10264800F7E708461146FFF7F1BF000010B58CB058
:102658002822002102A809F08DFA4FF0B0431C4C43
:102668005A6E42F001025A665B6E03F00103019351
:10267800019BFFF72BFD082208924FF4827200237A
:1026880003924FF40072CDE90533CDE90933029383
:10269800079207234FF4E06202A920460B930492A5
:1026A80008F0DCF8636823F010036360636823F0C4
:1026B80008036360236843F040032360A3689B0713
:1026C800FCD5237B034BFF221A700CB010BD00BF52
:1026D8000000015830000020034B18739A68D20795
:1026E800FCD5187B704700BF0030014038B5441E48
:1026F8008D18A94200D138BD14F8010FFFF7ECFF7F
:1027080001F8010BF5E7084611461A46FFF7EEBF38
:1027180038B5064D04460144A14200D138BD287899
:10272800FFF7DAFF04F8010BF6E700BF31000020DD
:1027380008461146FFF7ECBF10B5014404468C4229
:1027480000D110BD14F8010BFFF7C6FFF7E70846E4
:102758001146FFF7F1BF000030B58DB02E4C28228E
:10276800002102A809F006FA4FF48050FEF7D9FFBD
:102778000421204603230622FFF7D7FB0423A36185
:1027880001250624CDE9004503230A2220214FF024
:102798009040FFF745FBCDE9004503230A224FF49B
:1027A80080514FF09040FFF73BFB03231A46CDE9D9
:1027B80000454FF400614FF09040FFF731FB0822CD
:1027C800164C08924FF48272002303924FF4007261
:1027D800CDE90533CDE909330293079207234FF476
:1027E800E06202A920460B93049208F037F8636868
:1027F80023F010036360636823F0080363602368B1
:1028080043F040032360A3689B07FCD5237B044B5C
:10281800FF221A700DB030BD00040048003001409E
:10282800310000201B4B10B4DC69A00611D51A68D2
:1028380091060ED5184819495A6A03880988013340
:10284800C3F30A0389B299421FBF1549D2B2CA54C9
:10285800038010481F232206036215D503681B0650
:1028680012D5104B104A1988138889B29BB2994225
:102878000CD013880133C3F30903138013880B4A60
:102888009BB2D35CDBB2836210BC704710BCFEF70E
:1028980054BF00BF00380140A41D0020A21D002025
:1028A800A2150020A8210020A6210020A61D002096
:1028B8000E490F4A0B8812880133C3F3090392B2F9
:1028C8009A4211D00B4AD0540B4A0B8002F5006390
:1028D80053E8003F43F0800302F5006040E8003110
:1028E8000029F3D10120704700207047A82100205B
:1028F800A6210020A61D0020003001400846FFF751
:10290800D7BF0000054B064A1B8812889B1A98B24D
:102918001B0444BF00F5006080B27047A41D00206E
:10292800A21D0020FFF7EEBF0848094A0188138856
:1029380089B29BB29942F9D013880133C3F30A03D1
:1029480013801388034A9BB2D05C7047A41D0020F3
:10295800A21D0020A2150020FFF7E6BF70B588B0C1
:102968000C460646154600212022684609F002F961
:10297800231E18BF01231B03CDE9023569460C232A
:10298800034801960494059308F054F908B070BD03
:102998000038014010B5064C236823F0010323607A
:1029A800FFF7DCFF236843F00103236010BD00BF7D
:1029B80000380140002208461146FFF7EBBF00002F
:1029C80073B53B4C236823F00103236008250126D7
:1029D8004FF48040FEF7A5FE4021CDE9005635486A
:1029E80003230A22FFF71CFA03231A46CDE90056EF
:1029F80030488021FFF714FA002211464FF4614055
:102A0800FFF7ACFF636823F490436360A36823F087
:102A18002A03A360284BB02283F8242310225A608B
:102A28002046FEF78AFE254A02F5006353E8003F78
:102A380023F0400302F5006040E800310029F3D19B
:102A4800402323621E4B19801E4B198002F5006338
:102A580053E8003F23F0200302F5006040E800310E
:102A68000029F3D1184B1980184B1980104B5A685C
:102A780022F400625A609A6822F008029A605A6842
:102A880022F480425A609A6822F022029A609A6878
:102A980042F480529A601A6842F001021A60DA69B8
:102AA8009102FCD5DA695202F9D502B070BD00BFB7
:102AB800003801400004004800E100E00030014017
:102AC800A6210020A8210020A21D0020A41D00206E
:102AD80008B5FFF775FFBDE80840FEF7B1BFFFF77F
:102AE800F7BF0000084BDA6892070CD4074A0121A7
:102AF80011805A6A10325A636FF002021A61DA685A
:102B080042F00202DA60704700480140401100209C
:102B1800324A13699B0710B526D56FF0020313617B
:102B28002F4B1B88516B11FA83F353632D4B198874
:102B380089B2002946D01988013189B219801988CB
:102B480089B2022911D84FF090434FF400729A626B
:102B5800254A13880133C3F3080313801388234AD3
:102B68009BB2D35C224A138010BD198889B20A2906
:102B78000FD81F4B1A8812F0010F4FF090424FF4F4
:102B8800007114BF916191621A88C2F34E021A80D3
:102B9800EAE7198889B20B294FF090414FF4007089
:102BA800886109D1134A11880F4A128889B292B2F2
:102BB8009142D9D00122EAE7D16821F00201D1601F
:102BC8000022E4E74FF090404FF400748461D0682D
:102BD80020F00200D0601980C6E700BF004801401D
:102BE8003C11002040110020441300204211002015
:102BF800421300204613002009490A4A08B50B88E9
:102C080012880133C3F3080392B29A4206D0064AE7
:102C1800D0540B80FFF766FF012008BD0020FCE7B9
:102C28004613002044130020421100200846FFF7F5
:102C3800E3BF0000B0F5614F0D4A0E4B0CD0B0F564
:102C4800E13F10D0B0F5165F0DD172B640F24131B8
:102C5800118040F2E24203E072B68B211180D0224B
:102C68001A8062B6704772B6452111805422F7E780
:102C78003C1100203E11002010B5032388B0052226
:102C88004FF400714FF09040FFF74FF9194C4FF097
:102C980090434FF400729A61204601224FF0FF31B1
:102CA800FFF7A4F920220021684608F063FF6A466E
:102CB8000121204607F046FE0F4AD2F8183823F0C3
:102CC8000403C2F818386FF0020323610B4B9022FB
:102CD80083F81D234FF000521A604FF4E130FFF7DC
:102CE800A9FF074A00231380064A1380064A138067
:102CF80008B010BD004801400040014000E100E07C
:102D0800441300204613002040110020FFF7B4BFF1
:102D1800054A064B11681B780B441360044A136874
:102D280001331360704700BFAC2100203C00002035
:102D38004C0300200148FFF762B900BF004401407E
:102D4800014B586A80B2704700440140024B002290
:102D58001A60FFF7EFBF00BF4C03002070B50446B0
:102D68000D46164606F0C6FD083D04EBC606B442FD
:102D780004D1042406F0D0FD204670BD55F8082F74
:102D8800D4E900016B68994208BF904201D1083428
:102D9800EDE72046FFF746FB0028F8D10446E9E7AF
:102DA8001FB503788BB10A4B1B68B3F5FA6F0CD3C8
:102DB8000023002203700023CDE90023CDE902237C
:102DC800406802226946FFF7C9FF05B05DF804FBB9
:102DD800AC210020000000000123F0B50380444B23
:102DE800444AD3E9005104464348914208BF85420A
:102DF80085B04FF0000202D1227005B0F0BD3AA1B3
:102E0800D1E900013D4F6260C3E900013C484FF041
:102E1800AA33D0E90021B1F1FF3F08BFB2F1FF3F6B
:102E2800D0E9026505D0994208BF9A4201D00A4309
:102E380009D1B5F1FF3F08BFB6F1FF3F0DD09D4264
:102E480008BF9E4209D01030B842E2D172B67A214A
:102E58002B48FFF7E0FA62B629486060D0E90032F3
:102E6800CDE90032B2F1FF3F08BFB3F1FF3FD0E92F
:102E7800025109D1B1F1FF3F08BFB5F1FF3F22D19F
:102E88004FF0AA331A4623E04FF0AA36B24208BFE1
:102E9800B3420BD1B1F1FF3F08BFB5F1FF3F0FD0EF
:102EA800B14208BFB5420ED10023EBE753EA02074F
:102EB80009D1B14208BFB54205D14FF480712180D4
:102EC8001D46114604E0002323701A461D46194684
:102ED800CDE90032CDE9025102226946FFF73EFFF3
:102EE8008BE700BFAFF3008012345678FEDCBA904F
:102EF80020000020FEDCBA901234567800D803086F
:102F080000D003080A490B8803B9FEE772B64FF0F0
:102F1800804309885A6A114464325963DA636FF04E
:102F280002021A616FF008021A6162B6704700BFA8
:102F38006400002000B5032289B04FF0FF314FF044
:102F48008040FFF753F820220021684608F012FE5F
:102F580064236A4601214FF08040039307F0F2FC96
:102F6800C8236A464FF480714FF08040039307F0FE
:102F7800E9FC054BA02283F81B234FF000621A607E
:102F880009B05DF804FB00BF00E100E04FF08043AA
:102F9800DA6842F00202DA60DA6842F00802DA60BF
:102FA8007047000010B501EB8101084B01EB81016E
:102FB80089001980064B044600221A70FFF7BAFFF1
:102FC8002046BDE81040FFF7E1BF00BF64000020C5
:102FD800470300204FF080431A6991070AD56FF024
:102FE80002021A615A6B6432DA63084A596B128812
:102FF8000A445A634FF080431A69120705D56FF0E7
:1030080008021A61024B01221A70704764000020FE
:103018004703002070B51B4C1B4E90220021201D39
:1030280008F0A8FD0623238063800F23A3800522D0
:103038002C233146A01DFEF717F94FF001124FF46B
:1030480080330025C4E90D2331462C23052204F1E1
:103058003E00A587FEF708F90C4B0D49E36604F11D
:103068007A00A4F8705084F872506567A4F8785014
:1030780008F0DAFD7F2384F88F30052384F8903038
:1030880070BD00BF7C02002058C000080100070086
:1030980015BE000870B5094E05460C46415C304621
:1030A80008F07FFD034628B1831B0133DBB2282BD0
:1030B80028BF0023F35C2B5570BD00BF6CC000080F
:1030C80070B50D4611460446164608F0ADFD2DB301
:1030D800013D082D08D8DFE805F00511131517196B
:1030E8001B1D1F0035236371627973799A4215D1CC
:1030F80020460521BDE87040FFF7CCBF6123F2E709
:103108006623F0E76B23EEE77023ECE77523EAE725
:103118007A23E8E73123E6E73223E4E770BD0000CD
:1031280073B5054605F111061C4C1D4A01463601CA
:103138006846FFF7C5FFB01C6946204408F074FDD7
:10314800264404EB0511002302227272A1F81A31F9
:10315800142101FB054040F20121A0F84A20C16476
:10316800E28404210F4A80F85010A0F8523080F809
:1031780054304FF4807184F83030C4F83A30C4F8D1
:103188003E30C4F8423040F20113C4E90A12A4F8F0
:103198004630A4F8483002B070BD00BFC00000201F
:1031A800D1BD000803010100F7B50546AB4CAC4A98
:1031B80005F11106014637016846FFF781FFB81C83
:1031C800274469462044FDF763FF7B7A052B84BFBB
:1031D80002237B7204EB0610A24B427A198841FA4B
:1031E80002F2D7070FD40222427261B14807C1F335
:1031F800800208D441FA02F7FF07D0B240F1DE811D
:1032080004EB0612507204EB05112A0191F81A0119
:10321800042802D9002081F81A01A718588897F8BD
:103228001A1140FA01F1C90711D4022187F81A11BD
:1032380068B14707C0F3800109D440FA01FC1CF0CB
:10324800010FCFB200F0BF81A11881F81A71A1183F
:1032580091F81B01032802D9002081F81B01A71847
:10326800988897F81B1140FA01F111F001010FD16C
:1032780087F81B1160B110F0010109D140FA01FC77
:103288001CF0010FCFB200F0A381A11881F81B71C7
:1032980004EB0616717A012905D904291EBF1219F3
:1032A800002182F81B11142202FB054191F84A0003
:1032B800042802D9022081F84A0002FB054292F84C
:1032C8004B10042902D9002182F84B10142202FB6A
:1032D8000542998E92F84B0041FA00F0C00712D4CB
:1032E800012082F84B0071B18F07C1F340020AD464
:1032F80041FA02F6F607D0B240F16F81142202FBC0
:10330800054282F84B00142202FB054292F84C1049
:10331800032902D9012182F84C10142000FB054032
:10332800D98E90F84C2041FA02F212F0010210D125
:1033380080F84C2069B111F001020AD141FA02F675
:10334800F707D0B240F14E81142202FB054282F801
:103358004C00142202FB054292F84E10012902D9B2
:10336800002182F84E10142000FB0540198F90F8B8
:103378004E2041FA02F212F0010210D180F84E20DC
:1033880069B111F001020AD141FA02F6F607D0B28A
:1033980040F12D81142202FB054282F84E001422CE
:1033A80002FB054292F84F10022902D9002182F847
:1033B8004F10142000FB0540598F90F84F2041FA18
:1033C80002F212F0010210D180F84F2069B111F019
:1033D80001020AD141FA02F6F707D0B240F10C8196
:1033E800142202FB054282F84F00142202FB054119
:1033F80091F84D00022802D9022081F84D0002FB05
:10340800054292F85010052902D9042182F850107B
:10341800142202FB054191F85200012802D900202C
:1034280081F8520002FB054292F85310022902D992
:10343800002182F85310142000FB0540998F90F862
:10344800532041FA02F212F0010218D180F85320F9
:10345800A9B111F0010212D106E000BFC00000209E
:10346800D1BD00087C02002041FA02F6F607D0B26E
:1034780040F1C780142202FB054282F8530014224F
:1034880002FB054191F85400022802D9002081F876
:10349800540002FB054292F84C10012906D192F81B
:1034A8004F10022904BF002182F84F1094F82620FB
:1034B800042A02D9022284F8262094F82720042A14
:1034C80002D9002284F82720B3F86C1094F827203A
:1034D80041FA02F2D6070FD4012284F8272059B105
:1034E8008807C1F3400207D441FA02F6F707D0B2C1
:1034F80040F18C8084F8270094F82820022A02D909
:10350800002284F8282094F82920022A02D90122CE
:1035180084F82920B3F86E1094F8293041FA03F39F
:1035280013F00102674B0CD184F8292049B111F03E
:10353800010206D141FA02F6F607D0B26BD583F83C
:10354800290094F82A200C2A02D9002284F82A207B
:1035580094F832200C2A02D9002284F8322093F8F9
:103568002B20042A02D9002283F82B2093F82F203D
:10357800012A02D9002283F82F20534AB2F870108A
:1035880093F82F2041FA02F212F001020CD183F8CD
:103598002F2049B111F0010206D141FA02F4E707E0
:1035A800D0B23CD583F82F0000224849104611F9C3
:1035B800014F14F1780F36DA087036E00132102A1C
:1035C8007FF418AE1FE6013110297FF436AE3EE6CF
:1035D800013110297FF452AE5AE60132102A7FF4E5
:1035E80087AE90E60132102A7FF4A8AEB1E6013228
:1035F800102A7FF4C9AED2E60132102A7FF4EAAE6F
:10360800F3E60132102A7FF42FAF38E70132102A8F
:103618007FF46AAF70E70132102A8BD191E701324B
:10362800102ABAD1C0E7782CC6DC0132D2B20C2AF3
:10363800BDD127490022012011F8014F0132022C87
:10364800D2B288BF0870042AF6D193F82C20052A34
:1036580002D9032283F82C2093F82D20022A02D9BC
:10366800012283F82D2093F82E20022A02D9012264
:1036780083F82E2093F83020022A02D9002283F8FA
:103688003020142101FB0530FF2280F8512003EB84
:10369800051083F831204FF6FF744FF0FF32C0F861
:1036A8001C21A0F82041552011FB050158181A6269
:1036B8009A845A504260047283F833205A631A87F6
:1036C80003B0F0BDC00000207C020020F9000020FB
:1036D80005010020104B30B59870042804D8DFE8A5
:1036E80000F0180413191800FEE720251F240021F4
:1036F8000F221A77197101221874A3F84850A3F8F9
:103708004A409A739A7630BD35251324012119222F
:10371800EFE7FEE7FDE700BF680000202DE9F7436B
:1037280000F11106644F654C360106F10209B944EF
:1037380005464846FDF7C8FC0421804601900DEB7C
:103748000100FEF729F897F826205D4BE08313F96E
:103758002230237323763E445A4B2365012384F891
:103768005430737A63702E0107EB0515C4F808808E
:1037780095F81A01C4F81480FFF7ACFF524A637831
:103788001288A285E28B626200226373637684F8F2
:10379800283084F82A2023B94846FDF7B5FC84F878
:1037A8002A003E4496F81B2184F829206AB1E18B4F
:1037B80002EB021303EB03230B44E383A3684FF0EC
:1037C800113101FB0233A360636194F82830052BA3
:1037D80004D8DFE803F004292B1F2127FEE7A3788C
:1037E800032B03D8DFE803F003242603FEE718259C
:1037F800364E84F8205016E90F0086E80F000023A3
:1038080084F838300123A387A378012B14D0022B26
:1038180036D0FEE70225EBE7A378012B08D0022B70
:1038280008D0FEE70325E3E71925E1E70625DFE7EA
:103838001225DDE70C25DBE7122384F83030284613
:1038480040F2E243A4F84C30FDF7F6F94FF07F510F
:10385800FCF796FCFDF7BAFAB4F848204FF47A73EF
:10386800B3FBF2F3A4F8403097F82C30C0B2A4F8B8
:103878004E00052B14D8DFE803F0051C10131619A9
:103888000C23DAE74FF416536364002384F85530A9
:10389800A4F8563003B0BDE8F0834FF41643F3E7BD
:1038A8004FF46143F0E74FF4E133EDE74FF4613350
:1038B800EAE74FF49643E7E7C000002068000020DD
:1038C80058C00008000101017C0200209800002077
:1038D80002484FF4DE72FF2108F04CB9C000002006
:1038E80002484FF4DE71FEF731BE00BFC000002071
:1038F80002484FF4DE71FEF715BE00BFC00000207D
:1039080008B5FFF7F5FF034B1878BDE80840FFF747
:103918004BBC00BF6800002070B5FFF7D9FFFEF769
:1039280029FE04280CD0FFF7D3FFFEF723FE042856
:1039380003D1FFF7DDFF042806D0FFF7C9FF03E036
:10394800FFF7D6FF0428EED143494448102208F077
:1039580035F908B1FFF7BCFF404CA38A40F24F127B
:10396800934267D0B3F5A47F36D8062204F1160136
:1039780004F58970FDF7AFFC637F84F81931A37FE4
:1039880084F81A31012528460135EDB2FFF7C8FB46
:103998000A2DF8D10023E37740F24F13A3820125C3
:1039A80022692D492D4842F2D9739A424FF01002EC
:1039B8001CBF2361012508F001F900283CD02649E5
:1039C80026481022FDF775FC254926480822FDF7F0
:1039D80070FCFFF785FF31E0B3F5A77F22D82346B7
:1039E800002203250121022693F84C0001280DD05E
:1039F80003280ED093F84F0001280DD002280ED0CE
:103A080001320A2A03F11403EED1C5E783F84C50BA
:103A1800F0E783F84C10EDE783F84F60F0E783F8A0
:103A28004F10EDE70025E8B20135FFF779FB0A2DC5
:103A3800F9D1AFE70025B3E7002DCAD10023E3771A
:103A4800094C2370FFF7E6FA2078FFF7ADFB2078E2
:103A5800BDE87040FFF762BED8BD0008C000002076
:103A6800E9BD0008720200206800002030B5C01AC5
:103A78001628A8BF16206FF00805A8429DF80C402C
:103A8800B8BF2846A042C8BF20B2C0B208701844C8
:103A9800107030BD07B5084611461A461623009324
:103AA8000023FFF7E3FF03B05DF804FB0129F7B536
:103AB800054600D9FEE70F4E06EB01131C460F0121
:103AC8006278F15D83609B7807F0E2FAE678E37943
:103AD8000193A3790093314628466379227907F048
:103AE800ECFA06EB4606B108284603B0BDE8F040FC
:103AF80007F03ABCDCD6000838B50246044652F84E
:103B0800143BDD6900F11503A847217D20460022FA
:103B1800BDE8384007F033BB70B50161897A88B0D9
:103B2800044601B1012107F08EFA01230DF11F02AD
:103B380040F6D801204607F0E4F99DF81F3043F01D
:103B48001E0340F6D8018DF81F300DF11F02012326
:103B5800204607F0A0F9204607F0E8FBE179FF29A5
:103B680003D0FA22204607F0EDFB23695B7A013B7C
:103B7800042B04D8DFE803F0043E41413E00FEE791
:103B8800E922E121204607F037FC0121204607F011
:103B9800AAFB9621204607F013FC3821204607F09F
:103BA80016FC204607F01AFC2369204693F90810F2
:103BB800FFF7A2FF23699D7A15B319782046FFF70E
:103BC80075FF00221146204607F055FA002300939E
:103BD80040F2032220464FF6FF7107F09DFA204677
:103BE8004FF6FF7107F0BFFA204608B0BDE87040F5
:103BF80007F089BBDB22D721C4E76F226B21C1E71D
:103C08000F4B1049DE8B104BE3604CF2503300939E
:103C1800204619230B2207F0FFFB0123CDE90333CC
:103C28005B23CDE901531023194620460095042251
:103C380007F024FC3146204607F044FCC1E700BFEA
:103C480068000020A0860100BCD6000810B5044614
:103C580007F059FB20464FF6FF71BDE8104007F00A
:103C680082BA000038B50169036891F90810DD6966
:103C7800044600F1150300F11402A84723699A7A53
:103C880042B11A78012A00D9FEE7044B03EB02136C
:103C9800A36038BD024BE360FBE700BFDCD6000839
:103CA800BCD60008836810B504461BB9C3680BB9B5
:103CB800FFF7D8FF94F9150010BD10B5C01A9DF88C
:103CC8000840123080F30500A042C8BF20B2C0B23D
:103CD800123B08701844107010BD07B5084611460D
:103CE8001A46122300931B23FFF7E7FF03B05DF882
:103CF80004FB00000229F7B5054600D9FEE70B4E84
:103D080006EB01131C460F016278F15D83609B7816
:103D180007F04DFDE3790193A37900932279637944
:103D2800E178284607F06CFD03B0F0BD10D7000815
:103D380038B50246044652F8143BDD6900F1150314
:103D4800A847217D20462022BDE8384007F0B3BDB2
:103D58007FB58D7A0161044675B3012107F0FDFC3A
:103D68000121204607F00DFE0121204607F023FE21
:103D78002369204693F90810FFF7DAFF23692046E4
:103D88001978FFF7B7FF00221146204607F002FD19
:103D98000023009344F2030220464FF6FF7107F018
:103DA8004BFD20464FF6FF7107F06DFD204604B02D
:103DB800BDE8704007F0F1BD032107F0CEFC2046B6
:103DC800012107F0DEFD2046012107F0F4FD2369FB
:103DD800204693F90810FFF7ABFF23695E680D4B87
:103DE800E3602A4620461023862107F008FE46F69F
:103DF800E823CDE902535B23CDE900532046102385
:103E08000422702107F00AFE2A463146204607F0B0
:103E18002FFEB8E7FCD6000810B5044607F0BDFD34
:103E280020464FF6FF71BDE8104007F02CBD30B5B5
:103E38000122A1F12103C1F1210422FA04F44D1E4B
:103E480002FA03F32343AA404FF0FF344FF0FF3543
:103E5800C0E90223C0E90445C0E90623017080F8DF
:103E6800201030BDF0B5D0E90276D0E90454002224
:103E7800012311469F4276EB020C13D2D0E9063299
:103E8800DB1852419F4296413CBF0123002225EA9C
:103E9800030524EA0204C0E90632C0E9045480F8A4
:103EA8002010F0BD05EA030C04EA020E5CEA0E0CD1
:103EB8001CBF013189B2DB185241DBE7F8B58C46EB
:103EC800BCF1200F11461D46BDF818609DF81C2056
:103ED8009DF82030044600D9FEE7052D04D8DFE818
:103EE80005F00505050D0F04FEE703254248A571F9
:103EF8002F0100EB051EC05920B9FEE70425F5E7A0
:103F08000525F3E7DEF80870276116F0020F06F0C2
:103F1800010718BF47F00207A782770748BFA78A9B
:103F2800A06044BF47F00407A782B70648BFA78A26
:103F38009EF804009EF80CE0E07144BF47F00807C3
:103F4800A782370748BFA78A84F80CE044BF47F028
:103F58001007A782F606A78A84F8D95011D547F02A
:103F68002007A782A0EB0E00C0B2604528BF6046BC
:103F7800013DE075042D07D8DFE805F0273A3A3A05
:103F88003200002FEED1FEE7551E022D18D85D1E17
:103F9800032D0FD80C2801D90C25E575E57D854240
:103FA80000D9E0752046FDF7C3FA002384F8D8301D
:103FB800A375F8BD122884BF1223E3750023EDE72B
:103FC800042B88BF00230022ECE7531E022B05D8E0
:103FD8000C2801D90C23E3750023E3E70022FBE753
:103FE800531E022BFAD8082828BF0820E075F3E7EB
:103FF8002046FDF737FAD8E7F8BF000890F8D83020
:104008005BB190F8D930074A180102EB03139B689B
:104018001978135853F821007047837D0E3350F8F0
:1040280023007047F8BF0008024690F8D80030B562
:1040380028B3B2F8DC30B2F8DA1001339BB29942F7
:10404800A2F8DC301BD80023A2F8DC30948A92F85E
:10405800D93006210133DBB2062B28BF002344FAEE
:1040680003F5ED0707D5074C1901615801B9FEE7BB
:1040780082F8D93030BD013911F0FF01EAD10020B2
:10408800F8E700BFF8BF000808B5FFF7B7FFFCF76F
:10409800CFFD0649FCF774F807F02EFDFCF796FEF5
:1040A800FCF7C6FD0249FCF76BF808BD00007A3A38
:1040B80000247449837DC27D0133DBB29A4298BFE4
:1040C8000023837590F8F63090F8F7200133DBB2BF
:1040D8009A4298BF002380F8F630704713B5194B01
:1040E8000288DB8B9A42044627D1837813F0D00FDD
:1040F80025D18379812B22D84FF6FF730D220146F3
:104108000DF10600ADF80630FDF72EFBB4F80D20D2
:10411800BDF806309A420ED14C2204F10D01FDF78C
:1041280023FBB4F85900BDF80630C01A18BF0120A7
:10413800800002B010BD0320FBE70120F9E7022050
:10414800F7E700BF680000200A7ACB7902F007027F
:1041580043EA022303804B7A0A7A03F03F035B01A8
:1041680043EAD20343808B7A4A7A9B0043EA92134C
:10417800CA7A02F0010243EA822383800B7BCA7A5F
:1041880003F00F03DB0143EA5203C3800B7BC3F345
:104198000112012A11D813F0300F14BF0123002394
:1041A8009B0203830B7B7F2B0AD813F0C00F14BF2D
:1041B800012300239B024383704740F2FF73F0E71B
:1041C80040F2FF73F7E70A7ACB7902F0070243EA75
:1041D800022303804B7A0A7A03F03F035B0143EA28
:1041E800D20343808B7A4A7A9B0043EA9213CA7AB5
:1041F80002F0010243EA822383800B7BCA7A03F030
:104208000F03DB0143EA5203C3800A7CCB7B02F035
:10421800070243EA022303814B7C0A7C03F03F0335
:104228005B0143EAD20343818B7C4A7C9B0043EACF
:104238009213CA7C02F0010243EA822383810B7D38
:10424800CA7C03F00F03DB0143EA5203C3814B7DB1
:10425800DB0003828B7DDB004382CB7DDB00838226
:104268000B7EDB00C3820B7BC3F30112012A2BD820
:1042780013F0300F14BF012300239B0203830B7B31
:104288007F2B24D813F0C00F14BF012300239B02F7
:1042980043830B7DC3F30112012A1BD813F0300F9F
:1042A80014BF012300239B0283830B7D7F2B14D82B
:1042B80013F0C00F14BF012300239B02C3834FF4E4
:1042C800806303844384704740F2FF73D6E740F26B
:1042D800FF73DDE740F2FF73E6E740F2FF73EDE7B7
:1042E8002DE9F3419DF820601546522E88464FF07F
:1042F8005B024FF0000104461F4628BF522607F014
:1043080039FC2D4BDB8B23802A78A37862F30203D8
:10431800A3706978C90001F00801DBB203F0070354
:1043280041EA08111943A1706A79E37862F300033E
:10433800E370AA79637962F38613637195F90200D1
:10434800FCF7B7FDE37860F34703E370EA78237975
:1043580062F3060323712A79DBB202F0010203F04B
:104368007F0343EAC21323712A796379C2F34502B2
:1043780023F03F0313436371A379224666F347038F
:1043880002F8063F3E443B46B34210D14FF6FF7356
:10439800592221460DF10600ADF80630FDF7E4F983
:1043A800BDF80630A4F8593002B0BDE8F08113F822
:1043B800011B02F8011FE7E76800002007B500931A
:1043C80013460A460121FFF78BFF03B05DF804FB93
:1043D80030B5334B027893F8261061F3030202706C
:1043E80093F8271061F30712027093F828104278A7
:1043F80061F30302427093F8291061F307124270C7
:1044080093F82A10827861F30302827093F83210CD
:10441800827961F30302827193F82B10827861F339
:104428000712827093F82C10C27861F30302C270ED
:1044380093F82D1061F30712C27093F82E100279C9
:1044480061F30302027193F82F1061F307120271EE
:1044580093F83010427961F30302427103F1390194
:1044680000F10A0200F1160411F9015F02F8015F78
:10447800A242F9D193F84610C27D61F30102C275D8
:1044880093F8471061F38302C27593F8481061F3FB
:104498000512C27593F8493063F38712C27530BDAF
:1044A800C000002002782F4BC2F3030230B583F816
:1044B80026200278C2F3031283F827204278C2F339
:1044C800030283F828204278C2F3031283F82920D4
:1044D8008278C2F3030283F82A208279C2F30302A6
:1044E80083F832208278C2F3031283F82B20C27833
:1044F800C2F3030283F82C20C278C2F3031283F8B4
:104508002D200279C2F3030283F82E200279C2F328
:10451800031283F82F204279C2F3030283F8302074
:1045280003F1390100F10A0200F1160412F9015FE2
:1045380001F8015FA242F9D1C27DC2F3010283F8FA
:104548004620C27DC2F3810283F84720C27DC2F3B0
:10455800011283F84820C27DC2F3811283F84920F2
:1045680030BD00BFC000002070B5522698B032465A
:1045780004460D4603A8002107F0FCFA212342F265
:10458800D9708DF80C30FCF783FE1F49ADF80E008A
:1045980040F24F1314220DF11200ADF81030FCF761
:1045A80088FE1A48FFF77EFB194B8DF8260093F812
:1045B80050308DF827300AA8FFF70AFF4FF68073AE
:1045C800ADF84630134A144BCDE912236FF080231F
:1045D800149347F6FF73ADF85430104BB3F86C20C2
:1045E8008DF85620B3F86E20B3F870308DF8572048
:1045F8008DF85830009603AB2A4602212046FFF773
:104608006FFE18B070BD00BFEFBD00084813002052
:104618006800002001000A0064009E007C0200205F
:1046280038B5104D044600F11B01062205F58970C6
:10463800FCF751FE94F82130C3F3030385F81931D0
:1046480094F82130C3F3031385F81A3194F8223013
:10465800C3F3030385F81B3104F12500BDE8384096
:10466800FFF720BFC000002010B50446FDF7A8F8EA
:1046780004F11400FDF7A4F804F12800FDF7A0F8F0
:1046880004F13C00FDF79CF804F15000FDF798F8A0
:1046980004F16400FDF7A4F804F17800FDF7A0F830
:1046A80010BD00000A4A126882600A4A002383800B
:1046B800837183810384136803615368064A4361E5
:1046C800136883615368C3614EF6602303607047C3
:1046D800AC21002004BE00080DBE000838B5194DF5
:1046E800194C0220FEF7F6FF2846FFF7AFFA2046DE
:1046F800FFF792FB28466FF07F01FFF7FDF9204690
:104708006FF07F01FFF714FB2B6928461978FFF734
:10471800CDF90021204607F009F84FF47A70FDF72B
:104728004BFE2046012107F018F823692046197826
:10473800FFF7E0FA2846FFF789FA2046FFF76CFBF7
:1047480038BD00BF481300206013002008B51C4B7B
:10475800196890F82030024603BBFDF7DBFD18B955
:1047680082F82100916011E092F8213001335BB2A8
:10477800032B82F82130F5DD012382F8203093687D
:10478800C91AB1F57A6F01D901235371137923B985
:10479800537913B101231371137308BDFDF7BAFDE3
:1047A80018B1042382F82130E9E792F82130013B5F
:1047B8005BB2002B82F82130E1DC82F82000D1E7DF
:1047C800AC2100200346007B821E012A4FF0000224
:1047D80002D893F8201009B91A7370471046704729
:1047E8000A4A38B5138801339BB2502B04460D464C
:1047F80001D8138038BD002305491380FDF7C8FA96
:1048080029462046FDF7C4FAF4E700BF500300200C
:1048180016BE00082DE9F84F154604460F466B49A9
:104828006B4EFDF7B5FA29462046FDF7B1FA694BFC
:104838000022012F1A800FD11023B362082746F2F5
:10484800A810B761FDF7B8FDB762FDF7B5FD2946B9
:104858002046FFF7C5FFF2E7BB1E08220C2B00F22B
:10486800A880DFE803F03141521C07A6A6A66262C1
:1048780062626200564E4FF008081027C6F818808A
:1048880046F2A810B762FDF797FDC6F82880B76111
:10489800FDF792FD29462046FFF7A2FFEDE74C4EB3
:1048A8004FF008081027C6F8188046F2A810B7611C
:1048B800FDF782FDC6F82880B762FDF77DFD294621
:1048C8002046FFF78DFFEDE7B262414E102746F212
:1048D800A810B761FDF770FDB762FDF76DFD2946B9
:1048E8002046FFF77DFFF2E71023B361384E082713
:1048F80046F2A810B761FDF75FFDB762FDF75CFDF2
:1049080029462046FFF76CFFF2E7B261304E1027C8
:1049180046F2A810B761FDF74FFDB762FDF74CFDF1
:1049280029462046FFF75CFFF2E7A7F1090BDFF8FD
:10493800A0805FFA8BFB00264FF0080A5E453CBF5B
:104948001023C8F818304FF0040946F2A810C8F828
:1049580018A0FDF731FDC8F828A0FDF72DFD09F1D5
:10496800FF3929462046FFF73BFF19F0FF09ECD134
:104978001023C8F828304FF0040946F2A810C8F8E8
:1049880018A0FDF719FDC8F828A0FDF715FD09F1D5
:10499800FF3929462046FFF723FF19F0FF09ECD11C
:1049A8000136A7F10803F6B2DBB2B34238BF0026DE
:1049B800C4E71023B261B3614CF25030FDF7FCFC40
:1049C80029462046FFF70CFFF6E700BF16BE000891
:1049D800000400485003002073B50E4615461C46D7
:1049E8000DF106020DF1070158B90B4806F036FC27
:1049F8009DF8061008482346324606F0DEFA02B053
:104A080070BD064806F0ADFF9DF806100348234622
:104A18002A4606F065FEF2E74813002060130020DE
:104A2800F8B5184F16461C460D46FDF7A4FB384648
:104A380033460A46002106F099FA38464FF6FF71C8
:104A480006F091FBA10138460F4F06F0A5FB7D202B
:104A5800FDF7B2FCFDF7DEFB384633462A46002157
:104A680006F017FE38464FF6FF7106F00CFF2201DC
:104A7800384692B2012106F02EFFBDE8F8407D20AD
:104A8800FDF79ABC48130020601300202DE9F0417F
:104A9800194C05465B270E463A460021204607F08A
:104AA80069F8AB692360EB696360144B14491B78A0
:104AB8009A1E53425341627A63F3000262726FF0A6
:104AC8002602A27227220023E27204F10E001422A9
:104AD80023736373FCF7EDFB59212046FCF75CFE5A
:104AE800084BA4F859003A46214630461B7FBDE8DA
:104AF800F041FFF795BF00BF6E0F00204203002072
:104B0800EFBD00086800002037B50C4618BB2348E5
:104B180003699D7A9DB101F18E020DF1060106F03F
:104B280087FBBDF90630002B10DB4FF6FF73ADF89D
:104B38000630BDF8063084F88C3003B030BD0DF176
:104B4800060106F0D0FC84F88E50EAE77F33F0DAED
:104B58004FF68173EBE7124803699D7A95B101F12D
:104B68008F020DF1060106F0E0FEBDF90630002BBC
:104B78000FDB4FF6FF73ADF80630BDF8063084F84A
:104B88008D30DAE70DF1060106F0A8FF84F88F50A2
:104B9800EBE77F33F1DA4FF68173ECE74813002037
:104BA800601300200A4608B501460148FFF732FEA7
:104BB8002800002000B591B00446684616461D46F8
:104BC80007F032F81849684606F0DCFF304606F070
:104BD800FBF80146684606F0D5FF1449684606F01A
:104BE800D1FF134B684653F82510124D06F0CAFF43
:104BF8001149684606F0C6FF9DF84830684655F8E2
:104C0800231006F0BFFF0D49684606F0BBFF9DF86C
:104C18004C30684655F8231006F0B4FF08486A4639
:104C28002146FFF7F7FD00BF18BE00081FBE0008A9
:104C3800000000201000002024BE00082BBE000841
:104C480028000020024608B501480021FFF7E2FDD0
:104C58002800002038B51F4B04461F484FF07F3C02
:104C6800C3E923C06FF07F400022C3F894000D46CB
:104C780004F12800C3E90222C3E90722C3E90C2290
:104C8800C3E91122C3E91622C3E91B22C3E9202282
:104C98005A601A749A6183F82420DA6283F83820FB
:104CA8001A6483F84C205A6583F860209A6683F862
:104CB8007420DA6783F88820A3F89820FFF7B7F8FC
:104CC800294604F15000FFF7B2F829462046FFF7BD
:104CD800AEF838BDA0100020FFFF7F0010B50446D5
:104CE8002830FFF7BFF804F15000FFF7BBF8204663
:104CF800FFF7B8F810BD0000174B184A4FF07F3186
:104D080030B5C3E923126FF07F42C3F89420002224
:104D1800A3F89820D0E90C454FF0FF324FF0FF334D
:104D2800C0E90E23C0E91823C0E90423D0E902230F
:104D3800C0E91045D0E9164590F8281080F84810C9
:104D4800C0E9062390F85010037880F87010C0E985
:104D58001A4580F8203030BDA0100020FFFF7F00EA
:104D6800D0E9042310B5D0E9064122430B43C0E93A
:104D78000423024A53680133536010BDA010002079
:104D8800D0E90E2310B5D0E9104122430B43C0E906
:104D98000E23024A93690133936110BDA0100020CD
:104DA800D0E9182310B5D0E91A4122430B43C0E9D2
:104DB8001823024AD36A0133D36210BDA010002021
:104DC800064B1B78022B06D1054B93F824000128CB
:104DD80038BF012070470020704700BF4203002001
:104DE800A0100020064B1B78022B06D1054B93F828
:104DF8006000012838BF012070470020704700BFBD
:104E080042030020A01000200E48C3691A0617D5D7
:104E180003681B0614D50C4B0C4A1988138889B2F1
:104E28009BB299420AD013880133DBB213801388EE
:104E3800074A9BB2D35CDBB283627047FCF77DBC48
:104E4800704700BF00440040A01500209E150020B8
:104E58009E1400200E490F4A0B8812880133DBB2DA
:104E680092B29A4212D00C4AD0540B804FF0402292
:104E780002F5806353E8003F43F0800302F5806049
:104E880040E800310029F3D1012070470020704725
:104E9800A01500209E1500209E1400200846FFF74C
:104EA800D9BF000070B588B00C46064615460021EB
:104EB8002022684606F05EFE231E18BF01231B034E
:104EC800CDE9023569460C230348019604940593FD
:104ED80005F0B0FE08B070BD0044004010B5064CA7
:104EE800236823F001032360FFF7DCFF236843F006
:104EF8000103236010BD00BF0044004008B541B164
:104F08004FF4005204484FF48061FFF7E7FFFDF7C4
:104F1800D9F9012008BD00BFA086010008B531B14C
:104F2800002211460348FFF7D9FFFDF7CBF901200E
:104F380008BD00BF9A5B060008B541B14FF40052A6
:104F480004484FF48061FFF7C9FFFDF7CBF9012052
:104F580008BD00BFA086010013B52F4C236823F0BD
:104F6800010323604FF40030FCF7CFFB0823012036
:104F7800CDE900300A22032304214FF09040FCF7CA
:104F88004FFF002211462548FFF78CFF636823F482
:104F980090436360A36823F02A03A360204BC022D8
:104FA80083F8252320225A602046FCF7C6FB4FF0E1
:104FB800402101F5806353E8003F23F0400301F5E9
:104FC800806040E80032002AF3D140232362154B69
:104FD8001A80154B1A80636823F400636360A36822
:104FE80023F00803A360636823F480436360A36825
:104FF80023F02203A360A36843F48053A3602368CB
:1050080043F001032360044BDA699102FCD5DA69A5
:105018005202F9D502B010BD00440040A08601003C
:1050280000E100E09E150020A015002030B5254CB9
:1050380085B00E2200210546684606F09BFDB4F8AF
:105048008C302148ADF80030FFF7BAFE94F8902074
:1050580094F98E3094F98F108DF80200002A18BF49
:105068000B468DF80330194894F891308DF80420D8
:105078008DF80530FEF716FE94F892308DF807305B
:1050880094F893308DF80830B4F89430ADF80A30BD
:105098000F4B8DF806009A788DF80C2093F8512064
:1050A80093F852305AB1002B0CBF012303236946F1
:1050B80028468DF80D3003F080FF05B030BD013370
:1050C800DBB2F4E7A01000202810002048130020CD
:1050D800680000200148FDF715BF00BF241000201C
:1050E800F8B5154D0E4607465B232946304614464B
:1050F8002A46FFF771FCD7E9041328686A689A42C0
:1051080008BF884209D0002430460C49FFF7FCFC50
:10511800002C0CBF01200320F8BD59212846FCF7BC
:105128003BFBB5F859308342EDD114B1FFF7D2FFFC
:10513800EAE70124E8E700BF8D130020A010002053
:1051480013B5012104460844FCF726FBA178ADF805
:1051580006000DF10600FCF7FBFAE178FCF7F8FA17
:105168002179FCF7F5FA6179FCF7F2FAA179FCF7F5
:10517800EFFA04F108010322FCF7F6FA627804F169
:105188000C01FCF7F1FA94F82311FCF7E1FABDF8E9
:105198000630A4F80C3102B010BD00000038024BF4
:1051A80018BF0120187070471403002030B5002A7A
:1051B80040F01281042B00F2E781002B00F00981F6
:1051C80091F800C0834C10F80C2094F81BE022EAF8
:1051D8000E0200F80C20E27E5208E27652B90A78F4
:1051E80001320A708022E2760A784FF0FF0C00F84C
:1051F80002C0E27E91F800E010F80EC02CEA02022C
:1052080000F80E20E27E5208E27652B90A7801329E
:105218000A708022E2760A784FF0FF0C00F802C08C
:10522800E27E91F800E010F80EC02CEA020200F8C5
:105238000E20E27E5208E276002A00F0AD82012BB1
:1052480000F0C78091F800C094F81BE010F80C201B
:1052580022EA0E0200F80C20E27E5208E27652B9E9
:105268000A7801320A708022E2760A784FF0FF0C41
:1052780000F802C0E27E91F800E010F80EC02CEAB7
:10528800020200F80E20E27E5208E27652B90A784D
:1052980001320A708022E2760A784FF0FF0C00F89B
:1052A80002C0E27E91F800E010F80EC02CEA02027B
:1052B80000F80E20E27E5208E2764AB90A780132F6
:1052C8000A708022E2760A784FF0FF0C00F802C0DC
:1052D800022B7ED091F800C094F81BE010F80C2047
:1052E80022EA0E0200F80C20E27E5208E27642B969
:1052F8000A7801320A708022E2760A78FF258554FE
:10530800E27E91F800E010F80EC02CEA020200F8E4
:105318000E20E27E5208E27642B90A7801320A701B
:105328008022E2760A78FF258554E27E91F800E033
:1053380010F80EC02CEA020200F80E20E27E520895
:10534800E2763AB90A7801320A708022E2760A785F
:10535800FF258554042B3CD10A7894F81BC0835C44
:1053680023EA0C038354E37E5B08E37643B90B78A6
:10537800802201330B70E2760B78FF22C254E37E61
:1053880091F800C010F80C2022EA030300F80C3052
:10539800E37E5B08E37643B90B78802201330B7018
:1053A800E2760B78FF22C254E37E91F800C010F831
:1053B8000C2022EA030300F80C30E37E5B08E37656
:1053C8003BB90B78802201330B70E2760B78FF2211
:1053D800C25430BD40060020FF2AFAD1032B00F248
:1053E800E981002BF5D091F800E0664C10F80EC06A
:1053F800E57E2CEA050C00F80EC094F81BC04FEAB5
:105408005C05E5763DB90D7801350D708025E576AA
:105418000D784255E57E91F800E010F80E2022EA5A
:10542800050200F80E20E27E5208E27642B90A78B8
:1054380001320A708022E2760A78FF258554E27EDE
:105448005208E27642B90A7801320A708022E2767E
:105458000A78FF258554E27E91F800E010F80EC026
:105468002CEA020200F80E20E27E5208E276002AB8
:1054780000F07982012BACD091F800C0E57E10F8DD
:105488000C2022EA050200F80C20E27E5208E2769F
:1054980042B90A7801320A708022E2760A78FF253A
:1054A8008554E27E91F800E010F80EC02CEA020262
:1054B80000F80E20E27E5208E27642B90A780132FC
:1054C8000A708022E2760A78FF258554E27E520827
:1054D800E27642B90A7801320A708022E2760A78C6
:1054E800FF258554E27E91F800E010F80EC02CEA02
:1054F800020200F80E20E27E5208E2763AB90A78F3
:1055080001320A708022E2760A78FF258554032B3F
:105518007FF45FAF0A78E57E835C23EA0503835452
:10552800E37E5B08E37643B90B78802201330B7086
:10553800E2760B78FF22C254E37E0D78425D22EAC0
:1055480003034355E37E5B08E37643B90B78802277
:1055580001330B70E2760B78FF22C254E37E5B08BE
:10556800E37643B90B78802201330B70E2760B782F
:10557800FF22C254E37E0D78425D22EA03034355BD
:105588001BE700BF4006002091F800C0884C10F8C7
:105598000C2094F81BE022EA0E0200F80C20E27EB0
:1055A800520803F5C063E2763AB90A7801320A7004
:1055B8008022E2760A78FF25855491F800C094F895
:1055C8001BE010F80C2022EA0E0200F80C20E27E04
:1055D8005208E2763AB90A7801320A708022E276F5
:1055E8000A78FF258554E27E5208E2763AB90A78AD
:1055F80001320A708022E2760A78FF258554E27E1D
:105608005208E2763AB90A7801320A708022E276C4
:105618000A78FF25855491F800C094F81BE010F82B
:105628000C2022EA0E0200F80C20E27E5208E276F4
:105638003AB90A7801320A708022E2760A78FF25A0
:1056480085541D0608D491F800C0E57E10F80C209A
:1056580022EA050200F80C20E27E5208E2763AB906
:105668000A7801320A708022E2760A78FF2585548A
:105678005A0608D491F800C0E57E10F80C2022EAFA
:10568800050200F80C20E27E5208E2763AB90A7860
:1056980001320A708022E2760A78FF2585549D0639
:1056A80008D491F800C0E57E10F80C2022EA050223
:1056B80000F80C20E27E5208E2763AB90A78013204
:1056C8000A708022E2760A78FF258554DA0608D423
:1056D80091F800C0E57E10F80C2022EA050200F8D7
:1056E8000C20E27E5208E2763AB90A7801320A7052
:1056F8008022E2760A78FF2585541D0708D491F8A0
:1057080000C0E57E10F80C2022EA050200F80C2003
:10571800E27E5208E2763AB90A7801320A708022AB
:10572800E2760A78FF2585545A0708D491F800C014
:10573800E57E10F80C2022EA050200F80C20E27E33
:105748005208E2763AB90A7801320A708022E27683
:105758000A78FF2585549D0708D491F800C0E57E96
:1057680010F80C2022EA050200F80C20E27E52080C
:10577800E2763AB90A7801320A708022E2760A782B
:10578800FF258554DB073FF518AE0A78E57E835C74
:1057980023EA0503835410E60A7801320A7080224E
:1057A800E2760A784FF0FF0C00F802C047E500BF28
:1057B800400600200D78704C10F805C094F81BE0E6
:1057C8002CEA0E0C00F805C094F81BC04FEA5C05E3
:1057D80003F5E063E57635B90D7801350D70802560
:1057E800E5760D7842550D7894F81BC0425D22EAA3
:1057F8000C024255E27E5208E2763AB90A78013242
:105808000A708022E2760A78FF258554E27E5208E3
:10581800E2763AB90A7801320A708022E2760A788A
:10582800FF258554E27E5208E2763AB90A780132B9
:105838000A708022E2760A78FF258554E27E5208B3
:10584800E2763AB90A7801320A708022E2760A785A
:10585800FF2585541A0606D40D7894F81BC0425DBE
:1058680022EA0C024255E27E5208E2763AB90A78F8
:1058780001320A708022E2760A78FF2585545D0697
:1058880006D40D7894F81BC0425D22EA0C024255FA
:10589800E27E5208E2763AB90A7801320A7080222A
:1058A800E2760A78FF2585549A0606D40D7894F88E
:1058B8001BC0425D22EA0C024255E27E5208E276A3
:1058C8003AB90A7801320A708022E2760A78FF250E
:1058D8008554DD0606D40D7894F81BC0425D22EA93
:1058E8000C024255E27E5208E2763AB90A78013251
:1058F8000A708022E2760A78FF2585541A0706D4B2
:105908000D7894F81BC0425D22EA0C024255E27EF3
:105918005208E2763AB90A7801320A708022E276B1
:105928000A78FF2585545D0706D40D7894F81BC0C6
:10593800425D22EA0C024255E27E5208E2763AB90A
:105948000A7801320A708022E2760A78FF258554A7
:105958009A073FF50BAF0D7894F81BC0425D22EA19
:105968000C02425502E70A7801320A708022E27678
:105978000A78FF2585547DE5400600202DE9F0478B
:105988009E4C80254FF0000881F80080E576FF25C1
:1059980005701F46002B00F02F8103F1FF39C24626
:1059A80052FA89F9561E43460DE0454540F0C3803A
:1059B8000AF1010A5FFA8AFA0A78BA4280F0B380DB
:1059C8004E4500F0088116F8015F002BEDD16B1EE3
:1059D800DBB2FD2B00F2AA803F2B40F2E28005F1FA
:1059E8004103DBB23F2B00F2AD80E37E01355B085B
:1059F800EDB2E376002B00F0E5805B08E37643B96F
:105A08000B7801330B708023E3760B78FF22C254A6
:105A1800E37EAA0608D491F800C010F80C2022EA08
:105A2800030300F80C30E37E5B08E37643B90B7898
:105A380001330B708023E3760B78FF22C254E37E98
:105A4800EA0608D491F800C010F80C2022EA0303F3
:105A580000F80C30E37E5B08E37643B90B7801333A
:105A68000B708023E3760B78FF22C254E37E2A076B
:105A780008D491F800C010F80C2022EA030300F8BB
:105A88000C30E37E5B08E37643B90B7801330B7087
:105A98008023E3760B78FF22C254E37E6A0708D49A
:105AA80091F800C010F80C2022EA030300F80C302B
:105AB800E37E5B08E37643B90B7801330B708023F0
:105AC800E3760B78FF22C254E37EAA0708D491F844
