:020000040800F2
:100000000000012035A600081FA6000821A6000850
:1000100023A6000825A6000827A600080000000067
:1000200000000000000000000000000029A60008F9
:100030002BA60008000000002DA600082FA600082F
:1000400085A6000885A6000885A6000885A60008E4
:1000500085A6000885A6000885A6000885A60008D4
:1000600085A6000885A6000885A6000885A60008C4
:1000700085A6000885A6000885A6000885A60008B4
:1000800085A6000885A6000885A6000885A60008A4
:100090000000000085A6000885A6000885A60008C7
:1000A00085A6000885A6000885A600083D32000840
:1000B00085A60008452D000885A6000885A600082D
:1000C00085A6000885A6000885A6000885A6000864
:1000D000114C0008412A000885A6000885A60008E2
:1000E00085A6000885A6000885A6000885A6000844
:1000F00085A60008000000000000000085A600089A
:1001000085A6000885A60008AD89000885A6000818
:1001100085A6000885A6000885A6000885A6000813
:1001200085A6000885A6000885A6000885A6000803
:0801300085A6000885A6000861
:1001380010B5054C237833B9044B13B10448AFF319
:1001480000800123237010BD48000020000000003B
:1001580078C5000808B5034B1BB103490348AFF342
:10016800008008BD000000004C00002078C5000891
:1001780010F8012B11F8013B012A28BF9A42F7D049
:10018800D01A7047034613F8012B002AFBD1181A1E
:100198000138704781F0004102E000BF83F000435E
:1001A80030B54FEA41044FEA430594EA050F08BF0A
:1001B80090EA020F1FBF54EA000C55EA020C7FEACE
:1001C800645C7FEA655C00F0E2804FEA5454D4EB4B
:1001D8005555B8BF6D420CDD2C4480EA020281EA15
:1001E800030382EA000083EA010180EA020281EA4D
:1001F8000303362D88BF30BD11F0004F4FEA01319F
:100208004FF4801C4CEA113102D0404261EB4101AD
:1002180013F0004F4FEA03334CEA133302D0524233
:1002280063EB430394EA050F00F0A780A4F10104EF
:10023800D5F1200E0DDB02FA0EFC22FA05F2801829
:1002480041F1000103FA0EF2801843FA05F359410F
:100258000EE0A5F120050EF1200E012A03FA0EFC8E
:1002680028BF4CF0020C43FA05F3C01851EBE371B8
:1002780001F0004507D54FF0000EDCF1000C7EEBD5
:1002880000006EEB0101B1F5801F1BD3B1F5001F13
:100298000CD349085FEA30004FEA3C0C04F1010432
:1002A8004FEA445212F5800F80F09A80BCF1004F5B
:1002B80008BF5FEA500C50F1000041EB045141EADD
:1002C800050130BD5FEA4C0C404141EB0101013CA6
:1002D80028BFB1F5801FE9D291F0000F04BF014695
:1002E8000020B1FA81F308BF2033A3F10B03B3F167
:1002F80020020CDA0C3208DD02F1140CC2F10C02F7
:1003080001FA0CF021FA02F10CE002F11402D8BF54
:10031800C2F1200C01FA02F120FA0CFCDCBF41EA20
:100328000C019040E41AA2BF01EB0451294330BDEF
:100338006FEA04041F3C1CDA0C340EDC04F11404CC
:10034800C4F1200220FA04F001FA02F340EA0300A3
:1003580021FA04F345EA030130BDC4F10C04C4F1E9
:10036800200220FA02F001FA04F340EA03002946C9
:1003780030BD21FA04F0294630BD94F0000F83F413
:10038800801306BF81F480110134013D4EE77FEAF6
:10039800645C18BF7FEA655C29D094EA050F08BF42
:1003A80090EA020F05D054EA000C04BF1946104623
:1003B80030BD91EA030F1EBF0021002030BD5FEA67
:1003C800545C05D14000494128BF41F0004130BD8F
:1003D80014F580043CBF01F5801130BD01F00045E3
:1003E80045F0FE4141F470014FF0000030BD7FEA56
:1003F800645C1ABF194610467FEA655C1CBF0B4651
:10040800024650EA013406BF52EA033591EA030F67
:1004180041F4002130BD00BF90F0000F04BF00215F
:10042800704730B54FF4806404F132044FF0000592
:100438004FF0000150E700BF90F0000F04BF00210B
:10044800704730B54FF4806404F1320410F0004571
:1004580048BF40424FF000013EE700BF42004FEA6C
:10046800E2014FEA31014FEA02701FBF12F07F43E9
:1004780093F07F4F81F06051704732F07F4208BFA0
:10048800704793F07F4F04BF41F40021704730B5A7
:100498004FF4607401F0004521F000411CE700BFF3
:1004A80050EA010208BF704730B54FF000050AE076
:1004B80050EA010208BF704730B511F0004502D577
:1004C800404261EB41014FF4806404F132045FEA79
:1004D800915C3FF4D8AE4FF003025FEADC0C18BF22
:1004E80003325FEADC0C18BF033202EBDC02C2F114
:1004F800200300FA03FC20FA02F001FA03FE40EAA6
:100508000E0021FA02F11444BDE600BF70B54FF0A9
:10051800FF0C4CF4E06C1CEA11541DBF1CEA135587
:1005280094EA0C0F95EA0C0F00F0DEF82C4481EAEF
:10053800030621EA4C5123EA4C5350EA013518BF0F
:1005480052EA033541F4801143F4801338D0A0FBFC
:1005580002CE4FF00005E1FB02E506F00042E0FBA9
:1005680003E54FF00006E1FB03569CF0000F18BFAF
:100578004EF0010EA4F1FF04B6F5007F64F5407457
:1005880004D25FEA4E0E6D4146EB060642EAC621EA
:1005980041EA55514FEAC52040EA5E504FEACE2E57
:1005A800B4F1FD0C88BFBCF5E06F1ED8BEF1004F5A
:1005B80008BF5FEA500E50F1000041EB045170BDD6
:1005C80006F0004646EA010140EA020081EA03011A
:1005D800B4EB5C04C2BFD4EB0C0541EA045170BD16
:1005E80041F480114FF0000E013C00F3AB8014F190
:1005F800360FDEBF002001F0004170BDC4F10004D9
:10060800203C35DA0C341BDC04F11404C4F1200559
:1006180000FA05F320FA04F001FA05F240EA0200B4
:1006280001F0004221F0004110EBD37021FA04F6EA
:1006380042EB06015EEA430E08BF20EAD37070BDA4
:10064800C4F10C04C4F1200500FA04F320FA05F003
:1006580001FA04F240EA020001F0004110EBD37005
:1006680041F100015EEA430E08BF20EAD37070BD75
:10067800C4F1200500FA05F24EEA020E20FA04F34E
:1006880001FA05F243EA020321FA04F001F00041FD
:1006980021FA04F220EA020000EBD3705EEA430E6E
:1006A80008BF20EAD37070BD94F0000F0FD101F09D
:1006B8000046400041EB010111F4801F08BF013CD6
:1006C800F7D041EA060195F0000F18BF704703F014
:1006D8000046520043EB030313F4801F08BF013D9B
:1006E800F7D043EA0603704794EA0C0F0CEA135557
:1006F80018BF95EA0C0F0CD050EA410618BF52EA11
:100708004306D1D181EA030101F000414FF0000016
:1007180070BD50EA410606BF1046194652EA430624
:1007280019D094EA0C0F02D150EA013613D195EA98
:100738000C0F05D152EA03361CBF104619460AD1E0
:1007480081EA030101F0004141F0FE4141F47001EA
:100758004FF0000070BD41F0FE4141F4780170BDDA
:1007680070B54FF0FF0C4CF4E06C1CEA11541DBF3F
:100778001CEA135594EA0C0F95EA0C0F00F0A7F841
:10078800A4EB050481EA030E52EA03354FEA01316E
:1007980000F088804FEA03334FF0805545EA131381
:1007A80043EA12634FEA022245EA111545EA106549
:1007B8004FEA00260EF000419D4208BF964244F1E0
:1007C800FD0404F5407402D25B084FEA3202B61AFF
:1007D80065EB03055B084FEA32024FF480104FF4D3
:1007E800002CB6EB020E75EB030E22BFB61A754647
:1007F80040EA0C005B084FEA3202B6EB020E75EBDA
:10080800030E22BFB61A754640EA5C005B084FEA41
:100818003202B6EB020E75EB030E22BFB61A75460E
:1008280040EA9C005B084FEA3202B6EB020E75EB19
:10083800030E22BFB61A754640EADC0055EA060EDA
:1008480018D04FEA051545EA16754FEA06164FEA1D
:10085800C30343EA52734FEAC2025FEA1C1CC0D1C9
:1008680011F4801F0BD141EA00014FF000004FF056
:10087800004CB6E711F4801F04BF01430020B4F117
:10088800FD0C88BFBCF5E06F3FF6AFAEB5EB030CCF
:1008980004BFB6EB020C5FEA500C50F1000041EBCC
:1008A800045170BD0EF0004E4EEA113114EB5C0499
:1008B800C2BFD4EB0C0541EA045170BD41F480116C
:1008C8004FF0000E013C90E645EA060E8DE60CEA74
:1008D800135594EA0C0F08BF95EA0C0F3FF43BAF91
:1008E80094EA0C0F0AD150EA01347FF434AF95EA48
:1008F8000C0F7FF425AF104619462CE795EA0C0F2C
:1009080006D152EA03353FF4FDAE1046194622E7F8
:1009180050EA410618BF52EA43067FF4C5AE50EAD2
:1009280041047FF40DAF52EA43057FF4EBAE12E7C2
:100938004A0011D212F5001211D20DD56FF4787356
:10094800B3EB62520ED44FEAC12343F0004343EAAB
:10095800505323FA02F070474FF00000704750EAF6
:10096800013002D14FF0FF3070474FF00000704760
:1009780080F0004002E000BF81F0004142001FBF4C
:100988005FEA410392EA030F7FEA226C7FEA236C55
:100998006AD04FEA1262D2EB1363C1BFD21841404A
:1009A80048404140B8BF5B42192B88BF704710F0E0
:1009B800004F40F4000020F07F4018BF404211F083
:1009C800004F41F4000121F07F4118BF494292EAEB
:1009D800030F3FD0A2F1010241FA03FC10EB0C0017
:1009E800C3F1200301FA03F100F0004302D54942A4
:1009F80060EB4000B0F5000F13D3B0F1807F06D351
:100A080040084FEA310102F10102FE2A51D2B1F148
:100A1800004F40EBC25008BF20F0010040EA03003D
:100A28007047490040EB0000013A28BFB0F5000FBD
:100A3800EDD2B0FA80FCACF1080CB2EB0C0200FA73
:100A48000CF0AABF00EBC25052421843BCBFD040C2
:100A58001843704792F0000F81F4000106BF80F43C
:100A680000000132013BB5E74FEA41037FEA226CFF
:100A780018BF7FEA236C21D092EA030F04D092F0CA
:100A8800000F08BF0846704790EA010F1CBF0020FE
:100A9800704712F07F4F04D1400028BF40F000405B
:100AA800704712F100723CBF00F50000704700F07B
:100AB800004343F0FE4040F4000070477FEA2262A2
:100AC80016BF08467FEA23630146420206BF5FEA73
:100AD800412390EA010F40F4800070474FF0000373
:100AE80004E000BF10F0004348BF40425FEA000C3A
:100AF80008BF704743F0964301464FF000001CE0E2
:100B080050EA010208BF70474FF000030AE000BF37
:100B180050EA010208BF704711F0004302D5404275
:100B280061EB41015FEA010C02BF844601460020E7
:100B380043F0B64308BFA3F18053A3F50003BCFA02
:100B48008CF2083AA3EBC25310DB01FA02FC6344AF
:100B580000FA02FCC2F12002BCF1004F20FA02F2B6
:100B680043EB020008BF20F00100704702F12002A9
:100B780001FA02FCC2F1200250EA4C0021FA02F20A
:100B880043EB020008BF20EADC7070474FF0FF0C0F
:100B98001CEAD0521EBF1CEAD15392EA0C0F93EA0A
:100BA8000C0F6FD01A4480EA010C400218BF5FEAAC
:100BB80041211ED04FF0006343EA501043EA51111F
:100BC800A0FB01310CF00040B1F5000F3EBF490019
:100BD80041EAD3715B0040EA010062F17F02FD2A1D
:100BE8001DD8B3F1004F40EBC25008BF20F0010000
:100BF800704790F0000F0CF0004C08BF49024CEA17
:100C0800502040EA51207F3AC2BFD2F1FF0340EAA8
:100C1800C250704740F400004FF00003013A5DDC19
:100C280012F1190FDCBF00F000407047C2F100025A
:100C3800410021FA02F1C2F1200200FA02FC5FEA47
:100C4800310040F1000053EA4C0308BF20EADC7091
:100C5800704792F0000F00F0004C02BF400010F403
:100C6800000F013AF9D040EA0C0093F0000F01F0B0
:100C7800004C02BF490011F4000F013BF9D041EAD2
:100C88000C018FE70CEAD15392EA0C0F18BF93EAD4
:100C98000C0F0AD030F0004C18BF31F0004CD8D1FE
:100CA80080EA010000F00040704790F0000F17BF85
:100CB80090F0004F084691F0000F91F0004F14D0CB
:100CC80092EA0C0F01D142020FD193EA0C0F03D123
:100CD8004B0218BF084608D180EA010000F0004026
:100CE80040F0FE4040F40000704740F0FE4040F401
:100CF800400070474FF0FF0C1CEAD0521EBF1CEAA0
:100D0800D15392EA0C0F93EA0C0F69D0A2EB0302BD
:100D180080EA010C49024FEA402037D04FF0805357
:100D280043EA111143EA10130CF000408B4238BF1C
:100D38005B0042F17D024FF4000C8B4224BF5B1A2A
:100D480040EA0C00B3EB510F24BFA3EB510340EA78
:100D58005C00B3EB910F24BFA3EB910340EA9C0026
:100D6800B3EBD10F24BFA3EBD10340EADC001B0196
:100D780018BF5FEA1C1CE0D1FD2A3FF650AF8B423A
:100D880040EBC25008BF20F0010070470CF0004C47
:100D98004CEA50207F32C2BFD2F1FF0340EAC25072
:100DA800704740F400004FF00003013A37E792F033
:100DB800000F00F0004C02BF400010F4000F013A91
:100DC800F9D040EA0C0093F0000F01F0004C02BF8C
:100DD800490011F4000F013BF9D041EA0C0195E7F5
:100DE8000CEAD15392EA0C0F08D142027FF47DAF8E
:100DF80093EA0C0F7FF470AF084676E793EA0C0F7E
:100E080004D14B023FF44CAF08466EE730F0004C7B
:100E180018BF31F0004CCAD130F000427FF45CAF0B
:100E280031F000437FF43CAF5FE700BF4FF0FF3C79
:100E380006E000BF4FF0010C02E000BF4FF0010CCC
:100E48004DF804CD4FEA40024FEA41037FEA226C95
:100E580018BF7FEA236C11D001B052EA530C18BFB7
:100E680090EA010F58BFB2EB030088BFC81738BF1C
:100E78006FEAE17018BF40F0010070477FEA226C0A
:100E880002D15FEA402C05D17FEA236CE4D15FEA06
:100E9800412CE1D05DF8040B704700BF844608463A
:100EA8006146FFE70FB5FFF7C9FF002848BF10F1FB
:100EB800000F0FBD4DF808EDFFF7F4FF0CBF012040
:100EC80000205DF808FB00BF4DF808EDFFF7EAFFCA
:100ED80034BF012000205DF808FB00BF4DF808ED85
:100EE800FFF7E0FF94BF012000205DF808FB00BF7A
:100EF8004DF808EDFFF7D2FF94BF012000205DF800
:100F080008FB00BF4DF808EDFFF7C8FF34BF01200C
:100F180000205DF808FB00BF4FEA4002B2F1FE4F27
:100F28000FD34FF09E03B3EB12620DD94FEA0023A3
:100F380043F0004310F0004F23FA02F018BF40427C
:100F480070474FF00000704712F1610F01D1420263
:100F580005D110F0004008BF6FF0004070474FF017
:100F68000000704742000ED2B2F1FE4F0BD34FF093
:100F78009E03B3EB126209D44FEA002343F0004307
:100F880023FA02F070474FF00000704712F1610F2A
:100F980001D1420202D14FF0FF3070474FF00000FC
:100FA800704700BF0022427082700122C270B1FAFD
:100FB80081F10222490902710322017042717047CE
:100FC80043788B421FD0012941700AD0022910D0E2
:100FD800C1B90123C37081700223037103234371D4
:100FE8007047037843B1012383700223C370002341
:100FF800F3E70378002BF6D0022383700023C37035
:101008000123EAE7FEE7704782B00B88ADF80030AD
:101018004B88ADF802308B88ADF80430CB88ADF83A
:1010280006300239431C053013F8012F0DF1080C66
:101038000CEB4202834232F8082C21F8022FF3D13C
:1010480002B0704708448078704738B54FF07F3356
:10105800C0F8A03004464FF6FF737F220025A0F8A1
:10106800A43080F8A62080F8A950A0F8AA30AC30A7
:1010780000F0B3FC84F8B85038BD70B51146154679
:1010880004461E4600F050FC294604F1140000F006
:101098004BFC294604F1280000F046FC294604F1DF
:1010A8003C0000F041FC294604F1500000F03CFCF3
:1010B800294604F1640000F037FC294604F1780061
:1010C80000F032FC294604F18C0000F02DFC04F1FC
:1010D800AC0032464FF4FA734FF4FA6100F063FC47
:1010E8002046BDE87040FFF7B0BF704700F023BC52
:1010F800143000F020BC283000F01DBC90F8A4305B
:1011080013B990F9A000704790F9A100704790F8C2
:10111800A43013B990F9A200704790F9A300704762
:1011280010B5044607F074FE38B104F1140000F05D
:1011380006FC012838BF0120C0B210BD10B5044616
:1011480007F066FE38B104F1500000F0F8FB012802
:1011580038BF0120C0B210BD4FF47A71AC3000F036
:1011680043BC0021AC3000F03FBC08B5AC3000F007
:101178004CFCB0F57A7FA8BF4FF47A7020EAE07093
:1011880008BD10B5044600F0B0FB04F1140000F0EF
:10119800ACFB04F1280000F0A8FB04F13C0000F0CF
:1011A800A4FB04F1500000F0A0FB04F1640000F07F
:1011B800A8FB04F17800BDE8104000F0A2BB7F282E
:1011C80007D0002807DA10F1800F06D04042C0B2DD
:1011D800704700207047012070477F20704710B18A
:1011E800404240B270477F2070477F280FD010F1EF
:1011F800310F0EDA10F1780F0DDB7830FE2340B294
:10120800584323304623B0FBF3F0C0B27047FF20A9
:101218007047FE207047002070477F2805D031B105
:10122800002806DA4042C0B27047FF207047FE200F
:101238007047002070477F2811D010F1310F10DA65
:1012480010F1780F10DB783040F2A96340B25843B0
:1012580023304623B0FBF3F0AC3080B27047002057
:10126800704740F255707047AC20704763289FBFA5
:1012780040F2A9635843323064239DBFB0FBF3F0BA
:10128800AC3080B240F2557070474FF4F063A0F56F
:101298008060584340F2FF7390FBF3F000F57870DC
:1012A80080B27047FFF7F1BF4FF49663A0F58060F6
:1012B800584340F2FF7390FBF3F000F2DC5080B229
:1012C8007047A0F58060D0EB001048BF033040F3B2
:1012D8008F007047032812DD0C2812DD0F2812DD5D
:1012E800122812DD162812DD192812DD1C2812DD3D
:1012F8001F2812DD2128CCBFFF20062070470020C0
:10130800704701207047022070470820704703206B
:101318007047072070470420704705207047000079
:1013280005289ABF014B185CFF207047FDC50008CF
:101338007F281ABF4042C0B2002070477F2811D0D2
:1013480010F1320F10DA884210DD401A6423C1F11F
:10135800FF21584301F57F01CE31313090FBF1F088
:10136800C0B27047FF207047642070470020704764
:10137800014B4840185C704704C6000852B110B4CD
:10138800054C0A4411F8013B58408A42205CF9D1C7
:1013980010BC7047704700BF04C60008002805DB72
:1013A800212805DC044B33F81000704700207047F3
:1013B8004FF4FA60704700BF2EC70008392808D8D4
:1013C80022280ED9094B2338C0B2C34003F00100CC
:1013D80070475F2807D0613819288CBF002001208A
:1013E8007047002070470120704700BF01EC7F0064
:1013F800F8B50246451E461D00245F2715F8010F63
:10140800FF2804BF0134E4B2FFF7D8FF00B92F70FA
:10141800AE42F3D1062C04D119B10B6813608B8846
:10142800938000239371F8BD2DE9F843DFF83490D9
:10143800471E441D012500264FF0280817F8011FF4
:1014480008480BF03CF8034610B1A0EB0903DBB2E7
:10145800A3FB05329E19A742A5FB0853EED13046DF
:10146800BDE8F88304C7000810B54179A1F1300040
:10147800C3B2092B07D80523B0FBF3F303EB8303AF
:10148800C01AC0B210BD044C20460BF018F8002852
:10149800F1D0001BC0B2EEE704C7000870B50446DF
:1014A800FEF770FE82B20023551E98B2A84214FAC5
:1014B80083F104DA265C302E03F10103F5D0121A09
:1014C80001322046BDE870400AF0C8BF2DE9F04F50
:1014D8000D4699B0164600211A461F4680460AF066
:1014E800D7FF00212A2201A800910AF0D1FFDFF8D6
:1014F800CC90DFF8CCA0DFF8CCB005EB4606AE42C6
:1015080011D16846FEF73EFE30B100F160030DEBE5
:101518000300002300F8613C694640460BF012F8CE
:1015280019B0BDE8F08F35F9020B47F6FF73984202
:10153800E7D0002812DC59460CA80BF003F86846DF
:10154800FEF720FE04460CA8FEF71CFE0444A74242
:10155800D5D30CA968460AF0A3FFD0E7B0F57A7F87
:101568000BDA0CA980B20AF091FB0CA8FFF796FFE2
:1015780051460CA80AF094FFE1E764230CA9323025
:10158800B0FBF3F080B20AF081FB0CA8FFF786FFEE
:101598000CA8FEF7F7FD00F15F036B4400F1600152
:1015A8000DEB010013F8302C00F8302C2E2203F834
:1015B800302C002300F82F3C4946DAE7BAC500086A
:1015C800B5C50008B0C50008F0B589B06D4600245F
:1015D8002F468E1CE1B28A4204D83946FFF776FFBF
:1015E80009B0F0BD36F8241025F8021B0134F1E7E4
:1015F80042F210736421B0FBF3F203FB1200B0FB5C
:10160800F1F301FB130000EB023000EB831080B212
:10161800704770B50E460021054614460AF038FF9B
:1016280000239AB2944200D870BDF25C002AFBD025
:10163800EA540133F5E70000052911D8DFE801F085
:101648000306080A0C0E0749FFF7E3BF0649FBE744
:101658000649F9E70649F7E70649F5E70649F3E7D2
:101668000649F1E7BEC50008C3C50008C8C500089B
:10167800CDC50008D2C50008D7C50008DCC50008DC
:10168800052911D8DFE801F00306080A0C0E0749FE
:10169800FFF7BFBF0649FBE70649F9E70649F7E741
:1016A8000649F5E70649F3E70649F1E7DEC500080C
:1016B800E3C50008E8C50008EDC50008F2C5000844
:1016C800F6C50008DCC5000870B50E4614460021B2
:1016D800013205460AF0DCFE00239AB2944200D893
:1016E80070BDF25C002AFBD0EA540133F5E77D2394
:1016F800438043F2390309B2C3600023018081802B
:10170800C38003727047000002680449044B01FB60
:10171800023323F000430360180C7047FD430300B5
:10172800C39E2600F0B5002597B001608580044669
:101738005622294668460AF0ABFE0126E27DAA42F7
:1017480009D80023802104F1B800A37517B0BDE8BB
:10175800F0400AF09DBE2046FFF7D6FFE7797B1BD5
:10176800002190FBF3F202FB1300C0B2EC460A46DC
:10177800CBB29F4223D800230022277B1146D0B248
:10178800874227D80029D9D1A279033A012A04EB44
:10179800050105D925B191F9172012BB012BCDD927
:1017A8000B76A26852F82310583305F10E026B44E9
:1017B800013544F8221003F8586CEDB2BEE71CF866
:1017C80001EBBEF1000F03D18242D5D00132D2B273
:1017D8000131CDE72069805C0132984208BF0121C0
:1017E800CDE7501E8342DBDB01329342D8DCA5E70C
:1017F8002DE9F047154696B0013D01600271044697
:101808004371EDB25622002168460AF041FE0027D6
:10181800022D84BF4FF0010900253E464FF0010A12
:1018280094F807809CBF4FF00309B8FBF9F8E27DF4
:10183800B24209D80023802104F1B800A37516B07C
:10184800BDE8F0470AF024BE2046FFF75DFFA8EB8D
:101858000603002190FBF3F202FB1300C0B2EC4632
:101868000A46CBB2434506D21CF801EBBEF1000F85
:101878002AD1824226D1434528BF434603FB09515A
:10188800002094F80CE001F0FF018446C2B29645AE
:101898001CD8BCF1000FCAD116B1FFB9012BC6D9AB
:1018A800A2191F461176A26852F8211006F10E02FD
:1018B800013644F8221003F158026A44F6B202F8DD
:1018C80058ACB4E70132D2B20131CAE72269125CDE
:1018D80001308A4208BF4FF0010CD7E77A1E9342C5
:1018E800DEDB7A1C9342DBDCA1E7D0E9012364212B
:1018F800D31AC36082604B43418AB3FBF1F303748C
:101908007047D0E90123D31AC0E90223704743681E
:101918002BB1C26864214A43B2FBF3F2D3B2037419
:101928000023C360436070470023C0E9023341824B
:101938004360037470474368013343607047007C19
:10194800704743680B44436070470023C0E9013384
:10195800C36003747047F0B5047C0360012C11D98F
:1019680044688568C668141B4FF47A774D1B7C431E
:1019780005FB16442B4494FBF3F33344C360C0E9DE
:101988000121F0BD1CB9C46001230374F7E7436863
:101998004FF47A74D31A634384680C1B93FBF4F3F3
:1019A800C3600223F1E72DE9F041044610461D46C5
:1019B80016468846FFF792F8074606EB0800FFF739
:1019C8008DF801463846FFF795F96560206028468E
:1019D800FFF788F8A060BDE8F08110B504464068BC
:1019E800FFF780F8A06010BD38B585680446084642
:1019F800FFF778F82946FEF7BFFF2168FFF7C6F81A
:101A08002946FEF7BBFFA06038BD08B54FF07C51F2
:101A18008068FEF7B3FFFFF77FFA08BD704770478D
:101A28000020704700207047002070477047002052
:101A38007047002070474FF0B04382B0DA6C024321
:101A4800DA64DB6C03400193019B02B070474FF0EE
:101A5800B04382B09A6D02439A659B6D034001932F
:101A6800019B02B070474FF0B04382B01A6E024338
:101A78001A661B6E03400193019B02B0704750E841
:101A8800003F23F0800340E80032002AF7D1704776
:101A9800044B1888044B1B8880B29BB2C01A18BF2D
:101AA800012070476C2A00206A2A00207047000035
:101AB8000288044B5140C9B233F8113083EA12232B
:101AC8000380704704E000089AB110B4B0F800C071
:101AD800084C0A4411F8013B83EA0C03DBB291423B
:101AE80034F8133083EA1C2CA0F800C0F2D110BCE3
:101AF8007047704704E0000837B54FF6FF73044697
:101B0800ADF806304518AC4203D1BDF8060003B065
:101B180030BD14F8011B0DF10600FFF7C9FFF2E70D
:101B280008B5FFF7B5FF003818BF012008BD012030
:101B3800704700000278024B51405B5C03707047AD
:101B480078CC0008FF230370704700BF704770B55A
:101B58000B7803704B7843700B78FD2B05460C46C9
:101B680038D18B788370CB78C3700B7903714B793C
:101B780043718B7983718B68C3718B68C3F30F23AF
:101B880003728B7A43720A26627804F10C01A81951
:101B98000AF0E0FC6378B4F80C213344981CEA544A
:101BA8005A1CB4F80C1192B2090AA954A278D207A7
:101BB80080B20ED504F58872054404F58E7452F887
:101BC800041B45F8041BA242F9D112782A700F337E
:101BD80098B270BD00238B700B7983704B79C370FA
:101BE8008B7903718B6843710626CDE708B52422EB
:101BF800034800210AF04CFC024B00221A7008BD71
:101C0800700500201C0300202DE9F04113780370B3
:101C180092F8018080F80180FD2B04460F46154696
:101C280054D193788370D378C3701379037153793F
:101C38004371937983716B7A127A1B0403EB022345
:101C4800EA79134423F07F430A26A26863F3170254
:101C5800A260A919424604F10C000AF07BFC7A7BC9
:101C6800904507D208F10C00A2EB0802002120449D
:101C78000AF00EFC63781E44AB195A78AB5D03EB8F
:101C88000223A4F80C31A378DB070ED5023615FA27
:101C980086F304F5887203F10C0153F8040B42F83B
:101CA800040B8B42F9D11B781370BB7A84F821316D
:101CB800FB7A84F822313B7B84F823317B7B84F8E0
:101CC80024313B7884F82031BDE8F081002343803B
:101CD80093780371D3784371137983715379062606
:101CE800B3E7000070B50D4C0D4E0546062204F111
:101CF8000A0106F58970FFF7E7FC237CC3F3031399
:101D080086F81A31637CC3F3030386F81B31637AC0
:101D1800DB0744BF02232B7370BD00BF5520002092
:101D2800C400002070B50446BDF81450E2702420A9
:101D3800237122461B0A2070637158202B0AA17058
:101D48006070A57102F8073F049B59198B420CD1AA
:101D58006A1D92B2E11C0020FFF710FB05F108068E
:101D6800A05505F1090080B270BD13F8010B02F807
:101D7800010FEBE70A4A0B4B12680B49A3FB02322F
:101D88003220920C00FB02F2084B486802F5FA7206
:101D9800A3FB023292094B681B1A9A42FBD8704780
:101DA8003C00002083DE1B43001000E0D34D62108E
:101DB80002780A4B90F801C08178D243D2B29A5C7B
:101DC80082EA0C0290F803C09A5C4A40995C027956
:101DD80081EA0C01595C4A40985C704778CC00084D
:101DE800F8B53C29BDF81C50044635D0A1F12106B0
:101DF800714271414900D00748BF41F00801E370C2
:101E080092074FEA13234FF0240248BF41F0100114
:101E1800227023716F222B0AA61C6270A170A37115
:101E280065713046FFF7C4FF2246069B02F8070F8C
:101E380059198B4212D1A91D89B23046FFF75CFEB1
:101E480005F1080705F109039BB2E055000AE054C3
:101E580005F10A0080B2F8BD0121CCE713F8010BA7
:101E680002F8010FE5E70000084B5B6A4FF04022DB
:101E780002F5806353E8003F43F0200302F58060D9
:101E880040E800310029F3D1704700BF004400400A
:101E98002DE9F04F0C465188B1F58C7F85B0054689
:101EA80011D300211170D91CC9B2012995BF012194
:101EB8000023518053809CBF2370117000232B7026
:101EC80005B0BDE8F08F10780E2800F28B8001A6CF
:101ED80056F820F0AF1E0008191F0008411F00081F
:101EE8005B1F0008ED1F0008ED1F0008ED1F00082C
:101EF800ED1F0008ED1F0008ED1F0008ED1F00088A
:101F0800ED1F0008ED1F0008ED1F00086D1F0008F9
:101F1800481C508063542178FD299BB206D10C33AC
:101F28000A21D380918002231370C7E70833062162
:101F3800D38091800E23F7E7481C50806354D8075C
:101F480042BFD1880D31D180012B8CBF00230323E0
:101F5800EAE7002B01F101005080635414BF00230D
:101F68000E23E1E7481C508063545388D1888B4284
:101F780032D300235380137002232B706980237897
:101F8800FD2B35D163792B72A3796B72637A227A30
:101F98001B0403EB0223E27913446B60637803F1BB
:101FA8000C026A80A278D10701D519336B8000260C
:101FB8006968DFF8F0806E8140F279120C20B3185E
:101FC80001335B0800FB03F758F80770B94218D2D1
:101FD8005A1EB242F3D816E092889A423FF66EAF84
:101FE80001236CE70023137053809380D38066E746
:101FF800E3782B7223796B7263796B6063780833AB
:10200800D4E71E46E5D80C27774358F8073099429D
:1020180027D123782046FD2B10F801BF0CBF4FF0C5
:102028000A094FF0060909EB0B03591E89B2474408
:102038000193FFF761FD97F804A0ADF80E00514633
:102048000DF10E00FFF734FD019BE218E35C5278B6
:1020580003EB0223BDF80E209BB29A4203D005235E
:102068002DE703232BE7BB79DA0706D5FA799345E1
:1020780082BF04EB09018A5CAA729B0709D50C236D
:1020880003FB068362781B7A9A4282BF4C44E35C66
:10209800EB720C2303FB068385F80CA05B796B734A
:1020A8000EE700BF78CD0008F0B50546FD2305F81A
:1020B8000C3B85B004468DF8043090F8243103F1C8
:1020C8000C020244012B42D80026637066808DF80A
:1020D80005308B7A23718DF808308B7AADF806605D
:1020E80001338B7263798DF80930A3798DF80A3042
:1020F800A368C3F317031A128DF80B3009211B14B8
:102108000DF105008DF80D308DF80C20FFF7F4FC6B
:102118006778ADF802003A4629460DF10200FFF74C
:10212800D3FC94F82311FFF7C3FC94F82421BDF8DD
:102138000230A4F80C31974210D207F10C00D21BE0
:102148003146204405B0BDE8F0400AF0A1B912F8C4
:10215800010D0028B8D1013BDBB2B3E705B0F0BDF3
:10216800044A00231380044A1380044A1380044A53
:10217800138070476A2A00206C2A00206E2E0020E7
:10218800702E0020044AD2F8903023F40043C2F89D
:102198009030FFF7EFBD00BF0004005808B5FFF707
:1021A800E9FD044AD2F8903043F40043C2F8903075
:1021B80008BD00BF0004005807B503688DF8071074
:1021C8001B6901220DF10701984703B05DF804FB74
:1021D80070B5044608460D46FDF7D4FF236882B261
:1021E800294620461B69BDE870401847B0F1904F5A
:1021F80002D10120FFF71FBC084B984205D003F518
:102208008063984203D10420F4E70220F2E7044BEC
:10221800984201D18020EDE7704700BF00040048D4
:10222800001C00480C4B984203D14FF40060FFF7A4
:102238001ABCB0F1804F05D0084B984205D14FF435
:102248000030F4E70120FFF702BC054B984202D1A9
:102258004FF48020EBE77047002C01400044014018
:10226800004801402DE9F04387B00E460546144664
:102278000021142201A89DF838809DF83C901F4643
:102288000AF006F900960B2C07D8DFE804F00707D8
:102298000A121414141616161A1CFEE703230193C7
:1022A80001E002230493032F11D8DFE807F011138C
:1022B80021110123F6E70123F1E701230193039399
:1022C800F1E70223EBE7022301930123F7E7FEE797
:1022D80002230293B8F1100F0CD8DFE808F02D2D77
:1022E8000C11131517191B1D1F21232527292B0036
:1022F8000123EEE7FEE701230593022301931EE085
:102308000223F9E70323F7E70423F5E70523F3E7B7
:102318000623F1E70723EFE70823EDE70923EBE7B7
:102328000A23E9E70B23E7E70C23E5E70D23E3E7B7
:102338000E23E1E70F23DFE7B8F1000FDDD1B9F194
:10234800000F02D02846FFF751FF053C042C05D8A2
:10235800DFE804F0030B04030B00AE62694628466D
:1023680009F028F807B0BDE8F083AE61F6E713B5C9
:102378004FF0010C0024CDE9004CFFF773FF02B0C9
:1023880010BD000030B587B0002315460446ADF8EF
:102398000630FFF747FF042D04D8DFE805F02E329A
:1023A80004363F00FEE71E4B1E4A1B68B3FBF2F3E0
:1023B8009BB20022CDE90221013B01A92046ADF8DC
:1023C80004300492059209F021FA236823F080036F
:1023D8002360A36823F4A03323F00703A360636892
:1023E80023F070036360636823F470036360A36879
:1023F80023F08003A36007B030BD094B0A4A1B686D
:10240800D4E7074B094A1B68D0E7054B064A1B6807
:10241800B3FBF2F303EB83035B00C9E70123C8E7CF
:102428003C00002080A8120140420F0000127A00F0
:1024380010B50446FFF7A6FF236843F001032360A5
:1024480010BD00224FF0FF31FFF7F2BF1A4B10B555
:102458001A4C5B68236008F013F94FF0904008F0BD
:102468006BFF174808F068FF164808F065FF164824
:1024780009F05AFB154809F057FB09F0F9F84FF035
:10248800E022002313615361936172B64FF0FF316C
:102498009A0002F1604202F561420133082BC2F84A
:1024A8008010C2F88011F3D162B6034B1B6883F326
:1024B800088823689847FEE70000FF1F18030020DC
:1024C800000400480008004800380140004400406B
:1024D8000749084A881AEFF30883521A1A44013A3E
:1024E800013B984288BF0022AA2109F0D1BF00BF52
:1024F8000000012000040000044B5A69586910F0DC
:10250800020018BFC2F38000704700BF00040058E3
:102518004FF0B042D2F8943043F40043C2F89430FC
:102528004FF47A7300BF013B9BB2002BFAD14FF0F6
:10253800B043D3F8942022F40042C3F89420D3F88F
:1025480094205204FBD40C4BD3F8902022F4004280
:10255800C3F890204FF47A7200BF013A92B2002A71
:10256800FAD1D3F8902042F40042C3F890204FF4F7
:1025780000629A61704700BF0004005810B5032339
:10258800052240214FF09040FFF7F1FEBDE81040D2
:102598000323052280214FF09040FFF7E8BE08B5DD
:1025A800FFF7AAFF003818BF012008BD08B5FFF7DC
:1025B800F6FF00B908BD00BFF9E74FF0904380224D
:1025C8009A6240229A6170474FF0904340229A6283
:1025D80080229A6170470000024B4FF480225A60B3
:1025E800704700BF00E100E0064B1A6822F00102C4
:1025F8001A605A6822F400325A601A6842F00102DE
:102608001A60704700380140064B1A6822F0010230
:102618001A605A6842F400325A601A6842F001029D
:102628001A607047003801400023032201214FF04F
:102638009040FFF79CBE4FF090431869C04300F0EC
:102648000100704710B5074C0023204605220821D9
:10265800FFF78DFE20460023BDE81040052210211B
:10266800FFF785BE0004004805494B691A04DB439F
:1026780002F4002203F0080313438B61704700BF84
:102688000004004805494B691A04DB4302F4801230
:1026980003F0100313438B61704700BF0004004828
:1026A8000C4BD3F8FC2022F08072C3F8FC20D3F83E
:1026B800FC2042F08072C3F8FC20A3F55D431A6841
:1026C80022F001021A601A6842F001021A60002220
:1026D8005A60704700ED00E00649074B074A1B683F
:1026E800B3FBF2F310B54C6843434A68121B9A4295
:1026F800FBD310BD001000E03C00002040420F005A
:1027080008B50322002302214FF09040FFF72FFE67
:1027180042F21070FFF7E0FF102200234FF09041C3
:102728000869800758BF013302F1FF3258BFDBB296
:1027380012F0FF02F4D10C2B01D9FFF787FE08BD78
:102748001FB50223CDE9013101A80123694603938E
:1027580008F000F900280CBF0420052005B05DF83A
:1027680004FB014608B5012008F0AEF800280CBFAC
:102778000420052008BD08B5FFF7E2FF031F5842F3
:10278800584108BD08B5FFF7ECFF031F58425841F0
:1027980008BD00002DE9F047294B2A4D01280E46B7
:1027A80014462949294A0FBF79277827AA461D4682
:1027B80006BF88469A46904608F03AF839462846B1
:1027C800FFF7D9FF28B9002408F044F82046BDE8EF
:1027D800F087002E08BF4FF4FC64073424F0070488
:1027E80005F11007B1463444AAEB050AA1450BD1FF
:1027F8004FF011324FF0FF332846FFF7C3FF041E96
:1028080018BF0124A400DFE76EB90AEB0703D3E978
:102818000023B3F1FF3F08BFB2F1FF3F06D10837ED
:1028280009F10809E2E7D9E90023F2E7B84505D933
:102838003846FFF7A7FF0028F1D1C4E70324C3E710
:1028480000C0030800C80308FFCF0308FFC7030838
:1028580010B507F0EDFF09487821FFF78CFF044613
:1028680038B107487921FFF786FF041E18BF0124F5
:10287800A40007F0EFFF204610BD00BF00C003080A
:1028880000C8030830B5084D002340F2EF749AB22F
:10289800914201D8042030BDA34203D05A5DC254EE
:1028A8000133F4E70320F6E710C0030838B50446FF
:1028B8000D4672B60A4601460020FFF76BFF62B666
:1028C800042806D172B601202A462146FFF762FF86
:1028D80062B638BD38B5124B1C68D3F80058B4F14D
:1028E800113F09D1B5F1113F17D00022114601203F
:1028F800BDE83840FFF74EBFB5F1113F03D10022C4
:1029080011461046F4E7FFF7A3FF042804D12C4032
:1029180001340CBF0220012038BD0420FCE700BFB1
:1029280000C00308044B9A689107FCD518739A688D
:10293800D207FCD5187B70470000015870B50C46CB
:10294800451E8E18B44200D170BD15F8010FFFF76F
:10295800E9FF04F8010BF5E7084611461A46FFF7A8
:10296800EDBF000070B5064E04464518A54200D1DB
:1029780070BD3078FFF7D6FF04F8010BF6E700BF0B
:102988003400002008461146FFF7ECBF38B504466E
:102998004518AC4200D138BD14F8010BFFF7C2FF4F
:1029A800F7E708461146FFF7F1BF000010B58CB0F5
:1029B8002822002102A809F06BFD4FF0B0431C4CFF
:1029C8005A6E42F001025A665B6E03F001030193EE
:1029D800019BFFF79DFD082208924FF482720023A5
:1029E80003924FF40072CDE90533CDE90933029320
:1029F800079207234FF4E06202A920460B93049242
:102A080008F0CAFE636823F010036360636823F06C
:102A180008036360236843F040032360A3689B07AF
:102A2800FCD5237B034BFF221A700CB010BD00BFEE
:102A380000000158340000201B4B10B4DC69A006CC
:102A480011D51A6891060ED5184819495A6A03888B
:102A580009880133C3F30A0389B299421FBF154994
:102A6800D2B2CA54038010481F232206036215D528
:102A780003681B0612D5104B104A1988138889B2AF
:102A88009BB299420CD013880133C3F30903138016
:102A980013880B4A9BB2D35CDBB2836210BC7047CD
:102AA80010BCFEF7ECBF00BF004400406C2A0020B9
:102AB8006A2A00206A220020702E00206E2E002034
:102AC8006E2A00200F49104A0B8812880133C3F37D
:102AD800090392B29A4212D00C4AD0540B804FF09C
:102AE800402202F5806353E8003F43F0800302F57B
:102AF800806040E800310029F3D1012070470020B0
:102B0800704700BF702E00206E2E00206E2A002015
:102B180038B504464518AC4200D138BD14F8010B4D
:102B2800FFF7D0FFF7E708461146FFF7F1BF0000AF
:102B3800054B064A1B8812889B1A98B21B0444BF8F
:102B480000F5006080B270476C2A00206A2A0020D5
:102B5800FFF7EEBF0848094A0188138889B29BB27B
:102B68009942F9D013880133C3F30A0313801388F9
:102B7800034A9BB2D05C70476C2A00206A2A002066
:102B88006A220020FFF7E6BF70B588B00C460646FB
:102B9800154600212022684609F07AFC231E18BF3A
:102BA80001231B03CDE9023569460C23034801962E
:102BB8000494059308F0DCFF08B070BD00440040A1
:102BC80010B5064C236823F001032360FFF7DCFFF0
:102BD800236843F00103236010BD00BF0044004098
:102BE800002208461146FFF7EBBF000073B53D4CC5
:102BF800236823F001030825236001264FF40030E1
:102C0800FEF725FF0421CDE9005603230A224FF0E1
:102C18009040FFF727FB03231A462946CDE90056C3
:102C28004FF09040FFF71EFB002211464FF4614021
:102C3800FFF7AAFF636823F490436360A36823F057
:102C48002A03A360284BB02283F8252320225A6048
:102C58002046FEF714FF4FF0402101F5806353E84A
:102C6800003F23F0400301F5806040E80032002A6D
:102C7800F3D1402323621D4B1A801D4B4FF0402196
:102C88001A8001F5806353E8003F23F0200301F523
:102C9800806040E80032002AF3D1164B1A80164BA8
:102CA8001A80104B5A6822F400625A609A6822F01F
:102CB80008029A605A6822F480425A609A6822F0A0
:102CC80022029A609A6842F480529A601A6842F026
:102CD80001021A60DA699102FCD5DA695202F9D563
:102CE80002B070BD0044004000E100E06E2E0020FC
:102CF800702E00206A2A00206C2A002008B5FFF7F1
:102D080075FFBDE80840FFF7AFB8FFF7F7BF000051
:102D1800084BDA6892070CD4074A012111805A6AD5
:102D280010325A636FF002021A61DA6842F0020246
:102D3800DA60704700480140141E0020314A1369C8
:102D48009B0710B525D56FF0020313612E4B1B8826
:102D5800516B11FA83F353632C4B198889B20029FC
:102D680045D01988013189B21980198889B2022998
:102D780010D84FF0904320229A62254A13880133D5
:102D8800C3F3080313801388224A9BB2D35C224AF8
:102D9800138010BD198889B20A290FD81E4B1A88CA
:102DA80012F0010F4FF090424FF0200114BF9161D3
:102DB80091621A88C2F34E021A80EAE7198889B22A
:102DC8000B294FF090414FF02000886109D1134A38
:102DD80011880F4A128889B292B29142D9D0012241
:102DE800EAE7D16821F00201D1600022E4E74FF060
:102DF800904020248461D06820F00200D0601980BF
:102E0800C7E700BF00480140101E0020141E002024
:102E180018200020161E0020162000201A2000204E
:102E280009490A4A08B50B8812880133C3F3080315
:102E380092B29A4206D0064AD0540B80FFF768FF38
:102E4800012008BD0020FCE71A20002018200020DF
:102E5800161E002038B504464518AC4200D138BDCE
:102E680014F8010BFFF7DCFFF7E708461146FFF7F8
:102E7800F1BF0000B0F5614F0D4A0E4B0CD0B0F514
:102E8800E13F10D0B0F5165F0DD172B640F2413176
:102E9800118040F2E24203E072B68B211180D02209
:102EA8001A8062B6704772B6452111805422F7E73E
:102EB800101E0020121E002030B5032389B0052201
:102EC80020214FF09040FFF752FA194C4FF09043F1
:102ED80020259D61204601224FF0FF31FFF7A8FA17
:102EE8002A460021684609F0D3FA6A46012120469D
:102EF80008F0C6FC0F4AD2F8183823F00403C2F8C9
:102F080018386FF0020323610B4B902283F81D23BE
:102F18004FF000521A604FF4E130FFF7ABFF074A59
:102F280000231380064A1380064A138009B030BD77
:102F3800004801400040014000E100E01820002066
:102F48001A200020141E0020FFF7B6BF024B1A6893
:102F5800024B1A60704700BF742E00205C030020EB
:102F6800054A064B1968136899421DBF01330120B1
:102F780013600020704700BF5C030020742E0020FF
:102F8800034A044B11681B780B441360704700BF59
:102F9800742E0020400000200148FFF752BA00BFFD
:102FA80000440140014B586A80B270470044014018
:102FB80008B5FFF7F1FFBDE80840FFF7C7BF70B5D8
:102FC80004460D46164607F033FC083D04EBC606DA
:102FD800B44204D1042407F03DFC204670BD55F8E6
:102FE800082FD4E900016B68994208BF904201D1CB
:102FF8000834EDE72046FFF7C5FB0028F8D1044662
:10300800E9E700001FB503788BB10A4B1B68B3F5DD
:10301800FA6F0CD30023002203700023CDE90023AC
:10302800CDE90223406802226946FFF7C8FF05B0D0
:103038005DF804FB742E00200123F0B50380444B97
:10304800444AD3E9005104464348914208BF8542A7
:1030580085B04FF0000202D1227005B0F0BD3AA150
:10306800D1E900013D4F6260C3E900013C484FF0DF
:10307800AA33D0E90021B1F1FF3F08BFB2F1FF3F09
:10308800D0E9026505D0994208BF9A4201D00A43A7
:1030980009D1B5F1FF3F08BFB6F1FF3F0DD09D4202
:1030A80008BF9E4209D01030B842E2D172B67A21E8
:1030B8002B48FFF760FB62B629486060D0E9003210
:1030C800CDE90032B2F1FF3F08BFB3F1FF3FD0E9CD
:1030D800025109D1B1F1FF3F08BFB5F1FF3F22D13D
:1030E8004FF0AA331A4623E04FF0AA36B24208BF7F
:1030F800B3420BD1B1F1FF3F08BFB5F1FF3F0FD08D
:10310800B14208BFB5420ED10023EBE753EA0207EC
:1031180009D1B14208BFB54205D14FF48071218071
:103128001D46114604E0002323701A461D46194621
:10313800CDE90032CDE9025102226946FFF73FFF8F
:103148008BE700BFAFF3008012345678FEDCBA90EC
:1031580020000020FEDCBA901234567800D803080C
:1031680000D003080A490B8803B9FEE772B64FF08E
:10317800804309885A6A114464325963DA636FF0EC
:1031880002021A616FF008021A6162B6704700BF46
:103198006400002000B5032289B04FF0FF314FF0E2
:1031A8008040FFF745F920220021684609F070F9B0
:1031B80064236A4601214FF08040039308F060FBC6
:1031C800C8236A464FF480714FF08040039308F09B
:1031D80057FB054BA02283F81B234FF000621A60AF
:1031E80009B05DF804FB00BF00E100E04FF0804348
:1031F800DA6842F00202DA60DA6842F00802DA605D
:103208007047000010B501EB8101084B01EB81010B
:1032180089001980064B044600221A70FFF7BAFF8E
:103228002046BDE81040FFF7E1BF00BF6400002062
:10323800590300204FF080431A6991070AD56FF0AF
:1032480002021A615A6B6432DA63084A596B1288AF
:103258000A445A634FF080431A69120705D56FF084
:1032680008021A61024B01221A707047640000209C
:103278005903002070B51C4C1C4E94220021201DBF
:1032880009F006F91623062563800F23A3802A4632
:103298002C23314660192580FEF796F9144A4FF41D
:1032A8008033C4E90D234FF47023E3632A462C23AB
:1032B800314604F14000FEF787F90223A4F86E3086
:1032C8000C4B23670C49002304F18000C4E91E332A
:1032D80084F8743009F036F97F2384F89530052393
:1032E80084F8963070BD00BF8002002034CC0008FE
:1032F800020001000F000100FBC7000870B5094E6D
:1033080005460C46415C304609F0D9F8034628B119
:10331800831B0133DBB2282B28BF0023F35C2B551A
:1033280070BD00BF4CCC000870B50C46114606466F
:1033380009F008F944B10025052130460135FFF7A9
:10334800DDFFEBB29C42F7D870BD0000F7B505462B
:1033580005F11106214C224A014636016846FFF75D
:10336800E3FFB01C6946204409F0ECF8264404EB5E
:103378000512002302277772A2F81A31142202FBE1
:1033880005400421012280F850104FF4807540F266
:103398000111A0F84A70C264A0F8522080F85520A4
:1033A800A0F85650A0F8581040F2032084F83430A2
:1033B800E784A562A08584F82E2084F8303084F84C
:1033C8003330C4F83A30C4F83E30C4F84230A4F878
:1033D8004610A4F8481003B0F0BD00BFC400002098
:1033E800A8C70008F7B50546AF4CB04A05F1110665
:1033F800014637016846FFF797FFB81C274469461E
:103408002044FDF7F5FF7B7AA94A052B88BF0223E4
:1034180004EB061088BF7B721188437A41FA03F3E4
:10342800DF070FD40223437261B14807C1F3800359
:1034380008D441FA03F7FF07D8B240F1D18104EB71
:103448000613587204EB05112B0191F81A0105288F
:1034580002D9002081F81A01E718508897F81A1144
:1034680040FA01F1C90711D4012187F81A1168B18E
:103478008707C0F3400109D440FA01FC1CF0010F92
:10348800CFB200F0B281E11881F81A71E11891F811
:103498001B01032802D9002081F81B0104EB061642
:1034A800717A012903D9042901D000219180E618F5
:1034B800908896F81B1140FA01F111F001010ED124
:1034C80086F81B1158B110F0010108D140FA01F734
:1034D800FF07CEB240F18E81234483F81B61142389
:1034E80003FB054191F84A00052802D9022081F81A
:1034F8004A0003FB054393F84B10042902D9002125
:1035080083F84B10142303FB0543918E93F84B006B
:1035180041FA00F0C00712D4012083F84B0071B1C2
:103528008807C1F340030AD441FA03F6F707D8B273
:1035380040F16581142303FB054383F84B001423F2
:1035480003FB054393F84C10032902D9012183F8A2
:103558004C10142000FB0540D18E90F84C3041FAF5
:1035680003F313F0010310D180F84C3069B111F066
:1035780001030AD141FA03F6F607D8B240F14481B3
:10358800142303FB054383F84C00142303FB054372
:1035980093F84E10012902D9002183F84E10142007
:1035A80000FB0540118F90F84E3041FA03F313F0F9
:1035B800010310D180F84E3069B111F001030AD12E
:1035C80041FA03F6F707D8B240F12381142303FB2D
:1035D800054383F84E00142303FB054393F84F106B
:1035E800022902D9002183F84F10142000FB05405E
:1035F800518F90F84F3041FA03F313F0010310D1C3
:1036080080F84F3069B111F001030AD141FA03F68D
:10361800F607D8B240F10281142303FB054383F86F
:103628004F00142303FB054191F84D00022802D9ED
:10363800002081F84D0003FB054393F8501005293D
:1036480002D9042183F85010142303FB054191F893
:103658005200012802D9012081F8520003FB0543DA
:1036680093F85510012902D9012183F85510142324
:1036780003FB054393F85310022902D9002183F86C
:103688005310142000FB0540918F90F8533041FAF5
:1036980003F313F0010318D180F85330A9B111F0E6
:1036A800010312D106E000BFC4000020A8C700082B
:1036B8008002002041FA03F6F707D8B240F1B38040
:1036C800142303FB054383F85300142303FB05412C
:1036D80091F856000C2802D9002081F8560003FB07
:1036E800054393F84C10012906D193F84F1002298D
:1036F80004BF002183F84F10142303FB0543012165
:1037080083F8571040F20111A3F8581094F82630A6
:10371800052B02D9022384F8263094F82730042B8D
:1037280002D9002384F82730B2F86E0094F82730C5
:1037380040FA03F313F0010F804B0ED1012184F8F6
:10374800271050B18607C0F3400106D440FA01F7AC
:10375800FF07CEB26CD583F8276094F828100229A9
:1037680002D9002184F8281094F82910032902D9D5
:10377800012184F82910B2F8701094F8292041FA30
:1037880002F212F001020CD184F8292049B111F09B
:10379800010206D141FA02F6F607D0B24CD583F8F9
:1037A800290094F82A200C2A02D9002284F82A2019
:1037B80093F832200C2A02D9002283F8322093F899
:1037C8002B20042A02D9002283F82B2000225C49EE
:1037D800104611F9014F14F1780F31DA087031E011
:1037E8000133102B7FF425AE2CE6013110297FF42C
:1037F80043AE4BE6013110297FF468AE6FE6013322
:10380800102B7FF491AE9AE60133102B7FF4B2AE01
:10381800BBE60133102B7FF4D3AEDCE60133102B6B
:103828007FF4F4AEFDE60133102B7FF443AF4CE791
:10383800013110298AD190E70132102AAAD1B0E7C4
:10384800782CCBDC0132D2B20C2AC2D13D490022FD
:10385800012011F8014F0132022CD2B288BF087042
:10386800042AF6D193F83420012A02D9002283F8D9
:103878003420354AB2F8721093F8342041FA02F233
:1038880012F001020CD183F8342049B111F0010281
:1038980006D141FA02F4E407D0B211D583F8340016
:1038A80093F82C20052A02D9032283F82C2093F8B8
:1038B8002D20032A08D80AD1002283F8342006E0F4
:1038C8000132102AE5D1EBE7022283F82D2093F884
:1038D8002E20022A02D9012283F82E2093F83020C4
:1038E800022A02D9002283F8302093F833200C2AC8
:1038F80002D9002283F83320142101FB0531FF226D
:1039080003EB05154FF6FF7081F8512081F854201C
:1039180083F82F2083F831204FF0FF32C5F81C219F
:10392800A5F820011A629A84A1F85A20A1F85C200F
:1039380083F83500DA861A8703B0F0BDC40000208A
:10394800FD000020090100208002002030B5052874
:1039580004D8DFE800F01E0423191E23FEE7202503
:103968001F2400220F21104B98700338012894BFA0
:10397800002001201A7119771A74A3F84850A3F887
:103988004A409873987630BD09256F240022072194
:10399800E9E71425322400220A21E4E73525132417
:1039A80001221921DFE700BF680000202DE9F74355
:1039B80000F111067A4F7B4C360106F10209B94431
:1039C80005464846FDF730FD0421804601903E44F7
:1039D8000DEB0100FEF790F8737AE0832E0107EBF8
:1039E8000515C4F80880C4F8148095F81A016370A6
:1039F8004FF0010884F85180A4F85280A4F854804C
:103A0800FFF7A4FF97F82620674B13F9223023739A
:103A180023766378052B09D8DFE803F003065658A8
:103A28005A5C0023637301E084F80D805F4B617B6F
:103A38001B88617603F00102980748BF42F0020232
:103A4800A2855D0748BFA28D84F8281044BF42F0C4
:103A58000402A285180742BFA28D42F01002A28577
:103A6800DA0642BFA28D42F02002A2859B0642BF21
:103A7800A38D43F00803A385002384F82A3021B9D5
:103A88004846FDF7F1FC84F82A003E4496F81B21CD
:103A980084F829206AB1E18B02EB021303EB0323BC
:103AA8000B44E383A3684FF0113101FB0233A36099
:103AB800636194F82850E38B6362052D0CD8DFE826
:103AC80005F00C4D4F1543450223ABE70423A9E746
:103AD8000523A7E70323A5E7FEE7A378032B03D86D
:103AE800DFE803F003424003FEE71825304E84F870
:103AF800205016E90F0086E80F0040F2E2432846FE
:103B0800A4F84C30FCF7EEFF4FF07F51FDF73EF87C
:103B1800FDF728FA6D08B4F84820052D4FF47A739C
:103B2800B3FBF2F3A4F8403097F82C30C0B238BF9A
:103B38000525A4F84E0084F85050052B24D8DFE85A
:103B480003F0152C202326290225CFE7A378022B82
:103B580008D0052B06D0012B06D0FEE71925C5E7AE
:103B68000625C3E70C25C1E71225BFE74FF4165316
:103B780063640023A4F8563084F8583003B0BDE8D5
:103B8800F0834FF41643F3E74FF46143F0E74FF443
:103B9800E133EDE74FF46133EAE74FF49643E7E7A3
:103BA800C40000206800002034CC000880020020F7
:103BB8009800002002484FF4DE72FF2108F068BC2C
:103BC800C400002002484FF4DE71FEF76FBE00BF4C
:103BD800C400002002484FF4DE71FEF753BE00BF58
:103BE800C400002008B5FFF7F5FF034B1878BDE8BF
:103BF8000840FFF7F7BB00BF6800002038B5FFF7A3
:103C0800D9FFFEF767FE04280CD0FFF7D3FFFEF7B5
:103C180061FE042803D1FFF7DDFF042806D0FFF773
:103C2800C9FF03E0FFF7D6FF0428EED1264927484D
:103C3800264C102208F050FC38B1254910222046A5
:103C480008F04AFC08B1FFF7B5FFA38AB3F5215F76
:103C580028D008D30025E8B20135FFF777FB0A2DF5
:103C6800F9D10023E3774FF42153A3820125226978
:103C78001549164842F643039A424FF010021CBFFA
:103C88002361012508F028FC70B10F490F48102264
:103C9800FDF7BFFC0F4910480822FDF7BAFCFFF7F3
:103CA80091FF03E00025E2E7002DF8D10023E37738
:103CB8000A4C2370FFF7DEFA2078FFF793FB207891
:103CC800BDE83840FFF772BEAFC70008C400002047
:103CD800C0C70008D1C7000876020020680000208D
:103CE80030B5C01A1628A8BF16206FF00805A842DC
:103CF8009DF80C40B8BF2846A042C8BF20B2C0B249
:103D080008701844107030BD07B5084611461A46A9
:103D1800162300930023FFF7E3FF03B05DF804FBCD
:103D28000129F7B5054600D9FEE70B4E06EB01134E
:103D38001C460F016278F15D03619B7808F048F931
:103D4800E3790193A379009322796379E17828468E
:103D580008F065F903B0F0BD24E2000838B58368BF
:103D680004466BB1024652F8183BDD6900F11903AD
:103D7800A847217E20460222BDE8384008F0B1B9A4
:103D880038BD000070B58160897A86B0044601B1FB
:103D9800012108F0F6F8204608F085FA204608F0D8
:103DA8005DFA217BFF2903D0FA22204608F062FA47
:103DB800A3685B7A013B042B04D8DFE803F0043ED8
:103DC8003E414100FEE7E922E121204608F090FA51
:103DD8000121204608F01FFA9621204608F05CFAD7
:103DE8003821204608F06EFA204608F073FAA368D6
:103DF800204693F90810FFF7B1FFA3689D7A15B321
:103E080019782046FFF78CFF00221146204608F05B
:103E1800D2F80023009340F2032220464FF6FF71A8
:103E280008F02CF920464FF6FF7108F04EF92046AD
:103E380006B0BDE8704008F0FEB9DB22D721C4E720
:103E48006F226B21C1E70F4B0F49DE8B0F4B63616C
:103E58004CF250330093204619230B2208F058FAED
:103E68000123CDE903335B23CDE901531023194620
:103E780020460095042208F089FA3146204608F0C9
:103E8800A9FAC1E768000020A086010004E2000842
:103E980010B5044608F0CFF920464FF6FF71BDE88B
:103EA800104008F012B9000038B58168036891F92C
:103EB8000810DD69044600F1190300F11802A8474B
:103EC800A3689A7A42B11A78012A00D9FEE7044B0E
:103ED80003EB0213236138BD024B6361FBE700BFAC
:103EE80024E2000804E20008836810B5044683B1A0
:103EF80003691BB943690BB9FFF7D6FFA3689B7A1F
:103F08001BB12369B3F90C0010BD6369B3F91C0038
:103F1800FAE71846F8E7836810B5044643B1036921
:103F28001BB943690BB9FFF7BFFF94F9190010BD1E
:103F38001846FCE790F8D8305BB190F8D930074ABA
:103F4800180102EB03139B681978135853F82100E2
:103F58007047837D0E3350F823007047D4CB000898
:103F680013B5194B0288DB8B9A42044627D1837814
:103F780013F0D00F25D18379812B22D84FF6FF7308
:103F88000D2201460DF10600ADF80630FDF79CFD47
:103F9800B4F80D20BDF806309A420ED14C2204F137
:103FA8000D01FDF791FDB4F85900BDF80630C01AAF
:103FB80018BF0120800002B010BD0320FBE70120DC
:103FC800F9E70220F7E700BF680000200A7ACB79FA
:103FD80002F0070243EA022303804B7A0A7A03F0CD
:103FE8003F035B0143EAD20343808B7A4A7A9B0002
:103FF80043EA9213CA7A02F0010243EA82238380D9
:104008000B7BCA7A03F00F03DB0143EA5203C38038
:104018000B7BC3F30112012A11D813F0300F14BF20
:10402800012300239B0203830B7B7F2B0AD813F009
:10403800C00F14BF012300239B024383704740F243
:10404800FF73F0E740F2FF73F7E70A7ACB7902F0E3
:10405800070243EA022303804B7A0A7A03F03F03FC
:104068005B0143EAD20343808B7A4A7A9B0043EA96
:104078009213CA7A02F0010243EA822383800B7BFF
:10408800CA7A03F00F03DB0143EA5203C3800A7CB8
:10409800CB7B02F0070243EA022303814B7C0A7CB4
:1040A80003F03F035B0143EAD20343818B7C4A7CE4
:1040B8009B0043EA9213CA7C02F0010243EA82237E
:1040C80083810B7DCA7C03F00F03DB0143EA5203B3
:1040D800C3814B7DDB0003828B7DDB004382CB7D7C
:1040E800DB0083820B7EDB00C3820B7BC3F30112F0
:1040F800012A2BD813F0300F14BF012300239B0291
:1041080003830B7B7F2B24D813F0C00F14BF01232C
:1041180000239B0243830B7DC3F30112012A1BD8A2
:1041280013F0300F14BF012300239B0283830B7D00
:104138007F2B14D813F0C00F14BF012300239B0258
:10414800C3834FF4806303844384704740F2FF7352
:10415800D6E740F2FF73DDE740F2FF73E6E740F28F
:10416800FF73EDE737B5214BDB8B03804A78837803
:1041780062F3C30383704A79C37862F30003C370A0
:104188008A79437962F386134371044691F90200F0
:104198000D46FDF714F8E37860F34703E370EA7817
:1041A800237962F3060323712A79DBB202F0010254
:1041B80003F07F0343EAC21323712A796379C2F3B8
:1041C800450223F03F031343637159224FF6FF73EF
:1041D80021460DF10600ADF80630FDF775FCBDF877
:1041E8000630A4F8593003B030BD00BF6800002085
:1041F8002DE9F3419DF820601546522E88464FF070
:104208005B024FF0000104461F4628BF522608F003
:104218003FF92D4BDB8B23802A78A37862F30203C6
:10422800A3706978C90001F00801DBB203F0070345
:1042380041EA08111943A1706A79E37862F300032F
:10424800E370AA79637962F38613637195F90200C2
:10425800FCF7B5FFE37860F34703E370EA78237966
:1042680062F3060323712A79DBB202F0010203F03C
:104278007F0343EAC21323712A796379C2F34502A3
:1042880023F03F0313436371A379224666F3470380
:1042980002F8063F3E443B46B34210D14FF6FF7347
:1042A800592221460DF10600ADF80630FDF70CFC49
:1042B800BDF80630A4F8593002B0BDE8F08113F813
:1042C800011B02F8011FE7E76800002007B500930B
:1042D80013460A460121FFF78BFF03B05DF804FB84
:1042E80030B5374B027893F8261061F30302027059
:1042F80093F8271061F30712027093F82810427898
:1043080061F30302427093F8291061F307124270B7
:1043180093F82A10827861F30302827093F83210BE
:10432800827961F30302827193F82B10827861F32A
:104338000712827093F83410C27961F30302C271D4
:1043480093F82C10C27861F30302C27093F82D1011
:1043580061F30712C27093F82E10027961F3030219
:104368000271427993F8301061F30302427193F8B5
:104378003310827961F30712827103F1390100F178
:104388000A0200F1160411F9015F02F8015FA24266
:10439800F9D193F84610C27D61F30102C27593F812
:1043A800471061F38302C27593F8481061F3051250
:1043B800C27593F8493063F38712C27530BD00BFE8
:1043C800C40000200278314BC2F3030230B583F8F1
:1043D80026200278C2F3031283F827204278C2F31A
:1043E800030283F828204278C2F3031283F82920B5
:1043F8008278C2F3030283F82A208279C2F3030287
:1044080083F832208278C2F3031283F82B20C27912
:10441800C2F3030283F83420C278C2F3030283F89C
:104428002C20C278C2F3031283F82D200279C2F33C
:10443800030283F82E204279C2F3030283F8302066
:104448008279C2F3031283F8332003F1390100F1B2
:104458000A0200F1160412F9015F01F8015FA24295
:10446800F9D1C27DC2F3010283F84620C27DC2F3AE
:10447800810283F84720C27DC2F3011283F84820E5
:10448800C27DC2F3811283F8492030BDC4000020E8
:1044980070B5522698B0324604460D4603A800214E
:1044A80007F0F6FF212342F643008DF80C30FDF7A4
:1044B8009FF8ADF80E004FF42150FDF799F81C490C
:1044C800ADF8100014220DF11200FDF7A2F81948FA
:1044D800FFF721FD184B8DF8260093F851308DF821
:1044E80027300AA8FFF7FCFE4FF68073ADF8463078
:1044F800124A134BCDE91223124B149347F6FF735C
:10450800ADF85430104BB3F86E208DF85620B3F840
:104518007020B3F872308DF857208DF85830009617
:1045280003AB2A4602212046FFF762FE18B070BD91
:10453800D7C700081C2000206800002001000A00DE
:10454800190064009E00FF7F8002002038B5104DDE
:10455800044600F11B01062205F58970FDF7B4F841
:1045680094F82130C3F3030385F8193194F8213006
:10457800C3F3031385F81A3194F82230C3F3030305
:1045880085F81B3104F12500BDE83840FFF71ABF54
:10459800C40000200A4A126882600A4A0023838005
:1045A800837183810384136803615368064A4361F6
:1045B800136883615368C3614EF6602303607047D4
:1045C800742E0020EAC70008F3C7000810B5124C83
:1045D8000220FFF7BBF92046FFF75AFC6FF07F0176
:1045E8002046FFF7BBFBA36803B9FEE7002120467E
:1045F80007F0B0FC4FF47A70FEF76EF82046012100
:1046080007F0BFFCA36820461978FFF789FB20460E
:10461800FFF73EFC10BD00BF1C20002008B590F835
:10462800203002468BB9FEF706F810B982F821004F
:1046380008BD92F8213001335BB2312B82F821306A
:10464800F6DD012382F82030F2E7FDF7F4FF18B118
:10465800322382F82130EBE792F82130013B5BB23C
:10466800002B82F82130D8BF82F82000E0E7000054
:104678000A4B90F820201B6872B182689B1AB3F528
:104688007A6F01D901234371037923B9437913B1AF
:1046980001230371037370478360F5E7742E0020CC
:1046A8000346007B821E012A4FF0000202D893F8CD
:1046B800201009B91A737047104670470A4A38B56E
:1046C800138801339BB2502B04460D4601D8138042
:1046D80038BD002305491380FDF77AFD2946204699
:1046E800FDF776FDF4E700BF60030020FCC7000873
:1046F8002DE9F84F154604460F466B496B4EFDF7FA
:1047080067FD29462046FDF763FD694B0022012F0E
:104718001A800FD10823B362102746F2A810B76198
:10472800FDF7DAFFB762FDF7D7FF29462046FFF706
:10473800C5FFF2E7BB1E10220C2B00F2A880DFE8B1
:1047480003F03141521C07A6A6A6626262626200AB
:10475800564E4FF010080827C6F8188046F2A810E1
:10476800B762FDF7B9FFC6F82880B761FDF7B4FF57
:1047780029462046FFF7A2FFEDE74C4E4FF0100800
:104788000827C6F8188046F2A810B761FDF7A4FFFD
:10479800C6F82880B762FDF79FFF29462046FFF735
:1047A8008DFFEDE7B262414E082746F2A810B761C7
:1047B800FDF792FFB762FDF78FFF29462046FFF706
:1047C8007DFFF2E70823B361384E102746F2A810A0
:1047D800B761FDF781FFB762FDF77EFF29462046E6
:1047E800FFF76CFFF2E7B261304E082746F2A810D7
:1047F800B761FDF771FFB762FDF76EFF29462046E6
:10480800FFF75CFFF2E7A7F1090BDFF8A0805FFA7A
:104818008BFB00264FF0100A5E453CBF0823C8F802
:1048280018304FF0040946F2A810C8F818A0FDF790
:1048380053FFC8F828A0FDF74FFF09F1FF392946B3
:104848002046FFF73BFF19F0FF09ECD10823C8F811
:1048580028304FF0040946F2A810C8F818A0FDF750
:104868003BFFC8F828A0FDF737FF09F1FF392946B3
:104878002046FFF723FF19F0FF09ECD10136A7F115
:104888000803F6B2DBB2B34238BF0026C4E70823F8
:10489800B261B3614CF25030FDF71EFF2946204645
:1048A800FFF70CFFF6E700BFFCC70008000400484C
:1048B8006003002008B5437802789A4213D0052B8C
:1048C8008ABF052303700370027888BF4370064BC4
:1048D800064813F92210064B19731976836813B129
:1048E8001972FFF73BFA08BD34CC00081C200020E1
:1048F8006800002010B50AB9437010BD541E0B2C77
:10490800FBD80332D2B231F8122040F27E618A42DB
:1049180003D95AB222EAE2721AE0B2F5C17F02D292
:104928009A1E52B2F6E740F2A9518A4204D95AB205
:10493800052A1CDCDA1EF4E740F256218A4218D90F
:1049480040F2D4418A4208D95AB2042AF2DD02223E
:104958009A42C8BF5AB24270CFE7B2F54B7F04D231
:104968005AB2032AE6DD0122F2E75A1ED9E70322EA
:10497800EEE70022ECE7000037B50C461D4668B9A3
:1049880007480DF106020DF1070107F003FC9DF839
:10499800061003482B46224607F0ADFA03B030BD97
:1049A8001C20002070B50D4616461C460146A0B9CD
:1049B800FDF703FE0B4833462A4607F075FA094807
:1049C8004FF6FF7107F081FB0648A10107F096FB3F
:1049D800BDE870407D20FDF77FBE0248FFF758FA1A
:1049E80070BD00BF1C2000202DE9F041184C054681
:1049F8005B270E463A460021204607F049FDAB6981
:104A08002360EB696360134B13491B789A1E53426A
:104A18005341627A63F3000262724322A27228222F
:104A28000023E27204F10E00142223736373FCF76F
:104A3800F0FD59212046FDF75FF8084BA4F859000E
:104A48003A46214630461B7FBDE8F041FFF7AABF32
:104A58009B1C002053030020D7C7000868000020D3
:104A680037B50C4638B91A48836833B9812281F8BA
:104A7800A02081F8A23003B030BD9D7ADDB101F1EC
:104A8800A2020DF1060107F06FFB94F9A230002B8A
:104A980004DABDF806201344ADF80630BDF9063037
:104AA800002B0FDB4FF6FF73ADF80630BDF806306C
:104AB80084F8A030DFE70DF1060107F09CFC84F8CC
:104AC800A250EBE77F33F1DA4FF68173ECE700BFD2
:104AD8001C2000200A4608B501460148FFF708FED9
:104AE8002C00002000B591B00446684616461D46C5
:104AF80007F028FD1849684607F0D2FC304607F051
:104B080001F90146684607F0CBFC1449684607F0EE
:104B1800C7FC134B684653F82510124D07F0C0FC2C
:104B28001149684607F0BCFC9DF84830684655F8BE
:104B3800231007F0B5FC0D49684607F0B1FC9DF855
:104B48004C30684655F8231007F0AAFC08486A4616
:104B58002146FFF7CDFD00BFFEC7000805C80008C5
:104B680000000020100000200AC8000811C8000832
:104B78002C000020024608B501480021FFF7B8FDC7
:104B88002C0000200023FF22037043708370C27042
:104B980003717047C178034629B9827801710132DF
:104BA800827001207047007801281ED0022805D0A5
:104BB800C8B99A78187101329A70F2E798785A78D9
:104BC8004240D20704D40130002298701A71E8E7F5
:104BD800FF2902D10020187170471A790132D2B228
:104BE80091421A71EFD300207047FF29F2D01A7949
:104BF8000132D2B291421A71F5D29A7801329A7082
:104C080000221A71704700000E48C3691A0617D5AA
:104C180003681B0614D50C4B0C4A1988138889B2F3
:104C28009BB299420AD013880133DBB213801388F0
:104C3800074A9BB2D35CDBB283627047FCF71FBFA5
:104C4800704700BF0038014068220020662200201B
:104C5800662100200E490F4A0B8812880133DBB207
:104C680092B29A4211D00C4AD0540C4A0B8002F5E9
:104C7800006353E8003F43F0800302F5006040E81A
:104C880000310029F3D1012070470020704700BF90
:104C980068220020662200206621002000300140A2
:104CA80038B504464518AC4200D138BD14F8010B9C
:104CB800FFF7D0FFF7E708461146FFF7F1BF0000FE
:104CC80070B588B00C460646154600212022684675
:104CD80007F0DEFB231E18BF01231B03CDE90235B5
:104CE80069460C23034801960494059306F040FF97
:104CF80008B070BD0038014010B5064C236823F099
:104D080001032360FFF7DCFF236843F001032360FE
:104D180010BD00BF0038014008B531B1002211466E
:104D28000348FFF7E9FFFDF76FFC012008BD00BF4E
:104D3800801A060008B541B14FF4005204484FF4F8
:104D48008061FFF7D9FFFDF74FFC012008BD00BFC8
:104D5800A086010008B531B1002211460348FFF7CB
:104D6800CBFFFDF741FC012008BD00BF9A5B0600A0
:104D780008B541B14FF4005204484FF48061FFF781
:104D8800BBFFFDF741FC012008BD00BFA086010064
:104D980013B52E4C236823F0010323604FF48040A1
:104DA800FCF761FE08230120CDE900300A22032325
:104DB80027484021FDF756FA002211462548FFF7FB
:104DC8007FFF636823F490436360A36823F02A039A
:104DD800A360214BC02283F8242310225A60204666
:104DE800FCF74DFE1D4901F5006353E8003F23F031
:104DF800400301F5006040E80032002AF3D1402367
:104E08002362174B1A80174B1A80636823F40063D8
:104E18006360A36823F00803A360636823F48043F6
:104E28006360A36823F02203A360A36843F480535C
:104E3800A360236843F001032360044BDA699102FD
:104E4800FCD5DA695202F9D502B010BD003801402C
:104E580000040048A086010000E100E000300140A5
:104E6800662200206822002030B51C4C85B00E2236
:104E780000210546684607F00BFBB4F8A030ADF8F2
:104E880000302046FCF74CF98DF802002046FCF76C
:104E98003EF9B4F8A4308DF803001148ADF8043099
:104EA800FFF739F894F8A6308DF8073094F8A93050
:104EB8008DF80830B4F8AA30ADF80A30094B8DF8EF
:104EC80006009B788DF80C306946012328468DF83A
:104ED8000D3004F03EFE05B030BD00BF541D00206B
:104EE8001C200020680000200148FEF73BB900BFE5
:104EF800511D0020F8B5154D0E4607465B2329467F
:104F0800304614462A46FFF737FDD7E904132868C8
:104F18006A689A4208BF884209D0002430460C4982
:104F2800FFF79EFD002C0CBF01200320F8BD59217E
:104F38002846FCF7E1FDB5F859308342EDD114B1AC
:104F4800FFF7D2FFEAE70124E8E700BF5520002079
:104F5800541D002013B5012104460844FCF7CCFD7C
:104F6800A178ADF806000DF10600FCF7A1FDE17887
:104F7800FCF79EFD2179FCF79BFD6179FCF798FD14
:104F8800A179FCF795FD04F108010322FCF79CFDCB
:104F9800627804F10C01FCF797FD94F82311FCF7F3
:104FA80087FDBDF80630A4F80C3102B010BD000032
:104FB8000038024B18BF0120187070471C030020EE
:104FC8002DE9F041002A5FD1042B00F2C9809DB27F
:104FD800002B57D0914B8026FF270C88B4F5817F92
:104FE80080F0EA8010F804C093F81EE02CEA0E0C5A
:104FF80000F804C09C7F64089C774CB90C88013485
:105008000C809E770C88B4F5817F80F0038107556A
:105018000C88B4F5817F80F0CF8010F804C093F835
:105028001EE02CEA0E0C00F804C09C7F64089C77F4
:105038004CB90C8801340C809E770C88B4F5817FBC
:1050480080F0E88007550C88B4F5817F80F0B48043
:1050580010F804C093F81EE02CEA0E0C00F804C007
:105068009C7F64089C774CB90C8801340C809E772F
:105078000C88B4F5817F80F0CD800755013294B259
:10508800AC42AAD3BDE8F081FF2AFBD1032B00F282
:1050980094809EB2002BF5D0604B002580270C88A9
:1050A800B4F5817F80F0B78010F804C093F81EE053
:1050B8002CEA0E0C00F804C09C7F64089C774CB95D
:1050C8000C8801340C809F770C88B4F5817F80F0C0
:1050D800A38002550C88B4F5817F80F09C8010F87D
:1050E80004C093F81EE02CEA0E0C00F804C09C7F64
:1050F80064089C7754B90C8801340C809F770C881D
:10510800B4F5817F80F0888002559C7F64089C7785
:1051180044B90C8801340C809F770C88B4F5817FE2
:105128007AD202550C88B4F5817F74D210F804C085
:1051380093F81EE02CEA0E0C00F804C09C7F64086B
:105148009C7744B90C8801340C809F770C88B4F59F
:10515800817F61D202550135ACB2A6429FD891E752
:1051680003F5C06C2D4B0D224FF4805E8025FF2681
:105178001CEA0E0F02F1FF3209D10C88B4F5817FC9
:1051880018D293F81E80075D27EA080707559C7F09
:1051980064084FEA5E0E9C7744B90C8801340C8091
:1051A8009D770C88B4F5817F05D2065512F0FF0271
:1051B800DED167E7FEE7FEE7FEE703F5E064174B9D
:1051C8000D254FF480574FF0800C3C4205F1FF3518
:1051D8000BD10E88B6F5817F1AD293F81E8010F88D
:1051E80006E02EEA080E00F806E09E7F76087F08A3
:1051F8009E774EB90E8801360E8083F81EC00E8841
:10520800B6F5817F05D2825515F0FF05DDD139E766
:10521800FEE7FEE7FEE7FEE7FEE700BF70050020B9
:105228002DE9F84F9C4C802500270F80A577FF2596
:1052380005709946002B00F0ED8203F1FF3A0B88C8
:1052480012FA8AFA561E02F1FF08BB463A46FF2BAD
:1052580016F8015F0DD88AB15D450BD10137BFB291
:10526800994540F2C382564500F0C3824645EED1C7
:10527800FEE7FEE7FBB25A46FFF7A2FE6B1EDBB263
:10528800FD2B00F203813F2B40F2DB8105F1410346
:10529800DBB23F2B40F202810B883F35B3F5817FAB
:1052A800EDB280F0B982C25C94F81EC022EA0C020A
:1052B800C254A37F5B08A3775BB90B8801330B80CB
:1052C8008023A3770B88B3F5817F80F08D82FF223E
:1052D800C254A37F5B08A3775BB90B8801330B80AB
:1052E8008023A3770B88B3F5817F80F07D82FF222E
:1052F800C2546B060AD40B88B3F5817F80F08C8288
:1053080094F81EC0C25C22EA0C02C254A37F5B0858
:10531800A3775BB90B8801330B808023A3770B88B5
:10532800B3F5817F80F06082FF22C254AA060AD4B6
:105338000B88B3F5817F80F06F8294F81EC0C25C41
:1053480022EA0C02C254A37F5B08A3775BB90B88DF
:1053580001330B808023A3770B88B3F5817F80F01E
:105368004382FF22C254EB060AD40B88B3F5817F2F
:1053780080F0528294F81EC0C25C22EA0C02C25429
:10538800A37F5B08A3775BB90B8801330B8080236D
:10539800A3770B88B3F5817F80F02682FF22C25461
:1053A8002A070AD40B88B3F5817F80F0358294F8F8
:1053B8001EC0C25C22EA0C02C254A37F5B08A3771A
:1053C8005BB90B8801330B808023A3770B88B3F577
:1053D800817F80F00982FF22C2546B070AD40B88B0
:1053E800B3F5817F80F0188294F81EC0C25C22EA6F
:1053F8000C02C254A37F5B08A3775BB90B88013307
:105408000B808023A3770B88B3F5817F80F0EC8134
:10541800FF22C254AA070AD40B88B3F5817F80F013
:10542800FB8194F81EC0C25C22EA0C02C254A37F1E
:105438005B08A3775BB90B8801330B808023A377C4
:105448000B88B3F5817F80F0CF81FF22C254EB0730
:1054580009D40B88B3F5817F80F0DE81A57FC25C1B
:1054680022EA0502C254A37F5B08A3775BB90B88C5
:1054780001330B808023A3770B88B3F5817F80F0FD
:10548800B381FF22C2540B880022E9E601270B886A
:10549800AB463A46E4E600BF70050020A37F01351D
:1054A8005B08EDB2A37763B90B8801330B808023C7
:1054B800A3770B88B3F5817F80F09781FF22C254D0
:1054C800A37F5B08A3775BB90B8801330B8080232C
:1054D800A3770B88B3F5817F80F08781FF22C254C0
:1054E800AB060AD40B88B3F5817F80F0978194F8D6
:1054F8001EC0C25C22EA0C02C254A37F5B08A377D9
:105508005BB90B8801330B808023A3770B88B3F535
:10551800817F80F06A81FF22C254EA060AD40B8890
:10552800B3F5817F80F07A8194F81EC0C25C22EACC
:105538000C02C254A37F5B08A3775BB90B880133C5
:105548000B808023A3770B88B3F5817F80F04D8192
:10555800FF22C2542B070AD40B88B3F5817F80F051
:105568005D8194F81EC0C25C22EA0C02C254A37F7B
:105578005B08A3775BB90B8801330B808023A37783
:105588000B88B3F5817F80F03081FF22C2546A070F
:105598000AD40B88B3F5817F80F0408194F81EC04F
:1055A800C25C22EA0C02C254A37F5B08A3775BB9F2
:1055B8000B8801330B808023A3770B88B3F5817F99
:1055C80080F01381FF22C254AB070AD40B88B3F5CD
:1055D800817F80F0238194F81EC0C25C22EA0C020D
:1055E800C254A37F5B08A3775BB90B8801330B8098
:1055F8008023A3770B88B3F5817F80F0F680FF22A4
:10560800C254EA0709D40B88B3F5817F80F006817C
:10561800A57FC25C22EA0502C254A27F5208A27783
:105628000B88002A7FF430AF01330B808023A377E7
:105638000B88B3F5817F80F0D880FF25C5540B888F
:105648000EE6A37F7F355B08EDB2A3775BB90B88C5
:1056580001330B808023A3770B88B3F5817F80F01B
:10566800C280FF22C2540A88B2F5817F80F0D580BB
:1056780094F81EC0835C23EA0C038354A37F5B0861
:10568800A3775BB90B8801330B808023A3770B8842
:10569800B3F5817F80F0A780FF22C254AB060AD4FD
:1056A8000B88B3F5817F80F0B88094F81EC0C25C87
:1056B80022EA0C02C254A37F5B08A3775BB90B886C
:1056C80001330B808023A3770B88B3F5817F80F0AB
:1056D8008A80FF22C254EA060AD40B88B3F5817F78
:1056E80080F09B8094F81EC0C25C22EA0C02C2546F
:1056F800A37F5B08A37753B90B8801330B80802302
:10570800A3770B88B3F5817F6DD2FF22C2542B0794
:1057180009D40B88B3F5817F7FD294F81EC0C25C90
:1057280022EA0C02C254A37F5B08A37753B90B8803
:1057380001330B808023A3770B88B3F5817F52D286
:10574800FF22C2546A0709D40B88B3F5817F64D25B
:1057580094F81EC0C25C22EA0C02C254A37F5B0804
:10576800A37753B90B8801330B808023A3770B8869
:10577800B3F5817F37D2FF22C254AB0709D40B8817
:10578800B3F5817F49D294F81EC0C25C22EA0C02AC
:10579800C254A37F5B08A37753B90B8801330B80EE
:1057A8008023A3770B88B3F5817F1CD2FF22C254D4
:1057B800EA0708D40B88B3F5817F2ED2A57FC25C97
:1057C80022EA0502C254A27F5208A2770B88002A57
:1057D8007FF45AAE01330B808023A3770B88B3F58F
:1057E800817FFFF42AAFFEE7FEE7FEE70020BDE871
:1057F800F88F5AB9A27F802A1EBF01339BB20B8053
:10580800994594BF00200120BDE8F88FFBB25A46A5
:10581800FFF7D6FB0B88EDE7FEE7FEE7FEE700BFE4
:105828002DE9F04F47F26F730022827003800B78E6
:10583800A3F1FE03B3FA83F35B0983708A780D46FC
:1058480012F001011CBF43F080038370D5F82021BA
:1058580022F07F4222F0FF0285B0044612B143F0E5
:1058680008038370AA68C2F31702FF2A1ED9B2F58B
:10587800803F18D363F07F03A37041F002014FF01B
:10588800020E09234FF00A0C0822E1700B20CDF814
:1058980004C01E4617464FF007094FF0060A4FF09E
:1058A800050B042117E043F00203A370180600F16A
:1058B800DF8008234FF0090C07220A204FF0000E62
:1058C800CDF804C01E4617464FF006094FF0050AEA
:1058D8004FF0040B032195F8018004F8018004EBD4
:1058E8000108297904F80B10697904F80A10A979D4
:1058F80004F80910A178090709D595F82111A154D0
:1059080095F82211A1550346674662460646A968DE
:10591800A154A278900707D5BA1C1F46AB68C3F3F9
:105928000F23A35596B23346BEF1000F05D05A1C7B
:105938001F46AB7AA35596B23346A278D10606D550
:105948005A1C1F4695F82331A35596B233464A4A46
:10595800127803F1010914FA89FA05F10C0B42B126
:105968006B785A460DF10E015046FFF759FC002896
:105978005CD16A78504659461FFA82FA06F0EAFD69
:1059880022783E4B6178D243D2B2072F9A5C82EAE2
:105998000102995CA27882EA0102995CE27882EAC3
:1059A8000102995C227982EA0102995C627982EAB1
:1059B8000102995CA27982EA0102995CE27982EAA1
:1059C80001029A5C1BD0217A4A40082F9A5C16D0B3
:1059D800617A4A40092F9A5C11D0A17A4A400A2F6D
:1059E8009A5C0CD0E17A4A400B2F9A5C07D0217B55
:1059F8004A400C2F9A5C1EBF617B4A409A5CA255B4
:105A08001AFA89F39BB2B3F5947F0ED2B5F80C213C
:105A1800E254981CB5F80C115A1C92B280B2090ACB
:105A2800B0F5947FA1540AD3FEE7FEE7A378BDF84A
:105A38000EA043F04003A37088F800A0A0E7AA785E
:105A4800D20702D405B0BDE8F08FD5F81071D5F8AB
:105A58001811D5F81461275022180F335660916039
:105A680098B295F81C111173B0F5947FEAD3FEE74C
:105A78004FF0000E05E700BF1C03002078CC00089B
:105A88002DE9F04F0D4683B001460646B04814464E
:105A980006F060FDAF4800238021B4F5817F2B809C
:105AA800038480F8221080F0CB80002C00F037812E
:105AB800DFF89CE20F464FF0400899464FF0FF0A86
:105AC8001EF8032011424FEA510180F8221014BF3A
