:020000040800F2
:1000000000800020059D0008DD9C0008DF9C0008A2
:10001000E19C0008E39C0008E59C0008000000004B
:10002000000000000000000000000000E79C000845
:10003000E99C000800000000EB9C0008ED9C000813
:10004000559D0008559D0008559D0008559D0008C8
:10005000559D0008559D0008559D0008559D0008B8
:10006000559D0008559D0008559D0008559D0008A8
:10007000559D0008559D0008559D0008559D000898
:10008000559D000800000000559D0008559D000882
:10009000559D0008559D0008559D0008559D000878
:1000A000559D0008559D0008559D0008559D000868
:1000B0008D310008559D0008559D0008559D00088C
:1000C000559D0008559D0008559D0008559D000848
:1000D000559D0008012A00087D230008559D000851
:1000E000917D0008559D0008559D0008559D00080C
:1000F000559D0008559D0008559D00080000000012
:1001000000000000559D000800000000559D0008FB
:10011000559D000800000000559D0008559D0008F1
:10012000559D0008559D0008559D0008559D0008E7
:10013000559D00080000000000000000559D0008CB
:10014000559D0008559D00080000000000000000BB
:10015000000000000000000000000000000000009F
:10016000000000000000000000000000559D000895
:10017000559D000800000000000000000000000085
:1001800000000000559D0008000000000000000075
:10019000000000000000000000000000000000005F
:1001A0000000000000000000559D0008F52C00082C
:1001B000559D0008559D0008559D00080000000051
:1001C00000000000559D0008000000000000000035
:0801D000559D0008559D000833
:1001D80010B5054C237833B9044B13B10448AFF379
:1001E80000800123237010BD68000020000000007B
:1001F80010BD000808B5034B1BB103490348AFF312
:10020800008008BD000000006C00002010BD000840
:1002180010F8012B11F8013B012A28BF9A42F7D0A8
:10022800D01A7047034613F8012B002AFBD1181A7D
:100238000138704781F0004102E000BF83F00043BD
:1002480030B54FEA41044FEA430594EA050F08BF69
:1002580090EA020F1FBF54EA000C55EA020C7FEA2D
:10026800645C7FEA655C00F0E2804FEA5454D4EBAA
:100278005555B8BF6D420CDD2C4480EA020281EA74
:10028800030382EA000083EA010180EA020281EAAC
:100298000303362D88BF30BD11F0004F4FEA0131FE
:1002A8004FF4801C4CEA113102D0404261EB41010D
:1002B80013F0004F4FEA03334CEA133302D0524293
:1002C80063EB430394EA050F00F0A780A4F101044F
:1002D800D5F1200E0DDB02FA0EFC22FA05F2801889
:1002E80041F1000103FA0EF2801843FA05F359416F
:1002F8000EE0A5F120050EF1200E012A03FA0EFCEE
:1003080028BF4CF0020C43FA05F3C01851EBE37117
:1003180001F0004507D54FF0000EDCF1000C7EEB34
:1003280000006EEB0101B1F5801F1BD3B1F5001F72
:100338000CD349085FEA30004FEA3C0C04F1010491
:100348004FEA445212F5800F80F09A80BCF1004FBA
:1003580008BF5FEA500C50F1000041EB045141EA3C
:10036800050130BD5FEA4C0C404141EB0101013C05
:1003780028BFB1F5801FE9D291F0000F04BF0146F4
:100388000020B1FA81F308BF2033A3F10B03B3F1C6
:1003980020020CDA0C3208DD02F1140CC2F10C0256
:1003A80001FA0CF021FA02F10CE002F11402D8BFB4
:1003B800C2F1200C01FA02F120FA0CFCDCBF41EA80
:1003C8000C019040E41AA2BF01EB0451294330BD4F
:1003D8006FEA04041F3C1CDA0C340EDC04F114042C
:1003E800C4F1200220FA04F001FA02F340EA030003
:1003F80021FA04F345EA030130BDC4F10C04C4F149
:10040800200220FA02F001FA04F340EA0300294628
:1004180030BD21FA04F0294630BD94F0000F83F472
:10042800801306BF81F480110134013D4EE77FEA55
:10043800645C18BF7FEA655C29D094EA050F08BFA1
:1004480090EA020F05D054EA000C04BF1946104682
:1004580030BD91EA030F1EBF0021002030BD5FEAC6
:10046800545C05D14000494128BF41F0004130BDEE
:1004780014F580043CBF01F5801130BD01F0004542
:1004880045F0FE4141F470014FF0000030BD7FEAB5
:10049800645C1ABF194610467FEA655C1CBF0B46B0
:1004A800024650EA013406BF52EA033591EA030FC7
:1004B80041F4002130BD00BF90F0000F04BF0021BF
:1004C800704730B54FF4806404F132044FF00005F2
:1004D8004FF0000150E700BF90F0000F04BF00216B
:1004E800704730B54FF4806404F1320410F00045D1
:1004F80048BF40424FF000013EE700BF42004FEACC
:10050800E2014FEA31014FEA02701FBF12F07F4348
:1005180093F07F4F81F06051704732F07F4208BFFF
:10052800704793F07F4F04BF41F40021704730B506
:100538004FF4607401F0004521F000411CE700BF52
:1005480050EA010208BF704730B54FF000050AE0D5
:1005580050EA010208BF704730B511F0004502D5D6
:10056800404261EB41014FF4806404F132045FEAD8
:10057800915C3FF4D8AE4FF003025FEADC0C18BF81
:1005880003325FEADC0C18BF033202EBDC02C2F173
:10059800200300FA03FC20FA02F001FA03FE40EA05
:1005A8000E0021FA02F11444BDE600BF70B54FF009
:1005B800FF0C4CF4E06C1CEA11541DBF1CEA1355E7
:1005C80094EA0C0F95EA0C0F00F0DEF82C4481EA4F
:1005D800030621EA4C5123EA4C5350EA013518BF6F
:1005E80052EA033541F4801143F4801338D0A0FB5C
:1005F80002CE4FF00005E1FB02E506F00042E0FB09
:1006080003E54FF00006E1FB03569CF0000F18BF0E
:100618004EF0010EA4F1FF04B6F5007F64F54074B6
:1006280004D25FEA4E0E6D4146EB060642EAC62149
:1006380041EA55514FEAC52040EA5E504FEACE2EB6
:10064800B4F1FD0C88BFBCF5E06F1ED8BEF1004FB9
:1006580008BF5FEA500E50F1000041EB045170BD35
:1006680006F0004646EA010140EA020081EA030179
:10067800B4EB5C04C2BFD4EB0C0541EA045170BD75
:1006880041F480114FF0000E013C00F3AB8014F1EF
:10069800360FDEBF002001F0004170BDC4F1000438
:1006A800203C35DA0C341BDC04F11404C4F12005B9
:1006B80000FA05F320FA04F001FA05F240EA020014
:1006C80001F0004221F0004110EBD37021FA04F64A
:1006D80042EB06015EEA430E08BF20EAD37070BD04
:1006E800C4F10C04C4F1200500FA04F320FA05F063
:1006F80001FA04F240EA020001F0004110EBD37065
:1007080041F100015EEA430E08BF20EAD37070BDD4
:10071800C4F1200500FA05F24EEA020E20FA04F3AD
:1007280001FA05F243EA020321FA04F001F000415C
:1007380021FA04F220EA020000EBD3705EEA430ECD
:1007480008BF20EAD37070BD94F0000F0FD101F0FC
:100758000046400041EB010111F4801F08BF013C35
:10076800F7D041EA060195F0000F18BF704703F073
:100778000046520043EB030313F4801F08BF013DFA
:10078800F7D043EA0603704794EA0C0F0CEA1355B6
:1007980018BF95EA0C0F0CD050EA410618BF52EA70
:1007A8004306D1D181EA030101F000414FF0000076
:1007B80070BD50EA410606BF1046194652EA430684
:1007C80019D094EA0C0F02D150EA013613D195EAF8
:1007D8000C0F05D152EA03361CBF104619460AD140
:1007E80081EA030101F0004141F0FE4141F470014A
:1007F8004FF0000070BD41F0FE4141F4780170BD3A
:1008080070B54FF0FF0C4CF4E06C1CEA11541DBF9E
:100818001CEA135594EA0C0F95EA0C0F00F0A7F8A0
:10082800A4EB050481EA030E52EA03354FEA0131CD
:1008380000F088804FEA03334FF0805545EA1313E0
:1008480043EA12634FEA022245EA111545EA1065A8
:100858004FEA00260EF000419D4208BF964244F13F
:10086800FD0404F5407402D25B084FEA3202B61A5E
:1008780065EB03055B084FEA32024FF480104FF432
:10088800002CB6EB020E75EB030E22BFB61A7546A6
:1008980040EA0C005B084FEA3202B6EB020E75EB39
:1008A800030E22BFB61A754640EA5C005B084FEAA1
:1008B8003202B6EB020E75EB030E22BFB61A75466E
:1008C80040EA9C005B084FEA3202B6EB020E75EB79
:1008D800030E22BFB61A754640EADC0055EA060E3A
:1008E80018D04FEA051545EA16754FEA06164FEA7D
:1008F800C30343EA52734FEAC2025FEA1C1CC0D129
:1009080011F4801F0BD141EA00014FF000004FF0B5
:10091800004CB6E711F4801F04BF01430020B4F176
:10092800FD0C88BFBCF5E06F3FF6AFAEB5EB030C2E
:1009380004BFB6EB020C5FEA500C50F1000041EB2B
:10094800045170BD0EF0004E4EEA113114EB5C04F8
:10095800C2BFD4EB0C0541EA045170BD41F48011CB
:100968004FF0000E013C90E645EA060E8DE60CEAD3
:10097800135594EA0C0F08BF95EA0C0F3FF43BAFF0
:1009880094EA0C0F0AD150EA01347FF434AF95EAA7
:100998000C0F7FF425AF104619462CE795EA0C0F8B
:1009A80006D152EA03353FF4FDAE1046194622E758
:1009B80050EA410618BF52EA43067FF4C5AE50EA32
:1009C80041047FF40DAF52EA43057FF4EBAE12E722
:1009D8004A0011D212F5001211D20DD56FF47873B6
:1009E800B3EB62520ED44FEAC12343F0004343EA0B
:1009F800505323FA02F070474FF00000704750EA56
:100A0800013002D14FF0FF3070474FF000007047BF
:100A180053B94AB9002908BF00281CBF4FF0FF315D
:100A28004FF0FF3000F070B9ADF1080C6DE904CE5D
:100A380000F006F8DDF804E0DDE9022304B07047B1
:100A48002DE9F047089E0D4604460F46002B4AD173
:100A58008A42944665D9B2FA82F343B102FA03FC9A
:100A6800C3F120029F4020FA02F217439C404FEA4C
:100A78001C4E1FFA8CF5B7FBFEF1220C0EFB11770A
:100A880042EA074201FB05F090420AD91CEB020238
:100A980001F1FF3780F01C81904240F21981023940
:100AA8006244121AA4B2B2FBFEF00EFB102244EA12
:100AB800024400FB05F5A5420AD91CEB040400F129
:100AC800FF3280F00781A54240F204816444023875
:100AD80040EA0140641B00211EB1DC400023C6E946
:100AE8000043BDE8F0878B4208D9002E00F0ED8066
:100AF8000021C6E900050846BDE8F087B3FA83F18E
:100B0800002949D1AB4202D3824200F2F880841A0C
:100B180065EB030201201746002EE2D0C6E9004724
:100B2800DFE702B9FFDEB2FA82F3002B40F09080D3
:100B38008A1A4FEA1C471FFA8CFE0121B2FBF7F50F
:100B480007FB1520220C42EA00420EFB05F09042FA
:100B580008D91CEB020205F1FF3802D2904200F2DC
:100B6800CB804546121AA4B2B2FBF7F007FB10225D
:100B780044EA02440EFB00FEA64508D91CEB040417
:100B880000F1FF3202D2A64500F2BB801046A4EB6A
:100B98000E0440EA05409FE7C1F120078B4022FA86
:100BA80007FC4CEA030C05FA01F420FA07F3FD40B0
:100BB8004FEA1C492343B5FBF9F81FFA8CFE09FBE1
:100BC80018551C0C44EA054408FB0EF5A54202FA28
:100BD80001F200FA01F00BD91CEB040408F1FF3A0A
:100BE80080F08880A54240F28580A8F1020864441C
:100BF800641B9DB2B4FBF9F309FB134445EA0444B2
:100C080003FB0EFEA64508D91CEB040403F1FF35CF
:100C18006CD2A6456AD9023B644443EA0843A3FB65
:100C28000295A4EB0E04AC42C846AE4656D353D048
:100C380056B1B0EB080264EB0E0404FA07F7CA4099
:100C4800CC401743C6E9007418460021BDE8F08778
:100C5800C3F1200102FA03FC20FA01F225FA01F19E
:100C68009D402A434FEA1C471FFA8CFEB1FBF7F060
:100C780007FB1015110C41EA054100FB0EF58D42EA
:100C880004FA03F408D91CEB010100F1FF382FD254
:100C98008D422DD902386144491B92B2B1FBF7F558
:100CA80007FB151142EA014205FB0EF1914208D9F2
:100CB8001CEB020205F1FF3816D2914214D9023D0D
:100CC8006244521A45EA004138E73146304608E79F
:100CD8003946E6E61046FBE64845A9D2B9EB0208D4
:100CE80065EB0C0E013BA3E74546EAE72B4694E784
:100CF8004046D1E7D0467BE7023D624432E70846EA
:100D08000AE76444023842E7704700BF0022427095
:100D180082700122C270B1FA81F10222490902717E
:100D2800032201704271704743788B421FD001291A
:100D380041700AD0022910D0C1B90123C370817053
:100D480002230371032343717047037843B10123DE
:100D580083700223C3700023F3E70378002BF6D0D7
:100D6800022383700023C3700123EAE7FEE770477C
:100D780082B00B88ADF800304B88ADF802308B8814
:100D8800ADF80430CB88ADF806300239431C053085
:100D980013F8012F0DF1080C0CEB4202834232F8D4
:100DA800082C21F8022FF3D102B07047014488784B
:100DB8007047000010B5084B4FF07F32C0E9282378
:100DC8004FF6FF73A0F8A8300446AC3000F03EFCA4
:100DD800002384F8B83010BDFFFF7F0037B51546F3
:100DE80004461146019300F0DDFB294604F1140086
:100DF80000F0D8FB294604F1280000F0D3FB29466F
:100E080004F13C0000F0CEFB294604F1500000F04C
:100E1800C9FB294604F1640000F0C4FB294604F12B
:100E2800780000F0BFFB294604F18C0000F0BAFB03
:100E380004F1AC00019A4FF4FA734FF4FA6100F030
:100E4800F0FB204603B0BDE83040FFF7B3BF704762
:100E580000F0AFBB143000F0ACBB283000F0A9BBE9
:100E680090F8A43013B990F9A000704790F9A10048
:100E7800704790F8A43013B990F9A200704790F920
:100E8800A300704710B5044607F00EF938B104F115
:100E9800140000F092FB012838BF0120C0B210BD39
:100EA80010B5044607F000F938B104F1500000F01D
:100EB80084FB012838BF0120C0B210BD4FF47A71FD
:100EC800AC3000F0CABB0021AC3000F0C6BB08B59E
:100ED800AC3000F0D1FBB0F57A7FA8BF4FF47A7040
:100EE80020EAE07008BD10B5044600F03CFB04F1B0
:100EF800140000F038FB04F1280000F034FB04F182
:100F08003C0000F030FB04F1500000F02CFB04F131
:100F1800640000F034FB04F17800BDE8104000F0F4
:100F28002EBB7F2807D0002807DA10F1800F06D0E3
:100F38004042C0B2704700207047012070477F20B0
:100F4800704710B1404240B270477F2070477F28F9
:100F58000FD010F1310F0EDA10F1780F0DDB783069
:100F6800FE2340B2584323304623B0FBF3F0C0B20F
:100F78007047FF207047FE207047002070477F2889
:100F880005D031B1002806DA4042C0B27047FF20D0
:100F98007047FE207047002070477F2811D010F15D
:100FA800310F10DA10F1780F10DB783040F2A963B6
:100FB80040B2584323304623B0FBF3F0AC3080B244
:100FC80070470020704740F255707047AC2070475A
:100FD80063289FBF40F2A9635843323064239DBF02
:100FE800B0FBF3F0AC3080B240F2557070474FF46C
:100FF800F063A0F58060584340F2FF7390FBF3F074
:1010080000F5787080B27047FFF7F1BF4FF4966330
:10101800A0F58060584340F2FF7390FBF3F000F2B4
:10102800DC5080B27047A0F58060D0EB001048BF5C
:10103800033040F38F007047032812DD0C2812DDBF
:101048000F2812DD122812DD162812DD192812DDEC
:101058001C2812DD1F2812DD2128CCBFFF20062006
:101068007047002070470120704702207047082011
:1010780070470320704707207047042070470520F9
:101088007047000004289ABF014B185CFF20704786
:1010980048BD00087F281ABF4042C0B200207047F0
:1010A800014B4140585C704750BD00085AB110B41C
:1010B800054C0A4411F8013B58408A42205CF9D19A
:1010C8005DF8044B7047704750BD0008392808D8B0
:1010D80022280ED9094B2338C0B2C34003F00100BF
:1010E80070475F2807D0613819288CBF002001207D
:1010F8007047002070470120704700BF01EC7F0057
:10110800F8B50246451E461D00245F2715F8010F55
:10111800FF2804BF0134E4B2FFF7D8FF00B92F70ED
:10112800AE42F3D1062C04D119B10B6813608B8839
:10113800938000239371F8BD2DE9F843DFF83490CC
:10114800471E441D012500264FF0280817F8011FE7
:1011580008480AF080FD034610B1A0EB0903DBB292
:10116800A3FB05329E19A742A5FB0853EED13046D2
:10117800BDE8F88350BE000810B54179A1F13000F0
:10118800C3B2092B07D80523B0FBF3F303EB8303A2
:10119800C01AC0B210BD044C20460AF05CFD0028FD
:1011A800F1D0001BC0B2EEE750BE000870B504468F
:1011B800FFF738F882B20023551E98B2A84214FAF5
:1011C80083F104DA265C302E03F10103F5D0121AFC
:1011D80001322046BDE870400AF00CBD2DE9F04F01
:1011E8000D4699B0164600211A461F4680460AF059
:1011F8001BFD00212A2201A800910AF015FDDFF845
:10120800CC90DFF8CCA0DFF8CCB005EB4606AE42B8
:1012180011D16846FFF706F830B100F160030DEB15
:101228000300002300F8613C694640460AF056FD79
:1012380019B0BDE8F08F35F9020B47F6FF739842F5
:10124800E7D0002812DC59460CA80AF047FD68468A
:10125800FEF7E8FF04460CA8FEF7E4FF20448742A7
:10126800D5D30CA968460AF0E7FCD0E7B0F57A7F39
:101278000BDA0CA980B20AF0BFF80CA8FFF796FFAA
:1012880051460CA80AF0D8FCE1E764230CA93230D7
:10129800B0FBF3F080B20AF0AFF80CA8FFF786FFB6
:1012A8000CA8FEF7BFFF00F15F036B4400F160017B
:1012B8000DEB010013F8302C00F8302C2E2203F827
:1012C800302C002300F82F3C4946DAE744BD0008DB
:1012D8003FBD00083ABD0008F0B589B06D4600244E
:1012E8002F468E1CE1B28A4204D83946FFF776FFB2
:1012F80009B0F0BD36F8241025F8021B0134F1E7D7
:1013080042F210736421B0FBF3F203FB1200B0FB4E
:10131800F1F301FB130000EB023000EB831080B205
:10132800704770B50E460021054614460AF07CFC4D
:1013380000239AB2944200D870BDF25C002AFBD018
:10134800EA540133F5E770B50E4614460021013220
:1013580005460AF069FC00239AB2944200D870BD91
:10136800F25C002AFBD0EA540133F5E77D23438081
:1013780043F2390309B2C360002301808180C3802E
:101388000372704702680449044B01FB023323F0DF
:1013980000430360180C7047FD430300C39E2600FA
:1013A800F0B5002597B0016085800446562229468D
:1013B80068460AF039FC0126E27DAA4209D80023D2
:1013C800802104F1B800A37517B0BDE8F0400AF019
:1013D8002BBC2046FFF7D6FFE7797B1B002190FB4B
:1013E800F3F202FB1300C0B2EC460A46CBB29F42AE
:1013F80023D800230022277B1146D0B2874227D862
:101408000029D9D1A279033A012A04EB050105D9AB
:1014180025B191F9172012BB012BCDD90B76A26803
:1014280052F82310583305F10E026B44013544F885
:10143800221003F8586CEDB2BEE71CF801EBBEF1C0
:10144800000F03D18242D5D00132D2B20131CDE7AB
:101458002069805C0132984208BF0121CDE7501E07
:101468008342DBDB01329342D8DCA5E72DE9F04764
:10147800154696B0013D0160027104464371EDB214
:101488005622002168460AF0CFFB0027022D84BFB0
:101498004FF0010900253E464FF0010A94F80780F5
:1014A8009CBF4FF00309B8FBF9F8E27DB24209D8B6
:1014B8000023802104F1B800A37516B0BDE8F047F9
:1014C8000AF0B2BB2046FFF75DFFA8EB0603002138
:1014D80090FBF3F202FB1300C0B2EC460A46CBB213
:1014E800434506D21CF801EBBEF1000F2AD1824217
:1014F80026D1434528BF434603FB0951002094F8F1
:101508000CE001F0FF018446C2B296451CD8BCF13C
:10151800000FCAD116B1FFB9012BC6D9A2191F46AF
:101528001176A26852F8211006F10E02013644F82D
:10153800221003F158026A44F6B202F858ACB4E734
:101548000132D2B20131CAE72269125C01308A4203
:1015580008BF4FF0010CD7E77A1E9342DEDB7A1CF6
:101568009342DBDCA1E7D0E901236421D31AC360ED
:1015780082604B43418AB3FBF1F303747047D0E9AF
:101588000123D31AC0E90223704743682BB1C2680C
:1015980064214A43B2FBF3F2D3B203740023C3605D
:1015A800436070470023C0E90233418243600374FB
:1015B80070474368013343607047007C7047436855
:1015C8001944416070470023C0E90133C3600374C4
:1015D8007047F0B5047C0360012C11D94468856814
:1015E800C668141B4FF47A774D1B7C4305FB1644E1
:1015F8002B4494FBF3F33344C360C0E90121F0BDED
:101608001CB9C46001230374F7E743684FF47A7484
:10161800D31A634384680C1B93FBF4F3C36002235F
:10162800F1E707EE902A0A44F8EE676A07EE902A77
:10163800F8EE677A436086EEA77A07EE903AF8EEFE
:10164800E77A80ED007AC0ED027A7047D0ED017A32
:10165800F8EEE77AC0ED027A704707EE901A90ED3F
:10166800027AD0ED006AF8EEE77A77EEC77AA6EE4E
:10167800A77A80ED027A7047D0ED027AB6EE007A4A
:1016880077EE877AFDEEE77A17EE900A7047704793
:10169800704700207047002070477047002070474F
:1016A80000207047054BDA6C0243DA64DB6C82B0C9
:1016B80003400193019B02B0704700BF0010024035
:1016C800054B9A6D02439A659B6D82B00340019366
:1016D800019B02B0704700BF00100240054B1A6E14
:1016E80002431A661B6E82B003400193019B02B04D
:1016F800704700BF0010024050E8003F43F08003ED
:1017080040E80032002AF7D1704750E8003F23F044
:10171800400340E80032002AF7D1704750E8003F04
:1017280023F0800340E80032002AF7D17047000018
:10173800044B1888044B1B8880B29BB2C01A18BF90
:1017480001207047502800204E28002070470000D4
:101758000288044B5140C9B233F8113083EA12238E
:101768000380704734D60008A2B110B4B0F800C0A6
:10177800094C0A4411F8013B83EA0C03DBB291429D
:1017880034F8133083EA1C2CA0F800C0F2D15DF8BD
:10179800044B7047704700BF34D6000837B54FF682
:1017A800FF730446ADF806304518AC4203D1BDF8C6
:1017B800060003B030BD14F8011B0DF10600FFF759
:1017C800C7FFF2E708B5FFF7B3FF003818BF0120DD
:1017D80008BD0120704700000278024B51405B5C55
:1017E8000370704750C30008FF230370704700BFA1
:1017F8007047000008B51E22034800210AF014FAB9
:10180800024B00221A7008BD88050020340300200E
:101818002DE9F0411378037092F8018080F8018077
:10182800FD2B04460F46154654D193788370D37820
:10183800C3701379037153794371937983716B7A08
:10184800127A1B0403EB0223EA79134423F07F4343
:101858000A26A26863F31702A260A919424604F196
:101868000C000AF043FA7A7B904507D208F10C0085
:10187800A2EB0802002120440AF0D6F963781E443E
:10188800AB195A78AB5D03EB0223A4F80C31A378AB
:10189800DB070ED5023615FA86F304F5887203F1D4
:1018A8000C0153F8040B42F8040B8B42F9D11B7856
:1018B8001370BB7A84F82131FB7A84F822313B7BA0
:1018C80084F823317B7B84F824313B7884F82031F9
:1018D800BDE8F0810023438093780371D378437186
:1018E8001379837153790626B3E770B50B780370C3
:1018F8004B7843700B78FD2B05460C4638D18B7816
:101908008370CB78C3700B7903714B7943718B79F2
:1019180083718B68C3718B68C3F30F2303728B7A4F
:1019280043720A26627804F10C01A8190AF0DEF95C
:101938006378B4F80C213344981CEA545A1CB4F860
:101948000C1192B2090AA954A278D20780B20ED516
:1019580004F58872054404F58E7452F8041B45F8A2
:10196800041BA242F9D112782A700F3398B270BDC5
:1019780000238B700B7983704B79C3708B7903715B
:101988008B6843710626CDE770B50D4C0D4E0546A4
:10199800062204F10A0106F58970FFF7D4FC237CBE
:1019A800C3F3031386F81A31637CC3F3030386F881
:1019B8001B31637ADB0744BF02232B7370BD00BF62
:1019C800391E0020E00000200A4A0B4B12680B4920
:1019D800A3FB02323220920C00FB02F2084B48684B
:1019E80002F5FA72A3FB023292094B681B1A9A425B
:1019F800FBD870473C00002083DE1B43001000E04A
:101A0800D34D621008B5FFF7DFFF4FF09043102267
:101A18009A6108BD4FF0904310229A62FFF7D4BF35
:101A280002780A4B90F801C08178D243D2B29A5C0E
:101A380082EA0C0290F803C09A5C4A40995C0279E9
:101A480081EA0C01595C4A40985C704750C3000811
:101A5800F8B53C29BDF8185004461E462BD0A1F114
:101A68002103594259414900242323706F2363708D
:101A7800E2702B0A120AA71CA1702271A37165716A
:101A88003846FFF7CDFF2246334602F8070F711993
:101A98008B4212D1A91D89B23846FFF77FFE05F1A6
:101AA800080605F109039BB2A055000AE05405F1A8
:101AB8000A0080B2F8BD0121D6E713F8010B02F83D
:101AC800010FE5E7074B084A5B6A02F5006353E834
:101AD800003F43F0200302F5006040E80031002990
:101AE800F3D1704700380140003001402DE9F04F34
:101AF8000C465188B1F58C7F85B0054611D300217D
:101B08001170D91CC9B2012995BF01210023518048
:101B180053809CBF2370117000232B7005B0BDE863
:101B2800F08F10780E2800F28B8001A656F820F06E
:101B38000B1B0008751B00089D1B0008B71B00083D
:101B4800491C0008491C0008491C0008491C0008D9
:101B5800491C0008491C0008491C0008491C0008C9
:101B6800491C0008491C0008C91B0008481C508073
:101B780063542178FD299BB206D10C330A21D38006
:101B8800918002231370C7E708330621D380918020
:101B98000E23F7E7481C50806354D80742BFD1880A
:101BA8000D31D180012B8CBF00230323EAE7002BE2
:101BB80001F101005080635414BF00230E23E1E7B4
:101BC800481C508063545388D1888B4232D30023F9
:101BD8005380137002232B7069802378FD2B35D135
:101BE80063792B72A3796B72637A227A1B0403EBF5
:101BF8000223E27913446B60637803F10C026A8074
:101C0800A278D10701D519336B8000266968DFF8FF
:101C1800F0806E8140F26B120C20B31801335B0820
:101C280000FB03F758F80770B94218D25A1EB2429F
:101C3800F3D816E092889A423FF66EAF01236CE71C
:101C48000023137053809380D38066E7E3782B7268
:101C580023796B7263796B6063780833D4E71E4627
:101C6800E5D80C27774358F80730994227D12378CD
:101C78002046FD2B10F801BF0CBF4FF00A094FF0AA
:101C8800060909EB0B03591E89B247440193FFF774
:101C980085FD97F804A0ADF80E0051460DF10E0031
:101CA800FFF756FD019BE218E35C527803EB022331
:101CB800BDF80E209BB29A4203D005232DE70323DB
:101CC8002BE7BB79DA0706D5FA79934582BF04EB8F
:101CD80009018A5CAA729B0709D50C2303FB0683BA
:101CE80062781B7A9A4282BF4C44E35CEB720C2305
:101CF80003FB068385F80CA05B796B730EE700BFC6
:101D080050C40008F0B50546FD2305F80C3B85B026
:101D180004468DF8043090F8243103F10C02024493
:101D2800012B42D80026637066808DF805308B7AC7
:101D380023718DF808308B7AADF8066001338B7209
:101D480063798DF80930A3798DF80A30A368C3F355
:101D580017031A128DF80B3009211B140DF1050019
:101D68008DF80D308DF80C20FFF718FD6778ADF869
:101D780002003A4629460DF10200FFF7F5FC94F8F7
:101D88002311FFF7E5FC94F82421BDF80230A4F8EC
:101D98000C31974210D207F10C00D21B3146204477
:101DA80005B0BDE8F04009F03FBF12F8010D00286A
:101DB800B8D1013BDBB2B3E705B0F0BD044A00235C
:101DC8001380044A1380044A1380044A138070471E
:101DD8004E28002050280020522C0020542C00208F
:101DE80007B503688DF80710DB6801220DF10701BC
:101DF800984703B05DF804FB13B504460846019103
:101E0800FEF710FA23680199DB6882B2204602B017
:101E1800BDE8104018470000B0F1904F08B50146E2
:101E280007D10120FFF73EFC114B99420BD120202E
:101E380014E0104B98420BD003F58063984209D107
:101E48000420FFF72FFC0C4B994210D1402005E0ED
:101E58000220E7E7094B984204D10820BDE8084072
:101E6800FFF720BC064B9842DED11020F6E708BDEC
:101E7800001400480004004800180048000C0048FE
:101E88000010004808B5224B984201460BD14FF488
:101E98000060FFF723FC1F4B99420DD1BDE80840B5
:101EA8002020FFF70DBCB0F1804F0ED01A4B98429E
:101EB8000FD10220FFF704FC184B99420FD14FF4C1
:101EC8000050BDE80840FFF709BC0120FFF7F8FB08
:101ED800E1E7134B984208D10420FFF7F1FB114BBF
:101EE80099420CD14FF48030EBE70F4B9842D2D196
:101EF8001020FFF7E5FB0D4B994206D008BD0C4BAF
:101F08009942F8D14FF40030DBE74FF48020D8E74E
:101F1800002C01400014004000040040003401403F
:101F28000008004000400140001000400048014007
:101F3800004401402DE9F04387B00E46054614469B
:101F48000021142201A89DF838809DF83C901F4676
:101F580009F06AFE00960B2C07D8DFE804F00707A3
:101F68000A121414141616161A1CFEE703230193FA
:101F780001E002230493032F11D8DFE807F01113BF
:101F880021110123F6E70123F1E7012301930393CC
:101F9800F1E70223EBE7022301930123F7E7FEE7CA
:101FA80002230293B8F1100F0CD8DFE808F02D2DAA
:101FB8000C11131517191B1D1F21232527292B0069
:101FC8000123EEE7FEE701230593022301931EE0B8
:101FD8000223F9E70323F7E70423F5E70523F3E7EB
:101FE8000623F1E70723EFE70823EDE70923EBE7EB
:101FF8000A23E9E70B23E7E70C23E5E70D23E3E7EB
:102008000E23E1E70F23DFE7B8F1000FDDD1B9F1C7
:10201800000F02D02846FFF7FFFE053C042C05D828
:10202800DFE804F0030B04030B00AE6269462846A0
:1020380008F098FC07B0BDE8F083AE61F6E713B589
:102048004FF0010C0024CDE9004CFFF773FF02B0FC
:1020580010BD000070B586B00023164604460D4634
:10206800ADF80630FFF70EFF042E04D8DFE806F0BF
:10207800303404384100FEE71F4B204A1B68B3FB8D
:10208800F2F39BB20022013B01A92046ADF80430CF
:10209800CDE902250492059208F0DEFE236823F0BC
:1020A80080032360A36823F4A03323F00703A3600D
:1020B800636823F0007323F070036360636823F49C
:1020C80070036360A36823F08003A36006B070BD4B
:1020D800094B0B4A1B68D2E7074B0A4A1B68CEE735
:1020E800054B074A1B68B3FBF2F303EB83035B0062
:1020F800C7E70123C6E700BF3C00002080A8120103
:1021080040420F008096980010B50446FFF7A2FFE2
:10211800236843F00103236010BD00224FF0FF3114
:10212800FFF7F2BF1A4B10B51A4C5B68236007F033
:102138000FFE4FF0904008F0B5FB174808F0B2FBCF
:10214800164808F0AFFB164809F076F8154809F06C
:1021580073F808F04DFD4FF0E0220023136153613E
:10216800936172B64FF0FF319A0002F1604202F5B6
:1021780061420133082BC2F88010C2F88011F3D1F4
:1021880062B6034B1B6883F3088823689847FEE709
:102198000000FF1F3003002000040048000800482A
:1021A80000380140004400400749084A881AEFF304
:1021B8000883521A1A44013A013B984288BF002208
:1021C800AA2109F031BD00BF0080002000040000F2
:1021D80010B5114C0323204606224021FFF72FFF9C
:1021E800032302224FF400414FF09040FFF727FFEE
:1021F80003231A4620462021FFF721FF2046032308
:1022080005228021FFF71BFF20460323BDE810406D
:1022180005220121FFF713BF00040048024B18698B
:10222800C0F34010704700BF0004004808B5FFF72E
:10223800F5FF00B908BD00BFF9E70000024B012215
:102248009A6280229A61704700040048024B8022FB
:102258009A6201229A61704700040048104A536943
:102268004FF4704123F4704391FAA1F153610D4B7F
:102278005A6822F400425A601A6822F400421A602E
:10228800DA6822F40042DA609A6842F400429A60FE
:10229800054BD02283F828234FF480725A60704788
:1022A800000001400004014000E100E0044B4FF44D
:1022B80000425A611A6842F400421A60704700BF2F
:1022C800000401400348002303224FF48071FFF704
:1022D800B6BE00BF00040048024B1869C0F30020D6
:1022E800704700BF0004004808B5052200230221FA
:1022F8004FF09040FFF7A3FE0023052201214FF085
:102308009040FFF79CFE4FF0904302229A62012210
:102318009A6208BD4FF090414B691A04DB4302F4FE
:10232800003203F0020313438B6170474FF0904172
:102338004B691A04DB4302F4803203F001031343B0
:102348008B61704708B5052200234FF480714FF068
:102358009040FFF774FE4FF090434FF480729A62FA
:1023680008BD4FF090431A284FF48072CCBF9A6191
:102378009A6270470E48C3691A0617D503681B0688
:1023880014D50C4B0C4A1988138889B29BB2994210
:102398000AD013880133DBB213801388074A9BB233
:1023A800D35CDBB283627047FFF7B8B9704700BFF0
:1023B800004400404C2000204A2000204A1F0020F2
:1023C80009490A4A08B50B8812880133DBB292B270
:1023D8009A4207D0064AD05406480B80FFF78CF97A
:1023E800012008BD0020FCE74C2000204A200020E6
:1023F8004A1F00200044004038B504464518AC4246
:1024080000D138BD14F8010BFFF7DAFFF7E70846EB
:102418001146FFF7F1BF000070B588B00C460646BC
:10242800154600212022684609F0FEFB231E18BF2E
:1024380001231B03CDE9023569460C2303480196A5
:102448000494059308F03AFF08B070BD00440040BA
:1024580010B5064C236823F001032360FFF7DCFF67
:10246800236843F00103236010BD00BF004400400F
:1024780013B5374C236823F0010323604FF4003071
:10248800FFF71EF908210123CDE900133148032382
:102498000A22FFF74FFD002211462F48FFF7BCFF25
:1024A800636823F490436360A36823F02A03A3605E
:1024B800236823F0005323604FF0402202F5816324
:1024C80053E8003F23F0604302F5816040E80031A3
:1024D8000029F3D14FF0402202F5816353E8003F11
:1024E80023F0606302F5816040E800310029F3D1F0
:1024F8001A4BC02283F8262340245C601448FFF757
:102508000DF9FFF702F9164B04621980154B198073
:10251800436823F400634360836823F008038360FF
:10252800436823F480434360836823F02203836075
:10253800836843F480538360036843F001030360B6
:10254800C3699A02FCD5C3695B02F9D502B010BD14
:102558000044004000040048A086010000E100E0BB
:102568004A2000204C200020064B1A6822F0010265
:102578001A605A6822F400325A601A6842F001025E
:102588001A6070470044004008B541B14FF400524A
:1025980004484FF48061FFF75BFFFFF7E5FF012078
:1025A80008BD00BFA086010008B531B10022114660
:1025B8000348FFF74DFFFFF7D7FF012008BD00BF15
:1025C8009A5B0600064B1A6822F001021A605A68E4
:1025D80042F400325A601A6842F001021A607047E9
:1025E8000044004008B541B14FF4005204484FF48C
:1025F8008061FFF72DFFFFF7E5FF012008BD00BF51
:10260800A08601001D2820DC1A2807DD022B0CBF3C
:10261800FA20FD201B23087013707047172805DD6A
:10262800022B0CBFF720FA201823F4E7152806DD43
:10263800022B15BFF820F72016231823EBE7022BEF
:102648000CBF18231523F720E5E70A201E23E2E72D
:1026580010B40446084611461A46A3685DF8044BB0
:102668005B7AFFF7CFBF00000C4BD3F8FC2022F0B9
:102678008072C3F8FC20D3F8FC2042F08072C3F8C3
:10268800FC20A3F55D431A6822F001021A601A685B
:1026980042F001021A6000225A60704700ED00E023
:1026A800064A074B51681B6810B5064CB3FBF4F398
:1026B800584353685B1A8342FBD310BD001000E0F7
:1026C8003C00002040420F007FB50123CDE90413F0
:1026D800002201A902A8CDE9022307F0D5FC0028B1
:1026E8000CBF0420052007B05DF804FB014608B5BF
:1026F800002007F033FC00280CBF0420052008BD8B
:1027080008B5FFF7E1FF031F5842584108BD08B557
:10271800FFF7ECFF031F5842584108BD2DE9F34766
:102728002A4B2B4D012814462A482B4A0E4617BF20
:10273800AA463D213C211D46019106BF9A46804686
:10274800904607F0C5FB01992846FFF7D9FF30B935
:10275800002407F0CFFB204602B0BDE8F087002E2A
:1027680008BF4FF4FC64073424F0070405F1100790
:10277800B1463444AAEB050AA1450BD14FF01132FA
:102788004FF0FF332846FFF7C2FF003818BF01207B
:102798008400DEE76EB90AEB0703D3E90023B3F13F
:1027A800FF3F08BFB2F1FF3F06D1083709F108091A
:1027B800E2E7D9E90023F2E7B84505D93846FFF73B
:1027C800A6FF0028F1D1C3E70324C2E700E001080F
:1027D80000E80108FFEF0108FFE7010810B507F05E
:1027E80077FB09483C21FFF78BFF58B107483D218B
:1027F800FFF786FF003818BF0120840007F07AFB36
:10280800204610BD0446F9E700E0010800E8010889
:1028180030B5084D002340F2EF749AB2914201D8C6
:10282800042030BDA34203D05A5DC2540133F4E7FB
:102838000320F6E710E0010813B50A46044672B60D
:10284800019101460020FFF769FF62B60428019A4A
:1028580005D172B601202146FFF760FF62B602B0CB
:1028680010BD000038B5124B1C68D3F80058B4F1FD
:10287800113F09D1B5F1113F17D0002211460120AF
:10288800BDE83840FFF74ABFB5F1113F03D1002238
:1028980011461046F4E7FFF7A1FF042804D12C40A5
:1028A80001340CBF0220012038BD0420FCE700BF22
:1028B80000E00108034B18739A68D207FCD5187B0F
:1028C800704700BF0030014038B5441E8D18A9423A
:1028D80000D138BD14F8010FFFF7ECFF01F8010B28
:1028E800F5E7084611461A46FFF7EEBF38B5064D1C
:1028F80004460144A14200D138BD2878FFF7DAFF29
:1029080004F8010BF6E700BF340000200846114622
:10291800FFF7ECBF10B5014404468C4200D110BD4E
:1029280014F8010BFFF7C6FFF7E708461146FFF753
:10293800F1BF000030B58DB02822002102A809F0AF
:1029480073F94FF48050FEF7C9FE102103230622C5
:102958004FF09040FFF773FB4FF09040062401259D
:10296800102383610A22CDE9004503232021FFF7C4
:10297800E1FACDE9004503230A2280214FF0904077
:10298800FFF7D8FA03231A46CDE9004540214FF056
:102998009040FFF7CFFA1822154C08924FF4827234
:1029A800002303924FF40072CDE90533CDE90933D2
:1029B8000293079207234FF4E06202A920460B9383
:1029C800049208F00FFA636823F0100363606368E9
:1029D80023F008036360236843F040032360A3687F
:1029E8009B07FCD5237B034BFF221A700DB030BD2B
:1029F80000300140340000201C4B10B4DC69A006F4
:102A080011D51A6891060ED519481A495A6A0388C9
:102A180009880133C3F30A0389B299421FBF1649D3
:102A2800D2B2CA54038011481F232206036215D567
:102A380003681B0612D5114B114A1988138889B2ED
:102A48009BB299420DD013880133C3F30903138055
:102A580013880C4A9BB2D35CDBB283625DF8044BEB
:102A680070475DF8044BFEF759BE00BF00380140BF
:102A7800502800204E2800204E200020542C0020F2
:102A8800522C0020522800200A490B4A08B50B880E
:102A980012880133C3F3090392B29A4207D0074A56
:102AA800D05407480B80FEF727FE012008BD002000
:102AB800FCE700BF542C0020522C00205228002094
:102AC8000038014038B504464518AC4200D138BD3D
:102AD80014F8010BFFF7D8FFF7E708461146FFF790
:102AE800F1BF0000054B064A1B8812889B1A98B252
:102AF8001B0444BF00F5006080B2704750280020D6
:102B08004E280020FFF7EEBF0848094A01881388BD
:102B180089B29BB29942F9D013880133C3F30A03EF
:102B280013801388034A9BB2D05C7047502800205A
:102B38004E2800204E200020FFF7E6BF70B588B071
:102B48000C460646154600212022684609F06CF816
:102B5800231E18BF01231B03CDE9023569460C2348
:102B6800034801960494059308F0A8FB08B070BDCB
:102B78000038014010B5064C236823F00103236098
:102B8800FFF7DCFF236843F00103236010BD00BF9B
:102B980000380140002208461146FFF7EBBF00004D
:102BA80073B5464C236823F0010323604FF480403B
:102BB80008250126FEF792FD4FF4007103230A222F
:102BC8004FF09040CDE90056FFF7B4F903231A46B9
:102BD8004FF480614FF09040CDE90056FFF7AAF915
:102BE800002211464FF46140FFF7A8FF6368344A9A
:102BF80023F490436360A36823F02A03A360236847
:102C080023F00053236002F6080353E8003F23F043
:102C1800604302F6080040E800310029F3D102F6CB
:102C2800080353E8003F23F0606302F6080040E819
:102C380000310029F3D1234BB02283F82523202229
:102C48005A601E48FEF76AFDFEF75FFD40230362E7
:102C58001D4B19801D4B1980194901F5006353E874
:102C6800003F23F0200301F5006040E80032002A0D
:102C7800F3D1174B1A80174B1A80104B5A6822F45D
:102C880000625A609A6822F008029A605A6822F430
:102C980080425A609A6822F022029A609A6842F446
:102CA80080529A601A6842F001021A60DA69910249
:102CB800FCD5DA695202F9D502B070BD003801407E
:102CC8000030014000E100E0522C0020542C00208C
:102CD8004E2800205028002008B5FFF761FFBDE806
:102CE8000840FEF7EFBEFFF7F7BF00000E48C369C4
:102CF8001A0618D503681B0615D50C4B0C4A1988FB
:102D0800138889B29BB299420BD013880133C3F35D
:102D1800080313801388074A9BB2D35CDBB2836233
:102D28007047FEF7FBBC704700800040582E00201B
:102D3800562E0020562C00200A490B4A08B50B884D
:102D480012880133C3F3080392B29A4207D0074AA4
:102D5800D05407480B80FEF7CFFC012008BD0020A7
:102D6800FCE700BF582E0020562E0020562C0020CD
:102D78000080004038B504464518AC4200D138BD43
:102D880014F8010BFFF7D8FFF7E708461146FFF7DD
:102D9800F1BF000070B588B00C4606461546002104
:102DA8001C2201A808F040FF231E18BF01231B03A3
:102DB800CDE9033501A90C2303480296059406932F
:102DC80007F06AFE08B070BD008000401FB5374CA0
:102DD800236823F001032360354BDA6D42F00102CA
:102DE800DA65DB6D03F001030393039B01210D23D7
:102DF800CDE900310A22032304214FF09040FFF768
:102E080099F8002211464FF4E130FFF7C3FF236819
:102E180023F00053236004F1080353E8003F23F034
:102E2800604304F1080141E80032002AF3D104F1BB
:102E3800080353E8003F23F0606304F1080242E806
:102E480000310029F3D11B4BB02283F85B234FF0EC
:102E580000629A601548FEF761FCFEF756FC4023B5
:102E68002362154B1980154B1980636823F400639E
:102E78006360A36823F00803A360636823F48043B6
:102E88006360A36823F02203A360A36843F480531C
:102E9800A360236843F001032360C3699A02FCD549
:102EA800C3695B02F9D504B010BD00BF00800040C3
:102EB8000010024000E100E0562E0020582E0020AD
:102EC800FFF784BF054A0649136809680B44136075
:102ED800044A136801331360704700BF5C2E00205A
:102EE80040000020740300200148FFF716B900BF16
:102EF80000040040014B586A80B27047000400404B
:102F0800024B00221A60FFF7EFBF00BF74030020D6
:102F180070B504460D46164606F0DAFF083D04EB88
:102F2800C606B44204D1042406F0E4FF204670BD6E
:102F380055F8082FD4E900016B68994208BF904200
:102F480001D10834EDE72046FFF7E1FB0028F8D16E
:102F58000446E9E71FB503788BB10A4B1B68B3F544
:102F6800FA6F0CD30023002203700023CDE900235D
:102F7800CDE90223406802226946FFF7C9FF05B080
:102F88005DF804FB5C2E00200123F0B50380444B60
:102F9800444AD3E9005104464348914208BF854258
:102FA80085B04FF0000202D1227005B0F0BD3AA101
:102FB800D1E900013D4F6260C3E900013C484FF090
:102FC800AA33D0E90021B1F1FF3F08BFB2F1FF3FBA
:102FD800D0E9026505D0994208BF9A4201D00A4358
:102FE80009D1B5F1FF3F08BFB6F1FF3F0DD09D42B3
:102FF80008BF9E4209D01030B842E2D172B63E21D5
:103008002B48FFF77DFB62B629486060D0E90032A3
:10301800CDE90032B2F1FF3F08BFB3F1FF3FD0E97D
:10302800025109D1B1F1FF3F08BFB5F1FF3F22D1ED
:103038004FF0AA331A4623E04FF0AA36B24208BF2F
:10304800B3420BD1B1F1FF3F08BFB5F1FF3F0FD03D
:10305800B14208BFB5420ED10023EBE753EA02079D
:1030680009D1B14208BFB54205D14FF48071218022
:103078001D46114604E0002323701A461D461946D2
:10308800CDE90032CDE9025102226946FFF740FF3F
:103098008BE700BFAFF3008012345678FEDCBA909D
:1030A80020000020FEDCBA901234567800F801089F
:1030B80000F001080A490B8803B9FEE772B64FF021
:1030C800804309885A6A114464325963DA636FF09D
:1030D80002021A616FF008021A6162B6704700BFF7
:1030E8008400002000B5032289B04FF0FF314FF073
:1030F8008040FFF709F820220021684608F094FD77
:1031080064236A4601214FF08040039307F000FFD3
:10311800C8236A464FF480714FF08040039307F04C
:10312800F7FE054BA02283F81C234FF080521A604B
:1031380009B05DF804FB00BF00E100E04FF08043F8
:10314800DA6842F00202DA60DA6842F00802DA600D
:103158007047000010B501EB8101084B01EB8101BC
:1031680089001980064B044600221A70FFF7BAFF3F
:103178002046BDE81040FFF7E1BF00BF84000020F3
:103188006F0300204FF080431A6991070AD56FF04A
:1031980002021A615A6B6432DA63084A596B128860
:1031A8000A445A634FF080431A69120705D56FF035
:1031B80008021A61024B01221A707047840000202D
:1031C8006F03002038B5194C90220021201D08F00B
:1031D8002BFD06232380162363800F231449A38025
:1031E80005222C23A01DFEF777F8124A10494FF448
:1031F80080330025C4E90D2304F13E002C23052269
:10320800A587FEF769F80C4B0C49E36604F17A00D0
:1032180084F870506567A4F8785008F05FFD7F2344
:1032280084F88F30052384F8903038BD9C02002044
:1032380010C300080200010002000700FFBE0008DA
:1032480070B5094E05460C46415C304608F003FD52
:10325800034628B1831B0133DBB2282B28BF002388
:10326800F35C2B5570BD00BF24C3000870B50C4635
:103278001146064608F032FD44B1002505213046C6
:103288000135FFF7DDFFEBB29C42F7D870BD0000B7
:1032980073B5054605F111061D4C1E4A0146360157
:1032A8006846FFF7E3FFB01C69462044264408F04F
:1032B80015FD04EB0512022373720023A2F81A31DC
:1032C800142202FB05400421012280F850104FF41B
:1032D8008071A0F84A20C264A0F85410A16284F852
:1032E800303040F20321C4F83A30C4F83E30C4F814
:1032F800423040F20113A0F85220E284A18584F8FC
:103308002E20A4F84630A4F8483002B070BD00BFA3
:10331800E0000020B0BE0008F7B50546B04CB14A41
:1033280005F11106014637016846FFF79FFFB81CF3
:10333800274469462044FDF7E3FE7B7AAA4A052B19
:1033480088BF022304EB061088BF7B721188437A7A
:1033580041FA03F3DF070FD40223437261B1480730
:10336800C1F3800308D441FA03F7FF07D8B240F14C
:10337800C98104EB0613587204EB05112B0191F86F
:103388001A01042802D9002081F81A01E718508888
:1033980097F81A1140FA01F1C90711D4012187F8E9
:1033A8001A1168B18707C0F3400109D440FA01FC3B
:1033B8001CF0010FCFB200F0AA81E11881F81A7150
:1033C800E11891F81B01032802D9002081F81B019C
:1033D800E718908897F81B1140FA01F111F00101E4
:1033E8000FD187F81B1160B110F0010109D140FA23
:1033F80001FC1CF0010FCFB200F08E81E11881F8BA
:103408001B7104EB0616717A012905D904291EBF20
:103418001B19002183F81B11142303FB054191F8A4
:103428004A00042802D9012081F84A0003FB054319
:1034380093F84B10042902D9002183F84B10142368
:1034480003FB0543918E93F84B0041FA00F0C00747
:1034580012D4012083F84B0071B18807C1F34003EF
:103468000AD441FA03F6F707D8B240F15A81142377
:1034780003FB054383F84B00142303FB054393F830
:103488004C10032902D9012183F84C10142000FBA9
:103498000540D18E90F84C3041FA03F313F0010344
:1034A80010D180F84C3069B111F001030AD141FA0A
:1034B80003F6F607D8B240F13981142303FB05431C
:1034C80083F84C00142303FB054393F84E1001299D
:1034D80002D9002183F84E10142000FB0540118FFB
:1034E80090F84E3041FA03F313F0010310D180F83D
:1034F8004E3069B111F001030AD141FA03F6F7071A
:10350800D8B240F11881142303FB054383F84E0019
:10351800142303FB054393F84F10022902D9002115
:1035280083F84F10142000FB0540518F90F84F305E
:1035380041FA03F313F0010310D180F84F3069B159
:1035480011F001030AD141FA03F6F607D8B240F1A7
:10355800F780142303FB054383F84F00142303FB70
:10356800054191F84D00022802D9002081F84D004C
:1035780003FB054393F85010052902D9042183F869
:103588005010142303FB054191F85200012802D979
:10359800012081F8520003FB054393F855100129D7
:1035A80002D9012183F85510142303FB054393F82E
:1035B8005310022902D9002183F85310142000FB6C
:1035C8000540918F90F8533041FA03F313F001034B
:1035D80017D180F85330A1B111F0010311D105E0E2
:1035E800E0000020B0BE00089C02002041FA03F66B
:1035F800F707D8B240F1A980142303FB054383F8E9
:103608005300142303FB054191F85400022802D902
:10361800002081F8540003FB054393F84C1001295E
:1036280006D193F84F10022904BF002183F84F10E8
:1036380094F82630042B02D9012384F8263094F814
:103648002730042B02D9002384F82730B2F86C0005
:1036580094F8273040FA03F313F0010F694B0ED1A9
:10366800012184F8271050B18607C0F3400106D421
:1036780040FA01F7FF07CEB26CD583F8276094F8BB
:103688002810022902D9002184F8281094F829105A
:10369800022902D9012184F82910B2F86E1094F891
:1036A800292041FA02F212F001020CD184F82920F3
:1036B80049B111F0010206D141FA02F6F607D0B27B
:1036C8004CD583F8290094F82A200C2A02D9002224
:1036D80084F82A2093F832200C2A02D9002283F891
:1036E800322093F82B20042A02D9002283F82B20B9
:1036F80000224549104611F9014F14F1780F31DACB
:10370800087031E00133102B7FF42DAE34E601311F
:1037180010297FF44BAE53E6013110297FF467AED0
:103728006FE60133102B7FF49CAEA5E60133102B16
:103738007FF4BDAEC6E60133102B7FF4DEAEE7E6BC
:103748000133102B7FF4FFAE08E70133102B7FF411
:103758004DAF56E7013110298AD190E70132102A7E
:10376800AAD1B0E7782CCBDC0132D2B20C2AC2D174
:1037780026490022012011F8014F0132022CD2B251
:1037880088BF0870042AF6D193F82C20052A02D99C
:10379800032283F82C2093F82D20032A02D9022231
:1037A80083F82D2093F82E20022A02D9012283F8CB
:1037B8002E2093F83020022A02D9002283F83020E4
:1037C800142101FB0530FF2203EB051480F851207A
:1037D80083F82F2083F831204FF6FF704FF0FF3227
:1037E800C4F81C21A4F82001562411FB05415C18DB
:1037F8001A629A845A50626083F833005A631A87AF
:1038080003B0F0BDE00000201901002025010020D0
:1038180030B5042804D8DFE800F01E0423191E0080
:10382800FEE720251F2400220F21104B9870033833
:10383800012894BF002001201A7119771A74A3F87F
:103848004850A3F84A409873987630BD09256F24EC
:1038580000220721E9E71425322400220A21E4E79F
:103868003525132401221921DFE700BF8800002035
:103878002DE9F04300F111065E4F5F4C360106F169
:103888000209B94485B005464846FDF755FC0421B0
:103898008046039003A8FDF781FF97F82620574B31
:1038A800E08313F9223023733E442376544B236577
:1038B800737AC4F808802E0107EB0515C4F8148044
:1038C80095F81A0163704FF0000884F85480FFF7E8
:1038D8009FFF4C4A63781288A285E28B63736376F4
:1038E80084F82830626284F82A8023B94846FDF7B4
:1038F80043FC84F82A003E4496F81B2184F82920CA
:103908006AB1E18B02EB021303EB03230B44E3835D
:10391800A3684FF0113101FB0233A360636194F88F
:103928002830052B04D8DFE803F0044345393B4130
:10393800FEE7A378032B03D8DFE803F0033E400338
:10394800FEE7182507EE905A2F4E84F82050F8EE1F
:10395800E77A16E90F00B7EE087A67EE877A86E805
:103968000F00FCEEE77A40F2E243CDED017AA4F8CD
:103978004C309DF80430B4F84820A4F84E304FF489
:103988007A73B3FBF2F3A4F8403097F82C30052B88
:1039980024D8DFE803F0152C202326290225D1E7B7
:1039A800A378012B08D0022B08D0FEE70325C9E72E
:1039B8001925C7E70625C5E71225C3E70C25C1E782
:1039C8004FF416536364002384F85530A4F8563036
:1039D80005B0BDE8F0834FF41643F3E74FF46143B5
:1039E800F0E74FF4E133EDE74FF46133EAE74FF4E2
:1039F8009643E7E7E00000208800002010C3000895
:103A0800010100019C020020B800002002484FF488
:103A1800DE72FF2108F008B9E000002002484FF4E8
:103A2800DE71FEF709BF00BFE000002002484FF436
:103A3800DE71FEF7EDBE00BFE000002008B5FFF71D
:103A4800F5FF034B1878BDE80840FFF765BC00BFD9
:103A58008800002070B5FFF7D9FFFEF703FF0428A0
:103A68000CD0FFF7D3FFFEF7FDFE042803D1FFF7C4
:103A7800DDFF042806D0FFF7C9FF03E0FFF7D6FFF4
:103A88000428EED146494748464C102208F0F0F881
:103A980038B145491022204608F0EAF808B1FFF786
:103AA800B5FFA38A40F24F12934266D0B3F5A47FC4
:103AB80035D83E49062201F1FC00FDF744FC637F3E
:103AC80084F81931A37F84F81A3101252846013575
:103AD800EDB2FFF7DDFB0A2DF8D10023E37740F2C2
:103AE8004F13A382012522692D492E4842F63D0332
:103AF8009A424FF010021CBF2361012508F0B8F864
:103B080000283CD0264927481022FDF70AFC2849FE
:103B180028480822FDF705FCFFF780FF31E0B3F5E0
:103B2800A77F22D81F4B002203250121022693F8E4
:103B38004C0001280DD003280ED093F84F0001281F
:103B48000DD002280ED001320A2A03F11403EED157
:103B5800C5E783F84C50F0E783F84C10EDE783F89D
:103B68004F60F0E783F84F10EDE70025E8B2013524
:103B7800FFF78EFB0A2DF9D1AFE70025B3E7002D3B
:103B8800CAD10023E3770C4C2370FFF71BFB207886
:103B9800FFF7C2FB2078BDE87040FFF769BE00BFA1
:103BA800B7BE0008E0000020C8BE0008F6000020EC
:103BB800D9BE000892020020880000200129F7B52C
:103BC800054600D9FEE70F4E06EB01131C460F0110
:103BD8006278F15D03619B7807F0AEFDE678E379E2
:103BE8000193A3790093314628466379227907F037
:103BF800B8FD06EB4606B108284603B0BDE8F0401C
:103C080007F007BF54D8000838B50246044652F8F2
:103C1800183BDD6900F11903A847217E20460022E0
:103C2800BDE8384007F0FFBD70B58160897A88B07B
:103C3800044601B1012107F05AFD01230DF11F02CD
:103C480040F6D801204607F0B0FC9DF81F3043F03D
:103C58001E0340F6D8018DF81F300DF11F02012315
:103C6800204607F06CFC204607F0B5FE217BFF29B3
:103C780003D0FA22204607F0BAFEA3685B7A013B1C
:103C8800042B04D8DFE803F0043E41413E00FEE780
:103C9800E922E121204607F003FF0121204607F031
:103CA80077FE9621204607F0DFFE3821204607F0F0
:103CB800E2FE204607F0E6FEA368204693F90810C6
:103CC800FFF7A2FFA3689D7A15B319782046FFF77E
:103CD80075FF00221146204607F021FD00230093BE
:103CE80040F2032220464FF6FF7107F069FD204697
:103CF8004FF6FF7107F08BFD204608B0BDE8704015
:103D080007F056BEDB22D721C4E76F226B21C1E73B
:103D18000F4B1049DE8B104B63614CF2503300930C
:103D2800204619230B2207F0CBFE0123CDE90333EC
:103D38005B23CDE901531023194620460095042240
:103D480007F0F0FE3146204607F010FFC1E700BF3C
:103D580088000020A086010034D8000810B5044669
:103D680007F026FE20464FF6FF71BDE8104007F029
:103D78004EBD000038B58168036891F90810DD6907
:103D8800044600F1190300F11802A847A3689A7ABB
:103D980042B11A78012A00D9FEE7044B03EB02135B
:103DA800236138BD024B6361FBE700BF54D80008AC
:103DB80034D80008036910B504461BB943690BB928
:103DC800FFF7D8FF94F9190010BD000090F8D8301B
:103DD8005BB190F8D930074A180102EB03139B68CE
:103DE8001978135853F821007047837D0E3350F823
:103DF80023007047B0C2000813B5194B0288DB8B4B
:103E08009A42044627D1837813F0D00F25D18379BD
:103E1800812B22D84FF6FF730D2201460DF10600C3
:103E2800ADF80630FDF7A0FCB4F80D20BDF806305B
:103E38009A420ED14C2204F10D01FDF795FCB4F81D
:103E48005900BDF80630C01A18BF0120800002B022
:103E580010BD0320FBE70120F9E70220F7E700BFC8
:103E6800880000200A7ACB7902F0070243EA02238D
:103E780003804B7A0A7A03F03F035B0143EAD203DB
:103E880043808B7A4A7A9B0043EA9213CA7A02F0FB
:103E9800010243EA822383800B7BCA7A03F00F0373
:103EA800DB0143EA5203C3800B7BC3F30112012AEF
:103EB80011D813F0300F14BF012300239B02038392
:103EC8000B7B7F2B0AD813F0C00F14BF01230023EC
:103ED8009B024383704740F2FF73F0E740F2FF73A1
:103EE800F7E70A7ACB7902F0070243EA0223038054
:103EF8004B7A0A7A03F03F035B0143EAD20343801B
:103F08008B7A4A7A9B0043EA9213CA7A02F001023A
:103F180043EA822383800B7BCA7A03F00F03DB0119
:103F280043EA5203C3800A7CCB7B02F0070243EAD0
:103F3800022303814B7C0A7C03F03F035B0143EAC5
:103F4800D20343818B7C4A7C9B0043EA9213CA7C50
:103F580002F0010243EA822383810B7DCA7C03F0CD
:103F68000F03DB0143EA5203C3814B7DDB0003826D
:103F78008B7DDB004382CB7DDB0083820B7EDB0005
:103F8800C3820B7BC3F30112012A2BD813F0300F25
:103F980014BF012300239B0203830B7B7F2B24D8B0
:103FA80013F0C00F14BF012300239B0243830B7D32
:103FB800C3F30112012A1BD813F0300F14BF0123D9
:103FC80000239B0283830B7D7F2B14D813F0C00F33
:103FD80014BF012300239B02C3834FF4806303842F
:103FE8004384704740F2FF73D6E740F2FF73DDE782
:103FF80040F2FF73E6E740F2FF73EDE737B5214B78
:10400800DB8B03804A78837862F3C30383704A7931
:10401800C37862F30003C3708A79437962F3861325
:104028004371044691F902000D46FCF77AFFE378E4
:1040380060F34703E370EA78237962F30603237198
:104048002A79DBB202F0010203F07F0343EAC213CC
:1040580023712A796379C2F3450223F03F0313439E
:10406800637159224FF6FF7321460DF10600ADF832
:104078000630FDF779FBBDF80630A4F8593003B0D7
:1040880030BD00BF880000202DE9F3419DF8206075
:104098001546522E88464FF05B024FF00001044649
:1040A8001F4628BF522607F0BFFD2D4BDB8B238010
:1040B8002A78A37862F30203A3706A78D20002F028
:1040C8000802DBB242EA081103F007031943A170A2
:1040D8006A79E37862F30003E370AA79637962F39B
:1040E8008613637195F90200FCF71BFFE37860F310
:1040F8004703E370EA78237962F3060323712A7988
:10410800DBB202F0010203F07F0343EAC21323711A
:104118002A796379C2F3450223F03F03134363719D
:10412800A379224666F3470302F8063F3E443B461E
:10413800B34210D14FF6FF73592221460DF1060004
:10414800ADF80630FDF710FBBDF80630A4F859307D
:1041580002B0BDE8F08113F8011B02F8011FE7E780
:104168008800002007B5009313460A460121FFF78F
:104178008BFF03B05DF804FB30B5314B027893F840
:10418800261061F30302027093F8271061F30712F7
:10419800027093F82810427861F30302427093F892
:1041A800291061F30712427093F82A10827861F39C
:1041B8000302827093F83210827961F303028271EC
:1041C80093F82B10827861F30712827093F82C1001
:1041D800C27861F30302C27093F82D1061F30712DD
:1041E800C27093F82E10027961F30302027193F8FA
:1041F8003010427961F30302427103F1390100F191
:104208000A0200F1160411F9015F02F8015FA242E7
:10421800F9D193F84610C27D61F30102C27593F893
:10422800471061F38302C27593F8481061F30512D1
:10423800C27593F8493063F38712C27530BD00BF69
:10424800E000002002782C4BC2F3030230B583F85B
:1042580026200278C2F3031283F827204278C2F39B
:10426800030283F828204278C2F3031283F8292036
:104278008278C2F3030283F82A208279C2F3030208
:1042880083F832208278C2F3031283F82B20C27895
:10429800C2F3030283F82C20C278C2F3031283F816
:1042A8002D200279C2F3030283F82E204279C2F34B
:1042B800030283F8302003F1390100F10A0200F10A
:1042C800160412F9015F01F8015FA242F9D1C27D1B
:1042D800C2F3010283F84620C27DC2F3810283F84B
:1042E8004720C27DC2F3011283F84820C27DC2F381
:1042F800811283F8492030BDE000002070B55226B5
:1043080098B0324604460D4603A8002107F08CFCFD
:10431800212342F63D008DF80C30FCF7F1FF1D49D2
:10432800ADF80E0040F24F1314220DF11200ADF853
:104338001030FCF7F6FF1848FFF73CFD174B8DF8D7
:10434800260093F850308DF827300AA8FFF714FF9D
:104358004FF68073ADF84630114A124BCDE912235F
:104368006FF08023149347F6FF73ADF854300E4B6B
:10437800B3F86C20B3F86E308DF856208DF85730AE
:10438800009603AB2A4602212046FFF77DFE18B0AF
:1043980070BD00BFDFBE0008001E0020880000209E
:1043A8009600FA00F401E8039C02002038B5104D8D
:1043B800044600F11B01062205F58970FCF7C3FFCE
:1043C80094F82130C3F3030385F8193194F82130A8
:1043D800C3F3031385F81A3194F82230C3F30303A7
:1043E80085F81B3104F12500BDE83840FFF72ABFE6
:1043F800E00000200A4A126882600A4A002383808B
:10440800837183810384136803615368064A436197
:10441800136883615368C3614EF660230360704775
:104428005C2E0020EEBE0008F7BE000810B5104C48
:104438000220FFF7EDF92046FFF790FC20466FF0C9
:104448007F01FFF7E1FB0021204607F039F94FF41F
:104458007A70FEF725F92046012107F048F9A3688C
:1044680020461978FFF7AAFB2046FFF777FC10BD16
:10447800001E002008B590F8203002468BB9FDF7E1
:104488002BFF10B982F8210008BD92F821300133C2
:104498005BB2312B82F82130F6DD012382F820301F
:1044A800F2E7FDF719FF18B1322382F82130EBE764
:1044B80092F82130013B5BB2002B82F82130D8BF43
:1044C80082F82000E0E700000A4B90F820201B68E3
:1044D80072B182689B1AB3F57A6F01D901234371CF
:1044E800037923B9437913B1012303710373704727
:1044F8008360F5E75C2E0020037B9A1E012A4FF0AB
:10450800000202D890F8201011B9027318467047BB
:104518001346FBE70A4A38B5138801339BB2502B80
:1045280004460D4601D8138038BD00230549138081
:10453800FDF762FC29462046FDF75EFCF4E700BF64
:104548007803002000BF00082DE9F84F15460446FF
:104558000F467749FDF750FC29462046FDF74CFCED
:10456800744B0022012F1A804FF0904610D102237D
:10457800B362B76146F2A810FEF792F8B76246F246
:10458800A810FEF78DF829462046FFF7C3FFF0E78D
:10459800BB1E01220C2B00F2BE80DFE803F0374A75
:1045A8005E1F07BCBCBC7171717171004FF0904601
:1045B8004FF001080227C6F8188046F2A810B76223
:1045C800FEF76EF8C6F8288046F2A810B761FEF725
:1045D80067F829462046FFF79DFFEBE74FF0904626
:1045E8004FF001080227C6F8188046F2A810B761F4
:1045F800FEF756F8C6F8288046F2A810B762FEF70C
:104608004FF829462046FFF785FFEBE7B2620227FD
:104618004FF09046B76146F2A810FEF741F8B7622E
:1046280046F2A810FEF73CF829462046FFF772FF2D
:10463800F0E70223B36101274FF09046B76146F2D5
:10464800A810FEF72DF8B76246F2A810FEF728F872
:1046580029462046FFF75EFFF0E7B26102274FF0D8
:104668009046B76146F2A810FEF71AF8B76246F20C
:10467800A810FEF715F829462046FFF74BFFF0E78C
:10468800A7F1090A5FFA8AFA00264FF00109564590
:104698003EBF4FF0904302229A614FF004084FF05A
:1046A800904B46F2A810CBF81890FDF7F9FF46F2A8
:1046B800A810CBF82890FDF7F3FF08F1FF3829463A
:1046C8002046FFF727FF18F0FF08EAD10223CBF8AE
:1046D80028304FF004084FF0904B46F2A810CBF862
:1046E8001890FDF7DDFF46F2A810CBF82890FDF7EB
:1046F800D7FF08F1FF3829462046FFF70BFF18F0CF
:10470800FF08EAD10136A7F10803F6B2DBB2B342DB
:1047180038BF0026BBE70223B261B3614CF25030C8
:10472800FDF7BEFF29462046FFF7F4FEF6E700BF77
:1047380000BF00087803002010B50446084694F925
:1047480001308B4201D1237823B901232370FDF76F
:1047580008FE607010BD00001FB50C4670B908480F
:1047680001930DF10E020DF10F0107F0CBF8019B3B
:104778009DF80E100248224606F073FF04B010BDE3
:10478800001E002038B515461C46A8B9FDF756FD91
:104798002B460A4601460A4806F03CFF08484FF6F1
:1047A800FF7107F034F80648A10107F049F8BDE8A1
:1047B80038407D20FDF774BF0148FFF7CFFA38BDB8
:1047C800001E00202DE9F041184C05465B270E46D7
:1047D8003A460021204607F027FAAB692360EB69C7
:1047E8006360134B13491B789A1E53425341627AF4
:1047F80063F3000262723D22A27228220023E27251
:1048080004F10E00142223736373FCF78AFD592107
:104818002046FCF7C3FF084BA4F859003A46214646
:1048280030461B7FBDE8F041FFF7ACBF8D1C002070
:104838006A030020DFBE00088800002037B50C4658
:10484800A8B9124883689D7A9DB101F1A2020DF1C1
:10485800060107F041F8BDF90630002B10DB4FF6D2
:10486800FF73ADF80630BDF8063084F8A03003B009
:1048780030BD0DF1060107F08AF984F8A250EAE785
:104888007F33F0DA4FF68173EBE700BF001E00209C
:104898000A4608B501460148FFF756FE2C000020DD
:1048A80000B591B00446684616461D4607F016FA4C
:1048B8001849684607F0C0F9304606F0D9FD0146A8
:1048C800684607F0B9F91449684607F0B5F9134B7B
:1048D800684653F82510124D07F0AEF9114968469D
:1048E80007F0AAF99DF84830684655F8231007F0F4
:1048F800A3F90D49684607F09FF99DF84C306846C2
:1049080055F8231007F098F908486A462146FFF73A
:104918001BFE00BF02BF000809BF000800000020FE
:10492800100000200EBF000815BF00082C00002052
:10493800024608B501480021FFF706FE2C000020BA
:104948000023FF22037043708370C27003717047A5
:10495800C17829B9837801710133837001207047C8
:104968000378012B1DD0022B05D08BB98278013238
:1049780082700371F2E7827843785340DB0703D4EF
:10498800013282700023F4E7FF2903D10023037169
:104998000020704703790133DBB299420371EFD3EA
:1049A800F6E7FF29F2D002790132D2B291420271C0
:1049B800EED282780132827000220271CEE70000C6
:1049C80030B51C4C85B00E2200210546684607F01C
:1049D8002BF9B4F8A030ADF800302046FCF752FAB5
:1049E8008DF802002046FCF744FAB4F8A4308DF89C
:1049F80003001148ADF80430FFF7DCF994F8A6304D
:104A08008DF8073094F8A7308DF80830B4F8A8303E
:104A1800ADF80A30094B8DF806009B788DF80C30FC
:104A28006946012328468DF80D3004F0AEFC05B028
:104A380030BD00BF441D0020001E0020880000205B
:104A48000148FEF737BB00BF431D0020F8B5154DE0
:104A58000E4607465B232946304614462A46FFF78A
:104A68007BFED7E9041328686A689A4208BF88421F
:104A780009D0002430460C49FFF7E0FE002C0CBF9B
:104A880001200320F8BD59212846FCF787FEB5F818
:104A980059308342EDD114B1FFF7D2FFEAE7012480
:104AA800E8E700BF391E0020441D002013B501218E
:104AB80004460844FCF772FEA178ADF806000DF133
:104AC8000600FCF745FEE178FCF742FE2179FCF789
:104AD8003FFE6179FCF73CFEA179FCF739FE04F151
:104AE80008010322FCF740FE627804F10C01FCF790
:104AF8003BFE94F82311FCF72BFEBDF80630A4F812
:104B08000C3102B010BD00000038024B18BF012064
:104B1800187070473403002030B5002A40F0128125
:104B2800042B00F2E781002B00F0098191F800C006
:104B3800834C10F80C2094F81BE022EA0E0200F8CF
:104B48000C20E27E5208E27652B90A7801320A70E5
:104B58008022E2760A784FF0FF0C00F802C0E27E6D
:104B680091F800E010F80EC02CEA020200F80E20BE
:104B7800E27E5208E27652B90A7801320A7080223F
:104B8800E2760A784FF0FF0C00F802C0E27E91F856
:104B980000E010F80EC02CEA020200F80E20E27EB7
:104BA8005208E276002A00F0AD82012B00F0C7809F
:104BB80091F800C094F81BE010F80C2022EA0E02CD
:104BC80000F80C20E27E5208E27652B90A780132E7
:104BD8000A708022E2760A784FF0FF0C00F802C0D3
:104BE800E27E91F800E010F80EC02CEA020200F80C
:104BF8000E20E27E5208E27652B90A7801320A7033
:104C08008022E2760A784FF0FF0C00F802C0E27EBC
:104C180091F800E010F80EC02CEA020200F80E200D
:104C2800E27E5208E2764AB90A7801320A70802296
:104C3800E2760A784FF0FF0C00F802C0022B7ED013
:104C480091F800C094F81BE010F80C2022EA0E023C
:104C580000F80C20E27E5208E27642B90A78013266
:104C68000A708022E2760A78FF258554E27E91F860
:104C780000E010F80EC02CEA020200F80E20E27ED6
:104C88005208E27642B90A7801320A708022E27646
:104C98000A78FF258554E27E91F800E010F80EC0EE
:104CA8002CEA020200F80E20E27E5208E2763AB9B7
:104CB8000A7801320A708022E2760A78FF25855444
:104CC800042B3CD10A7894F81BC0835C23EA0C03BC
:104CD8008354E37E5B08E37643B90B788022013383
:104CE8000B70E2760B78FF22C254E37E91F800C085
:104CF80010F80C2022EA030300F80C30E37E5B086E
:104D0800E37643B90B78802201330B70E2760B7897
:104D1800FF22C254E37E91F800C010F80C2022EA6A
:104D2800030300F80C30E37E5B08E3763BB90B78AD
:104D3800802201330B70E2760B78FF22C25430BD1B
:104D480088050020FF2AFAD1032B00F2E981002B05
:104D5800F5D091F800E0664C10F80EC0E57E2CEA1C
:104D6800050C00F80EC094F81BC04FEA5C05E57608
:104D78003DB90D7801350D708025E5760D784255E1
:104D8800E57E91F800E010F80E2022EA050200F80E
:104D98000E20E27E5208E27642B90A7801320A70A1
:104DA8008022E2760A78FF258554E27E5208E27670
:104DB80042B90A7801320A708022E2760A78FF2521
:104DC8008554E27E91F800E010F80EC02CEA020249
:104DD80000F80E20E27E5208E276002A00F079827E
:104DE800012BACD091F800C0E57E10F80C2022EA27
:104DF800050200F80C20E27E5208E27642B90A78F1
:104E080001320A708022E2760A78FF258554E27E14
:104E180091F800E010F80EC02CEA020200F80E200B
:104E2800E27E5208E27642B90A7801320A7080229C
:104E3800E2760A78FF258554E27E5208E27642B986
:104E48000A7801320A708022E2760A78FF258554B2
:104E5800E27E91F800E010F80EC02CEA020200F899
:104E68000E20E27E5208E2763AB90A7801320A70D8
:104E78008022E2760A78FF258554032B7FF45FAF02
:104E88000A78E57E835C23EA05038354E37E5B08A6
:104E9800E37643B90B78802201330B70E2760B7806
:104EA800FF22C254E37E0D78425D22EA0303435594
:104EB800E37E5B08E37643B90B78802201330B70FD
:104EC800E2760B78FF22C254E37E5B08E37643B9AF
:104ED8000B78802201330B70E2760B78FF22C254E4
:104EE800E37E0D78425D22EA030343551BE700BFCA
:104EF8008805002091F800C0884C10F80C2094F820
:104F08001BE022EA0E0200F80C20E27E520803F5AC
:104F1800C063E2763AB90A7801320A708022E276F2
:104F28000A78FF25855491F800C094F81BE010F822
:104F38000C2022EA0E0200F80C20E27E5208E276EB
:104F48003AB90A7801320A708022E2760A78FF2597
:104F58008554E27E5208E2763AB90A7801320A703C
:104F68008022E2760A78FF258554E27E5208E276AE
:104F78003AB90A7801320A708022E2760A78FF2567
:104F8800855491F800C094F81BE010F80C2022EA30
:104F98000E0200F80C20E27E5208E2763AB90A784E
:104FA80001320A708022E2760A78FF2585541D06B0
:104FB80008D491F800C0E57E10F80C2022EA05021A
:104FC80000F80C20E27E5208E2763AB90A780132FB
:104FD8000A708022E2760A78FF2585545A0608D49A
:104FE80091F800C0E57E10F80C2022EA050200F8CE
:104FF8000C20E27E5208E2763AB90A7801320A7049
:105008008022E2760A78FF2585549D0608D491F817
:1050180000C0E57E10F80C2022EA050200F80C20FA
:10502800E27E5208E2763AB90A7801320A708022A2
:10503800E2760A78FF258554DA0608D491F800C08C
:10504800E57E10F80C2022EA050200F80C20E27E2A
:105058005208E2763AB90A7801320A708022E2767A
:105068000A78FF2585541D0708D491F800C0E57E0D
:1050780010F80C2022EA050200F80C20E27E520803
:10508800E2763AB90A7801320A708022E2760A7822
:10509800FF2585545A0708D491F800C0E57E10F81A
:1050A8000C2022EA050200F80C20E27E5208E27683
:1050B8003AB90A7801320A708022E2760A78FF2526
:1050C80085549D0708D491F800C0E57E10F80C209F
:1050D80022EA050200F80C20E27E5208E2763AB98C
:1050E8000A7801320A708022E2760A78FF25855410
:1050F800DB073FF518AE0A78E57E835C23EA0503F3
:10510800835410E60A7801320A708022E2760A781F
:105118004FF0FF0C00F802C047E500BF88050020EB
:105128000D78704C10F805C094F81BE02CEA0E0CB2
:1051380000F805C094F81BC04FEA5C0503F5E0636E
:10514800E57635B90D7801350D708025E5760D7851
:1051580042550D7894F81BC0425D22EA0C02425574
:10516800E27E5208E2763AB90A7801320A70802261
:10517800E2760A78FF258554E27E5208E2763AB94B
:105188000A7801320A708022E2760A78FF2585546F
:10519800E27E5208E2763AB90A7801320A70802231
:1051A800E2760A78FF258554E27E5208E2763AB91B
:1051B8000A7801320A708022E2760A78FF2585543F
:1051C8001A0606D40D7894F81BC0425D22EA0C0238
:1051D8004255E27E5208E2763AB90A7801320A70FC
:1051E8008022E2760A78FF2585545D0606D40D787C
:1051F80094F81BC0425D22EA0C024255E27E520836
:10520800E2763AB90A7801320A708022E2760A78A0
:10521800FF2585549A0606D40D7894F81BC0425D84
:1052280022EA0C024255E27E5208E2763AB90A783E
:1052380001320A708022E2760A78FF258554DD065D
:1052480006D40D7894F81BC0425D22EA0C02425540
:10525800E27E5208E2763AB90A7801320A70802270
:10526800E2760A78FF2585541A0706D40D7894F853
:105278001BC0425D22EA0C024255E27E5208E276E9
:105288003AB90A7801320A708022E2760A78FF2554
:1052980085545D0706D40D7894F81BC0425D22EA58
:1052A8000C024255E27E5208E2763AB90A78013297
:1052B8000A708022E2760A78FF2585549A073FF51E
:1052C8000BAF0D7894F81BC0425D22EA0C024255E0
:1052D80002E70A7801320A708022E2760A78FF250E
:1052E80085547DE5880500202DE9F0479C4C8025F4
:1052F80000270F70E576FF2505709846002B00F013
:105308002C8103F1FF3952FA89F9561EBA463B46F9
:105318000BE0554540F0C0800137FFB20A7842459E
:1053280080F0B3804E4500F0078116F8015F002B2E
:10533800EFD16B1EDBB2FD2B00F2AA803F2B40F2AF
:10534800E18005F14103DBB23F2B00F2AC80E37E44
:1053580001355B08EDB2E376002B00F0E4805B08D2
:10536800E37643B90B7801330B708023E3760B782F
:10537800FF22C254E37EAA0608D491F800C010F8B0
:105388000C2022EA030300F80C30E37E5B08E37686
:1053980043B90B7801330B708023E3760B78FF2237
:1053A800C254E37EEA0608D491F800C010F80C2035
:1053B80022EA030300F80C30E37E5B08E37643B986
:1053C8000B7801330B708023E3760B78FF22C254ED
:1053D800E37E2A0708D491F800C010F80C2022EACE
:1053E800030300F80C30E37E5B08E37643B90B78DF
:1053F80001330B708023E3760B78FF22C254E37EDF
:105408006A0708D491F800C010F80C2022EA0303B8
:1054180000F80C30E37E5B08E37643B90B78013380
:105428000B708023E3760B78FF22C254E37EAA0731
:1054380008D491F800C010F80C2022EA030300F801
:105448000C30E37E5B08E37643B90B7801330B70CD
:105458008023E3760B78FF22C254E37EEA0705D463
:105468000D78425D22EA03034355E37E5B08E37649
:10547800BBB90A7801320A708022E2760A78FF25E1
:1054880085540A784245FFF44DAF0020BDE8F08707
:105498000127AA463B4641E73B465246FFF73CFBFD
:1054A80047E700233AE70A7894F81BC0835C23EAAD
:1054B8000C038354E37E3F355B08EDB2E37643B9D2
:1054C8000B7801330B708023E3760B78FF22C254EC
:1054D800E37E5B08E37643B90B7801330B708023D6
:1054E800E3760B78FF22C254E37E6A063FF537AFB6
:1054F80091F800C010F80C2022EA030300F80C30E1
:10550800E37E2CE7E37E7F355B08EDB2E376002B84
:10551800EED10B7801330B708023E3760B78FF22F2
:10552800C254E37EE4E70B7801330B708023E37603
:105538000B78FF22C254E3E75BB9E37E802B1EBFE2
:105548000132D2B20A70904594BF00200120BDE814
:10555800F0873B465246FFF7DFFA0A78EDE700BFCF
:10556800880500202DE9F04F47F26F730022827002
:1055780003800B78A3F1FE03B3FA83F35B0983700E
:105588008A780D4612F001011CBF43F08003837036
:10559800D5F8202122F07F4222F0FF0285B0044690
:1055A80012B143F008038370AA68C2F31702FF2AF6
:1055B8001ED9B2F5803F18D363F07F03A37041F082
:1055C80002014FF0020B09234FF00A0C0822E17088
:1055D8000B20CDF804C01E4617464FF0070E4FF0BB
:1055E80006094FF0050A042117E043F00203A370EF
:1055F800180600F1D58008234FF0090C07220A206D
:105608004FF0000BCDF804C01E4617464FF0060EAB
:105618004FF005094FF0040A032195F8018004F8BA
:10562800018004EB0108297904F80A10697904F863
:105638000910A97904F80E10A178090709D595F879
:105648002111A15495F82211A155034667466246D7
:105658000646A968A154A278900707D5BA1C1F4628
:10566800AB68C3F30F23A35596B23346BBF1000FC3
:1056780005D05A1C1F46AB7AA35596B23346A2787A
:10568800D10606D55A1C1F4695F82331A35596B264
:105698003346454A127803F1010914FA89FA05F1EB
:1056A8000C0B42B16B785A460DF10F015046FFF7CB
:1056B8001BFE002859D159466A78504606F016FB59
:1056C80069782278394B6078D243D2B2072F9A5C36
:1056D80082EA0002985CA27882EA0002985CE2788A
:1056E80082EA0002985C227982EA0002985C627978
:1056F80082EA0002985CA27982EA0002985CE27968
:1057080082EA00029A5C1BD0207A4240082F9A5CF9
:1057180016D0607A4240092F9A5C11D0A07A424094
:105728000A2F9A5C0CD0E07A42400B2F9A5C07D083
:10573800207B42400C2F9A5C1EBF607B42409A5CE3
:10574800A25511FA89F39BB2B5F80C21E2545A1C00
:10575800B5F80C1192B2090AA154AA78981CD2077C
:1057680080B20BD405B0BDE8F08FA3789DF80F1078
:1057780043F04003A37088F80010A2E7D5F8107131
:10578800D5F81811D5F81461275022180F33566030
:10579800916095F81C11117398B205B0BDE8F08FAF
:1057A8004FF0000B0FE700BF3403002050C3000880
:1057B8002DE9F04F874D0C4683B001460746284631
:1057C800164606F093FA844A00234FF400412370EA
:1057D8009183002E00F0BD8028784FF0400B4FEAEF
:1057E800D01C82F81DB080219E464FF0FF0892F829
:1057F8001D9015F803A04FEA4C001AEA090F4FEA6A
:10580800590C18BF40F0010082F81DC0BCF1000F10
:1058180000F0A280022800F00684032800F0A58387
:10582800012840F0A8809E4240F2938015F803902A
:1058380019EA0C0F14BF012000205FEA5C0A40F04F
:105848007E830133DBB29E421377517740F2818029
:1058580015F903C0BCF1000F4FEA400001DA40F02F
:10586800010082F81DB04FF0400C9E4271D915F826
:105878000390400019EA0C0FC0B218BF40F00100B5
:105888005FEA5C0A40F0EE830133DBB29E42137795
:1058980051775ED915F903C015F803904000BCF1A3
:1058A800000FC0B201DA40F00100400019F0400FCB
:1058B8005FFA80FA18BF4FF0200C00F069854AF0B3
:1058C800010ABCF1000F40F065850133DBB29E424E
:1058D800137751773DD915F9039015F803C04FEAAE
:1058E8004A00B9F1000FC0B201DA40F001004000EF
:1058F8001CF0400FC0B218BF4FF0200C00F081859B
:1059080040F0010082F81DC0BCF1000F02D1013344
:10591800137751774130237803F1010C84F800C0E4
:10592800F854137F9E4214D9507F15F803C010EA2B
:105938000C0F4FEA500014BF4FF0010C4FF0000C51
:10594800507718B90133DBB2137751779E423FF68F
:105958004EAF03B0BDE8F08F0133DBB202281377F6
:10596800517700F09181032800F0138201284FF04D
:10597800800C3FF458AF9E42EBD9E85C1CEA000F5C
:105988001BD05FEA5C0929D10133DBB29E42137751
:105998005177DED9E8560028C0F2DE804FF0800942
:1059A8004FEA5900507710B90133137751772378AC
:1059B800581C207007F80380B3E74FEA5C00507763
:1059C80010B90133137751772378581C207007F8E2
:1059D80003E0A6E75C0400208805002019EA000F10
:1059E800DED05FEA9C0C40F0B9800133DBB29E4206
:1059F80013775177ADD9E8560028C0F248824FF0A6
:105A0800800C5FEA5C0040F022820133DBB29E42E8
:105A1800137751779DD915F803C04FEADC101CF0B5
:105A2800400F4FEA400000F095844FF0200C40F002
:105A3800010082F81DC0BCF1000F05D10133DBB2B3
:105A4800137751774FF0800C9E4282D915F8039056
:105A580040001CEA090FC0B218BF40F001005FEA1D
:105A68005C0C40F043830133DBB29E4213775177DD
:105A78007FF66FAF15F903C04000BCF1000FC0B24C
:105A880080F2FB834FF0800C5FEA5C0C40F0010071
:105A980040F038830133DBB29E42137751777FF6AB
:105AA80058AF15F903C04000BCF1000FC0B280F236
:105AB800F9834FF0800C5FEA5C0C40F0010040F085
:105AC8002D830133DBB29E42137751777FF641AFC6
