:020000040800F2
:100000000000012081DF00086BDF00086DDF0008C1
:100010006FDF000871DF000873DF000800000000D8
:1000200000000000000000000000000075DF000874
:1000300077DF00080000000079DF00087BDF0008A0
:10004000D1DF0008D1DF0008D1DF0008D1DF0008D0
:10005000D1DF0008D1DF0008D1DF0008D1DF0008C0
:10006000D1DF0008D1DF0008D1DF0008D1DF0008B0
:10007000D1DF0008D1DF0008D1DF0008D1DF0008A0
:10008000D1DF0008D1DF0008D1DF0008D1DF000890
:1000900000000000D1DF0008D1DF0008D1DF000838
:1000A000D1DF0008D1DF0008D1DF0008D1DF000870
:1000B000D1DF000819370008D1DF0008D1DF0008C0
:1000C000D1DF0008D1DF0008D1DF0008D1DF000850
:1000D000B565000881330008D1DF0008D1DF0008D2
:1000E000D1DF0008D1DF0008D1DF0008D1DF000830
:1000F000D1DF00080000000000000000D1DF000890
:10010000D1DF0008D1DF000839C90008D1DF0008BD
:10011000D1DF0008D1DF0008D1DF0008D1DF0008FF
:10012000D1DF0008D1DF0008D1DF0008D1DF0008EF
:08013000D1DF0008D1DF000857
:1001380010B5054C237833B9044B13B10448AFF319
:1001480000800123237010BDD802002000000000A9
:100158004C15010808B5034B1BB103490348AFF31D
:10016800008008BD00000000DC0200204C150108DA
:1001780010F8012B11F8013B012A28BF9A42F7D049
:10018800D01A7047034613F8012B002AFBD1181A1E
:100198000138704781F0004102E000BF83F000435E
:1001A80030B54FEA41044FEA430594EA050F08BF0A
:1001B80090EA020F1FBF54EA000C55EA020C7FEACE
:1001C800645C7FEA655C00F0E2804FEA5454D4EB4B
:1001D8005555B8BF6D420CDD2C4480EA020281EA15
:1001E800030382EA000083EA010180EA020281EA4D
:1001F8000303362D88BF30BD11F0004F4FEA01319F
:100208004FF4801C4CEA113102D0404261EB4101AD
:1002180013F0004F4FEA03334CEA133302D0524233
:1002280063EB430394EA050F00F0A780A4F10104EF
:10023800D5F1200E0DDB02FA0EFC22FA05F2801829
:1002480041F1000103FA0EF2801843FA05F359410F
:100258000EE0A5F120050EF1200E012A03FA0EFC8E
:1002680028BF4CF0020C43FA05F3C01851EBE371B8
:1002780001F0004507D54FF0000EDCF1000C7EEBD5
:1002880000006EEB0101B1F5801F1BD3B1F5001F13
:100298000CD349085FEA30004FEA3C0C04F1010432
:1002A8004FEA445212F5800F80F09A80BCF1004F5B
:1002B80008BF5FEA500C50F1000041EB045141EADD
:1002C800050130BD5FEA4C0C404141EB0101013CA6
:1002D80028BFB1F5801FE9D291F0000F04BF014695
:1002E8000020B1FA81F308BF2033A3F10B03B3F167
:1002F80020020CDA0C3208DD02F1140CC2F10C02F7
:1003080001FA0CF021FA02F10CE002F11402D8BF54
:10031800C2F1200C01FA02F120FA0CFCDCBF41EA20
:100328000C019040E41AA2BF01EB0451294330BDEF
:100338006FEA04041F3C1CDA0C340EDC04F11404CC
:10034800C4F1200220FA04F001FA02F340EA0300A3
:1003580021FA04F345EA030130BDC4F10C04C4F1E9
:10036800200220FA02F001FA04F340EA03002946C9
:1003780030BD21FA04F0294630BD94F0000F83F413
:10038800801306BF81F480110134013D4EE77FEAF6
:10039800645C18BF7FEA655C29D094EA050F08BF42
:1003A80090EA020F05D054EA000C04BF1946104623
:1003B80030BD91EA030F1EBF0021002030BD5FEA67
:1003C800545C05D14000494128BF41F0004130BD8F
:1003D80014F580043CBF01F5801130BD01F00045E3
:1003E80045F0FE4141F470014FF0000030BD7FEA56
:1003F800645C1ABF194610467FEA655C1CBF0B4651
:10040800024650EA013406BF52EA033591EA030F67
:1004180041F4002130BD00BF90F0000F04BF00215F
:10042800704730B54FF4806404F132044FF0000592
:100438004FF0000150E700BF90F0000F04BF00210B
:10044800704730B54FF4806404F1320410F0004571
:1004580048BF40424FF000013EE700BF42004FEA6C
:10046800E2014FEA31014FEA02701FBF12F07F43E9
:1004780093F07F4F81F06051704732F07F4208BFA0
:10048800704793F07F4F04BF41F40021704730B5A7
:100498004FF4607401F0004521F000411CE700BFF3
:1004A80050EA010208BF704730B54FF000050AE076
:1004B80050EA010208BF704730B511F0004502D577
:1004C800404261EB41014FF4806404F132045FEA79
:1004D800915C3FF4D8AE4FF003025FEADC0C18BF22
:1004E80003325FEADC0C18BF033202EBDC02C2F114
:1004F800200300FA03FC20FA02F001FA03FE40EAA6
:100508000E0021FA02F11444BDE600BF70B54FF0A9
:10051800FF0C4CF4E06C1CEA11541DBF1CEA135587
:1005280094EA0C0F95EA0C0F00F0DEF82C4481EAEF
:10053800030621EA4C5123EA4C5350EA013518BF0F
:1005480052EA033541F4801143F4801338D0A0FBFC
:1005580002CE4FF00005E1FB02E506F00042E0FBA9
:1005680003E54FF00006E1FB03569CF0000F18BFAF
:100578004EF0010EA4F1FF04B6F5007F64F5407457
:1005880004D25FEA4E0E6D4146EB060642EAC621EA
:1005980041EA55514FEAC52040EA5E504FEACE2E57
:1005A800B4F1FD0C88BFBCF5E06F1ED8BEF1004F5A
:1005B80008BF5FEA500E50F1000041EB045170BDD6
:1005C80006F0004646EA010140EA020081EA03011A
:1005D800B4EB5C04C2BFD4EB0C0541EA045170BD16
:1005E80041F480114FF0000E013C00F3AB8014F190
:1005F800360FDEBF002001F0004170BDC4F10004D9
:10060800203C35DA0C341BDC04F11404C4F1200559
:1006180000FA05F320FA04F001FA05F240EA0200B4
:1006280001F0004221F0004110EBD37021FA04F6EA
:1006380042EB06015EEA430E08BF20EAD37070BDA4
:10064800C4F10C04C4F1200500FA04F320FA05F003
:1006580001FA04F240EA020001F0004110EBD37005
:1006680041F100015EEA430E08BF20EAD37070BD75
:10067800C4F1200500FA05F24EEA020E20FA04F34E
:1006880001FA05F243EA020321FA04F001F00041FD
:1006980021FA04F220EA020000EBD3705EEA430E6E
:1006A80008BF20EAD37070BD94F0000F0FD101F09D
:1006B8000046400041EB010111F4801F08BF013CD6
:1006C800F7D041EA060195F0000F18BF704703F014
:1006D8000046520043EB030313F4801F08BF013D9B
:1006E800F7D043EA0603704794EA0C0F0CEA135557
:1006F80018BF95EA0C0F0CD050EA410618BF52EA11
:100708004306D1D181EA030101F000414FF0000016
:1007180070BD50EA410606BF1046194652EA430624
:1007280019D094EA0C0F02D150EA013613D195EA98
:100738000C0F05D152EA03361CBF104619460AD1E0
:1007480081EA030101F0004141F0FE4141F47001EA
:100758004FF0000070BD41F0FE4141F4780170BDDA
:1007680070B54FF0FF0C4CF4E06C1CEA11541DBF3F
:100778001CEA135594EA0C0F95EA0C0F00F0A7F841
:10078800A4EB050481EA030E52EA03354FEA01316E
:1007980000F088804FEA03334FF0805545EA131381
:1007A80043EA12634FEA022245EA111545EA106549
:1007B8004FEA00260EF000419D4208BF964244F1E0
:1007C800FD0404F5407402D25B084FEA3202B61AFF
:1007D80065EB03055B084FEA32024FF480104FF4D3
:1007E800002CB6EB020E75EB030E22BFB61A754647
:1007F80040EA0C005B084FEA3202B6EB020E75EBDA
:10080800030E22BFB61A754640EA5C005B084FEA41
:100818003202B6EB020E75EB030E22BFB61A75460E
:1008280040EA9C005B084FEA3202B6EB020E75EB19
:10083800030E22BFB61A754640EADC0055EA060EDA
:1008480018D04FEA051545EA16754FEA06164FEA1D
:10085800C30343EA52734FEAC2025FEA1C1CC0D1C9
:1008680011F4801F0BD141EA00014FF000004FF056
:10087800004CB6E711F4801F04BF01430020B4F117
:10088800FD0C88BFBCF5E06F3FF6AFAEB5EB030CCF
:1008980004BFB6EB020C5FEA500C50F1000041EBCC
:1008A800045170BD0EF0004E4EEA113114EB5C0499
:1008B800C2BFD4EB0C0541EA045170BD41F480116C
:1008C8004FF0000E013C90E645EA060E8DE60CEA74
:1008D800135594EA0C0F08BF95EA0C0F3FF43BAF91
:1008E80094EA0C0F0AD150EA01347FF434AF95EA48
:1008F8000C0F7FF425AF104619462CE795EA0C0F2C
:1009080006D152EA03353FF4FDAE1046194622E7F8
:1009180050EA410618BF52EA43067FF4C5AE50EAD2
:1009280041047FF40DAF52EA43057FF4EBAE12E7C2
:100938004A0011D212F5001211D20DD56FF4787356
:10094800B3EB62520ED44FEAC12343F0004343EAAB
:10095800505323FA02F070474FF00000704750EAF6
:10096800013002D14FF0FF3070474FF00000704760
:1009780080F0004002E000BF81F0004142001FBF4C
:100988005FEA410392EA030F7FEA226C7FEA236C55
:100998006AD04FEA1262D2EB1363C1BFD21841404A
:1009A80048404140B8BF5B42192B88BF704710F0E0
:1009B800004F40F4000020F07F4018BF404211F083
:1009C800004F41F4000121F07F4118BF494292EAEB
:1009D800030F3FD0A2F1010241FA03FC10EB0C0017
:1009E800C3F1200301FA03F100F0004302D54942A4
:1009F80060EB4000B0F5000F13D3B0F1807F06D351
:100A080040084FEA310102F10102FE2A51D2B1F148
:100A1800004F40EBC25008BF20F0010040EA03003D
:100A28007047490040EB0000013A28BFB0F5000FBD
:100A3800EDD2B0FA80FCACF1080CB2EB0C0200FA73
:100A48000CF0AABF00EBC25052421843BCBFD040C2
:100A58001843704792F0000F81F4000106BF80F43C
:100A680000000132013BB5E74FEA41037FEA226CFF
:100A780018BF7FEA236C21D092EA030F04D092F0CA
:100A8800000F08BF0846704790EA010F1CBF0020FE
:100A9800704712F07F4F04D1400028BF40F000405B
:100AA800704712F100723CBF00F50000704700F07B
:100AB800004343F0FE4040F4000070477FEA2262A2
:100AC80016BF08467FEA23630146420206BF5FEA73
:100AD800412390EA010F40F4800070474FF0000373
:100AE80004E000BF10F0004348BF40425FEA000C3A
:100AF80008BF704743F0964301464FF000001CE0E2
:100B080050EA010208BF70474FF000030AE000BF37
:100B180050EA010208BF704711F0004302D5404275
:100B280061EB41015FEA010C02BF844601460020E7
:100B380043F0B64308BFA3F18053A3F50003BCFA02
:100B48008CF2083AA3EBC25310DB01FA02FC6344AF
:100B580000FA02FCC2F12002BCF1004F20FA02F2B6
:100B680043EB020008BF20F00100704702F12002A9
:100B780001FA02FCC2F1200250EA4C0021FA02F20A
:100B880043EB020008BF20EADC7070474FF0FF0C0F
:100B98001CEAD0521EBF1CEAD15392EA0C0F93EA0A
:100BA8000C0F6FD01A4480EA010C400218BF5FEAAC
:100BB80041211ED04FF0006343EA501043EA51111F
:100BC800A0FB01310CF00040B1F5000F3EBF490019
:100BD80041EAD3715B0040EA010062F17F02FD2A1D
:100BE8001DD8B3F1004F40EBC25008BF20F0010000
:100BF800704790F0000F0CF0004C08BF49024CEA17
:100C0800502040EA51207F3AC2BFD2F1FF0340EAA8
:100C1800C250704740F400004FF00003013A5DDC19
:100C280012F1190FDCBF00F000407047C2F100025A
:100C3800410021FA02F1C2F1200200FA02FC5FEA47
:100C4800310040F1000053EA4C0308BF20EADC7091
:100C5800704792F0000F00F0004C02BF400010F403
:100C6800000F013AF9D040EA0C0093F0000F01F0B0
:100C7800004C02BF490011F4000F013BF9D041EAD2
:100C88000C018FE70CEAD15392EA0C0F18BF93EAD4
:100C98000C0F0AD030F0004C18BF31F0004CD8D1FE
:100CA80080EA010000F00040704790F0000F17BF85
:100CB80090F0004F084691F0000F91F0004F14D0CB
:100CC80092EA0C0F01D142020FD193EA0C0F03D123
:100CD8004B0218BF084608D180EA010000F0004026
:100CE80040F0FE4040F40000704740F0FE4040F401
:100CF800400070474FF0FF0C1CEAD0521EBF1CEAA0
:100D0800D15392EA0C0F93EA0C0F69D0A2EB0302BD
:100D180080EA010C49024FEA402037D04FF0805357
:100D280043EA111143EA10130CF000408B4238BF1C
:100D38005B0042F17D024FF4000C8B4224BF5B1A2A
:100D480040EA0C00B3EB510F24BFA3EB510340EA78
:100D58005C00B3EB910F24BFA3EB910340EA9C0026
:100D6800B3EBD10F24BFA3EBD10340EADC001B0196
:100D780018BF5FEA1C1CE0D1FD2A3FF650AF8B423A
:100D880040EBC25008BF20F0010070470CF0004C47
:100D98004CEA50207F32C2BFD2F1FF0340EAC25072
:100DA800704740F400004FF00003013A37E792F033
:100DB800000F00F0004C02BF400010F4000F013A91
:100DC800F9D040EA0C0093F0000F01F0004C02BF8C
:100DD800490011F4000F013BF9D041EA0C0195E7F5
:100DE8000CEAD15392EA0C0F08D142027FF47DAF8E
:100DF80093EA0C0F7FF470AF084676E793EA0C0F7E
:100E080004D14B023FF44CAF08466EE730F0004C7B
:100E180018BF31F0004CCAD130F000427FF45CAF0B
:100E280031F000437FF43CAF5FE700BF4FF0FF3C79
:100E380006E000BF4FF0010C02E000BF4FF0010CCC
:100E48004DF804CD4FEA40024FEA41037FEA226C95
:100E580018BF7FEA236C11D001B052EA530C18BFB7
:100E680090EA010F58BFB2EB030088BFC81738BF1C
:100E78006FEAE17018BF40F0010070477FEA226C0A
:100E880002D15FEA402C05D17FEA236CE4D15FEA06
:100E9800412CE1D05DF8040B704700BF844608463A
:100EA8006146FFE70FB5FFF7C9FF002848BF10F1FB
:100EB800000F0FBD4DF808EDFFF7F4FF0CBF012040
:100EC80000205DF808FB00BF4DF808EDFFF7EAFFCA
:100ED80034BF012000205DF808FB00BF4DF808ED85
:100EE800FFF7E0FF94BF012000205DF808FB00BF7A
:100EF8004DF808EDFFF7D2FF94BF012000205DF800
:100F080008FB00BF4DF808EDFFF7C8FF34BF01200C
:100F180000205DF808FB00BF4FEA40024FEA41039A
:100F28007FEA226C02D15FEA402C08D17FEA236C69
:100F380002D15FEA412C02D14FF0000070474FF018
:100F4800010070474FEA4002B2F1FE4F0FD34FF055
:100F58009E03B3EB12620DD94FEA002343F000431E
:100F680010F0004F23FA02F018BF404270474FF0CC
:100F78000000704712F1610F01D1420205D110F053
:100F8800004008BF6FF0004070474FF00000704706
:100F980042000ED2B2F1FE4F0BD34FF09E03B3EBDB
:100FA800126209D44FEA002343F0004323FA02F007
:100FB80070474FF00000704712F1610F01D14202F3
:100FC80002D14FF0FF3070474FF00000704700BF6C
:100FD8000022427082700122C270B1FA81F10222AD
:100FE80049090271032201704271704743788B42AC
:100FF8001FD0012941700AD0022910D0C1B901239C
:10100800C37081700223037103234371704703780F
:1010180043B1012383700223C3700023F3E70378ED
:10102800002BF6D0022383700023C3700123EAE764
:10103800FEE7704782B00B88ADF800304B88ADF8FA
:1010480002308B88ADF80430CB88ADF80630023911
:10105800431C053013F8012F0DF1080C0CEB42026C
:10106800834232F8082C21F8022FF3D102B07047DE
:1010780010B50C461146FFF7B9FF2146BDE81040F0
:10108800FFF7D8BF0A4B10B54FF07F32C0E92323D2
:101098004FF47F43A0F89430FF2380F8963004463D
:1010A800983000F0E3FC002384F8A43010BD00BFA2
:1010B800FFFF7F0070B51146154604461E4600F036
:1010C8004BFC294604F1140000F046FC294604F1C3
:1010D800280000F041FC294604F13C0000F03CFCEB
:1010E800294604F1500000F037FC294604F1640059
:1010F80000F032FC294604F1780000F02DFC4FF492
:10110800FA7332464FF4FA6104F1980000F094FC47
:101118002046FFF7B7FF002384F8A5304FF47F433C
:10112800A4F8A63070BD704700F01DBC143000F064
:101138001ABC08B5503000F020FC292100F1140336
:101148000246B3FBF1F313F0FF0002D1101E18BFE3
:10115800012008BD08B5643000F00FFC292100F11A
:1011680014030246B3FBF1F313F0FF0002D1101E83
:1011780018BF012008BD90F8903013B990F98C0081
:10118800704790F98D00704790F8903013B990F936
:101198008E00704790F98F00704710B504460BF029
:1011A800E7FC38B104F13C0000F0E1FB012838BF4E
:1011B8000120C0B210BD783000F0E1BB783000F0FB
:1011C800E6BB10B5044600F0A8FB04F1140000F0DB
:1011D800A4FB04F1280000F0A0FB04F13C0000F09F
:1011E8009CFB04F1500000F0A4FB04F1640000F043
:1011F800A0FB04F17800BDE8104000F0A0BB7F28F8
:1012080007D0002807DA10F1800F06D04042C0B29C
:10121800704700207047012070477F20704710B149
:10122800404240B270477F2070477F280FD010F1AE
:10123800310F0EDA10F1780F0DDB7830FE2340B253
:10124800584323304623B0FBF3F0C0B27047FF2069
:101258007047FE20704700207047012805DD40F2E6
:10126800FE73984203DC80B270470120704740F259
:10127800FF707047A0F57870C0EBC02040F2AE73E5
:1012880090FBF3F000F58060FFF7E7BFFFF7F2BFD0
:10129800032812DD0C2812DD0F2812DD122812DDBA
:1012A800162812DD192812DD1C2812DD1F2812DD70
:1012B8002128CCBFFF20062070470020704701205E
:1012C80070470220704708207047032070470720A6
:1012D80070470420704705207047000005289ABF12
:1012E800014B185CFF207047A815010805289ABF14
:1012F800014B185CFF207047AE1501087F2803D00A
:10130800002803DAC0B2704700207047FF207047FA
:101318007F2811D010F1320F10DA884210DD401A00
:101328006423C1F1FF21584301F57F01CE313130EB
:1013380090FBF1F0C0B27047FF20704764207047FF
:1013480000207047014B4840185C7047B4150108ED
:1013580052B110B4054C0A4411F8013B58408A4276
:10136800205CF9D110BC7047704700BFB415010864
:10137800392808D822280ED9094B2338C0B2C340CF
:1013880003F0010070475F2807D0613819288CBF27
:10139800002001207047002070470120704700BFDF
:1013A80001EC7F00F8B50246451E461D00245F2764
:1013B80015F8010FFF2804BF0134E4B2FFF7D8FF86
:1013C80000B92F70AE42F3D1062C04D119B10B68C5
:1013D80013608B88938000239371F8BD2DE9F8433F
:1013E800DFF83490471E441D012500264FF02808D9
:1013F80017F8011F084810F046F8034610B1A0EB93
:101408000903DBB2A3FB05329E19A742A5FB0853CB
:10141800EED13046BDE8F883B416010810B541791D
:10142800A1F13000C3B2092B07D80523B0FBF3F3B1
:1014380003EB8303C01AC0B210BD044C204610F061
:1014480022F80028F1D0001BC0B2EEE7B41601085C
:10145800F0B5094B094F821D2826B1FBF3F4272C60
:1014680094BF3D5D302502F8015D824203FB1411F3
:10147800B3FBF6F3F1D1F0BD00801A06B4160108EB
:1014880070B50446FEF77EFE82B20023551E98B260
:10149800A84214FA83F104DA265C302E03F1010322
:1014A800F5D0121A01322046BDE870400FF0BABFDD
:1014B8002DE9F04F0D4699B0164600211A461F46F1
:1014C80080460FF0C9FF00212A2201A800910FF0E1
:1014D800C3FFDFF8CC90DFF8CCA0DFF8CCB005EB89
:1014E8004606AE4211D16846FEF74CFE30B100F117
:1014F80060030DEB0300002300F8613C6946404699
:1015080010F00AF819B0BDE8F08F35F9020B47F66C
:10151800FF739842E7D0002812DC59460CA80FF058
:10152800FBFF6846FEF72EFE04460CA8FEF72AFECF
:101538000444A742D5D30CA968460FF095FFD0E71D
:10154800B0F57A7F0BDA0CA980B20EF0F2F80CA88D
:10155800FFF796FF51460CA80FF086FFE1E76423DA
:101568000CA93230B0FBF3F080B20EF0E2F80CA810
:10157800FFF786FF0CA8FEF705FE00F15F036B443A
:1015880000F160010DEB010013F8302C00F8302C4D
:101598002E2203F8302C002300F82F3C4946DAE7C6
:1015A800A21501089D15010898150108F0B589B024
:1015B8006D4600242F468E1CE1B28A4204D8394673
:1015C800FFF776FF09B0F0BD36F8241025F8021BA6
:1015D8000134F1E742F210736421B0FBF3F203FB2C
:1015E8001200B0FBF1F301FB130000EB023000EB3B
:1015F800831080B27047020B00F03F0342F2107173
:1016080001FB0233C0F38510642202FB00307047EF
:101618002DE9F04142F2107388B0B1FBF3F603FBF9
:1016280016141F49DFF87C8005460FF075FF6946E0
:10163800F0B20EF05BF86846FFF722FF69462846CD
:101648000FF012FF414628460FF00EFF6427694647
:10165800B4FBF7F6F0B20EF049F86846FFF710FF52
:10166800694628460FF000FF07FB16444146284606
:101678000FF0FAFE6946E0B20EF038F89DF8013036
:101688008DF800309DF802308DF80130694600234E
:1016980028468DF802300FF0E7FE08B0BDE8F0816B
:1016A800A5270108A615010870B50E4600210546B4
:1016B80014460FF0D1FE00239AB2944200D870BDB0
:1016C800F25C002AFBD0EA540133F5E770B50E4608
:1016D80014460021013205460FF0BEFE00239AB2DF
:1016E800944200D870BDF25C002AFBD0EA54013362
:1016F800F5E730B50023044698B2904201D30120A3
:1017080005E0E55CC85C1DB9B0FA80F0400930BD61
:101718000028FCD0854203F10103EDD00020F6E754
:101728007D23438043F2390309B2C360002301805B
:101738008180C3800372704702680449044B01FB2F
:10174800023323F000430360180C7047FD43030085
:10175800C39E2600F0B5002597B001608580044639
:101768005622294668460FF077FE0126E27DAA42F6
:1017780009D80023802104F1B800A37517B0BDE88B
:10178800F0400FF069BE2046FFF7D6FFE7797B1BD4
:10179800002190FBF3F202FB1300C0B2EC460A46AC
:1017A800CBB29F4223D800230022277B1146D0B218
:1017B800874227D80029D9D1A279033A012A04EB14
:1017C800050105D925B191F9172012BB012BCDD9F7
:1017D8000B76A26852F82310583305F10E026B44B9
:1017E800013544F8221003F8586CEDB2BEE71CF836
:1017F80001EBBEF1000F03D18242D5D00132D2B243
:101808000131CDE72069805C0132984208BF01218F
:10181800CDE7501E8342DBDB01329342D8DCA5E7DB
:101828002DE9F047154696B0013D01600271044666
:101838004371EDB25622002168460FF00DFE0027D5
:10184800022D84BF4FF0010900253E464FF0010AE2
:1018580094F807809CBF4FF00309B8FBF9F8E27DC4
:10186800B24209D80023802104F1B800A37516B04C
:10187800BDE8F0470FF0F0BD2046FFF75DFFA8EB8D
:101888000603002190FBF3F202FB1300C0B2EC4602
:101898000A46CBB2434506D21CF801EBBEF1000F55
:1018A8002AD1824226D1434528BF434603FB09512A
:1018B800002094F80CE001F0FF018446C2B296457E
:1018C8001CD8BCF1000FCAD116B1FFB9012BC6D97B
:1018D800A2191F461176A26852F8211006F10E02CD
:1018E800013644F8221003F158026A44F6B202F8AD
:1018F80058ACB4E70132D2B20131CAE72269125CAE
:1019080001308A4208BF4FF0010CD7E77A1E934294
:10191800DEDB7A1C9342DBDCA1E7D0E901236421FA
:10192800D31AC36082604B43418AB3FBF1F303745B
:101938007047D0E90123D31AC0E9022370474368EE
:101948002BB1C26864214A43B2FBF3F2D3B20374E9
:101958000023C360436070470023C0E9023341821B
:101968004360037470474368013343607047007CE9
:10197800704743680B4443607047C068704711B1B3
:10198800C3680133C3604368013343607047007C18
:101998007047002303808370037270470346007802
:1019A80010B100221A707047587810B100225A708E
:1019B8007047987810B100229A707047187A08B169
:1019C80000221A7270470170704701707047817069
:1019D80070478170426070474068704700234360D9
:1019E800038170470A2310B50446838001F0CAFFBB
:1019F8002368E0809B6820469847208110BD0389B2
:101A080070B504469BB1858845B1013DADB285806E
:101A18006DB903681B68BDE87040184701F0B2FF54
:101A2800E388C01A238980B2834201D2258170BD20
:101A3800236820465B68EEE72DE9F041044610462E
:101A48001D4616468846FFF749F8074606EB080084
:101A5800FFF744F801463846FFF74CF96560206007
:101A68002846FFF73FF8A060BDE8F08110B50446AE
:101A78004068FFF737F8A06010BD000010B50229D4
:101A8800044680EAE070A0EBE47068D15AB9002CF3
:101A9800ACBF7F233F239842A8BF1846002C01DA29
:101AA80040F0400010BD012A1AD1632805DC40002F
:101AB800002CF7DA40F48070F4E740F2F5439842DE
:101AC8000CDCFFF70BF85749FFF760F80EF080FBC6
:101AD800FFF75EFA400040F00100E9E7FF20E7E782
:101AE800022A40F09C80632805DC8000002CD9DAAB
:101AF80040F40070D6E7B0F57A7F0CDAFEF7EEFF17
:101B08004849FFF743F80EF063FBFFF741FA8000FE
:101B180040F00100EAE742F20F7398420CD8FEF752
:101B2800DDFF4149FFF732F80EF052FBFFF730FABC
:101B3800800040F00200D9E73C4B98420CD8FEF7F1
:101B4800CDFF3B49FFF722F80EF042FBFFF720FAE2
:101B5800800040F00300C9E740F2FF10C6E7032900
:101B68005DD1012A1BD1B0F57A7F05DA4000002C3F
:101B780098DA40F4006095E7B0F5205F0CDAFEF7DC
:101B8800ADFF2849FFF702F80EF022FBFFF700FA35
:101B9800400040F00100EAE740F2FF70E7E7022A60
:101BA8003DD1B0F57A7F06DA8000002CBFF67AAF17
:101BB80040F4805076E742F20F7398420CDCFEF74F
:101BC8008DFF1849FEF7E2FF0EF002FBFFF7E0F980
:101BD800800040F00100E8E7164B98420CD8FEF769
:101BE8007DFF1149FEF7D2FF0EF0F2FAFFF7D0F9A8
:101BF800800040F00200D8E7B0F57A2F0CD2FEF74B
:101C08006DFF0B49FEF7C2FF0EF0E2FAFFF7C0F9CD
:101C1800800040F00300C8E740F6FF70C5E70020E9
:101C280040E700BFCDCCCC3D0AD7233C17F00100DC
:101C38006F12833A9F8601000023036070470000FB
:101C480038B5084B09291B7828BF09218B4204465F
:101C58000D4602D10023036038BD01F087FE2571CF
:101C68002060F9E7F4020020036810B504460BB9B8
:101C7800002010BD01F07AFE2368C01A40F2EE235E
:101C88009842F5D90023054A2360127823799A42AD
:101C9800EED0034A0120D377EBE700BFF40200201F
:101CA80050030020FF2343710023017183710381D6
:101CB8008372704738B5037904460D465BB14179A4
:101CC800A94208D041B101290AD00023A371657146
:101CD80055B1012D0FD038BD03689B689847F4E7CC
:101CE80003680021DB68F9E723689B680121204627
:101CF8009847A071EFE723682946DB68F7E72DE9E5
:101D0800F04F077CC37B857CC67C90F815E090F883
:101D1800208090F80EC0BF000C4647EA931703F0E6
:101D28003F01437C03F0010247EA822705F00F02D6
:101D3800D20142EA530206F07F031B0143EA15135E
:101D4800057D89B06D0045EAD6150EF003060593AA
:101D580045EA4623867D009306F01F05AD0145EA56
:101D68009E03C57D90F819E00193ED0045EA5613EE
:101D7800057E02930EF0070645EA0623857E039347
:101D880005F03F06760146EADE03C67E90F81CE0C1
:101D98000493B60046EA95160EF0010546EA852634
:101DA800457F069205F00F0B4FEACB1B4BEA5E0B03
:101DB80090F81EE00EF07F0A4FEA0A1A4AEA151A4E
:101DC800C57F6D0045EADE1508F0030E45EA4E258D
:101DD80090F821E00EF01F094FEA891949EA98099D
:101DE800490190F82280407B41EADC010CF0070CA5
:101DF80040EA0C204FEAC80848EA5E180791FFF746
:101E080039FA079920800846FFF734FA6080384687
:101E1800FFF730FA069AA0801046FFF72BFA059BC9
:101E2800E0801846FFF726FA20810098FFF722FA8B
:101E380060810198FFF71EFAA0810298FFF71AFA4D
:101E4800E0810398FFF716FA20820498FFF712FA48
:101E580060823046FFF70EFAA0825846FFF70AFA6A
:101E6800E0825046FFF706FA20832846FFF702FA79
:101E780060834846FFF7FEF9A0834046FFF7FAF96A
:101E88004FF48063E0832384638409B0BDE8F08F56
:101E98002DE9F04104460F4601F074FD4FF00108AA
:101EA8000546236820461B689847064650B9A37A1A
:101EB800012B1FD12389ED1A40F6C4139D42C8BFD8
:101EC800A07217E0236820465B689847A37AA3B9F5
:101ED8000F2814D1A4F80A80E37AE2180133DBB2A0
:101EE800182B1073E3720AD939462046FFF707FF0B
:101EF8000023A3723046BDE8F081012BECD0258188
:101F0800CFE7827922B14379012B01D8FFF7C0BF0F
:101F1800002070477047704770470020704770472F
:101F2800002070470020704770470020704700204D
:101F380070474FF0B04382B0DA6C0243DA64DB6C6E
:101F480003400193019B02B070474FF0B04382B049
:101F58009A6D02439A659B6D03400193019B02B001
:101F680070474FF0B04382B01A6E02431A661B6E78
:101F780003400193019B02B0704750E8003F43F0D3
:101F8800800340E80032002AF7D1704750E8003F4C
:101F980023F0200340E80032002AF7D1704750E8C8
:101FA800003F23F0400340E80032002AF7D1704791
:101FB80050E8003F23F0800340E80032002AF7D1C0
:101FC800704770470288044B5140C9B233F811304A
:101FD80083EA122303807047A84401089AB110B419
:101FE800B0F800C0084C0A4411F8013B83EA0C031E
:101FF800DBB2914234F8133083EA1C2CA0F800C0FD
:10200800F2D110BC70477047A844010837B54FF6A5
:10201800FF730446ADF806304518AC4203D1BDF84D
:10202800060003B030BD14F8011B0DF10600FFF7E0
:10203800C9FFF2E701207047074B1B784BB9074BE4
:102048001888074B1B8880B29BB2C01A18BF0120A2
:1020580070470020704700BF30000020A83F0020D4
:10206800A63F00200649074A0B8812880133C3F3AC
:10207800080392B29A421EBF034AD0540B8070479D
:10208800A03500209E3500209E3300200023A0F8B4
:102098007032A0F86E3270470023A0F85C32A0F8C6
:1020A8005A327047044B1888044B1B8880B29BB285
:1020B800C01A18BF01207047A03500209E350020A7
:1020C8000278024B51405B5C03707047283101086D
:1020D800FF230370704700BF7047B0F86E32B0F846
:1020E80070229B1A98B21B0444BF00F5006080B2AE
:1020F800003818BF01207047A0F11400EDE7B0F8D0
:102108007022B0F86E12914203461FBF8118013247
:1021180091F87402B3F872121ABF0A40A3F8702239
:1021280000207047A0F11400E9E770B50B78037040
:102138004B7843700B78FD2B05460C4638D18B78CD
:102148008370CB78C3700B7903714B7943718B79AA
:1021580083718B68C3718B68C3F30F2303728B7A07
:1021680043720A26627804F10C01A8190FF0DCF911
:102178006378B4F80C213344981CEA545A1CB4F818
:102188000C1192B2090AA954A278D20780B20ED5CE
:1021980004F58872054404F58E7452F8041B45F85A
:1021A800041BA242F9D112782A700F3398B270BD7D
:1021B80000238B700B7983704B79C3708B79037113
:1021C8008B6843710626CDE738B54A78352A0D461F
:1021D800044601F10C010AD80FF0A6F9687800212D
:1021E800C0F136022044BDE838400FF035B940351B
:1021F80051F8043B40F8043BA942F9D10B8803800D
:1022080038BD38B54A781B2A0C46054601F10C0141
:102218000AD80FF089F960780021C0F11C0228441F
:10222800BDE838400FF018B9283451F8043B45F898
:10223800043BA142F9D138BD38B54A78082A0D4681
:10224800044601F10C010AD80FF06EF968780021F4
:10225800C0F109022044BDE838400FF0FDB8EB6832
:1022680003604B6843600B7A037238BD38B54A780F
:10227800072A0C46054601F10C010AD80FF054F95B
:1022880060780021C0F108022844BDE838400FF00A
:10229800E3B8E36803604B68436038BD08B524229F
:1022A800034800210FF0D8F8024B00221A7008BD2D
:1022B800D80C0020A40500202DE9F0411378037004
:1022C80092F8018080F80180FD2B04460F461546E0
:1022D80054D193788370D378C37013790371537989
:1022E8004371937983716B7A127A1B0403EB02238F
:1022F800EA79134423F07F430A26A26863F317029E
:10230800A260A919424604F10C000FF00DF97A7B7E
:10231800904507D208F10C00A2EB080200212044E6
:102328000FF09AF863781E44AB195A78AB5D03EB4B
:102338000223A4F80C31A378DB070ED5023615FA70
:1023480086F304F5887203F10C0153F8040B42F884
:10235800040B8B42F9D11B781370BB7A84F82131B6
:10236800FB7A84F822313B7B84F823317B7B84F829
:1023780024313B7884F82031BDE8F0810023438084
:1023880093780371D378437113798371537906264F
:10239800B3E738B54A78132A0C46054601F10C0113
:1023A8000AD80FF0C1F860780021C0F1140228445F
:1023B800BDE838400FF050B8203451F8043B45F8D8
:1023C800043BA142F9D138BD2DE9F04F0C465188A4
:1023D800B1F58C7F054685B04FF0000010D3107022
:1023E800D91CC9B2012995BF01210023518053800E
:1023F8009CBF237011700020287005B0BDE8F08FD5
:1024080016780E2E00F2908001A757F826F000BF2C
:10241800E9230008552400087D2400089B240008AF
:10242800312500083125000831250008312500082C
:10243800312500083125000831250008312500081C
:102448003125000831250008AD240008481C5080BB
:1024580063542178FD299BB206D10C330A21D3801D
:10246800918002231370C6E708330621D380918038
:102478000E23F7E7481C50806354D80742BFD18821
:102488000D31D1800020012B8CBF0346032313702C
:10249800B2E7481C508000208342635414BF0346AF
:1024A8000E23F4E7481C508063545388D1888B422C
:1024B80032D300235380137002232B706980237852
:1024C800FD2B37D163792B72A3796B72637A227AE9
:1024D8001B0403EB0223E27913446B60637803F176
:1024E8000C026A80A278D10701D519336B800026C7
:1024F8006968DFF800816E814FF4BC720C20B31854
:1025080001335B0800FB03F758F80770B9421AD289
:102518005A1EB242F3D818E092889A423FF66BAF3F
:1025280001232B70002068E7107050809080D080C5
:102538002870F7E7E3782B7223796B7263796B6005
:1025480063780833D2E71E46E3D80C27774358F858
:102558000730994227D123782046FD2B10F801BF78
:102568000CBF4FF00A094FF0060909EB0B03591E7F
:1025780089B247440193FFF749FD97F804A0ADF8E5
:102588000E0051460DF10E00FFF71CFD019BE218ED
:10259800E35C527803EB0223BDF80E209BB29A420B
:1025A80009D0052000E003202870023801288CBFDC
:1025B8000020012021E7BB79DA0706D5FA7993458F
:1025C80082BF04EB09018A5CAA729B0709D50C2318
:1025D80003FB068362781B7A9A4282BF4C44E35C11
:1025E800EB720C2303FB068385F80CA05B796B73F5
:1025F8000220DAE728320108084B5B6A4FF04022D4
:1026080002F5806353E8003F43F0200302F5806041
:1026180040E800310029F3D1704700BF0044004072
:102628000A4A0B4B12680B49A3FB02323220920C68
:1026380000FB02F2084B486802F5FA72A3FB02326B
:1026480092094B681B1A9A42FBD870477002002007
:1026580083DE1B43001000E0D34D621030B587B015
:10266800034601AC00F1100518685968224603C2F8
:102678000833AB421446F7D10024094D8DF81440B5
:10268800A96801A8FDF774FD10B920B207B030BDE4
:1026980001342E2C05F10C05F2D14FF0FF30F5E78F
:1026A8003400002002780A4B90F801C08178D243A8
:1026B800D2B29A5C82EA0C0290F803C09A5C4A4053
:1026C800995C027981EA0C01595C4A40985C704730
:1026D80028310108028810B58488531C2340448897
:1026E8009C421EBF12189171038010BD411A88B216
:1026F8000B0444BF00F5007080B2704770B5104CF1
:102708000025234626782EB166788E4202D1A67817
:1027180096420BD001350C2D04F10404F2D10024AB
:1027280013F824501DB101340C2CF9D170BD0125CA
:1027380003F8245003EB8403D87059709A70F5E7B6
:10274800A90500202DE9F8430B460D795A7A9E7A9F
:10275800DF7A204B097A1B5CDB07044600D50DB9EC
:10276800FFF7CCFF00231C491A4898464FF0010E8A
:102778009C4201F8018B25D02DB90278920702D529
:1027880001F801EC1EE0154A4FF0000C92F8009099
:10279800B9F1000F0FD092F8039099450BD1002E94
:1027A800EED092F80190B14505D1002FE8D092F80B
:1027B8000290B945E4D00CF1010CBCF10C0F02F108
:1027C8000402E3D10133DBB2042B00F10100CFD1C5
:1027D800BDE8F883D9050020A5050020A90500203B
:1027E80007B503688DF807101B6901220DF1070171
:1027F800984703B05DF804FBF0B50546FD2305F8DE
:102808000C3B85B004468DF8043090F8243103F170
:102818000C020244012B42D80026637066808DF8B2
:1028280005308B7A23718DF808308B7AADF8066005
:1028380001338B7263798DF80930A3798DF80A30EA
:10284800A368C3F317031A128DF80B3009211B1460
:102858000DF105008DF80D308DF80C20FFF7D6FB33
:102868006778ADF802003A4629460DF10200FFF7F5
:10287800B5FB94F82311FFF7A5FB94F82421BDF8C4
:102888000230A4F80C31974210D207F10C00D21B89
:102898003146204405B0BDE8F0400EF0DDBD12F829
:1028A800010D0028B8D1013BDBB2B3E705B0F0BD9C
:1028B80070477047044AD2F8903023F40043C2F8B6
:1028C8009030FFF7ADBE00BF0004005808B5FFF711
:1028D800A7FE044AD2F8903043F40043C2F890307F
:1028E80008BD00BF00040058064B1B7843B1064AD8
:1028F80000231380054A1380054A1380054A138074
:10290800704700BF30000020A63F0020A83F0020ED
:10291800AA410020AC410020054B1B783BB9054A71
:102928001380054A1380054A1380054A13807047AF
:1029380030000020A63F0020A83F0020AA41002028
:10294800AC410020074B084A5B6A02F5006353E874
:10295800003F43F0200302F5006040E80031002901
:10296800F3D170470038014000300140064B187819
:1029780040B1064B1888064B1B8880B29BB2C01A20
:1029880018BF0120704700BF30000020A83F00207A
:10299800A63F002070B5044608460D46FDF7F2FB39
:1029A800236882B2294620461B69BDE87040184753
:1029B80010B5464B5A6A037A044692B263B18389CA
:1029C800D31A9BB2B3F5FA7F84BF00230372837ACC
:1029D8004F2B84BF00230372237AA281082B21D8AE
:1029E800DFE803F0052020202020252E3900EE29DD
:1029F800B4F8000401D0C82915D10123A372062315
:102A08006175237270B1012809D00CF01FFF0146CF
:102A18002F48FFF7BFFF2F492D48FFF7BBFF0023C3
:102A2800A4F8003410BD0130A4F80004FAE7A37A32
:102A38005A1C2344A2725975617207232372F1E765
:102A4800A27A531C2244DBB2A3725175627A9A426D
:102A5800E8D20823F2E7A37A5A1C2344A2725975D4
:102A6800E37D162B04D1012384F865300923E5E7BB
:102A78006369194A03F0FF23934203D1012384F8C1
:102A88006730F3E7154A93421CD1A37E102B19D166
:102A9800E37E022B08D0052B0DD0012BE6D1227E38
:102AA800EE2A08BF84F86A30237EEE2BDED101239C
:102AB80084F86B30DAE7012384F86830237F84F8E0
:102AC8006930D3E7012384F86630CFE7004401403A
:102AD8002C0000200C17010800C8002800C800328C
:102AE80008B5FFF757FF08BDB0F1904F02D101209C
:102AF800FFF71FBA084B984205D003F58063984248
:102B080003D10420F4E70220F2E7044B984201D1F4
:102B18008020EDE7704700BF00040048001C004813
:102B28000C4B984203D14FF40060FFF71ABAB0F18A
:102B3800804F05D0084B984205D14FF40030F4E798
:102B48000120FFF702BA054B984202D14FF48020CA
:102B5800EBE77047002C0140004401400048014069
:102B68002DE9F04387B00E4605461446002114228D
:102B780001A89DF838809DF83C901F460EF06CFC2B
:102B880000960B2C07D8DFE804F007070A12141484
:102B9800141616161A1CFEE70323019301E00223FC
:102BA8000493032F11D8DFE807F011132111012333
:102BB800F6E70123F1E7012301930393F1E70223E9
:102BC800EBE7022301930123F7E7FEE702230293D1
:102BD800B8F1100F0CD8DFE808F02D2D0C111315E3
:102BE80017191B1D1F21232527292B000123EEE779
:102BF800FEE701230593022301931EE00223F9E770
:102C08000323F7E70423F5E70523F3E70623F1E7B2
:102C18000723EFE70823EDE70923EBE70A23E9E7B2
:102C28000B23E7E70C23E5E70D23E3E70E23E1E7B2
:102C38000F23DFE7B8F1000FDDD1B9F1000F02D0A3
:102C48002846FFF751FF053C042C05D8DFE804F0BF
:102C5800030B04030B00AE62694628460CF050F8DB
:102C680007B0BDE8F083AE61F6E713B54FF0010C8D
:102C78000024CDE9004CFFF773FF02B010BD00003F
:102C880007B50E48FFF782F9036823F001030360D4
:102C9800436843F400434360036843F0010303605F
:102CA80000220823CDE90032054803230A228021A7
:102CB800FFF756FF03B05DF804FB00BF0038014082
:102CC8000004004830B587B0002315460446ADF827
:102CD8000630FFF725FF042D04D8DFE805F02E3273
:102CE80004363F00FEE71E4B1E4A1B68B3FBF2F397
:102CF8009BB20022CDE90221013B01A92046ADF893
:102D08000430049205920CF027FA236823F080031C
:102D18002360A36823F4A03323F00703A360636848
:102D280023F070036360636823F470036360A3682F
:102D380023F08003A36007B030BD094B0A4A1B6823
:102D4800D4E7074B094A1B68D0E7054B064A1B68BE
:102D5800B3FBF2F303EB83035B00C9E70123C8E786
:102D68007002002080A8120140420F0000127A0071
:102D780010B50446FFF7A6FF236843F0010323605C
:102D880010BD00224FF0FF31FFF7F2BF1A4B10B50C
:102D98001A4C5B6823600BF019F94FF090400BF068
:102DA80071FF17480BF06EFF16480BF06BFF1648C3
:102DB8000CF060FB15480CF05DFB0CF0FFF84FF0D1
:102DC800E022002313615361936172B64FF0FF3123
:102DD8009A0002F1604202F561420133082BC2F801
:102DE8008010C2F88011F3D162B6034B1B6883F3DD
:102DF800088823689847FEE70000FF1FA005002009
:102E08000004004800080048003801400044004021
:102E18000749084A881AEFF30883521A1A44013AF4
:102E2800013B984288BF0022AA210EF015BB00BFC3
:102E38000000012000040000044B5A69586910F092
:102E4800020018BFC2F38000704700BF000400589A
:102E58004FF0B042D2F8943043F40043C2F89430B3
:102E68004FF47A7300BF013B9BB2002BFAD14FF0AD
:102E7800B043D3F8942022F40042C3F89420D3F846
:102E880094205204FBD40C4BD3F8902022F4004237
:102E9800C3F890204FF47A7200BF013A92B2002A28
:102EA800FAD1D3F8902042F40042C3F890204FF4AE
:102EB80000629A61704700BF0004005810B50323F0
:102EC800052240214FF09040FFF7CFFEBDE81040AB
:102ED8000323052280214FF09040FFF7C6BE08B5B6
:102EE800FFF7AAFF003818BF012008BD08B5FFF793
:102EF800F6FF00B908BD00BFF9E74FF09043802204
:102F08009A6240229A6170474FF0904340229A6239
:102F180080229A6170470000024B4FF480225A6069
:102F2800704700BF00E100E00023032201214FF0B9
:102F38009040FFF79ABE4FF090431869C04300F0E5
:102F48000100704710B5074C0023204605220821D0
:102F5800FFF78BFE20460023BDE810400522102114
:102F6800FFF783BE0004004805494B691A04DB4398
:102F780002F4002203F0080313438B61704700BF7B
:102F88000004004805494B691A04DB4302F4801227
:102F980003F0100313438B61704700BF000400481F
:102FA80008B50322002301214FF09040FFF75DFE92
:102FB800102200234FF090410869C00758BF013321
:102FC80002F1FF3258BFDBB212F0FF02F4D1082B36
:102FD800024A8CBF00230123137008BD3000002073
:102FE8000C4BD3F8FC2022F08072C3F8FC20D3F8F5
:102FF800FC2042F08072C3F8FC20A3F55D431A68F8
:1030080022F001021A601A6842F001021A600022D6
:103018005A60704700ED00E00649074B074A1B68F5
:10302800B3FBF2F310B54C6843434A68121B9A424B
:10303800FBD310BD001000E07002002040420F00DA
:1030480008B50322002302214FF09040FFF70DFE40
:1030580042F21070FFF7E0FF102200234FF090417A
:103068000869800758BF013302F1FF3258BFDBB24D
:1030780012F0FF02F4D10C2B01D9FFF787FE08BD2F
:103088001FB50223CDE9013101A801236946039345
:103098000BF006F900280CBF0420052005B05DF8E8
:1030A80004FB014608B501200BF0B4F800280CBF5A
:1030B8000420052008BD08B5FFF7E2FF031F5842AA
:1030C800584108BD08B5FFF7ECFF031F58425841A7
:1030D80008BD00002DE9F047294B2A4D01280E466E
:1030E80014462949294A0FBF79277827AA461D4639
:1030F80006BF88469A4690460BF040F8394628465F
:10310800FFF7D9FF28B900240BF04AF82046BDE89C
:10311800F087002E08BF4FF4FC64073424F007043E
:1031280005F11007B1463444AAEB050AA1450BD1B5
:103138004FF011324FF0FF332846FFF7C3FF041E4C
:1031480018BF0124A400DFE76EB90AEB0703D3E92F
:103158000023B3F1FF3F08BFB2F1FF3F06D10837A4
:1031680009F10809E2E7D9E90023F2E7B84505D9EA
:103178003846FFF7A7FF0028F1D1C4E70324C3E7C7
:1031880000C0030800C80308FFCF0308FFC70308EF
:1031980010B50AF0F3FF09487821FFF78CFF0446C1
:1031A80038B107487921FFF786FF041E18BF0124AC
:1031B800A4000AF0F5FF204610BD00BF00C00308B8
:1031C80000C8030830B5084D002340F2EF749AB2E6
:1031D800914201D8042030BDA34203D05A5DC254A5
:1031E8000133F4E70320F6E710C0030838B50446B6
:1031F8000D4672B60A4601460020FFF76BFF62B61D
:10320800042806D172B601202A462146FFF762FF3C
:1032180062B638BD38B5124B1C68D3F80058B4F103
:10322800113F09D1B5F1113F17D0002211460120F5
:10323800BDE83840FFF74EBFB5F1113F03D100227A
:1032480011461046F4E7FFF7A3FF042804D12C40E9
:1032580001340CBF0220012038BD0420FCE700BF68
:1032680000C00308044B9A689107FCD518739A6844
:10327800D207FCD5187B70470000015870B50C4682
:10328800451E8E18B44200D170BD15F8010FFFF726
:10329800E9FF04F8010BF5E7084611461A46FFF75F
:1032A800EDBF000070B5064E04464518A54200D192
:1032B80070BD3078FFF7D6FF04F8010BF6E700BFC2
:1032C8006402002008461146FFF7ECBF38B50446F3
:1032D8004518AC4200D138BD14F8010BFFF7C2FF06
:1032E800F7E708461146FFF7F1BF000010B58CB0AC
:1032F8002822002102A80EF0AFF84FF0B0431C4C72
:103308005A6E42F001025A665B6E03F001030193A4
:10331800019BFFF79DFD082208924FF4827200235B
:1033280003924FF40072CDE90533CDE909330293D6
:10333800079207234FF4E06202A920460B930492F8
:103348000BF0D0FE636823F010036360636823F01A
:1033580008036360236843F040032360A3689B0766
:10336800FCD5237B034BFF221A700CB010BD00BFA5
:1033780000000158640200201B4B10B4DC69A00651
:1033880011D51A6891060ED5184819495A6A038842
:1033980009880133C3F30A0389B299421FBF15494B
:1033A800D2B2CA54038010481F232206036215D5DF
:1033B80003681B0612D5104B104A1988138889B266
:1033C8009BB299420CD013880133C3F308031380CE
:1033D80013880B4A9BB2D35CDBB2836210BC704784
:1033E80010BCFEF7E5BD00BF00440040A83F002028
:1033F800A63F0020A6370020AC410020AA410020AB
:10340800AA3F00200A490B4A08B50B8812880133E5
:10341800C3F3080392B29A4207D0074AD054074828
:103428000B80FEF7AAFD012008BD0020FCE700BFC5
:10343800AC410020AA410020AA3F002000440040DF
:1034480038B504464518AC4200D138BD14F8010B14
:10345800FFF7D8FFF7E70000034B1B780846114633
:103468000BB9FFF7EDBF704730000020034B1B7806
:10347800084611460BB1FFF7E3BF70473000002044
:10348800054B064A1B8810880133C3F3080380B232
:10349800181A18BF01207047AC410020AA4100202B
:1034A80008B5044B187820B1FFF7EAFFB0FA80F0AE
:1034B800400908BD3000002008B5054B1B782BB922
:1034C800FFF7DEFFB0FA80F0400908BD0020FCE7F6
:1034D80030000020054B064A1B8812889B1A98B2B8
:1034E8001B0444BF00F5006080B27047A83F00206D
:1034F800A63F0020024B187808B1FFF7EBBF7047D2
:10350800300000200848094A0188138889B29BB214
:103518009942F9D013880133C3F30A03138013883F
:10352800034A9BB2D05C7047A83F0020A63F00200A
:10353800A6370020024B187808B1FFF7E3BF7047A1
:1035480030000020034B1B780BB9FFF7DBBF0020CE
:10355800704700BF3000002070B588B00C460646A2
:1035680015460021202268460DF076FF231E18BF5D
:1035780001231B03CDE9023569460C230348019654
:10358800049405930BF09AFF08B070BD0044004006
:1035980010B5064C236823F001032360FFF7DCFF16
:1035A800236843F00103236010BD00BF00440040BE
:1035B800044B1B7808461BB100221146FFF7E8BFF1
:1035C800704700BF3000002000221146FFF7E0BF1F
:1035D80073B5314C236823F00103082523600126C5
:1035E8004FF40030FEF7B1FC0421CDE90056032367
:1035F8000A224FF09040FFF7B3FA03231A462946F0
:10360800CDE900564FF09040FFF7AAFA0022114684
:103618004FF4E130FFF7A0FF636823F49043636041
:10362800A36823F02A03A3601C4BB02283F8252348
:1036380020225A602046FEF7BBFCFEF7B0FC402370
:103648002362174B00211980164B1980FEF79EFC48
:10365800154B1980154B1980636823F40063636068
:10366800A36823F00803A360636823F480436360BE
:10367800A36823F02203A360A36843F48053A360E4
:10368800236833432360E3699A02FCD5E3695B024C
:10369800F9D502B070BD00BF0044004000E100E071
:1036A800AA410020AC410020A63F0020A83F0020EE
:1036B80008B5FFF78DFFBDE80840FEF79DBF000085
:1036C80008B5FFF7F5FFFFF76BFC054B1B782BB927
:1036D800BDE808404FF4E130FFF776BF08BD00BFF2
:1036E80030000020084BDA6892070CD4074A012101
:1036F80011805A6A10325A636FF002021A61DA684E
:1037080042F00202DA607047004801409830002019
:10371800314A13699B0710B525D56FF00203136171
:103728002E4B1B88516B11FA83F353632C4B19886A
:1037380089B2002945D01988013189B219801988C0
:1037480089B2022910D84FF0904320229A62254A64
:1037580013880133C3F3080313801388224A9BB2EA
:10376800D35C224A138010BD198889B20A290FD860
:103778001E4B1A8812F0010F4FF090424FF02001B3
:1037880014BF916191621A88C2F34E021A80EAE767
:10379800198889B20B294FF090414FF020008861B9
:1037A80009D1134A11880F4A128889B292B29142FC
:1037B800D9D00122EAE7D16821F00201D1600022C4
:1037C800E4E74FF0904020248461D06820F00200A4
:1037D800D0601980C7E700BF00480140943000203E
:1037E800983000209C3200209A3000209A32002025
:1037F8009E32002009490A4A08B50B88128801330D
:10380800C3F3080392B29A4206D0064AD0540B80FA
:10381800FFF768FF012008BD0020FCE79E3200206A
:103828009C3200209A30002038B504464518AC4236
:1038380000D138BD14F8010BFFF7DCFFF7E70846A5
:103848001146FFF7F1BF0000B0F5614F0D4A0E4B6E
:103858000CD0B0F5E13F10D0B0F5165F0DD172B6BF
:1038680040F24131118040F2E24203E072B68B210E
:103878001180D0221A8062B6704772B64521118035
:103888005422F7E7943000209630002030B5032307
:1038980089B0052220214FF09040FFF7E6F9194C36
:1038A8004FF0904320259D61204601224FF0FF31C3
:1038B800FFF75EFA2A46002168460DF0CDFD6A46FC
:1038C800012120460BF082FC0F4AD2F8183823F069
:1038D8000403C2F818386FF0020323610B4B9022DF
:1038E80083F81D234FF000521A604FF4E130FFF7C0
:1038F800ABFF074A00231380064A1380064A138049
:1039080009B030BD004801400040014000E100E03E
:103918009C3200209E32002098300020FFF7B6BF6E
:10392800024B1A68024B1A60704700BFBC41002066
:10393800C40A0020054A064B1968136899421DBF3E
:103948000133012013600020704700BFC40A002023
:10395800BC410020034A044B11681B780B441360D8
:10396800704700BFBC41002074020020014B18685A
:10397800704700BFBC4100200148FFF702BA00BFF2
:1039880000440140014B586A80B27047004401402E
:1039980008B5FFF7F1FFBDE80840FFF7C1BF000019
:1039A800F8B51A4C1A4F90220021201D0DF054FD35
:1039B8001623062663800F23A38032462C2339461C
:1039C800A0192680FDF7F2FD124A134B0025C4E921
:1039D8000D2339462C23324604F13E00A587FDF716
:1039E800E5FD0223E3660D4984F87250012304F1D2
:1039F8007C00A4F87030C4E91D550DF08DFD7F23BF
:103A080084F89130052384F89230F8BD0C05002025
:103A1800042A010802000F00030005005A170108D4
:103A280070B5094E05460C46415C30460DF02BFD3D
:103A3800034628B1831B0133DBB2282B28BF0023A0
:103A4800F35C2B5570BD00BFFC30010870B50C4607
:103A5800114606460DF060FD44B1002505213046AB
:103A68000135FFF7DDFFEBB29C42F7D870BD0000CF
:103A7800F7B5054605F11106214C224A01463601E3
:103A88006846FFF7E3FFB01C694620440DF044FD8B
:103A9800264404EB0512002302277772A2F81A3194
:103AA800142202FB05400421012280F850104FF433
:103AB800807540F20111A0F84A70C264A0F8522043
:103AC80080F85520A0F85650A0F8581040F203206E
:103AD80084F83430E784A562A08584F82E2084F821
:103AE800302084F83330C4F83A30C4F83E30C4F893
:103AF8004230A4F84610A4F8481003B0F0BD00BF47
:103B0800500300201A170108F7B50546AF4CB04A14
:103B180005F11106014637016846FFF797FFB81C03
:103B2800274469462044FDF73DFC7B7AA94A052BCA
:103B380088BF022304EB061088BF7B721188437A82
:103B480041FA03F3DF070FD40223437261B1480738
:103B5800C1F3800308D441FA03F7FF07D8B240F154
:103B6800D18104EB0613587204EB05112B0191F86F
:103B78001A01052802D9002081F81A01E71850888F
:103B880097F81A1140FA01F1C90711D4012187F8F1
:103B98001A1168B18707C0F3400109D440FA01FC43
:103BA8001CF0010FCFB200F0B281E11881F81A7150
:103BB800E11891F81B01032802D9002081F81B01A4
:103BC80004EB0616717A012903D9042901D00021D2
:103BD8009180E618908896F81B1140FA01F111F0CF
:103BE80001010ED186F81B1158B110F0010108D15E
:103BF80040FA01F7FF07CEB240F18E81234483F8E3
:103C08001B61142303FB054191F84A00052802D9DA
:103C1800022081F84A0003FB054393F84B1004295E
:103C280002D9002183F84B10142303FB0543918E1E
:103C380093F84B0041FA00F0C00712D4012083F832
:103C48004B0071B18807C1F340030AD441FA03F667
:103C5800F707D8B240F16581142303FB054383F8C5
:103C68004B00142303FB054393F84C10032902D996
:103C7800012183F84C10142000FB0540D18E90F8E8
:103C88004C3041FA03F313F0010310D180F84C30A3
:103C980069B111F001030AD141FA03F6F607D8B267
:103CA80040F14481142303FB054383F84C0014239B
:103CB80003FB054393F84E10012902D9002183F82C
:103CC8004E10142000FB0540118F90F84E3041FA39
:103CD80003F313F0010310D180F84E3069B111F0ED
:103CE80001030AD141FA03F6F707D8B240F123815C
:103CF800142303FB054383F84E00142303FB0543F9
:103D080093F84F10022902D9002183F84F1014208C
:103D180000FB0540518F90F84F3041FA03F313F040
:103D2800010310D180F84F3069B111F001030AD1B5
:103D380041FA03F6F607D8B240F10281142303FBD7
:103D4800054383F84F00142303FB054191F84D0008
:103D5800022802D9002081F84D0003FB054393F89F
:103D68005010052902D9042183F85010142303FBAD
:103D7800054191F85200012802D9012081F852002A
:103D880003FB054393F85510012902D9012183F853
:103D98005510142303FB054393F85310022902D945
:103DA800002183F85310142000FB0540918F90F8F0
:103DB800533041FA03F313F0010318D180F853305C
:103DC800A9B111F0010312D106E000BF5003002091
:103DD8001A1701080C05002041FA03F6F707D8B2B4
:103DE80040F1B380142303FB054383F853001423E5
:103DF80003FB054191F856000C2802D9002081F8F0
:103E0800560003FB054393F84C10012906D193F89B
:103E18004F10022904BF002183F84F10142303FB1D
:103E28000543012183F8571040F20111A3F85810F7
:103E380094F82630052B02D9022384F8263094F80A
:103E48002730042B02D9002384F82730B2F86C00FD
:103E580094F8273040FA03F313F0010F804B0ED18A
:103E6800012184F8271050B18607C0F3400106D419
:103E780040FA01F7FF07CEB26CD583F8276094F8B3
:103E88002810022902D9002184F8281094F8291052
:103E9800022902D9012184F82910B2F86E1094F889
:103EA800292041FA02F212F001020CD184F82920EB
:103EB80049B111F0010206D141FA02F6F607D0B273
:103EC8004CD583F8290094F82A200C2A02D900221C
:103ED80084F82A2093F832200C2A02D9002283F889
:103EE800322093F82B20042A02D9002283F82B20B1
:103EF80000225C49104611F9014F14F1780F31DAAC
:103F0800087031E00133102B7FF425AE2CE6013127
:103F180010297FF443AE4BE6013110297FF468AED7
:103F28006FE60133102B7FF491AE9AE60133102B24
:103F38007FF4B2AEBBE60133102B7FF4D3AEDCE6E0
:103F48000133102B7FF4F4AEFDE60133102B7FF420
:103F580043AF4CE7013110298AD190E70132102A8A
:103F6800AAD1B0E7782CCBDC0132D2B20C2AC2D16C
:103F78003D490022012011F8014F0132022CD2B232
:103F880088BF0870042AF6D193F83420012A02D990
:103F9800002283F83420354AB2F8701093F83420A0
:103FA80041FA02F212F001020CD183F8342049B12F
:103FB80011F0010206D141FA02F4E407D0B211D59A
:103FC80083F8340093F82C20052A02D9032283F8B9
:103FD8002C2093F82D20032A08D80AD1002283F830
:103FE800342006E00132102AE5D1EBE7022283F8FB
:103FF8002D2093F82E20022A02D9012283F82E20A0
:1040080093F83020022A02D9012283F8302093F84D
:1040180033200C2A02D9002283F83320142101FB13
:104028000531FF2203EB05154FF6FF7081F851208B
:1040380081F8542083F82F2083F831204FF0FF3285
:10404800C5F81C21A5F820011A629A84A1F85A2003
:10405800A1F85C2083F83500DA861A8703B0F0BD32
:104068005003002089030020950300200C05002040
:1040780030B5052804D8DFE800F01E0423191E23F4
:10408800FEE720251F2400220F21104B98700338CB
:10409800012894BF002001201A7119771A74A3F817
:1040A8004850A3F84A409873987630BD09256F2484
:1040B80000220721E9E71425322400220A21E4E737
:1040C8003525132401221921DFE700BFF40200205F
:1040D8002DE9F74300F11105944F954C2D0105F199
:1040E8000209B94406464846FDF778F93D440421DB
:1040F800804601900DEB0100FDF788FF6B7A637035
:1041080007EB0613E083C4F8088093F81A01C4F893
:1041180014804FF0010884F85180A4F85280A4F864
:104128005480FFF7A5FF142303FB0673350193F8AA
:104138004A20804B13F92230237323766378052BAA
:1041480009D8DFE803F0030656585A5C0023637366
:1041580001E084F80D80784B617B1B88617603F061
:104168000102980748BF42F00202A2855A0748BFD9
:10417800A28D84F8281044BF42F00402A2851807D3
:1041880042BFA28D42F01002A285DA0642BFA28D7C
:1041980042F02002A285980642BFA38D43F008038F
:1041A800A385002384F82A3021B94846FDF736F95B
:1041B80084F82A003D4495F81B2184F829206AB127
:1041C800E18B02EB021303EB03230B44E383A368A5
:1041D8004FF0113101FB0233A360636194F828505A
:1041E800E38B6362052D0CD8DFE805F00C515315FD
:1041F80047490223ABE70423A9E70523A7E70323DD
:10420800A5E7FEE7A378032B03D8DFE803F003460E
:104218004403FEE71825DFF824C184F820501CE980
:104228000F008CE80F0040F2E2432846A4F84C3017
:10423800FCF758FC4FF07F51FCF7A8FCFCF7A8FEF0
:10424800B4F848204FF47A73B3FBF2F3A4F8403083
:10425800142303FB06736D08052D93F85030C0B284
:1042680038BF0525A4F84E0084F85050052B3DD8DA
:10427800DFE803F0154236393C3F0225CBE7A37847
:10428800022B08D0052B06D0012B06D0FEE71925F6
:10429800C1E70625BFE70C25BDE71225BBE74FF4AC
:1042A80016536364002384F8563084F85830142376
:1042B80003FB067696F84C20032A03D096F84F3075
:1042C800022B02D1012384F85630511E4B424B4138
:1042D80094F8561084F8573089B1012A0FD1FEE7B7
:1042E8004FF41643DDE74FF46143DAE74FF4E13367
:1042F800D7E74FF46133D4E74FF49643D1E72378F7
:10430800142000FB037393F84C30022B07D10123D0
:1043180084F8583021B194F858301BB1FEE709B938
:10432800012AF8D003B0BDE8F08300BF5003002095
:10433800F4020020042A01080C05002024030020B0
:1043480002484FF4DE72FF210DF086B850030020BA
:1043580002484FF4DE71FEF749BF00BF500300204A
:1043680002484FF4DE71FEF72DBF00BF5003002056
:1043780008B5FFF7F5FF034B1878BDE80840FFF7CD
:10438800C3BB00BFF402002038B5FFF7D9FFFEF722
:1043980041FF04280CD0FFF7D3FFFEF73BFF0428AA
:1043A80003D1FFF7DDFF042806D0FFF7C9FF03E0BC
:1043B800FFF7D6FF0428EED12F4930482F4C1022A2
:1043C8000DF06EF838B12E49102220460DF068F82D
:1043D80008B1FFF7B5FFA38AB3F5215F28D008D34A
:1043E8000025E8B20135FFF743FB0A2DF9D1002378
:1043F800E3774FF42153A382012522691E491F4800
:1044080042F641039A424FF010021CBF2361012576
:104418000DF046F870B1184918481022FDF744F914
:10442800184919480822FDF73FF9FFF791FF03E003
:104438000025E2E7002DF8D1E37F104A092B84BF5D
:104448000023E377E17F1420002300FB01440133BC
:1044580094F84C0082F84C000A2B02F11402F6D1B1
:104468000A4C2170FFF79CFA2078FFF74DFB207863
:10447800BDE83840FFF72CBE211701085003002083
:10448800321701084317010802050020F402002032
:1044980030B5C01A1628A8BF16206FF00805A84224
:1044A8009DF80C40B8BF2846A042C8BF20B2C0B291
:1044B80008701844107030BD07B5084611461A46F2
:1044C800162300930023FFF7E3FF03B05DF804FB16
:1044D8000129F7B5054600D9FEE70B4E06EB011397
:1044E8001C460F016278F15D03619B780BF028FB95
:1044F800E3790193A379009322796379E1782846D7
:104508000BF045FB03B0F0BDC846010838B5836819
:1045180004466BB1024652F8183BDD6900F11903F5
:10452800A847217E20460222BDE838400BF091BB07
:1045380038BD000070B58160897A86B0044601B143
:1045480001210BF0D6FA20460BF065FC20460BF053
:104558003DFC217BFF2903D0FA2220460BF042FCC8
:10456800A3685B7A013B042B04D8DFE803F0043E20
:104578003E414100FEE7E922E12120460BF070FCB4
:10458800012120460BF0FFFB962120460BF03CFC56
:10459800382120460BF04EFC20460BF053FCA36854
:1045A800204693F90810FFF7B1FFA3689D7A15B369
:1045B80019782046FFF78CFF0022114620460BF0A1
:1045C800B2FA0023009340F2032220464FF6FF710F
:1045D8000BF00CFB20464FF6FF710BF02EFB20462C
:1045E80006B0BDE870400BF0DEBBDB22D721C4E784
:1045F8006F226B21C1E70F4B0F49DE8B0F4B6361B5
:104608004CF250330093204619230B220BF038FC50
:104618000123CDE903335B23CDE901531023194668
:104628002046009504220BF069FC314620460BF029
:1046380089FCC1E7F4020020A0860100A846010811
:1046480010B504460BF0AFFB20464FF6FF71BDE8EE
:1046580010400BF0F2BA000038B58168036891F990
:104668000810DD69044600F1190300F11802A84793
:10467800A3689A7A42B11A78012A00D9FEE7044B56
:1046880003EB0213236138BD024B6361FBE700BFF4
:10469800C8460108A846010810B50A4CA06858B1D8
:1046A800236923B9636913B92046FFF7D5FFA368C7
:1046B8009B7A23B123699868A0F57A7010BD636965
:1046C8009869F9E7A0320020836810B5044683B1E1
:1046D80003691BB943690BB9FFF7BEFFA3689B7A4F
:1046E8001BB12369B3F90C0010BD6369B3F91C0051
:1046F800FAE71846F8E7836810B5044643B103693A
:104708001BB943690BB9FFF7A7FF94F9190010BD4E
:104718001846FCE790F8D8305BB190F8D930074AD2
:10472800180102EB03139B681978135853F82100FA
:104738007047837D0E3350F823007047A429010881
:104748002DE9F3419DF824701646402F88464FF016
:104758005B024FF0000104461D4628BF40270CF0BD
:104768007BFE904BDB8B23803278A37862F30203C5
:10477800A3707178C90001F00801DBB203F00703E8
:1047880041EA08111943A1707279E37862F30003D2
:10479800E370B279637962F38613637196F9020064
:1047A800FCF72DFDE37860F34703E370F279237992
:1047B80062F300032371327A62F34603237132797C
:1047C800DBB202F0010203F07F0343EAC213237154
:1047D80032796379C2F3450223F03F0313436371CF
:1047E800A37967F34703A3712B78AA78E3716B78F1
:1047F80002F01F0203F0070343EAC20323726A8828
:10480800637AC2F3451223F03F03134363722A7994
:10481800DBB202F0030203F03F0343EA8213637240
:10482800AB88C3F38703A3726A79E37AC2F3800281
:1048380023F001031343E372AA79DBB202F07F028B
:1048480003F0010343EA4203E372EA88237BC2F3DD
:10485800C31223F00F03134323732B7AAA7AE3734B
:104868006B7A02F01F0203F0070343EAC2032374C2
:104878006A89637CC2F3451223F03F0313436374D0
:104888002A7BDBB202F0030203F03F0343EA821300
:104898006374AB89C3F38703A3746A7BE37CC2F3B5
:1048A800800223F001031343E374AA7BDBB202F016
:1048B8007F0203F0010343EA4203E374EA89237D9C
:1048C800C2F3C31223F00F03134323752B8ADB08AB
:1048D80063756B8ADB08A375AB8ADB08E375EB8A23
:1048E800DB0823762B8BB3F5C06F4ED2B3F5007F70
:1048F80094BF00230123227B63F3051222736B8B81
:10490800B3F5C06F43D2B3F5007F94BF00230123F2
:10491800227B63F387122273AB8BB3F5C06F38D257
:10492800B3F5007F94BF00230123227D63F30512B2
:104938002275EB8BB3F5C06F2DD2B3F5007F94BF12
:1049480000230123227D63F38712089B22751F44ED
:1049580004F11802BB4220D14FF6FF7321460DF136
:1049680006000D22ADF80630FDF738FB2146BDF8EC
:10497800063021F80D3F4C22FDF730FBBDF806301C
:10498800A4F8593002B0BDE8F0810223B3E702234E
:10499800BEE70223C9E70223D4E713F8011B02F894
:1049A800011FD7E7F402002013B59DF81040CDE9A8
:1049B800003413460A460021FFF7C2FE02B010BDBC
:1049C80013B5144B0288DB8B9A4204461DD18378B9
:1049D80003F0F003102B01D0202B18D1A379A52BBD
:1049E80015D84FF6FF730DF1060059222146ADF890
:1049F8000630FDF7F3FAB4F85900BDF80630C01ACE
:104A080018BF0120800002B010BD0120FBE7022082
:104A1800F9E700BFF402002030B5374B027893F86D
:104A2800261061F30302027093F8271061F307124E
:104A3800027093F82810427861F30302427093F8E9
:104A4800291061F30712427093F82A10827861F3F3
:104A58000302827093F83210827961F30302827143
:104A680093F82B10827861F30712827093F8341050
:104A7800C27961F30302C27193F82C10C27861F312
:104A88000302C27093F82D1061F30712C27093F8F5
:104A98002E10027961F303020271427993F8301003
:104AA80061F30302427193F83310827961F30712BC
:104AB800827103F1390100F10A0200F1160411F9BB
:104AC800015F02F8015FA242F9D193F84610C27D56
:104AD80061F30102C27593F8471061F38302C2754E
:104AE80093F8481061F30512C27593F8493063F3DF
:104AF8008712C27530BD00BF500300200278314BC9
:104B0800C2F3030230B583F826200278C2F30312F9
:104B180083F827204278C2F3030283F828204278DA
:104B2800C2F3031283F829208278C2F3030283F8C0
:104B38002A208279C2F3030283F832208278C2F3F2
:104B4800031283F82B20C279C2F3030283F83420BE
:104B5800C278C2F3030283F82C20C278C2F303128E
:104B680083F82D200279C2F3030283F82E204279BC
:104B7800C2F3030283F830208279C2F3031283F868
:104B8800332003F1390100F10A0200F1160412F989
:104B9800015F01F8015FA242F9D1C27DC2F30102AF
:104BA80083F84620C27DC2F3810283F84720C27D84
:104BB800C2F3011283F84820C27DC2F3811283F840
:104BC800492030BD500300201FB58DF80C3001235B
:104BD800019303AB009313460A460221FFF7B0FD89
:104BE80005B05DF804FB0000F0B5224D012385F8FF
:104BF8007230044685B0B0F80900FCF7FCFC686721
:104C0800B4F80B00FCF7F7FC1422A86704F10D01B7
:104C180005F17C00FCF75AFD94F9213085F89130B4
:104C280094F8223085F8923004F12300FFF766FFEC
:104C38006E4604F1410304F1510718685968324679
:104C480003C20833BB421646F7D10B482C2308226F
:104C58006946FCF72DFC94F85130A5F86C3094F8AF
:104C68005230A5F86E3094F85330A5F8703005B07E
:104C7800F0BD00BF0C0500204A0500202DE9F047D3
:104C880092B0DFF890A0244C0DF108084FF04009CD
:104C980005460E46174600214A4640460CF0DCFB06
:104CA8009AF8001004EB011122230DF10A000622E4
:104CB80001F589718DF80830FCF7F6FC9AF80010B8
:104CC80004EB011205A892F81A3192F8194103F081
:104CD8000F0304F00F0444EA031492F81B3103F0A5
:104CE8000F0344EA0324BDF8103023F47F6323F054
:104CF8000F031C43ADF81040FFF78EFECDE9008985
:104D08003B46324602212846FFF71AFD12B0BDE89D
:104D1800F08700BFF402002050030020034B044931
:104D28001A68044801FB020018607047E00500207B
:104D38000D6619005FF36E3C38B50A4A0A4D1378C0
:104D48002C78A34203D101332B70287838BD147016
:104D5800FFF7E4FF6FF0004398423CBF01342C702A
:104D6800F3E700BFDD050020DE0500200A4A1268CF
:104D780082600A4A002383808371838103841368D5
:104D880003615368064A4361136883615368C361CA
:104D98004EF6602303607047BC41002049170108A4
:104DA8005217010810B5124C0220FFF761F920468E
:104DB800FFF746FC6FF07F012046FFF7A7FBA368CB
:104DC80003B9FEE7002120460AF07CFE4FF47A7012
:104DD800FEF722F9204601210AF08BFEA36820463F
:104DE8001978FFF775FB2046FFF72AFC10BD00BFB6
:104DF800A032002008B590F8203002468BB9FEF7A3
:104E08009AF810B982F8210008BD92F821300133D0
:104E18005BB2312B82F82130F6DD012382F8203095
:104E2800F2E7FEF788F818B1322382F82130EBE771
:104E380092F82130013B5BB2002B82F82130D8BFB9
:104E480082F82000E0E70000134B90F820201B6850
:104E5800CAB182689B1AB3F57A6F01D901234371ED
:104E68000379ABB10D4B427B1B781AB1022B1CBFE7
:104E7800032202739A1E534253414373837953B1F9
:104E88000323037370478360EAE701230371F8E79C
:104E98004379002BF9D17047BC410020B5060020AA
:104EA8000346007B821E012A4FF0000202D893F8C5
:104EB800201009B91A7370471046704770B51B4C1B
:104EC8001B4E05465B22002120460CF0C5FA2B69D3
:104ED80023606B696360174B174D1B7831789A1EF6
:104EE80053425341627A05EB011163F30002627287
:104EF80001F58971062204F10A00FCF7D5FB337825
:104F080005EB0315237C95F81A2162F30713237424
:104F180095F81B21637C592162F3030320466374CF
:104F2800FDF774F8A4F8590070BD00BFE532002001
:104F3800F4020020B5060020500300200A4A38B5C4
:104F4800138801339BB2502B04460D4601D81380B9
:104F580038BD002305491380FDF71CFD294620466E
:104F6800FDF718FDF4E700BFC80A002094180108EF
:104F78002DE9F84F154604460F466B496B4EFDF771
:104F880009FD29462046FDF705FD694B0022012F42
:104F98001A800FD10823B362102746F2A810B76110
:104FA800FEF73AF8B762FEF737F829462046FFF7CA
:104FB800C5FFF2E7BB1E10220C2B00F2A880DFE829
:104FC80003F03141521C07A6A6A662626262620023
:104FD800564E4FF010080827C6F8188046F2A81059
:104FE800B762FEF719F8C6F82880B761FEF714F81B
:104FF80029462046FFF7A2FFEDE74C4E4FF0100878
:105008000827C6F8188046F2A810B761FEF704F81A
:10501800C6F82880B762FDF7FFFF29462046FFF74C
:105028008DFFEDE7B262414E082746F2A810B7613E
:10503800FDF7F2FFB762FDF7EFFF29462046FFF7BD
:105048007DFFF2E70823B361384E102746F2A81017
:10505800B761FDF7E1FFB762FDF7DEFF294620469D
:10506800FFF76CFFF2E7B261304E082746F2A8104E
:10507800B761FDF7D1FFB762FDF7CEFF294620469D
:10508800FFF75CFFF2E7A7F1090BDFF8A0805FFAF2
:105098008BFB00264FF0100A5E453CBF0823C8F87A
:1050A80018304FF0040946F2A810C8F818A0FDF708
:1050B800B3FFC8F828A0FDF7AFFF09F1FF3929466B
:1050C8002046FFF73BFF19F0FF09ECD10823C8F889
:1050D80028304FF0040946F2A810C8F818A0FDF7C8
:1050E8009BFFC8F828A0FDF797FF09F1FF3929466B
:1050F8002046FFF723FF19F0FF09ECD10136A7F18D
:105108000803F6B2DBB2B34238BF0026C4E708236F
:10511800B261B3614CF25030FDF77EFF294620465C
:10512800FFF70CFFF6E700BF9418010800040048D9
:10513800C80A002037B50C461D4668B907480DF166
:1051480006020DF107010AF0DDFD9DF8061003487F
:105158002B4622460AF087FC03B030BDA03200205F
:1051680070B50D4616461C460146A0B9FDF7C5FEAA
:105178000B4833462A460AF04FFC09484FF6FF71A0
:105188000AF05BFD0648A1010AF070FDBDE8704019
:105198007D20FDF741BF0248FFF752FA70BD00BFFE
:1051A800A032002037B50C4638B91A48836833B99D
:1051B800812281F88C2081F88E3003B030BD9D7A31
:1051C800DDB101F18E020DF106010AF085FD94F9B9
:1051D8008E30002B04DABDF806201344ADF80630F3
:1051E800BDF90630002B0FDB4FF6FF73ADF8063024
:1051F800BDF8063084F88C30DFE70DF106010AF0BF
:10520800B2FE84F88E50EBE77F33F1DA4FF6817304
:10521800ECE700BFA032002070B5114C0D460646E1
:105228005B23224621462846FFF784FFD6E906136A
:10523800206862689A4208BF88420ED120465921E8
:10524800FCF7E4FEB4F85940231A5C425C41284656
:105258000449FFF7A7FF601C70BD0024F7E700BFF3
:10526800DA2E0020EC2F00200A4608B50146014836
:10527800FFF77EFE2C00002000B591B0044668467A
:1052880016461D460CF048F9184968460CF0ECF82B
:1052980030460AF0EFFA014668460CF0E5F8144982
:1052A80068460CF0E1F8134B684653F82510124D88
:1052B8000CF0DAF8114968460CF0D6F89DF8483039
:1052C800684655F823100CF0CFF80D4968460CF0E5
:1052D800CBF89DF84C30684655F823100CF0C4F80C
:1052E80008486A462146FFF743FE00BF5B170108DE
:1052F80062170108000000201C0000206717010841
:105308006E1701082C00002000230370837043707F
:1053180003714371C370704703780022022B4271F6
:1053280004D0032B09D0012B16D0FEE7012303710B
:10533800437183784370C370704783784278991AB1
:10534800A3EB020218BF012112F0060F14BF0122BD
:10535800002201714271EDE7027170470278817095
:10536800002A0CBF022203220270FFF7D5BF0000FB
:1053780008B5437802789A4213D0052B8ABF0523D3
:1053880003700370027888BF4370064B064813F910
:105398002210064B19731976836813B11972FFF737
:1053A800B5F808BD042A0108A0320020F402002044
:1053B80010B50AB9437010BD541E0B2CFBD803322C
:1053C800D2B231F8122040F27E618A4203D95AB231
:1053D80022EAE2721AE0B2F5C17F02D29A1E52B2F4
:1053E800F6E740F2A9518A4204D95AB2052A1CDCD0
:1053F800DA1EF4E740F256218A4218D940F2D44125
:105408008A4208D95AB2042AF2DD02229A42C8BF57
:105418005AB24270CFE7B2F54B7F04D25AB2032A90
:10542800E6DD0122F2E75A1ED9E70322EEE7002261
:10543800ECE70000074B282202FB00339B681A7830
:10544800542A05D15878A0F178035842584170473A
:10545800002070471C2A0108074B282202FB003352
:105468009B681A78522A05D15878A0F178035842D7
:1054780058417047002070471C2A0108074B282212
:1054880002FB00339B681A78542A04D1587878387C
:1054980018BF012070470120704700BF1C2A01086F
:1054A80028230B4A434310B5D1580446FFF7D4FFCD
:1054B80048B92046FFF7BEFF064B1B7828B103EB1F
:1054C800830301EB8301084610BD01EB0311FAE7E2
:1054D8001C2A0108F40200202B2838B505461AD8E2
:1054E8000E4B282202FB00334CB21B79022B0DD045
:1054F800FE2B10D1FFF7D4FF0378E4B2A3420AD001
:1055080004702846BDE83840FFF7B8BFFFF7C8FF6A
:1055180090F90030F2E7002038BD00BF1C2A0108CE
:105528002B2838B504460D4619D80E4B282202FB05
:1055380000331B79FF2B12D1FFF7B2FF0622294651
:10554800FCF7D7F858B92046FFF7AAFF29460622E4
:10555800FCF7BCF82046BDE83840FFF78FBF0020B5
:1055680038BD00BF1C2A01082DE9F043074615463F
:105578002820394A41435018012B046A87B025D1A5
:105588005258364B9A4235D0A3F1CE018A4233D0D5
:105598003349F23B9A4208BF0C46FF238DF800308E
:1055A8004FF0000801262046FAF7ECFD5FFA88F96B
:1055B800484529D806F118036B44AE4203F8188C05
:1055C80030D80020387007B0BDE8F083022BE4D152
:1055D8005258224B9A4211D0591C8A4210D0A3F13A
:1055E800CE018A420ED0A3F1F2018A420AD01D49A7
:1055F800EC3BCFE71C4CD0E7194CCEE71B4CCCE773
:105608001B4CCAE71B4CC8E714F809302C2B06D1F1
:1056180006F118036B44013603F8188CF6B208F14A
:105628000108C0E705F118030DEB0305002315F881
:10563800182C15F9175C0132D2B29918C9B2A942CF
:1056480007EB030003DB002303700120BBE7615C69
:1056580001700133DBB2F0E71C2A0108690400205D
:1056680075170108A9170108C61701084B18010882
:1056780029180108FF170108054B282202FB0033EF
:105688005B6A0BB1188870474FF6FF70704700BF10
:105698001C2A01080B4B282202FB003370B51E6A36
:1056A8003046FAF76FFD002201461446D5B2631C56
:1056B800A942D8B200D870BD735D01322C2B08BF47
:1056C8000446F3E71C2A01080F4B282202FB00338B
:1056D80010B51B79FE2B014614D1FFF7CDFF044608
:1056E8000846FFF7D7FF002201461046D3B2994279
:1056F80000D810BD44FA02F3DB0744BF431CD8B2FC
:105708000132F3E7FF20F4E71C2A01082DE9F04FE6
:105718004FF0000A1D4E93B004460F46D146D6F806
:1057280008805FFA8AF54FF0000B0DE018F80300C7
:1057380001920BF06DFEC3B2019A202B08BF5F23C4
:1057480002F8403C0BF1010B5FFA8BF340460193E2
:10575800FAF718FD019B03F1480298426A44E5D81C
:1057680002F8409C394602A8FAF702FD48B10AF14E
:10577800010ABAF12C0F06F12806D0D100252846D7
:1057880000E00120257013B0BDE8F08F1C2A010845
:105798002DE9F0411D4E282303FB016604463379A9
:1057A800FE2B0D46174618D0FF2B21D0022B28D1EF
:1057B8000846FFF775FE214690F9000009F0FDFF45
:1057C80035692B783BB1124920460BF04DFE29462E
:1057D80020460BF049FE012015E00846FFF760FE61
:1057E8003B46027829462046BDE8F041FFF7BCBE9B
:1057F8000846FFF755FE062201462046FBF766FFDE
:10580800E9E700202070BDE8F08100BF1C2A0108EC
:105818008B190108F8B5194B1646282202FB0633E6
:1058280000241A790470022A07460D4603D0FE2A7E
:1058380013D02046F8BD93F918209142F9DB93F96B
:105848001C309942F5DC4FF0000165F30701304642
:10585800FFF742FE01243870EBE70029E9DB304608
:10586800FFF718FFA842E4DD3046FFF705FF40FACE
:1058780005F313F00100E6D10446DAE71C2A010813
:105888002DE9F84300230370124B1746282202FB28
:10589800073306461B79FF2B0C4603D00025284604
:1058A800BDE8F8830846FAF76DFC0628F6D104F13E
:1058B800FF3804F1050918F8010FFBF759FD0546F3
:1058C8000028EBD0C845F6D121463846FFF728FE18
:1058D8003070E4E71C2A0108F8B5104E4FF0280C88
:1058E8000CFB0266002736790770FE2E04460B462D
:1058F800154603D0FF2E0BD0022E0DD118460BF003
:10590800F3FC2A4601462046BDE8F840FFF782BF6F
:10591800BDE8F840FFF7B4BF3846F8BD1C2A0108B7
:1059280010B504460846B2B9FBF778FD042812D82A
:10593800DFE800F003090B0D0F00084920460BF0C3
:10594800EBFD012010BD0649F8E70649F6E70649D0
:10595800F4E70649F2E70020F4E700BF78180108E9
:105968007D18010882180108871801088D18010898
:1059780010B504460068FDF70DF802492068FDF7E8
:1059880009F810BD931801080B1E18BF0123122A2D
:1059980014D91D2A14D9312A8CBF08220522037173
:1059A8000023016080F885304371C0F8883080F8A2
:1059B8008C3080F88D20A0F88E3070470122EEE7F9
:1059C8000322ECE790F88530642B08D8C21801331D
:1059D800DBB2517180F88530184400234371704759
:1059E80008B50530FAF7C4FBB0FA80F0400908BDE5
:1059F8002DE9F043064691B0084688461546FAF761
:105A0800C1FB06F1050904464846FAF7BBFBE4B2B8
:105A1800631CC7B2BB4203DB002011B0BDE8F083B2
:105A28002246414648460BF03BFD0028F4D1231D91
:105A380022461E44BA4203461BD300F140036B447E
:105A4800002403F8404C0028E6D09DF800303D2B98
:105A5800E2D1302368468DF80030FAF793FB2346ED
:105A6800DAB2904212D868460BF03EFC286001205A
:105A7800D3E716F8011F202905D040336B440130C5
:105A8800C0B203F8401C0132D2B2D3E740326A44B4
:105A9800013312F8402C303A092AE1D9BCE700005A
:105AA80010B50D4B1B78022B04460ED10B4B93F807
:105AB800722052B19B6FB3F5215F07D20849FFF7F7
:105AC80057FF08492046FFF753FF10BDFDD0064990
