:020000040800F2
:1000000000000120A5E200088FE2000891E200084C
:1000100093E2000895E2000897E200080000000063
:1000200000000000000000000000000099E200084D
:100030009BE20008000000009DE200089FE200082B
:10004000F5E20008F5E20008F5E20008F5E2000834
:10005000F5E20008F5E20008F5E20008F5E2000824
:10006000F5E20008F5E20008F5E20008F5E2000814
:10007000F5E20008F5E20008F5E20008F5E2000804
:10008000F5E20008F5E20008F5E20008F5E20008F4
:1000900000000000F5E20008CDC80008F5E2000805
:1000A000F5E20008F5E20008F5E20008F5E20008D4
:1000B000D93D0008E53A0008F5E20008F5E200083D
:1000C000F5E20008F5E20008F5E20008F5E20008B4
:1000D0004D37000815710008F5E20008F5E2000848
:1000E000F5E20008F5E20008F5E20008F5E2000894
:1000F000F5E200080000000000000000F5E2000842
:10010000F5E20008F5E2000861C80008F5E2000821
:10011000F5E20008F5E20008F5E20008F5E2000863
:10012000F5E20008F5E20008F5E20008F5E2000853
:08013000F5E20008F5E2000809
:1001380010B5054C237833B9044B13B10448AFF319
:1001480000800123237010BDE002002000000000A1
:10015800881E010808B5034B1BB103490348AFF3D8
:10016800008008BD00000000E4020020881E01088D
:1001780010F8012B11F8013B012A28BF9A42F7D049
:10018800D01A7047034613F8012B002AFBD1181A1E
:100198000138704781F0004102E000BF83F000435E
:1001A80030B54FEA41044FEA430594EA050F08BF0A
:1001B80090EA020F1FBF54EA000C55EA020C7FEACE
:1001C800645C7FEA655C00F0E2804FEA5454D4EB4B
:1001D8005555B8BF6D420CDD2C4480EA020281EA15
:1001E800030382EA000083EA010180EA020281EA4D
:1001F8000303362D88BF30BD11F0004F4FEA01319F
:100208004FF4801C4CEA113102D0404261EB4101AD
:1002180013F0004F4FEA03334CEA133302D0524233
:1002280063EB430394EA050F00F0A780A4F10104EF
:10023800D5F1200E0DDB02FA0EFC22FA05F2801829
:1002480041F1000103FA0EF2801843FA05F359410F
:100258000EE0A5F120050EF1200E012A03FA0EFC8E
:1002680028BF4CF0020C43FA05F3C01851EBE371B8
:1002780001F0004507D54FF0000EDCF1000C7EEBD5
:1002880000006EEB0101B1F5801F1BD3B1F5001F13
:100298000CD349085FEA30004FEA3C0C04F1010432
:1002A8004FEA445212F5800F80F09A80BCF1004F5B
:1002B80008BF5FEA500C50F1000041EB045141EADD
:1002C800050130BD5FEA4C0C404141EB0101013CA6
:1002D80028BFB1F5801FE9D291F0000F04BF014695
:1002E8000020B1FA81F308BF2033A3F10B03B3F167
:1002F80020020CDA0C3208DD02F1140CC2F10C02F7
:1003080001FA0CF021FA02F10CE002F11402D8BF54
:10031800C2F1200C01FA02F120FA0CFCDCBF41EA20
:100328000C019040E41AA2BF01EB0451294330BDEF
:100338006FEA04041F3C1CDA0C340EDC04F11404CC
:10034800C4F1200220FA04F001FA02F340EA0300A3
:1003580021FA04F345EA030130BDC4F10C04C4F1E9
:10036800200220FA02F001FA04F340EA03002946C9
:1003780030BD21FA04F0294630BD94F0000F83F413
:10038800801306BF81F480110134013D4EE77FEAF6
:10039800645C18BF7FEA655C29D094EA050F08BF42
:1003A80090EA020F05D054EA000C04BF1946104623
:1003B80030BD91EA030F1EBF0021002030BD5FEA67
:1003C800545C05D14000494128BF41F0004130BD8F
:1003D80014F580043CBF01F5801130BD01F00045E3
:1003E80045F0FE4141F470014FF0000030BD7FEA56
:1003F800645C1ABF194610467FEA655C1CBF0B4651
:10040800024650EA013406BF52EA033591EA030F67
:1004180041F4002130BD00BF90F0000F04BF00215F
:10042800704730B54FF4806404F132044FF0000592
:100438004FF0000150E700BF90F0000F04BF00210B
:10044800704730B54FF4806404F1320410F0004571
:1004580048BF40424FF000013EE700BF42004FEA6C
:10046800E2014FEA31014FEA02701FBF12F07F43E9
:1004780093F07F4F81F06051704732F07F4208BFA0
:10048800704793F07F4F04BF41F40021704730B5A7
:100498004FF4607401F0004521F000411CE700BFF3
:1004A80050EA010208BF704730B54FF000050AE076
:1004B80050EA010208BF704730B511F0004502D577
:1004C800404261EB41014FF4806404F132045FEA79
:1004D800915C3FF4D8AE4FF003025FEADC0C18BF22
:1004E80003325FEADC0C18BF033202EBDC02C2F114
:1004F800200300FA03FC20FA02F001FA03FE40EAA6
:100508000E0021FA02F11444BDE600BF70B54FF0A9
:10051800FF0C4CF4E06C1CEA11541DBF1CEA135587
:1005280094EA0C0F95EA0C0F00F0DEF82C4481EAEF
:10053800030621EA4C5123EA4C5350EA013518BF0F
:1005480052EA033541F4801143F4801338D0A0FBFC
:1005580002CE4FF00005E1FB02E506F00042E0FBA9
:1005680003E54FF00006E1FB03569CF0000F18BFAF
:100578004EF0010EA4F1FF04B6F5007F64F5407457
:1005880004D25FEA4E0E6D4146EB060642EAC621EA
:1005980041EA55514FEAC52040EA5E504FEACE2E57
:1005A800B4F1FD0C88BFBCF5E06F1ED8BEF1004F5A
:1005B80008BF5FEA500E50F1000041EB045170BDD6
:1005C80006F0004646EA010140EA020081EA03011A
:1005D800B4EB5C04C2BFD4EB0C0541EA045170BD16
:1005E80041F480114FF0000E013C00F3AB8014F190
:1005F800360FDEBF002001F0004170BDC4F10004D9
:10060800203C35DA0C341BDC04F11404C4F1200559
:1006180000FA05F320FA04F001FA05F240EA0200B4
:1006280001F0004221F0004110EBD37021FA04F6EA
:1006380042EB06015EEA430E08BF20EAD37070BDA4
:10064800C4F10C04C4F1200500FA04F320FA05F003
:1006580001FA04F240EA020001F0004110EBD37005
:1006680041F100015EEA430E08BF20EAD37070BD75
:10067800C4F1200500FA05F24EEA020E20FA04F34E
:1006880001FA05F243EA020321FA04F001F00041FD
:1006980021FA04F220EA020000EBD3705EEA430E6E
:1006A80008BF20EAD37070BD94F0000F0FD101F09D
:1006B8000046400041EB010111F4801F08BF013CD6
:1006C800F7D041EA060195F0000F18BF704703F014
:1006D8000046520043EB030313F4801F08BF013D9B
:1006E800F7D043EA0603704794EA0C0F0CEA135557
:1006F80018BF95EA0C0F0CD050EA410618BF52EA11
:100708004306D1D181EA030101F000414FF0000016
:1007180070BD50EA410606BF1046194652EA430624
:1007280019D094EA0C0F02D150EA013613D195EA98
:100738000C0F05D152EA03361CBF104619460AD1E0
:1007480081EA030101F0004141F0FE4141F47001EA
:100758004FF0000070BD41F0FE4141F4780170BDDA
:1007680070B54FF0FF0C4CF4E06C1CEA11541DBF3F
:100778001CEA135594EA0C0F95EA0C0F00F0A7F841
:10078800A4EB050481EA030E52EA03354FEA01316E
:1007980000F088804FEA03334FF0805545EA131381
:1007A80043EA12634FEA022245EA111545EA106549
:1007B8004FEA00260EF000419D4208BF964244F1E0
:1007C800FD0404F5407402D25B084FEA3202B61AFF
:1007D80065EB03055B084FEA32024FF480104FF4D3
:1007E800002CB6EB020E75EB030E22BFB61A754647
:1007F80040EA0C005B084FEA3202B6EB020E75EBDA
:10080800030E22BFB61A754640EA5C005B084FEA41
:100818003202B6EB020E75EB030E22BFB61A75460E
:1008280040EA9C005B084FEA3202B6EB020E75EB19
:10083800030E22BFB61A754640EADC0055EA060EDA
:1008480018D04FEA051545EA16754FEA06164FEA1D
:10085800C30343EA52734FEAC2025FEA1C1CC0D1C9
:1008680011F4801F0BD141EA00014FF000004FF056
:10087800004CB6E711F4801F04BF01430020B4F117
:10088800FD0C88BFBCF5E06F3FF6AFAEB5EB030CCF
:1008980004BFB6EB020C5FEA500C50F1000041EBCC
:1008A800045170BD0EF0004E4EEA113114EB5C0499
:1008B800C2BFD4EB0C0541EA045170BD41F480116C
:1008C8004FF0000E013C90E645EA060E8DE60CEA74
:1008D800135594EA0C0F08BF95EA0C0F3FF43BAF91
:1008E80094EA0C0F0AD150EA01347FF434AF95EA48
:1008F8000C0F7FF425AF104619462CE795EA0C0F2C
:1009080006D152EA03353FF4FDAE1046194622E7F8
:1009180050EA410618BF52EA43067FF4C5AE50EAD2
:1009280041047FF40DAF52EA43057FF4EBAE12E7C2
:100938004A0011D212F5001211D20DD56FF4787356
:10094800B3EB62520ED44FEAC12343F0004343EAAB
:10095800505323FA02F070474FF00000704750EAF6
:10096800013002D14FF0FF3070474FF00000704760
:1009780080F0004002E000BF81F0004142001FBF4C
:100988005FEA410392EA030F7FEA226C7FEA236C55
:100998006AD04FEA1262D2EB1363C1BFD21841404A
:1009A80048404140B8BF5B42192B88BF704710F0E0
:1009B800004F40F4000020F07F4018BF404211F083
:1009C800004F41F4000121F07F4118BF494292EAEB
:1009D800030F3FD0A2F1010241FA03FC10EB0C0017
:1009E800C3F1200301FA03F100F0004302D54942A4
:1009F80060EB4000B0F5000F13D3B0F1807F06D351
:100A080040084FEA310102F10102FE2A51D2B1F148
:100A1800004F40EBC25008BF20F0010040EA03003D
:100A28007047490040EB0000013A28BFB0F5000FBD
:100A3800EDD2B0FA80FCACF1080CB2EB0C0200FA73
:100A48000CF0AABF00EBC25052421843BCBFD040C2
:100A58001843704792F0000F81F4000106BF80F43C
:100A680000000132013BB5E74FEA41037FEA226CFF
:100A780018BF7FEA236C21D092EA030F04D092F0CA
:100A8800000F08BF0846704790EA010F1CBF0020FE
:100A9800704712F07F4F04D1400028BF40F000405B
:100AA800704712F100723CBF00F50000704700F07B
:100AB800004343F0FE4040F4000070477FEA2262A2
:100AC80016BF08467FEA23630146420206BF5FEA73
:100AD800412390EA010F40F4800070474FF0000373
:100AE80004E000BF10F0004348BF40425FEA000C3A
:100AF80008BF704743F0964301464FF000001CE0E2
:100B080050EA010208BF70474FF000030AE000BF37
:100B180050EA010208BF704711F0004302D5404275
:100B280061EB41015FEA010C02BF844601460020E7
:100B380043F0B64308BFA3F18053A3F50003BCFA02
:100B48008CF2083AA3EBC25310DB01FA02FC6344AF
:100B580000FA02FCC2F12002BCF1004F20FA02F2B6
:100B680043EB020008BF20F00100704702F12002A9
:100B780001FA02FCC2F1200250EA4C0021FA02F20A
:100B880043EB020008BF20EADC7070474FF0FF0C0F
:100B98001CEAD0521EBF1CEAD15392EA0C0F93EA0A
:100BA8000C0F6FD01A4480EA010C400218BF5FEAAC
:100BB80041211ED04FF0006343EA501043EA51111F
:100BC800A0FB01310CF00040B1F5000F3EBF490019
:100BD80041EAD3715B0040EA010062F17F02FD2A1D
:100BE8001DD8B3F1004F40EBC25008BF20F0010000
:100BF800704790F0000F0CF0004C08BF49024CEA17
:100C0800502040EA51207F3AC2BFD2F1FF0340EAA8
:100C1800C250704740F400004FF00003013A5DDC19
:100C280012F1190FDCBF00F000407047C2F100025A
:100C3800410021FA02F1C2F1200200FA02FC5FEA47
:100C4800310040F1000053EA4C0308BF20EADC7091
:100C5800704792F0000F00F0004C02BF400010F403
:100C6800000F013AF9D040EA0C0093F0000F01F0B0
:100C7800004C02BF490011F4000F013BF9D041EAD2
:100C88000C018FE70CEAD15392EA0C0F18BF93EAD4
:100C98000C0F0AD030F0004C18BF31F0004CD8D1FE
:100CA80080EA010000F00040704790F0000F17BF85
:100CB80090F0004F084691F0000F91F0004F14D0CB
:100CC80092EA0C0F01D142020FD193EA0C0F03D123
:100CD8004B0218BF084608D180EA010000F0004026
:100CE80040F0FE4040F40000704740F0FE4040F401
:100CF800400070474FF0FF0C1CEAD0521EBF1CEAA0
:100D0800D15392EA0C0F93EA0C0F69D0A2EB0302BD
:100D180080EA010C49024FEA402037D04FF0805357
:100D280043EA111143EA10130CF000408B4238BF1C
:100D38005B0042F17D024FF4000C8B4224BF5B1A2A
:100D480040EA0C00B3EB510F24BFA3EB510340EA78
:100D58005C00B3EB910F24BFA3EB910340EA9C0026
:100D6800B3EBD10F24BFA3EBD10340EADC001B0196
:100D780018BF5FEA1C1CE0D1FD2A3FF650AF8B423A
:100D880040EBC25008BF20F0010070470CF0004C47
:100D98004CEA50207F32C2BFD2F1FF0340EAC25072
:100DA800704740F400004FF00003013A37E792F033
:100DB800000F00F0004C02BF400010F4000F013A91
:100DC800F9D040EA0C0093F0000F01F0004C02BF8C
:100DD800490011F4000F013BF9D041EA0C0195E7F5
:100DE8000CEAD15392EA0C0F08D142027FF47DAF8E
:100DF80093EA0C0F7FF470AF084676E793EA0C0F7E
:100E080004D14B023FF44CAF08466EE730F0004C7B
:100E180018BF31F0004CCAD130F000427FF45CAF0B
:100E280031F000437FF43CAF5FE700BF4FF0FF3C79
:100E380006E000BF4FF0010C02E000BF4FF0010CCC
:100E48004DF804CD4FEA40024FEA41037FEA226C95
:100E580018BF7FEA236C11D001B052EA530C18BFB7
:100E680090EA010F58BFB2EB030088BFC81738BF1C
:100E78006FEAE17018BF40F0010070477FEA226C0A
:100E880002D15FEA402C05D17FEA236CE4D15FEA06
:100E9800412CE1D05DF8040B704700BF844608463A
:100EA8006146FFE70FB5FFF7C9FF002848BF10F1FB
:100EB800000F0FBD4DF808EDFFF7F4FF0CBF012040
:100EC80000205DF808FB00BF4DF808EDFFF7EAFFCA
:100ED80034BF012000205DF808FB00BF4DF808ED85
:100EE800FFF7E0FF94BF012000205DF808FB00BF7A
:100EF8004DF808EDFFF7D2FF94BF012000205DF800
:100F080008FB00BF4DF808EDFFF7C8FF34BF01200C
:100F180000205DF808FB00BF4FEA40024FEA41039A
:100F28007FEA226C02D15FEA402C08D17FEA236C69
:100F380002D15FEA412C02D14FF0000070474FF018
:100F4800010070474FEA4002B2F1FE4F0FD34FF055
:100F58009E03B3EB12620DD94FEA002343F000431E
:100F680010F0004F23FA02F018BF404270474FF0CC
:100F78000000704712F1610F01D1420205D110F053
:100F8800004008BF6FF0004070474FF00000704706
:100F980042000ED2B2F1FE4F0BD34FF09E03B3EBDB
:100FA800126209D44FEA002343F0004323FA02F007
:100FB80070474FF00000704712F1610F01D14202F3
:100FC80002D14FF0FF3070474FF00000704700BF6C
:100FD8000022427082700122C270B1FA81F10222AD
:100FE80049090271032201704271704743788B42AC
:100FF8001FD0012941700AD0022910D0C1B901239C
:10100800C37081700223037103234371704703780F
:1010180043B1012383700223C3700023F3E70378ED
:10102800002BF6D0022383700023C3700123EAE764
:10103800FEE7704782B00B88ADF800304B88ADF8FA
:1010480002308B88ADF80430CB88ADF80630023911
:10105800431C053013F8012F0DF1080C0CEB42026C
:10106800834232F8082C21F8022FF3D102B07047DE
:1010780010B50C461146FFF7B9FF2146BDE81040F0
:10108800FFF7D8BF0B4B10B54FF07F32C0E92323D1
:101098004FF47F43A0F89430FF23044680F896303D
:1010A800983000F083FD002384F8A43084F8A83039
:1010B80010BD00BFFFFF7F0070B5114615460446FE
:1010C8001E4600F0DCFC294604F1140000F0D7FCB1
:1010D800294604F1280000F0D2FC294604F13C001E
:1010E80000F0CDFC294604F1500000F0C8FC294668
:1010F80004F1640000F0C3FC294604F1780000F014
:10110800BEFC4FF4FA7332464FF4FA6104F19800CA
:1011180000F032FD2046FFF7B5FF002384F8A53024
:101128004FF47F43A4F8A63070BD022380F8A8309E
:101138007047704700F0AABC143000F0A7BC08B58F
:10114800503000F0ADFC292100F114030246B3FB36
:10115800F1F313F0FF0002D1101E18BF012008BDE3
:1011680008B5643000F09CFC292100F11403024604
:10117800B3FBF1F313F0FF0002D1101E18BF0120DA
:1011880008BD90F8903013B990F98C00704790F929
:101198008D00704790F8903013B990F98E00704721
:1011A80090F98F00704710B504460BF0B7FC50B1AA
:1011B80094F8A83043B904F13C0000F06BFC012816
:1011C80038BF0120C0B210BD6420FCE790F8A830F9
:1011D80013B990F89300704764207047783000F096
:1011E80061BC783000F066BC10B5044600F028FCFD
:1011F80004F1140000F024FC04F1280000F020FCA5
:1012080004F13C0000F01CFC04F1500000F024FC48
:1012180004F1640000F020FC04F1780000F022FCE6
:1012280094F8A83013B1013B84F8A83010BD7F288A
:1012380007D0002807DA10F1800F06D04042C0B26C
:10124800704700207047012070477F20704710B119
:10125800404240B270477F2070477F280FD010F17E
:10126800310F0EDA10F1780F0DDB7830FE2340B223
:10127800584323304623B0FBF3F0C0B27047FF2039
:101288007047FE20704700207047012805DD40F2B6
:10129800FE73984203DC80B270470120704740F229
:1012A800FF707047A0F57870C0EBC02040F2AE73B5
:1012B80090FBF3F000F58060FFF7E7BFFFF7F2BFA0
:1012C800032812DD0C2812DD0F2812DD122812DD8A
:1012D800162812DD192812DD1C2812DD1F2812DD40
:1012E8002128CCBFFF20062070470020704701202E
:1012F8007047022070470820704703207047072076
:1013080070470420704705207047000005289ABFE1
:10131800014B185CFF207047041F010805289ABF7D
:10132800014B185CFF2070470A1F01087F2803D073
:10133800002803DAC0B2704700207047FF207047CA
:101348007F2811D010F1320F10DA884210DD401AD0
:101358006423C1F1FF21584301F57F01CE313130BB
:1013680090FBF1F0C0B27047FF20704764207047CF
:1013780000207047014B4840185C7047101F010857
:1013880052B110B4054C0A4411F8013B58408A4246
:10139800205CF9D110BC7047704700BF101F0108CE
:1013A800392808D822280ED9094B2338C0B2C3409F
:1013B80003F0010070475F2807D0613819288CBFF7
:1013C800002001207047002070470120704700BFAF
:1013D80001EC7F00F8B50246451E461D00245F2734
:1013E80015F8010FFF2804BF0134E4B2FFF7D8FF56
:1013F80000B92F70AE42F3D1062C04D119B10B6895
:1014080013608B88938000239371F8BD2DE9F8430E
:10141800DFF83490471E441D012500264FF02808A8
:1014280017F8011F084810F0B8FC034610B1A0EBEC
:101438000903DBB2A3FB05329E19A742A5FB08539B
:10144800EED13046BDE8F8831020010810B5417987
:10145800A1F13000C3B2092B07D80523B0FBF3F381
:1014680003EB8303C01AC0B210BD044C204610F031
:1014780094FC0028F1D0001BC0B2EEE71020010850
:10148800F0B5094B094F821D2826B1FBF3F4272C30
:1014980094BF3D5D302502F8015D824203FB1411C3
:1014A800B3FBF6F3F1D1F0BD00801A061020010855
:1014B80070B50446FEF766FE02B20023551E18B248
:1014C800A84204FA83F104DA265C302E03F1010302
:1014D800F5D0121A01322046BDE8704010F02CBC3D
:1014E8002DE9F047432B28BF432396B00C461546F9
:1014F80000211A469846074610F038FC0021412280
:1015080005A8049110F032FCDFF87C90DFF87CA08D
:1015180004EB4505AC4210D104A8FEF733FE28B110
:1015280000F158036B44002203F8492C04A93846FB
:1015380010F090FC16B0BDE8F08734F9020B47F6BE
:10154800FF739842E8D0002812DC5146684610F034
:1015580081FC04A8FEF716FE06466846FEF712FE52
:101568000644B045D6D3694604A810F007FCD1E775
:10157800694680B20EF093FA6846FFF799FF49462C
:10158800684610F0FBFBE4E7FD1E0108F81E0108A1
:10159800F0B589B06D4600242F468E1CE1B28A4210
:1015A80004D83946FFF79CFF09B0F0BD36F824107F
:1015B80025F8021B0134F1E742F210736421B0FBF5
:1015C800F3F203FB1200B0FBF1F301FB130000EB95
:1015D800023000EB831080B27047020B00F03F032B
:1015E80042F2107101FB0233C0F38510642202FB42
:1015F800003070472DE9F04142F2107388B0B1FB1A
:10160800F3F603FB16141F49DFF87C80054610F03B
:1016180021FC6946F0B20EF01FFA6846FFF748FF52
:101628006946284610F0AAFB4146284610F0A6FB5A
:1016380064276946B4FBF7F6F0B20EF00DFA684677
:10164800FFF736FF6946284610F098FB07FB16445B
:101658004146284610F092FB6946E0B20EF0FCF9CC
:101668009DF801308DF800309DF802308DF801307A
:101678006946002328468DF8023010F07FFB08B039
:10168800BDE8F08112320108021F010870B50E464C
:1016980000210546144610F069FB00239AB29442D3
:1016A80000D870BDF25C002AFBD0EA540133F5E79C
:1016B80070B50E46144600210132054610F056FB5F
:1016C80000239AB2944200D870BDF25C002AFBD085
:1016D800EA540133F5E730B50023044698B2904246
:1016E80001D3012005E0E55CC85C1DB9B0FA80F0C3
:1016F800400930BD0028FCD0854203F10103EDD03C
:101708000020F6E7914206D19DF900008342CCBF44
:10171800002001207047022909D0022A05D001299A
:1017280005D0531E58425841704701207047002089
:1017380070477D23438043F2390309B2C360002315
:1017480001808180C380037270470000C268044929
:10175800044B01FB023323F00043C360980F70472A
:10176800FD430300C39E260010B501290446807975
:101778001AD8042801D80130A071012AE07917D8B5
:10178800042801D80130E07191424AD8914245D3EA
:10179800012930D1012A2ED1A279E3799A4228D39E
:1017A80022D96FF07C0310E00028E6D00138E3E787
:1017B80008B10138E0710229E6D1022AE6D19DF983
:1017C800082093420BDDB4F9003062881A4412B243
:1017D8007C2A28DD7D2262800022227227E01BDA23
:1017E80023885B421BB2F0E72046FFF7AFFF0028D3
:1017F800D7D07D23E9E7B4F90400B4F90030228892
:10180800B4F90210002804DB7C29DEDD524213B251
:10181800DBE77C31D9DBF9E70023D6E76FF04A0331
:10182800D3E74B23D1E712F17C0F02DB6280A38060
:1018380010BD4FF6837262800122CEE70268044928
:10184800044B01FB023323F000430360180C70477C
:10185800FD430300C39E2600F0B5002597B0016044
:101868008580044656222946684610F07FFA0126EC
:10187800627CAA4209D80023802104F1B4002374B1
:1018880017B0BDE8F04010F071BA2046FFF7D6FF58
:10189800E7797B1B002190FBF3F202FB1300C0B237
:1018A800EC460A46CBB29F421DD80023227B9A42BF
:1018B800DED0A279033A012A04EB050105D925B146
:1018C80091F91120D2B9012BD2D98B74A26852F8A0
:1018D8002310583304EB85026B440135516303F838
:1018E800586CEDB2C4E71CF801EBBEF1000F03D150
:1018F8008242DBD00132D2B20131D3E7501E83429B
:10190800E3DB01329342E0DCB2E700002DE9F04F5F
:10191800154697B0013D0160027104464371EDB26E
:101928005622002168469946002710F01FFA022D1A
:1019380084BF4FF0010A00253E4694F807809CBFFB
:101948004FF0030AB8FBFAF8627CB24209D80023C8
:10195800802104F1B400237417B0BDE8F04F10F0F3
:1019680005BA2046FFF76AFFA8EB060390FBF3F2DF
:1019780002FB13030020DBB2EC460246C1B28845E5
:1019880006D91CF801EBBEF1000F1BD19A4217D102
:10199800414528BF4146227B01FB0A5303F0FF0360
:1019A8009A42D1D0A0680FFA83FC09F1FF3E50F8A3
:1019B8002C20BEF1030F0DD8DFE80EF006212427F6
:1019C8000132D2B20130D9E7DFF860E09644184A14
:1019D8009645B9D916B10FBB0129B5D9A2190F4639
:1019E800937404EB860350F82C205A6301F15803D2
:1019F80001226B44164403F8582CF6B2A4E7DFF82A
:101A080034E0E3E7DFF830E0E0E7A2F53D02DFF895
:101A18002CE0A2F59D42443A7245DAE77A1E9142DB
:101A2800DCDB7A1C9142D9DC8EE700BFC54E47FF4C
:101A38003BB10100776245FF287643FF3CB10100C6
:101A4800D0E901236421D31AC36082604B43418AE1
:101A5800B3FBF1F303747047D0E90123D31AC0E94B
:101A68000223704743682BB1C26864214A43B2FB22
:101A7800F3F2D3B203740023C360436070470023BA
:101A8800C0E90233418243600374704743680133FD
:101A980043607047007C704743680B44436070475D
:101AA800C068704711B1C3680133C360436801332C
:101AB80043607047007C7047072800D9FEE7014B58
:101AC800185C70476820010800230380837080F841
:101AD800293070470346007810B100221A70704709
:101AE800587810B100225A707047987810B10022C7
:101AF8009A70704793F8290010B1002283F82920C2
:101B0800704701707047017070478170704781702D
:101B18004260704740687047083070470023436050
:101B2800038170470A2310B50446838002F014F934
:101B38002368E0809B6820469847208110BD038970
:101B480070B504469BB1858845B1013DADB285802D
:101B58006DB903681B68BDE87040184702F0FCF8CF
:101B6800E388C01A238980B2834201D2258170BDDF
:101B7800236820465B68EEE72DE9F04104461046ED
:101B88001D4616468846FEF7A9FF074606EB0800DD
:101B9800FEF7A4FF01463846FFF7ACF86560206001
:101BA8002846FEF79FFFA060BDE8F08110B5044607
:101BB8004068FEF797FFA06010BD000010B502292D
:101BC800044680EAE070A0EBE47068D15AB9002CB2
:101BD800ACBF7F233F239842A8BF1846002C01DAE8
:101BE80040F0400010BD012A1AD1632805DC4000EE
:101BF800002CF7DA40F48070F4E740F2F54398429D
:101C08000CDCFEF76BFF5749FEF7C0FF0EF06AFFCA
:101C1800FFF7BEF9400040F00100E9E7FF20E7E7E1
:101C2800022A40F09C80632805DC8000002CD9DA69
:101C380040F40070D6E7B0F57A7F0CDAFEF74EFF75
:101C48004849FEF7A3FF0EF04DFFFFF7A1F980000A
:101C580040F00100EAE742F20F7398420CD8FEF711
:101C68003DFF4149FEF792FF0EF03CFFFFF790F968
:101C7800800040F00200D9E73C4B98420CD8FEF7B0
:101C88002DFF3B49FEF782FF0EF02CFFFFF780F98E
:101C9800800040F00300C9E740F2FF10C6E70329BF
:101CA8005DD1012A1BD1B0F57A7F05DA4000002CFE
:101CB80098DA40F4006095E7B0F5205F0CDAFEF79B
:101CC8000DFF2849FEF762FF0EF00CFFFFF760F9E1
:101CD800400040F00100EAE740F2FF70E7E7022A1F
:101CE8003DD1B0F57A7F06DA8000002CBFF67AAFD6
:101CF80040F4805076E742F20F7398420CDCFEF70E
:101D0800EDFE1849FEF742FF0EF0ECFEFFF740F932
:101D1800800040F00100E8E7164B98420CD8FEF727
:101D2800DDFE1149FEF732FF0EF0DCFEFFF730F959
:101D3800800040F00200D8E7B0F57A2F0CD2FEF709
:101D4800CDFE0B49FEF722FF0EF0CCFEFFF720F97F
:101D5800800040F00300C8E740F6FF70C5E70020A8
:101D680040E700BFCDCCCC3D0AD7233C17F001009B
:101D78006F12833A9F8601000023036070470000BA
:101D880038B5084B09291B7828BF09218B4204461E
:101D98000D4602D10023036038BD01F0D1FF257143
:101DA8002060F9E7FC020020036810B504460BB96F
:101DB800002010BD01F0C4FF2368C01A40F2EE23D2
:101DC8009842F5D90023054A2360127823799A426C
:101DD800EED0034A0120D377EBE700BFFC020020D6
:101DE80058030020FF23437100230171837103818D
:101DF8008372704738B5037904460D465BB1417963
:101E0800A94208D041B101290AD00023A371657104
:101E180055B1012D0FD038BD03689B689847F4E78A
:101E280003680021DB68F9E723689B6801212046E5
:101E38009847A071EFE723682946DB68F7E72DE9A3
:101E4800F04F077CC37B857CC67C90F815E090F842
:101E5800208090F80EC0BF000C4647EA931703F0A5
:101E68003F01437C03F0010247EA822705F00F0295
:101E7800D20142EA530206F07F031B0143EA15131D
:101E8800057D89B06D0045EAD6150EF00306059369
:101E980045EA4623867D009306F01F05AD0145EA15
:101EA8009E03C57D90F819E00193ED0045EA5613AD
:101EB800057E02930EF0070645EA0623857E039306
:101EC80005F03F06760146EADE03C67E90F81CE080
:101ED8000493B60046EA95160EF0010546EA8526F3
:101EE800457F069205F00F0B4FEACB1B4BEA5E0BC2
:101EF80090F81EE00EF07F0A4FEA0A1A4AEA151A0D
:101F0800C57F6D0045EADE1508F0030E45EA4E254B
:101F180090F821E00EF01F094FEA891949EA98095B
:101F2800490190F82280407B41EADC010CF0070C63
:101F380040EA0C204FEAC80848EA5E180791FFF704
:101F4800B1F9079920800846FFF7ACF96080384658
:101F5800FFF7A8F9069AA0801046FFF7A3F9059B9A
:101F6800E0801846FFF79EF920810098FFF79AF95C
:101F780060810198FFF796F9A0810298FFF792F91E
:101F8800E0810398FFF78EF920820498FFF78AF919
:101F980060823046FFF786F9A0825846FFF782F93B
:101FA800E0825046FFF77EF920832846FFF77AF94A
:101FB80060834846FFF776F9A0834046FFF772F939
:101FC8004FF48063E0832384638409B0BDE8F08F15
:101FD8002DE9F04104460F4601F0BEFE4FF001081E
:101FE8000546236820461B689847064650B9A37AD9
:101FF800012B1FD12389ED1A40F6C4139D42C8BF97
:10200800A07217E0236820465B689847A37AA3B9B3
:102018000F2814D1A4F80A80E37AE2180133DBB25E
:10202800182B1073E3720AD939462046FFF707FFC9
:102038000023A3723046BDE8F081012BECD0258146
:10204800CFE7827922B14379012B01D8FFF7C0BFCE
:1020580000207047704770477047002070477047EE
:10206800002070470020704770470020704700200C
:1020780070474FF0B04382B0DA6C0243DA64DB6C2D
:1020880003400193019B02B070474FF0B04382B008
:102098009A6D02439A659B6D03400193019B02B0C0
:1020A80070474FF0B04382B01A6E02431A661B6E37
:1020B80003400193019B02B0704750E8003F43F092
:1020C800800340E80032002AF7D1704750E8003F0B
:1020D80023F0200340E80032002AF7D1704750E887
:1020E800003F23F0400340E80032002AF7D1704750
:1020F80050E8003F23F0800340E80032002AF7D17F
:1021080070477047704700000288044B5140C9B2BD
:1021180033F8113083EA122303807047085101080D
:102128009AB110B4B0F800C0084C0A4411F8013B49
:1021380083EA0C03DBB2914234F8133083EA1C2C97
:10214800A0F800C0F2D110BC7047704708510108D0
:1021580037B54FF6FF730446ADF806304518AC4264
:1021680003D1BDF8060003B030BD14F8011B0DF112
:102178000600FFF7C9FFF2E71629A8BF16216FF07E
:1021880008008142B8BF01461170197070470020DD
:1021980070470000074B1B784BB9074B1888074B53
:1021A8001B8880B29BB2C01A18BF0120704700205C
:1021B800704700BF300000205241002050410020ED
:1021C800054B1B783BB9054A1380054A1380054A1D
:1021D8001380054A138070473000002050410020CA
:1021E8005241002054430020564300200649074A24
:1021F8000B8812880133C3F3080392B29A421EBFB8
:10220800034AD0540B8070474A37002048370020D3
:10221800483500200023A0F87032A0F86E327047CD
:102228000023A0F85C32A0F85A327047044B188893
:10223800044B1B8880B29BB2C01A18BF012070479C
:102248004A370020483700200278024B51405B5C37
:1022580003707047AC3B0108FF230370704700BF51
:102268007047B0F86E32B0F870229B1A98B21B040F
:1022780044BF00F5006080B2003818BF01207047E5
:10228800A0F11400EDE7B0F87022B0F86E12914298
:1022980003461FBF8118013291F87402B3F8721215
:1022A8001ABF0A40A3F8702200207047A0F114005A
:1022B800E9E770B50B7803704B7843700B78FD2B0A
:1022C80005460C4638D18B788370CB78C3700B7970
:1022D80003714B7943718B7983718B68C3718B68F8
:1022E800C3F30F2303728B7A43720A26627804F1D0
:1022F8000C01A8190FF0B6FD6378B4F80C2133442B
:10230800981CEA545A1CB4F80C1192B2090AA95440
:10231800A278D20780B20ED504F58872054404F578
:102328008E7452F8041B45F8041BA242F9D11278A6
:102338002A700F3398B270BD00238B700B798370AD
:102348004B79C3708B7903718B6843710626CDE78F
:1023580038B54A78352A0D46044601F10C010AD8E9
:102368000FF080FD68780021C0F136022044BDE8F6
:1023780038400FF0FBBC403551F8043B40F8043BB3
:10238800A942F9D10B88038038BD38B54A781B2A91
:102398000C46054601F10C010AD80FF063FD607880
:1023A8000021C0F11C022844BDE838400FF0DEBC13
:1023B800283451F8043B45F8043BA142F9D138BD13
:1023C80038B54A78082A0D46044601F10C010AD8A6
:1023D8000FF048FD68780021C0F109022044BDE8EB
:1023E80038400FF0C3BCEB6803604B6843600B7A5E
:1023F800037238BD38B54A78072A0C46054601F1FC
:102408000C010AD80FF02EFD60780021C0F10802F7
:102418002844BDE838400FF0A9BCE36803604B6866
:10242800436038BD08B52C22034800210FF09EFCFC
:10243800024B00221A7008BDF80D0020DC050020B0
:102448002DE9F0411378037092F8018080F801803B
:10245800FD2B04460F46154654D193788370D378E4
:10246800C3701379037153794371937983716B7ACC
:10247800127A1B0403EB0223EA79134423F07F4307
:102488000A26A26863F31702A260A919424604F15A
:102498000C000FF0E7FC7A7B904507D208F10C009E
:1024A800A2EB0802002120440FF060FC63781E4470
:1024B800AB195A78AB5D03EB0223A4F80C31A3786F
:1024C800DB070ED5023615FA86F304F5887203F198
:1024D8000C0153F8040B42F8040B8B42F9D11B781A
:1024E8001370BB7A84F82131FB7A84F822313B7B64
:1024F80084F823317B7B84F824313B7884F82031BD
:10250800BDE8F0810023438093780371D378437149
:102518001379837153790626B3E738B54A78132AB5
:102528000C46054601F10C010AD80FF09BFC6078B7
:102538000021C0F114022844BDE838400FF016BC51
:10254800203451F8043B45F8043BA142F9D138BD89
:102558002DE9F04F0C465188B1F58C7F054685B0C2
:102568004FF0000010D31070D91CC9B2012995BFD3
:1025780001210023518053809CBF237011700020DB
:10258800287005B0BDE8F08F16780E2E00F2908006
:1025980001A757F826F000BF71250008DD250008BF
:1025A8000526000823260008B9260008B9260008D1
:1025B800B9260008B9260008B9260008B926000877
:1025C800B9260008B9260008B9260008B926000867
:1025D80035260008481C508063542178FD299BB299
:1025E80006D10C330A21D380918002231370C6E7E9
:1025F80008330621D38091800E23F7E7481C5080CA
:102608006354D80742BFD1880D31D1800020012BF7
:102618008CBF034603231370B2E7481C5080002088
:102628008342635414BF03460E23F4E7481C5080CA
:1026380063545388D1888B4232D30023538013705C
:1026480002232B7069802378FD2B37D163792B7295
:10265800A3796B72637A227A1B0403EB0223E27973
:1026680013446B60637803F10C026A80A278D10787
:1026780001D519336B8000266968DFF800816E8107
:1026880040F285120C20B31801335B0800FB03F7F6
:1026980058F80770B9421AD25A1EB242F3D818E055
:1026A80092889A423FF66BAF01232B70002068E7AF
:1026B800107050809080D0802870F7E7E3782B72F4
:1026C80023796B7263796B6063780833D2E71E46AF
:1026D800E3D80C27774358F80730994227D1237855
:1026E8002046FD2B10F801BF0CBF4FF00A094FF030
:1026F800060909EB0B03591E89B247440193FFF7FA
:1027080027FD97F804A0ADF80E0051460DF10E0014
:10271800FFF7FAFC019BE218E35C527803EB022313
:10272800BDF80E209BB29A4209D0052000E0032094
:102738002870023801288CBF0020012021E7BB79CE
:10274800DA0706D5FA79934582BF04EB09018A5C5A
:10275800AA729B0709D50C2303FB068362781B7AB0
:102768009A4282BF4C44E35CEB720C2303FB068362
:1027780085F80CA05B796B730220DAE7AC3C0108A2
:10278800074B084A5B6A02F5006353E8003F43F0D1
:10279800200302F5006040E800310029F3D17047BA
:1027A80000380140003001400A4A0B4B12680B49BF
:1027B800A3FB02323220920C00FB02F2084B48685D
:1027C80002F5FA72A3FB023292094B681B1A9A426D
:1027D800FBD870477C02002083DE1B43001000E01A
:1027E800D34D621008B5FFF7DFFF024B04229A6150
:1027F80008BD00BF00040048024B04229A62FFF79C
:10280800D3BF00BF0004004830B587B0034601AC11
:1028180000F1100518685968224603C20833AB4214
:102828001446F7D10024094D8DF81440A96801A871
:10283800FDF79EFC10B920B207B030BD01342F2C33
:1028480005F10C05F2D14FF0FF30F5E73400002018
:1028580002780A4B90F801C08178D243D2B29A5CD0
:1028680082EA0C0290F803C09A5C4A40995C0279AB
:1028780081EA0C01595C4A40985C7047AC3B0108FE
:10288800028810B58488531C234044889C421EBF8C
:1028980012189171038010BD411A88B20B0444BF0D
:1028A80000F5007080B2704770B5104C00252346C3
:1028B80026782EB166788E4202D1A67896420BD041
:1028C80001350C2D04F10404F2D1002413F824502E
:1028D8001DB101340C2CF9D170BD012503F8245029
:1028E80003EB8403D87059709A70F5E7E10500206E
:1028F8002DE9F8430B460D795A7A9E7ADF7A204BF8
:10290800097A1B5CDB07044600D50DB9FFF7CCFF3D
:1029180000231C491A4898464FF0010E9C4201F8C2
:10292800018B25D02DB90278920702D501F801EC68
:102938001EE0154A4FF0000C92F80090B9F1000F14
:102948000FD092F8039099450BD1002EEED092F853
:102958000190B14505D1002FE8D092F80290B94511
:10296800E4D00CF1010CBCF10C0F02F10402E3D12C
:102978000133DBB2042B00F10100CFD1BDE8F883AD
:1029880011060020DD050020E105002007B50368D9
:102998008DF807101B6901220DF10701984703B054
:1029A8005DF804FBF0B50546FD2305F80C3B85B042
:1029B80004468DF8043090F8243103F10C020244E7
:1029C800012B42D80026637066808DF805308B7A1B
:1029D80023718DF808308B7AADF8066001338B725D
:1029E80063798DF80930A3798DF80A30A368C3F3A9
:1029F80017031A128DF80B3009211B140DF105006D
:102A08008DF80D308DF80C20FFF7A2FB6778ADF834
:102A180002003A4629460DF10200FFF781FB94F8BF
:102A28002311FFF771FB94F82421BDF80230A4F8B4
:102A38000C31974210D207F10C00D21B31462044CA
:102A480005B0BDE8F0400FF091B912F8010D00286B
:102A5800B8D1013BDBB2B3E705B0F0BD70477047B2
:102A6800044AD2F8903023F40043C2F89030FFF7BC
:102A78009BBE00BF0004005808B5FFF795FE044A46
:102A8800D2F8903043F40043C2F8903008BD00BF3C
:102A980000040058064B1B7843B1064A00231380F4
:102AA800054A1380054A1380054A1380704700BF02
:102AB80030000020504100205241002054430020A3
:102AC80056430020084B5B6A4FF0402202F58063B2
:102AD80053E8003F43F0200302F5806040E80031EE
:102AE8000029F3D1704700BF00440040064B187816
:102AF80040B1064B1888064B1B8880B29BB2C01A9F
:102B080018BF0120704700BF30000020524100204C
:102B18005041002070B5044608460D46FDF732FBCB
:102B2800236882B2294620461B69BDE870401847D1
:102B380010B5464B5A6A037A044692B263B1838948
:102B4800D31A9BB2B3F5FA7F84BF00230372837A4A
:102B58004F2B84BF00230372237AA281082B21D82C
:102B6800DFE803F0052020202020252E3900EE295B
:102B7800B4F8080401D0C82915D10123A37206238B
:102B88006175237270B1012809D00DF015F801465E
:102B98002F48FFF7BFFF2F492D48FFF7BBFF002342
:102BA800A4F8083410BD0130A4F80804FAE7A37AA1
:102BB8005A1C2344A2725975617207232372F1E7E4
:102BC800A27A531C2244DBB2A3725175627A9A42EC
:102BD800E8D20823F2E7A37A5A1C2344A272597553
:102BE800E37D162B04D1012384F865300923E5E73A
:102BF8006369194A03F0FF23934203D1012384F840
:102C08006730F3E7154A93421CD1A37E102B19D1E4
:102C1800E37E022B08D0052B0DD0012BE6D1227EB6
:102C2800EE2A08BF84F86A30237EEE2BDED101231A
:102C380084F86B30DAE7012384F86830237F84F85E
:102C48006930D3E7012384F86630CFE700440140B8
:102C58002C0000207020010800C8002800C800329D
:102C680008B5FFF757FF08BDB0F1904F02D101201A
:102C7800FFF7FFB9084B984205D003F580639842E7
:102C880003D10420F4E70220F2E7044B984201D173
:102C98008020EDE7704700BF00040048001C004892
:102CA8000C4B984203D14FF40060FFF7FAB9B0F12A
:102CB800804F05D0084B984205D14FF40030F4E717
:102CC8000120FFF7E2B9054B984202D14FF480206A
:102CD800EBE77047002C01400044014000480140E8
:102CE8002DE9F04387B00E4605461446002114220C
:102CF80001A89DF838809DF83C901F460FF036F8E3
:102D080000960B2C07D8DFE804F007070A12141402
:102D1800141616161A1CFEE70323019301E002237A
:102D28000493032F11D8DFE807F0111321110123B1
:102D3800F6E70123F1E7012301930393F1E7022367
:102D4800EBE7022301930123F7E7FEE7022302934F
:102D5800B8F1100F0CD8DFE808F02D2D0C11131561
:102D680017191B1D1F21232527292B000123EEE7F7
:102D7800FEE701230593022301931EE00223F9E7EE
:102D88000323F7E70423F5E70523F3E70623F1E731
:102D98000723EFE70823EDE70923EBE70A23E9E731
:102DA8000B23E7E70C23E5E70D23E3E70E23E1E731
:102DB8000F23DFE7B8F1000FDDD1B9F1000F02D022
:102DC8002846FFF751FF053C042C05D8DFE804F03E
:102DD800030B04030B00AE62694628460CF022F987
:102DE80007B0BDE8F083AE61F6E713B54FF0010C0C
:102DF8000024CDE9004CFFF773FF02B010BD0000BE
:102E080007B50E48FFF762F9036823F00103036072
:102E1800436823F400434360036843F001030360FD
:102E280000220823CDE90032042103230A224FF0AF
:102E38009040FFF755FF03B05DF804FB00440040E5
:102E480030B587B0002315460446ADF80630FFF7C5
:102E580027FF042D04D8DFE805F02E3204363F00A2
:102E6800FEE71E4B1E4A1B68B3FBF2F39BB200221F
:102E7800CDE90221013B01A92046ADF804300492B6
:102E880005920CF01FFB236823F080032360A368DE
:102E980023F4A03323F00703A360636823F07003CF
:102EA8006360636823F470036360A36823F080039E
:102EB800A36007B030BD094B0A4A1B68D4E7074B2B
:102EC800094A1B68D0E7054B064A1B68B3FBF2F3B7
:102ED80003EB83035B00C9E70123C8E77C020020FA
:102EE80080A8120140420F0000127A0010B5044673
:102EF800FFF7A6FF236843F00103236010BD0022FB
:102F08004FF0FF31FFF7F2BF204B10B5204C5B6844
:102F180023600BF0EDF94FF090400CF045F81D4898
:102F28000CF042F81C480CF03FF81C480CF058FC18
:102F38001B480CF055FC1B480CF066FA0CF0D0F955
:102F48004FF0E02200234FF0B041136153619361C9
:102F58008A6822F0030242F001028A6072B64FF0DA
:102F6800FF319A0002F1604202F561420133082BF9
:102F7800C2F88010C2F88011F3D162B6034B1B6807
:102F880083F3088823689847FEE700BF0000FF1F07
:102F9800D805002000040048000800480038014017
:102FA80000440040003001400749084A881AEFF3FE
:102FB8000883521A1A44013A013B984288BF0022FA
:102FC800AA210EF0D3BE00BF0000012000040000BB
:102FD800044B5A69586910F0020018BFC2F3800008
:102FE800704700BF000400584FF0B042D2F8943048
:102FF80043F40043C2F894304FF47A7300BF013BA6
:103008009BB2002BFAD14FF0B043D3F8942022F4AE
:103018000042C3F89420D3F894205204FBD40C4BFC
:10302800D3F8902022F40042C3F890204FF47A722B
:1030380000BF013A92B2002AFAD1D3F8902042F4A4
:103048000042C3F890204FF400629A61704700BFB5
:103058000004005810B50323052240214FF090408A
:10306800FFF7C3FEBDE810400323052280214FF07F
:103078009040FFF7BABE08B5FFF7AAFF003818BF9F
:10308800012008BD08B5FFF7F6FF00B908BD00BF6D
:10309800F9E74FF0904380229A6240229A61704784
:1030A8004FF0904340229A6280229A617047000054
:1030B800024B4FF480225A60704700BF00E100E0E5
:1030C80010B5134C0323062202214FF09040FFF75E
:1030D8008CFE2046032302224FF48071FFF785FE01
:1030E80003231A4601214FF09040FFF77EFE032389
:1030F800052210214FF09040FFF777FE204603236A
:10310800BDE8104005224FF48051FFF76EBE00BFA6
:10311800000400484FF09043186900F00100704720
:1031280008B5FFF7F7FF00B908BD00BFF9E70000D1
:10313800044B4FF480529A624FF0904310229A61E8
:10314800704700BF000400484FF0904310229A6275
:103158004FF48052C3F818247047000016480169DC
:103168000F2321F00F0193FAA3F3B3FA83F301229B
:1031780003F00F0302FA03F30B4303610F4BD3F879
:10318800842022F48072C3F88420D3F8802022F4AB
:103198008072C3F880205A6822F480725A601A68D4
:1031A80042F480721A60064BD02283F816234FF43B
:1031B80080021A60704700BF0000014000080058F4
:1031C80000E100E0054B4FF48072DA60D3F880200C
:1031D80042F48072C3F88020704700BF000800588E
:1031E800002303224FF400414FF09040FFF7FDBD4C
:1031F8004FF09043186980F40040C0F3C030704726
:1032080010B5074C0023204605221021FFF7EDFDDD
:1032180020460023BDE8104005220821FFF7E5BD40
:103228000004004805494B691A04DB4302F4801284
:1032380003F0100313438B61704700BF000400487C
:1032480005494B691A04DB4302F4002203F0080322
:1032580013438B61704700BF0004004808B5032280
:1032680000234FF400414FF09040FFF7BEFD1022BD
:1032780000234FF090410869000458BF013302F160
:10328800FF3258BFDBB212F0FF02F4D1082B034A19
:103298008CBF00230123137008BD00BF300000203D
:1032A8000C4BD3F8FC2022F08072C3F8FC20D3F832
:1032B800FC2042F08072C3F8FC20A3F55D431A6835
:1032C80022F001021A601A6842F001021A60002214
:1032D8005A60704700ED00E00649074B074A1B6833
:1032E800B3FBF2F310B54C6843434A68121B9A4289
:1032F800FBD310BD001000E07C02002040420F000C
:103308001FB50223CDE9013101A8012369460393C2
:103318000BF058F900280CBF0420052005B05DF813
:1033280004FB014608B501200BF006F900280CBF84
:103338000420052008BD08B5FFF7E2FF031F584227
:10334800584108BD08B5FFF7ECFF031F5842584124
:1033580008BD00002DE9F047294B2A4D01280E46EB
:1033680014462949294A0FBF79277827AA461D46B6
:1033780006BF88469A4690460BF092F8394628468A
:10338800FFF7D9FF28B900240BF09CF82046BDE8C8
:10339800F087002E08BF4FF4FC64073424F00704BC
:1033A80005F11007B1463444AAEB050AA1450BD133
:1033B8004FF011324FF0FF332846FFF7C3FF041ECA
:1033C80018BF0124A400DFE76EB90AEB0703D3E9AD
:1033D8000023B3F1FF3F08BFB2F1FF3F06D1083722
:1033E80009F10809E2E7D9E90023F2E7B84505D968
:1033F8003846FFF7A7FF0028F1D1C4E70324C3E745
:1034080000C0030800C80308FFCF0308FFC703086C
:1034180010B50BF045F809487821FFF78CFF0446F2
:1034280038B107487921FFF786FF041E18BF012429
:10343800A4000BF047F8204610BD00BF00C00308E9
:1034480000C8030830B5084D002340F2EF749AB263
:10345800914201D8042030BDA34203D05A5DC25422
:103468000133F4E70320F6E710C0030838B5044633
:103478000D4672B60A4601460020FFF76BFF62B69A
:10348800042806D172B601202A462146FFF762FFBA
:1034980062B638BD38B5124B1C68D3F80058B4F181
:1034A800113F09D1B5F1113F17D000221146012073
:1034B800BDE83840FFF74EBFB5F1113F03D10022F8
:1034C80011461046F4E7FFF7A3FF042804D12C4067
:1034D80001340CBF0220012038BD0420FCE700BFE6
:1034E80000C00308044B9A689107FCD518739A68C2
:1034F800D207FCD5187B70470000015870B50C4600
:10350800451E8E18B44200D170BD15F8010FFFF7A3
:10351800E9FF04F8010BF5E7084611461A46FFF7DC
:10352800EDBF000070B5064E04464518A54200D10F
:1035380070BD3078FFF7D6FF04F8010BF6E700BF3F
:103548007002002008461146FFF7ECBF38B5044664
:103558004518AC4200D138BD14F8010BFFF7C2FF83
:10356800F7E708461146FFF7F1BF000010B58CB029
:103578002822002102A80EF0F9FB4FF0B0431C4CA2
:103588005A6E42F001025A665B6E03F00103019322
:10359800019BFFF729FD082208924FF4827200234D
:1035A80003924FF40072CDE90533CDE90933029354
:1035B800079207234FF4E06202A920460B93049276
:1035C8000BF046FF636823F010036360636823F021
:1035D80008036360236843F040032360A3689B07E4
:1035E800FCD5237B034BFF221A700CB010BD00BF23
:1035F8000000015870020020034B18739A68D20724
:10360800FCD5187B704700BF0030014038B5441E18
:103618008D18A94200D138BD14F8010FFFF7ECFF4F
:1036280001F8010BF5E7084611461A46FFF7EEBF09
:1036380038B5064D04460144A14200D138BD28786A
:10364800FFF7DAFF04F8010BF6E700BF710200206C
:1036580008461146FFF7ECBF10B5014404468C42FA
:1036680000D110BD14F8010BFFF7C6FFF7E70846B5
:103678001146FFF7F1BF000030B58DB02E4C28225F
:10368800002102A80EF072FB4FF48050FEF709FDEE
:103698000421204603230622FFF7A7FB0423A36186
:1036A80001250624CDE9004503230A2220214FF0F5
:1036B8009040FFF715FBCDE9004503230A224FF49C
:1036C80080514FF09040FFF70BFB03231A46CDE9DA
:1036D80000454FF400614FF09040FFF701FB0822CE
:1036E800164C08924FF48272002303924FF4007232
:1036F800CDE90533CDE909330293079207234FF447
:10370800E06202A920460B9304920BF0A1FE6368C5
:1037180023F010036360636823F008036360236881
:1037280043F040032360A3689B07FCD5237B044B2D
:10373800FF221A700DB030BD00040048003001406F
:10374800710200201B4B10B4DC69A00611D51A6861
:1037580091060ED5184819495A6A03880988013311
:10376800C3F30A0389B299421FBF1549D2B2CA549A
:10377800038010481F232206036215D503681B0621
:1037880012D5104B104A1988138889B29BB29942F6
:103798000CD013880133C3F30803138013880B4A32
:1037A8009BB2D35CDBB2836210BC704710BCFEF7DF
:1037B8009FBC00BF0038014052410020504100200A
:1037C8005039002056430020544300205441002023
:1037D8000A490B4A08B50B8812880133C3F308035A
:1037E80092B29A4207D0074AD05407480B80FEF796
:1037F80064FC012008BD0020FCE700BF5643002000
:1038080054430020544100200038014038B5044694
:103818004518AC4200D138BD14F8010BFFF7D8FFAA
:10382800F7E70000034B1B78084611460BB9FFF772
:10383800EDBF704730000020034B1B780846114647
:103848000BB1FFF7E3BF704730000020054B064A75
:103858001B8810880133C3F3080380B2181A18BFF5
:1038680001207047564300205443002008B5044BFC
:10387800187820B1FFF7EAFFB0FA80F0400908BDD8
:103888003000002008B5054B1B782BB9FFF7DEFF89
:10389800B0FA80F0400908BD0020FCE730000020A5
:1038A800054B064A1B8812889B1A98B21B0444BF12
:1038B80000F5006080B2704752410020504100205E
:1038C800024B187808B1FFF7EBBF704730000020B3
:1038D8000848094A0188138889B29BB29942F9D0ED
:1038E80013880133C3F30A0313801388034A9BB276
:1038F800D05C7047524100205041002050390020D0
:10390800024B187808B1FFF7E3BF7047300000207A
:10391800034B1B780BB9FFF7DBBF0020704700BFD4
:103928003000002070B588B00C46064615460021C8
:10393800202268460EF01AFA231E18BF01231B0323
:10394800CDE9023569460C23034801960494059392
:103958000BF06AFF08B070BD0038014010B5064C86
:10396800236823F001032360FFF7DCFF236843F09B
:103978000103236010BD00BF00380140044B1B78D1
:1039880008461BB100221146FFF7E8BF704700BF89
:103998003000002000221146FFF7E0BF73B5304C1D
:1039A800236823F001032360082501264FF4804093
:1039B800FEF777FB4021CDE900562A4803230A2267
:1039C800FFF78EF903231A46CDE9005625488021D2
:1039D800FFF786F9002211464FF4E130FFF7A2FF06
:1039E800636823F490436360A36823F02A03A36009
:1039F8001D4BB02283F8242310225A602046FEF77C
:103A080077FBFEF76CFB40232362184B00211980DB
:103A1800174B1980FEF75AFB164B1980164B198065
:103A2800636823F400636360A36823F00803A3605A
:103A3800636823F480436360A36823F02203A360D0
:103A4800A36843F48053A360236833432360E36986
:103A58009A02FCD5E3695B02F9D502B070BD00BFDC
:103A6800003801400004004800E100E05443002011
:103A780056430020504100205241002008B5FFF76E
:103A88008DFFBDE80840FEF77BBE000008B5FFF7D4
:103A9800F5FFFFF7E3FB054B1B782BB9BDE80840A2
:103AA8004FF4E130FFF776BF08BD00BF30000020BB
:103AB800084BDA6892070CD4074A012111805A6A28
:103AC80010325A636FF002021A61DA6842F0020299
:103AD800DA6070470048014004320020324A136916
:103AE8009B0710B526D56FF0020313612F4B1B8877
:103AF800516B11FA83F353632D4B198889B200294E
:103B080046D01988013189B21980198889B20229E9
:103B180011D84FF090434FF400729A62254A1388E7
:103B28000133C3F3080313801388234A9BB2D35C81
:103B3800224A138010BD198889B20A290FD81F4B51
:103B48001A8812F0010F4FF090424FF4007114BF21
:103B5800916191621A88C2F34E021A80EAE71988C5
:103B680089B20B294FF090414FF40070886109D158
:103B7800134A11880F4A128889B292B29142D9D059
:103B88000122EAE7D16821F00201D1600022E4E7CE
:103B98004FF090404FF400748461D06820F0020028
:103BA800D0601980C6E700BF0048014000320020FD
:103BB8000432002008340020063200200634002099
:103BC8000A34002009490A4A08B50B8812880133CB
:103BD800C3F3080392B29A4206D0064AD0540B8027
:103BE800FFF766FF012008BD0020FCE70A3400202B
:103BF800083400200632002038B504464518AC4287
:103C080000D138BD14F8010BFFF7DCFFF7E70846D1
:103C18001146FFF7F1BF0000B0F5614F0D4A0E4B9A
:103C28000CD0B0F5E13F10D0B0F5165F0DD172B6EB
:103C380040F24131118040F2E24203E072B68B213A
:103C48001180D0221A8062B6704772B64521118061
:103C58005422F7E7003200200232002010B5032377
:103C680088B005224FF400714FF09040FFF7BDF87F
:103C7800194C4FF090434FF400729A61204601228C
:103C88004FF0FF31FFF732F92022002168460EF08D
:103C98006DF86A46012120460BF04EFC0F4AD2F817
:103CA800183823F00403C2F818386FF002032361B0
:103CB8000B4B902283F81D234FF000521A604FF4EB
:103CC800E130FFF7A9FF074A00231380064A138053
:103CD800064A138008B010BD00480140004001406A
:103CE80000E100E0083400200A34002004320020FB
:103CF800FFF7B4BF024B1A68024B1A60704700BF47
:103D0800644300200C0B0020054A064B1968136811
:103D180099421DBF0133012013600020704700BF86
:103D28000C0B002064430020034A044B11681B78E5
:103D38000B441360704700BF6443002080020020DA
:103D4800014B1868704700BF644300200148FFF723
:103D5800D6B800BF00440140014B586A80B2704792
:103D68000044014008B5FFF7F1FFBDE80840FFF740
:103D7800C1BF0000044BDA6822F00202DA606FF07B
:103D880002021A61704700BF00440140002208B5D2
:103D98000260FFF7EFFF044BF02283F81C234FF07B
:103DA80080521A6008BD00BF00E100E008B5036852
:103DB80053B1FFF7DFFF054B5A6A114489B25963C3
:103DC800DA6842F00202DA6008BD00BF0044014030
:103DD800074B1A69920709D56FF002021A61DA686F
:103DE80022F00202DA60034B1B681847704700BFD5
:103DF8000044014044350020F8B51D4C1D4FC02239
:103E08000021201D0DF0B2FFC72323801F230622A7
:103E180063800F23A018A38039464323FDF7B8FB1E
:103E2800154B0525C4E913353F230726A4F854305C
:103E380006224323394604F15600A4F84A60FDF7E8
:103E4800A7FB4FF48033C4F89C300C49A4F89A605F
:103E5800002304F1AC00C4E9293384F8A0300DF044
:103E6800F9FF7F2384F8C13084F8C250F8BD00BF41
:103E780014050020603401080F000300BE2001086B
:103E880070B5094E05460C46415C30460DF085FF7D
:103E9800034628B1831B0133DBB2282B28BF00233C
:103EA800F35C2B5570BD00BF803B010870B50D4613
:103EB8001146044616460DF0CDFF2DB3013D082DE1
:103EC80008D8DFE805F00511131517191B1D1F0089
:103ED80035236371627973799A4215D12046052199
:103EE800BDE87040FFF7CCBF6123F2E76623F0E737
:103EF8006B23EEE77023ECE77523EAE77A23E8E71C
:103F08003123E6E73223E4E770BD000073B50546C8
:103F180005F11106214C224A014636016846FFF791
:103F2800C5FFB01C694620440DF094FF264404EBFD
:103F38000511002302227272A1F81A31142101FB23
:103F480005400425012180F850504FF4807640F256
:103F58000115A0F84A20C164A0F8521080F8551045
:103F6800A0F85660A0F8585040F2032084F8343086
:103F7800E284A662A08584F82E1084F8302084F8A4
:103F88003330C4F83A30C4F83E30C4F84230A4F8AC
:103F98004650A4F8485002B070BD00BF5803002036
:103FA8007E200108F7B50546204C214A05F1110687
:103FB800014637016846FFF779FFB81C2744694670
:103FC8002044FDF707FA7B7A1A4A072B88BF022399
:103FD80004EB061088BF7B721188437A41FA03F319
:103FE800DF070ED40223437259B14807C1F3800397
:103FF80007D441FA03F7FF07D8B20DD504EB06132F
:10400800587204EB0616777A022F09D8A7B153889D
:10401800022103F0160313E00133102BE9D1F0E776
:10402800BB1F012B40F2DD81FEE700BF58030020D3
:104038007E200108140500205388042103F00F0393
:1040480004EB0516538096F81AC1A2F84A10BCF181
:10405800050FA2F89A104FEA051003D94FF0000C8B
:1040680086F81AC104EB000C9CF81A6143FA06F6AC
:10407800F60713D401268CF81A617BB113F0020FEE
:10408800C3F340060AD143FA06FE1EF0010F5FFA99
:1040980086FC00F0AB81231883F81AC1231893F823
:1040A8001B61032E02D9002683F81B61012F03D957
:1040B800042F01D0002393802718968897F81B3186
:1040C80046FA03F313F001030FD187F81B3166B1E9
:1040D80016F0010309D146FA03FC1CF0010FDFB208
:1040E80000F08981204480F81B71142303FB0540EC
:1040F80090F84A60052E02D9022680F84A6003FB30
:10410800054393F84B00042802D9002083F84B009C
:10411800142303FB054393F84B0041FA00F0C7074B
:1041280011D401208F0783F84B00C1F340030AD450
:1041380041FA03F6F607D8B240F16281142303FB73
:10414800054383F84B00142303FB054393F84C0005
:10415800032802D9012083F84C00142606FB0546E3
:10416800B2F84C0096F84C3040FA03F313F0010310
:1041780010D186F84C3068B110F001030AD140FA2A
:1041880003F7FF07DEB240F14081142303FB054328
:1041980083F84C60142303FB054393F84E00012871
:1041A80002D9002083F84E00142606FB0546B2F813
:1041B8004E0096F84E3040FA03F313F0010310D185
:1041C80086F84E3068B110F001030AD140FA03F7BF
:1041D800FF07DEB240F11E81142303FB054383F879
:1041E8004E60142303FB054393F84F00022802D9BD
:1041F800002083F84F00142606FB0546B2F850301D
:1042080096F84F0043FA00F010F0010010D186F83C
:104218004F006BB113F001000AD143FA00F7FF0712
:10422800C6B240F1FC80142000FB054080F84F60C6
:10423800142000FB054696F84D70022F02D900277E
:1042480086F84D7000FB054090F85060052E02D9A5
:10425800042680F85060142000FB054696F852703A
:10426800012F02D9012786F8527000FB054090F80B
:104278005560012E02D9012680F85560142000FBF4
:10428800054090F85360022E02D9002680F853604A
:10429800142707FB0547B2F8526097F8530046FA0F
:1042A80000F010F0010011D187F8530076B116F034
:1042B80001000BD146FA00FC1CF0010FC7B200F058
:1042C800B380142000FB054080F85370142000FBD5
:1042D800054696F856700C2F02D9002786F85670B6
:1042E80000FB054090F84C60012E09D190F84F7002
:1042F800022F05D1DF0740F19C80002380F84F3062
:10430800142303FB0543012083F8570040F20110F2
:10431800A3F8580094F82630052B02D9022384F814
:10432800263094F82730042B02D9002384F827304C
:1043380094F8273041FA03F313F0010F854B0DD1A0
:1043480001208E0784F82700C1F3400006D441FA03
:1043580000F7FF07C6B271D583F8276094F82810D4
:10436800022902D9002184F8281094F8291002297A
:1043780002D9012184F82910B2F89C1094F8292058
:1043880041FA02F212F001020CD184F8292049B155
:1043980011F0010206D141FA02F4E607D0B251D574
:1043A80083F8290093F82A200C2A02D9002283F8DE
:1043B8002A2093F832200C2A02D9002283F83220CE
:1043C80093F82B20042A02D9002283F82B200022FC
:1043D8006149104611F9014F14F1780F36DA087067
:1043E80036E05388012103F0160329E60136102E22
:1043F8007FF449AE52E60133102B7FF46CAE74E6BD
:104408000133102B7FF494AE9DE60133102B7FF41B
:10441800B6AEBFE60133102B7FF4D8AEE1E601302B
:1044280010287FF4FAAE03E7013010287FF442AF7A
:104438004CE713F0020318BF33465FE7013010283A
:1044480085D18BE70132102AA5D1ABE7782CC6DCE1
:104458000132D2B20C2ABDD140490022012011F804
:10446800014F0132022CD2B288BF0870042AF6D15B
:1044780093F83420012A02D9002283F83420384ADC
:10448800B2F89E1093F8342041FA02F212F00102B9
:104498000CD183F8342049B111F0010206D141FA58
:1044A80002F4E407D0B211D583F8340093F82C2035
:1044B800052A02D9032283F82C2093F82D20032AF9
:1044C80008D80AD1002283F8342006E00132102AE5
:1044D800E5D1EBE7022283F82D2093F82E20022A5B
:1044E80002D9012283F82E2093F83020022A02D91B
:1044F800022283F8302093F833200C2A02D90022B4
:1045080083F8332093F83520042A02D9002283F84F
:104518003520142101FB0531FF2203EB051581F835
:10452800512081F8542083F82F2083F831204FF64A
:10453800FF704FF0FF32C5F81C21A5F820011A6260
:104548009A84A1F85A20A1F85C20DA861A8703B069
:10455800F0BD00BF58030020910300209D030020F8
:1045680014050020034670B50846052B04D8DFE87B
:1045780003F01E04221A1E22FEE720261F250F2202
:104588001B4CA4F84A50227701255A1EA370A4F8A0
:104598004860A576A5730023042A10D8DFE802F046
:1045A800121D20251D0009266F250722E8E714267D
:1045B80032250A22E4E7352613251922E0E723717C
:1045C800237401E023712574FDF776FA002808BFEB
:1045D800022000236073637670BD25710223EFE724
:1045E80023712374A376A373EEE72371A373E7E71C
:1045F800FC020020012803D002280FD088B1FEE772
:1046080002460021084B83F8510083F8542083F8B0
:10461800522083F8551083F8531070470022012167
:10462800F0E701221146EDE7FC0200202DE9F043F6
:104638009F4DA04C00F1110805EB081702378BB00D
:1046480006463846FCF7E2FE042100906846FDF76E
:104658007FFD05EB0613E08393F81B314FEA06193B
:104668002BB103EB031303EB03231844E08305EB9F
:1046780008135B7A062B40F0CC80E38B03F5B54337
:104688002533E383142303FB065305EB081893F83B
:104698004B00FFF7AFFF98F8091061708B1FA94412
:1046A800012B8CBF0023012399F81A0184F8563096
:1046B800FFF758FF99F81B21E18B009BE18061828D
:1046C800A36063612AB14FF0113000FB0233A3608D
:1046D8006361142303FB0653616293F84A00764B27
:1046E80084F8292013F9203023732376002384F8D3
:1046F8002A30637B23B93846FCF7A8FE84F82A00E1
:104708006078FDF7D9F96D4A84F82800128802F01C
:104718000101970748BF41F00201A18503465007F0
:1047280042BFA18D41F00401A185110742BFA18DAF
:1047380041F01001A185D70642BFA18D41F02001AB
:10474800A185900642BFA28D42F00802A2855C4A6C
:1047580001AF02F1200E10685168BC46ACE80300B6
:10476800083272456746F6D11068CCF80000062278
:104778000AA994F802E0534F02FB0313734413F899
:1047880024CC84F820C017E90F0087E80F0094F8BC
:10479800563053B1002384F838300EF128030DEB5E
:1047A800030E1EF8243C84F8303094F83000844519
:1047B80040F2E24328BF6046A4F84C302CBF4FEAD1
:1047C8005C074708FCF78EF94FF07F51FCF7DEF9DC
:1047D800FCF7DEFB042F98BF0523B4F8482084F8C3
:1047E800507098BF84F850304FF47A73B3FBF2F3EB
:1047F800A4F84030142303FB0653C0B293F850309A
:10480800A4F84E00052B33D8DFE803F00B382C2F23
:104818003235072B7FF436AFE38BA3F5B543263B40
:104828002FE74FF416536364002384F8573084F855
:104838005930142303FB065696F84C30032B03D04B
:1048480096F84F20022A02D1012284F85720591ED7
:104858004A424A4184F8582094F857208AB1012BDB
:104868000FD1FEE74FF41643DDE74FF46143DAE773
:104878004FF4E133D7E74FF46133D4E74FF496436D
:10488800D1E72178142000FB015595F84C10022936
:1048980007D1012184F8591022B194F859301BB17D
:1048A800FEE70AB9012BF8D00BB0BDE8F08300BFD2
:1048B80058030020FC020020603401081405002081
:1048C800A01E01082C03002002484FF4DE72FF21CD
:1048D8000DF04CBA5803002002484FF4DE71FEF781
:1048E800C5BD00BF5803002002484FF4DE71FEF733
:1048F800A9BD00BF5803002008B5FFF7F5FF034B1B
:104908001878BDE80840FFF74DBB00BFFC02002047
:1049180038B5FFF7D9FFFEF7BDFD04280CD0FFF727
:10492800D3FFFEF7B7FD042803D1FFF7DDFF042806
:1049380006D0FFF7C9FF03E0FFF7D6FF0428EED142
:104948002F4930482F4C10220DF034FA38B12E4937
:10495800102220460DF02EFA08B1FFF7B5FFA38A02
:10496800B3F5215F28D008D30025E8B20135FFF759
:10497800CDFA0A2DF9D10023E3774FF42153A3820E
:10498800012522691E491F4842F6A1039A424FF0A9
:1049980010021CBF236101250DF00CFA70B11849F3
:1049A80018481022FCF772FE184919480822FCF72B
:1049B8006DFEFFF791FF03E00025E2E7002DF8D137
:1049C800E37F104A092B84BF0023E377E17F14209B
:1049D800002300FB0144013394F84C0082F84C009A
:1049E8000A2B02F11402F6D10A4C2170FFF704FADF
:1049F8002078FFF7D7FA2078BDE83840FFF716BED1
:104A0800852001085803002096200108A7200108E6
:104A18000A050020FC0200200129F7B5054600D947
:104A2800FEE70B4E06EB01131C460F016278F15DA1
:104A380003619B780BF03AFAE3790193A379009329
:104A480022796379E17828460BF057FA03B0F0BD74
:104A58002853010838B5836804466BB1024652F8FA
:104A6800183BDD6900F11903A847217E2046022280
:104A7800BDE838400BF0A3BA38BD000070B58160BE
:104A8800897A86B0044601B101210BF0E8F9204685
:104A98000BF067FB20460BF03FFB217BFF2903D07F
:104AA800FA2220460BF044FBA3685B7A013B042BF7
:104AB80004D8DFE803F0043E3E414100FEE7E92266
:104AC800E12120460BF072FB012120460BF001FB8F
:104AD800962120460BF03EFB382120460BF050FB78
:104AE80020460BF055FBA368204693F90810FFF702
:104AF800B1FFA3689D7A15B319782046FFF78CFF9C
:104B08000022114620460BF0C4F90023009340F21E
:104B1800032220464FF6FF710BF01EFA20464FF68F
:104B2800FF710BF040FA204606B0BDE870400BF06C
:104B3800E0BADB22D721C4E76F226B21C1E75E8888
:104B48000E4B63614CF25033009320460C491923F5
:104B58000B220BF039FB0123CDE903335B23CDE9AD
:104B68000153102319462046009504220BF06AFBD6
:104B7800314620460BF08AFBC2E700BF0853010804
:104B8800A086010038B504461D4613460A46002192
:104B98000BF0F8F820464FF6FF710BF004FAA90164
:104BA8002046BDE838400BF017BA10B504460BF0A4
:104BB800A0FA20464FF6FF71BDE810400BF0F3B99C
:104BC80038B58168036891F90810DD69044600F179
:104BD800190300F11802A847A3689A7A42B11A7813
:104BE800012A00D9FEE7044B03EB0213236138BD09
:104BF800024B6361FBE700BF285301080853010813
:104C080010B50A4CA06858B1236923B9636913B970
:104C18002046FFF7D5FFA3689B7A23B123699868DC
:104C2800A0F57A7010BD63699869F9E70C34002023
:104C3800836810B5044683B103691BB943690BB98E
:104C4800FFF7BEFFA3689B7A1BB12369B3F90C0079
:104C580010BD6369B3F91C00FAE71846F8E78368E2
:104C680010B5044643B103691BB943690BB9FFF793
:104C7800A7FF94F9190010BD1846FCE708B583682A
:104C880043B9FFF7FBFE7D20FEF726FBBDE8084091
:104C9800FEF70EBA08BD10B5C01A9DF908401230CB
:104CA80080F30500A042A8BF2046123B08701844B4
:104CB800107010BD07B5084611461A461223009316
:104CC8001B23FFF7E8FF03B05DF804FB0229F7B5E3
:104CD800054600D9FEE70B4E06EB01131C460F01F3
:104CE8006278F15DC3609B780BF045FCE379019332
:104CF800A379009322796379E17828460BF064FC64
:104D080003B0F0BD5C53010838B5836804466BB145
:104D1800024652F8143BDD6900F11503A847217DCE
:104D280020462022BDE838400BF0A9BC38BD000061
:104D38007FB58D7A8160044675B301210BF0F1FBD4
:104D4800012120460BF0F8FC012120460BF00EFD56
:104D5800A368204693F90810FFF7D6FFA3682046FA
:104D68001978FFF7B3FF0022114620460BF0F6FB37
:104D78000023009344F2030220464FF6FF710BF024
:104D88003FFC20464FF6FF710BF061FC204604B053
:104D9800BDE870400BF0DCBC03210BF0C2FB2046E1
:104DA80001210BF0C9FC204601210BF0DFFCA368B0
:104DB800204693F90810FFF7A7FFA3685E680C4B1D
:104DC80023612A462046102386210BF0F3FC5B233F
:104DD800CDE90053204602951023042270210BF0E0
:104DE800F8FC2A46314620460BF011FDBBE700BF10
:104DF8004853010838B505461C4613460A460021A3
:104E08000BF02BFB28464FF6FF710BF020FC22011C
:104E1800284692B2BDE8384001210BF040BC10B5DD
:104E280004460BF095FC20464FF6FF71BDE8104094
:104E38000BF00DBC38B58168036891F90810DD697D
:104E4800044600F1150300F11402A847A3689A7AF2
:104E580042B11A78022A00D9FEE7044B03EB021389
:104E6800E36038BD024B2361FBE700BF5C530108D8
:104E780048530108836810B5044683B1C3681BB959
:104E880003690BB9FFF7D6FFA3689B7A1BB1E368E8
:104E9800B3F90C0010BD2369B3F91000FAE71846FE
:104EA800F8E7836810B5044643B1C3681BB90369C2
:104EB8000BB9FFF7BFFF94F9150010BD1846FCE7C2
:104EC80008B5836843B9FFF733FF7D20FEF704FA7E
:104ED800BDE80840FEF776B908BD0000F8B50446FD
:104EE8000846202811461D46BDF818C09DF81C200C
:104EF8009DF8203000D9FEE7052DA57100D9FEE701
:104F08002B4F57F8356006B9FEE707EBC507A660D3
:104F18003E797F7927730027E67184F8D550A4F885
:104F28000EC084F8D470BCF1000F00D1FEE78642B1
:104F38009CBF06F1FF36F0B2052D60742DD0012D0F
:104F480032D802F1FF35EDB21DD0022D16D85D1E04
:104F5800032D0DD80C2801D90C256574657C854274
:104F680000D960742046FCF7D1FC00232374F8BDF7
:104F7800122884BF122363740023EFE7042B88BF31
:104F880000230022EEE7022D04D80C2803D90C23B5
:104F9800637400E000220023E4E7531E022BF9D8D3
:104FA8000828F8D90823F3E72046FCF755FCDCE786
:104FB8003034010890F8D43053B190F8D520074B1D
:104FC80003EBC20153F83230497953F82100704796
:104FD800037C00EB8300406B704700BF303401084E
:104FE8002DE9F3419DF824701646402F88464FF06E
:104FF8005B024FF0000104461D4628BF40270CF015
:10500800B5FE904BDB8B23803278A37862F30203E2
:10501800A3707178C90001F00801DBB203F007033F
:1050280041EA08111943A1707279E37862F3000329
:10503800E370B279637962F38613637196F90200BB
:10504800FCF7F5F8E37860F34703E370F279237926
:1050580062F300032371327A62F3460323713279D3
:10506800DBB202F0010203F07F0343EAC2132371AB
:1050780032796379C2F3450223F03F031343637126
:10508800A37967F34703A3712B78AA78E3716B7848
:1050980002F01F0203F0070343EAC20323726A887F
:1050A800637AC2F3451223F03F03134363722A79EC
:1050B800DBB202F0030203F03F0343EA8213637298
:1050C800AB88C3F38703A3726A79E37AC2F38002D9
:1050D80023F001031343E372AA79DBB202F07F02E3
:1050E80003F0010343EA4203E372EA88237BC2F335
:1050F800C31223F00F03134323732B7AAA7AE373A3
:105108006B7A02F01F0203F0070343EAC203237419
:105118006A89637CC2F3451223F03F031343637427
:105128002A7BDBB202F0030203F03F0343EA821357
:105138006374AB89C3F38703A3746A7BE37CC2F30C
:10514800800223F001031343E374AA7BDBB202F06D
:105158007F0203F0010343EA4203E374EA89237DF3
:10516800C2F3C31223F00F03134323752B8ADB0802
:1051780063756B8ADB08A375AB8ADB08E375EB8A7A
:10518800DB0823762B8BB3F5C06F4ED2B3F5007FC7
:1051980094BF00230123227B63F3051222736B8BD8
:1051A800B3F5C06F43D2B3F5007F94BF002301234A
:1051B800227B63F387122273AB8BB3F5C06F38D2AF
:1051C800B3F5007F94BF00230123227D63F305120A
:1051D8002275EB8BB3F5C06F2DD2B3F5007F94BF6A
:1051E80000230123227D63F38712089B22751F4445
:1051F80004F11802BB4220D14FF6FF7321460DF18E
:1052080006000D22ADF80630FCF78AFF2146BDF8EE
:10521800063021F80D3F4C22FCF782FFBDF806301E
:10522800A4F8593002B0BDE8F0810223B3E70223A5
:10523800BEE70223C9E70223D4E713F8011B02F8EB
:10524800011FD7E7FC02002013B59DF81040CDE9F7
:10525800003413460A460021FFF7C2FE02B010BD13
:1052680013B5144B0288DB8B9A4204461DD1837810
:1052780003F0F003102B01D0202B18D1A379A52B14
:1052880015D84FF6FF730DF1060059222146ADF8E7
:105298000630FCF745FFB4F85900BDF80630C01ACF
:1052A80018BF0120800002B010BD0120FBE70220DA
:1052B800F9E700BFFC02002030B53A4B027893F8BA
:1052C800261061F30302027093F8271061F30712A6
:1052D800027093F82810427861F30302427093F841
:1052E800291061F30712427093F82A10827861F34B
:1052F8000302827093F83210827961F3030282719B
:1053080093F82B10827861F30712827093F83410A7
:10531800C27961F30302C27193F82C10C27861F369
:105328000302C27093F82D1061F30712C27093F84C
:105338002E10027961F303020271427993F830105A
:1053480061F30302427193F83310827961F3071213
:10535800827193F83510C27961F30712C27103F1B3
:10536800390100F10A0200F1160411F9015F02F88F
:10537800015FA242F9D193F84610C27D61F30102A0
:10538800C27593F8471061F38302C27593F8481009
:1053980061F30512C27593F8493063F38712C27539
:1053A80030BD00BF580300200278344BC2F303021B
:1053B80030B583F826200278C2F3031283F8272039
:1053C8004278C2F3030283F828204278C2F303121A
:1053D80083F829208278C2F3030283F82A2082798D
:1053E800C2F3030283F832208278C2F3031283F8EF
:1053F8002B20C279C2F3030283F83420C278C2F3A7
:10540800030283F82C20C278C2F3031283F82D20FC
:105418000279C2F3030283F82E204279C2F3030211
:1054280083F830208279C2F3031283F83320C279DB
:10543800C2F3031283F8352003F1390100F10A029F
:1054480000F1160412F9015F01F8015FA242F9D1D7
:10545800C27DC2F3010283F84620C27DC2F38102F5
:1054680083F84720C27DC2F3011283F84820C27D29
:10547800C2F3811283F8492030BD00BF58030020D1
:105488001FB58DF80C300123019303AB009313462D
:105498000A460221FFF7A4FD05B05DF804FB0000F1
:1054A800F0B5234D012385F8A030044685B0B0F847
:1054B8000900FCF792F8C5F8A400B4F80B00FCF753
:1054C8008CF81422C5F8A80004F10D0105F1AC0010
:1054D800FCF7EEF894F9213085F8C13094F82230C1
:1054E80085F8C23004F12300FFF75EFF6E4604F131
:1054F800410304F1510718685968324603C208335A
:10550800BB421646F7D10B48432308226946FBF7EE
:10551800E7FF94F85130A5F89A3094F85230A5F87E
:105528009C3094F85330A5F89E3005B0F0BD00BF0C
:10553800140500206A0500202DE9F04792B0DFF835
:1055480090A0244C0DF108084FF0400905460E467E
:10555800174600214A4640460CF008FC9AF800100D
:1055680004EB011122230DF10A00062201F58971CD
:105578008DF80830FCF78AF89AF8001004EB01124D
:1055880005A892F81A3192F8194103F00F0304F0B4
:105598000F0444EA031492F81B3103F00F0344EAA2
:1055A8000324BDF8103023F47F6323F00F031C435A
:1055B800ADF81040FFF780FECDE900893B46324642
:1055C80002212846FFF70CFD12B0BDE8F08700BFA6
:1055D800FC02002058030020034B04491A680448C1
:1055E80001FB020018607047180600200D661900BC
:1055F8005FF36E3C38B50B4A0B4D13782C78A342F9
:1056080005D101332B70287800F0010038BD1470E3
:10561800FFF7E2FF6FF0004398423CBF01342C7063
:10562800F1E700BF15060020160600200B4A0C49BA
:10563800126882600A6802614A680A4942610A6817
:1056480082614A68C26100234EF6602283808371BA
:105658008381038402600385704700BF6443002090
:10566800AD200108B620010838B5214C94F8523015
:1056780013B994F85430B3B11E4DAB6803B9FEE7C3
:1056880022791A70002128460AF0D2FB4FF47A706A
:10569800FDF722FE012128460AF0E1FBAB68284607
:1056A8001978FFF7B9F994F8533013B994F85530CD
:1056B800B3B1114DAB6803B9FEE7227C1A70002123
:1056C80028460AF017FF4FF47A70FDF705FE01210E
:1056D80028460AF026FFAB6828461978FFF7F6FA3D
:1056E8000448FFF762FA0448FFF799FB38BD00BF8A
:1056F800FC0200200C3400202834002038B51D4D51
:105708000446A8786978052828D14FF6FF732385C1
:10571800FEF728FF6B7801229A40238D23EA0203C3
:10572800238515491548FFF7A9FA15491548FFF7C4
:10573800C7FB1248FFF739FA1248FFF770FB0F480A
:105748006FF07F01FFF786F90E486FF07F01FFF7D2
:10575800DBFA2046BDE83840FFF786BF00232385E3
:105768000220FEF7FFFE6A7801239340228D13433F
:105778009BB2D5E7FC020020000300200C34002077
:105788000C0300202834002008B590F82030024689
:105798008BB9FDF72DFD10B982F8210008BD92F8EC
:1057A800213001335BB2312B82F82130F6DD012341
:1057B80082F82030F2E7FDF71BFD18B1322382F89A
:1057C8002130EBE792F82130013B5BB2002B82F8E5
:1057D8002130D8BF82F82000E0E70000134B90F892
:1057E80020201B68CAB182689B1AB3F57A6F01D969
:1057F800012343710379ABB10D4B427B1B781AB17E
:10580800022B1CBF032202739A1E53425341437357
:10581800837953B10323037370478360EAE7012355
:105828000371F8E74379002BF9D1704764430020EE
:10583800F50600200346007B821E012A4FF0000275
:1058480002D893F8201009B91A73704710467047A8
:1058580070B51D4C1D4E05465B22002120460CF0FC
:1058680085FA2B6923606B696360194B194D1B78A6
:1058780031789A1E53425341627A05EB011163F362
:105888000002627201F58971062204F10A00FBF731
:10589800FDFE337805EB031205EB031592F81B1197
:1058A80095F8193192F81A2103F00F0343EA02130D
:1058B8002374637C204661F3030359216374FCF766
:1058C80047FCA4F8590070BD89340020FC02002070
:1058D800F5060020580300200A4A38B5138801331A
:1058E8009BB2502B04460D4601D8138038BD0023C7
:1058F80005491380FDF70EF929462046FDF70AF9F8
:10590800F4E700BF100B00202C2201082DE9F84F06
:10591800154604460F466B496B4EFDF7FBF82946C2
:105928002046FDF7F7F8694B0022012F1A800FD1A6
:105938001023B362082746F2A810B761FDF7CCFC24
:10594800B762FDF7C9FC29462046FFF7C5FFF2E715
:10595800BB1E08220C2B00F2A880DFE803F03141BF
:10596800521C07A6A6A6626262626200564E4FF0FB
:1059780008081027C6F8188046F2A810B762FDF785
:10598800ABFCC6F82880B761FDF7A6FC294620467F
:10599800FFF7A2FFEDE74C4E4FF008081027C6F8B6
:1059A800188046F2A810B761FDF796FCC6F8288063
:1059B800B762FDF791FC29462046FFF78DFFEDE71A
:1059C800B262414E102746F2A810B761FDF784FC79
:1059D800B762FDF781FC29462046FFF77DFFF2E715
:1059E8001023B361384E082746F2A810B761FDF7B7
:1059F80073FCB762FDF770FC29462046FFF76CFF81
:105A0800F2E7B261304E102746F2A810B761FDF7F1
:105A180063FCB762FDF760FC29462046FFF75CFF90
:105A2800F2E7A7F1090BDFF8A0805FFA8BFB0026ED
:105A38004FF0080A5E453CBF1023C8F818304FF0F5
:105A4800040946F2A810C8F818A0FDF745FCC8F8E4
:105A580028A0FDF741FC09F1FF3929462046FFF748
:105A68003BFF19F0FF09ECD11023C8F828304FF09C
:105A7800040946F2A810C8F818A0FDF72DFCC8F8CC
:105A880028A0FDF729FC09F1FF3929462046FFF730
:105A980023FF19F0FF09ECD10136A7F10803F6B28C
:105AA800DBB2B34238BF0026C4E71023B261B3614A
:105AB8004CF25030FDF710FC29462046FFF70CFF4A
:105AC800F6E700BF2C22010800040048100B002054
