:020000040800F2
:1000000000000120F5E30008DFE30008E1E3000859
:10001000E3E30008E5E30008E7E300080000000070
:10002000000000000000000000000000E9E30008FC
:10003000EBE3000800000000EDE30008EFE3000838
:1000400045E4000845E4000845E4000845E40008EC
:1000500045E4000845E4000845E4000845E40008DC
:1000600045E4000845E4000845E4000845E40008CC
:1000700045E4000845E4000845E4000845E40008BC
:1000800045E4000845E4000845E4000845E40008AC
:100090000000000045E4000811CC000845E4000819
:1000A00045E4000845E4000845E4000845E400088C
:1000B00045E40008B539000845E4000845E40008B7
:1000C00045E4000845E4000845E4000845E400086C
:1000D000713600082D6A000845E4000845E4000870
:1000E00045E4000845E4000845E4000845E400084C
:1000F00045E40008000000000000000045E400089E
:1001000045E4000845E40008A5CB000845E40008E4
:1001100045E4000845E4000845E4000845E400081B
:1001200045E4000845E4000845E4000845E400080B
:0801300045E4000845E4000865
:1001380010B5054C237833B9044B13B10448AFF319
:1001480000800123237010BDB002002000000000D1
:10015800E01F010808B5034B1BB103490348AFF37F
:10016800008008BD00000000B4020020E01F010864
:1001780010F8012B11F8013B012A28BF9A42F7D049
:10018800D01A7047034613F8012B002AFBD1181A1E
:100198000138704781F0004102E000BF83F000435E
:1001A80030B54FEA41044FEA430594EA050F08BF0A
:1001B80090EA020F1FBF54EA000C55EA020C7FEACE
:1001C800645C7FEA655C00F0E2804FEA5454D4EB4B
:1001D8005555B8BF6D420CDD2C4480EA020281EA15
:1001E800030382EA000083EA010180EA020281EA4D
:1001F8000303362D88BF30BD11F0004F4FEA01319F
:100208004FF4801C4CEA113102D0404261EB4101AD
:1002180013F0004F4FEA03334CEA133302D0524233
:1002280063EB430394EA050F00F0A780A4F10104EF
:10023800D5F1200E0DDB02FA0EFC22FA05F2801829
:1002480041F1000103FA0EF2801843FA05F359410F
:100258000EE0A5F120050EF1200E012A03FA0EFC8E
:1002680028BF4CF0020C43FA05F3C01851EBE371B8
:1002780001F0004507D54FF0000EDCF1000C7EEBD5
:1002880000006EEB0101B1F5801F1BD3B1F5001F13
:100298000CD349085FEA30004FEA3C0C04F1010432
:1002A8004FEA445212F5800F80F09A80BCF1004F5B
:1002B80008BF5FEA500C50F1000041EB045141EADD
:1002C800050130BD5FEA4C0C404141EB0101013CA6
:1002D80028BFB1F5801FE9D291F0000F04BF014695
:1002E8000020B1FA81F308BF2033A3F10B03B3F167
:1002F80020020CDA0C3208DD02F1140CC2F10C02F7
:1003080001FA0CF021FA02F10CE002F11402D8BF54
:10031800C2F1200C01FA02F120FA0CFCDCBF41EA20
:100328000C019040E41AA2BF01EB0451294330BDEF
:100338006FEA04041F3C1CDA0C340EDC04F11404CC
:10034800C4F1200220FA04F001FA02F340EA0300A3
:1003580021FA04F345EA030130BDC4F10C04C4F1E9
:10036800200220FA02F001FA04F340EA03002946C9
:1003780030BD21FA04F0294630BD94F0000F83F413
:10038800801306BF81F480110134013D4EE77FEAF6
:10039800645C18BF7FEA655C29D094EA050F08BF42
:1003A80090EA020F05D054EA000C04BF1946104623
:1003B80030BD91EA030F1EBF0021002030BD5FEA67
:1003C800545C05D14000494128BF41F0004130BD8F
:1003D80014F580043CBF01F5801130BD01F00045E3
:1003E80045F0FE4141F470014FF0000030BD7FEA56
:1003F800645C1ABF194610467FEA655C1CBF0B4651
:10040800024650EA013406BF52EA033591EA030F67
:1004180041F4002130BD00BF90F0000F04BF00215F
:10042800704730B54FF4806404F132044FF0000592
:100438004FF0000150E700BF90F0000F04BF00210B
:10044800704730B54FF4806404F1320410F0004571
:1004580048BF40424FF000013EE700BF42004FEA6C
:10046800E2014FEA31014FEA02701FBF12F07F43E9
:1004780093F07F4F81F06051704732F07F4208BFA0
:10048800704793F07F4F04BF41F40021704730B5A7
:100498004FF4607401F0004521F000411CE700BFF3
:1004A80050EA010208BF704730B54FF000050AE076
:1004B80050EA010208BF704730B511F0004502D577
:1004C800404261EB41014FF4806404F132045FEA79
:1004D800915C3FF4D8AE4FF003025FEADC0C18BF22
:1004E80003325FEADC0C18BF033202EBDC02C2F114
:1004F800200300FA03FC20FA02F001FA03FE40EAA6
:100508000E0021FA02F11444BDE600BF70B54FF0A9
:10051800FF0C4CF4E06C1CEA11541DBF1CEA135587
:1005280094EA0C0F95EA0C0F00F0DEF82C4481EAEF
:10053800030621EA4C5123EA4C5350EA013518BF0F
:1005480052EA033541F4801143F4801338D0A0FBFC
:1005580002CE4FF00005E1FB02E506F00042E0FBA9
:1005680003E54FF00006E1FB03569CF0000F18BFAF
:100578004EF0010EA4F1FF04B6F5007F64F5407457
:1005880004D25FEA4E0E6D4146EB060642EAC621EA
:1005980041EA55514FEAC52040EA5E504FEACE2E57
:1005A800B4F1FD0C88BFBCF5E06F1ED8BEF1004F5A
:1005B80008BF5FEA500E50F1000041EB045170BDD6
:1005C80006F0004646EA010140EA020081EA03011A
:1005D800B4EB5C04C2BFD4EB0C0541EA045170BD16
:1005E80041F480114FF0000E013C00F3AB8014F190
:1005F800360FDEBF002001F0004170BDC4F10004D9
:10060800203C35DA0C341BDC04F11404C4F1200559
:1006180000FA05F320FA04F001FA05F240EA0200B4
:1006280001F0004221F0004110EBD37021FA04F6EA
:1006380042EB06015EEA430E08BF20EAD37070BDA4
:10064800C4F10C04C4F1200500FA04F320FA05F003
:1006580001FA04F240EA020001F0004110EBD37005
:1006680041F100015EEA430E08BF20EAD37070BD75
:10067800C4F1200500FA05F24EEA020E20FA04F34E
:1006880001FA05F243EA020321FA04F001F00041FD
:1006980021FA04F220EA020000EBD3705EEA430E6E
:1006A80008BF20EAD37070BD94F0000F0FD101F09D
:1006B8000046400041EB010111F4801F08BF013CD6
:1006C800F7D041EA060195F0000F18BF704703F014
:1006D8000046520043EB030313F4801F08BF013D9B
:1006E800F7D043EA0603704794EA0C0F0CEA135557
:1006F80018BF95EA0C0F0CD050EA410618BF52EA11
:100708004306D1D181EA030101F000414FF0000016
:1007180070BD50EA410606BF1046194652EA430624
:1007280019D094EA0C0F02D150EA013613D195EA98
:100738000C0F05D152EA03361CBF104619460AD1E0
:1007480081EA030101F0004141F0FE4141F47001EA
:100758004FF0000070BD41F0FE4141F4780170BDDA
:1007680070B54FF0FF0C4CF4E06C1CEA11541DBF3F
:100778001CEA135594EA0C0F95EA0C0F00F0A7F841
:10078800A4EB050481EA030E52EA03354FEA01316E
:1007980000F088804FEA03334FF0805545EA131381
:1007A80043EA12634FEA022245EA111545EA106549
:1007B8004FEA00260EF000419D4208BF964244F1E0
:1007C800FD0404F5407402D25B084FEA3202B61AFF
:1007D80065EB03055B084FEA32024FF480104FF4D3
:1007E800002CB6EB020E75EB030E22BFB61A754647
:1007F80040EA0C005B084FEA3202B6EB020E75EBDA
:10080800030E22BFB61A754640EA5C005B084FEA41
:100818003202B6EB020E75EB030E22BFB61A75460E
:1008280040EA9C005B084FEA3202B6EB020E75EB19
:10083800030E22BFB61A754640EADC0055EA060EDA
:1008480018D04FEA051545EA16754FEA06164FEA1D
:10085800C30343EA52734FEAC2025FEA1C1CC0D1C9
:1008680011F4801F0BD141EA00014FF000004FF056
:10087800004CB6E711F4801F04BF01430020B4F117
:10088800FD0C88BFBCF5E06F3FF6AFAEB5EB030CCF
:1008980004BFB6EB020C5FEA500C50F1000041EBCC
:1008A800045170BD0EF0004E4EEA113114EB5C0499
:1008B800C2BFD4EB0C0541EA045170BD41F480116C
:1008C8004FF0000E013C90E645EA060E8DE60CEA74
:1008D800135594EA0C0F08BF95EA0C0F3FF43BAF91
:1008E80094EA0C0F0AD150EA01347FF434AF95EA48
:1008F8000C0F7FF425AF104619462CE795EA0C0F2C
:1009080006D152EA03353FF4FDAE1046194622E7F8
:1009180050EA410618BF52EA43067FF4C5AE50EAD2
:1009280041047FF40DAF52EA43057FF4EBAE12E7C2
:100938004A0011D212F5001211D20DD56FF4787356
:10094800B3EB62520ED44FEAC12343F0004343EAAB
:10095800505323FA02F070474FF00000704750EAF6
:10096800013002D14FF0FF3070474FF00000704760
:1009780080F0004002E000BF81F0004142001FBF4C
:100988005FEA410392EA030F7FEA226C7FEA236C55
:100998006AD04FEA1262D2EB1363C1BFD21841404A
:1009A80048404140B8BF5B42192B88BF704710F0E0
:1009B800004F40F4000020F07F4018BF404211F083
:1009C800004F41F4000121F07F4118BF494292EAEB
:1009D800030F3FD0A2F1010241FA03FC10EB0C0017
:1009E800C3F1200301FA03F100F0004302D54942A4
:1009F80060EB4000B0F5000F13D3B0F1807F06D351
:100A080040084FEA310102F10102FE2A51D2B1F148
:100A1800004F40EBC25008BF20F0010040EA03003D
:100A28007047490040EB0000013A28BFB0F5000FBD
:100A3800EDD2B0FA80FCACF1080CB2EB0C0200FA73
:100A48000CF0AABF00EBC25052421843BCBFD040C2
:100A58001843704792F0000F81F4000106BF80F43C
:100A680000000132013BB5E74FEA41037FEA226CFF
:100A780018BF7FEA236C21D092EA030F04D092F0CA
:100A8800000F08BF0846704790EA010F1CBF0020FE
:100A9800704712F07F4F04D1400028BF40F000405B
:100AA800704712F100723CBF00F50000704700F07B
:100AB800004343F0FE4040F4000070477FEA2262A2
:100AC80016BF08467FEA23630146420206BF5FEA73
:100AD800412390EA010F40F4800070474FF0000373
:100AE80004E000BF10F0004348BF40425FEA000C3A
:100AF80008BF704743F0964301464FF000001CE0E2
:100B080050EA010208BF70474FF000030AE000BF37
:100B180050EA010208BF704711F0004302D5404275
:100B280061EB41015FEA010C02BF844601460020E7
:100B380043F0B64308BFA3F18053A3F50003BCFA02
:100B48008CF2083AA3EBC25310DB01FA02FC6344AF
:100B580000FA02FCC2F12002BCF1004F20FA02F2B6
:100B680043EB020008BF20F00100704702F12002A9
:100B780001FA02FCC2F1200250EA4C0021FA02F20A
:100B880043EB020008BF20EADC7070474FF0FF0C0F
:100B98001CEAD0521EBF1CEAD15392EA0C0F93EA0A
:100BA8000C0F6FD01A4480EA010C400218BF5FEAAC
:100BB80041211ED04FF0006343EA501043EA51111F
:100BC800A0FB01310CF00040B1F5000F3EBF490019
:100BD80041EAD3715B0040EA010062F17F02FD2A1D
:100BE8001DD8B3F1004F40EBC25008BF20F0010000
:100BF800704790F0000F0CF0004C08BF49024CEA17
:100C0800502040EA51207F3AC2BFD2F1FF0340EAA8
:100C1800C250704740F400004FF00003013A5DDC19
:100C280012F1190FDCBF00F000407047C2F100025A
:100C3800410021FA02F1C2F1200200FA02FC5FEA47
:100C4800310040F1000053EA4C0308BF20EADC7091
:100C5800704792F0000F00F0004C02BF400010F403
:100C6800000F013AF9D040EA0C0093F0000F01F0B0
:100C7800004C02BF490011F4000F013BF9D041EAD2
:100C88000C018FE70CEAD15392EA0C0F18BF93EAD4
:100C98000C0F0AD030F0004C18BF31F0004CD8D1FE
:100CA80080EA010000F00040704790F0000F17BF85
:100CB80090F0004F084691F0000F91F0004F14D0CB
:100CC80092EA0C0F01D142020FD193EA0C0F03D123
:100CD8004B0218BF084608D180EA010000F0004026
:100CE80040F0FE4040F40000704740F0FE4040F401
:100CF800400070474FF0FF0C1CEAD0521EBF1CEAA0
:100D0800D15392EA0C0F93EA0C0F69D0A2EB0302BD
:100D180080EA010C49024FEA402037D04FF0805357
:100D280043EA111143EA10130CF000408B4238BF1C
:100D38005B0042F17D024FF4000C8B4224BF5B1A2A
:100D480040EA0C00B3EB510F24BFA3EB510340EA78
:100D58005C00B3EB910F24BFA3EB910340EA9C0026
:100D6800B3EBD10F24BFA3EBD10340EADC001B0196
:100D780018BF5FEA1C1CE0D1FD2A3FF650AF8B423A
:100D880040EBC25008BF20F0010070470CF0004C47
:100D98004CEA50207F32C2BFD2F1FF0340EAC25072
:100DA800704740F400004FF00003013A37E792F033
:100DB800000F00F0004C02BF400010F4000F013A91
:100DC800F9D040EA0C0093F0000F01F0004C02BF8C
:100DD800490011F4000F013BF9D041EA0C0195E7F5
:100DE8000CEAD15392EA0C0F08D142027FF47DAF8E
:100DF80093EA0C0F7FF470AF084676E793EA0C0F7E
:100E080004D14B023FF44CAF08466EE730F0004C7B
:100E180018BF31F0004CCAD130F000427FF45CAF0B
:100E280031F000437FF43CAF5FE700BF4FF0FF3C79
:100E380006E000BF4FF0010C02E000BF4FF0010CCC
:100E48004DF804CD4FEA40024FEA41037FEA226C95
:100E580018BF7FEA236C11D001B052EA530C18BFB7
:100E680090EA010F58BFB2EB030088BFC81738BF1C
:100E78006FEAE17018BF40F0010070477FEA226C0A
:100E880002D15FEA402C05D17FEA236CE4D15FEA06
:100E9800412CE1D05DF8040B704700BF844608463A
:100EA8006146FFE70FB5FFF7C9FF002848BF10F1FB
:100EB800000F0FBD4DF808EDFFF7F4FF0CBF012040
:100EC80000205DF808FB00BF4DF808EDFFF7EAFFCA
:100ED80034BF012000205DF808FB00BF4DF808ED85
:100EE800FFF7E0FF94BF012000205DF808FB00BF7A
:100EF8004DF808EDFFF7D2FF94BF012000205DF800
:100F080008FB00BF4DF808EDFFF7C8FF34BF01200C
:100F180000205DF808FB00BF4FEA40024FEA41039A
:100F28007FEA226C02D15FEA402C08D17FEA236C69
:100F380002D15FEA412C02D14FF0000070474FF018
:100F4800010070474FEA4002B2F1FE4F0FD34FF055
:100F58009E03B3EB12620DD94FEA002343F000431E
:100F680010F0004F23FA02F018BF404270474FF0CC
:100F78000000704712F1610F01D1420205D110F053
:100F8800004008BF6FF0004070474FF00000704706
:100F980042000ED2B2F1FE4F0BD34FF09E03B3EBDB
:100FA800126209D44FEA002343F0004323FA02F007
:100FB80070474FF00000704712F1610F01D14202F3
:100FC80002D14FF0FF3070474FF00000704700BF6C
:100FD8000022427082700122C270B1FA81F10222AD
:100FE80049090271032201704271704743788B42AC
:100FF8001FD0012941700AD0022910D0C1B901239C
:10100800C37081700223037103234371704703780F
:1010180043B1012383700223C3700023F3E70378ED
:10102800002BF6D0022383700023C3700123EAE764
:10103800FEE7704782B00B88ADF800304B88ADF8FA
:1010480002308B88ADF80430CB88ADF80630023911
:10105800431C053013F8012F0DF1080C0CEB42026C
:10106800834232F8082C21F8022FF3D102B07047DE
:101078000A4B10B54FF07F32C0E923234FF47F436A
:10108800A0F89430FF2380F896300446983000F09A
:101098007CFD002384F8A43010BD00BFFFFF7F0053
:1010A80070B51146154604461E4600F004FD294653
:1010B80004F1140000F0FFFC294604F1280000F0B8
:1010C800FAFC294604F13C0000F0F5FC294604F13D
:1010D800500000F0F0FC294604F1640000F0EBFC3D
:1010E800294604F1780000F0E6FC4FF4FA73324622
:1010F8004FF4FA6104F1980000F02DFD2046FFF747
:10110800B7FF002384F8A5304FF47F43A4F8A63036
:1011180070BD704700F0D6BC143000F0D3BC08B5E1
:10112800503000F0D9FC292100F114030246B3FB2A
:10113800F1F313F0FF0002D1101E18BF012008BD03
:1011480008B5643000F0C8FC292100F114030246F8
:10115800B3FBF1F313F0FF0002D1101E18BF0120FA
:1011680008BD90F8903013B990F98C00704790F949
:101178008D00704790F8903013B990F98E00704741
:1011880090F98F00704710B504460BF0FBFE38B19C
:1011980004F13C0000F09AFC012838BF0120C0B2DD
:1011A80010BD783000F09ABC783000F09FBC10B5C4
:1011B800044600F061FC04F1140000F05DFC04F149
:1011C800280000F059FC04F13C0000F055FC04F143
:1011D800500000F05DFC04F1640000F059FC04F1DB
:1011E8007800BDE8104000F059BC7F2807D00028DF
:1011F80007DA10F1800F06D04042C0B270470020D5
:101208007047012070477F20704710B1404240B2BC
:1012180070477F2070477F280FD010F1310F0EDA0A
:1012280010F1780F0DDB7830FE2340B2584323309D
:101238004623B0FBF3F0C0B27047FF207047FE2092
:10124800704700207047012805DD40F2FE73984280
:1012580003DC80B270470120704740F2FF7070478E
:10126800A0F57870C0EBC02040F2AE7390FBF3F0AD
:1012780000F58060FFF7E7BFFFF7F2BF032812DD34
:101288000C2812DD0F2812DD122812DD162812DDB7
:10129800192812DD1C2812DD1F2812DD2128CCBFD9
:1012A800FF20062070470020704701207047022069
:1012B80070470820704703207047072070470420B4
:1012C800704705207047000004289ABF014B185C3E
:1012D800FF2070473C20010804289ABF014B185C86
:1012E800FF207047412001087F2808BF0020C0B2B6
:1012F80070477F2811D010F1320F10DA884210DDC4
:10130800401A6423C1F1FF21584301F57F01CE3112
:10131800313090FBF1F0C0B27047FF207047642075
:101328007047002070470000014B4840185C704728
:101338004820010852B110B4054C0A4411F8013B89
:1013480058408A42205CF9D110BC7047704700BFF2
:1013580048200108392808D822280ED9094B2338F3
:10136800C0B2C34003F0010070475F2807D061385E
:1013780019288CBF002001207047002070470120E9
:10138800704700BF01EC7F00F8B50246451E461DB8
:1013980000245F2715F8010FFF2804BF0134E4B2C9
:1013A800FFF7D8FF00B92F70AE42F3D1062C04D155
:1013B80019B10B6813608B88938000239371F8BD73
:1013C8002DE9F843DFF83490471E441D0125002617
:1013D8004FF0280817F8011F084810F09EFD034633
:1013E80010B1A0EB0903DBB2A3FB05329E19A7429B
:1013F800A5FB0853EED13046BDE8F8834821010823
:1014080010B54179A1F13000C3B2092B07D80523E3
:10141800B0FBF3F303EB8303C01AC0B210BD044C56
:10142800204610F07AFD0028F1D0001BC0B2EEE78C
:1014380048210108F0B5094B094F821D2826B1FB48
:10144800F3F4272C94BF3D5D302502F8015D8242FC
:1014580003FB1411B3FBF6F3F1D1F0BD00801A06BB
:101468004821010870B50446FEF78CFE82B20023BD
:10147800551E98B2A84214FA83F104DA265C302E7D
:1014880003F10103F5D0121A01322046BDE870407D
:1014980010F012BD2DE9F04F0D4699B01646002107
:1014A8001A461F46804610F021FD00212A2201A875
:1014B800009110F01BFDDFF8CC90DFF8CCA0DFF82E
:1014C800CCB005EB4606AE4211D16846FEF75AFE8F
:1014D80030B100F160030DEB0300002300F8613C1C
:1014E8006946404610F062FD19B0BDE8F08F35F945
:1014F800020B47F6FF739842E7D0002812DC5946E2
:101508000CA810F053FD6846FEF73CFE04460CA8F4
:10151800FEF738FE0444A742D5D30CA9684610F05C
:10152800EDFCD0E7B0F57A7F0BDA0CA980B20EF0AB
:101538003AFB0CA8FFF796FF51460CA810F0DEFC0A
:10154800E1E764230CA93230B0FBF3F080B20EF06F
:101558002AFB0CA8FFF786FF0CA8FEF713FE00F184
:101568005F036B4400F160010DEB010013F8302CB0
:1015780000F8302C2E2203F8302C002300F82F3CE2
:101588004946DAE736200108312001082C200108F5
:10159800F0B589B06D4600242F468E1CE1B28A4210
:1015A80004D83946FFF776FF09B0F0BD36F82410A5
:1015B80025F8021B0134F1E742F210736421B0FBF5
:1015C800F3F203FB1200B0FBF1F301FB130000EB95
:1015D800023000EB831080B27047020B00F03F032B
:1015E80042F2107101FB0233C0F38510642202FB42
:1015F800003070472DE9F04142F2107388B0B1FB1A
:10160800F3F603FB16141F49DFF87C80054610F03B
:10161800CDFC6946F0B20EF0A3FA6846FFF722FF48
:101628006946284610F06AFC4146284610F066FCD8
:1016380064276946B4FBF7F6F0B20EF091FA6846F3
:10164800FFF710FF6946284610F058FC07FB1644C0
:101658004146284610F052FC6946E0B20EF080FA86
:101668009DF801308DF800309DF802308DF801307A
:101678006946002328468DF8023010F03FFC08B078
:10168800BDE8F081333101083A20010870B50E46F3
:1016980000210546144610F029FC00239AB2944212
:1016A80000D870BDF25C002AFBD0EA540133F5E79C
:1016B80070B50E46144600210132054610F016FC9E
:1016C80000239AB2944200D870BDF25C002AFBD085
:1016D800EA540133F5E730B50023044698B2904246
:1016E80001D3012005E0E55CC85C1DB9B0FA80F0C3
:1016F800400930BD0028FCD0854203F10103EDD03C
:101708000020F6E7914206D19DF900008342CCBF44
:10171800002001207047022909D0022A05D001299A
:1017280005D0531E58425841704701207047002089
:1017380070477D23438043F2390309B2C360002315
:1017480001808180C380037270470000C268044929
:10175800044B01FB023323F00043C360980F70472A
:10176800FD430300C39E260010B501290446807975
:101778001AD8042801D80130A071012AE07917D8B5
:10178800042801D80130E07191424AD8914245D3EA
:10179800012930D1012A2ED1A279E3799A4228D39E
:1017A80022D96FF07C0310E00028E6D00138E3E787
:1017B80008B10138E0710229E6D1022AE6D19DF983
:1017C800082093420BDDB4F9003062881A4412B243
:1017D8007C2A28DD7D2262800022227227E01BDA23
:1017E80023885B421BB2F0E72046FFF7AFFF0028D3
:1017F800D7D07D23E9E7B4F90400B4F90030228892
:10180800B4F90210002804DB7C29DEDD524213B251
:10181800DBE77C31D9DBF9E70023D6E76FF04A0331
:10182800D3E74B23D1E712F17C0F02DB6280A38060
:1018380010BD4FF6837262800122CEE70268044928
:10184800044B01FB023323F000430360180C70477C
:10185800FD430300C39E2600F0B5002597B0016044
:101868008580044656222946684610F03FFB01262B
:10187800E27DAA4209D80023802104F1B800A375AB
:1018880017B0BDE8F04010F031BB2046FFF7D6FF97
:10189800E7797B1B002190FBF3F202FB1300C0B237
:1018A800EC460A46CBB29F4223D800230022277B6E
:1018B8001146D0B2874227D80029D9D1A279033A54
:1018C800012A04EB050105D925B191F9172012BBAE
:1018D800012BCDD90B76A26852F82310583305F1A5
:1018E8000E026B44013544F8221003F8586CEDB22F
:1018F800BEE71CF801EBBEF1000F03D18242D5D040
:101908000132D2B20131CDE72069805C01329842C0
:1019180008BF0121CDE7501E8342DBDB0132934231
:10192800D8DCA5E72DE9F04F154697B0013D0160D9
:10193800027104464371EDB2562200216846994669
:10194800002710F0D3FA022D84BF4FF0010A0025BA
:101958003E4694F807809CBF4FF0030AB8FBFAF89C
:10196800E27DB24209D80023802104F1B800A375B2
:1019780017B0BDE8F04F10F0B9BA2046FFF75EFF88
:10198800A8EB060390FBF3F202FB13030020DBB283
:10199800EC460246C1B2414506D21CF801EBBEF145
:1019A800000F22D19A421ED1414528BF414601FB72
:1019B8000A50002294F80CE000F0FF009446D3B2DD
:1019C8009E4514D8BCF1000FCAD1A3680FFA80FC59
:1019D80009F1FF3E53F82C20BEF1030F15D8DFE8BC
:1019E8000EF00E2A2D300132D2B20130D2E723692F
:1019F8009B5C0132834208BF4FF0010CDFE7DFF840
:101A080064E09644184A9645AAD916B117BB01292D
:101A1800A6D9A2190F46107653F82C2006F10E030A
:101A280044F8232001F1580301226B44164403F8BB
:101A3800582CF6B294E7DFF834E0E2E7DFF830E05C
:101A4800DFE7A2F53D02DFF82CE0A2F59D42443A1B
:101A58007245D9E77A1E9142DBDB7A1C9142D8DCC9
:101A68007EE700BFC54E47FF3BB10100776245FFE7
:101A7800287643FF3CB10100D0E901236421D31A41
:101A8800C36082604B43418AB3FBF1F30374704730
:101A9800D0E90123D31AC0E90223704743682BB168
:101AA800C26864214A43B2FBF3F2D3B20374002341
:101AB800C360436070470023C0E90233418243603A
:101AC800037470474368013343607047007C704774
:101AD80043680B4443607047C068704711B1C368DE
:101AE8000133C3604368013343607047007C70472B
:101AF80000234360038170470A2310B5044683809E
:101B080002F07EF82368E0809B68204698474FF6ED
:101B18002F03984228BF1846208110BD038970B54D
:101B280004469BB1858845B1013DADB285806DB94C
:101B380003681B68BDE87040184702F061F8E38845
:101B4800C01A238980B2834201D2258170BD2368DF
:101B580020465B68EEE72DE9F041044610461D4635
:101B680016468846FEF7BAFF074606EB0800FEF75A
:101B7800B5FF01463846FFF7BDF865602060284686
:101B8800FEF7B0FFA060BDE8F08110B504464068DC
:101B9800FEF7A8FFA06010BD10B50229044680EA30
:101BA800E070A0EBE47068D15AB9002CACBF7F2379
:101BB8003F239842A8BF1846002C01DA40F04000A5
:101BC80010BD012A1AD1632805DC4000002CF7DA81
:101BD80040F48070F4E740F2F54398420CDCFEF7DD
:101BE8007DFF5749FEF7D2FF0FF03CF8FFF7D0F919
:101BF800400040F00100E9E7FF20E7E7022A40F053
:101C08009C80632805DC8000002CD9DA40F4007041
:101C1800D6E7B0F57A7F0CDAFEF760FF4849FEF7A1
:101C2800B5FF0FF01FF8FFF7B3F9800040F001008F
:101C3800EAE742F20F7398420CD8FEF74FFF41498A
:101C4800FEF7A4FF0FF00EF8FFF7A2F9800040F0AE
:101C58000200D9E73C4B98420CD8FEF73FFF3B49BE
:101C6800FEF794FF0EF0FEFFFFF792F9800040F0B8
:101C78000300C9E740F2FF10C6E703295DD1012A36
:101C88001BD1B0F57A7F05DA4000002C98DA40F4D1
:101C9800006095E7B0F5205F0CDAFEF71FFF2849D2
:101CA800FEF774FF0EF0DEFFFFF772F9400040F018
:101CB8000100EAE740F2FF70E7E7022A3DD1B0F5FC
:101CC8007A7F06DA8000002CBFF67AAF40F48050A5
:101CD80076E742F20F7398420CDCFEF7FFFE1849D4
:101CE800FEF754FF0EF0BEFFFFF752F9800040F0F8
:101CF8000100E8E7164B98420CD8FEF7EFFE1149B1
:101D0800FEF744FF0EF0AEFFFFF742F9800040F007
:101D18000200D8E7B0F57A2F0CD2FEF7DFFE0B49A8
:101D2800FEF734FF0EF09EFFFFF732F9800040F017
:101D38000300C8E740F6FF70C5E7002040E700BF92
:101D4800CDCCCC3D0AD7233C17F001006F12833A63
:101D58009F860100002303607047000038B5084BD8
:101D680009291B7828BF09218B4204460D4602D158
:101D78000023036038BD01F037FF25712060F9E7C3
:101D8800CC020020036810B504460BB9002010BD32
:101D980001F02AFF2368C01A40F2EE239842F5D9D1
:101DA8000023054A2360127823799A42EED0034A29
:101DB8000120D377EBE700BFCC02002024030020EA
:101DC800FF2343710023017183710381837270477C
:101DD80038B5037904460D465BB14179A94208D06C
:101DE80041B101290AD00023A371657155B1012DB4
:101DF8000FD038BD03689B689847F4E70368002153
:101E0800DB68F9E723689B68012120469847A071A1
:101E1800EFE723682946DB68F7E72DE9F04F077CF1
:101E2800C37B857CC67C90F815E090F8208090F8FC
:101E38000EC0BF000C4647EA931703F03F01437CEE
:101E480003F0010247EA822705F00F02D20142EAB5
:101E5800530206F07F031B0143EA1513057D89B081
:101E68006D0045EAD6150EF00306059345EA4623AC
:101E7800867D009306F01F05AD0145EA9E03C57DEA
:101E880090F819E00193ED0045EA5613057E029398
:101E98000EF0070645EA0623857E039305F03F0604
:101EA800760146EADE03C67E90F81CE00493B6008D
:101EB80046EA95160EF0010546EA8526457F069204
:101EC80005F00F0B4FEACB1B4BEA5E0B90F81EE0B8
:101ED8000EF07F0A4FEA0A1A4AEA151AC57F6D0002
:101EE80045EADE1508F0030E45EA4E2590F821E094
:101EF8000EF01F094FEA891949EA9809490190F833
:101F08002280407B41EADC010CF0070C40EA0C20FF
:101F18004FEAC80848EA5E180791FFF7A1F9079940
:101F280020800846FFF79CF960803846FFF798F94B
:101F3800069AA0801046FFF793F9059BE0801846A3
:101F4800FFF78EF920810098FFF78AF960810198E0
:101F5800FFF786F9A0810298FFF782F9E0810398DC
:101F6800FFF77EF920820498FFF77AF960823046FD
:101F7800FFF776F9A0825846FFF772F9E0825046DB
:101F8800FFF76EF920832846FFF76AF96083484611
:101F9800FFF766F9A0834046FFF762F94FF48063C4
:101FA800E0832384638409B0BDE8F08F2DE9F04114
:101FB80004460F4601F024FE4FF001080546236849
:101FC80020461B689847064650B9A37A012B1FD1B3
:101FD8002389ED1A40F6C4139D42C8BFA07217E0CA
:101FE800236820465B689847A37AA3B90F2814D1C1
:101FF800A4F80A80E37AE2180133DBB2182B1073D5
:10200800E3720AD939462046FFF707FF0023A37277
:102018003046BDE8F081012BECD02581CFE78279ED
:1020280022B14379012B01D8FFF7C0BF00207047C8
:10203800704770477047704700207047002070470E
:10204800704700207047002070474FF0B04382B0BF
:10205800DA6C0243DA64DB6C03400193019B02B043
:1020680070474FF0B04382B09A6D02439A659B6DFA
:1020780003400193019B02B070474FF0B04382B018
:102088001A6E02431A661B6E03400193019B02B04D
:10209800704750E8003F43F0800340E80032002AD0
:1020A800F7D1704750E8003F23F0200340E80032A2
:1020B800002AF7D1704750E8003F23F0400340E87A
:1020C8000032002AF7D1704750E8003F23F0800320
:1020D80040E80032002AF7D1704770477047000087
:1020E8000288044B5140C9B233F8113083EA1223F5
:1020F80003807047844E01089AB110B4B0F800C04C
:10210800084C0A4411F8013B83EA0C03DBB2914204
:1021180034F8133083EA1C2CA0F800C0F2D110BCAC
:1021280070477047844E010837B54FF6FF73044671
:10213800ADF806304518AC4203D1BDF8060003B02F
:1021480030BD14F8011B0DF10600FFF7C9FFF2E7D7
:10215800064B187840B1064B1888064B1B8880B28E
:102168009BB2C01A18BF0120704700BF2C00002086
:10217800803F00207E3F0020002070470649074A24
:102188000B8812880133C3F3080392B29A421EBF28
:10219800034AD0540B8070477835002076350020EC
:1021A800763300200023A0F87032A0F86E32704712
:1021B8000023A0F85C32A0F85A3270472D4B5A6AB7
:1021C800037A92B263B18389D31A9BB2B3F5FA7FCB
:1021D80084BF00230372837A4F2B84BF00230372CA
:1021E800037A8281082B0FD8DFE803F0050E0E0E64
:1021F8000E0E0F172200EE2901D0C82904D10123A1
:1022080083724175062303727047837A5A1C03440C
:102218008272597541720723F5E7827A531C02448A
:10222800DBB283725175427A9A42EDD20823EAE70B
:10223800837A5A1C034482725975C37D162B04D1C4
:10224800012380F865300923DDE743690A4A03F072
:10225800FF2393424FF0010309D1428BB2F5A26FDD
:1022680005D180F86730037F80F86830EBE780F8A5
:102278006630E8E70044014000C80032044B188883
:10228800044B1B8880B29BB2C01A18BF012070474C
:1022980078350020763500200278024B51405B5C8F
:1022A80003707047603A0108FF230370704700BF4E
:1022B8007047B0F87032B0F86E22D21A93B2120496
:1022C80041BFB0F8722201329B189BB2181E18BF8A
:1022D80001207047A0F11400EBE7B0F87022B0F8C5
:1022E8006E12914203461FBF8118013291F87402A1
:1022F800B3F872121ABF0A40A3F870220020704780
:10230800A0F11400E9E7000008B51E2203480021E7
:102318000FF0ECFD024B00221A7008BD900D002052
:102328007805002038B54A78352A0D46044601F16B
:102338000C010AD80FF042FE68780021C0F136027D
:102348002044BDE838400FF0D1BD403551F8043B7A
:1023580040F8043BA942F9D10B88038038BD38B551
:102368004A781B2A0C46054601F10C010AD80FF0E1
:1023780025FE60780021C0F11C022844BDE83840E1
:102388000FF0B4BD283451F8043B45F8043BA14292
:10239800F9D138BD38B54A78082A0D46044601F106
:1023A8000C010AD80FF00AFE68780021C0F1090272
:1023B8002044BDE838400FF099BDEB6803604B68D6
:1023C80043600B7A037238BD38B54A78072A0C4641
:1023D800054601F10C010AD80FF0F0FD60780021E4
:1023E800C0F108022844BDE838400FF07FBDE3681B
:1023F80003604B68436038BD2DE9F04113780370E2
:1024080092F8018080F80180FD2B04460F4615469E
:1024180054D193788370D378C37013790371537947
:102428004371937983716B7A127A1B0403EB02234D
:10243800EA79134423F07F430A26A26863F317025C
:10244800A260A919424604F10C000FF0B7FD7A7B8F
:10245800904507D208F10C00A2EB080200212044A5
:102468000FF044FD63781E44AB195A78AB5D03EB5B
:102478000223A4F80C31A378DB070ED5023615FA2F
:1024880086F304F5887203F10C0153F8040B42F843
:10249800040B8B42F9D11B781370BB7A84F8213175
:1024A800FB7A84F822313B7B84F823317B7B84F8E8
:1024B80024313B7884F82031BDE8F0810023438043
:1024C80093780371D378437113798371537906260E
:1024D800B3E770B50B7803704B7843700B78FD2B1E
:1024E80005460C4638D18B788370CB78C3700B794E
:1024F80003714B7943718B7983718B68C3718B68D6
:10250800C3F30F2303728B7A43720A26627804F1AD
:102518000C01A8190FF052FD6378B4F80C2133446C
:10252800981CEA545A1CB4F80C1192B2090AA9541E
:10253800A278D20780B20ED504F58872054404F556
:102548008E7452F8041B45F8041BA242F9D1127884
:102558002A700F3398B270BD00238B700B7983708B
:102568004B79C3708B7903718B6843710626CDE76D
:1025780038B54A78132A0C46054601F10C010AD8E9
:102588000FF01CFD60780021C0F114022844BDE85A
:1025980038400FF0ABBC203451F8043B45F8043BFD
:1025A800A142F9D138BD00002DE9F04F0C46518801
:1025B800B1F58C7F054685B04FF0000010D3107040
:1025C800D91CC9B2012995BF01210023518053802C
:1025D8009CBF237011700020287005B0BDE8F08FF3
:1025E80016780E2E00F2908001A757F826F000BF4B
:1025F800C9250008352600085D2600087B26000846
:1026080011270008112700081127000811270008C2
:1026180011270008112700081127000811270008B2
:1026280011270008112700088D260008481C508033
:1026380063542178FD299BB206D10C330A21D3803B
:10264800918002231370C6E708330621D380918056
:102658000E23F7E7481C50806354D80742BFD1883F
:102668000D31D1800020012B8CBF0346032313704A
:10267800B2E7481C508000208342635414BF0346CD
:102688000E23F4E7481C508063545388D1888B424A
:1026980032D300235380137002232B706980237870
:1026A800FD2B37D163792B72A3796B72637A227A07
:1026B8001B0403EB0223E27913446B60637803F194
:1026C8000C026A80A278D10701D519336B800026E5
:1026D8006968DFF800816E8140F26B120C20B31834
:1026E80001335B0800FB03F758F80770B9421AD2A8
:1026F8005A1EB242F3D818E092889A423FF66BAF5E
:1027080001232B70002068E7107050809080D080E3
:102718002870F7E7E3782B7223796B7263796B6023
:1027280063780833D2E71E46E3D80C27774358F876
:102738000730994227D123782046FD2B10F801BF96
:102748000CBF4FF00A094FF0060909EB0B03591E9D
:1027580089B247440193FFF7E7FC97F804A0ADF866
:102768000E0051460DF10E00FFF7BAFC019BE2186E
:10277800E35C527803EB0223BDF80E209BB29A4229
:1027880009D0052000E003202870023801288CBFFA
:102798000020012021E7BB79DA0706D5FA799345AD
:1027A80082BF04EB09018A5CAA729B0709D50C2336
:1027B80003FB068362781B7A9A4282BF4C44E35C2F
:1027C800EB720C2303FB068385F80CA05B796B7313
:1027D8000220DAE7603B0108084B5B6A4FF04022B1
:1027E80002F5806353E8003F43F0200302F5806060
:1027F80040E800310029F3D1704700BF0044004091
:102808000A4A0B4B12680B49A3FB02323220920C86
:1028180000FB02F2084B486802F5FA72A3FB023289
:1028280092094B681B1A9A42FBD87047480200204D
:1028380083DE1B43001000E0D34D621008B5FFF79C
:10284800DFFF024B04229A6108BD00BF0004004864
:10285800024B04229A62FFF7D3BF00BF000400486E
:1028680030B587B0034601AC00F110051868596807
:10287800224603C20833AB421446F7D10024094D5F
:102888008DF81440A96801A8FDF772FC10B920B2B0
:1028980007B030BD01342B2C05F10C05F2D14FF0F7
:1028A800FF30F5E73000002002780A4B90F801C0AD
:1028B8008178D243D2B29A5C82EA0C0290F803C0C3
:1028C8009A5C4A40995C027981EA0C01595C4A4059
:1028D800985C7047603A0108028810B58488531CD8
:1028E800234044889C421EBF12189171038010BD7A
:1028F80070B5104C0025234626782EB166788E4296
:1029080002D1A67896420BD001350C2D04F10404AF
:10291800F2D1002413F824501DB101340C2CF9D144
:1029280070BD012503F8245003EB8403D870597057
:102938009A70F5E77D0500202DE9F8430B460D79DF
:102948005A7A9E7ADF7A204B097A1B5CDB070446A9
:1029580000D50DB9FFF7CCFF00231C491A4898464B
:102968004FF0010E9C4201F8018B25D02DB9027859
:10297800920702D501F801EC1EE0154A4FF0000C51
:1029880092F80090B9F1000F0FD092F80390994592
:102998000BD1002EEED092F80190B14505D1002F51
:1029A800E8D092F80290B945E4D00CF1010CBCF1E2
:1029B8000C0F02F10402E3D10133DBB2042B00F166
:1029C8000100CFD1BDE8F883AD05002079050020CE
:1029D8007D050020F0B50546FD2305F80C3B85B0C4
:1029E80004468DF8043090F8243103F10C020244B7
:1029F800012B42D80026637066808DF805308B7AEB
:102A080023718DF808308B7AADF8066001338B722C
:102A180063798DF80930A3798DF80A30A368C3F378
:102A280017031A128DF80B3009211B140DF105003C
:102A38008DF80D308DF80C20FFF776FB6778ADF830
:102A480002003A4629460DF10200FFF755FB94F8BB
:102A58002311FFF745FB94F82421BDF80230A4F8B0
:102A68000C31974210D207F10C00D21B314620449A
:102A780005B0BDE8F0400FF039BA12F8010D002892
:102A8800B8D1013BDBB2B3E705B0F0BD7047704782
:102A9800044AD2F8903023F40043C2F89030FFF78C
:102AA800AFBE00BF0004005808B5FFF7A9FE044AEE
:102AB800D2F8903043F40043C2F8903008BD00BF0C
:102AC80000040058064B1B7843B1064A00231380C4
:102AD800054A1380054A1380054A1380704700BFD2
:102AE8002C0000207E3F0020803F002082410020F3
:102AF80084410020054B1B783BB9054A1380054AE1
:102B08001380054A1380054A138070472C00002063
:102B18007E3F0020803F0020824100208441002029
:102B2800074B084A5B6A02F5006353E8003F43F02D
:102B3800200302F5006040E800310029F3D1704716
:102B48000038014000300140074B1B784BB9074B58
:102B58001888074B1B8880B29BB2C01A18BF012087
:102B680070470020704700BF2C000020803F0020E5
:102B78007E3F002007B503688DF80710DB68012247
:102B88000DF10701984703B05DF804FB70B50446E2
:102B980008460D46FDF7F6FA236882B22946204614
:102BA800DB68BDE870401847B0F1904F02D10120B2
:102BB800FFF74BBA084B984205D003F5806398425B
:102BC80003D10420F4E70220F2E7044B984201D134
:102BD8008020EDE7704700BF00040048001C004853
:102BE8000C4B984203D14FF40060FFF746BAB0F19E
:102BF800804F05D0084B984205D14FF40030F4E7D8
:102C08000120FFF72EBA054B984202D14FF48020DD
:102C1800EBE77047002C01400044014000480140A8
:102C28002DE9F04387B00E460546144600211422CC
:102C380001A89DF838809DF83C901F460FF056F982
:102C480000960B2C07D8DFE804F007070A121414C3
:102C5800141616161A1CFEE70323019301E002233B
:102C68000493032F11D8DFE807F011132111012372
:102C7800F6E70123F1E7012301930393F1E7022328
:102C8800EBE7022301930123F7E7FEE70223029310
:102C9800B8F1100F0CD8DFE808F02D2D0C11131522
:102CA80017191B1D1F21232527292B000123EEE7B8
:102CB800FEE701230593022301931EE00223F9E7AF
:102CC8000323F7E70423F5E70523F3E70623F1E7F2
:102CD8000723EFE70823EDE70923EBE70A23E9E7F2
:102CE8000B23E7E70C23E5E70D23E3E70E23E1E7F2
:102CF8000F23DFE7B8F1000FDDD1B9F1000F02D0E3
:102D08002846FFF751FF053C042C05D8DFE804F0FE
:102D1800030B04030B00AE62694628460CF02AFA3E
:102D280007B0BDE8F083AE61F6E713B54FF0010CCC
:102D38000024CDE9004CFFF773FF02B010BD00007E
:102D480007B50E48FFF7AEF9036823F001030360E7
:102D5800436823F400434360036843F001030360BE
:102D680000220823CDE90032042103230A224FF070
:102D78009040FFF755FF03B05DF804FB00440040A6
:102D880030B587B0002315460446ADF80630FFF786
:102D980027FF042D04D8DFE805F02E3204363F0063
:102DA800FEE71E4B1E4A1B68B3FBF2F39BB20022E0
:102DB800CDE90221013B01A92046ADF80430049277
:102DC80005920CF003FC236823F080032360A368BA
:102DD80023F4A03323F00703A360636823F0700390
:102DE8006360636823F470036360A36823F080035F
:102DF800A36007B030BD094B0A4A1B68D4E7074BEC
:102E0800094A1B68D0E7054B064A1B68B3FBF2F377
:102E180003EB83035B00C9E70123C8E748020020EE
:102E280080A8120140420F0000127A0010B5044633
:102E3800FFF7A6FF236843F00103236010BD0022BB
:102E48004FF0FF31FFF7F2BF1A4B10B51A4C5B6811
:102E580023600BF0F5FA4FF090400CF04DF917484D
:102E68000CF04AF916480CF047F916480CF03CFDEE
:102E780015480CF039FD0CF0DBFA4FF0E022002386
:102E880013615361936172B64FF0FF319A0002F1FA
:102E9800604202F561420133082BC2F88010C2F883
:102EA8008011F3D162B6034B1B6883F3088823684B
:102EB8009847FEE70000FF1F740500200004004843
:102EC8000008004800380140004400400749084A0B
:102ED800881AEFF30883521A1A44013A013B9842C0
:102EE80088BF0022AA210FF001B800BF000001200E
:102EF80000040000044B5A69586910F0020018BF1A
:102F0800C2F38000704700BF000400584FF0B04281
:102F1800D2F8943043F40043C2F894304FF47A73F3
:102F280000BF013B9BB2002BFAD14FF0B043D3F85E
:102F3800942022F40042C3F89420D3F89420520439
:102F4800FBD40C4BD3F8902022F40042C3F8902015
:102F58004FF47A7200BF013A92B2002AFAD1D3F83C
:102F6800902042F40042C3F890204FF400629A6126
:102F7800704700BF0004005810B503230522402104
:102F88004FF09040FFF7D1FEBDE810400323052223
:102F980080214FF09040FFF7C8BE08B5FFF7AAFFA1
:102FA800003818BF012008BD08B5FFF7F6FF00B9C3
:102FB80008BD00BFF9E74FF0904380229A62402293
:102FC8009A6170474FF0904340229A6280229A613A
:102FD80070470000024B4FF480225A60704700BFD0
:102FE80000E100E010B5134C0323062202214FF044
:102FF8009040FFF79AFE2046032302224FF4807187
:10300800FFF793FE03231A4601214FF09040FFF784
:103018008CFE0323052210214FF09040FFF785FE18
:1030280020460323BDE8104005224FF48051FFF7E6
:103038007CBE00BF000400484FF09043186900F0C0
:103048000100704708B5FFF7F7FF00B908BD00BFDA
:10305800F9E70000044B4FF480529A624FF0904316
:1030680010229A61704700BF000400484FF0904357
:1030780010229A624FF48052C3F818247047000057
:10308800164801690F2321F00F0193FAA3F3B3FA4D
:1030980083F3012203F00F0302FA03F30B430361E6
:1030A8000F4BD3F8842022F48072C3F88420D3F81D
:1030B800802022F48072C3F880205A6822F480723B
:1030C8005A601A6842F480721A60064BD02283F85C
:1030D80016234FF480021A60704700BF00000140B9
:1030E8000008005800E100E0054B4FF48072DA60F8
:1030F800D3F8802042F48072C3F88020704700BF64
:1031080000080058002303224FF400414FF090407C
:10311800FFF70BBE4FF09043186980F40040C0F3EE
:10312800C030704710B5074C0023204605221021F7
:10313800FFF7FBFD20460023BDE8104005220821CB
:10314800FFF7F3BD0004004805494B691A04DB4347
:1031580002F4801203F0100313438B61704700BF21
:103168000004004805494B691A04DB4302F40022B5
:1031780003F0080313438B61704700BF0004004845
:1031880008B5032200234FF400414FF09040FFF7A9
:10319800CCFD102200234FF090410869000458BF6D
:1031A800013302F1FF3258BFDBB212F0FF02F4D153
:1031B800082B034A8CBF00230123137008BD00BFEE
:1031C8002C0000200C4BD3F8FC2022F08072C3F8AE
:1031D800FC20D3F8FC2042F08072C3F8FC20A3F551
:1031E8005D431A6822F001021A601A6842F001026F
:1031F8001A6000225A60704700ED00E00649074B4C
:10320800074A1B68B3FBF2F310B54C6843434A689E
:10321800121B9A42FBD310BD001000E048020020A8
:1032280040420F001FB50223CDE9013101A8012357
:10323800694603930BF06EFA00280CBF04200520A2
:1032480005B05DF804FB014608B501200BF01CFA37
:1032580000280CBF0420052008BD08B5FFF7E2FFD1
:10326800031F5842584108BD08B5FFF7ECFF031F7C
:103278005842584108BD00002DE9F047294B2A4D16
:1032880001280E4614462949294A0FBF792778276D
:10329800AA461D4606BF88469A4690460BF0A8F9EE
:1032A80039462846FFF7D9FF28B900240BF0B2F9B0
:1032B8002046BDE8F087002E08BF4FF4FC640734B1
:1032C80024F0070405F11007B1463444AAEB050AB7
:1032D800A1450BD14FF011324FF0FF332846FFF7CD
:1032E800C3FF041E18BF0124A400DFE76EB90AEB70
:1032F8000703D3E90023B3F1FF3F08BFB2F1FF3F53
:1033080006D1083709F10809E2E7D9E90023F2E70D
:10331800B84505D93846FFF7A7FF0028F1D1C4E71B
:103328000324C3E700C0030800C80308FFCF03084D
:10333800FFC7030810B50BF05BF909487821FFF7C0
:103348008CFF044638B107487921FFF786FF041E31
:1033580018BF0124A4000BF05DF9204610BD00BF82
:1033680000C0030800C8030830B5084D002340F228
:10337800EF749AB2914201D8042030BDA34203D021
:103388005A5DC2540133F4E70320F6E710C003087E
:1033980038B504460D4672B60A4601460020FFF7C6
:1033A8006BFF62B6042806D172B601202A46214670
:1033B800FFF762FF62B638BD38B5124B1C68D3F808
:1033C8000058B4F1113F09D1B5F1113F17D00022CF
:1033D80011460120BDE83840FFF74EBFB5F1113F57
:1033E80003D1002211461046F4E7FFF7A3FF042893
:1033F80004D12C4001340CBF0220012038BD042028
:10340800FCE700BF00C00308044B9A689107FCD58D
:1034180018739A68D207FCD5187B704700000158CA
:1034280070B50C46451E8E18B44200D170BD15F813
:10343800010FFFF7E9FF04F8010BF5E7084611460D
:103448001A46FFF7EDBF000070B5064E0446451852
:10345800A54200D170BD3078FFF7D6FF04F8010B04
:10346800F6E700BF3C02002008461146FFF7ECBF14
:1034780038B504464518AC4200D138BD14F8010BE4
:10348800FFF7C2FFF7E708461146FFF7F1BF000054
:1034980010B58CB02822002102A80EF027FD4FF0AD
:1034A800B0431C4C5A6E42F001025A665B6E03F040
:1034B80001030193019BFFF729FD082208924FF4AD
:1034C8008272002303924FF40072CDE90533CDE9EF
:1034D80009330293079207234FF4E06202A92046BA
:1034E8000B9304920CF038F8636823F010036360C0
:1034F800636823F008036360236843F04003236094
:10350800A3689B07FCD5237B034BFF221A700CB0E2
:1035180010BD00BF000001583C020020034B187387
:103528009A68D207FCD5187B704700BF003001406D
:1035380038B5441E8D18A94200D138BD14F8010FC2
:10354800FFF7ECFF01F8010BF5E7084611461A46AC
:10355800FFF7EEBF38B5064D04460144A14200D13D
:1035680038BD2878FFF7DAFF04F8010BF6E700BF4B
:103578003D02002008461146FFF7ECBF10B5014494
:1035880004468C4200D110BD14F8010BFFF7C6FFAA
:10359800F7E708461146FFF7F1BF000030B58DB0D8
:1035A8002E4C2822002102A80EF0A0FC4FF48050D7
:1035B800FEF763FD0421204603230622FFF7B5FB2F
:1035C8000423A36101250624CDE9004503230A222B
:1035D80020214FF09040FFF723FBCDE9004503235E
:1035E8000A224FF480514FF09040FFF719FB032354
:1035F8001A46CDE900454FF400614FF09040FFF7BF
:103608000FFB0822164C08924FF482720023039293
:103618004FF40072CDE90533CDE9093302930792DF
:1036280007234FF4E06202A920460B9304920BF0A3
:1036380093FF636823F010036360636823F0080353
:103648006360236843F040032360A3689B07FCD5AD
:10365800237B044BFF221A700DB030BD00040048D4
:10366800003001403D0200201B4B10B4DC69A0066D
:1036780011D51A6891060ED5184819495A6A03884F
:1036880009880133C3F30A0389B299421FBF154958
:10369800D2B2CA54038010481F232206036215D5EC
:1036A80003681B0612D5104B104A1988138889B273
:1036B8009BB299420CD013880133C3F308031380DB
:1036C80013880B4A9BB2D35CDBB2836210BC704791
:1036D80010BCFEF7F9BC00BF00380140803F002055
:1036E8007E3F00207E370020844100208241002058
:1036F800823F00200A490B4A08B50B88128801331B
:10370800C3F3080392B29A4207D0074AD054074835
:103718000B80FEF7BEFC012008BD0020FCE700BFBF
:103728008441002082410020823F0020003801406F
:1037380038B504464518AC4200D138BD14F8010B21
:10374800FFF7D8FFF7E70000034B1B780846114640
:103758000BB9FFF7EDBF70472C000020034B1B7817
:10376800084611460BB1FFF7E3BF70472C00002055
:10377800054B064A1B8812889B1A98B21B0444BF43
:1037880000F5006080B27047803F00207E3F002037
:10379800024B187808B1FFF7EBBF70472C000020E8
:1037A8000848094A0188138889B29BB29942F9D01E
:1037B80013880133C3F30A0313801388034A9BB2A7
:1037C800D05C7047803F00207E3F00207E3700207D
:1037D800024B187808B1FFF7E3BF70472C000020B0
:1037E800034B1B780BB9FFF7DBBF0020704700BF06
:1037F8002C00002070B588B00C46064615460021FE
:10380800202268460EF072FB231E18BF01231B03FB
:10381800CDE9023569460C230348019604940593C3
:103828000CF086F808B070BD0038014010B5064CA1
:10383800236823F001032360FFF7DCFF236843F0CC
:103848000103236010BD00BF00380140044B1B7802
:1038580008461BB100221146FFF7E8BF704700BFBA
:103868002C00002000221146FFF7E0BF73B5304C52
:10387800236823F001032360082501264FF48040C4
:10388800FEF7FBFB4021CDE900562A4803230A2214
:10389800FFF7C6F903231A46CDE9005625488021CB
:1038A800FFF7BEF9002211464FF4E130FFF7A2FFFF
:1038B800636823F490436360A36823F02A03A3603A
:1038C8001D4BB02283F8242310225A602046FEF7AD
:1038D800FBFBFEF7F0FB40232362184B0021198005
:1038E800174B1980FEF7DEFB164B1980164B198013
:1038F800636823F400636360A36823F00803A3608C
:10390800636823F480436360A36823F02203A36001
:10391800A36843F48053A360236833432360E369B7
:103928009A02FCD5E3695B02F9D502B070BD00BF0D
:10393800003801400004004800E100E08241002016
:10394800844100207E3F0020803F002008B5FFF71B
:103958008DFFBDE80840FFF7E3B8000008B5FFF7A2
:10396800F5FFFFF70DFC054B1B782BB9BDE80840A8
:103978004FF4E130FFF776BF08BD00BF2C000020F0
:10398800084BDA6892070CD4074A012111805A6A59
:1039980010325A636FF002021A61DA6842F00202CA
:1039A800DA6070470048014064300020324A1369E9
:1039B8009B0710B526D56FF0020313612F4B1B88A8
:1039C800516B11FA83F353632D4B198889B200297F
:1039D80046D01988013189B21980198889B202291B
:1039E80011D84FF090434FF400729A62254A138819
:1039F8000133C3F3080313801388234A9BB2D35CB3
:103A0800224A138010BD198889B20A290FD81F4B82
:103A18001A8812F0010F4FF090424FF4007114BF52
:103A2800916191621A88C2F34E021A80EAE71988F6
:103A380089B20B294FF090414FF40070886109D189
:103A4800134A11880F4A128889B292B29142D9D08A
:103A58000122EAE7D16821F00201D1600022E4E7FF
:103A68004FF090404FF400748461D06820F0020059
:103A7800D0601980C6E700BF0048014060300020D0
:103A88006430002068320020663000206632002052
:103A98006A32002009490A4A08B50B88128801339E
:103AA800C3F3080392B29A4206D0064AD0540B8058
:103AB800FFF766FF012008BD0020FCE76A320020FE
:103AC800683200206630002038B504464518AC42FC
:103AD80000D138BD14F8010BFFF7DCFFF7E7084603
:103AE8001146FFF7F1BF0000B0F5614F0D4A0E4BCC
:103AF8000CD0B0F5E13F10D0B0F5165F0DD172B61D
:103B080040F24131118040F2E24203E072B68B216B
:103B18001180D0221A8062B6704772B64521118092
:103B28005422F7E7603000206230002010B50323EC
:103B380088B005224FF400714FF09040FFF7F5F878
:103B4800194C4FF090434FF400729A6120460122BD
:103B58004FF0FF31FFF76AF92022002168460EF086
:103B6800C5F96A46012120460BF06AFD0F4AD2F8D2
:103B7800183823F00403C2F818386FF002032361E1
:103B88000B4B902283F81D234FF000521A604FF41C
:103B9800E130FFF7A9FF074A00231380064A138084
:103BA800064A138008B010BD00480140004001409B
:103BB80000E100E0683200206A3200206430002012
:103BC800FFF7B4BF054A064B11681B780B44136016
:103BD800044A136801331360704700BF9441002002
:103BE8004C0200209C0A0020014B1868704700BF57
:103BF800944100200148FFF722B900BF004401406A
:103C0800014B586A80B2704700440140024B0022C1
:103C18001A60FFF7EFBF00BF9C0A002070B5194C6F
:103C2800194E90220021201D0EF060F906232380F2
:103C3800162363800F23A38005222C233146A01D61
:103C4800FDF7A6FC114A124B0025C4E90D233146A5
:103C58002C23052204F13E00A587FDF799FC0123DA
:103C68000C49E36604F17A0084F870506567A4F89B
:103C780078500EF09BF97F2384F88F30052384F861
:103C8800903070BDE00400209033010801000F005F
:103C980003000500E021010870B5094E05460C46F1
:103CA800415C30460EF039F9034628B1831B0133D5
:103CB800DBB2282B28BF0023F35C2B5570BD00BF57
:103CC800343A010870B50D461146044616460EF002
:103CD8006DF92DB3013D082D08D8DFE805F0051171
:103CE800131517191B1D1F0035236371627973792A
:103CF8009A4215D120460521BDE87040FFF7CCBF98
:103D08006123F2E76623F0E76B23EEE77023ECE725
:103D18007523EAE77A23E8E73123E6E73223E4E785
:103D280070BD000073B5054605F111061D4C1E4A0D
:103D3800014636016846FFF7C5FFB01C69462044B6
:103D48000EF034F9264404EB0512002302217172A7
:103D5800A2F81A31142202FB054001220425A0F81A
:103D68004A10C26480F85050E1844FF4807540F2E4
:103D78000321C4F83A30C4F83E30C4F8423040F267
:103D88000113A0F85220A0F85450A562A18584F828
:103D98002E2084F83020A4F84630A4F8483002B029
:103DA80070BD00BF24030020A0210108F7B5054617
:103DB800B04CB14A05F11106014637016846FFF7D4
:103DC80081FFB81C274469462044FDF7DDFA7B7A59
:103DD800AA4A052B88BF022304EB061088BF7B7212
:103DE8001188437A41FA03F3DF070FD402234372A1
:103DF80061B14807C1F3800308D441FA03F7FF070C
:103E0800D8B240F1C98104EB0613587204EB0511CE
:103E18002B0191F81A01042802D9002081F81A010F
:103E2800E718508897F81A1140FA01F1C90711D418
:103E3800012187F81A1168B18707C0F3400109D436
:103E480040FA01FC1CF0010FCFB200F0AA81E11882
:103E580081F81A71E11891F81B01032802D9002092
:103E680081F81B01E718908897F81B1140FA01F1B7
:103E780011F001010FD187F81B1160B110F0010199
:103E880009D140FA01FC1CF0010FCFB200F08E817D
:103E9800E11881F81B7104EB0616717A012905D91E
:103EA80004291EBF1B19002183F81B11142303FBCF
:103EB800054191F84A00042802D9022081F84A00F5
:103EC80003FB054393F84B10042902D9002183F81A
:103ED8004B10142303FB0543918E93F84B0041FAD2
:103EE80000F0C00712D4012083F84B0071B1880795
:103EF800C1F340030AD441FA03F6F707D8B240F1F8
:103F08005A81142303FB054383F84B00142303FB56
:103F1800054393F84C10032902D9012183F84C106A
:103F2800142000FB0540D18E90F84C3041FA03F381
:103F380013F0010310D180F84C3069B111F001037E
:103F48000AD141FA03F6F607D8B240F139811423B1
:103F580003FB054383F84C00142303FB054393F844
:103F68004E10012902D9002183F84E10142000FBBD
:103F78000540118F90F84E3041FA03F313F0010316
:103F880010D180F84E3069B111F001030AD141FA1D
:103F980003F6F707D8B240F11881142303FB054351
:103FA80083F84E00142303FB054393F84F100229AE
:103FB80002D9002183F84F10142000FB0540518FCF
:103FC80090F84F3041FA03F313F0010310D180F851
:103FD8004F3069B111F001030AD141FA03F6F6072F
:103FE800D8B240F1F780142303FB054383F84F0050
:103FF800142303FB054191F84D00022802D9002043
:1040080081F84D0003FB054393F85010052902D9A8
:10401800042183F85010142303FB054191F8520042
:10402800012802D9012081F8520003FB054393F8C7
:104038005510012902D9012183F85510142303FBD7
:10404800054393F85310022902D9002183F853102D
:10405800142000FB0540918F90F8533041FA03F388
:1040680013F0010317D180F85330A1B111F0010307
:1040780011D105E024030020A0210108E00400205C
:1040880041FA03F6F707D8B240F1A980142303FBDD
:10409800054383F85300142303FB054191F85400AA
:1040A800022802D9002081F8540003FB054393F845
:1040B8004C10012906D193F84F10022904BF0021A2
:1040C80083F84F1094F82630042B02D9022384F881
:1040D800263094F82730042B02D9002384F827309F
:1040E800B2F86C0094F8273040FA03F313F0010F8C
:1040F800694B0ED1012184F8271050B18607C0F30F
:10410800400106D440FA01F7FF07CEB26CD583F818
:10411800276094F82810022902D9002184F8281071
:1041280094F82910022902D9012184F82910B2F83B
:104138006E1094F8292041FA02F212F001020CD113
:1041480084F8292049B111F0010206D141FA02F69A
:10415800F607D0B24CD583F8290094F82A200C2A07
:1041680002D9002284F82A2093F832200C2A02D996
:10417800002283F8322093F82B20042A02D9002247
:1041880083F82B2000224549104611F9014F14F1FC
:10419800780F31DA087031E00133102B7FF42DAE3F
:1041A80034E6013110297FF44BAE53E60131102972
:1041B8007FF467AE6FE60133102B7FF49CAEA5E663
:1041C8000133102B7FF4BDAEC6E60133102B7FF40C
:1041D800DEAEE7E60133102B7FF4FFAE08E70133CC
:1041E800102B7FF44DAF56E7013110298AD190E7A3
:1041F8000132102AAAD1B0E7782CCBDC0132D2B236
:104208000C2AC2D126490022012011F8014F01329F
:10421800022CD2B288BF0870042AF6D193F82C2059
:10422800052A02D9032283F82C2093F82D20032A8B
:1042380002D9022283F82D2093F82E20022A02D9CF
:10424800012283F82E2093F83020022A02D9012275
:1042580083F83020142101FB0530FF2203EB0514FD
:1042680080F8512083F82F2083F831204FF6FF7013
:104278004FF0FF32C4F81C21A4F82001562411FB8A
:1042880005415C181A629A845A50626083F83300B8
:104298005A631A8703B0F0BD240300205D03002091
:1042A80069030020164B70B59870042804D8DFE81D
:1042B80000F0251904261F00FEE7014635261325C0
:1042C80001221924033801281A7194BF0020012003
:1042D80001221C771974A3F84860A3F84A50987310
:1042E8009A7670BD014620261F2500220F24E9E793
:1042F8000022142632250A241146E3E7FEE7FDE7EB
:10430800CC0200202DE9F74300F11106804F814CC3
:10431800360106F10209B94405464846FDF750F84A
:104328000421804601900DEB0100FDF7FDFE1423EA
:1043380003FB05733E4493F84A20774BE08313F957
:10434800223023732376754B2365012384F8543078
:10435800737A637007EB0513C4F8088093F81A01A1
:10436800C4F81480FFF79EFF6D4A63781288A2850F
:10437800E28B626200222E016373637684F8283030
:1043880084F82A2023B94846FDF73AF884F82A0029
:104398003E4496F81B2184F829206AB1E18B02EB90
:1043A800021303EB03230B44E383A3684FF011319B
:1043B80001FB0233A360636194F82830052B04D80D
:1043C800DFE803F0042C2E22242AFEE7A378032B2F
:1043D80003D8DFE803F003272903FEE71826DFF8F0
:1043E80044C184F820601CE90F008CE80F0000230A
:1043F80084F838300123A387A378022B16D0042B26
:104408003BD0012B3BD0FEE70226E8E7A378012B3F
:1044180008D0022B08D0FEE70326E0E71926DEE7DE
:104428000626DCE71226DAE70C26D8E70C2384F800
:104438003030304640F2E243A4F84C30FCF752FBEF
:104448004FF07F51FCF7A2FBFCF7A2FDB4F848201F
:104458004FF47A73B3FBF2F3A4F84030142303FB50
:104468000573C0B293F85030A4F84E00052B2FD82E
:10447800DFE803F00734282B2E311823D7E712235F
:10448800D5E74FF416536364002384F8553084F855
:104498005730142303FB057595F84C20032A03D0E5
:1044A80095F84F30022B02D1012384F85530511E64
:1044B8004B424B4194F8551084F8563089B1012A83
:1044C8000FD1FEE74FF41643DDE74FF46143DAE717
:1044D8004FF4E133D7E74FF46133D4E74FF4964311
:1044E800D1E72378142000FB037393F84C30022B98
:1044F80007D1012384F8573021B194F857301BB104
:10450800FEE709B9012AF8D003B0BDE8F08300BF7F
:1045180024030020CC02002090330108000101018F
:10452800E0040020FC02002002484FF4DE72FF2164
:104538000DF0DCBC2403002002484FF4DE71FEF7C6
:1045480027BF00BF2403002002484FF4DE71FEF7A6
:104558000BBF00BF2403002008B5FFF7F5FF034B8E
:104568001878BDE80840FFF721BC00BFCC02002046
:1045780070B5FFF7D9FFFEF71FFF04280CD0FFF72F
:10458800D3FFFEF719FF042803D1FFF7DDFF042846
:1045980006D0FFF7C9FF03E0FFF7D6FF0428EED1E6
:1045A80059495A48594C10220DF0C4FC38B15849A1
:1045B800102220460DF0BEFC08B1FFF7B5FFA38A14
:1045C80040F24F12934266D0B3F5A47F35D85149D3
:1045D800062201F1FC00FDF76BF8637F84F81931BE
:1045E800A37F84F81A31012528460135EDB2FFF77B
:1045F80099FB0A2DF8D10023E37740F24F13A382E9
:10460800012522694049414842F63D039A424FF04C
:1046180010021CBF236101250DF08CFC00283CD042
:1046280039493A481022FDF731F83B493B480822FE
:10463800FDF72CF8FFF780FF31E0B3F5A77F22D80C
:10464800324B002203250121022693F84C00012851
:104658000DD003280ED093F84F0001280DD0022862
:104668000ED001320A2A03F11403EED1C5E783F80C
:104678004C50F0E783F84C10EDE783F84F60F0E713
:1046880083F84F10EDE70025E8B20135FFF74AFB44
:104698000A2DF9D1AFE70025B3E7002DCAD1E37F92
:1046A800092B84BF0023E377E17F142303FB014335
:1046B80093F84C2002F0FD02012A17D11349002279
:1046C800013293F84C0081F84C000A2A01F11401D8
:1046D800F6D1134DE37F2B70FFF7A0FA2878FFF788
:1046E80065FB2878BDE87040FFF70CBE49B10D495D
:1046F80003F14A025E3352F8040B41F8040B9A4264
:10470800F9D10023E377E4E7A72101082403002077
:10471800B82101083A030020C9210108D604002065
:10472800CC0200206E03002030B5C01A1628A8BF9E
:1047380016206FF00805A8429DF80C40B8BF28461F
:10474800A042C8BF20B2C0B208701844107030BD73
:1047580007B5084611461A46162300930023FFF7AB
:10476800E3FF03B05DF804FB0129F7B5054600D95E
:10477800FEE70F4E06EB01131C460F016278F15D50
:1047880003619B780BF014FCE678E3790193A37935
:10479800009331462846637922790BF01EFC06EB1C
:1047A8004606B108284603B0BDE8F0400BF06CBDE2
:1047B800A450010838B50246044652F8183BDD6992
:1047C80000F11903A847217E20460022BDE83840A1
:1047D8000BF065BC70B58160897A88B0044601B178
:1047E80001210BF0C0FB01230DF11F0240F6D80197
:1047F80020460BF016FB9DF81F3043F01E0340F6D1
:10480800D8018DF81F300DF11F02012320460BF04F
:10481800D2FA20460BF01AFD217BFF2903D0FA2299
:1048280020460BF01FFDA3685B7A013B042B04D8DC
:10483800DFE803F0043E41413E00FEE7E922E121C2
:1048480020460BF069FD012120460BF0DCFC962187
:1048580020460BF045FD382120460BF048FD204648
:104868000BF04CFDA368204693F90810FFF7A2FF50
:10487800A3689D7A15B319782046FFF775FF0022C3
:10488800114620460BF087FB0023009340F20322D9
:1048980020464FF6FF710BF0CFFB20464FF6FF7115
:1048A8000BF0F1FB204608B0BDE870400BF0BBBC34
:1048B800DB22D721C4E76F226B21C1E70F4B1049D8
:1048C800DE8B104B63614CF2503300932046192362
:1048D8000B220BF031FD0123CDE903335B23CDE936
:1048E8000153102319462046009504220BF056FD6B
:1048F800314620460BF076FDC1E700BFCC02002010
:10490800A08601008450010810B504460BF08BFC0A
:1049180020464FF6FF71BDE810400BF0B4BB000015
:1049280038B58168036891F90810DD69044600F11B
:10493800190300F11802A847A3689A7A42B11A78B5
:10494800012A00D9FEE7044B03EB0213236138BDAB
:10495800024B6361FBE700BFA450010884500108C3
:1049680010B5094C236923B9636913B92046FFF7C9
:10497800D7FFA3689B7A23B123699868A0F57A705A
:1049880010BD63699869F9E76C320020036910B5B6
:1049980004461BB943690BB9FFF7C2FFA3689B7AAA
:1049A8001BB12369B3F90C0010BD6369B3F91C008E
:1049B800FAE7036910B504461BB943690BB9FFF759
:1049C800AFFF94F9190010BD10B5C01A9DF8084042
:1049D800123080F30500A042C8BF20B2C0B2123B1B
:1049E80008701844107010BD07B5084611461A46DD
:1049F800122300931B23FFF7E7FF03B05DF804FBC6
:104A08000229F7B5054600D9FEE70B4E06EB011360
:104A18001C460F016278F15D83609B780BF057FEAE
:104A2800E3790193A379009322796379E1782846A1
:104A38000BF076FE03B0F0BDD850010838B5024639
:104A4800044652F8143BDD6900F11503A847217D9F
:104A580020462022BDE838400BF0BDBE7FB58D7AD8
:104A68000161044675B301210BF007FE01212046C0
:104A78000BF017FF012120460BF02DFF236920467C
:104A880093F90810FFF7DAFF236920461978FFF732
:104A9800B7FF0022114620460BF00CFE00230093BE
:104AA80044F2030220464FF6FF710BF055FE2046F4
:104AB8004FF6FF710BF077FE204604B0BDE870405A
:104AC8000BF0FBBE03210BF0D8FD204601210BF0B3
:104AD800E8FE204601210BF0FEFE2369204693F9EB
:104AE8000810FFF7ABFF23695E680D4BE3602A46A9
:104AF8002046102386210BF012FF46F6E823CDE965
:104B080002535B23CDE90053204610230422702171
:104B18000BF014FF2A46314620460BF039FFB8E760
:104B2800C450010810B504460BF0C7FE20464FF6E6
:104B3800FF71BDE810400BF036BE0000F8B58C469A
:104B4800BCF1200F11461D46BDF818609DF81C20C9
:104B58009DF82030044600D9FEE7052D04D8DFE88B
:104B680005F00505050D0F04FEE703254248A5716C
:104B78002F0100EB051EC05920B9FEE70425F5E713
:104B88000525F3E7DEF80870276116F0020F06F036
:104B9800010718BF47F00207A782770748BFA78A0F
:104BA800A06044BF47F00407A782B70648BFA78A9A
:104BB8009EF804009EF80CE0E07144BF47F0080737
:104BC800A782370748BFA78A84F80CE044BF47F09C
:104BD8001007A782F606A78A84F8D95011D547F09E
:104BE8002007A782A0EB0E00C0B2604528BF604630
:104BF800013DE075042D07D8DFE805F0273A3A3A79
:104C08003200002FEED1FEE7551E022D18D85D1E8A
:104C1800032D0FD80C2801D90C25E575E57D8542B3
:104C280000D9E0752046FCF77DFE002384F8D830D3
:104C3800A375F8BD122884BF1223E3750023EDE79E
:104C4800042B88BF00230022ECE7531E022B05D853
:104C58000C2801D90C23E3750023E3E70022FBE7C6
:104C6800531E022BFAD8082828BF0820E075F3E75E
:104C78002046FCF7F1FDD8E73033010890F8D8302A
:104C88005BB190F8D930074A180102EB03139B680F
:104C98001978135853F821007047837D0E3350F864
:104CA80023007047303301082DE9F3419DF8247043
:104CB8001646402F88464FF05B024FF0000104462D
:104CC8001D4628BF40270DF011F98E4BDB8B238042
:104CD8003278A37862F30203A3707178C90001F0F7
:104CE8000801DBB203F0070341EA08111943A17078
:104CF8007279E37862F30003E370B279637962F35F
:104D08008613637196F90200FCF76FFAE37860F393
:104D18004703E370F278237962F30603237132794B
:104D2800DBB202F0010203F07F0343EAC2132371EE
:104D380032796379C2F3450223F03F031343637169
:104D4800A37967F34703A3712B78AA78E3716B788B
:104D580002F01F0203F0070343EAC20323726A88C2
:104D6800637AC2F3451223F03F03134363722A792F
:104D7800DBB202F0030203F03F0343EA82136372DB
:104D8800AB88C3F38703A3726A79E37AC2F380021C
:104D980023F001031343E372AA79DBB202F07F0226
:104DA80003F0010343EA4203E372EA88237BC2F378
:104DB800C31223F00F03134323732B7AE373AA7AE6
:104DC8006B7A02F01F0203F0070343EAC20323745D
:104DD8006A89637CC2F3451223F03F03134363746B
:104DE8002A7BDBB202F0030203F03F0343EA82139B
:104DF8006374AB89C3F38703A3746A7BE37CC2F350
:104E0800800223F001031343E374AA7BDBB202F0B0
:104E18007F0203F0010343EA4203E374EA89237D36
:104E2800C2F3C31223F00F03134323752B8ADB0845
:104E380063756B8ADB08A375AB8ADB08E375EB8ABD
:104E4800DB0823762B8BB3F5C06F4ED2B3F5007F0A
:104E580094BF00230123227B63F3051222736B8B1B
:104E6800B3F5C06F43D2B3F5007F94BF002301238D
:104E7800227B63F387122273AB8BB3F5C06F38D2F2
:104E8800B3F5007F94BF00230123227D63F305124D
:104E98002275EB8BB3F5C06F2DD2B3F5007F94BFAD
:104EA80000230123227D63F38712089B22751F4488
:104EB80004F11802BB4220D14FF6FF7321460DF1D1
:104EC80006000D22ADF80630FDF716F92146BDF8AB
:104ED800063021F80D3F4C22FDF70EF9BDF80630DB
:104EE800A4F8593002B0BDE8F0810223B3E70223E9
:104EF800BEE70223C9E70223D4E713F8011B02F82F
:104F0800011FD7E7CC02002013B59DF81040CDE96A
:104F1800003413460A460021FFF7C6FE02B010BD52
:104F280013B5144B0288DB8B9A4204461DD1837853
:104F380003F0F003102B01D0202B18D1A379A52B57
:104F480015D84FF6FF730DF1060059222146ADF82A
:104F58000630FDF7D1F8B4F85900BDF80630C01A8C
:104F680018BF0120800002B010BD0120FBE702201D
:104F7800F9E700BFCC02002030B5314B027893F836
:104F8800261061F30302027093F8271061F30712E9
:104F9800027093F82810427861F30302427093F884
:104FA800291061F30712427093F82A10827861F38E
:104FB8000302827093F83210827961F303028271DE
:104FC80093F82B10827861F30712827093F82C10F3
:104FD800C27861F30302C27093F82D1061F30712CF
:104FE800C27093F82E10027961F30302027193F8EC
:104FF8003010427961F30302427103F1390100F183
:105008000A0200F1160411F9015F02F8015FA242D9
:10501800F9D193F84610C27D61F30102C27593F885
:10502800471061F38302C27593F8481061F30512C3
:10503800C27593F8493063F38712C27530BD00BF5B
:105048002403002002782C4BC2F3030230B583F806
:1050580026200278C2F3031283F827204278C2F38D
:10506800030283F828204278C2F3031283F8292028
:105078008278C2F3030283F82A208279C2F30302FA
:1050880083F832208278C2F3031283F82B20C27887
:10509800C2F3030283F82C20C278C2F3031283F808
:1050A8002D200279C2F3030283F82E204279C2F33D
:1050B800030283F8302003F1390100F10A0200F1FC
:1050C800160412F9015F01F8015FA242F9D1C27D0D
:1050D800C2F3010283F84620C27DC2F3810283F83D
:1050E8004720C27DC2F3011283F84820C27DC2F373
:1050F800811283F8492030BD240300201FB58DF8A4
:105108000C300123019303AB009313460A46022196
:10511800FFF7CAFD05B05DF804FB0000F0B51F4DB0
:10512800012385F87030044685B0B0F80900FCF713
:1051380054FA6867B4F80B30A5F87830142204F1F3
:105148000D0105F17A00FCF7B3FA94F9213085F8DE
:105158008F3094F8223085F8903004F12300FFF75F
:1051680071FF6E4604F1410304F15107186859684C
:10517800324603C20833BB421646F7D108482C23EF
:1051880008226946FCF786F994F85130A5F86C3086
:1051980094F85230A5F86E3005B0F0BDE004002058
:1051A8001E0500202DE9F04792B0DFF890A0244CAE
:1051B8000DF108084FF0400905460E461746002134
:1051C8004A4640460CF092FE9AF8001004EB011192
:1051D80022230DF10A00062201F589718DF80830A5
:1051E800FCF754FA9AF8001004EB011205A892F89B
:1051F8001A3192F8194103F00F0304F00F0444EA3E
:10520800031492F81B3103F00F0344EA0324BDF89A
:10521800103023F47F6323F00F031C43ADF81040D4
:10522800FFF7AAFECDE900893B463246022128460F
:10523800FFF73AFD12B0BDE8F08700BFCC020020AE
:10524800240300200A4A126882600A4A00238380E5
:10525800837183810384136803615368064A436139
:10526800136883615368C3614EF660230360704717
:1052780094410020CF210108D821010838B51F4DDD
:105288001F4C0220FFF70EF82846FFF73DFB20468B
:10529800FFF748FC28466FF07F01FFF78BFA20469E
:1052A8006FF07F01FFF7CAFB002128460AF044FE91
:1052B8004FF47A70FDF7A2FF284601210AF053FE49
:1052C800AB6828461978FFF74FFA002120460BF003
:1052D800BDF94FF47A70FDF791FF204601210BF0DC
:1052E800CCF9236920461978FFF78AFB2846FFF78F
:1052F8000BFB2046FFF716FC38BD00BF6C320020C0
:105308008832002008B590F8203002468BB9FDF7A6
:1053180001FF10B982F8210008BD92F8213001334D
:105328005BB2312B82F82130F6DD012382F8203080
:10533800F2E7FDF7EFFE18B1322382F82130EBE7F0
:1053480092F82130013B5BB2002B82F82130D8BFA4
:1053580082F82000E0E70000134B90F820201B683B
:10536800CAB182689B1AB3F57A6F01D901234371D8
:105378000379ABB10D4B427B1B781AB1022B1CBFD2
:10538800032202739A1E534253414373837953B1E4
:105398000323037370478360EAE701230371F8E787
:1053A8004379002BF9D170479441002095060020DD
:1053B8000346007B821E012A4FF0000202D893F8B0
:1053C800201009B91A737047104670470A4A38B551
:1053D800138801339BB2502B04460D4601D8138025
:1053E80038BD002305491380FDF7D0FB2946204628
:1053F800FDF7CCFBF4E700BFA00A0020DD2201087E
:105408002DE9F84F154604460F466B496B4EFDF7DC
:10541800BDFB29462046FDF7B9FB694B0022012F49
:105428001A800FD11023B362082746F2A810B7617B
:10543800FDF7E4FEB762FDF7E1FE29462046FFF7D7
:10544800C5FFF2E7BB1E08220C2B00F2A880DFE89C
:1054580003F03141521C07A6A6A66262626262008E
:10546800564E4FF008081027C6F8188046F2A810C4
:10547800B762FDF7C3FEC6F82880B761FDF7BEFE28
:1054880029462046FFF7A2FFEDE74C4E4FF00808EB
:105498001027C6F8188046F2A810B761FDF7AEFECF
:1054A800C6F82880B762FDF7A9FE29462046FFF70F
:1054B8008DFFEDE7B262414E102746F2A810B761A2
:1054C800FDF79CFEB762FDF799FE29462046FFF7D7
:1054D8007DFFF2E71023B361384E082746F2A81083
:1054E800B761FDF78BFEB762FDF788FE29462046B7
:1054F800FFF76CFFF2E7B261304E102746F2A810B2
:10550800B761FDF77BFEB762FDF778FE29462046B6
:10551800FFF75CFFF2E7A7F1090BDFF8A0805FFA5D
:105528008BFB00264FF0080A5E453CBF1023C8F8E5
:1055380018304FF0040946F2A810C8F818A0FDF773
:105548005DFEC8F828A0FDF759FE09F1FF39294684
:105558002046FFF73BFF19F0FF09ECD11023C8F8EC
:1055680028304FF0040946F2A810C8F818A0FDF733
:1055780045FEC8F828A0FDF741FE09F1FF39294684
:105588002046FFF723FF19F0FF09ECD10136A7F1F8
:105598000803F6B2DBB2B34238BF0026C4E71023D3
:1055A800B261B3614CF25030FDF728FE294620461F
:1055B800FFF70CFFF6E700BFDD22010800040048F2
:1055C800A00A002073B50E4615461C460DF10602CA
:1055D8000DF1070158B90B480AF0D0FD9DF80610E7
:1055E8000848234632460AF078FC02B070BD0648E7
:1055F8000BF047F99DF80610034823462A460AF09F
:10560800FFFFF2E76C32002088320020F8B5184F0F
:1056180016461C460D46FDF7CEFC384633460A466C
:1056280000210AF033FC38464FF6FF710AF02BFDD3
:10563800A10138460F4F0AF03FFD7D20FDF7DEFD42
:10564800FDF708FD384633462A4600210AF0B1FF27
:1056580038464FF6FF710BF0A6F82201384692B291
:1056680001210BF0C8F8BDE8F8407D20FDF7C6BD64
:105678006C320020883200202DE9F0411F4C204F69
:1056880005464FF05B080E464246002120460CF0C6
:105698002DFC2B6923606B6963601A4B39781B7882
:1056A800194D9A1E53425341627A05EB011163F377
:1056B8000002627204F10A00062201F58971FBF703
:1056C800E5FF3B7805EB0315237C95F81A2162F377
:1056D8000713237495F81B21637C592162F3030394
:1056E80020466374FCF720FD3B7FA4F8590042462E
:1056F80021463046BDE8F041FFF788BFBD320020A3
:10570800CC020020950600202403002037B50C4663
:1057180018BB234883689D7A9DB101F18E020DF173
:1057280006010AF015FDBDF90630002B10DB4FF617
:10573800FF73ADF80630BDF8063084F88C3003B03E
:1057480030BD0DF106010AF05EFE84F88E50EAE7DE
:105758007F33F0DA4FF68173EBE7124803699D7ADD
:1057680095B101F18F020DF106010BF06EF8BDF94C
:105778000630002B0FDB4FF6FF73ADF80630BDF88F
:10578800063084F88D30DAE70DF106010BF036F9B2
:1057980084F88F50EBE77F33F1DA4FF68173ECE74B
:1057A8006C3200208832002070B5114C0D46064638
:1057B8005B23224621462846FFF704FFD6E9061355
:1057C800206862689A4208BF88420ED12046592153
:1057D800FCF7AAFCB4F85940231A5C425C412846FD
:1057E8000449FFF793FF601C70BD0024F7E700BF72
:1057F800A42E0020B82F00200A4608B5014601480B
:10580800FFF7FEFD2800002000B591B00446684669
:1058180016461D460CF0CAFB184968460CF06EFB8C
:1058280030460AF061FA014668460CF067FB1449F5
:1058380068460CF063FB134B684653F82510124D6D
:105848000CF05CFB114968460CF058FB9DF8483099
:10585800684655F823100CF051FB0D4968460CF0CA
:105868004DFB9DF84C30684655F823100CF046FB6C
:1058780008486A462146FFF7C3FD00BFE121010839
:10588800E82101080000002018000020ED2101088F
:10589800F42101082800002000230370837043705E
:1058A80003714371C370704703780022022B427161
:1058B80004D0032B09D0012B16D0FEE70123037176
:1058C800437183784370C370704783784278991A1C
:1058D800A3EB020218BF012112F0060F14BF012228
:1058E800002201714271EDE7027170470278817000
:1058F800002A0CBF022203220270FFF7D5BF000066
:10590800074B282202FB00339B681A78542A05D1DA
:105918005878A0F1780358425841704700207047E2
:10592800A4330108074B282202FB00339B681A782E
:10593800522A05D15878A0F1780358425841704747
:1059480000207047A4330108074B282202FB0033CC
:105958009B681A78542A04D15878783818BF0120DF
:1059680070470120704700BFA433010828230B4A61
:10597800434310B5D1580446FFF7D4FF48B9204631
:10598800FFF7BEFF064B1B7828B103EB830301EB3F
:105998008301084610BD01EB0311FAE7A43301089F
:1059A800CC020020292838B505460C4631D81A4BB8
:1059B800282202FB00331B79042B07D84BB3023B88
:1059C800022B05D8DFE803F011171F00FE2B20D1AA
:1059D8002846FFF7CBFF0378E4B2A34219D004703E
:1059E8002846BDE83840FFF7AFBFFFF7BFFF64B2F6
:1059F80090F90030F1E7FFF7B9FF0288A3B29A42A5
:105A080007D00480ECE7FFF7B1FF23B2B0F900201C
:105A1800F5E7002038BD00BFA4330108292838B5B0
:105A280004460D4619D80E4B282202FB00331B7979
:105A3800FF2B12D1FFF79AFF06222946FBF74BFEF0
:105A480058B92046FFF792FF29460622FBF730FE99
:105A58002046BDE83840FFF777BF002038BD00BFBB
:105A6800A43301082DE9F043074615463548282296
:105A78004A438418012B246A87B025D1324B8258B7
:105A8800022908BF1C46314B9A422ED03049243B8C
:105A98009A4208BF0C46FF238DF800304FF00008EB
:105AA80001262046FAF76EFB5FFA88F9484520D8A8
:105AB80006F118036B44AE4203F8188C27D800206F
:105AC800387007B0BDE8F083022BE4D1214B82582F
