:020000040800F2
:10000000000001207DE4000867E4000869E40008BE
:100010006BE400086DE400086FE4000800000000D5
:1000200000000000000000000000000071E4000873
:1000300073E400080000000075E4000877E400089D
:10004000CDE40008CDE40008CDE40008CDE40008CC
:10005000CDE40008CDE40008CDE40008CDE40008BC
:10006000CDE40008CDE40008CDE40008CDE40008AC
:10007000CDE40008CDE40008CDE40008CDE400089C
:10008000CDE40008CDE40008CDE40008CDE400088C
:1000900000000000CDE4000809CD0008CDE4000810
:1000A000CDE40008CDE40008CDE40008CDE400086C
:1000B000CDE40008CDE40008CDE40008CDE400085C
:1000C000CDE40008CDE40008CDE40008CDE400084C
:1000D0001D370008BD6A0008CDE40008CDE4000823
:1000E000CDE40008CDE40008CDE40008CDE400082C
:1000F000CDE400080000000000000000CDE400088E
:10010000CDE40008CDE400089DCC0008CDE4000853
:10011000CDE40008CDE40008CDE40008CDE40008FB
:10012000CDE40008CDE40008CDE40008CDE40008EB
:08013000CDE40008CDE4000855
:1001380010B5054C237833B9044B13B10448AFF319
:1001480000800123237010BDB002002000000000D1
:10015800401D010808B5034B1BB103490348AFF321
:10016800008008BD00000000B4020020401D010806
:1001780010F8012B11F8013B012A28BF9A42F7D049
:10018800D01A7047034613F8012B002AFBD1181A1E
:100198000138704781F0004102E000BF83F000435E
:1001A80030B54FEA41044FEA430594EA050F08BF0A
:1001B80090EA020F1FBF54EA000C55EA020C7FEACE
:1001C800645C7FEA655C00F0E2804FEA5454D4EB4B
:1001D8005555B8BF6D420CDD2C4480EA020281EA15
:1001E800030382EA000083EA010180EA020281EA4D
:1001F8000303362D88BF30BD11F0004F4FEA01319F
:100208004FF4801C4CEA113102D0404261EB4101AD
:1002180013F0004F4FEA03334CEA133302D0524233
:1002280063EB430394EA050F00F0A780A4F10104EF
:10023800D5F1200E0DDB02FA0EFC22FA05F2801829
:1002480041F1000103FA0EF2801843FA05F359410F
:100258000EE0A5F120050EF1200E012A03FA0EFC8E
:1002680028BF4CF0020C43FA05F3C01851EBE371B8
:1002780001F0004507D54FF0000EDCF1000C7EEBD5
:1002880000006EEB0101B1F5801F1BD3B1F5001F13
:100298000CD349085FEA30004FEA3C0C04F1010432
:1002A8004FEA445212F5800F80F09A80BCF1004F5B
:1002B80008BF5FEA500C50F1000041EB045141EADD
:1002C800050130BD5FEA4C0C404141EB0101013CA6
:1002D80028BFB1F5801FE9D291F0000F04BF014695
:1002E8000020B1FA81F308BF2033A3F10B03B3F167
:1002F80020020CDA0C3208DD02F1140CC2F10C02F7
:1003080001FA0CF021FA02F10CE002F11402D8BF54
:10031800C2F1200C01FA02F120FA0CFCDCBF41EA20
:100328000C019040E41AA2BF01EB0451294330BDEF
:100338006FEA04041F3C1CDA0C340EDC04F11404CC
:10034800C4F1200220FA04F001FA02F340EA0300A3
:1003580021FA04F345EA030130BDC4F10C04C4F1E9
:10036800200220FA02F001FA04F340EA03002946C9
:1003780030BD21FA04F0294630BD94F0000F83F413
:10038800801306BF81F480110134013D4EE77FEAF6
:10039800645C18BF7FEA655C29D094EA050F08BF42
:1003A80090EA020F05D054EA000C04BF1946104623
:1003B80030BD91EA030F1EBF0021002030BD5FEA67
:1003C800545C05D14000494128BF41F0004130BD8F
:1003D80014F580043CBF01F5801130BD01F00045E3
:1003E80045F0FE4141F470014FF0000030BD7FEA56
:1003F800645C1ABF194610467FEA655C1CBF0B4651
:10040800024650EA013406BF52EA033591EA030F67
:1004180041F4002130BD00BF90F0000F04BF00215F
:10042800704730B54FF4806404F132044FF0000592
:100438004FF0000150E700BF90F0000F04BF00210B
:10044800704730B54FF4806404F1320410F0004571
:1004580048BF40424FF000013EE700BF42004FEA6C
:10046800E2014FEA31014FEA02701FBF12F07F43E9
:1004780093F07F4F81F06051704732F07F4208BFA0
:10048800704793F07F4F04BF41F40021704730B5A7
:100498004FF4607401F0004521F000411CE700BFF3
:1004A80050EA010208BF704730B54FF000050AE076
:1004B80050EA010208BF704730B511F0004502D577
:1004C800404261EB41014FF4806404F132045FEA79
:1004D800915C3FF4D8AE4FF003025FEADC0C18BF22
:1004E80003325FEADC0C18BF033202EBDC02C2F114
:1004F800200300FA03FC20FA02F001FA03FE40EAA6
:100508000E0021FA02F11444BDE600BF70B54FF0A9
:10051800FF0C4CF4E06C1CEA11541DBF1CEA135587
:1005280094EA0C0F95EA0C0F00F0DEF82C4481EAEF
:10053800030621EA4C5123EA4C5350EA013518BF0F
:1005480052EA033541F4801143F4801338D0A0FBFC
:1005580002CE4FF00005E1FB02E506F00042E0FBA9
:1005680003E54FF00006E1FB03569CF0000F18BFAF
:100578004EF0010EA4F1FF04B6F5007F64F5407457
:1005880004D25FEA4E0E6D4146EB060642EAC621EA
:1005980041EA55514FEAC52040EA5E504FEACE2E57
:1005A800B4F1FD0C88BFBCF5E06F1ED8BEF1004F5A
:1005B80008BF5FEA500E50F1000041EB045170BDD6
:1005C80006F0004646EA010140EA020081EA03011A
:1005D800B4EB5C04C2BFD4EB0C0541EA045170BD16
:1005E80041F480114FF0000E013C00F3AB8014F190
:1005F800360FDEBF002001F0004170BDC4F10004D9
:10060800203C35DA0C341BDC04F11404C4F1200559
:1006180000FA05F320FA04F001FA05F240EA0200B4
:1006280001F0004221F0004110EBD37021FA04F6EA
:1006380042EB06015EEA430E08BF20EAD37070BDA4
:10064800C4F10C04C4F1200500FA04F320FA05F003
:1006580001FA04F240EA020001F0004110EBD37005
:1006680041F100015EEA430E08BF20EAD37070BD75
:10067800C4F1200500FA05F24EEA020E20FA04F34E
:1006880001FA05F243EA020321FA04F001F00041FD
:1006980021FA04F220EA020000EBD3705EEA430E6E
:1006A80008BF20EAD37070BD94F0000F0FD101F09D
:1006B8000046400041EB010111F4801F08BF013CD6
:1006C800F7D041EA060195F0000F18BF704703F014
:1006D8000046520043EB030313F4801F08BF013D9B
:1006E800F7D043EA0603704794EA0C0F0CEA135557
:1006F80018BF95EA0C0F0CD050EA410618BF52EA11
:100708004306D1D181EA030101F000414FF0000016
:1007180070BD50EA410606BF1046194652EA430624
:1007280019D094EA0C0F02D150EA013613D195EA98
:100738000C0F05D152EA03361CBF104619460AD1E0
:1007480081EA030101F0004141F0FE4141F47001EA
:100758004FF0000070BD41F0FE4141F4780170BDDA
:1007680070B54FF0FF0C4CF4E06C1CEA11541DBF3F
:100778001CEA135594EA0C0F95EA0C0F00F0A7F841
:10078800A4EB050481EA030E52EA03354FEA01316E
:1007980000F088804FEA03334FF0805545EA131381
:1007A80043EA12634FEA022245EA111545EA106549
:1007B8004FEA00260EF000419D4208BF964244F1E0
:1007C800FD0404F5407402D25B084FEA3202B61AFF
:1007D80065EB03055B084FEA32024FF480104FF4D3
:1007E800002CB6EB020E75EB030E22BFB61A754647
:1007F80040EA0C005B084FEA3202B6EB020E75EBDA
:10080800030E22BFB61A754640EA5C005B084FEA41
:100818003202B6EB020E75EB030E22BFB61A75460E
:1008280040EA9C005B084FEA3202B6EB020E75EB19
:10083800030E22BFB61A754640EADC0055EA060EDA
:1008480018D04FEA051545EA16754FEA06164FEA1D
:10085800C30343EA52734FEAC2025FEA1C1CC0D1C9
:1008680011F4801F0BD141EA00014FF000004FF056
:10087800004CB6E711F4801F04BF01430020B4F117
:10088800FD0C88BFBCF5E06F3FF6AFAEB5EB030CCF
:1008980004BFB6EB020C5FEA500C50F1000041EBCC
:1008A800045170BD0EF0004E4EEA113114EB5C0499
:1008B800C2BFD4EB0C0541EA045170BD41F480116C
:1008C8004FF0000E013C90E645EA060E8DE60CEA74
:1008D800135594EA0C0F08BF95EA0C0F3FF43BAF91
:1008E80094EA0C0F0AD150EA01347FF434AF95EA48
:1008F8000C0F7FF425AF104619462CE795EA0C0F2C
:1009080006D152EA03353FF4FDAE1046194622E7F8
:1009180050EA410618BF52EA43067FF4C5AE50EAD2
:1009280041047FF40DAF52EA43057FF4EBAE12E7C2
:100938004A0011D212F5001211D20DD56FF4787356
:10094800B3EB62520ED44FEAC12343F0004343EAAB
:10095800505323FA02F070474FF00000704750EAF6
:10096800013002D14FF0FF3070474FF00000704760
:1009780080F0004002E000BF81F0004142001FBF4C
:100988005FEA410392EA030F7FEA226C7FEA236C55
:100998006AD04FEA1262D2EB1363C1BFD21841404A
:1009A80048404140B8BF5B42192B88BF704710F0E0
:1009B800004F40F4000020F07F4018BF404211F083
:1009C800004F41F4000121F07F4118BF494292EAEB
:1009D800030F3FD0A2F1010241FA03FC10EB0C0017
:1009E800C3F1200301FA03F100F0004302D54942A4
:1009F80060EB4000B0F5000F13D3B0F1807F06D351
:100A080040084FEA310102F10102FE2A51D2B1F148
:100A1800004F40EBC25008BF20F0010040EA03003D
:100A28007047490040EB0000013A28BFB0F5000FBD
:100A3800EDD2B0FA80FCACF1080CB2EB0C0200FA73
:100A48000CF0AABF00EBC25052421843BCBFD040C2
:100A58001843704792F0000F81F4000106BF80F43C
:100A680000000132013BB5E74FEA41037FEA226CFF
:100A780018BF7FEA236C21D092EA030F04D092F0CA
:100A8800000F08BF0846704790EA010F1CBF0020FE
:100A9800704712F07F4F04D1400028BF40F000405B
:100AA800704712F100723CBF00F50000704700F07B
:100AB800004343F0FE4040F4000070477FEA2262A2
:100AC80016BF08467FEA23630146420206BF5FEA73
:100AD800412390EA010F40F4800070474FF0000373
:100AE80004E000BF10F0004348BF40425FEA000C3A
:100AF80008BF704743F0964301464FF000001CE0E2
:100B080050EA010208BF70474FF000030AE000BF37
:100B180050EA010208BF704711F0004302D5404275
:100B280061EB41015FEA010C02BF844601460020E7
:100B380043F0B64308BFA3F18053A3F50003BCFA02
:100B48008CF2083AA3EBC25310DB01FA02FC6344AF
:100B580000FA02FCC2F12002BCF1004F20FA02F2B6
:100B680043EB020008BF20F00100704702F12002A9
:100B780001FA02FCC2F1200250EA4C0021FA02F20A
:100B880043EB020008BF20EADC7070474FF0FF0C0F
:100B98001CEAD0521EBF1CEAD15392EA0C0F93EA0A
:100BA8000C0F6FD01A4480EA010C400218BF5FEAAC
:100BB80041211ED04FF0006343EA501043EA51111F
:100BC800A0FB01310CF00040B1F5000F3EBF490019
:100BD80041EAD3715B0040EA010062F17F02FD2A1D
:100BE8001DD8B3F1004F40EBC25008BF20F0010000
:100BF800704790F0000F0CF0004C08BF49024CEA17
:100C0800502040EA51207F3AC2BFD2F1FF0340EAA8
:100C1800C250704740F400004FF00003013A5DDC19
:100C280012F1190FDCBF00F000407047C2F100025A
:100C3800410021FA02F1C2F1200200FA02FC5FEA47
:100C4800310040F1000053EA4C0308BF20EADC7091
:100C5800704792F0000F00F0004C02BF400010F403
:100C6800000F013AF9D040EA0C0093F0000F01F0B0
:100C7800004C02BF490011F4000F013BF9D041EAD2
:100C88000C018FE70CEAD15392EA0C0F18BF93EAD4
:100C98000C0F0AD030F0004C18BF31F0004CD8D1FE
:100CA80080EA010000F00040704790F0000F17BF85
:100CB80090F0004F084691F0000F91F0004F14D0CB
:100CC80092EA0C0F01D142020FD193EA0C0F03D123
:100CD8004B0218BF084608D180EA010000F0004026
:100CE80040F0FE4040F40000704740F0FE4040F401
:100CF800400070474FF0FF0C1CEAD0521EBF1CEAA0
:100D0800D15392EA0C0F93EA0C0F69D0A2EB0302BD
:100D180080EA010C49024FEA402037D04FF0805357
:100D280043EA111143EA10130CF000408B4238BF1C
:100D38005B0042F17D024FF4000C8B4224BF5B1A2A
:100D480040EA0C00B3EB510F24BFA3EB510340EA78
:100D58005C00B3EB910F24BFA3EB910340EA9C0026
:100D6800B3EBD10F24BFA3EBD10340EADC001B0196
:100D780018BF5FEA1C1CE0D1FD2A3FF650AF8B423A
:100D880040EBC25008BF20F0010070470CF0004C47
:100D98004CEA50207F32C2BFD2F1FF0340EAC25072
:100DA800704740F400004FF00003013A37E792F033
:100DB800000F00F0004C02BF400010F4000F013A91
:100DC800F9D040EA0C0093F0000F01F0004C02BF8C
:100DD800490011F4000F013BF9D041EA0C0195E7F5
:100DE8000CEAD15392EA0C0F08D142027FF47DAF8E
:100DF80093EA0C0F7FF470AF084676E793EA0C0F7E
:100E080004D14B023FF44CAF08466EE730F0004C7B
:100E180018BF31F0004CCAD130F000427FF45CAF0B
:100E280031F000437FF43CAF5FE700BF4FF0FF3C79
:100E380006E000BF4FF0010C02E000BF4FF0010CCC
:100E48004DF804CD4FEA40024FEA41037FEA226C95
:100E580018BF7FEA236C11D001B052EA530C18BFB7
:100E680090EA010F58BFB2EB030088BFC81738BF1C
:100E78006FEAE17018BF40F0010070477FEA226C0A
:100E880002D15FEA402C05D17FEA236CE4D15FEA06
:100E9800412CE1D05DF8040B704700BF844608463A
:100EA8006146FFE70FB5FFF7C9FF002848BF10F1FB
:100EB800000F0FBD4DF808EDFFF7F4FF0CBF012040
:100EC80000205DF808FB00BF4DF808EDFFF7EAFFCA
:100ED80034BF012000205DF808FB00BF4DF808ED85
:100EE800FFF7E0FF94BF012000205DF808FB00BF7A
:100EF8004DF808EDFFF7D2FF94BF012000205DF800
:100F080008FB00BF4DF808EDFFF7C8FF34BF01200C
:100F180000205DF808FB00BF4FEA40024FEA41039A
:100F28007FEA226C02D15FEA402C08D17FEA236C69
:100F380002D15FEA412C02D14FF0000070474FF018
:100F4800010070474FEA4002B2F1FE4F0FD34FF055
:100F58009E03B3EB12620DD94FEA002343F000431E
:100F680010F0004F23FA02F018BF404270474FF0CC
:100F78000000704712F1610F01D1420205D110F053
:100F8800004008BF6FF0004070474FF00000704706
:100F980042000ED2B2F1FE4F0BD34FF09E03B3EBDB
:100FA800126209D44FEA002343F0004323FA02F007
:100FB80070474FF00000704712F1610F01D14202F3
:100FC80002D14FF0FF3070474FF00000704700BF6C
:100FD8000022427082700122C270B1FA81F10222AD
:100FE80049090271032201704271704743788B42AC
:100FF8001FD0012941700AD0022910D0C1B901239C
:10100800C37081700223037103234371704703780F
:1010180043B1012383700223C3700023F3E70378ED
:10102800002BF6D0022383700023C3700123EAE764
:10103800FEE7704782B00B88ADF800304B88ADF8FA
:1010480002308B88ADF80430CB88ADF80630023911
:10105800431C053013F8012F0DF1080C0CEB42026C
:10106800834232F8082C21F8022FF3D102B07047DE
:1010780010B50C461146FFF7B9FF2146BDE81040F0
:10108800FFF7D8BF0A4B10B54FF07F32C0E92323D2
:101098004FF47F43A0F89430FF2380F8963004463D
:1010A800983000F0A0FD002384F8A43010BD00BFE4
:1010B800FFFF7F0070B51146154604461E4600F036
:1010C80008FD294604F1140000F003FD294604F147
:1010D800280000F0FEFC294604F13C0000F0F9FC71
:1010E800294604F1500000F0F4FC294604F164009C
:1010F80000F0EFFC294604F1780000F0EAFC4FF418
:10110800FA7332464FF4FA6104F1980000F051FD89
:101118002046FFF7B7FF002384F8A5304FF47F433C
:10112800A4F8A63070BD704700F0DABC143000F0A7
:10113800D7BC08B5503000F0DDFC292100F11403BC
:101148000246B3FBF1F313F0FF0002D1101E18BFE3
:10115800012008BD08B5643000F0CCFC292100F15D
:1011680014030246B3FBF1F313F0FF0002D1101E83
:1011780018BF012008BD90F8903013B990F98C0081
:10118800704790F98D00704790F8903013B990F936
:101198008E00704790F98F00704710B504460BF029
:1011A800D5FE38B104F13C0000F09EFC012838BFA0
:1011B8000120C0B210BD783000F09EBC783000F03D
:1011C800A3BC10B5044600F065FC04F1140000F05F
:1011D80061FC04F1280000F05DFC04F13C0000F023
:1011E80059FC04F1500000F061FC04F1640000F0C7
:1011F8005DFC04F17800BDE8104000F05DBC7F287C
:1012080007D0002807DA10F1800F06D04042C0B29C
:10121800704700207047012070477F20704710B149
:10122800404240B270477F2070477F280FD010F1AE
:10123800310F0EDA10F1780F0DDB7830FE2340B253
:10124800584323304623B0FBF3F0C0B27047FF2069
:101258007047FE20704700207047012805DD40F2E6
:10126800FE73984203DC80B270470120704740F259
:10127800FF707047A0F57870C0EBC02040F2AE73E5
:1012880090FBF3F000F58060FFF7E7BFFFF7F2BFD0
:10129800032812DD0C2812DD0F2812DD122812DDBA
:1012A800162812DD192812DD1C2812DD1F2812DD70
:1012B8002128CCBFFF20062070470020704701205E
:1012C80070470220704708207047032070470720A6
:1012D80070470420704705207047000005289ABF12
:1012E800014B185CFF2070479C1D010805289ABF18
:1012F800014B185CFF207047A21D01087F2803D00E
:10130800002803DAC0B2704700207047FF207047FA
:101318007F2811D010F1320F10DA884210DD401A00
:101328006423C1F1FF21584301F57F01CE313130EB
:1013380090FBF1F0C0B27047FF20704764207047FF
:1013480000207047014B4840185C7047A81D0108F1
:1013580052B110B4054C0A4411F8013B58408A4276
:10136800205CF9D110BC7047704700BFA81D010868
:10137800392808D822280ED9094B2338C0B2C340CF
:1013880003F0010070475F2807D0613819288CBF27
:10139800002001207047002070470120704700BFDF
:1013A80001EC7F00F8B50246451E461D00245F2764
:1013B80015F8010FFF2804BF0134E4B2FFF7D8FF86
:1013C80000B92F70AE42F3D1062C04D119B10B68C5
:1013D80013608B88938000239371F8BD2DE9F8433F
:1013E800DFF83490471E441D012500264FF02808D9
:1013F80017F8011F084810F040FC034610B1A0EB95
:101408000903DBB2A3FB05329E19A742A5FB0853CB
:10141800EED13046BDE8F883A81E010810B5417921
:10142800A1F13000C3B2092B07D80523B0FBF3F3B1
:1014380003EB8303C01AC0B210BD044C204610F061
:101448001CFC0028F1D0001BC0B2EEE7A81E010862
:10145800F0B5094B094F821D2826B1FBF3F4272C60
:1014680094BF3D5D302502F8015D824203FB1411F3
:10147800B3FBF6F3F1D1F0BD00801A06A81E0108EF
:1014880070B50446FEF77EFE82B20023551E98B260
:10149800A84214FA83F104DA265C302E03F1010322
:1014A800F5D0121A01322046BDE8704010F0B4BBE6
:1014B8002DE9F04F0D4699B0164600211A461F46F1
:1014C800804610F0C3FB00212A2201A8009110F0E9
:1014D800BDFBDFF8CC90DFF8CCA0DFF8CCB005EB93
:1014E8004606AE4211D16846FEF74CFE30B100F117
:1014F80060030DEB0300002300F8613C6946404699
:1015080010F004FC19B0BDE8F08F35F9020B47F66E
:10151800FF739842E7D0002812DC59460CA810F057
:10152800F5FB6846FEF72EFE04460CA8FEF72AFED9
:101538000444A742D5D30CA9684610F08FFBD0E726
:10154800B0F57A7F0BDA0CA980B20EF01CFA0CA861
:10155800FFF796FF51460CA810F080FBE1E76423E3
:101568000CA93230B0FBF3F080B20EF00CFA0CA8E4
:10157800FFF786FF0CA8FEF705FE00F15F036B443A
:1015880000F160010DEB010013F8302C00F8302C4D
:101598002E2203F8302C002300F82F3C4946DAE7C6
:1015A800961D0108911D01088C1D0108F0B589B030
:1015B8006D4600242F468E1CE1B28A4204D8394673
:1015C800FFF776FF09B0F0BD36F8241025F8021BA6
:1015D8000134F1E742F210736421B0FBF3F203FB2C
:1015E8001200B0FBF1F301FB130000EB023000EB3B
:1015F800831080B27047020B00F03F0342F2107173
:1016080001FB0233C0F38510642202FB00307047EF
:101618002DE9F04142F2107388B0B1FBF3F603FBF9
:1016280016141F49DFF87C80054610F06FFB6946E9
:10163800F0B20EF085F96846FFF722FF69462846A2
:1016480010F00CFB4146284610F008FB6427694659
:10165800B4FBF7F6F0B20EF073F96846FFF710FF27
:101668006946284610F0FAFA07FB16444146284610
:1016780010F0F4FA6946E0B20EF062F99DF8013014
:101688008DF800309DF802308DF80130694600234E
:1016980028468DF8023010F0E1FA08B0BDE8F08174
:1016A8006D2F01089A1D010870B50E4600210546E8
:1016B800144610F0CBFA00239AB2944200D870BDB9
:1016C800F25C002AFBD0EA540133F5E770B50E4608
:1016D800144600210132054610F0B8FA00239AB2E8
:1016E800944200D870BDF25C002AFBD0EA54013362
:1016F800F5E730B50023044698B2904201D30120A3
:1017080005E0E55CC85C1DB9B0FA80F0400930BD61
:101718000028FCD0854203F10103EDD00020F6E754
:10172800914206D19DF900008342CCBF00200120E0
:101738007047022909D0022A05D0012905D0531E75
:1017480058425841704701207047002070477D2358
:10175800438043F2390309B2C360002301808180CA
:10176800C380037270470000C2680449044B01FB40
:10177800023323F00043C360980F7047FD43030012
:10178800C39E260010B50129044680791AD804287A
:1017980001D80130A071012AE07917D8042801D8AE
:1017A8000130E07191424AD8914245D3012930D1A4
:1017B800012A2ED1A279E3799A4228D322D96FF04F
:1017C8007C0310E00028E6D00138E3E708B10138CF
:1017D800E0710229E6D1022AE6D19DF90820934258
:1017E8000BDDB4F9003062881A4412B27C2A28DD75
:1017F8007D2262800022227227E01BDA23885B4266
:101808001BB2F0E72046FFF7AFFF0028D7D07D23B3
:10181800E9E7B4F90400B4F900302288B4F90210F9
:10182800002804DB7C29DEDD524213B2DBE77C3181
:10183800D9DBF9E70023D6E76FF04A03D3E74B2358
:10184800D1E712F17C0F02DB6280A38010BD4FF656
:10185800837262800122CEE702680449044B01FBCF
:10186800023323F000430360180C7047FD43030064
:10187800C39E2600F0B5002597B001608580044618
:1018880056222946684610F0E1F90126E27DAA426F
:1018980009D80023802104F1B800A37517B0BDE86A
:1018A800F04010F0D3B92046FFF7D6FFE7797B1B4D
:1018B800002190FBF3F202FB1300C0B2EC460A468B
:1018C800CBB29F4223D800230022277B1146D0B2F7
:1018D800874227D80029D9D1A279033A012A04EBF3
:1018E800050105D925B191F9172012BB012BCDD9D6
:1018F8000B76A26852F82310583305F10E026B4498
:10190800013544F8221003F8586CEDB2BEE71CF814
:1019180001EBBEF1000F03D18242D5D00132D2B221
:101928000131CDE72069805C0132984208BF01216E
:10193800CDE7501E8342DBDB01329342D8DCA5E7BA
:101948002DE9F04F154697B0013D0160027104463C
:101958004371EDB25622002168469946002710F0DF
:1019680075F9022D84BF4FF0010A00253E4694F810
:1019780007809CBF4FF0030AB8FBFAF8E27DB24239
:1019880009D80023802104F1B800A37517B0BDE879
:10199800F04F10F05BB92046FFF75EFFA8EB060397
:1019A80090FBF3F202FB13030020DBB2EC46024685
:1019B800C1B2414506D21CF801EBBEF1000F22D19D
:1019C8009A421ED1414528BF414601FB0A500022D8
:1019D80094F80CE000F0FF009446D3B29E4514D86A
:1019E800BCF1000FCAD1A3680FFA80FC09F1FF3ED1
:1019F80053F82C20BEF1030F15D8DFE80EF00E2A9D
:101A08002D300132D2B20130D2E723699B5C01321A
:101A1800834208BF4FF0010CDFE7DFF864E096442B
:101A2800184A9645AAD916B117BB0129A6D9A219F1
:101A38000F46107653F82C2006F10E0344F82320A5
:101A480001F1580301226B44164403F8582CF6B2EE
:101A580094E7DFF834E0E2E7DFF830E0DFE7A2F50B
:101A68003D02DFF82CE0A2F59D42443A7245D9E7E1
:101A78007A1E9142DBDB7A1C9142D8DC7EE700BFFC
:101A8800C54E47FF3BB10100776245FF287643FF0B
:101A98003CB10100D0E901236421D31AC3608260FC
:101AA8004B43418AB3FBF1F303747047D0E9012338
:101AB800D31AC0E90223704743682BB1C268642176
:101AC8004A43B2FBF3F2D3B203740023C36043600A
:101AD80070470023C0E902334182436003747047B2
:101AE8004368013343607047007C704743680B4488
:101AF80043607047C068704711B1C3680133C36061
:101B08004368013343607047007C704700230380BB
:101B18008370037270470346007810B100221A7070
:101B28007047587810B100225A707047987810B1F1
:101B380000229A707047187A08B100221A7270470A
:101B48000170704701707047817070478170426002
:101B580070474068704700234360038170470A2339
:101B680010B50446838001F0BDFF2368E0809B68C0
:101B780020469847208110BD038970B504469BB163
:101B8800858845B1013DADB285806DB903681B6894
:101B9800BDE87040184701F0A5FFE388C01A238903
:101BA80080B2834201D2258170BD236820465B68DC
:101BB800EEE72DE9F041044610461D4616468846D4
:101BC800FEF78CFF074606EB0800FEF787FF014685
:101BD8003846FFF78FF8656020602846FEF782FFD9
:101BE800A060BDE8F08110B504464068FEF77AFFB2
:101BF800A06010BD10B50229044680EAE070A0EB91
:101C0800E47068D15AB9002CACBF7F233F239842B7
:101C1800A8BF1846002C01DA40F0400010BD012A88
:101C28001AD1632805DC4000002CF7DA40F48070F4
:101C3800F4E740F2F54398420CDCFEF74FFF5749B2
:101C4800FEF7A4FF0EF0BEFEFFF7A2F9400040F039
:101C58000100E9E7FF20E7E7022A40F09C806328BB
:101C680005DC8000002CD9DA40F40070D6E7B0F526
:101C78007A7F0CDAFEF732FF4849FEF787FF0EF04D
:101C8800A1FEFFF785F9800040F00100EAE742F283
:101C98000F7398420CD8FEF721FF4149FEF776FFF3
:101CA8000EF090FEFFF774F9800040F00200D9E7CB
:101CB8003C4B98420CD8FEF711FF3B49FEF766FFF4
:101CC8000EF080FEFFF764F9800040F00300C9E7DA
:101CD80040F2FF10C6E703295DD1012A1BD1B0F5F8
:101CE8007A7F05DA4000002C98DA40F4006095E726
:101CF800B0F5205F0CDAFEF7F1FE2849FEF746FF43
:101D08000EF060FEFFF744F9400040F00100EAE7FA
:101D180040F2FF70E7E7022A3DD1B0F57A7F06DA94
:101D28008000002CBFF67AAF40F4805076E742F28C
:101D38000F7398420CDCFEF7D1FE1849FEF726FF18
:101D48000EF040FEFFF724F9800040F00100E8E7BC
:101D5800164B98420CD8FEF7C1FE1149FEF716FF44
:101D68000EF030FEFFF714F9800040F00200D8E7CB
:101D7800B0F57A2F0CD2FEF7B1FE0B49FEF706FF3D
:101D88000EF020FEFFF704F9800040F00300C8E7DA
:101D980040F6FF70C5E7002040E700BFCDCCCC3D42
:101DA8000AD7233C17F001006F12833A9F8601007F
:101DB800002303607047000038B5084B09291B78D9
:101DC80028BF09218B4204460D4602D10023036037
:101DD80038BD01F07BFE25712060F9E7CC020020B8
:101DE800036810B504460BB9002010BD01F06EFE63
:101DF8002368C01A40F2EE239842F5D90023054A19
:101E08002360127823799A42EED0034A0120D377CF
:101E1800EBE700BFCC02002028030020FF2343711A
:101E280000230171837103818372704738B5037988
:101E380004460D465BB14179A94208D041B1012958
:101E48000AD00023A371657155B1012D0FD038BD9B
:101E580003689B689847F4E703680021DB68F9E7A3
:101E680023689B68012120469847A071EFE7236803
:101E78002946DB68F7E72DE9F04F077CC37B857CB3
:101E8800C67C90F815E090F8208090F80EC0BF004E
:101E98000C4647EA931703F03F01437C03F0010225
:101EA80047EA822705F00F02D20142EA530206F000
:101EB8007F031B0143EA1513057D89B06D0045EAD0
:101EC800D6150EF00306059345EA4623867D009352
:101ED80006F01F05AD0145EA9E03C57D90F819E09F
:101EE8000193ED0045EA5613057E02930EF00706AE
:101EF80045EA0623857E039305F03F06760146EA08
:101F0800DE03C67E90F81CE00493B60046EA9516F8
:101F18000EF0010546EA8526457F069205F00F0B6F
:101F28004FEACB1B4BEA5E0B90F81EE00EF07F0ADF
:101F38004FEA0A1A4AEA151AC57F6D0045EADE1506
:101F480008F0030E45EA4E2590F821E00EF01F092F
:101F58004FEA891949EA9809490190F82280407B9B
:101F680041EADC010CF0070C40EA0C204FEAC808F3
:101F780048EA5E180791FFF77DF90799208008461F
:101F8800FFF778F960803846FFF774F9069AA08061
:101F98001046FFF76FF9059BE0801846FFF76AF9CE
:101FA80020810098FFF766F960810198FFF762F9D0
:101FB800A0810298FFF75EF9E0810398FFF75AF9CC
:101FC80020820498FFF756F960823046FFF752F9ED
:101FD800A0825846FFF74EF9E0825046FFF74AF9CB
:101FE80020832846FFF746F960834846FFF742F901
:101FF800A0834046FFF73EF94FF48063E0832384D3
:10200800638409B0BDE8F08F2DE9F04104460F461E
:1020180001F068FD4FF001080546236820461B685B
:102028009847064650B9A37A012B1FD12389ED1A88
:1020380040F6C4139D42C8BFA07217E0236820462B
:102048005B689847A37AA3B90F2814D1A4F80A802B
:10205800E37AE2180133DBB2182B1073E3720AD962
:1020680039462046FFF707FF0023A3723046BDE834
:10207800F081012BECD02581CFE7827922B1437919
:10208800012B01D8FFF7C0BF002070477047704789
:102098007047002070477047002070470020704745
:1020A800704700207047002070474FF0B04382B05F
:1020B800DA6C0243DA64DB6C03400193019B02B0E3
:1020C80070474FF0B04382B09A6D02439A659B6D9A
:1020D80003400193019B02B070474FF0B04382B0B8
:1020E8001A6E02431A661B6E03400193019B02B0ED
:1020F800704750E8003F43F0800340E80032002A70
:10210800F7D1704750E8003F23F0200340E8003241
:10211800002AF7D1704750E8003F23F0400340E819
:102128000032002AF7D1704750E8003F23F08003BF
:1021380040E80032002AF7D1704770477047000026
:102148000288044B5140C9B233F8113083EA122394
:1021580003807047B04D01089AB110B4B0F800C0C0
:10216800084C0A4411F8013B83EA0C03DBB29142A4
:1021780034F8133083EA1C2CA0F800C0F2D110BC4C
:1021880070477047B04D010837B54FF6FF730446E6
:10219800ADF806304518AC4203D1BDF8060003B0CF
:1021A80030BD14F8011B0DF10600FFF7C9FFF2E777
:1021B80000207047074B1B784BB9074B1888074B13
:1021C8001B8880B29BB2C01A18BF0120704700203C
:1021D800704700BF08000020643E0020623E0020D7
:1021E800704700000649074A0B8812880133C3F379
:1021F800080392B29A421EBF034AD0540B8070471C
:102208005C3400205A3400205A3200200023A0F801
:102218007032A0F86E3270470023A0F85C32A0F844
:102228005A3270473A4B5A6A037A92B263B1838939
:10223800D31A9BB2B3F5FA7F84BF00230372837A63
:102248004F2B84BF00230372037A8281082B0FD897
:10225800DFE803F0050E0E0E0E0E0F172200EE2912
:1022680001D0C82904D10123837241750623037262
:102278007047837A5A1C0344827259754172072346
:10228800F5E7827A531C0244DBB283725175427AB5
:102298009A42EDD20823EAE7837A5A1C03448272F1
:1022A8005975C37D162B04D1012380F865300923A5
:1022B800DDE74369174A03F0FF23934203D1012363
:1022C80080F86730F3E7144A93421CD1837E102BC1
:1022D80019D1C37E022B08D0052B0DD0012BE6D1D6
:1022E800027EEE2A08BF80F86A30037EEE2BDED12C
:1022F800012380F86B30DAE7012380F86830037F28
:1023080080F86930D3E7012380F86630CFE700BF53
:102318000044014000C8002800C80032044B188857
:10232800044B1B8880B29BB2C01A18BF01207047AB
:102338005C3400205A3400200278024B51405B5C28
:1023480003707047F0380108FF230370704700BF1F
:102358007047B0F86E32B0F870229B1A98B21B041E
:1023680044BF00F5006080B2003818BF01207047F4
:10237800A0F11400EDE7B0F87022B0F86E129142A7
:1023880003461FBF8118013291F87402B3F8721224
:102398001ABF0A40A3F8702200207047A0F1140069
:1023A800E9E770B50B7803704B7843700B78FD2B19
:1023B80005460C4638D18B788370CB78C3700B797F
:1023C80003714B7943718B7983718B68C3718B6807
:1023D800C3F30F2303728B7A43720A26627804F1DF
:1023E8000C01A8190FF09AFC6378B4F80C21334457
:1023F800981CEA545A1CB4F80C1192B2090AA95450
:10240800A278D20780B20ED504F58872054404F587
:102418008E7452F8041B45F8041BA242F9D11278B5
:102428002A700F3398B270BD00238B700B798370BC
:102438004B79C3708B7903718B6843710626CDE79E
:1024480038B54A78352A0D46044601F10C010AD8F8
:102458000FF064FC68780021C0F136022044BDE822
:1024680038400FF0F3BB403551F8043B40F8043BCB
:10247800A942F9D10B88038038BD38B54A781B2AA0
:102488000C46054601F10C010AD80FF047FC6078AC
:102498000021C0F11C022844BDE838400FF0D6BB2B
:1024A800283451F8043B45F8043BA142F9D138BD22
:1024B80038B54A78082A0D46044601F10C010AD8B5
:1024C8000FF02CFC68780021C0F109022044BDE817
:1024D80038400FF0BBBBEB6803604B6843600B7A76
:1024E800037238BD38B54A78072A0C46054601F10B
:1024F8000C010AD80FF012FC60780021C0F1080224
:102508002844BDE838400FF0A1BBE36803604B687E
:10251800436038BD08B52422034800210FF096FB1C
:10252800024B00221A7008BD8C0D00207C0500208B
:102538002DE9F0411378037092F8018080F801804A
:10254800FD2B04460F46154654D193788370D378F3
:10255800C3701379037153794371937983716B7ADB
:10256800127A1B0403EB0223EA79134423F07F4316
:102578000A26A26863F31702A260A919424604F169
:102588000C000FF0CBFB7A7B904507D208F10C00CA
:10259800A2EB0802002120440FF058FB63781E4488
:1025A800AB195A78AB5D03EB0223A4F80C31A3787E
:1025B800DB070ED5023615FA86F304F5887203F1A7
:1025C8000C0153F8040B42F8040B8B42F9D11B7829
:1025D8001370BB7A84F82131FB7A84F822313B7B73
:1025E80084F823317B7B84F824313B7884F82031CC
:1025F800BDE8F0810023438093780371D378437159
:102608001379837153790626B3E738B54A78132AC4
:102618000C46054601F10C010AD80FF07FFB6078E3
:102628000021C0F114022844BDE838400FF00EBB69
:10263800203451F8043B45F8043BA142F9D138BD98
:102648002DE9F04F0C465188B1F58C7F054685B0D1
:102658004FF0000010D31070D91CC9B2012995BFE2
:1026680001210023518053809CBF237011700020EA
:10267800287005B0BDE8F08F16780E2E00F2908015
:1026880001A757F826F000BF61260008CD260008EC
:10269800F526000813270008A9270008A92700081D
:1026A800A9270008A9270008A9270008A9270008C2
:1026B800A9270008A9270008A9270008A9270008B2
:1026C80025270008481C508063542178FD299BB2B7
:1026D80006D10C330A21D380918002231370C6E7F8
:1026E80008330621D38091800E23F7E7481C5080D9
:1026F8006354D80742BFD1880D31D1800020012B07
:102708008CBF034603231370B2E7481C5080002097
:102718008342635414BF03460E23F4E7481C5080D9
:1027280063545388D1888B4232D30023538013706B
:1027380002232B7069802378FD2B37D163792B72A4
:10274800A3796B72637A227A1B0403EB0223E27982
:1027580013446B60637803F10C026A80A278D10796
:1027680001D519336B8000266968DFF800816E8116
:102778004FF4BC720C20B31801335B0800FB03F75D
:1027880058F80770B9421AD25A1EB242F3D818E064
:1027980092889A423FF66BAF01232B70002068E7BE
:1027A800107050809080D0802870F7E7E3782B7203
:1027B80023796B7263796B6063780833D2E71E46BE
:1027C800E3D80C27774358F80730994227D1237864
:1027D8002046FD2B10F801BF0CBF4FF00A094FF03F
:1027E800060909EB0B03591E89B247440193FFF709
:1027F800CBFC97F804A0ADF80E0051460DF10E0081
:10280800FFF79EFC019BE218E35C527803EB02237E
:10281800BDF80E209BB29A4209D0052000E00320A3
:102828002870023801288CBF0020012021E7BB79DD
:10283800DA0706D5FA79934582BF04EB09018A5C69
:10284800AA729B0709D50C2303FB068362781B7ABF
:102858009A4282BF4C44E35CEB720C2303FB068371
:1028680085F80CA05B796B730220DAE7F039010870
:10287800084B5B6A4FF0402202F5806353E8003F43
:1028880043F0200302F5806040E800310029F3D1CD
:10289800704700BF004400400A4A0B4B12680B49BE
:1028A800A3FB02323220920C00FB02F2084B48686C
:1028B80002F5FA72A3FB023292094B681B1A9A427C
:1028C800FBD870474802002083DE1B43001000E05D
:1028D800D34D621008B5FFF7DFFF024B04229A615F
:1028E80008BD00BF00040048024B04229A62FFF7AB
:1028F800D3BF00BF0004004830B587B0034601AC21
:1029080000F1100518685968224603C20833AB4223
:102918001446F7D10024094D8DF81440A96801A880
:10292800FDF726FC10B920B207B030BD01342E2CBB
:1029380005F10C05F2D14FF0FF30F5E70C0000204F
:1029480002780A4B90F801C08178D243D2B29A5CDF
:1029580082EA0C0290F803C09A5C4A40995C0279BA
:1029680081EA0C01595C4A40985C7047F0380108CC
:10297800028810B58488531C234044889C421EBF9B
:1029880012189171038010BD411A88B20B0444BF1C
:1029980000F5007080B2704770B5104C00252346D2
:1029A80026782EB166788E4202D1A67896420BD050
:1029B80001350C2D04F10404F2D1002413F824503D
:1029C8001DB101340C2CF9D170BD012503F8245038
:1029D80003EB8403D87059709A70F5E781050020DD
:1029E8002DE9F8430B460D795A7A9E7ADF7A204B07
:1029F800097A1B5CDB07044600D50DB9FFF7CCFF4D
:102A080000231C491A4898464FF0010E9C4201F8D1
:102A1800018B25D02DB90278920702D501F801EC77
:102A28001EE0154A4FF0000C92F80090B9F1000F23
:102A38000FD092F8039099450BD1002EEED092F862
:102A48000190B14505D1002FE8D092F80290B94520
:102A5800E4D00CF1010CBCF10C0F02F10402E3D13B
:102A68000133DBB2042B00F10100CFD1BDE8F883BC
:102A7800B10500207D0500208105002007B5036809
:102A88008DF807101B6901220DF10701984703B063
:102A98005DF804FBF0B50546FD2305F80C3B85B051
:102AA80004468DF8043090F8243103F10C020244F6
:102AB800012B42D80026637066808DF805308B7A2A
:102AC80023718DF808308B7AADF8066001338B726C
:102AD80063798DF80930A3798DF80A30A368C3F3B8
:102AE80017031A128DF80B3009211B140DF105007C
:102AF8008DF80D308DF80C20FFF746FB6778ADF8A0
:102B080002003A4629460DF10200FFF725FB94F82A
:102B18002311FFF715FB94F82421BDF80230A4F81F
:102B28000C31974210D207F10C00D21B31462044D9
:102B380005B0BDE8F0400FF089B812F8010D002883
:102B4800B8D1013BDBB2B3E705B0F0BD7047000078
:102B5800044AD2F8903023F40043C2F89030FFF7CB
:102B68009BBE00BF0004005808B5FFF795FE044A55
:102B7800D2F8903043F40043C2F8903008BD00BF4B
:102B880000040058064B1B7843B1064A0023138003
:102B9800054A1380054A1380054A1380704700BF11
:102BA80008000020623E0020643E002066400020AD
:102BB80068400020054B1B783BB9054A1380054A3D
:102BC8001380054A1380054A1380704708000020C7
:102BD800623E0020643E00206640002068400020DD
:102BE800074B084A5B6A02F5006353E8003F43F06D
:102BF800200302F5006040E800310029F3D1704756
:102C08000038014000300140064B187840B1064BAF
:102C18001888064B1B8880B29BB2C01A18BF0120C7
:102C2800704700BF08000020643E0020623E00207C
:102C380070B5044608460D46FDF7A4FA236882B22B
:102C4800294620461B69BDE87040184708B5FFF7BC
:102C5800EFFF08BDB0F1904F02D10120FFF725BA70
:102C6800084B984205D003F58063984203D10420AD
:102C7800F4E70220F2E7044B984201D18020EDE707
:102C8800704700BF00040048001C00480C4B9842E5
:102C980003D14FF40060FFF720BAB0F1804F05D0A0
:102CA800084B984205D14FF40030F4E70120FFF7B4
:102CB80008BA054B984202D14FF48020EBE77047E1
:102CC800002C014000440140004801402DE9F04338
:102CD80087B00E46054614460021142201A89DF827
:102CE80038809DF83C901F460EF0B0FF00960B2CE4
:102CF80007D8DFE804F007070A121414141616168A
:102D08001A1CFEE70323019301E002230493032F17
:102D180011D8DFE807F0111321110123F6E7012389
:102D2800F1E7012301930393F1E70223EBE7022381
:102D380001930123F7E7FEE702230293B8F1100F8E
:102D48000CD8DFE808F02D2D0C11131517191B1DD1
:102D58001F21232527292B000123EEE7FEE7012366
:102D68000593022301931EE00223F9E70323F7E703
:102D78000423F5E70523F3E70623F1E70723EFE745
:102D88000823EDE70923EBE70A23E9E70B23E7E745
:102D98000C23E5E70D23E3E70E23E1E70F23DFE745
:102DA800B8F1000FDDD1B9F1000F02D02846FFF7C6
:102DB80051FF053C042C05D8DFE804F0030B04039D
:102DC8000B00AE62694628460CF018FA07B0BDE859
:102DD800F083AE61F6E713B54FF0010C0024CDE99E
:102DE800004CFFF773FF02B010BD000007B50E4896
:102DF800FFF788F9036823F001030360436823F4AD
:102E080000434360036843F0010303600022082382
:102E1800CDE90032042103230A224FF09040FFF746
:102E280055FF03B05DF804FB0044004030B587B09F
:102E3800002315460446ADF80630FFF727FF042D9A
:102E480004D8DFE805F02E3204363F00FEE71E4BBB
:102E58001E4A1B68B3FBF2F39BB20022CDE90221A4
:102E6800013B01A92046ADF80430049205920CF00C
:102E7800F1FB236823F080032360A36823F4A033C5
:102E880023F00703A360636823F07003636063683B
:102E980023F470036360A36823F08003A36007B082
:102EA80030BD094B0A4A1B68D4E7074B094A1B681F
:102EB800D0E7054B064A1B68B3FBF2F303EB830329
:102EC8005B00C9E70123C8E74802002080A8120177
:102ED80040420F0000127A0010B50446FFF7A6FF23
:102EE800236843F00103236010BD00224FF0FF3137
:102EF800FFF7F2BF1A4B10B51A4C5B6823600BF052
:102F0800E3FA4FF090400CF03BF917480CF038F911
:102F180016480CF035F916480CF0D6FB15480CF09D
:102F2800D3FB0CF0C9FA4FF0E02200231361536180
:102F3800936172B64FF0FF319A0002F1604202F5D8
:102F480061420133082BC2F88010C2F88011F3D116
:102F580062B6034B1B6883F3088823689847FEE72B
:102F68000000FF1F78050020000400480008004802
:102F780000380140004400400749084A881AEFF326
:102F88000883521A1A44013A013B984288BF00222A
:102F9800AA210EF05BBE00BF000001200004000063
:102FA800044B5A69586910F0020018BFC2F3800038
:102FB800704700BF000400584FF0B042D2F8943078
:102FC80043F40043C2F894304FF47A7300BF013BD6
:102FD8009BB2002BFAD14FF0B043D3F8942022F4DF
:102FE8000042C3F89420D3F894205204FBD40C4B2D
:102FF800D3F8902022F40042C3F890204FF47A725C
:1030080000BF013A92B2002AFAD1D3F8902042F4D4
:103018000042C3F890204FF400629A61704700BFE5
:103028000004005810B50323052240214FF09040BA
:10303800FFF7D1FEBDE810400323052280214FF0A1
:103048009040FFF7C8BE08B5FFF7AAFF003818BFC1
:10305800012008BD08B5FFF7F6FF00B908BD00BF9D
:10306800F9E74FF0904380229A6240229A617047B4
:103078004FF0904340229A6280229A617047000084
:10308800024B4FF480225A60704700BF00E100E015
:1030980010B5134C0323062202214FF09040FFF78E
:1030A8009AFE2046032302224FF48071FFF793FE15
:1030B80003231A4601214FF09040FFF78CFE0323AB
:1030C800052210214FF09040FFF785FE204603238C
:1030D800BDE8104005224FF48051FFF77CBE00BFC9
:1030E800000400484FF09043186900F00100704751
:1030F80008B5FFF7F7FF00B908BD00BFF9E7000002
:10310800044B4FF480529A624FF0904310229A6118
:10311800704700BF000400484FF0904310229A62A5
:103128004FF48052C3F8182470470000164801690C
:103138000F2321F00F0193FAA3F3B3FA83F30122CB
:1031480003F00F0302FA03F30B4303610F4BD3F8A9
:10315800842022F48072C3F88420D3F8802022F4DB
:103168008072C3F880205A6822F480725A601A6804
:1031780042F480721A60064BD02283F816234FF46B
:1031880080021A60704700BF000001400008005824
:1031980000E100E0054B4FF48072DA60D3F880203C
:1031A80042F48072C3F88020704700BF00080058BE
:1031B800002303224FF400414FF09040FFF70BBE6D
:1031C8004FF09043186980F40040C0F3C030704756
:1031D80010B5074C0023204605221021FFF7FBFD00
:1031E80020460023BDE8104005220821FFF7F3BD63
:1031F8000004004805494B691A04DB4302F48012B5
:1032080003F0100313438B61704700BF00040048AC
:1032180005494B691A04DB4302F4002203F0080352
:1032280013438B61704700BF0004004808B50322B0
:1032380000234FF400414FF09040FFF7CCFD1022DF
:1032480000234FF090410869000458BF013302F190
:10325800FF3258BFDBB212F0FF02F4D1082B034A49
:103268008CBF00230123137008BD00BF0800002095
:103278000C4BD3F8FC2022F08072C3F8FC20D3F862
:10328800FC2042F08072C3F8FC20A3F55D431A6865
:1032980022F001021A601A6842F001021A60002244
:1032A8005A60704700ED00E00649074B074A1B6863
:1032B800B3FBF2F310B54C6843434A68121B9A42B9
:1032C800FBD310BD001000E04802002040420F0070
:1032D8001FB50223CDE9013101A8012369460393F3
:1032E8000BF05CFA00280CBF0420052005B05DF83F
:1032F80004FB014608B501200BF00AFA00280CBFB0
:103308000420052008BD08B5FFF7E2FF031F584257
:10331800584108BD08B5FFF7ECFF031F5842584154
:1033280008BD00002DE9F047294B2A4D01280E461B
:1033380014462949294A0FBF79277827AA461D46E6
:1033480006BF88469A4690460BF096F939462846B5
:10335800FFF7D9FF28B900240BF0A0F92046BDE8F3
:10336800F087002E08BF4FF4FC64073424F00704EC
:1033780005F11007B1463444AAEB050AA1450BD163
:103388004FF011324FF0FF332846FFF7C3FF041EFA
:1033980018BF0124A400DFE76EB90AEB0703D3E9DD
:1033A8000023B3F1FF3F08BFB2F1FF3F06D1083752
:1033B80009F10809E2E7D9E90023F2E7B84505D998
:1033C8003846FFF7A7FF0028F1D1C4E70324C3E775
:1033D80000C0030800C80308FFCF0308FFC703089D
:1033E80010B50BF049F909487821FFF78CFF04461E
:1033F80038B107487921FFF786FF041E18BF01245A
:10340800A4000BF04BF9204610BD00BF00C0030814
:1034180000C8030830B5084D002340F2EF749AB293
:10342800914201D8042030BDA34203D05A5DC25452
:103438000133F4E70320F6E710C0030838B5044663
:103448000D4672B60A4601460020FFF76BFF62B6CA
:10345800042806D172B601202A462146FFF762FFEA
:1034680062B638BD38B5124B1C68D3F80058B4F1B1
:10347800113F09D1B5F1113F17D0002211460120A3
:10348800BDE83840FFF74EBFB5F1113F03D1002228
:1034980011461046F4E7FFF7A3FF042804D12C4097
:1034A80001340CBF0220012038BD0420FCE700BF16
:1034B80000C00308044B9A689107FCD518739A68F2
:1034C800D207FCD5187B70470000015870B50C4630
:1034D800451E8E18B44200D170BD15F8010FFFF7D4
:1034E800E9FF04F8010BF5E7084611461A46FFF70D
:1034F800EDBF000070B5064E04464518A54200D140
:1035080070BD3078FFF7D6FF04F8010BF6E700BF6F
:103518003C02002008461146FFF7ECBF38B50446C8
:103528004518AC4200D138BD14F8010BFFF7C2FFB3
:10353800F7E708461146FFF7F1BF000010B58CB059
:103548002822002102A80EF081FB4FF0B0431C4C4A
:103558005A6E42F001025A665B6E03F00103019352
:10356800019BFFF729FD082208924FF4827200237D
:1035780003924FF40072CDE90533CDE90933029384
:10358800079207234FF4E06202A920460B930492A6
:103598000CF026F8636823F010036360636823F077
:1035A80008036360236843F040032360A3689B0714
:1035B800FCD5237B034BFF221A700CB010BD00BF53
:1035C800000001583C020020034B18739A68D20788
:1035D800FCD5187B704700BF0030014038B5441E49
:1035E8008D18A94200D138BD14F8010FFFF7ECFF80
:1035F80001F8010BF5E7084611461A46FFF7EEBF3A
:1036080038B5064D04460144A14200D138BD28789A
:10361800FFF7DAFF04F8010BF6E700BF3D020020D0
:1036280008461146FFF7ECBF10B5014404468C422A
:1036380000D110BD14F8010BFFF7C6FFF7E70846E5
:103648001146FFF7F1BF000030B58DB02E4C28228F
:10365800002102A80EF0FAFA4FF48050FEF73DFD63
:103668000421204603230622FFF7B5FB0423A361A8
:1036780001250624CDE9004503230A2220214FF025
:103688009040FFF723FBCDE9004503230A224FF4BE
:1036980080514FF09040FFF719FB03231A46CDE9FC
:1036A80000454FF400614FF09040FFF70FFB0822F0
:1036B800164C08924FF48272002303924FF4007262
:1036C800CDE90533CDE909330293079207234FF477
:1036D800E06202A920460B9304920BF081FF636815
:1036E80023F010036360636823F0080363602368B2
:1036F80043F040032360A3689B07FCD5237B044B5E
:10370800FF221A700DB030BD00040048003001409F
:103718003D0200201B4B10B4DC69A00611D51A68C5
:1037280091060ED5184819495A6A03880988013341
:10373800C3F30A0389B299421FBF1549D2B2CA54CA
:10374800038010481F232206036215D503681B0651
:1037580012D5104B104A1988138889B29BB2994226
:103768000CD013880133C3F30803138013880B4A62
:103778009BB2D35CDBB2836210BC704710BCFEF70F
:10378800D3BC00BF00380140643E0020623E0020E8
:10379800623600206840002066400020663E002017
:1037A8000A490B4A08B50B8812880133C3F308038A
:1037B80092B29A4207D0074AD05407480B80FEF7C6
:1037C80098FC012008BD0020FCE700BF68400020ED
:1037D80066400020663E00200038014038B50446A7
:1037E8004518AC4200D138BD14F8010BFFF7D8FFDB
:1037F800F7E70000034B1B78084611460BB9FFF7A3
:10380800EDBF704708000020034B1B78084611469F
:103818000BB1FFF7E3BF704708000020054B064ACD
:103828001B8810880133C3F3080380B2181A18BF25
:1038380001207047684000206640002008B5044B0E
:10384800187820B1FFF7EAFFB0FA80F0400908BD08
:103858000800002008B5054B1B782BB9FFF7DEFFE1
:10386800B0FA80F0400908BD0020FCE708000020FD
:10387800054B064A1B8812889B1A98B21B0444BF42
:1038880000F5006080B27047643E0020623E002070
:10389800024B187808B1FFF7EBBF7047080000200B
:1038A8000848094A0188138889B29BB29942F9D01D
:1038B80013880133C3F30A0313801388034A9BB2A6
:1038C800D05C7047643E0020623E002062360020D3
:1038D800024B187808B1FFF7E3BF704708000020D3
:1038E800034B1B780BB9FFF7DBBF0020704700BF05
:1038F8000800002070B588B00C4606461546002121
:10390800202268460EF0A2F9231E18BF01231B03CC
:10391800CDE9023569460C230348019604940593C2
:103928000BF0F6FE08B070BD0038014010B5064C2B
:10393800236823F001032360FFF7DCFF236843F0CB
:103948000103236010BD00BF00380140044B1B7801
:1039580008461BB100221146FFF7E8BF704700BFB9
:103968000800002000221146FFF7E0BF73B5304C75
:10397800236823F001032360082501264FF48040C3
:10398800FEF7ABFB4021CDE900562A4803230A2263
:10399800FFF79CF903231A46CDE9005625488021F4
:1039A800FFF794F9002211464FF4E130FFF7A2FF28
:1039B800636823F490436360A36823F02A03A36039
:1039C8001D4BB02283F8242310225A602046FEF7AC
:1039D800ABFBFEF7A0FB40232362184B00211980A4
:1039E800174B1980FEF78EFB164B1980164B198062
:1039F800636823F400636360A36823F00803A3608B
:103A0800636823F480436360A36823F02203A36000
:103A1800A36843F48053A360236833432360E369B6
:103A28009A02FCD5E3695B02F9D502B070BD00BF0C
:103A3800003801400004004800E100E06640002032
:103A480068400020623E0020643E002008B5FFF771
:103A58008DFFBDE80840FFF7C3B8000008B5FFF7C1
:103A6800F5FFFFF7E3FB054B1B782BB9BDE80840D2
:103A78004FF4E130FFF776BF08BD00BF0800002013
:103A8800024B1A68024B1A60704700BF784000204A
:103A9800980A0020054A064B1968136899421DBF09
:103AA8000133012013600020704700BF980A0020EE
:103AB80078400020034A044B11681B780B441360BC
:103AC800704700BF784000204C020020014B186866
:103AD800704700BF784000200148FFF706BA00BFD2
:103AE80000440140014B586A80B2704700440140CD
:103AF80008B5FFF7F1FFBDE80840FFF7C1BF0000B8
:103B0800F8B51A4C1A4F90220021201D0EF09EF88D
:103B18001623062663800F23A38032462C233946BA
:103B2800A0192680FDF742FD124A134B0025C4E96F
:103B38000D2339462C23324604F13E00A587FDF7B4
:103B480035FD01230D49E36604F17C00A4F87030CB
:103B5800C4E91D5584F872500EF0D8F87F2384F814
:103B68009130052384F89230F8BD00BFE4040020AA
:103B7800CC31010801000F0003000500381F0108BF
:103B880070B5094E05460C46415C30460EF075F896
:103B9800034628B1831B0133DBB2282B28BF00233F
:103BA800F35C2B5570BD00BFC438010870B50D46D5
:103BB8001146044616460EF0A9F82DB3013D082D0E
:103BC80008D8DFE805F00511131517191B1D1F008C
:103BD80035236371627973799A4215D1204605219C
:103BE800BDE87040FFF7CCBF6123F2E76623F0E73A
:103BF8006B23EEE77023ECE77523EAE77A23E8E71F
:103C08003123E6E73223E4E770BD0000F7B5054647
:103C180005F11106214C224A014636016846FFF794
:103C2800C5FFB01C694620440EF070F8264404EB2A
:103C38000512002302277772A2F81A31142202FB18
:103C480005400421012280F850104FF4807540F29D
:103C58000111A0F84A70C264A0F8522080F85520DB
:103C6800A0F85650A0F8581040F2032084F83430D9
:103C7800E784A562A08584F82E2084F8302084F893
:103C88003330C4F83A30C4F83E30C4F84230A4F8AF
:103C98004610A4F8481003B0F0BD00BF2803002068
:103CA800F81E0108F7B50546AF4CB04A05F11106F4
:103CB800014637016846FFF779FFB81C2744694673
:103CC8002044FDF76FFB7B7AA94A052B88BF0223A6
:103CD80004EB061088BF7B721188437A41FA03F31C
:103CE800DF070FD40223437261B14807C1F3800391
:103CF80008D441FA03F7FF07D8B240F1D18104EBA9
:103D08000613587204EB05112B0191F81A010528C6
:103D180002D9002081F81A01E718508897F81A117B
:103D280040FA01F1C90711D4012187F81A1168B1C5
:103D38008707C0F3400109D440FA01FC1CF0010FC9
:103D4800CFB200F0B281E11881F81A71E11891F848
:103D58001B01032802D9002081F81B0104EB061679
:103D6800717A012903D9042901D000219180E6182C
:103D7800908896F81B1140FA01F111F001010ED15B
:103D880086F81B1158B110F0010108D140FA01F76B
:103D9800FF07CEB240F18E81234483F81B611423C0
:103DA80003FB054191F84A00052802D9022081F851
:103DB8004A0003FB054393F84B10042902D900215C
:103DC80083F84B10142303FB0543918E93F84B00A3
:103DD80041FA00F0C00712D4012083F84B0071B1FA
:103DE8008807C1F340030AD441FA03F6F707D8B2AB
:103DF80040F16581142303FB054383F84B0014232A
:103E080003FB054393F84C10032902D9012183F8D9
:103E18004C10142000FB0540D18E90F84C3041FA2C
:103E280003F313F0010310D180F84C3069B111F09D
:103E380001030AD141FA03F6F607D8B240F14481EA
:103E4800142303FB054383F84C00142303FB0543A9
:103E580093F84E10012902D9002183F84E1014203E
:103E680000FB0540118F90F84E3041FA03F313F030
:103E7800010310D180F84E3069B111F001030AD165
:103E880041FA03F6F707D8B240F12381142303FB64
:103E9800054383F84E00142303FB054393F84F10A2
:103EA800022902D9002183F84F10142000FB054095
:103EB800518F90F84F3041FA03F313F0010310D1FA
:103EC80080F84F3069B111F001030AD141FA03F6C5
:103ED800F607D8B240F10281142303FB054383F8A7
:103EE8004F00142303FB054191F84D00022802D925
:103EF800002081F84D0003FB054393F85010052975
:103F080002D9042183F85010142303FB054191F8CA
:103F18005200012802D9012081F8520003FB054311
:103F280093F85510012902D9012183F8551014235B
:103F380003FB054393F85310022902D9002183F8A3
:103F48005310142000FB0540918F90F8533041FA2C
:103F580003F313F0010318D180F85330A9B111F01D
:103F6800010312D106E000BF28030020F81E010853
:103F7800E404002041FA03F6F707D8B240F1B38011
:103F8800142303FB054383F85300142303FB054163
:103F980091F856000C2802D9002081F8560003FB3E
:103FA800054393F84C10012906D193F84F100229C4
:103FB80004BF002183F84F10142303FB054301219C
:103FC80083F8571040F20111A3F8581094F82630DE
:103FD800052B02D9022384F8263094F82730042BC5
:103FE80002D9002384F82730B2F86C0094F82730FF
:103FF80040FA03F313F0010F804B0ED1012184F82E
:10400800271050B18607C0F3400106D440FA01F7E3
:10401800FF07CEB26CD583F8276094F828100229E0
:1040280002D9002184F8281094F82910022902D90D
:10403800012184F82910B2F86E1094F8292041FA69
:1040480002F212F001020CD184F8292049B111F0D2
:10405800010206D141FA02F6F607D0B24CD583F830
:10406800290094F82A200C2A02D9002284F82A2050
:1040780093F832200C2A02D9002283F8322093F8D0
:104088002B20042A02D9002283F82B2000225C4925
:10409800104611F9014F14F1780F31DA087031E048
:1040A8000133102B7FF425AE2CE6013110297FF463
:1040B80043AE4BE6013110297FF468AE6FE6013359
:1040C800102B7FF491AE9AE60133102B7FF4B2AE39
:1040D800BBE60133102B7FF4D3AEDCE60133102BA3
:1040E8007FF4F4AEFDE60133102B7FF443AF4CE7C9
:1040F800013110298AD190E70132102AAAD1B0E7FC
:10410800782CCBDC0132D2B20C2AC2D13D49002234
:10411800012011F8014F0132022CD2B288BF087079
:10412800042AF6D193F83420012A02D9002283F810
:104138003420354AB2F8701093F8342041FA02F26C
:1041480012F001020CD183F8342049B111F00102B8
:1041580006D141FA02F4E407D0B211D583F834004D
:1041680093F82C20052A02D9032283F82C2093F8EF
:104178002D20032A08D80AD1002283F8342006E02B
:104188000132102AE5D1EBE7022283F82D2093F8BB
:104198002E20022A02D9012283F82E2093F83020FB
:1041A800022A02D9012283F8302093F833200C2AFE
:1041B80002D9002283F83320142101FB0531FF22A4
:1041C80003EB05154FF6FF7081F8512081F8542054
:1041D80083F82F2083F831204FF0FF32C5F81C21D7
:1041E800A5F820011A629A84A1F85A20A1F85C2047
:1041F80083F83500DA861A8703B0F0BD280300205B
:10420800610300206D030020E404002030B5052878
:1042180004D8DFE800F02104261C2126FEE720252B
:104228001F2400210F22144B1A77C21E012A94BFA3
:104238000022012202289870A3F84850A3F84A40A7
:10424800197114D0042811D0012810D0FEE70925CF
:104258006F2400210722E6E71425322400210A22D0
:10426800E1E73525132401211922DCE700209A73A0
:10427800187401229A7630BDCC0200202DE9F7434C
:1042880000F11105A14FA24C2D0105F10209B94415
:1042980006464846FDF7A2F80421804601903D44B1
:1042A8000DEB0100FDF770FF40F20113A4F8523046
:1042B800A4F854306B7A637007EB0613E083C4F8F4
:1042C800088093F81A01C4F814804FF0000884F8A5
:1042D8005180FFF79BFF142303FB0673350193F806
:1042E8004A208C4B13F92230237323766378052BED
:1042F80006D8DFE803F0035356585A5C84F80D805B
:1043080000236376844B617B1B8884F8281003F0B4
:104318000102980748BF42F00202A2855A0742BF2D
:10432800A28D42F00402A285180742BFA28D42F076
:104338001002A285DA0642BFA28D42F02002A285B1
:10434800980642BFA38D43F00803A385002384F891
:104358002A3021B94846FDF761F884F82A003D441F
:1043680095F81B2184F829206AB1E18B02EB02132E
:1043780003EB03230B44E383A3684FF0113101FBE4
:104388000233A360636194F82850E38B6362052DC0
:104398000FD8DFE805F00F3739182D2F0123637385
:1043A800AEE70223FBE70423F9E70523F7E7032336
:1043B800F5E7FEE7A378032B03D8DFE803F003292A
:1043C8002703FEE71825DFF854C184F820501CE9BC
:1043D8000F008CE80F00002384F838300123A387EE
:1043E800A378022B16D0042B44D0012B45D0FEE72E
:1043F8000225E8E7A378022B08D0052B06D0012B6D
:1044080006D0FEE71925DEE70625DCE70C25DAE706
:104418001225D8E74FF00C0840F2E2432846A4F8EA
:104428004C3084F83080FCF75DFB4FF07F51FCF78F
:10443800ADFBFCF7ADFDB4F848204FF47A73B3FB3D
:10444800F2F3A4F84030142303FB0673454593F8B0
:104458005030C0B22CBF4FEA55084FEA5808A4F8AC
:104468004E0084F85080052B31D8DFE803F0093678
:104478002A2D30334FF01808CEE74FF01208CBE75B
:104488004FF416536364002384F8563084F8583088
:10449800142303FB067696F84C20032A03D096F8DB
:1044A8004F30022B02D1012384F85630511E4B4263
:1044B8004B4194F8561084F8573089B1012A0FD12E
:1044C800FEE74FF41643DDE74FF46143DAE74FF4B4
:1044D800E133D7E74FF46133D4E74FF49643D1E79C
:1044E8002378142000FB037393F84C30022B07D178
:1044F800012384F8583021B194F858301BB1FEE7F5
:1045080009B9012AF8D003B0BDE8F08328030020D8
:10451800CC020020CC310108E4040020FC02002079
:1045280002484FF4DE72FF210DF090BB28030020F3
:1045380002484FF4DE71FEF781BF00BF2803002058
:1045480002484FF4DE71FEF765BF00BF2803002064
:1045580008B5FFF7F5FF034B1878BDE80840FFF7EB
:10456800A1BB00BFCC02002038B5FFF7D9FFFEF78A
:1045780079FF04280CD0FFF7D3FFFEF773FF042858
:1045880003D1FFF7DDFF042806D0FFF7C9FF03E0DA
:10459800FFF7D6FF0428EED12F4930482F4C1022C0
:1045A8000DF078FB38B12E49102220460DF072FB31
:1045B80008B1FFF7B5FFA38AB3F5215F28D008D368
:1045C8000025E8B20135FFF721FB0A2DF9D10023B8
:1045D800E3774FF42153A382012522691E491F481E
:1045E80042F642039A424FF010021CBF2361012594
:1045F8000DF050FB70B1184918481022FDF754F817
:10460800184919480822FDF74FF8FFF791FF03E012
:104618000025E2E7002DF8D1E37F104A092B84BF7B
:104628000023E377E17F1420002300FB01440133DA
:1046380094F84C0082F84C000A2B02F11402F6D1CF
:104648000A4C2170FFF75CFA2078FFF72BFB2078E3
:10465800BDE83840FFF712BEFF1E010828030020FE
:10466800101F0108211F0108DA040020CC020020D5
:1046780030B5C01A1628A8BF16206FF00805A84242
:104688009DF80C40B8BF2846A042C8BF20B2C0B2AF
:1046980008701844107030BD07B5084611461A4610
:1046A800162300930023FFF7E3FF03B05DF804FB34
:1046B8000129F7B5054600D9FEE70B4E06EB0113B5
:1046C8001C460F016278F15D03619B780BF032FBA9
:1046D800E3790193A379009322796379E1782846F5
:1046E8000BF04FFB03B0F0BDD04F010838B583681D
:1046F80004466BB1024652F8183BDD6900F1190314
:10470800A847217E20460222BDE838400BF09BBB1B
:1047180038BD000070B58160897A86B0044601B161
:1047280001210BF0E0FA20460BF06FFC20460BF05D
:1047380047FC217BFF2903D0FA2220460BF04CFCD2
:10474800A3685B7A013B042B04D8DFE803F0043E3E
:104758003E414100FEE7E922E12120460BF07AFCC8
:10476800012120460BF009FC962120460BF046FC5F
:10477800382120460BF058FC20460BF05DFCA3685E
:10478800204693F90810FFF7B1FFA3689D7A15B387
:1047980019782046FFF78CFF0022114620460BF0BF
:1047A800BCFA0023009340F2032220464FF6FF7123
:1047B8000BF016FB20464FF6FF710BF038FB204636
:1047C80006B0BDE870400BF0E8BBDB22D721C4E798
:1047D8006F226B21C1E70F4B0F49DE8B0F4B6361D3
:1047E8004CF250330093204619230B220BF040FC67
:1047F8000123CDE903335B23CDE901531023194687
:104808002046009504220BF071FC314620460BF03F
:1048180091FCC1E7CC020020A0860100B04F01083E
:1048280010B504460BF0B9FB20464FF6FF71BDE802
:1048380010400BF0FCBA000038B58168036891F9A4
:104848000810DD69044600F1190300F11802A847B1
:10485800A3689A7A42B11A78012A00D9FEE7044B74
:1048680003EB0213236138BD024B6361FBE700BF12
:10487800D04F0108B04F010810B50A4CA06858B1D4
:10488800236923B9636913B92046FFF7D5FFA368E5
:104898009B7A23B123699868A0F57A7010BD636983
:1048A8009869F9E744310020836810B5044683B15C
:1048B80003691BB943690BB9FFF7BEFFA3689B7A6D
:1048C8001BB12369B3F90C0010BD6369B3F91C006F
:1048D800FAE71846F8E7836810B5044643B1036958
:1048E8001BB943690BB9FFF7A7FF94F9190010BD6D
:1048F8001846FCE710B5C01A9DF80840123080F33E
:104908000500A042C8BF20B2C0B2123B08701844CC
:10491800107010BD07B5084611461A4612230093B9
:104928001B23FFF7E7FF03B05DF804FB0229F7B587
:10493800054600D9FEE70B4E06EB01131C460F0196
:104948006278F15DC3609B780BF069FDE3790193B0
:10495800A379009322796379E17828460BF088FDE2
:1049680003B0F0BD0450010838B5836804466BB144
:10497800024652F8143BDD6900F11503A847217D72
:1049880020462022BDE838400BF0CDBD38BD0000E0
:104998007FB58D7A8160044675B301210BF015FD52
:1049A800012120460BF02CFE012120460BF042FE8F
:1049B800A368204693F90810FFF7D6FFA36820469E
:1049C8001978FFF7B3FF0022114620460BF01AFDB5
:1049D8000023009344F2030220464FF6FF710BF0C8
:1049E80063FD20464FF6FF710BF085FD204604B0AD
:1049F800BDE870400BF010BE03210BF0E6FC20462A
:104A080001210BF0FDFD204601210BF013FEA368E8
:104A1800204693F90810FFF7A7FFA3685E680D4BBF
:104A280023612A462046102386210BF027FE46F6EE
:104A3800E823CDE902535B23CDE900532046102338
:104A4800042270210BF029FE2A46314620460BF03D
:104A58004EFEB8E7F04F010810B504460BF0DCFD38
:104A680020464FF6FF71BDE810400BF044BD000032
:104A780038B58168036891F90810DD69044600F1CA
:104A8800150300F11402A847A3689A7A42B11A786C
:104A9800022A00D9FEE7044B03EB0213E36038BD9A
:104AA800024B2361FBE700BF04500108F04F0108E7
:104AB8002DE9F0478C46BCF1200F11461D46BDF884
:104AC80020E09DF824209DF82830044600D9FEE710
:104AD800052D857100D9FEE736482E0100EB051734
:104AE800805900B9FEE7BE6897F80C80A06026617F
:104AF8003879E071002684F80C8084F8D950A682B1
:104B08004FF001094EFA06F7FF0742BFB4F814A0A8
:104B180009FA06F747EA0A0706F1010648BFA7821D
:104B2800062EEFD1A68A06B9FEE7A0EB0800C0B2B0
:104B3800604528BF6046052DE07530D0012D35D879
:104B480002F1FF35EDB220D0022D19D85D1E032DDC
:104B580010D80C2801D90C25E575E57D854200D9CA
:104B6800E0752046FCF7ECFE002384F8D830A375E6
:104B7800BDE8F087122884BF1223E3750023ECE711
:104B8800042B88BF00230022EBE7022D04D80C2851
:104B980003D90C23E37500E000220023E1E7531E4C
:104BA800022BF9D80828F8D90823F3E72046FCF7A0
:104BB80061FED9E76C31010890F8D8305BB190F804
:104BC800D930074A180102EB03139B681978135868
:104BD80053F821007047837D0E3350F82300704747
:104BE8006C3101082DE9F3419DF824701646402FD9
:104BF80088464FF05B024FF0000104461D4628BF6F
:104C080040270DF023F8904BDB8B23803278A37874
:104C180062F30203A3707178C90001F00801DBB2E6
:104C280003F0070341EA08111943A1707279E37888
:104C380062F30003E370B279637962F386136371F8
:104C480096F90200FCF7DBFAE37860F34703E370B8
:104C5800F279237962F300032371327A62F346030F
:104C680023713279DBB202F0010203F07F0343EAD9
:104C7800C213237132796379C2F3450223F03F03EB
:104C880013436371A37967F34703A3712B78AA7859
:104C9800E3716B7802F01F0203F0070343EAC203D3
:104CA80023726A88637AC2F3451223F03F031343E1
:104CB80063722A79DBB202F0030203F03F0343EA8E
:104CC80082136372AB88C3F38703A3726A79E37AAA
:104CD800C2F3800223F001031343E372AA79DBB223
:104CE80002F07F0203F0010343EA4203E372EA8819
:104CF800237BC2F3C31223F00F03134323732B7ACE
:104D0800AA7AE3736B7A02F01F0203F0070343EAFF
:104D1800C20323746A89637CC2F3451223F03F03FC
:104D2800134363742A7BDBB202F0030203F03F03F0
:104D380043EA82136374AB89C3F38703A3746A7B62
:104D4800E37CC2F3800223F001031343E374AA7BDC
:104D5800DBB202F07F0203F0010343EA4203E3748B
:104D6800EA89237DC2F3C31223F00F03134323758B
:104D78002B8ADB0863756B8ADB08A375AB8ADB08B3
:104D8800E375EB8ADB0823762B8BB3F5C06F4ED225
:104D9800B3F5007F94BF00230123227B63F3051240
:104DA80022736B8BB3F5C06F43D2B3F5007F94BF0A
:104DB80000230123227B63F387122273AB8BB3F5A5
:104DC800C06F38D2B3F5007F94BF00230123227D42
:104DD80063F305122275EB8BB3F5C06F2DD2B3F5D3
:104DE800007F94BF00230123227D63F38712089B71
:104DF80022751F4404F11802BB4220D14FF6FF73FD
:104E080021460DF106000D22ADF80630FDF7A4F994
:104E18002146BDF8063021F80D3F4C22FDF79CF9DC
:104E2800BDF80630A4F8593002B0BDE8F08102237D
:104E3800B3E70223BEE70223C9E70223D4E713F846
:104E4800011B02F8011FD7E7CC02002013B59DF81B
:104E58001040CDE9003413460A460021FFF7C2FE90
:104E680002B010BD13B5144B0288DB8B9A4204467E
:104E78001DD1837803F0F003102B01D0202B18D11B
:104E8800A379A52B15D84FF6FF730DF1060059220B
:104E98002146ADF80630FDF75FF9B4F85900BDF8C2
:104EA8000630C01A18BF0120800002B010BD0120D2
:104EB800FBE70220F9E700BFCC02002030B5374BF2
:104EC800027893F8261061F30302027093F8271012
:104ED80061F30712027093F82810427861F3030215
:104EE800427093F8291061F30712427093F82A1060
:104EF800827861F30302827093F83210827961F349
:104F08000302827193F82B10827861F30712827082
:104F180093F83410C27961F30302C27193F82C102C
:104F2800C27861F30302C27093F82D1061F307127F
:104F3800C27093F82E10027961F30302027142796C
:104F480093F8301061F30302427193F833108279B9
:104F580061F30712827103F1390100F10A0200F1CD
:104F6800160411F9015F02F8015FA242F9D193F822
:104F78004610C27D61F30102C27593F8471061F3D0
:104F88008302C27593F8481061F30512C27593F84D
:104F9800493063F38712C27530BD00BF2803002073
:104FA8000278314BC2F3030230B583F82620027829
:104FB800C2F3031283F827204278C2F3030283F86E
:104FC80028204278C2F3031283F829208278C2F39A
:104FD800030283F82A208279C2F3030283F832207D
:104FE8008278C2F3031283F82B20C279C2F303023A
:104FF80083F83420C278C2F3030283F82C20C278E5
:10500800C2F3031283F82D200279C2F3030283F856
:105018002E204279C2F3030283F830208279C2F34A
:10502800031283F8332003F1390100F10A0200F179
:10503800160412F9015F01F8015FA242F9D1C27D9D
:10504800C2F3010283F84620C27DC2F3810283F8CD
:105058004720C27DC2F3011283F84820C27DC2F303
:10506800811283F8492030BD280300201FB58DF830
:105078000C300123019303AB009313460A46022127
:10508800FFF7B0FD05B05DF804FB0000F0B5224D58
:10509800012385F87230044685B0B0F80900FCF7A2
:1050A800AAFA6867B4F80B00FCF7A5FA1422A867F7
:1050B80004F10D0105F17C00FCF708FB94F921309F
:1050C80085F8913094F8223085F8923004F1230065
:1050D800FFF766FF6E4604F1410304F151071868B3
:1050E8005968324603C20833BB421646F7D10B480B
:1050F8002C2308226946FCF7DBF994F85130A5F80F
:105108006C3094F85230A5F86E3094F85330A5F806
:10511800703005B0F0BD00BFE40400202205002077
:105128002DE9F04792B0DFF890A0244C0DF1080863
:105138004FF0400905460E46174600214A464046AC
:105148000CF084FD9AF8001004EB011122230DF1F4
:105158000A00062201F589718DF80830FCF7A4FAD7
:105168009AF8001004EB011205A892F81A3192F887
:10517800194103F00F0304F00F0444EA031492F8F2
:105188001B3103F00F0344EA0324BDF8103023F465
:105198007F6323F00F031C43ADF81040FFF78EFE2A
:1051A800CDE900893B46324602212846FFF71AFD21
:1051B80012B0BDE8F08700BFCC0200202803002011
:1051C800034B04491A68044801FB02001860704741
:1051D800B80500200D6619005FF36E3C38B50A4A21
:1051E8000A4D13782C78A34203D101332B70287809
:1051F80038BD1470FFF7E4FF6FF0004398423CBFDE
:1052080001342C70F3E700BFB5050020B605002077
:105218000A4A126882600A4A002383808371838164
:105228000384136803615368064A43611368836102
:105238005368C3614EF660230360704778400020CE
:10524800271F0108301F010838B5224D224C0220C3
:10525800FEF7DCFF2846FFF7E3FA2046FFF7FCFBE2
:105268006FF07F012846FFF741FA6FF07F01204673
:10527800FFF77AFBAB6803B9FEE7002128460AF07E
:105288001BFD4FF47A70FEF70FF8012128460AF04B
:105298002AFDAB6828461978FFF70AFAA36803B90C
:1052A800FEE7002120460BF079F84FF47A70FDF7FD
:1052B800FBFF204601210BF088F8A36820461978E7
:1052C800FFF734FB2846FFF7ABFA2046FFF7C4FB8D
:1052D80038BD00BF443100206031002008B590F887
:1052E800203002468BB9FDF76BFF10B982F8210018
:1052F80008BD92F8213001335BB2312B82F821309E
:10530800F6DD012382F82030F2E7FDF759FF18B1E6
:10531800322382F82130EBE792F82130013B5BB26F
:10532800002B82F82130D8BF82F82000E0E7000087
:10533800134B90F820201B68CAB182689B1AB3F5FA
:105348007A6F01D9012343710379ABB10D4B427BCD
:105358001B781AB1022B1CBF032202739A1E5342F8
:1053680053414373837953B10323037370478360B5
:10537800EAE701230371F8E74379002BF9D1704775
:10538800784000208D0600200346007B821E012AFB
:105398004FF0000202D893F8201009B91A73704729
:1053A8001046704770B51B4C1B4E05465B2200210A
:1053B80020460CF04BFC2B6923606B696360174B2C
:1053C800174D1B7831789A1E53425341627A05EB88
:1053D800011163F30002627201F58971062204F17A
:1053E8000A00FCF761F9337805EB0315237C95F87F
:1053F8001A2162F30713237495F81B21637C592142
:1054080062F3030320466374FCF7BEFEA4F8590058
:1054180070BD00BFA1310020CC0200208D06002005
:10542800280300200A4A38B5138801339BB2502B51
:1054380004460D4601D8138038BD00230549138062
:10544800FDF7F6FB29462046FDF7F2FBF4E700BF1F
:105458009C0A0020582001082DE9F84F15460446FB
:105468000F466B496B4EFDF7E3FB29462046FDF7D7
:10547800DFFB694B0022012F1A800FD11023B36282
:10548800082746F2A810B761FDF70EFFB762FDF7CF
:105498000BFF29462046FFF7C5FFF2E7BB1E08228F
:1054A8000C2B00F2A880DFE803F03141521C07A65C
:1054B800A6A6626262626200564E4FF00808102784
:1054C800C6F8188046F2A810B762FDF7EDFEC6F8D8
:1054D8002880B761FDF7E8FE29462046FFF7A2FFBE
:1054E800EDE74C4E4FF008081027C6F8188046F232
:1054F800A810B761FDF7D8FEC6F82880B762FDF797
:10550800D3FE29462046FFF78DFFEDE7B262414EF4
:10551800102746F2A810B761FDF7C6FEB762FDF77F
:10552800C3FE29462046FFF77DFFF2E71023B3614B
:10553800384E082746F2A810B761FDF7B5FEB762E6
:10554800FDF7B2FE29462046FFF76CFFF2E7B2618D
:10555800304E102746F2A810B761FDF7A5FEB762D6
:10556800FDF7A2FE29462046FFF75CFFF2E7A7F108
:10557800090BDFF8A0805FFA8BFB00264FF0080AC2
:105588005E453CBF1023C8F818304FF0040946F2B6
:10559800A810C8F818A0FDF787FEC8F828A0FDF7DE
:1055A80083FE09F1FF3929462046FFF73BFF19F032
:1055B800FF09ECD11023C8F828304FF0040946F24F
:1055C800A810C8F818A0FDF76FFEC8F828A0FDF7C6
:1055D8006BFE09F1FF3929462046FFF723FF19F032
:1055E800FF09ECD10136A7F10803F6B2DBB2B342EA
:1055F80038BF0026C4E71023B261B3614CF25030C3
:10560800FDF752FE29462046FFF70CFFF6E700BFDC
:1056180058200108000400489C0A002073B50E4673
:1056280015461C460DF106020DF1070158B90B4845
:105638000AF062FC9DF806100848234632460AF034
:105648000CFB02B070BD06480AF0CAFF9DF80610B0
:10565800034823462A460AF07BFEF2E7443100203D
:1056680060310020F8B5184F16461C460D46FDF768
:10567800F8FC384633460A4600210AF0C7FA38468D
:105688004FF6FF710AF0D3FBA10138460F4F0AF01D
:10569800E7FB7D20FDF708FEFDF732FD384633466F
:1056A8002A4600210AF02DFE38464FF6FF710AF00F
:1056B80022FF2201384692B201210AF044FFBDE8D8
:1056C800F8407D20FDF7F0BD443100206031002016
:1056D80037B50C4698BB2F48836833B9812281F8C7
:1056E8008C2081F88E3003B030BD9D7ADDB101F198
:1056F8008E020DF106010AF0E9FB94F98E30002BB9
:1057080004DABDF806201344ADF80630BDF90630BA
:10571800002B0FDB4FF6FF73ADF80630BDF80630EF
:1057280084F88C30DFE70DF106010AF014FD84F8E7
:105738008E50EBE77F33F1DA4FF68173ECE71648CA
:1057480083682BB9812281F88D2081F88F30CAE7D0
:105758009D7A95B101F18F020DF106010AF01DFF46
:10576800BDF90630002B0FDB4FF6FF73ADF806309E
:10577800BDF8063084F88D30B5E70DF106010AF062
:10578800ECFF84F88F50EBE77F33F1DA4FF6817343
:10579800ECE700BF443100206031002070B5114CA7
:1057A8000D4606465B23224621462846FFF736FF6C
:1057B800D6E90613206862689A4208BF88420ED16B
:1057C80020465921FCF7E0FCB4F85940231A5C4202
:1057D8005C4128460449FFF77BFF601C70BD00242C
:1057E800F7E700BF8B2F00209C3000200A4608B541
:1057F80001460148FFF730FE040000200023037033
:105808008370437003714371C3707047037800223B
:10581800022B427104D0032B09D0012B16D0FEE7CE
:1058280001230371437183784370C3707047837891
:105838004278991AA3EB020218BF012112F0060F51
:1058480014BF0122002201714271EDE70271704715
:1058580002788170002A0CBF022203220270FFF72F
:10586800D5BF000010B5437802789A421BD0052BAB
:105878008ABF052303700370027888BF43700A4B00
:105888000A4813F922100A4C83682173217613B150
:105898001972FEF72BFF0748836823B194F9181093
:1058A8001972FFF761F810BDCC31010844310020AE
:1058B800CC0200206031002010B50AB9437010BD39
:1058C800541E0B2CFBD80332D2B231F8122040F20E
:1058D8007E618A4203D95AB222EAE2721AE0B2F52C
:1058E800C17F02D29A1E52B2F6E740F2A9518A420B
:1058F80004D95AB2052A1CDCDA1EF4E740F2562114
:105908008A4218D940F2D4418A4208D95AB2042AA4
:10591800F2DD02229A42C8BF5AB24270CFE7B2F50E
:105928004B7F04D25AB2032AE6DD0122F2E75A1E5F
:10593800D9E70322EEE70022ECE70000074B282214
:1059480002FB00339B681A78542A05D15878A0F1D5
:10595800780358425841704700207047E4310108E5
:10596800074B282202FB00339B681A78522A05D17C
:105978005878A0F178035842584170470020704782
:10598800E4310108074B282202FB00339B681A7890
:10599800542A04D15878783818BF0120704701205C
:1059A800704700BFE431010828230B4A434310B570
:1059B800D1580446FFF7D4FF48B92046FFF7BEFF89
:1059C800064B1B7828B103EB830301EB83010846E0
:1059D80010BD01EB0311FAE7E4310108CC02002005
:1059E8002B2838B505461AD80E4B282202FB00335F
:1059F8004CB21B79022B0DD0FE2B10D1FFF7D4FF30
:105A08000378E4B2A3420AD004702846BDE83840BF
:105A1800FFF7B8BFFFF7C8FF90F90030F2E70020A2
:105A280038BD00BFE43101082B2838B504460D46BF
:105A380019D80E4B282202FB00331B79FF2B12D1F9
:105A4800FFF7B2FF06222946FBF753FE58B9204656
:105A5800FFF7AAFF29460622FBF738FE2046BDE8D5
:105A68003840FFF78FBF002038BD00BFE431010880
:105A78002DE9F043074615462820394A4143501876
:105A8800012B046A87B025D15258364B9A4235D03B
:105A9800A3F1CE018A4233D03349F23B9A4208BF80
:105AA8000C46FF238DF800304FF0000801262046F1
:105AB800FAF768FB5FFA88F9484529D806F1180310
:105AC8006B44AE4203F8188C30D80020387007B009
