:020000040800F2
:10000000008000203DCC000815CC000817CC00086B
:1000100019CC00081BCC00081DCC00080000000013
:100020000000000000000000000000001FCC0008DD
:1000300021CC00080000000023CC000825CC0008DB
:100040008DCC00088DCC00088DCC00088DCC00082C
:100050008DCC00088DCC00088DCC00088DCC00081C
:100060008DCC00088DCC00088DCC00088DCC00080C
:100070008DCC00088DCC00088DCC00088DCC0008FC
:100080008DCC0008000000008DCC00088DCC00084D
:10009000CD0801088DCC00088DCC00088DCC00085F
:1000A0008DCC00088DCC00088DCC00088DCC0008CC
:1000B0008DCC0008CD3000088DCC00088DCC000818
:1000C0008DCC00088DCC00088DCC00088DCC0008AC
:1000D0008DCC0008E92C0008615D00088DCC00087B
:1000E00091B400088DCC00088DCC00088DCC0008A0
:1000F0008DCC00088DCC00088DCC000800000000DD
:10010000000000008DCC0008000000008DCC00082D
:100110008DCC0008000000008DCC00088DCC0008BC
:100120008DCC00088DCC00088DCC00088DCC00084B
:100130008DCC000800000000000000008DCC0008FD
:100140008DCC00088DCC00080000000000000000ED
:10015000000000000000000000000000000000009F
:100160000000000000000000000000008DCC00082E
:100170008DCC00080000000000000000000000001E
:10018000000000008DCC000800000000000000000E
:10019000000000000000000000000000000000005F
:1001A00000000000000000008DCC0008392A000883
:1001B0008DCC00088DCC00088DCC0008000000001C
:1001C000000000008DCC00080000000000000000CE
:0801D0008DCC00088DCC000865
:1001D80010B5054C237833B9044B13B10448AFF379
:1001E80000800123237010BDB80300200000000028
:1001F8009828010808B5034B1BB103490348AFF31E
:10020800008008BD00000000BC03002098280108F9
:1002180010F8012B11F8013B012A28BF9A42F7D0A8
:10022800D01A7047034613F8012B002AFBD1181A7D
:100238000138704753B94AB9002908BF00281CBFC4
:100248004FF0FF314FF0FF3000F070B9ADF1080CFE
:100258006DE904CE00F006F8DDF804E0DDE90223DC
:1002680004B070472DE9F047089E0D4604460F4636
:10027800002B4AD18A42944665D9B2FA82F343B137
:1002880002FA03FCC3F120029F4020FA02F217434E
:100298009C404FEA1C4E1FFA8CF5B7FBFEF1220C6E
:1002A8000EFB117742EA074201FB05F090420AD99A
:1002B8001CEB020201F1FF3780F01C81904240F2F2
:1002C800198102396244121AA4B2B2FBFEF00EFB85
:1002D800102244EA024400FB05F5A5420AD91CEBAA
:1002E800040400F1FF3280F00781A54240F2048146
:1002F8006444023840EA0140641B00211EB1DC401E
:100308000023C6E90043BDE8F0878B4208D9002ED8
:1003180000F0ED800021C6E900050846BDE8F08739
:10032800B3FA83F1002949D1AB4202D3824200F2E9
:10033800F880841A65EB030201201746002EE2D0EC
:10034800C6E90047DFE702B9FFDEB2FA82F3002B05
:1003580040F090808A1A4FEA1C471FFA8CFE012150
:10036800B2FBF7F507FB1520220C42EA00420EFB10
:1003780005F0904208D91CEB020205F1FF3802D2C1
:10038800904200F2CB804546121AA4B2B2FBF7F0B5
:1003980007FB102244EA02440EFB00FEA64508D9DA
:1003A8001CEB040400F1FF3202D2A64500F2BB8028
:1003B8001046A4EB0E0440EA05409FE7C1F1200770
:1003C8008B4022FA07FC4CEA030C05FA01F420FAE8
:1003D80007F3FD404FEA1C492343B5FBF9F81FFA20
:1003E8008CFE09FB18551C0C44EA054408FB0EF565
:1003F800A54202FA01F200FA01F00BD91CEB040441
:1004080008F1FF3A80F08880A54240F28580A8F183
:1004180002086444641B9DB2B4FBF9F309FB13445E
:1004280045EA044403FB0EFEA64508D91CEB040468
:1004380003F1FF356CD2A6456AD9023B644443EA0E
:100448000843A3FB0295A4EB0E04AC42C846AE4693
:1004580056D353D056B1B0EB080264EB0E0404FA3D
:1004680007F7CA40CC401743C6E900741846002174
:10047800BDE8F087C3F1200102FA03FC20FA01F27B
:1004880025FA01F19D402A434FEA1C471FFA8CFECA
:10049800B1FBF7F007FB1015110C41EA054100FB11
:1004A8000EF58D4204FA03F408D91CEB010100F1A2
:1004B800FF382FD28D422DD902386144491B92B2A0
:1004C800B1FBF7F507FB151142EA014205FB0EF1F6
:1004D800914208D91CEB020205F1FF3816D291426D
:1004E80014D9023D6244521A45EA004138E73146C0
:1004F800304608E73946E6E61046FBE64845A9D205
:10050800B9EB020865EB0C0E013BA3E74546EAE7A9
:100518002B4694E74046D1E7D0467BE7023D62444C
:1005280032E708460AE76444023842E7704700BFEA
:100538000022427082700122C270B1FA81F1022257
:1005480049090271032201704271704743788B4256
:100558001FD0012941700AD0022910D0C1B9012346
:10056800C3708170022303710323437170470378BA
:1005780043B1012383700223C3700023F3E7037898
:10058800002BF6D0022383700023C3700123EAE70F
:10059800FEE7704782B00B88ADF800304B88ADF8A5
:1005A80002308B88ADF80430CB88ADF806300239BC
:1005B800431C053013F8012F0DF1080C0CEB420217
:1005C800834232F8082C21F8022FF3D102B0704789
:1005D80010B50C461146FFF7B9FF2146BDE810409B
:1005E800FFF7D8BF0B4B10B54FF07F32C0E923237C
:1005F8004FF47F43A0F89430FF23044680F89630E8
:10060800983000F0EDFC002384F8A43084F8A8307A
:1006180010BD00BFFFFF7F0013B504461146CDE9AA
:10062800002300F04AFC009904F1140000F045FC96
:10063800009904F1280000F040FC009904F13C0006
:1006480000F03BFC009904F1500000F036FC0099E2
:1006580004F1640000F031FC009904F1780000F026
:100668002CFC019A4FF4FA734FF4FA6104F19800E4
:1006780000F0A1FC2046FFF7B5FF002384F8A53061
:100688004FF47F43A4F8A63002B010BD022380F8CF
:10069800A8307047704700F017BC143000F014BC45
:1006A80008B5503000F01AFC292200F11403B3FBFE
:1006B800F2F313F0FF0302D1031E18BF01231846FB
:1006C80008BD08B5643000F009FC292200F11403C4
:1006D800B3FBF2F313F0FF0302D1031E18BF01238B
:1006E800184608BD90F8903013B990F98C007047FF
:1006F80090F98D00704790F8903013B990F98E00FA
:10070800704790F98F00704710B504460AF0E2FF71
:1007180050B194F8A83043B904F13C0000F0D8FB7C
:10072800012838BF0120C0B210BD6420FCE790F852
:10073800A83013B990F89300704764207047783058
:1007480000F0CEBB783000F0D3BB10B5044600F003
:1007580095FB04F1140000F091FB04F1280000F06F
:100768008DFB04F13C0000F089FB04F1500000F01F
:1007780091FB04F1640000F08DFB04F1780000F0B7
:100788008FFB94F8A83013B1013B84F8A83010BD52
:100798007F2807D0002807DA10F1800F06D04042E2
:1007A800C0B2704700207047012070477F20704713
:1007B80010B1404240B270477F2070477F280FD069
:1007C80010F1310F0EDA10F1780F0DDB7830FE23BF
:1007D80040B2584323304623B0FBF3F0C0B2704711
:1007E800FF207047FE20704700207047012805DD74
:1007F80040F2FE73984203DC80B2704701207047D4
:1008080040F2FF707047A0F57870C0EBC02040F24E
:10081800AE7390FBF3F000F58060FFF7E7BFFFF7DA
:10082800F2BF032812DD0C2812DD0F2812DD122872
:1008380012DD162812DD192812DD1C2812DD1F28EA
:1008480012DD2128CCBFFF2006207047002070470A
:100858000120704702207047082070470320704726
:1008680007207047042070470520704705289ABF65
:10087800014B185CFF2070470829010805289ABF1A
:10088800014B185CFF2070470E2901087F2803D010
:10089800002803DAC0B2704700207047FF20704775
:1008A8007F2811D010F1320F10DA884210DD401A7B
:1008B8006423C1F1FF21584301F57F01CE31313066
:1008C80090FBF1F0C0B27047FF207047642070477A
:1008D80000207047014B4140585C704714290108BB
:1008E8005AB110B4054C0A4411F8013B58408A42E9
:1008F800205CF9D15DF8044B704770471429010852
:10090800392808D822280ED9094B2338C0B2C34049
:1009180003F0010070475F2807D0613819288CBFA1
:10092800002001207047002070470120704700BF59
:1009380001EC7F00F8B50246451E461D00245F27DE
:1009480015F8010FFF2804BF0134E4B2FFF7D8FF00
:1009580000B92F70AE42F3D1062C04D119B10B683F
:1009680013608B88938000239371F8BD2DE9F843B9
:10097800DFF83490471E441D012500264FF0280853
:1009880017F8011F084811F024FF034610B1A0EB27
:100998000903DBB2A3FB05329E19A742A5FB085346
:1009A800EED13046BDE8F883142A010810B5417924
:1009B800A1F13000C3B2092B07D80523B0FBF3F32C
:1009C80003EB8303C01AC0B210BD044C204611F0DB
:1009D80000FF0028F1D0001BC0B2EEE7142A01087E
:1009E800F0B5094B094F821D2826B1FBF3F4272CDB
:1009F80094BF3D5D302502F8015D824203FB14116E
:100A0800B3FBF6F3F1D1F0BD00801A06142A0108F1
:100A180070B50446FFF706FC02B20023551E18B253
:100A2800A84204FA83F104DA265C302E03F10103AC
:100A3800F5D0121A01322046BDE8704011F098BE78
:100A48002DE9F047432B28BF432396B00C461546A3
:100A580000211A469846074611F0A4FE00214122BB
:100A680005A8049111F09EFEDFF87C90DFF87CA0C9
:100A780004EB4505AC4210D104A8FFF7D3FB28B11D
:100A880000F158036B44002203F8492C04A93846A6
:100A980011F0E8FE16B0BDE8F08734F9020B47F60E
:100AA800FF739842E8D0002812DC5146684611F0DE
:100AB800D9FE04A8FFF7B6FB06466846FFF7B2FB67
:100AC8000644B045D6D3694604A811F073FED1E7B1
:100AD800694680B210F0CDF96846FFF799FF49469C
:100AE800684611F067FEE4E701290108FC280108BF
:100AF800F0B589B06D4600242F468E1CE1B28A42BB
:100B080004D83946FFF79CFF09B0F0BD36F8241029
:100B180025F8021B0134F1E742F210736421B0FB9F
:100B2800F3F203FB1200B0FBF1F301FB130000EB3F
:100B3800023000EB831080B27047020B00F03F03D5
:100B480042F2107101FB0233C0F38510642202FBEC
:100B5800003070472DE9F04142F2107388B0B1FBC4
:100B6800F3F603FB16141F49DFF87C80054611F0E5
:100B780079FE6946F0B210F059F96846FFF748FF68
:100B88006946284611F016FE4146284611F012FE25
:100B980064276946B4FBF7F6F0B210F047F96846E7
:100BA800FFF736FF6946284611F004FE07FB164496
:100BB8004146284611F0FEFD6946E0B210F036F9CC
:100BC8009DF801308DF800309DF802308DF8013025
:100BD8006946002328468DF8023011F0EBFD08B075
:100BE800BDE8F081EA3901080629010870B50E460A
:100BF80000210546144611F0D5FD00239AB294420F
:100C080000D870BDF25C002AFBD0EA540133F5E746
:100C180070B50E46144600210132054611F0C2FD9A
:100C280000239AB2944200D870BDF25C002AFBD02F
:100C3800EA540133F5E730B50024A3B2934201D357
:100C4800012005E0055D0B5D1DB9B3FA83F040098D
:100C580030BD1BB19D4204F10104EED00020F7E73E
:100C68007D23438043F2390309B2C3600023018026
:100C78008180C3800372704702680449044B01FBFA
:100C8800023323F000430360180C7047FD43030050
:100C9800C39E2600F0B5002597B001608580044604
:100CA80056222946684611F07DFD0126627CAA423B
:100CB80009D80023802104F1B400237417B0BDE8DB
:100CC800F04011F06FBD2046FFF7D6FFE7797B1B98
:100CD800002190FBF3F202FB1300C0B2EC460A4677
:100CE800CBB29F421DD80023227B9A42DED0A27944
:100CF800033A012A04EB050105D925B191F9112020
:100D0800D2B9012BD2D98B74A26852F82310583368
:100D180004EB85026B440135516303F8586CEDB25E
:100D2800C4E71CF801EBBEF1000F03D18242DBD00F
:100D38000132D2B20131D3E7501E8342E3DB0132E4
:100D48009342E0DCB2E700002DE9F04F154697B07A
:100D5800013D0160027104464371EDB25622002143
:100D680068469946002711F01DFD022D84BF4FF0FB
:100D7800010A00253E4694F807809CBF4FF0030AFD
:100D8800B8FBFAF8627CB24209D80023802104F14A
:100D9800B400237417B0BDE8F04F11F003BD20462E
:100DA800FFF76AFFA8EB060390FBF3F202FB1303BD
:100DB8000020DBB2EC460246C1B2884506D91CF8D1
:100DC80001EBBEF1000F1BD19A4217D1414528BF54
:100DD8004146227B01FB0A5303F0FF039A42D1D01C
:100DE800A0680FFA83FC09F1FF3E50F82C20BEF1F1
:100DF800030F0DD8DFE80EF0062124270132D2B206
:100E08000130D9E7DFF864E09644174A9645B9D926
:100E180016B10FBB0129B5D9A2190F46937404EB7B
:100E2800860350F82C205A6301F1580301226B44C1
:100E3800164403F8582CF6B2A4E7DFF834E0E3E7E9
:100E4800DFF830E0E0E7A2F53D02DFF82CE0A2F59C
:100E58009D42443A7245DAE77A1E9142DCDB7A1CFD
:100E68009142D9DC8EE700BF3BB10100C54E47FF78
:100E7800776245FF287643FF3CB10100D0E90123A2
:100E88006421D31AC36082604B43418AB3FBF1F3F8
:100E980003747047D0E90123D31AC0E902237047CD
:100EA80043682BB1C26864214A43B2FBF3F2D3B260
:100EB80003740023C360436070470023C0E9023312
:100EC800418243600374704743680133436070474D
:100ED800007C70474368194441607047C068704798
:100EE80011B1C3680133C36043680133436070477D
:100EF800007C7047052800D9FEE7014B185C704755
:100F0800642A010800230380837080F82930704721
:100F180003781BB10022027018467047437813B15A
:100F280000224270F8E7837813B100228270F3E759
:100F380090F82930002BEFD0002280F82920EBE729
:100F4800017070470170704781707047817042600E
:100F5800704740687047083070470023436003813A
:100F680070470A2310B50446838002F06FF823689F
:100F7800E0809B6820469847208110BD038970B5A2
:100F880004469BB1858845B1013DADB285806DB9F8
:100F980003681B68BDE87040184702F057F8E388FB
:100FA800C01A238980B2834201D2258170BD23688B
:100FB80020465B68EEE707EE902A0A44F8EE676A77
:100FC80007EE902AF8EE677A436086EEA77A07EE76
:100FD800903AF8EEE77A80ED007AC0ED027A704731
:100FE800D0ED017AF8EEE77AC0ED027A704700009A
:100FF80080EAE073022910B5A3EBE07304467DD1C3
:1010080062B90028ACBF7F223F229342A8BF134693
:10101800002C184601DA43F0400010BD012A1FD108
:10102800632B05DC5800002CF7DA40F48070F4E7F5
:1010380040F2F542934211DC07EE903A9FED6A0ABE
:10104800F8EEE77A27EE800A10F086FBFCEEC07A0D
:1010580017EE900A400040F00100E4E7FF20E2E7C5
:10106800022A40F0BF80632B05DC9800002CD4DAFC
:1010780040F40070D1E7B3F57A7F11DA07EE903AC1
:101088009FED590AF8EEE77A27EE800A10F064FB24
:10109800FCEEC07A17EE900A800040F00100E5E708
:1010A80042F20F72934211D807EE903A9FED4F0A21
:1010B800F8EEE77A27EE800A10F04EFBFCEEC07AD5
:1010C80017EE900A800040F00200CFE7484A9342AA
:1010D80011D807EE903A9FED470AF8EEE77A27EE27
:1010E800800A10F039FBFCEEC07A17EE900A8300F4
:1010F80043F00300BAE740F2FF10B7E7032971D1C4
:10110800012A20D1B3F57A7F05DA5800002C84DA59
:1011180040F4006081E7B3F5205F11DA07EE903AFA
:101128009FED310AF8EEE77A27EE800A10F014FBFB
:10113800FCEEC07A17EE900A430043F00100E5E7A1
:1011480040F2FF70E2E7022A4CD1B3F57A7F06DA63
:101158009800002CBFF661AF40F480505DE742F282
:101168000F72934211DC07EE903A9FED1F0AF8EEDA
:10117800E77A27EE800A10F0EFFAFCEEC07A17EE55
:10118800900A830043F00100E3E71B4A934211D819
:1011980007EE903A9FED150AF8EEE77A27EE800AF7
:1011A80010F0DAFAFCEEC07A17EE900A830043F0EA
:1011B8000200CEE7B3F57A2F11D207EE903A9FEDF1
:1011C8000D0AF8EEE77A27EE800A10F0C5FAFCEE71
:1011D800C07A17EE900A830043F00300B9E740F69F
:1011E800FF70B6E7002018E7CDCCCC3D0AD7233CEA
:1011F80017F001006F12833A9F86010000230360F5
:101208007047000038B5084B09291B7828BF092109
:101218008B4204460D4602D10023036038BD01F01D
:1012280009FF25712060F9E7D4030020036810B591
:1012380004460BB9002010BD01F0FCFE2368C01A5B
:1012480040F2EE239842F5D90023054A236012782C
:1012580023799A42EED0034A0120D377EBE700BF07
:10126800D403002030040020FF23437100230171C0
:10127800837103818372704738B5037904460D463C
:101288005BB14179A94208D041B101290AD00023B4
:10129800A371657155B1012D0FD038BD03689B68E6
:1012A8009847F4E703680021DB68F9E723689B683F
:1012B800012120469847A071EFE723682946DB689B
:1012C800F7E72DE9F04F2DED068B85B0837B077C82
:1012D8000093C37B009A857CC67C90F815C090F873
:1012E80020E090F82280BF000C4647EA931703F0ED
:1012F8003F01437C490141EAD20103F0010247EA78
:10130800822705F00F02D20142EA530206F07F035A
:101318001B0143EA1513057D01936D0045EAD615B7
:101328000CF0030645EA4623867D029206F01F0567
:10133800AD0108EE103A45EA9C03C57D90F819C046
:101348000391ED0008EE903A45EA5613057E0CF03D
:10135800070609EE103A45EA0623857E05F03F06A2
:10136800760109EE903A46EADC03C67E90F81CC086
:10137800B60046EA95160CF0010546EA8526457F33
:1013880005F00F0B4FEACB1B4BEA5C0B90F81EC025
:101398000CF07F0A4FEA0A1A4AEA151AC57F6D004F
:1013A80045EADC150EF0030C45EA4C2590F821C0FF
:1013B8000AEE103A4FEAC808009B48EA5C180CF09D
:1013C8001F0990F80DC003F007004CEA00204FEA0F
:1013D800891949EA9E09FFF716FA039920800846F9
:1013E800FFF711FA60803846FFF70DFA029AA080DD
:1013F8001046FFF708FA019BE0801846FFF703FA4A
:10140800208118EE100AFFF7FEF9608118EE900AA5
:10141800FFF7F9F9A08119EE100AFFF7F4F9E08156
:1014280019EE900AFFF7EFF920821AEE100AFFF77B
:10143800EAF960823046FFF7E6F9A0825846FFF7DE
:10144800E2F9E0825046FFF7DEF920832846FFF7ED
:10145800DAF960834846FFF7D6F9A0834046FFF7DC
:10146800D2F94FF48063E0832384638405B0BDEC34
:10147800068BBDE8F08F2DE9F04104460F4601F0D8
:10148800E5FD4FF001080546236820461B6898478C
:10149800064650B9A37A012B1FD12389ED1A40F6CD
:1014A800C4139D42C8BFA07217E0236820465B683A
:1014B8009847A37AA3B90F2814D1A4F80A80E37A2D
:1014C800E2180133DBB2182B1073E3720AD93946DC
:1014D8002046FFF7F6FE0023A3723046BDE8F081F0
:1014E800012BECD02581CFE7827922B14379012BFA
:1014F80001D8FFF7C0BF002070477047704770479A
:1015080000207047704700207047002070477047E0
:101518000020704700207047054BDA6C0243DA64FC
:10152800DB6C82B003400193019B02B0704700BF9F
:1015380000100240054B9A6D02439A659B6D82B07C
:1015480003400193019B02B0704700BF00100240A6
:10155800054B1A6E02431A661B6E82B00340019354
:10156800019B02B0704700BF0010024050E8003FE6
:1015780043F0200340E80032002AF7D1704750E8D2
:10158800003F43F0800340E80032002AF7D170475B
:1015980050E8003F23F0200340E80032002AF7D14A
:1015A800704750E8003F23F0400340E80032002A2B
:1015B800F7D1704750E8003F23F0800340E800323D
:1015C800002AF7D1704770470288044B5140C9B2CE
:1015D80033F8113083EA1223038070472859010831
:1015E800A2B110B4B0F800C0094C0A4411F8013B8C
:1015F80083EA0C03DBB2914234F8133083EA1C2CE3
:10160800A0F800C0F2D15DF8044B7047704700BFE6
:101618002859010837B54FF6FF730446ADF8063070
:101628004518AC4203D1BDF8060003B030BD14F82C
:10163800011B0DF10600FFF7C7FFF2E77047000036
:10164800044B1888044B1B8880B29BB2C01A18BF81
:10165800012070473239002030390020044B1888A7
:10166800044B1B8880B29BB2C01A18BF0120704778
:101678003A43002038430020044A00231380044AD8
:101688001380044A1380044A1380704738430020AB
:101698003A4300203C4500203E4500200120704789
:1016A800704700000649074A0B8812880133C3F3C4
:1016B800080392B29A421EBF034AD0540B80704767
:1016C8002A35002028350020283300200023A0F8E0
:1016D8007032A0F86E3270470023A0F85C32A0F890
:1016E8005A327047454B5A6A037A92B263B183897A
:1016F800D31A9BB2B3F5FA7F84BF00230372837AAF
:101708004F2B84BF00230372037A8281082B22D8CF
:10171800DFE803F0052121212121262E390090F848
:1017280008345BB9EE2901D0C82902D1012380F819
:101738000834EC2904BF022380F8083490F80834F0
:10174800012B09D1EE2901D0C82904D101238372C4
:101758004175062303727047022BFCD1EC29F4E78C
:10176800837A5A1C03448272597541720723F1E740
:10177800827A531C0244DBB283725175427A9A42D0
:10178800E9D20823E6E7837A5A1C03448272597522
:10179800C37D162B04D1012380F865300923D9E7CE
:1017A8004369174A03F0FF23934203D1012380F8CA
:1017B8006730F3E7134A93421CD1837E102B19D16B
:1017C800C37E022B08D0052B0DD0012BE6D1027E5B
:1017D800EE2A08BF80F86A30037EEE2BDED10123A3
:1017E80080F86B30DAE7012380F86830037F80F8EF
:1017F8006930D3E7012380F86630CFE70004004062
:1018080000C8002800C80032044B1888044B1B8805
:1018180080B29BB2C01A18BF012070472A35002039
:10182800283500200278024B51405B5C03707047FA
:10183800A0440108FF230370704700BF7047B0F849
:101848006E32B0F870229B1A98B21B0444BF00F5A0
:10185800006080B2003818BF01207047A0F1140062
:10186800EDE7B0F87032B0F86E229A421FBFC21886
:10187800B0F8721292F87422013316BF0B4000229E
:10188800A0F8703210467047A0F11400E9E770B56F
:101898000B7803704B7843700B78FD2B05460C468C
:1018A80038D18B788370CB78C3700B7903714B79FF
:1018B80043718B7983718B68C3718B68C3F30F2372
:1018C80003728B7A43720A26627804F10C01A81914
:1018D80010F0D0FF6378B4F80C213344981CEA5414
:1018E8005A1CB4F80C1192B2090AA954A278D2076A
:1018F80080B20ED504F58872054404F58E7452F84A
:10190800041B45F8041BA242F9D112782A700F3340
:1019180098B270BD00238B700B7983704B79C370BC
:101928008B7903718B6843710626CDE738B54A7801
:10193800352A0D46044601F10C010AD810F09AFF29
:1019480068780021C0F136022044BDE8384010F024
:1019580029BF403551F8043B40F8043BA942F9D16E
:101968000B88038038BD38B54A781B2A0C460546D3
:1019780001F10C010AD810F07DFF60780021C0F158
:101988001C022844BDE8384010F00CBF283451F838
:10199800043B45F8043BA142F9D138BD38B54A7833
:1019A800082A0D46044601F10C010AD810F062FF1E
:1019B80068780021C0F109022044BDE8384010F0E1
:1019C800F1BEEB6803604B6843600B7A037238BD65
:1019D80038B54A78072A0C46054601F10C010AD8A1
:1019E80010F048FF60780021C0F108022844BDE8E3
:1019F800384010F0D7BEE36803604B68436038BDD9
:101A080008B52C220348002110F0CCFE024B00221E
:101A18001A7008BD000E0020B40600202DE9F04120
:101A28001378037092F8018080F80180FD2B04463A
:101A38000F46154654D193788370D378C3701379C1
:101A4800037153794371937983716B7A127A1B040A
:101A580003EB0223EA79134423F07F430A26A268A2
:101A680063F31702A260A919424604F10C0010F0B2
:101A780001FF7A7B904507D208F10C00A2EB08021F
:101A88000021204410F08EFE63781E44AB195A786A
:101A9800AB5D03EB0223A4F80C31A378DB070ED56A
:101AA800023615FA86F304F5887203F10C0153F82F
:101AB800040B42F8040B8B42F9D11B781370BB7AE4
:101AC80084F82131FB7A84F822313B7B84F8233176
:101AD8007B7B84F824313B7884F82031BDE8F081A1
:101AE8000023438093780371D3784371137983710A
:101AF80053790626B3E738B54A78132A0C460546C3
:101B080001F10C010AD810F0B5FE60780021C0F18F
:101B180014022844BDE8384010F044BE203451F87F
:101B2800043B45F8043BA142F9D138BD08461146AB
:101B38000EF009BF0EF00ABE0EF09CBE0EF04EBEAF
:101B480008B50EF0F5FD003818BF012008BD08B52E
:101B58000EF080FE003818BF012008BD0EF0A6BDAB
:101B68002DE9F04F0C465188B1F58C7F054685B0BC
:101B78004FF000000ED31070D91CC9B2012995BFCF
:101B880001210023518053809CBF237011700023D2
:101B98002B7049E016780E2E00F2938001A757F8B3
:101BA80026F000BF811B0008E91B0008111C000873
:101BB800391C0008CB1C0008CB1C0008CB1C0008F3
:101BC800CB1C0008CB1C0008CB1C0008CB1C000851
:101BD800CB1C0008CB1C0008CB1C00084B1C0008C1
:101BE800481C508063542178FD299BB206D10C33E0
:101BF8000A21D380918002231370C8E70833062195
:101C0800D38091800E23F7E7481C50806354D8078F
:101C180042BFD1880D31D180012B4FF000018CBF1C
:101C28000B46032313702970002005B0BDE8F08F20
:101C3800481C5080635400218B4214BF0B460E236E
:101C4800F0E7481C508063545388D1888B4232D3C4
:101C580000235380137002232B7069802378FD2B97
:101C680035D163792B72A3796B72637A227A1B045C
:101C780003EB0223E27913446B60637803F10C02EF
:101C88006A80A278D10701D519336B80002669686C
:101C9800DFF8FC806E8140F285120C20B318013306
:101CA8005B0800FB03F758F80770B94218D25A1EB0
:101CB800B242F3D816E092889A423FF668AF012301
:101CC80066E7107050809080D0802870ACE7E37889
:101CD8002B7223796B7263796B6063780833D4E76E
:101CE8001E46E5D80C27774358F80730994227D184
:101CF80023782046FD2B10F801BF0CBF4FF00A09CE
:101D08004FF0060909EB0B03591E89B247440193AA
:101D1800FFF780FC97F804A0ADF80E0051460DF1CE
:101D28000E00FFF751FC019BE218E35C527803EBCD
:101D38000223BDF80E209BB29A420AD0052300E088
:101D480003232B701846023801288CBF002001207D
:101D58006BE7BB79DA0706D5FA79934582BF04EBBE
:101D680009018A5CAA729B0709D50C2303FB068329
:101D780062781B7A9A4282BF4C44E35CEB720C2374
:101D880003FB068385F80CA05B796B730220DAE706
:101D9800A04501080148436AFFF7E8BB004400403A
:101DA8000A4A0B4B12680B49A3FB02323220920CF1
:101DB80000FB02F2084B486802F5FA72A3FB0232F4
:101DC80092094B681B1A9A42FBD8704750020020B0
:101DD80083DE1B43001000E0D34D621008B5FFF707
:101DE800DFFF4FF0904310229A6108BD4FF09043F7
:101DF80010229A62FFF7D4BF30B587B0034601AC12
:101E080000F1100518685968224603C20833AB422E
:101E18001446F7D10024094D8DF81440A96801A88B
:101E2800FEF7F6F910B920B207B030BD01342F2CF7
:101E380005F10C05F2D14FF0FF30F5E7080000205E
:101E480002780A4B90F801C08178D243D2B29A5CEA
:101E580082EA0C0290F803C09A5C4A40995C0279C5
:101E680081EA0C01595C4A40985C7047A04401081B
:101E7800028810B58488531C234044889C421EBFA6
:101E880012189171038010BD411A88B20B0444BF27
:101E980000F5007080B2704770B5104C00252346DD
:101EA80026782EB166788E4202D1A67896420BD05B
:101EB80001350C2D04F10404F2D1002413F8245048
:101EC8001DB101340C2CF9D170BD012503F8245043
:101ED80003EB8403D87059709A70F5E7B9060020AF
:101EE8002DE9F8430B460D795A7A9E7ADF7A204B12
:101EF800097A1B5CDB07044600D50DB9FFF7CCFF58
:101F080000231C491A4898464FF0010E9C4201F8DC
:101F1800018B25D02DB90278920702D501F801EC82
:101F28001EE0154A4FF0000C92F80090B9F1000F2E
:101F38000FD092F8039099450BD1002EEED092F86D
:101F48000190B14505D1002FE8D092F80290B9452B
:101F5800E4D00CF1010CBCF10C0F02F10402E3D146
:101F68000133DBB2042B00F10100CFD1BDE8F883C7
:101F7800E9060020B5060020B906002007B5036869
:101F88008DF807101B6901220DF10701984703B06E
:101F98005DF804FBF0B50546FD2305F80C3B85B05C
:101FA80004468DF8043090F8243103F10C02024401
:101FB800012B42D80026637066808DF805308B7A35
:101FC80023718DF808308B7AADF8066001338B7277
:101FD80063798DF80930A3798DF80A30A368C3F3C3
:101FE80017031A128DF80B3009211B140DF1050087
:101FF8008DF80D308DF80C20FFF70CFB6778ADF8E5
:1020080002003A4629460DF10200FFF7E9FA94F872
:102018002311FFF7D9FA94F82421BDF80230A4F867
:102028000C31974210D207F10C00D21B31462044E4
:1020380005B0BDE8F04010F0B5BB12F8010D00285E
:10204800B8D1013BDBB2B3E705B0F0BD704713B5BB
:10205800044608460191FEF7E5F8236801991B69D3
:1020680082B2204602B0BDE81040184708B5FFF715
:10207800EEFF08BDB0F1904F08B5014607D1012029
:10208800FFF74AFA114B99420BD1202014E0104B6C
:1020980098420BD003F58063984209D10420FFF7DA
:1020A8003BFA0C4B994210D1402005E00220E7E7AB
:1020B800094B984204D10820BDE80840FFF72CBA24
:1020C800064B9842DED11020F6E708BD0014004800
:1020D8000004004800180048000C004800100048A0
:1020E80008B5224B984201460BD14FF40060FFF728
:1020F8002FFA1F4B99420DD1BDE808402020FFF769
:1021080019BAB0F1804F0ED01A4B98420FD1022065
:10211800FFF710FA184B99420FD14FF40050BDE861
:102128000840FFF715BA0120FFF704FAE1E7134B5F
:10213800984208D10420FFF7FDF9114B99420CD1C0
:102148004FF48030EBE70F4B9842D2D11020FFF7C5
:10215800F1F90D4B994206D008BD0C4B9942F8D1C4
:102168004FF40030DBE74FF48020D8E7002C014023
:102178000014004000040040003401400008004002
:102188000040014000100040004801400044014068
:102198002DE9F04387B00E46054614460021142267
:1021A80001A89DF838809DF83C901F4610F0FAFA77
:1021B80000960B2C07D8DFE804F007070A1214145E
:1021C800141616161A1CFEE70323019301E00223D6
:1021D8000493032F11D8DFE807F01113211101230D
:1021E800F6E70123F1E7012301930393F1E70223C3
:1021F800EBE7022301930123F7E7FEE702230293AB
:10220800B8F1100F0CD8DFE808F02D2D0C111315BC
:1022180017191B1D1F21232527292B000123EEE752
:10222800FEE701230593022301931EE00223F9E749
:102238000323F7E70423F5E70523F3E70623F1E78C
:102248000723EFE70823EDE70923EBE70A23E9E78C
:102258000B23E7E70C23E5E70D23E3E70E23E1E78C
:102268000F23DFE7B8F1000FDDD1B9F1000F02D07D
:102278002846FFF7FFFE053C042C05D8DFE804F0EC
:10228800030B04030B00AE62694628460CF002FB00
:1022980007B0BDE8F083AE61F6E713B54FF0010C67
:1022A8000024CDE9004CFFF773FF02B010BD13B551
:1022B8000124CDE900340323FFF76AFF02B010BD03
:1022C80007B50D48FFF764F9036823F001030360BD
:1022D800436823F400434360036843F00103036049
:1022E80008210023CDE90013044803230A22FFF73D
:1022F8004FFF03B05DF804FB0044004000040048B1
:1023080070B586B00023164604460D46ADF8063073
:10231800FFF7E6FE042E04D8DFE806F03034043870
:102328004100FEE71F4B204A1B68B3FBF2F39BB248
:102338000022013B01A92046ADF80430CDE9022571
:10234800049205920CF052FD236823F08003236069
:10235800A36823F4A03323F00703A360636823F082
:10236800007323F070036360636823F47003636091
:10237800A36823F08003A36006B070BD094B0B4A25
:102388001B68D2E7074B0A4A1B68CEE7054B074A8A
:102398001B68B3FBF2F303EB83035B00C7E701237E
:1023A800C6E700BF5002002080A8120140420F007B
:1023B8008096980010B50446FFF7A2FF236843F003
:1023C8000103236010BD00224FF0FF31FFF7F2BF79
:1023D800274B10B5274C5B6823600AF055FC4FF07B
:1023E80090400CF0F7F924480CF0F4F923480CF06D
:1023F800F1F923480CF056FD22480CF053FD224811
:102408000CF050FD21480CF04DFD21480CF082FCE9
:1024180020480CF07FFC0CF083FB4FF0E0220023F7
:102428001D491361536193618A6822F0030242F0E7
:1024380001028A6072B64FF0FF319A0002F16042E1
:1024480002F561420133082BC2F88010C2F88011EE
:10245800F3D162B6114A136823F0070343F001036E
:102468001360034B1B6883F3088823689847FEE7CB
:102478000000FF1FB00600200004004800080048C4
:10248800003801400044004000480040004C004033
:1024980000300140003C00400010024000000140B4
:1024A8000749084A881AEFF30883521A1A44013A6E
:1024B800013B984288BF0022AA2110F073B900BFDF
:1024C800008000200004000010B5114C03232046B2
:1024D80006224021FFF7E1FE032302224FF40041C8
:1024E8004FF09040FFF7D9FE03231A4620462021DB
:1024F800FFF7D3FE2046032305228021FFF7CDFEF8
:1025080020460323BDE8104005220121FFF7C5BE80
:1025180000040048024B1869C0F34010704700BF20
:102528000004004808B5FFF7F5FF00B908BD00BF73
:10253800F9E70000024B01229A6280229A617047F3
:1025480000040048024B80229A6201229A61704777
:1025580000040048104A53694FF4704123F4704353
:1025680091FAA1F153610D4B5A6822F400425A6066
:102578001A6822F400421A60DA6822F40042DA602B
:102588009A6842F400429A60054BD02283F82823C7
:102598004FF480725A607047000001400004014007
:1025A80000E100E0044B4FF400425A611A6842F41B
:1025B80000421A60704700BF00040140034800232E
:1025C80003224FF48071FFF768BE00BF0004004883
:1025D800024B1869C0F30020704700BF0004004890
:1025E80008B50522002302214FF09040FFF755FE61
:1025F8000023052201214FF09040FFF74EFE4FF0D7
:10260800904302229A6201229A6208BD4FF09041DB
:102618004B691A04DB4302F4003203F0020313434C
:102628008B6170474FF090414B691A04DB4302F409
:10263800803203F0010313438B61704708B505220C
:1026480000234FF480714FF09040FFF726FE4FF0C3
:1026580090434FF480729A6208BD4FF090431A2855
:102668004FF48072CCBF9A619A6270471D280EDCC5
:102678001A280FDC172810DC132811DC1128B5BF25
:1026880000200120102311230870137070471320B5
:102698001E23F9E70C201B23F6E708201823F3E78D
:1026A80004201423F0E7084611461A46FFF7DEBF58
:1026B8000C4BD3F8FC2022F08072C3F8FC20D3F82E
:1026C800FC2042F08072C3F8FC20A3F55D431A6831
:1026D80022F001021A601A6842F001021A60002210
:1026E8005A60704700ED00E0064A074B51681B68C6
:1026F80010B5064CB3FBF4F3584353685B1A834296
:10270800FBD310BD001000E05002002040420F0033
:102718007FB50123CDE90413002201A902A8CDE960
:1027280002230AF05BFC00280CBF0420052007B038
:102738005DF804FB014608B500200AF0B9FB002843
:102748000CBF0420052008BD08B5FFF7E1FF031FF3
:102758005842584108BD08B5FFF7ECFF031F58421F
:10276800584108BD2DE9F3472A4B2B4D0128144643
:102778002A482B4A0E4617BFAA463D213C211D4632
:10278800019106BF9A46804690460AF04BFB019994
:102798002846FFF7D9FF30B900240AF055FB204638
:1027A80002B0BDE8F087002E08BF4FF4FC64073480
:1027B80024F0070405F11007B1463444AAEB050AD2
:1027C800A1450BD14FF011324FF0FF332846FFF7E8
:1027D800C2FF003818BF01208400DEE76EB90AEB9B
:1027E8000703D3E90023B3F1FF3F08BFB2F1FF3F6E
:1027F80006D1083709F10809E2E7D9E90023F2E729
:10280800B84505D93846FFF7A6FF0028F1D1C3E738
:102818000324C2E700E0010800E80108FFEF01080F
:10282800FFE7010810B50AF0FDFA09483C21FFF757
:102838008BFF58B107483D21FFF786FF003818BFC6
:10284800012084000AF000FB204610BD0446F9E789
:1028580000E0010800E8010830B5084D002340F207
:10286800EF749AB2914201D8042030BDA34203D03C
:102878005A5DC2540133F4E70320F6E710E001087B
:1028880013B50A46044672B6019101460020FFF7C7
:1028980069FF62B60428019A05D172B60120214663
:1028A800FFF760FF62B602B010BD000038B5124BEA
:1028B8001C68D3F80058B4F1113F09D1B5F1113FA4
:1028C80017D0002211460120BDE83840FFF74ABF63
:1028D800B5F1113F03D1002211461046F4E7FFF786
:1028E800A1FF042804D12C4001340CBF0220012090
:1028F80038BD0420FCE700BF00E00108034B187353
:102908009A68D207FCD5187B704700BF0030014099
:1029180038B5441E8D18A94200D138BD14F8010FEE
:10292800FFF7ECFF01F8010BF5E7084611461A46D8
:10293800FFF7EEBF38B5064D04460144A14200D169
:1029480038BD2878FFF7DAFF04F8010BF6E700BF77
:102958004402002008461146FFF7ECBF10B50144B9
:1029680004468C4200D110BD14F8010BFFF7C6FFD6
:10297800F7E708461146FFF7F1BF000010B58AB027
:102988002822002168460FF00DFF4FF48050FEF713
:10299800DFFD1021032306224FF09040FFF77DFC56
:1029A8004FF09040102383610A2206232021FFF76D
:1029B8007EFC06230A2280214FF09040FFF777FC27
:1029C8000623032240214FF09040FFF770FC1822A5
:1029D800154C06924FF48272002301924FF4007254
:1029E800CDE90333CDE907330093059207234FF46C
:1029F800E06269462046099302920CF0BDF96368CB
:102A080023F010036360636823F00803636023689E
:102A180043F040032360A3689B07FCD5237B034B4B
:102A2800FF221A700AB010BD003001404402002095
:102A38001C4B10B4DC69A00611D51A6891060ED596
:102A480019481A495A6A038809880133C3F30803E5
:102A580089B299421FBF1649D2B2CA54038011489D
:102A68001F232206036215D503681B0612D5114BD6
:102A7800114A1988138889B29BB299420DD01388DC
:102A88000133C3F30803138013880C4A9BB2D35C49
:102A9800DBB283625DF8044B70475DF8044BFEF7C8
:102AA80089BD00BF00800040323900203039002045
:102AB80030370020363B0020343B002034390020DA
:102AC8000A490B4A08B50B8812880133C3F3080377
:102AD80092B29A4207D0074AD05407480B80FEF7B3
:102AE8004EFD012008BD0020FCE700BF363B00205A
:102AF800343B0020343900200080004038B50446BB
:102B08004518AC4200D138BD14F8010BFFF7D8FFC7
:102B1800F7E708461146FFF7F1BF0000054B064AE4
:102B28001B8810880133C3F3080380B2181A18BF32
:102B380001207047363B0020343B002008B5FFF7E2
:102B4800EDFFB0FA80F0400908BD00000848094AC6
:102B58000188138889B29BB29942F9D0138801334E
:102B6800C3F3080313801388034A9BB2D05C7047F1
:102B7800323900203039002030370020FFF7E6BF17
:102B880070B588B00C460646154600211C2201A8DF
:102B98000FF008FE231E18BF01231B03CDE90335E0
:102BA80001A90C2303480296059406930BF00CFF29
:102BB80008B070BD0080004013B53B4C236823F07B
:102BC80001032360394BDA6D42F00102DA65DB6DEF
:102BD80003F001030193019B0A220D2304214FF006
:102BE8009040FFF764FB0D23032208214FF090402B
:102BF800FFF75DFB002211464FF4E130FFF7C0FFFD
:102C0800236823F00053236004F1080353E8003FCE
:102C180023F0604304F1080141E80032002AF3D1AF
:102C280004F1080353E8003F23F0606304F108024D
:102C380042E800310029F3D11D4BB02283F85B2311
:102C48004FF000629A601848FEF7B4FCFEF7A9FC42
:102C580040232362174B1980174B1980FEF798FC05
:102C6800164B1980164B1980636823F40063636060
:102C7800A36823F00803A360636823F480436360B8
:102C8800A36823F02203A360A36843F48053A360DE
:102C9800236843F001032360C3699A02FCD5C36922
:102CA8005B02F9D502B010BD008000400010024060
:102CB80000E100E0343B0020363B002030390020A2
:102CC8003239002008B5FFF777FF0348436ABDE8AB
:102CD8000840FEF74BBC00BF00800040FFF7F2BF82
:102CE8001C4B10B4DC69A00611D51A6891060ED5E4
:102CF80019481A495A6A038809880133C3F30A0331
:102D080089B299421FBF1649D2B2CA5403801148EA
:102D18001F232206036215D503681B0612D5114B23
:102D2800114A1988138889B29BB299420DD0138829
:102D38000133C3F30803138013880C4A9BB2D35C96
:102D4800DBB283625DF8044B70475DF8044BFEF715
:102D580031BC00BF003801403A430020384300200E
:102D6800383B00203E4500203C4500203C430020E5
:102D78000A490B4A08B50B8812880133C3F30803C4
:102D880092B29A4207D0074AD05407480B80FEF700
:102D9800F6FB012008BD0020FCE700BF3E450020EF
:102DA8003C4500203C4300200038014038B504462B
:102DB8004518AC4200D138BD14F8010BFFF7D8FF15
:102DC800F7E708461146FFF7F1BF0000054B064A32
:102DD8001B8810880133C3F3080380B2181A18BF80
:102DE800012070473E4500203C45002008B5FFF70C
:102DF800EDFFB0FA80F0400908BD0000054B064A17
:102E08001B8812889B1A98B21B0444BF00F5006007
:102E180080B270473A43002038430020FFF7EEBFE6
:102E28000848094A0188138889B29BB29942F9D0A7
:102E380013880133C3F30A0313801388034A9BB230
:102E4800D05C70473A43002038430020383B0020CC
:102E5800FFF7E6BF70B588B00C4606461546002158
:102E6800202268460FF09EFC231E18BF01231B0377
:102E7800CDE9023569460C2303480196049405936D
:102E88000CF052F808B070BD0038014010B5064C7F
:102E9800236823F001032360FFF7DCFF236843F076
:102EA8000103236010BD00BF00380140002208461E
:102EB8001146FFF7EBBF000010B53D4C236823F027
:102EC800010323604FF48040FEF742FB4FF400718A
:102ED80008230A224FF09040FFF7E9F9082303225C
:102EE8004FF480614FF09040FFF7E1F9002211465E
:102EF8004FF4E130FFF7AEFF63682E4A23F49043A6
:102F08006360A36823F02A03A360236823F00053B7
:102F1800236002F6080353E8003F23F0604302F6FB
:102F2800080040E800310029F3D102F6080353E80D
:102F3800003F23F0606302F6080040E800310029F2
:102F4800F3D11D4BF02283F8252320225A6018481C
:102F5800FEF730FBFEF725FB40230362174B198071
:102F6800174B1980FEF714FB164B1980164B198066
:102F7800436823F400634360836823F00803836095
:102F8800436823F480434360836823F0220383600B
:102F9800836843F480538360036843F0010303604C
:102FA800C3699A02FCD5C3695B02F9D510BD00BF9D
:102FB800003801400030014000E100E03C450020BD
:102FC8003E450020384300203A43002008B5FFF76B
:102FD80073FF0348436ABDE80840FEF7C7BA00BF5D
:102FE80000380140FFF7F2BF024B1A68024B1A6023
:102FF800704700BF4C450020F00B0020054A064BE7
:103008001968136899421DBF01330120136000201D
:10301800704700BFF00B00204C450020034A0449CC
:10302800136809680B441360704700BF4C450020C3
:1030380054020020014B1868704700BF4C4500201F
:103048000148FFF7C0B900BF00040040014B586AAF
:1030580080B270470004004008B5FFF7F1FFBDE8F3
:103068000840FFF7C1BF0000044BDA6822F00202F3
:10307800DA606FF002021A61704700BF0004004076
:10308800002208B50260FFF7EFFF044BF02283F837
:103098001D234FF000521A6008BD00BF00E100E098
:1030A80008B5036853B1FFF7DFFF054B5A6A1144AF
:1030B80089B25963DA6842F00202DA6008BD00BFDB
:1030C80000040040074B1A69920709D56FF0020205
:1030D8001A61DA6822F00202DA60034B1B681847AB
:1030E800704700BF000400402433002038B51C4C52
:1030F800C0220021201D0FF055FB012323800F2340
:1031080018496380A38005224323A01DFDF7F0FC26
:10311800154A14490723C4E913231F230225A4F8D9
:1031280054300522432304F15600A4F84A50FDF711
:10313800DFFC4FF48033C4F89C300C49A4F89A5053
:10314800002304F1AC00C4E9293384F8A0300FF05F
:1031580089FB7F2384F8C130052384F8C23038BD49
:10316800EC050020583D01080F000300AF2A0108B4
:1031780070B5094E05460C46415C30460FF029FBF8
:10318800034628B1831B0133DBB2282B28BF002359
:10319800F35C2B5570BD00BF7444010870B50D4633
:1031A8001146044616460FF05DFB2DB3013D082D70
:1031B80008D8DFE805F00511131517191B1D1F00A6
:1031C80035236371627973799A4215D120460521B6
:1031D800BDE87040FFF7CCBF6123F2E76623F0E754
:1031E8006B23EEE77023ECE77523EAE77A23E8E739
:1031F8003123E6E73223E4E770BD0000F7B5054662
:1032080005F11106214C224A014636016846FFF7AE
:10321800C5FFB01C694620440FF024FB264404EB8C
:103228000512002302277772A2F81A31142202FB32
:1032380005400421012280F850104FF4807540F2B7
:103248000111A0F84A20C264A0F8522080F8552045
:10325800A0F85650A0F8581040F2032084F83430F3
:10326800E284A562A08584F82E2084F8307084F862
:103278003330C4F83A30C4F83E30C4F84230A4F8C9
:103288004610A4F8481003B0F0BD00BF3004002079
:103298006A2A0108F7B50546B04CB14A05F111068E
:1032A800014637016846FFF779FFB81C274469468D
:1032B8002044FDF73FFB7B7AAA4A052B88BF0023F1
:1032C80004EB061088BF7B721188437A41FA03F336
:1032D80013F001030DD1437259B111F0010308D164
:1032E80041FA03F7FF07D8B240F1D68104EB061381
:1032F800587204EB05112B0191F81A01052802D91F
:10330800002081F81A01E718508897F81A1140FA36
:1033180001F111F001010FD187F81A1160B110F015
:10332800010109D140FA01FC1CF0010FCFB200F0F5
:10333800B881E11881F81A71E11891F81B01032886
:1033480002D9002081F81B0104EB0616717A0129C5
:1033580003D9042901D000219180E618908896F8B5
:103368001B1140FA01F111F001010ED186F81B1171
:1033780058B110F0010108D140FA01F7FF07CEB2A9
:1033880040F19481234483F81B61142303FB054116
:1033980091F84A00042802D9012081F84A0003FB69
:1033A800054393F84B10042902D9002183F84B10E8
:1033B800142303FB0543B2F84A1093F84B0041FA73
:1033C80000F0C00712D4012083F84B0071B18807C0
:1033D800C1F340030AD441FA03F6F707D8B240F123
:1033E8006A81142303FB054383F84B00142303FB72
:1033F800054393F84C10032902D9012183F84C1096
:10340800142000FB0540B2F84C1090F84C3041FAFB
:1034180003F313F0010310D180F84C3069B111F0B7
:1034280001030AD141FA03F6F607D8B240F1488100
:10343800142303FB054383F84C00142303FB0543C3
:1034480093F84E10012902D9002183F84E10142058
:1034580000FB0540B2F84E1090F84E3041FA03F3E5
:1034680013F0010310D180F84E3069B111F0010357
:103478000AD141FA03F6F707D8B240F1268114239E
:1034880003FB054383F84E00142303FB054393F81D
:103498004F10022902D9002183F84F10142000FB95
:1034A8000540B2F8503090F84F1043FA01F111F08E
:1034B800010110D180F84F106BB113F001010AD14E
:1034C80043FA01F6F607C8B240F10481142101FB62
:1034D800054181F84F00142101FB054090F84D602B
:1034E800022E02D9002680F84D6001FB054191F8B3
:1034F8005000052802D9042081F85000142101FB4E
:10350800054090F85260012E02D9012680F85260D9
:1035180001FB054191F85500012802D9012081F8E5
:103528005500142101FB054191F85300022802D9E6
:10353800002081F85300142606FB0546B2F8520015
:1035480096F8531040FA01F111F0010117D186F8ED
:103558005310A0B110F0010111D105E03004002092
:103568006A2A0108EC05002040FA01F7FF07CEB2ED
:1035780040F1B580142101FB054181F85360142105
:1035880001FB054090F856600C2E02D9002680F801
:10359800566001FB054191F84C00012809D191F8CA
:1035A8004F60022E05D1DF0740F19E80002381F88D
:1035B8004F30142303FB0543012140F2011083F827
:1035C8005710A3F8580094F82630042B01D984F832
:1035D800261094F82730042B02D9002384F82730CA
:1035E800B2F89A0094F8273040FA03F313F0010F69
:1035F800854B0ED1012184F8271050B18607C0F3FE
:10360800400106D440FA01F7FF07CEB271D583F81E
:10361800276094F82810022902D9002184F828107C
:1036280094F82910032902D9012184F82910B2F845
:103638009C1094F8292041FA02F212F001020CD1F0
:1036480084F8292049B111F0010206D141FA02F6A5
:10365800F607D0B251D583F8290094F82A200C2A0D
:1036680002D9002284F82A2093F832200C2A02D9A1
:10367800002283F8322093F82B20042A02D9002252
:1036880083F82B2000226149104611F9014F14F1EB
:10369800780F36DA087036E00133102B7FF420AE4D
:1036A80027E6013110297FF43DAE45E601311029A6
:1036B8007FF462AE69E60133102B7FF48CAE95E699
:1036C8000133102B7FF4AEAEB7E60133102B7FF435
:1036D800D0AED9E6013110297FF4F2AEFBE6013114
:1036E80010297FF441AF4AE713F0020318BF0346DD
:1036F8005DE70131102985D18BE70132102AA5D168
:10370800ABE7782CC6DC0132D2B20C2ABDD14049D5
:103718000022012011F8014F0132022CD2B288BFD9
:103728000870042AF6D193F83420012A02D900221D
:1037380083F83420374AB2F89E1093F8342041FABF
:1037480002F212F001020CD183F8342049B111F0D1
:10375800010206D141FA02F4E407D0B211D583F888
:10376800340093F82C20052A02D9032283F82C2050
:1037780093F82D20032A08D80AD1002283F8342090
:1037880006E00132102AE5D1EBE7022283F82D206A
:1037980093F82E20022A02D9012283F82E2093F8CA
:1037A8003020022A02D9022283F8302093F83320ED
:1037B8000C2A02D9002283F8332093F83520042AF2
:1037C80002D9002283F83520142101FB0531FF229C
:1037D80003EB051581F8512081F8542083F82F2038
:1037E80083F831204FF6FF704FF0FF32C5F81C21E7
:1037F800A5F820011A629A84A1F85A20A1F85C2041
:10380800DA861A8703B0F0BD30040020690400206E
:1038180075040020EC05002010B5052804D8DFE861
:1038280000F01D0421191D21FEE720241F210F226D
:10383800144B98701A7701380122A3F84840A3F86E
:103848004A109A769A73042810D8DFE800F010130B
:103858001515130009246F210722E9E714243221E2
:103868000A22E5E7352413211922E1E700221A711B
:103878001A7410BD0222FAE700221A711A749A7695
:103888009A73F6E7D40300202DE9F0438C4D8D4C54
:1038980000F1110905EB091702378DB006463846C5
:1038A800FDF764F80421029002A8FDF7B3FE05EBCA
:1038B8000613E08393F81B314FEA06182BB103EB8C
:1038C800031303EB03231844E08305EB09190123D1
:1038D80099F8091084F8513005EB0809A4F852301A
:1038E800A4F8543099F81A016170002384F856300E
:1038F800FFF792FF99F81B21029BA36063612AB12D
:103908004FF0113101FB0233A3606361142303FB01
:103918000653607893F84A206B4BA84413F9223079
:1039280023732376FDF7E6FAE38B636298F81B317D
:1039380084F8293000236073607684F82A3020B92F
:103948003846FDF733F884F82A00604B627B1B8801
:1039580084F8282003F001019F0748BF41F00201C5
:10396800A185580742BFA18D41F00401A18519071F
:1039780042BFA18D41F01001A185DF0642BFA18D94
:1039880041F02001A185980642BFA38D43F00803AA
:10399800A3854F4B03AF03F1200E18685968BC4646
:1039A800ACE80300083373456746F6D11868CCF8CD
:1039B8000000A378474F06210CA801FB02021A4415
:1039C800B7EE087A12F824CC84F820C007EE90CA23
:1039D800F8EEE77A17E90F0067EE877A87E80F00B5
:1039E800FCEEE77A40F2E243CDED017AA4F84C30E0
:1039F8009DF80430B4F84820A4F84E304FF47A7398
:103A0800B3FBF2F3A4F84030142303FB06534FEA48
:103A18005C0CBCF1050F93F8503038BF4FF0050C23
:103A280084F850C0052B2BD8DFE803F00330242797
:103A38002A2D4FF416536364002384F8573084F812
:103A48005930142303FB065696F84C30032B03D049
:103A580096F84F20022A02D1012284F85720591ED5
:103A68004A424A4184F8582094F857208AB1012BD9
:103A78000FD1FEE74FF41643DDE74FF46143DAE771
:103A88004FF4E133D7E74FF46133D4E74FF496436B
:103A9800D1E72178142000FB015595F84C10022934
:103AA80007D1012184F8591022B194F859301BB17B
:103AB800FEE70AB9012BF8D00DB0BDE8F08300BFCE
:103AC80030040020D4030020583D0108EC050020F4
:103AD800B02801080404002002484FF4DE72FF21D8
:103AE8000EF060BE3004002002484FF4DE71FEF78D
:103AF800C7BE00BF3004002002484FF4DE71FEF755
:103B0800ABBE00BF3004002008B5FFF7F5FF034B3C
:103B18001878BDE80840FFF7BDBB00BFD4030020FC
:103B280038B5FFF7D9FFFEF7C1FE04280CD0FFF720
:103B3800D3FFFEF7BBFE042803D1FFF7DDFF0428FF
:103B480006D0FFF7C9FF03E0FFF7D6FF0428EED140
:103B58002F4930482F4C10220EF048FE38B12E491C
:103B6800102220460EF042FE08B1FFF7B5FFA38AE7
:103B7800B3F5215F28D008D30025E8B20135FFF757
:103B88003DFB0A2DF9D10023E3774FF42153A3829B
:103B9800012522691E491F4842F644039A424FF004
:103BA80010021CBF236101250EF020FE70B11849D8
:103BB80018481022FDF71AF8184919480822FDF785
:103BC80015F8FFF791FF03E00025E2E7002DF8D193
:103BD800E37F104A092B84BF0023E377E17F142099
:103BE800002300FB0144013394F84C0082F84C0098
:103BF8000A2B02F11402F6D10A4C2170FFF776FA6B
:103C08002078FFF747FB2078BDE83840FFF73CBE37
:103C1800712A010830040020822A0108932A010829
:103C2800E2050020D40300200229F7B5054600D993
:103C3800FEE70B4E06EB01131C460F016278F15D9F
:103C4800C3609B780DF0E6FAE3790193A3790093BA
:103C580022796379E17828460DF005FB03B0F0BDC1
:103C68003C5B010838B5836804466BB1024652F8DC
:103C7800143BDD6900F11503A847217D2046202269
:103C8800BDE838400DF04BBB38BD00007FB58D7ADC
:103C98008160044675B301210DF092FA0121204696
:103CA8000DF0B6FB012120460DF0CCFBA3682046A1
:103CB80093F90810FFF7D6FFA36820461978FFF795
:103CC800B3FF0022114620460DF097FA0023009317
:103CD80044F2030220464FF6FF710DF0E0FA204649
:103CE8004FF6FF710DF002FB204604B0BDE87040AE
:103CF8000DF09ABB03210DF063FA204601210DF067
:103D080087FB204601210DF09DFBA368204693F90F
:103D18000810FFF7A7FFA3685E680D4B23612A46CA
:103D28002046102386210DF0B1FB46F6E823CDE9A5
:103D380002535B23CDE9005320461023042270214F
:103D48000DF0B3FB2A46314620460DF0D8FBB8E704
:103D5800285B010810B504460DF066FB20464FF6B7
:103D6800FF71BDE810400DF0C1BA000038B5816898
:103D7800036891F90810DD69044600F1150300F1A4
:103D88001402A847A3689A7A42B11A78022A00D97D
:103D9800FEE7044B03EB0213E36038BD024B2361DB
:103DA800FBE700BF3C5B0108285B010810B50A4C23
:103DB800A06858B1E36823B9236913B92046FFF70F
:103DC800D5FFA3689B7A23B1E3689868A0F57A7059
:103DD80010BD2369D868F9E708320020836810B558
:103DE800044683B1C3681BB903690BB9FFF7BEFF6B
:103DF800A3689B7A1BB1E368B3F90C0010BD236973
:103E0800B3F91000FAE71846F8E7836810B50446D6
:103E180043B1C3681BB903690BB9FFF7A7FF94F94E
:103E2800150010BD1846FCE790F8D43053B190F84F
:103E3800D520074B03EBC20153F83230497953F8C8
:103E480021007047037C00EB8300406B704700BF84
:103E5800283D010838B504461546084609490EF0BC
:103E680001FD04EB850292ED0D0ADFED077AB8EE4D
:103E7800400A20EE270A0DF06FFCFCEEC07A17EE20
:103E8800900A38BD992A0108000050392DE9F341FC
:103E98009DF824701646402F88464FF05B024FF07D
:103EA800000104461D4628BF40270EF07BFC904BBE
:103EB800DB8B23803278A37862F30203A3707378D4
:103EC800DB0003F0080343EA0811A37803F00703B3
:103ED8001943A1707279E37862F30003E370B27951
:103EE800637962F38613637196F90200FCF750FC5C
:103EF800E37860F34703E370F279237962F3000310
:103F08002371327A62F3460323713279DBB202F00D
:103F1800010203F07F0343EAC21323713279637904
:103F2800C2F3450223F03F0313436371A37967F398
:103F38004703A3712B78AA78E3716B7802F01F020C
:103F480003F0070343EAC20323726A88637AC2F361
:103F5800451223F03F03134363722A79DBB202F060
:103F6800030203F03F0343EA82136372AB88C3F38F
:103F78008703A3726A79E37AC2F3800223F001030C
:103F88001343E372AA79DBB202F07F0203F0010364
:103F980043EA4203E372EA88237BC2F3C31223F0A5
:103FA8000F03134323732B7AAA7AE3736B7A02F015
:103FB8001F0203F0070343EAC20323746A89637C80
:103FC800C2F3451223F03F03134363742A7BDBB229
:103FD80002F0030203F03F0343EA82136374AB89E0
:103FE800C3F38703A3746A7BE37CC2F3800223F0E4
:103FF80001031343E374AA7BDBB202F07F0203F0F0
:10400800010343EA4203E374EA89237DC2F3C3123E
:1040180023F00F03134323752B8ADB0863756B8A20
:10402800DB08A375AB8ADB08E375EB8ADB0823762C
:104038002B8BB3F5C06F4ED2B3F5007F94BF00232E
:104048000123227B63F3051222736B8BB3F5C06FD8
:1040580043D2B3F5007F94BF00230123227B63F38F
:1040680087122273AB8BB3F5C06F38D2B3F5007FDC
:1040780094BF00230123227D63F305122275EB8B85
:10408800B3F5C06F2DD2B3F5007F94BF0023012391
:10409800227D63F38712089B22751F4404F11802DE
:1040A800BB4220D14FF6FF7321460DF106000D22C9
:1040B800ADF80630FDF794FA2146BDF8063021F830
:1040C8000D3F4C22FDF78CFABDF80630A4F85930A4
:1040D80002B0BDE8F0810223B3E70223BEE7022362
:1040E800C9E70223D4E713F8011B02F8011FD7E739
:1040F800D403002013B59DF81040CDE900341346D1
:104108000A460021FFF7C2FE02B010BD13B5144BDA
:104118000288DB8B9A4204461DD1837803F0F003B2
:10412800102B01D0202B18D1A379A52B15D84FF629
:10413800FF730DF1060059222146ADF80630FDF750
:104148004FFAB4F85900BDF80630C01A18BF01205C
:10415800800002B010BD0120FBE70220F9E700BF94
:10416800D403002030B53A4B027893F8261061F357
:104178000302027093F8271061F30712027093F894
:104188002810427861F30302427093F8291061F312
:104198000712427093F82A10827861F30302827042
:1041A80093F83210827961F30302827193F82B102D
:1041B800827861F30712827093F83410C27961F340
:1041C8000302C27193F82C10C27861F30302C27023
:1041D80093F82D1061F30712C27093F82E1002792C
:1041E80061F303020271427993F8301061F303021C
:1041F800427193F83310827961F30712827193F850
:104208003510C27961F30712C27103F1390100F167
:104218000A0200F1160411F9015F02F8015FA242D7
:10422800F9D193F84610C27D61F30102C27593F883
:10423800471061F38302C27593F8481061F30512C1
:10424800C27593F8493063F38712C27530BD00BF59
:10425800300400200278344BC2F3030230B583F8EF
:1042680026200278C2F3031283F827204278C2F38B
:10427800030283F828204278C2F3031283F8292026
:104288008278C2F3030283F82A208279C2F30302F8
:1042980083F832208278C2F3031283F82B20C27984
:1042A800C2F3030283F83420C278C2F3030283F80E
:1042B8002C20C278C2F3031283F82D200279C2F3AE
:1042C800030283F82E204279C2F3030283F83020D8
:1042D8008279C2F3031283F83320C279C2F303123E
:1042E80083F8352003F1390100F10A0200F11604C0
:1042F80012F9015F01F8015FA242F9D1C27DC2F350
:10430800010283F84620C27DC2F3810283F8472068
:10431800C27DC2F3011283F84820C27DC2F3811224
:1043280083F8492030BD00BF300400201FB58DF848
:104338000C300123019303AB009313460A46022174
:10434800FFF7A4FD05B05DF804FB0000F0B5234DB0
:10435800012385F8A030044685B0B0F80900FCF7C1
:10436800ECFBC5F8A400B4F80B00FCF7E6FB14223C
:10437800C5F8A80004F10D0105F1AC00FCF748FCF4
:1043880094F9213085F8C13094F8223085F8C2308C
:1043980004F12300FFF75EFF6E4604F1410304F1C8
:1043A800510718685968324603C20833BB4216469B
:1043B800F7D10B48432308226946FCF741FB94F8E0
:1043C8005130A5F89A3094F85230A5F89C3094F8FA
:1043D8005330A5F89E3005B0F0BD00BFEC050020B5
:1043E800420600202DE9F04395B0DFF89090039243
:1043F80004AF4FF0400805460E46424600213846B5
:104408000EF0D0F91C4C99F80010222204EB01118F
:104418008DF810200DF11200062201F58971FCF7C4
:10442800E5FB99F8000004EB001107A891F81A21A0
:1044380091F8194102F00F0204F00F0444EA021443
:1044480091F81B2102F00F0244EA0224BDF818205B
:1044580022F47F6222F00F021443ADF81840FFF7F0
:1044680081FECDE90078039B324602212846FFF7FA
:104478000DFD15B0BDE8F08330040020D403002002
:10448800034B04491A68044801FB0200186070478E
:10449800F00600200D6619005FF36E3C38B50B4A34
:1044A8000B4D13782C78A34205D101332B70287853
:1044B80000F0010038BD1470FFF7E2FF6FF0004311
:1044C80098423CBF01342C70F1E700BFED06002094
:1044D800EE0600200B4A0C49126882600A680261E5
:1044E8004A680A4942610A6882614A68C2610023CF
:1044F8004EF6602283808371838103840260038582
:10450800704700BF4C4500209E2A0108A72A0108D1
:1045180010B5104C2046FFF71DFC11212046FFF76F
:10452800A1FBA36803B9FEE7002120460CF031FE89
:104538004FF47A70FEF7D8F8204601210CF040FEBF
:10454800A36820461978FFF76FFB2046FFF702FCA7
:1045580010BD00BF0832002038B50D4D0446A878BC
:10456800697805280CD1FFF757F96A780123934039
:10457800DB439BB223852046BDE83840FFF7C8BF20
:104588000220FFF749F96A7801239340F1E700BF59
:10459800D403002008B590F8203002468BB9FEF706
:1045A80017F810B982F8210008BD92F821300133BC
:1045B8005BB2312B82F82130F6DD012382F82030FE
:1045C800F2E7FEF705F818B1322382F82130EBE75D
:1045D80092F82130013B5BB2002B82F82130D8BF22
:1045E80082F82000E0E70000134B90F820201B68B9
:1045F800CAB182689B1AB3F57A6F01D90123437156
:104608000379ABB10D4B427B1B781AB1022B1CBF4F
:10461800032202739A1E534253414373837953B161
:104628000323037370478360EAE701230371F8E704
:104638004379002BF9D170474C450020CD07002065
:10464800037B9A1E012A4FF0000202D890F820102E
:1046580011B90273184670471346FBE770B51D4C35
:104668001D4E05465B22002120460EF09BF82B6963
:1046780023606B696360194B194D1B7831789A1E5A
:1046880053425341627A05EB011163F300026272EF
:1046980001F58971062204F10A00FCF7A7FA3378BC
:1046A80005EB031205EB031592F81B1195F8193168
:1046B80092F81A2103F00F0343EA02132374637C70
:1046C800204661F3030359216374FCF7A3FFA4F8A0
:1046D800590070BD69320020D4030020CD070020A6
:1046E800300400200A4A38B5138801339BB2502B96
:1046F80004460D4601D8138038BD002305491380B0
:10470800FDF7A5FC29462046FDF7A1FCF4E700BF0C
:10471800F40B0020CF2B01082DE9F84F154604466D
:104728000F467749FDF793FC29462046FDF78FFC95
:10473800744B0022012F1A804FF0904610D10223AB
:10474800B362B76146F2A810FDF7CEFFB76246F232
:10475800A810FDF7C9FF29462046FFF7C3FFF0E779
:10476800BB1E01220C2B00F2BE80DFE803F0374AA3
:104778005E1F07BCBCBC7171717171004FF090462F
:104788004FF001080227C6F8188046F2A810B76251
:10479800FDF7AAFFC6F8288046F2A810B761FDF712
:1047A800A3FF29462046FFF79DFFEBE74FF0904611
:1047B8004FF001080227C6F8188046F2A810B76122
:1047C800FDF792FFC6F8288046F2A810B762FDF7F9
:1047D8008BFF29462046FFF785FFEBE7B2620227E9
:1047E8004FF09046B76146F2A810FDF77DFFB7621B
:1047F80046F2A810FDF778FF29462046FFF772FF1A
:10480800F0E70223B36101274FF09046B76146F203
:10481800A810FDF769FFB76246F2A810FDF764FF1C
:1048280029462046FFF75EFFF0E7B26102274FF006
:104838009046B76146F2A810FDF756FFB76246F2F8
:10484800A810FDF751FF29462046FFF74BFFF0E778
:10485800A7F1090A5FFA8AFA00264FF001095645BE
:104868003EBF4FF0904302229A614FF004084FF088
:10487800904B46F2A810CBF81890FDF735FF46F29A
:10488800A810CBF82890FDF72FFF08F1FF3829462C
:104898002046FFF727FF18F0FF08EAD10223CBF8DC
:1048A80028304FF004084FF0904B46F2A810CBF890
:1048B8001890FDF719FF46F2A810CBF82890FDF7DD
:1048C80013FF08F1FF3829462046FFF70BFF18F0C1
:1048D800FF08EAD10136A7F10803F6B2DBB2B3420A
:1048E80038BF0026BBE70223B261B3614CF25030F7
:1048F800FDF7FAFE29462046FFF7F4FEF6E700BF6B
:10490800CF2B0108F40B002010B50446084694F993
:1049180001308B4201D1237823B901232370FDF79D
:104928009CFE607010BD000008B5437802789A427A
:1049380013D0042B8ABF042303700370027888BF46
:104948004370064B064813F92210064B1973197663
:10495800836813B11972FFF785F908BD583D01083E
:1049680008320020D403002010B50AB9437010BDE6
:10497800541E0B2CFBD80332D2B231F91220C83A9C
:1049880003FB022240F2716192FBF1F212B222EAB9
:10499800E2729A42C8BF1AB24270E8E71FB50C46E5
:1049A80070B9084801930DF10E020DF10F010CF0DA
:1049B80013FD019B9DF80E10024822460CF0C3FB24
:1049C80004B010BD0832002038B515461C46B8B9E9
:1049D800FDF7B0FD2B460A4601460B480CF08CFB50
:1049E80009484FF6FF710CF081FC2201064892B28B
:1049F80001210CF0A4FCBDE838407D20FDF774BE11
:104A08000148FFF7A7F938BD0832002037B50C4632
:104A180038B91548836833B9812281F88C2081F828
:104A28008E3003B030BD9D7A95B101F18E020DF143
:104A380006010CF0AEFCBDF90630002B0FDB4FF67B
:104A4800FF73ADF80630BDF8063084F88C30E8E71F
:104A58000DF106010CF089FD84F88E50EBE77F33E9
:104A6800F1DA4FF68173ECE70832002070B5114C8B
:104A78000D4606465B23224621462846FFF78EFF51
:104A8800D6E90613206862689A4208BF88420ED1A8
:104A980020465921FCF7BEFDB4F85940231A5C4260
:104AA8005C4128460449FFF7B1FF601C70BD002433
:104AB800F7E700BF4A3000205C3100200A4608B5FD
:104AC80001460148FFF728FE040000200023037078
:104AD8008370437003714371C37070470378002279
:104AE800022B427104D0032B09D0012B16D0FEE70C
:104AF80001230371437183784370C37070478378CF
:104B08004278991AA3EB020218BF012112F0060F8E
:104B180014BF0122002201714271EDE70271704752
:104B280002788170002A0CBF022203220270FFF76C
:104B3800D5BF0000074B282202FB003083681A7893
:104B4800542A05D15878A0F1780358425841704743
:104B5800002070476C3D0108074B282202FB0030FB
:104B680083681A78522A05D15878A0F178035842F8
:104B780058417047002070476C3D0108074B2822B8
:104B880002FB003083681A78542A04D158787838A0
:104B980018BF012070470120704700BF6C3D010815
:104BA80028230B4A434310B5D1580446FFF7D4FFD6
:104BB80048B92046FFF7BEFF064B1B7828B103EB28
:104BC800830301EB8301084610BD01EB0311FAE7EB
:104BD8006C3D0108D40300202C2838B505461AD8A6
:104BE8000E4B282202FB00334CB21B79022B0DD04E
:104BF800FE2B10D1FFF7D4FF0378E4B2A3420AD00A
:104C080004702846BDE83840FFF7B8BFFFF7C8FF73
:104C180090F90030F2E7002038BD00BF6C3D010874
:104C28002C2838B504460D4619D80E4B282202FB0D
:104C380000331B79FF2B12D1FFF7B2FF062229465A
:104C4800FBF7F9FF58B92046FFF7AAFF29460622C5
:104C5800FBF7DEFF2046BDE83840FFF78FBF002096
:104C680038BD00BF6C3D01082DE9F04307461546E5
:104C78002820394A41435018012B046A87B025D1AE
:104C88005258364B9A4235D0A3F1CE018A4233D0DE
:104C98003349F23B9A4208BF0C46FF238DF8003097
:104CA8004FF0000801262046FBF7BCFA5FFA88F9A6
:104CB800484529D806F118036B44AE4203F8188C0E
:104CC80030D80020387007B0BDE8F083022BE4D15B
:104CD8005258224B9A4211D0591C8A4210D0A3F143
:104CE800CE018A420ED0A3F1F2018A420AD01D49B0
:104CF800EC3BCFE71C4CD0E7194CCEE71B4CCCE77C
:104D08001B4CCAE71B4CC8E714F809302C2B06D1FA
:104D180006F118036B44013603F8188CF6B208F153
:104D28000108C0E705F118030DEB0305002315F88A
:104D3800182C15F9175C0132D2B29918C9B2A942D8
:104D480007EB030003DB002303700120BBE7615C72
:104D580001700133DBB2F0E76C3D01084905002022
:104D6800B02A0108E42A0108012B0108862B010852
:104D7800642B01083A2B0108054B282202FB00305E
:104D8800436A0BB1188870474FF6FF70704700BF31
:104D98006C3D010838B50B4B282202FB0030056A30
:104DA8002846FBF73FFA00221146D4B24B1CA0421A
:104DB800DBB201D8184638BD2C5D01322C2C08BF57
:104DC8001946F2E76C3D010838B5104B282202FB62
:104DD800003301461B79FE2B15D1FFF7CDFF0446A2
:104DE8000846FFF7D7FF002213460125D1B28842B3
:104DF80001D8184638BD05FA02F121421CBF01331B
:104E0800DBB20132F2E7FF23F3E700BF6C3D010894
:104E18002DE9F04F4FF0000A1D4E93B004460F469F
:104E2800D146D6F808805FFA8AF54FF0000B0DE0FE
:104E380018F8030001920DF091FCC3B2019A202BDF
:104E480008BF5F2302F8403C0BF1010B5FFA8BF3BC
:104E580040460193FBF7E6F9019B03F148029842AB
:104E68006A44E5D802F8409C394602A8FBF7D0F915
:104E780048B10AF1010ABAF12D0F06F12806D0D17E
:104E88000025284600E00120257013B0BDE8F08F0A
:104E98006C3D010837B51E4D1346282202FB01550B
:104EA80004462A79FE2A18D0FF2A24D0022A2BD1B8
:104EB8000846FFF775FE214690F900000CF01DF832
:104EC8002D692B783BB1134920460DF073FC294618
:104ED80020460DF06FFC012018E008460193009170
:104EE800FFF75EFE019B02780099204603B0BDE8FB
:104EF8003040FFF7B9BE0846FFF752FE06220146CA
:104F08002046FBF785FEE6E70020207003B030BDA1
:104F18006C3D0108C62C0108F8B5194B1646282225
:104F280002FB063300241A790470022A07460D464C
:104F380003D0FE2A13D02046F8BD93F918209142D9
:104F4800F9DB93F91C309942F5DC4FF0000165F369
:104F580007013046FFF740FE01243870EBE70029CF
:104F6800E9DB3046FFF716FFA842E4DD3046FFF7DD
:104F780003FF40FA05F313F00103E6D11C46DAE714
:104F88006C3D01082DE9F84300230370124B1746C6
:104F9800282202FB073306461B79FF2B0C4603D059
:104FA80000252846BDE8F8830846FBF73BF90628A4
:104FB800F6D104F1FF3804F1050918F8010FFBF7E1
:104FC8009FFC05460028EBD0C845F6D12146384657
:104FD800FFF726FE3070E4E76C3D0108F8B5104E87
:104FE8004FF0280C0CFB0266002736790770FE2E5E
:104FF80004460B46154603D0FF2E0BD0022E0DD1CA
:1050080018460DF013FB2A4601462046BDE8F84035
:10501800FFF782BFBDE8F840FFF7B4BF3846F8BDD8
:105028006C3D010810B504460846B2B9FBF7BEFC52
:10503800042812D8DFE800F003090B0D0F00084917
:1050480020460DF00FFC012010BD0649F8E706497F
:10505800F6E70649F4E70649F2E70020F4E700BF5F
:10506800B32B0108B82B0108BD2B0108C22B01087E
:10507800C82B010810B504460068FCF7E8FF024990
:105088002068FCF7E4FF10BDCE2B01080B1E18BFEB
:105098000123122A14D91D2A14D9312A8CBF0822B7
:1050A800052203710023016080F885304371C0F840
:1050B800883080F88C3080F88D20A0F88E307047CA
:1050C8000122EEE70322ECE790F88530682B08D838
:1050D800C2180133DBB2517180F8853018440023BF
:1050E8004371704708B50530FBF792F8B0FA80F0C5
:1050F800400908BD2DE9F04192B0064608460191E5
:105108001546FBF78FF806F1050804464046FBF7FD
:1051180089F8E4B2631CC7B2BB42019903DB0020E3
:1051280012B0BDE8F081224640460DF05FFB002832
:10513800F5D1221D23461644BB4202461BD300F17B
:1051480048036B44002403F8404C0028E7D09DF83E
:1051580008303D2BE3D1302302A88DF80830FBF747
:1051680061F82346DAB2904212D802A80DF05EFA2E
:1051780028600120D4E716F8011F202905D04832FD
:105188006A440130C0B202F8401C0133DBB2D3E7F5
:1051980048326A44013312F8402C303A092AE1D9DE
:1051A800BDE7000010B50E4B1B78022B04460FD14B
:1051B8000C4B93F8A0205AB1D3F8A830B3F5215F6F
:1051C80007D20949FFF756FF08492046FFF752FF63
:1051D80010BDFDD00649FFF74DFF0649F5E700BFB2
:1051E800CD070020EC050020D12B0108072C010871
:1051F8003D2C0108732C010810B50446FFF7D2FFB7
:1052080020680749FCF732FF064B206819783031CF
:10521800C9B2FCF7B3FE04492046FFF72BFF10BDC7
:10522800A92C0108D4030020AF2A01082DE9F04772
:105238004379702B90B080460F46164671D183791A
:10524800202B6ED1C0790DF081FA00285CD00025A2
:105258004FF0020A2C4608F105094846FAF7E2FF22
:10526800824522D305F140030DEB0305002305F821
:10527800403CC4B3E8461D4618F8010B0DF06EFA21
:1052880078550135EBB2A342F6D300253D550134DC
:10529800E4B26846FAF7C6FF6719FFB2874206EB21
:1052A800050334D300221A702DE008EB0A035B795A
:1052B8003D2B0ED0202B07D005F140016A1C0DEBC9
:1052C800010505F8403CD5B20AF101035FFA83FAFB
:1052D800C3E72C46F0E705F140036B4413F8400C94
:1052E8000DF03CFA78556846FAF79CFFE5B2A842FB
:1052F80007EB050304F10104EDD800220A491A70EE
:1053080030460DF0AFFA012010B0BDE8F08707F184
:1053180040020DEB0207013517F8402C1A70EDB268
:10532800B7E70020F0E700BFB32C01082DE9F047EC
:105338002C4E282303FB016688B03379FE2B0446E4
:105348000D4620D0FF2B4BD0022B2DD196F91850AB
:1053580025490068FCF78AFE284669460BF0CDFD12
:1053680069462046FFF786FE96F91C501F492068BB
:10537800FCF77CFE694628460BF0BFFD69462046CF
:10538800FFF778FE10E00846FFF7F6FCDFF86490B8
:10539800DFF864A080460027FEB201233246294682
:1053A8006846FFF761FC10B908B0BDE8F087BBB2EA
:1053B80048FA03F3DB0711D520684946FCF756FE87
:1053C80006F130012068C9B2FCF7D8FD20685146C3
:1053D800FCF74CFE69462046FFF74CFE0137DBE739
:1053E8000349CDE76C3D0108B52C0108BD2C010827
:1053F800CC2C0108C52C0108C82C0108F0B50446BE
:105408008BB008460D46FFF7DFFC254F25490646B9
:105418002068FCF72BFE282303FB05772068B96872
:10542800FCF724FE20492068FCF720FE2EB91F490E
:105438002046FFF71FFE0BB0F0BD0122294602A847
:10544800FFF728FD206802A9FCF710FE3B79FE2B28
:1054580003D0FF2B1AD01649EAE72846FFF7A0FB2E
:10546800057814492068FCF701FE05F13001206831
:10547800C9B2FCF783FD10492068FCF7F7FD012E3F
:10548800E9D10E492068FCF7F1FDE4E70C4B02A9CD
:105498005A786846FFF7C6FD0028DCD06946F1E770
:1054A8006C3D0108C52C0108C82C0108DB2C01083B
:1054B800AF2A0108EB2C0108D92C0108EE2C0108B1
:1054C800D403002070B590F88E3004466BB990F87C
:1054D8008F30012B01D9032B07D1214B1B78022BCD
:1054E80003D020492046FFF7C5FD1D4E002594F83E
:1054F8008E102C2903D9002384F88C3020E04B1C13
:1055080084F88E3094F88F30012B09D10846FFF7C4
:1055180011FB0028EBD10846FFF71EFB38B1E6E780
:10552800022B0ED10846FFF705FB0028DFD02046E6
:10553800FFF764FF013594F88D30EDB2AB42D6D257
:1055480070BD032B08D10846FFF706FB0028CED014
:105558003378022BDFD1EAE7002BF9D0E7E700BF69
:10556800CD070020FD2C010838B54A4B1A6890F881
:105578008C30012B044640F08B80D0F88830D31A49
:10558800B3F5FA7FC0F08480434DC0F888202846E0
:10559800FBF7BAF80BF0C0FC01462068FCF766FD83
:1055A8003E492068FCF762FD05F11400FBF790FC0A
:1055B8000BF0B2FC01462068FCF758FD384920681A
:1055C800FCF754FD95F894000BF0A6FC0146206802
:1055D800FCF74CFD33492068FCF748FD95F98C0031
:1055E8000BF0A4FC01462068FCF740FD2E4920681A
:1055F800FCF73CFD95F98D000BF098FC01462068FE
:10560800FCF734FD29492068FCF730FD95F9920034
:105618000BF08CFC01462068FCF728FD2149206826
:10562800FCF724FD95F98E000BF080FC01462068FC
:10563800FCF71CFD1C492068FCF718FD95F98F0044
:105648000BF074FC01462068FCF710FD184920682F
:10565800FCF70CFD05F15000FBF740FC80B20BF0A5
:105668006FFC01462068FCF701FD0E492068FCF735
:10567800FDFC05F16400FBF731FC80B20BF060FC27
:1056880001462068FCF7F2FC0A492046FFF7F2FCC5
:1056980038BD00BF4C4500205C310020662D010854
:1056A8001A2D01081D2D0108202D01081B2D0108A8
:1056B800222D0108252D010830B5044695B0FFF7C5
:1056C80071FD1D492068FCF7D1FC1C498B785BB142
:1056D800023108A80DF0C6F819492068FCF7C6FC85
:1056E800206808A9FCF7C2FC16492046FFF7C2FC4F
:1056F80015492068FCF7BAFC144B1B78022B19D10A
:10570800134D95F8A0309BB1206805F1AC01FCF76A
:10571800ADFC0B492068FCF7A9FCD5F8A410684635
:10572800FBF718FA69462046FFF7A4FC15B030BD10
:105738000849F8E70849F6E7272D0108580E002020
:105748001D2D0108AF2A0108442D0108CD070020AE
:10575800EC0500204B2D0108032D01082DE9F0412F
:1057680090F88E3090B0044643B93A4A3A4B92F8D2
:1057780056105B7C394A01B15B001370DFF8DC809E
:10578800354E002794F88D20FBB29A4208D994F838
:105798008E5098F80030AB4205D8002384F88C303E
:1057A80010B0BDE8F081737C9D424DD275B92C498B
:1057B8002068FCF75BFC707C0BF0AEFB01462068B0
:1057C800FCF754FC27492046FFF754FC28460BF009
:1057D800A3FB01462068FCF749FC23492068FCF735
:1057E80045FC73190137987C0BF096FB014620683D
:1057F800FCF73CFC1D492068FCF738FC06EB8503E8
:10580800586B0BF0A7FB01462068FCF72FFC1849E2
:105818002068FCF72BFC2A4608A93046FEF71AFB3D
:1058280069460BF034FB6846FBF7F2F820686946D6
:10583800FCF71CFC08A92046FFF71CFC94F88E30E6
:10584800013384F88E309DE7ED1A15F0FF05BDD1C0
:105858000849ADE7D4030020F80B0020F506002026
:10586800602D0108A0310108682D01086F2D01087D
:10587800792D01087F2D01082DE9F041254E264F8D
:10588800DFF8CC800446002594F88D20EBB29A42CC
:105898003ED994F88E30102B37D8DFE803F009137F
:1058A800181A1C1E20222426282A2C2E30323400B6
:1058B8002046FFF777FC94F88E30013384F88E3059
:1058C8000135E1E715492046FFF7D4FBF3E7144912
:1058D800F9E71449F7E71449F5E71449F3E71449D8
:1058E800F1E71449EFE71449EDE71449EBE71449E8
:1058F800E9E71449E7E71449E5E71449E3E74146CE
:10590800E1E73946DFE73146DDE7002384F88C30EC
:10591800BDE8F08122300108E72F0108872D010832
:10592800AB2D0108D92D0108022E01082E2E0108E1
:10593800562E01087E2E0108A72E0108D02E010838
:10594800142F01083A2F0108602F0108832F01083E
:10595800B62F01082DE9F043037995B00446C3B189
:1059680090F88C30013B032B19D8DFE803F0025282
:10597800575C006803685B69984768B120680368EA
:105988009B6998470023AB4984F88C302046FFF781
:1059980071FB15B0BDE8F0832046FFF7E5FDA64B87
:1059A8001E6894F885308BB1D4F88830F31AB3F5B3
:1059B800FA6F0BD9A1492046FFF75CFBA0492046A6
:1059C800FFF758FB002384F8853063719B4FDFF89D
:1059D800D482DFF8D492206803685B69984700286E
:1059E800D7D0206803689B6998470A280546C4F8F9
:1059F80088601DD00D281BD02C2819D03B2817D023
:105A080001462068FCF7BAFA29462046FFF75CFBF6
:105A1800E1E715B0BDE8F043FFF72EBF15B0BDE8CC
:105A2800F043FFF74FBD15B0BDE8F043FFF796BE52
:105A380039462046FFF71EFB41462046FFF752FB3A
:105A480050B1022384F88C30002384F88E30002370
:105A580084F885306371BEE749462046FFF742FB6C
:105A68000028EED177492046FFF73CFB0028E8D113
:105A780075492046FFF736FB054618B12046FFF763
:105A88001BFEE4E771492046FFF72CFB40B1204696
:105A9800FFF7B2FB032384F88C30A4F88E50D6E7C6
:105AA8006B492046FFF71EFB50B12046FFF7A4FBC9
:105AB800032384F88C304FF48073A4F88E30C6E743
:105AC80064492046FFF70EFB40B12046FFF794FBE0
