:020000040800F2
:10000000008000207DD1000855D1000857D100089C
:1000100059D100085BD100085DD100080000000044
:100020000000000000000000000000005FD1000898
:1000300061D100080000000063D1000865D100080C
:10004000CDD10008CDD10008CDD10008CDD1000818
:10005000CDD10008CDD10008CDD10008CDD1000808
:10006000CDD10008CDD10008CDD10008CDD10008F8
:10007000CDD10008CDD10008CDD10008CDD10008E8
:10008000CDD1000800000000CDD10008CDD100087E
:10009000550E0108CDD10008CDD10008CDD1000802
:1000A000CDD10008CDD10008CDD10008CDD10008B8
:1000B000CDD10008CDD10008CDD10008CDD10008A8
:1000C000CDD10008CDD10008CDD10008CDD1000898
:1000D000CDD100081133000849600008CDD10008D7
:1000E000CDBB0008CDD10008CDD10008CDD100088E
:1000F000CDD10008CDD10008CDD10008000000000E
:1001000000000000CDD1000800000000CDD10008A3
:10011000CDD1000800000000CDD10008CDD10008ED
:10012000CDD10008CDD10008CDD10008CDD1000837
:10013000CDD100080000000000000000CDD1000873
:10014000CDD10008CDD10008000000000000000063
:10015000000000000000000000000000000000009F
:10016000000000000000000000000000CDD10008E9
:10017000CDD10008000000000000000000000000D9
:1001800000000000CDD100080000000000000000C9
:10019000000000000000000000000000000000005F
:1001A0000000000000000000CDD1000891300008E0
:1001B000CDD10008CDD10008CDD10008000000004D
:1001C00000000000CDD10008000000000000000089
:0801D000CDD10008CDD10008DB
:1001D80010B5054C237833B9044B13B10448AFF379
:1001E80000800123237010BDB00300200000000030
:1001F8009C2F010808B5034B1BB103490348AFF313
:10020800008008BD00000000B40300209C2F0108F6
:1002180010F8012B11F8013B012A28BF9A42F7D0A8
:10022800D01A7047034613F8012B002AFBD1181A7D
:100238000138704781F0004102E000BF83F00043BD
:1002480030B54FEA41044FEA430594EA050F08BF69
:1002580090EA020F1FBF54EA000C55EA020C7FEA2D
:10026800645C7FEA655C00F0E2804FEA5454D4EBAA
:100278005555B8BF6D420CDD2C4480EA020281EA74
:10028800030382EA000083EA010180EA020281EAAC
:100298000303362D88BF30BD11F0004F4FEA0131FE
:1002A8004FF4801C4CEA113102D0404261EB41010D
:1002B80013F0004F4FEA03334CEA133302D0524293
:1002C80063EB430394EA050F00F0A780A4F101044F
:1002D800D5F1200E0DDB02FA0EFC22FA05F2801889
:1002E80041F1000103FA0EF2801843FA05F359416F
:1002F8000EE0A5F120050EF1200E012A03FA0EFCEE
:1003080028BF4CF0020C43FA05F3C01851EBE37117
:1003180001F0004507D54FF0000EDCF1000C7EEB34
:1003280000006EEB0101B1F5801F1BD3B1F5001F72
:100338000CD349085FEA30004FEA3C0C04F1010491
:100348004FEA445212F5800F80F09A80BCF1004FBA
:1003580008BF5FEA500C50F1000041EB045141EA3C
:10036800050130BD5FEA4C0C404141EB0101013C05
:1003780028BFB1F5801FE9D291F0000F04BF0146F4
:100388000020B1FA81F308BF2033A3F10B03B3F1C6
:1003980020020CDA0C3208DD02F1140CC2F10C0256
:1003A80001FA0CF021FA02F10CE002F11402D8BFB4
:1003B800C2F1200C01FA02F120FA0CFCDCBF41EA80
:1003C8000C019040E41AA2BF01EB0451294330BD4F
:1003D8006FEA04041F3C1CDA0C340EDC04F114042C
:1003E800C4F1200220FA04F001FA02F340EA030003
:1003F80021FA04F345EA030130BDC4F10C04C4F149
:10040800200220FA02F001FA04F340EA0300294628
:1004180030BD21FA04F0294630BD94F0000F83F472
:10042800801306BF81F480110134013D4EE77FEA55
:10043800645C18BF7FEA655C29D094EA050F08BFA1
:1004480090EA020F05D054EA000C04BF1946104682
:1004580030BD91EA030F1EBF0021002030BD5FEAC6
:10046800545C05D14000494128BF41F0004130BDEE
:1004780014F580043CBF01F5801130BD01F0004542
:1004880045F0FE4141F470014FF0000030BD7FEAB5
:10049800645C1ABF194610467FEA655C1CBF0B46B0
:1004A800024650EA013406BF52EA033591EA030FC7
:1004B80041F4002130BD00BF90F0000F04BF0021BF
:1004C800704730B54FF4806404F132044FF00005F2
:1004D8004FF0000150E700BF90F0000F04BF00216B
:1004E800704730B54FF4806404F1320410F00045D1
:1004F80048BF40424FF000013EE700BF42004FEACC
:10050800E2014FEA31014FEA02701FBF12F07F4348
:1005180093F07F4F81F06051704732F07F4208BFFF
:10052800704793F07F4F04BF41F40021704730B506
:100538004FF4607401F0004521F000411CE700BF52
:1005480050EA010208BF704730B54FF000050AE0D5
:1005580050EA010208BF704730B511F0004502D5D6
:10056800404261EB41014FF4806404F132045FEAD8
:10057800915C3FF4D8AE4FF003025FEADC0C18BF81
:1005880003325FEADC0C18BF033202EBDC02C2F173
:10059800200300FA03FC20FA02F001FA03FE40EA05
:1005A8000E0021FA02F11444BDE600BF70B54FF009
:1005B800FF0C4CF4E06C1CEA11541DBF1CEA1355E7
:1005C80094EA0C0F95EA0C0F00F0DEF82C4481EA4F
:1005D800030621EA4C5123EA4C5350EA013518BF6F
:1005E80052EA033541F4801143F4801338D0A0FB5C
:1005F80002CE4FF00005E1FB02E506F00042E0FB09
:1006080003E54FF00006E1FB03569CF0000F18BF0E
:100618004EF0010EA4F1FF04B6F5007F64F54074B6
:1006280004D25FEA4E0E6D4146EB060642EAC62149
:1006380041EA55514FEAC52040EA5E504FEACE2EB6
:10064800B4F1FD0C88BFBCF5E06F1ED8BEF1004FB9
:1006580008BF5FEA500E50F1000041EB045170BD35
:1006680006F0004646EA010140EA020081EA030179
:10067800B4EB5C04C2BFD4EB0C0541EA045170BD75
:1006880041F480114FF0000E013C00F3AB8014F1EF
:10069800360FDEBF002001F0004170BDC4F1000438
:1006A800203C35DA0C341BDC04F11404C4F12005B9
:1006B80000FA05F320FA04F001FA05F240EA020014
:1006C80001F0004221F0004110EBD37021FA04F64A
:1006D80042EB06015EEA430E08BF20EAD37070BD04
:1006E800C4F10C04C4F1200500FA04F320FA05F063
:1006F80001FA04F240EA020001F0004110EBD37065
:1007080041F100015EEA430E08BF20EAD37070BDD4
:10071800C4F1200500FA05F24EEA020E20FA04F3AD
:1007280001FA05F243EA020321FA04F001F000415C
:1007380021FA04F220EA020000EBD3705EEA430ECD
:1007480008BF20EAD37070BD94F0000F0FD101F0FC
:100758000046400041EB010111F4801F08BF013C35
:10076800F7D041EA060195F0000F18BF704703F073
:100778000046520043EB030313F4801F08BF013DFA
:10078800F7D043EA0603704794EA0C0F0CEA1355B6
:1007980018BF95EA0C0F0CD050EA410618BF52EA70
:1007A8004306D1D181EA030101F000414FF0000076
:1007B80070BD50EA410606BF1046194652EA430684
:1007C80019D094EA0C0F02D150EA013613D195EAF8
:1007D8000C0F05D152EA03361CBF104619460AD140
:1007E80081EA030101F0004141F0FE4141F470014A
:1007F8004FF0000070BD41F0FE4141F4780170BD3A
:1008080070B54FF0FF0C4CF4E06C1CEA11541DBF9E
:100818001CEA135594EA0C0F95EA0C0F00F0A7F8A0
:10082800A4EB050481EA030E52EA03354FEA0131CD
:1008380000F088804FEA03334FF0805545EA1313E0
:1008480043EA12634FEA022245EA111545EA1065A8
:100858004FEA00260EF000419D4208BF964244F13F
:10086800FD0404F5407402D25B084FEA3202B61A5E
:1008780065EB03055B084FEA32024FF480104FF432
:10088800002CB6EB020E75EB030E22BFB61A7546A6
:1008980040EA0C005B084FEA3202B6EB020E75EB39
:1008A800030E22BFB61A754640EA5C005B084FEAA1
:1008B8003202B6EB020E75EB030E22BFB61A75466E
:1008C80040EA9C005B084FEA3202B6EB020E75EB79
:1008D800030E22BFB61A754640EADC0055EA060E3A
:1008E80018D04FEA051545EA16754FEA06164FEA7D
:1008F800C30343EA52734FEAC2025FEA1C1CC0D129
:1009080011F4801F0BD141EA00014FF000004FF0B5
:10091800004CB6E711F4801F04BF01430020B4F176
:10092800FD0C88BFBCF5E06F3FF6AFAEB5EB030C2E
:1009380004BFB6EB020C5FEA500C50F1000041EB2B
:10094800045170BD0EF0004E4EEA113114EB5C04F8
:10095800C2BFD4EB0C0541EA045170BD41F48011CB
:100968004FF0000E013C90E645EA060E8DE60CEAD3
:10097800135594EA0C0F08BF95EA0C0F3FF43BAFF0
:1009880094EA0C0F0AD150EA01347FF434AF95EAA7
:100998000C0F7FF425AF104619462CE795EA0C0F8B
:1009A80006D152EA03353FF4FDAE1046194622E758
:1009B80050EA410618BF52EA43067FF4C5AE50EA32
:1009C80041047FF40DAF52EA43057FF4EBAE12E722
:1009D8004A0011D212F5001211D20DD56FF47873B6
:1009E800B3EB62520ED44FEAC12343F0004343EA0B
:1009F800505323FA02F070474FF00000704750EA56
:100A0800013002D14FF0FF3070474FF000007047BF
:100A180053B94AB9002908BF00281CBF4FF0FF315D
:100A28004FF0FF3000F070B9ADF1080C6DE904CE5D
:100A380000F006F8DDF804E0DDE9022304B07047B1
:100A48002DE9F047089E0D4604460F46002B4AD173
:100A58008A42944665D9B2FA82F343B102FA03FC9A
:100A6800C3F120029F4020FA02F217439C404FEA4C
:100A78001C4E1FFA8CF5B7FBFEF1220C0EFB11770A
:100A880042EA074201FB05F090420AD91CEB020238
:100A980001F1FF3780F01C81904240F21981023940
:100AA8006244121AA4B2B2FBFEF00EFB102244EA12
:100AB800024400FB05F5A5420AD91CEB040400F129
:100AC800FF3280F00781A54240F204816444023875
:100AD80040EA0140641B00211EB1DC400023C6E946
:100AE8000043BDE8F0878B4208D9002E00F0ED8066
:100AF8000021C6E900050846BDE8F087B3FA83F18E
:100B0800002949D1AB4202D3824200F2F880841A0C
:100B180065EB030201201746002EE2D0C6E9004724
:100B2800DFE702B9FFDEB2FA82F3002B40F09080D3
:100B38008A1A4FEA1C471FFA8CFE0121B2FBF7F50F
:100B480007FB1520220C42EA00420EFB05F09042FA
:100B580008D91CEB020205F1FF3802D2904200F2DC
:100B6800CB804546121AA4B2B2FBF7F007FB10225D
:100B780044EA02440EFB00FEA64508D91CEB040417
:100B880000F1FF3202D2A64500F2BB801046A4EB6A
:100B98000E0440EA05409FE7C1F120078B4022FA86
:100BA80007FC4CEA030C05FA01F420FA07F3FD40B0
:100BB8004FEA1C492343B5FBF9F81FFA8CFE09FBE1
:100BC80018551C0C44EA054408FB0EF5A54202FA28
:100BD80001F200FA01F00BD91CEB040408F1FF3A0A
:100BE80080F08880A54240F28580A8F1020864441C
:100BF800641B9DB2B4FBF9F309FB134445EA0444B2
:100C080003FB0EFEA64508D91CEB040403F1FF35CF
:100C18006CD2A6456AD9023B644443EA0843A3FB65
:100C28000295A4EB0E04AC42C846AE4656D353D048
:100C380056B1B0EB080264EB0E0404FA07F7CA4099
:100C4800CC401743C6E9007418460021BDE8F08778
:100C5800C3F1200102FA03FC20FA01F225FA01F19E
:100C68009D402A434FEA1C471FFA8CFEB1FBF7F060
:100C780007FB1015110C41EA054100FB0EF58D42EA
:100C880004FA03F408D91CEB010100F1FF382FD254
:100C98008D422DD902386144491B92B2B1FBF7F558
:100CA80007FB151142EA014205FB0EF1914208D9F2
:100CB8001CEB020205F1FF3816D2914214D9023D0D
:100CC8006244521A45EA004138E73146304608E79F
:100CD8003946E6E61046FBE64845A9D2B9EB0208D4
:100CE80065EB0C0E013BA3E74546EAE72B4694E784
:100CF8004046D1E7D0467BE7023D624432E70846EA
:100D08000AE76444023842E7704700BF0022427095
:100D180082700122C270B1FA81F10222490902717E
:100D2800032201704271704743788B421FD001291A
:100D380041700AD0022910D0C1B90123C370817053
:100D480002230371032343717047037843B10123DE
:100D580083700223C3700023F3E70378002BF6D0D7
:100D6800022383700023C3700123EAE7FEE770477C
:100D780082B00B88ADF800304B88ADF802308B8814
:100D8800ADF80430CB88ADF806300239431C053085
:100D980013F8012F0DF1080C0CEB4202834232F8D4
:100DA800082C21F8022FF3D102B070470A4B10B576
:100DB8004FF07F32C0E923234FF47F43A0F89430EB
:100DC800FF2380F896300446983000F0B2FC0023E8
:100DD80084F8A43010BD00BFFFFF7F0013B50446A0
:100DE8001146CDE9002300F03FFC009904F11400FE
:100DF80000F03AFC009904F1280000F035FC009955
:100E080004F13C0000F030FC009904F1500000F0BF
:100E18002BFC009904F1640000F026FC009904F111
:100E2800780000F021FC019A4FF4FA734FF4FA614C
:100E380004F1980000F068FC2046FFF7B7FF002394
:100E480084F8A5304FF47F43A4F8A63002B010BD53
:100E5800704700F010BC143000F00DBC08B55030DD
:100E680000F013FC292200F11403B3FBF2F313F092
:100E7800FF0302D1031E18BF0123184608BD08B599
:100E8800643000F002FC292200F11403B3FBF2F3F2
:100E980013F0FF0302D1031E18BF0123184608BD33
:100EA80090F8903013B990F98C00704790F98D0044
:100EB800704790F8903013B990F98E00704790F908
:100EC8008F00704710B504460BF036F838B104F1BE
:100ED8003C0000F0D4FB012838BF0120C0B210BD8F
:100EE800783000F0D4BB783000F0D9BB10B5044698
:100EF80000F09BFB04F1140000F097FB04F12800BC
:100F080000F093FB04F13C0000F08FFB04F150006B
:100F180000F097FB04F1640000F093FB04F1780003
:100F2800BDE8104000F093BB7F2807D0002807DAFF
:100F380010F1800F06D04042C0B2704700207047C1
:100F4800012070477F20704710B1404240B270477F
:100F58007F2070477F280FD010F1310F0EDA10F183
:100F6800780F0DDB7830FE2340B2584323304623F8
:100F7800B0FBF3F0C0B27047FF207047FE20704707
:100F880000207047012805DD40F2FE73984203DC1B
:100F980080B270470120704740F2FF707047A0F59B
:100FA8007870C0EBC02040F2AE7390FBF3F000F510
:100FB8008060FFF7E7BFFFF7F2BF032812DD0C28B8
:100FC80012DD0F2812DD122812DD162812DD19286D
:100FD80012DD1C2812DD1F2812DD2128CCBFFF20BE
:100FE8000620704700207047012070470220704794
:100FF8000820704703207047072070470420704777
:101008000520704704289ABF014B185CFF207047E1
:10101800EC2F010804289ABF014B185CFF20704789
:10102800F12F01087F2808BF0020C0B270477F2831
:1010380011D010F1320F10DA884210DD401A642303
:10104800C1F1FF21584301F57F01CE31313090FBCA
:10105800F1F0C0B27047FF2070476420704700204D
:10106800704700005AB110B4054C0A4411F8013B0E
:1010780058408A42205CF9D15DF8044B70477047AC
:10108800F82F0108392808D822280ED9094B233807
:10109800C0B2C34003F0010070475F2807D0613831
:1010A80019288CBF002001207047002070470120BC
:1010B800704700BF01EC7F00F8B50246451E461D8B
:1010C80000245F2715F8010FFF2804BF0134E4B29C
:1010D800FFF7D8FF00B92F70AE42F3D1062C04D128
:1010E80019B10B6813608B88938000239371F8BD46
:1010F8002DE9F843DFF83490471E441D01250026EA
:101108004FF0280817F8011F084811F0E4FE0346BD
:1011180010B1A0EB0903DBB2A3FB05329E19A7426D
:10112800A5FB0853EED13046BDE8F883F830010836
:1011380010B54179A1F13000C3B2092B07D80523B6
:10114800B0FBF3F303EB8303C01AC0B210BD044C29
:10115800204611F0C0FE0028F1D0001BC0B2EEE717
:10116800F8300108F0B5094B094F821D2826B1FB5C
:10117800F3F4272C94BF3D5D302502F8015D8242CF
:1011880003FB1411B3FBF6F3F1D1F0BD00801A068E
:10119800F830010870B50446FFF744F882B200231E
:1011A800551E98B2A84214FA83F104DA265C302E50
:1011B80003F10103F5D0121A01322046BDE8704050
:1011C80011F058BE2DE9F04F0D4699B01646002192
:1011D8001A461F46804611F067FE00212A2201A800
:1011E800009111F061FEDFF8CC90DFF8CCA0DFF8B9
:1011F800CCB005EB4606AE4211D16846FFF712F8AF
:1012080030B100F160030DEB0300002300F8613CEE
:101218006946404611F0A8FE19B0BDE8F08F35F9CF
:10122800020B47F6FF739842E7D0002812DC5946B4
:101238000CA811F099FE6846FEF7F4FF04460CA8C6
:10124800FEF7F0FF20448742D5D30CA9684611F079
:1012580033FED0E7B0F57A7F0BDA0CA980B210F034
:10126800D6F80CA8FFF796FF51460CA811F024FEFB
:10127800E1E764230CA93230B0FBF3F080B210F040
:10128800C6F80CA8FFF786FF0CA8FEF7CBFF00F105
:101298005F036B4400F160010DEB010013F8302C83
:1012A80000F8302C2E2203F8302C002300F82F3CB5
:1012B8004946DAE7E62F0108E12F0108DC2F01088B
:1012C800F0B589B06D4600242F468E1CE1B28A42E3
:1012D80004D83946FFF776FF09B0F0BD36F8241078
:1012E80025F8021B0134F1E742F210736421B0FBC8
:1012F800F3F203FB1200B0FBF1F301FB130000EB68
:10130800023000EB831080B27047020B00F03F03FD
:1013180042F2107101FB0233C0F38510642202FB14
:10132800003070472DE9F04142F2107388B0B1FBEC
:10133800F3F603FB16141F49DFF87C80054611F00D
:1013480013FE6946F0B210F03FF86846FFF722FF37
:101358006946284611F0B0FD4146284611F0ACFD1B
:1013680064276946B4FBF7F6F0B210F02DF868462A
:10137800FFF710FF6946284611F09EFD07FB16444B
:101388004146284611F098FD6946E0B210F01CF875
:101398009DF801308DF800309DF802308DF801304D
:1013A8006946002328468DF8023011F085FD08B003
:1013B800BDE8F081173E0108EA2F010870B50E4616
:1013C80000210546144611F06FFD00239AB294429D
:1013D80000D870BDF25C002AFBD0EA540133F5E76F
:1013E80070B50E46144600210132054611F05CFD29
:1013F80000239AB2944200D870BDF25C002AFBD058
:10140800EA540133F5E730B50024A3B2934201D37F
:10141800012005E0055D0B5D1DB9B3FA83F04009B5
:1014280030BD1BB19D4204F10104EED00020F7E766
:101438007D23438043F2390309B2C360002301804E
:101448008180C3800372704702680449044B01FB22
:10145800023323F000430360180C7047FD43030078
:10146800C39E2600F0B5002597B00160858004462C
:1014780056222946684611F017FD0126E27DAA4248
:1014880009D80023802104F1B800A37517B0BDE87E
:10149800F04011F009BD2046FFF7D6FFE7797B1B26
:1014A800002190FBF3F202FB1300C0B2EC460A469F
:1014B800CBB29F4223D800230022277B1146D0B20B
:1014C800874227D80029D9D1A279033A012A04EB07
:1014D800050105D925B191F9172012BB012BCDD9EA
:1014E8000B76A26852F82310583305F10E026B44AC
:1014F800013544F8221003F8586CEDB2BEE71CF829
:1015080001EBBEF1000F03D18242D5D00132D2B235
:101518000131CDE72069805C0132984208BF012182
:10152800CDE7501E8342DBDB01329342D8DCA5E7CE
:101538002DE9F047154696B0013D01600271044659
:101548004371EDB256220021684611F0ADFC002728
:10155800022D84BF4FF0010900253E464FF0010AD5
:1015680094F807809CBF4FF00309B8FBF9F8E27DB7
:10157800B24209D80023802104F1B800A37516B03F
:10158800BDE8F04711F090BC2046FFF75DFFA8EBDF
:101598000603002190FBF3F202FB1300C0B2EC46F5
:1015A8000A46CBB2434506D21CF801EBBEF1000F48
:1015B8002AD1824226D1434528BF434603FB09511D
:1015C800002094F80CE001F0FF018446C2B2964571
:1015D8001CD8BCF1000FCAD116B1FFB9012BC6D96E
:1015E800A2191F461176A26852F8211006F10E02C0
:1015F800013644F8221003F158026A44F6B202F8A0
:1016080058ACB4E70132D2B20131CAE72269125CA0
:1016180001308A4208BF4FF0010CD7E77A1E934287
:10162800DEDB7A1C9342DBDCA1E7D0E901236421ED
:10163800D31AC36082604B43418AB3FBF1F303744E
:101648007047D0E90123D31AC0E9022370474368E1
:101658002BB1C26864214A43B2FBF3F2D3B20374DC
:101668000023C360436070470023C0E9023341820E
:101678004360037470474368013343607047007CDC
:1016880070474368194441607047C068704711B19A
:10169800C3680133C3604368013343607047007C0B
:1016A800704700234360038170470A2310B504463E
:1016B800838001F0B3FF2368E0809B682046984749
:1016C8004FF62F03984228BF1846208110BD038982
:1016D80070B504469BB1858845B1013DADB28580A2
:1016E8006DB903681B68BDE87040184701F096FFA4
:1016F800E388C01A238980B2834201D2258170BD54
:10170800236820465B68EEE707EE902A0A44F8EE65
:10171800676A07EE902AF8EE677A436086EEA77A42
:1017280007EE903AF8EEE77A80ED007AC0ED027A9B
:101738007047D0ED017AF8EEE77AC0ED027A70478B
:1017480080EAE073022910B5A3EBE07304467DD16B
:1017580062B90028ACBF7F223F229342A8BF13463C
:10176800002C184601DA43F0400010BD012A1FD1B1
:10177800632B05DC5800002CF7DA40F48070F4E79E
:1017880040F2F542934211DC07EE903A9FED6A0A67
:10179800F8EEE77A27EE800A10F060FBFCEEC07ADC
:1017A80017EE900A400040F00100E4E7FF20E2E76E
:1017B800022A40F0BF80632B05DC9800002CD4DAA5
:1017C80040F40070D1E7B3F57A7F11DA07EE903A6A
:1017D8009FED590AF8EEE77A27EE800A10F03EFBF3
:1017E800FCEEC07A17EE900A800040F00100E5E7B1
:1017F80042F20F72934211D807EE903A9FED4F0ACA
:10180800F8EEE77A27EE800A10F028FBFCEEC07AA3
:1018180017EE900A800040F00200CFE7484A934252
:1018280011D807EE903A9FED470AF8EEE77A27EECF
:10183800800A10F013FBFCEEC07A17EE900A8300C2
:1018480043F00300BAE740F2FF10B7E7032971D16C
:10185800012A20D1B3F57A7F05DA5800002C84DA02
:1018680040F4006081E7B3F5205F11DA07EE903AA3
:101878009FED310AF8EEE77A27EE800A10F0EEFACB
:10188800FCEEC07A17EE900A430043F00100E5E74A
:1018980040F2FF70E2E7022A4CD1B3F57A7F06DA0C
:1018A8009800002CBFF661AF40F480505DE742F22B
:1018B8000F72934211DC07EE903A9FED1F0AF8EE83
:1018C800E77A27EE800A10F0C9FAFCEEC07A17EE24
:1018D800900A830043F00100E3E71B4A934211D8C2
:1018E80007EE903A9FED150AF8EEE77A27EE800AA0
:1018F80010F0B4FAFCEEC07A17EE900A830043F0B9
:101908000200CEE7B3F57A2F11D207EE903A9FED99
:101918000D0AF8EEE77A27EE800A10F09FFAFCEE3F
:10192800C07A17EE900A830043F00300B9E740F647
:10193800FF70B6E7002018E7CDCCCC3D0AD7233C92
:1019480017F001006F12833A9F860100002303609D
:101958007047000038B5084B09291B7828BF0921B2
:101968008B4204460D4602D10023036038BD01F0C6
:1019780049FE25712060F9E7CC030020036810B503
:1019880004460BB9002010BD01F03CFE2368C01AC4
:1019980040F2EE239842F5D90023054A23601278D5
:1019A80023799A42EED0034A0120D377EBE700BFB0
:1019B800CC03002024040020FF234371002301717D
:1019C800837103818372704738B5037904460D46E5
:1019D8005BB14179A94208D041B101290AD000235D
:1019E800A371657155B1012D0FD038BD03689B688F
:1019F8009847F4E703680021DB68F9E723689B68E8
:101A0800012120469847A071EFE723682946DB6843
:101A1800F7E72DE9F04F2DED068B85B0837B077C2A
:101A28000093C37B009A857CC67C90F815C090F81B
:101A380020E090F82280BF000C4647EA931703F095
:101A48003F01437C490141EAD20103F0010247EA20
:101A5800822705F00F02D20142EA530206F07F0303
:101A68001B0143EA1513057D01936D0045EAD61560
:101A78000CF0030645EA4623867D029206F01F0510
:101A8800AD0108EE103A45EA9C03C57D90F819C0EF
:101A98000391ED0008EE903A45EA5613057E0CF0E6
:101AA800070609EE103A45EA0623857E05F03F064B
:101AB800760109EE903A46EADC03C67E90F81CC02F
:101AC800B60046EA95160CF0010546EA8526457FDC
:101AD80005F00F0B4FEACB1B4BEA5C0B90F81EC0CE
:101AE8000CF07F0A4FEA0A1A4AEA151AC57F6D00F8
:101AF80045EADC150EF0030C45EA4C2590F821C0A8
:101B08000AEE103A4FEAC808009B48EA5C180CF045
:101B18001F0990F80DC003F007004CEA00204FEAB7
:101B2800891949EA9E09FFF73AFA0399208008467D
:101B3800FFF735FA60803846FFF731FA029AA0803D
:101B48001046FFF72CFA019BE0801846FFF727FAAA
:101B5800208118EE100AFFF722FA608118EE900A29
:101B6800FFF71DFAA08119EE100AFFF718FAE081B5
:101B780019EE900AFFF713FA20821AEE100AFFF7FF
:101B88000EFA60823046FFF70AFAA0825846FFF73D
:101B980006FAE0825046FFF702FA20832846FFF74C
:101BA800FEF960834846FFF7FAF9A0834046FFF73D
:101BB800F6F94FF48063E0832384638405B0BDECB9
:101BC800068BBDE8F08F2DE9F04104460F4601F081
:101BD80025FD4FF001080546236820461B689847F5
:101BE800064650B9A37A012B1FD12389ED1A40F676
:101BF800C4139D42C8BFA07217E0236820465B68E3
:101C08009847A37AA3B90F2814D1A4F80A80E37AD5
:101C1800E2180133DBB2182B1073E3720AD9394684
:101C28002046FFF7F6FE0023A3723046BDE8F08198
:101C3800012BECD02581CFE7827922B14379012BA2
:101C480001D8FFF7C0BF0020704770477047704742
:101C58007047002070470020704770470020704789
:101C680000207047054BDA6C0243DA64DB6C82B003
:101C780003400193019B02B0704700BF001002406F
:101C8800054B9A6D02439A659B6D82B003400193A0
:101C9800019B02B0704700BF00100240054B1A6E4E
:101CA80002431A661B6E82B003400193019B02B087
:101CB800704700BF0010024050E8003F43F0200387
:101CC80040E80032002AF7D1704750E8003F43F05F
:101CD800800340E80032002AF7D1704750E8003FFF
:101CE80023F0200340E80032002AF7D1704750E87B
:101CF800003F23F0400340E80032002AF7D1704744
:101D080050E8003F23F0800340E80032002AF7D172
:101D1800704770470288044B5140C9B233F81130FC
:101D280083EA122303807047205A0108A2B110B435
:101D3800B0F800C0094C0A4411F8013B83EA0C03CF
:101D4800DBB2914234F8133083EA1C2CA0F800C0AF
:101D5800F2D15DF8044B7047704700BF205A010864
:101D680037B54FF6FF730446ADF806304518AC4258
:101D780003D1BDF8060003B030BD14F8011B0DF106
:101D88000600FFF7C7FFF2E770470000044B18880A
:101D9800044B1B8880B29BB2C01A18BF0120704741
:101DA8002C2A00202A2A0020044B1888044B1B8860
:101DB80080B29BB2C01A18BF012070473436002089
:101DC80032360020044A00231380044A1380044A50
:101DD8001380044A138070473236002034360020BE
:101DE800363800203838002001207047704700003E
:101DF8000649074A0B8812880133C3F3080392B2D5
:101E08009A421EBF034AD0540B80704724260020F4
:101E180022260020222400200023A0F87032A0F8F7
:101E28006E3270470023A0F85C32A0F85A3270472F
:101E38002D4B5A6A037A92B263B18389D31A9BB243
:101E4800B3F5FA7F84BF00230372837A4F2B84BFD4
:101E580000230372037A8281082B0FD8DFE803F08E
:101E6800050E0E0E0E0E0F172200EE2901D0C829FE
:101E780004D1012383724175062303727047837A64
:101E88005A1C03448272597541720723F5E7827A16
:101E9800531C0244DBB283725175427A9A42EDD2E6
:101EA8000823EAE7837A5A1C034482725975C37D72
:101EB800162B04D1012380F865300923DDE7436937
:101EC8000A4A03F0FF2393424FF0010309D1428BE2
:101ED800B2F5A26F05D180F86730037F80F86830CB
:101EE800EBE780F86630E8E70004004000C80032FD
:101EF800044B1888044B1B8880B29BB2C01A18BFC9
:101F08000120704724260020222600207047B0F8C0
:101F18007032B0F86E22D21A93B2120441BFB0F8F0
:101F2800722201329B189BB2181E18BF01207047FD
:101F3800A0F11400EBE7B0F87032B0F86E229A42C4
:101F48001FBFC218B0F8721292F87422013316BF7C
:101F58000B400022A0F8703210467047A0F1140020
:101F6800E9E7000008B51E220348002110F09CFF95
:101F7800024B00221A7008BDA80D00207806002028
:101F880038B54A78352A0D46044601F10C010AD8BD
:101F980010F0F2FF68780021C0F136022044BDE855
:101FA800384010F081BF403551F8043B40F8043BFD
:101FB800A942F9D10B88038038BD38B54A781B2A65
:101FC8000C46054601F10C010AD810F0D5FF6078DF
:101FD8000021C0F11C022844BDE8384010F064BF5D
:101FE800283451F8043B45F8043BA142F9D138BDE7
:101FF80038B54A78082A0D46044601F10C010AD87A
:1020080010F0BAFF68780021C0F109022044BDE849
:10201800384010F049BFEB6803604B6843600B7AA7
:10202800037238BD38B54A78072A0C46054601F1CF
:102038000C010AD810F0A0FF60780021C0F1080256
:102048002844BDE8384010F02FBFE36803604B68B0
:10205800436038BD2DE9F0411378037092F8018090
:1020680080F80180FD2B04460F46154654D193781D
:102078008370D378C370137903715379437193795B
:1020880083716B7A127A1B0403EB0223EA791344F7
:1020980023F07F430A26A26863F31702A260A919F6
:1020A800424604F10C0010F067FF7A7B904507D296
:1020B80008F10C00A2EB08020021204410F0F4FE05
:1020C80063781E44AB195A78AB5D03EB0223A4F87E
:1020D8000C31A378DB070ED5023615FA86F304F522
:1020E800887203F10C0153F8040B42F8040B8B427D
:1020F800F9D11B781370BB7A84F82131FB7A84F804
:1021080022313B7B84F823317B7B84F824313B7874
:1021180084F82031BDE8F08100234380937803716F
:10212800D37843711379837153790626B3E770B571
:102138000B7803704B7843700B78FD2B05460C46E3
:1021480038D18B788370CB78C3700B7903714B7956
:1021580043718B7983718B68C3718B68C3F30F23C9
:1021680003728B7A43720A26627804F10C01A8196B
:1021780010F002FF6378B4F80C213344981CEA5439
:102188005A1CB4F80C1192B2090AA954A278D207C1
:1021980080B20ED504F58872054404F58E7452F8A1
:1021A800041B45F8041BA242F9D112782A700F3398
:1021B80098B270BD00238B700B7983704B79C37014
:1021C8008B7903718B6843710626CDE738B54A7859
:1021D800132A0C46054601F10C010AD810F0CCFE72
:1021E80060780021C0F114022844BDE8384010F09E
:1021F8005BBE203451F8043B45F8043BA142F9D1B9
:1022080038BD084611460EF062BE0EF0BFBD0EF096
:10221800F5BD0EF0CBBD08B50EF0AAFD003818BF0D
:10222800012008BD0EF036BD2DE9F04F0C4651884F
:10223800B1F58C7F054685B04FF000000ED31070C5
:10224800D91CC9B2012995BF0121002351805380AF
:102258009CBF2370117000232B7049E016780E2E56
:1022680000F2938001A757F826F000BF4922000822
:10227800B1220008D922000801230008932300088E
:10228800932300089323000893230008932300084E
:10229800932300089323000893230008932300083E
:1022A8009323000813230008481C508063542178A6
:1022B800FD299BB206D10C330A21D38091800223D9
:1022C8001370C8E708330621D38091800E23F7E7FF
:1022D800481C50806354D80742BFD1880D31D18043
:1022E800012B4FF000018CBF0B460323137029709C
:1022F800002005B0BDE8F08F481C508063540021D1
:102308008B4214BF0B460E23F0E7481C50806354E1
:102318005388D1888B4232D3002353801370022311
:102328002B7069802378FD2B35D163792B72A379C3
:102338006B72637A227A1B0403EB0223E27913445B
:102348006B60637803F10C026A80A278D10701D52B
:1023580019336B8000266968DFF8FC806E8140F2D3
:102368006B120C20B31801335B0800FB03F758F815
:102378000770B94218D25A1EB242F3D816E09288B2
:102388009A423FF668AF012366E71070508090804C
:10239800D0802870ACE7E3782B7223796B7263796D
:1023A8006B6063780833D4E71E46E5D80C2777437B
:1023B80058F80730994227D123782046FD2B10F88A
:1023C80001BF0CBF4FF00A094FF0060909EB0B03D8
:1023D800591E89B247440193FFF7C2FC97F804A03D
:1023E800ADF80E0051460DF10E00FFF793FC019B6E
:1023F800E218E35C527803EB0223BDF80E209BB28F
:102408009A420AD0052300E003232B7018460238AD
:1024180001288CBF002001206BE7BB79DA0706D5BD
:10242800FA79934582BF04EB09018A5CAA729B077B
:1024380009D50C2303FB068362781B7A9A4282BF74
:102448004C44E35CEB720C2303FB068385F80CA079
:102458005B796B730220DAE73C4801080148436A5C
:10246800FFF72ABC004400400A4A0B4B12680B498C
:10247800A3FB02323220920C00FB02F2084B4868A0
:1024880002F5FA72A3FB023292094B681B1A9A42B0
:10249800FBD870474402002083DE1B43001000E095
:1024A800D34D621008B5FFF7DFFF4FF090431022BD
:1024B8009A6108BD4FF0904310229A62FFF7D4BF8B
:1024C80030B587B0034601AC00F1100518685968AB
:1024D800224603C20833AB421446F7D10024094D03
:1024E8008DF81440A96801A8FDF792FE10B920B232
:1024F80007B030BD01342B2C05F10C05F2D14FF09B
:10250800FF30F5E72C000020028810B58488531CA2
:10251800234044889C421EBF12189171038010BD4D
:1025280070B5104C0025234626782EB166788E4269
:1025380002D1A67896420BD001350C2D04F1040483
:10254800F2D1002413F824501DB101340C2CF9D118
:1025580070BD012503F8245003EB8403D87059702B
:102568009A70F5E77D0600202DE9F8430B460D79B2
:102578005A7A9E7ADF7A204B097A1B5CDB0704467D
:1025880000D50DB9FFF7CCFF00231C491A4898461F
:102598004FF0010E9C4201F8018B25D02DB902782D
:1025A800920702D501F801EC1EE0154A4FF0000C25
:1025B80092F80090B9F1000F0FD092F80390994566
:1025C8000BD1002EEED092F80190B14505D1002F25
:1025D800E8D092F80290B945E4D00CF1010CBCF1B6
:1025E8000C0F02F10402E3D10133DBB2042B00F13A
:1025F8000100CFD1BDE8F883AD06002079060020A0
:102608007D060020F0B50546FD2305F80C3B85B096
:1026180004468DF8043090F8243103F10C0202448A
:10262800012B42D80026637066808DF805308B7ABE
:1026380023718DF808308B7AADF8066001338B7200
:1026480063798DF80930A3798DF80A30A368C3F34C
:1026580017031A128DF80B3009211B140DF1050010
:102668008DF80D308DF80C20FFF77AFB6778ADF800
:1026780002003A4629460DF10200FFF757FB94F88D
:102688002311FFF747FB94F82421BDF80230A4F882
:102698000C31974210D207F10C00D21B314620446E
:1026A80005B0BDE8F04010F0FFBB12F8010D00289E
:1026B800B8D1013BDBB2B3E705B0F0BD704707B551
:1026C80003688DF80710DB6801220DF107019847B0
:1026D80003B05DF804FB13B5044608460191FDF705
:1026E800A1FD23680199DB6882B2204602B0BDE8EB
:1026F80010401847B0F1904F08B5014607D10120A6
:10270800FFF7B0FA114B99420BD1202014E0104B7F
:1027180098420BD003F58063984209D10420FFF753
:10272800A1FA0C4B994210D1402005E00220E7E7BE
:10273800094B984204D10820BDE80840FFF792BA37
:10274800064B9842DED11020F6E708BD0014004879
:102758000004004800180048000C00480010004819
:1027680008B5224B984201460BD14FF40060FFF7A1
:1027780095FA1F4B99420DD1BDE808402020FFF77C
:102788007FBAB0F1804F0ED01A4B98420FD1022079
:10279800FFF776FA184B99420FD14FF40050BDE875
:1027A8000840FFF77BBA0120FFF76AFAE1E7134B0D
:1027B800984208D10420FFF763FA114B99420CD1D3
:1027C8004FF48030EBE70F4B9842D2D11020FFF73F
:1027D80057FA0D4B994206D008BD0C4B9942F8D1D7
:1027E8004FF40030DBE74FF48020D8E7002C01409D
:1027F800001400400004004000340140000800407C
:1028080000400140001000400048014000440140E1
:102818002DE9F04387B00E460546144600211422E0
:1028280001A89DF838809DF83C901F4610F03CFBAD
:1028380000960B2C07D8DFE804F007070A121414D7
:10284800141616161A1CFEE70323019301E002234F
:102858000493032F11D8DFE807F011132111012386
:10286800F6E70123F1E7012301930393F1E702233C
:10287800EBE7022301930123F7E7FEE70223029324
:10288800B8F1100F0CD8DFE808F02D2D0C11131536
:1028980017191B1D1F21232527292B000123EEE7CC
:1028A800FEE701230593022301931EE00223F9E7C3
:1028B8000323F7E70423F5E70523F3E70623F1E706
:1028C8000723EFE70823EDE70923EBE70A23E9E706
:1028D8000B23E7E70C23E5E70D23E3E70E23E1E706
:1028E8000F23DFE7B8F1000FDDD1B9F1000F02D0F7
:1028F8002846FFF7FFFE053C042C05D8DFE804F066
:10290800030B04030B00AE62694628460CF09EFADE
:1029180007B0BDE8F083AE61F6E713B54FF0010CE0
:102928000024CDE9004CFFF773FF02B010BD13B5CA
:102938000124CDE900340323FFF76AFF02B010BD7C
:1029480007B50D48FFF7CAF9036823F001030360D0
:10295800436823F400434360036843F001030360C2
:1029680008210023CDE90013044803230A22FFF7B6
:102978004FFF03B05DF804FB00440040000400482A
:1029880070B586B00023164604460D46ADF80630ED
:10299800FFF7E6FE042E04D8DFE806F030340438EA
:1029A8004100FEE71F4B204A1B68B3FBF2F39BB2C2
:1029B8000022013B01A92046ADF80430CDE90225EB
:1029C800049205920CF0BCFC236823F0800323607A
:1029D800A36823F4A03323F00703A360636823F0FC
:1029E800007323F070036360636823F4700363600B
:1029F800A36823F08003A36006B070BD094B0B4A9F
:102A08001B68D2E7074B0A4A1B68CEE7054B074A03
:102A18001B68B3FBF2F303EB83035B00C7E70123F7
:102A2800C6E700BF4402002080A8120140420F0000
:102A38008096980010B50446FFF7A2FF236843F07C
:102A48000103236010BD00224FF0FF31FFF7F2BFF2
:102A58001B4B10B51B4C5B6823600EF06FF90AF036
:102A6800B3FB4FF090400CF091F917480CF08EF939
:102A780016480CF08BF916480CF0BEFC15480CF003
:102A8800BBFC0CF029FB4FF0E022002313615361DB
:102A9800936172B64FF0FF319A0002F1604202F57D
:102AA80061420133082BC2F88010C2F88011F3D1BB
:102AB80062B6034B1B6883F3088823689847FEE7D0
:102AC8000000FF1F740600200004004800080048AA
:102AD80000380140004400400749084A881AEFF3CB
:102AE8000883521A1A44013A013B984288BF0022CF
:102AF800AA2110F0D9B900BF00800020000400000E
:102B080010B5114C0323204606224021FFF705FF8C
:102B1800032302224FF400414FF09040FFF7FDFEDF
:102B280003231A4620462021FFF7F7FE20460323F9
:102B380005228021FFF7F1FE20460323BDE810405F
:102B480005220121FFF7E9BE00040048024B18697D
:102B5800C0F34010704700BF0004004808B5FFF7F5
:102B6800F5FF00B908BD00BFF9E70000024B0122DC
:102B78009A6280229A61704700040048024B8022C2
:102B88009A6201229A61704700040048104A53690A
:102B98004FF4704123F4704391FAA1F153610D4B46
:102BA8005A6822F400425A601A6822F400421A60F5
:102BB800DA6822F40042DA609A6842F400429A60C5
:102BC800054BD02283F828234FF480725A6070474F
:102BD800000001400004014000E100E0044B4FF414
:102BE80000425A611A6842F400421A60704700BFF6
:102BF800000401400348002303224FF48071FFF7CB
:102C08008CBE00BF00040048024B1869C0F30020C6
:102C1800704700BF0004004808B5052200230221C0
:102C28004FF09040FFF779FE0023052201214FF075
:102C38009040FFF772FE4FF0904302229A62012201
:102C48009A6208BD4FF090414B691A04DB4302F4C5
:102C5800003203F0020313438B6170474FF0904139
:102C68004B691A04DB4302F4803203F00103134377
:102C78008B61704708B5052200234FF480714FF02F
:102C88009040FFF74AFE4FF090434FF480729A62EB
:102C980008BD4FF090431A284FF48072CCBF9A6158
:102CA8009A6270471D2820DC1A2807DD022B0CBF0A
:102CB800FA20FD201B23087013707047172805DDC4
:102CC800022B0CBFF720FA201823F4E7152806DD9D
:102CD800022B15BFF820F72016231823EBE7022B49
:102CE8000CBF18231523F720E5E70A201E23E2E787
:102CF80010B40446084611461A46A3685DF8044B0A
:102D08005B7AFFF7CFBF00000C4BD3F8FC2022F012
:102D18008072C3F8FC20D3F8FC2042F08072C3F81C
:102D2800FC20A3F55D431A6822F001021A601A68B4
:102D380042F001021A6000225A60704700ED00E07C
:102D4800064A074B51681B6810B5064CB3FBF4F3F1
:102D5800584353685B1A8342FBD310BD001000E050
:102D68004402002040420F007FB50123CDE904133F
:102D7800002201A902A8CDE902230AF0E1FB0028FC
:102D88000CBF0420052007B05DF804FB014608B518
:102D980000200AF03FFB00280CBF0420052008BDD6
:102DA80008B5FFF7E1FF031F5842584108BD08B5B1
:102DB800FFF7ECFF031F5842584108BD2DE9F347C0
:102DC8002A4B2B4D012814462A482B4A0E4617BF7A
:102DD800AA463D213C211D46019106BF9A468046E0
:102DE80090460AF0D1FA01992846FFF7D9FF30B981
:102DF80000240AF0DBFA204602B0BDE8F087002E76
:102E080008BF4FF4FC64073424F0070405F11007E9
:102E1800B1463444AAEB050AA1450BD14FF0113253
:102E28004FF0FF332846FFF7C2FF003818BF0120D4
:102E38008400DEE76EB90AEB0703D3E90023B3F198
:102E4800FF3F08BFB2F1FF3F06D1083709F1080973
:102E5800E2E7D9E90023F2E7B84505D93846FFF794
:102E6800A6FF0028F1D1C3E70324C2E700E0010868
:102E780000E80108FFEF0108FFE7010810B50AF0B4
:102E880083FA09483C21FFF78BFF58B107483D21D9
:102E9800FFF786FF003818BF012084000AF086FA81
:102EA800204610BD0446F9E700E0010800E80108E3
:102EB80030B5084D002340F2EF749AB2914201D820
:102EC800042030BDA34203D05A5DC2540133F4E755
:102ED8000320F6E710E0010813B50A46044672B667
:102EE800019101460020FFF769FF62B60428019AA4
:102EF80005D172B601202146FFF760FF62B602B025
:102F080010BD000038B5124B1C68D3F80058B4F156
:102F1800113F09D1B5F1113F17D000221146012008
:102F2800BDE83840FFF74ABFB5F1113F03D1002291
:102F380011461046F4E7FFF7A1FF042804D12C40FE
:102F480001340CBF0220012038BD0420FCE700BF7B
:102F580000E00108034B18739A68D207FCD5187B68
:102F6800704700BF0030014038B5441E8D18A94293
:102F780000D138BD14F8010FFFF7ECFF01F8010B81
:102F8800F5E7084611461A46FFF7EEBF38B5064D75
:102F980004460144A14200D138BD2878FFF7DAFF82
:102FA80004F8010BF6E700BF380200200846114676
:102FB800FFF7ECBF10B5014404468C4200D110BDA8
:102FC80014F8010BFFF7C6FFF7E708461146FFF7AD
:102FD800F1BF000010B58AB02822002168460FF022
:102FE80063FF4FF48050FEF759FE10210323062299
:102FF8004FF09040FFF791FC4FF090401023836111
:103008000A2206232021FFF792FC06230A228021A8
:103018004FF09040FFF78BFC0623032240214FF02E
:103028009040FFF784FC1822154C06924FF48272E8
:10303800002301924FF40072CDE90333CDE9073341
:103048000093059207234FF4E062694620460993EE
:1030580002920CF03BF9636823F010036360636825
:1030680023F008036360236843F040032360A368E8
:103078009B07FCD5237B034BFF221A700AB010BDB7
:1030880000300140380200201C4B10B4DC69A00657
:1030980011D51A6891060ED519481A495A6A038833
:1030A80009880133C3F3080389B299421FBF16493F
:1030B800D2B2CA54038011481F232206036215D5D1
:1030C80003681B0612D5114B114A1988138889B257
:1030D8009BB299420DD013880133C3F309031380BF
:1030E80013880C4A9BB2D35CDBB283625DF8044B55
:1030F80070475DF8044BFEF703BE00BF0080004038
:103108002C2A00202A2A00202A280020302E0020DD
:103118002E2E00202E2A00200A490B4A08B50B88BB
:1031280012880133C3F3090392B29A4207D0074ABF
:10313800D05407480B80FEF7C8FD012008BD0020C9
:10314800FCE700BF302E00202E2E00202E2A002063
:103158000080004038B504464518AC4200D138BD5F
:1031680014F8010BFFF7D8FFF7E708461146FFF7F9
:10317800F1BF00000848094A0188138889B29BB248
:103188009942F9D013880133C3F3080313801388D5
:10319800034A9BB2D05C70472C2A00202A2A0020C0
:1031A8002A280020FFF7E6BF70B588B00C4606460F
:1031B800154600211C2201A80FF076FE231E18BF19
:1031C80001231B03CDE9033501A90C23034802960B
:1031D800059406930BF0D4FE08B070BD0080004043
:1031E80013B53B4C236823F001032360394BDA6D98
:1031F80042F00102DA65DB6D03F001030193019BE4
:103208000A220D2304214FF09040FFF790FB0D2375
:10321800032208214FF09040FFF789FB0022114656
:103228004FF4E130FFF7C0FF236823F00053236019
:1032380004F1080353E8003F23F0604304F1080158
:1032480041E80032002AF3D104F1080353E8003FB3
:1032580023F0606304F1080242E800310029F3D149
:103268001D4BB02283F85B234FF000629A60184828
:10327800FEF746FDFEF73BFD40232362174B1980FE
:10328800174B1980FEF72AFD164B1980164B19802B
:10329800636823F400636360A36823F00803A360F2
:1032A800636823F480436360A36823F02203A36068
:1032B800A36843F48053A360236843F001032360A9
:1032C800C3699A02FCD5C3695B02F9D502B010BD87
:1032D800008000400010024000E100E02E2E002097
:1032E800302E00202A2A00202C2A002008B5FFF7BB
:1032F80077FF0348436ABDE80840FEF7DDBC00BF1E
:1033080000800040FFF7F2BF1C4B10B4DC69A00638
:1033180011D51A6891060ED519481A495A6A0388B0
:1033280009880133C3F30A0389B299421FBF1649BA
:10333800D2B2CA54038011481F232206036215D54E
:1033480003681B0612D5114B114A1988138889B2D4
:103358009BB299420DD013880133C3F3080313803D
:1033680013880C4A9BB2D35CDBB283625DF8044BD2
:1033780070475DF8044BFEF7C3BC00BF003801403E
:103388003436002032360020322E00203838002013
:1033980036380020363600200A490B4A08B50B8813
:1033A80012880133C3F3080392B29A4207D0074A3E
:1033B800D05407480B80FEF788FC012008BD002088
:1033C800FCE700BF383800203638002036360020A9
:1033D8000038014038B504464518AC4200D138BD24
:1033E80014F8010BFFF7D8FFF7E708461146FFF777
:1033F800F1BF0000054B064A1B8812889B1A98B239
:103408001B0444BF00F5006080B2704734360020CA
:1034180032360020FFF7EEBF0848094A01881388B2
:1034280089B29BB29942F9D013880133C3F30A03D6
:1034380013801388034A9BB2D05C7047343600204F
:1034480032360020322E0020FFF7E6BF70B588B074
:103458000C46064615460021202268460FF024FD3A
:10346800231E18BF01231B03CDE9023569460C232F
:1034780003480196049405930CF000F808B070BD59
:103488000038014010B5064C236823F0010323607F
:10349800FFF7DCFF236843F00103236010BD00BF82
:1034A80000380140002208461146FFF7EBBF000034
:1034B80010B53D4C236823F0010323604FF480408E
:1034C800FEF7ECFB4FF4007108230A224FF09040FE
:1034D800FFF72DFA082303224FF480614FF0904044
:1034E800FFF725FA002211464FF4E130FFF7AEFF4F
:1034F80063682E4A23F490436360A36823F02A0389
:10350800A360236823F00053236002F6080353E8FE
:10351800003F23F0604302F6080040E8003100292C
:10352800F3D102F6080353E8003F23F0606302F684
:10353800080040E800310029F3D11D4BF02283F840
:10354800252320225A601848FEF7DAFBFEF7CFFB46
:1035580040230362174B1980174B1980FEF7BEFBF7
:10356800164B1980164B1980436823F40063436097
:10357800836823F008038360436823F4804343602F
:10358800836823F022038360836843F48053836055
:10359800036843F001030360C3699A02FCD5C36959
:1035A8005B02F9D510BD00BF003801400030014072
:1035B80000E100E03638002038380020323600209C
:1035C8003436002008B5FFF773FF0348436ABDE8A7
:1035D8000840FEF771BB00BF00380140FFF7F2BF9B
:1035E800054A0649136809680B441360044A1368BE
:1035F80001331360704700BF48380020480200209C
:10360800940B0020014B1868704700BF4838002011
:103618000148FFF718BA00BF00040040014B586A80
:1036280080B2704700040040024B00221A60FFF786
:10363800EFBF00BF940B002038B5194C9022002131
:10364800201D0FF031FC06232380162363800F23EF
:103658001449A38005222C23A01DFDF731FE124A30
:10366800124B10490025C4E90D2304F13E002C2318
:103678000522A587FDF724FE02230D49E36604F120
:103688007A0084F870506567A4F878500FF06CFCE5
:103698007F2384F88F30052384F8903038BD00BF2D
:1036A800E00500206C40010802000F00030007003D
:1036B8007F31010870B5094E05460C46415C30461D
:1036C8000FF009FC034628B1831B0133DBB2282B1A
:1036D80028BF0023F35C2B5570BD00BF10470108BD
:1036E80070B50C46114606460FF03EFC44B1002565
:1036F800052130460135FFF7DDFFEBB29C42F7D8D4
:1037080070BD000073B5054605F111061D4C1E4A33
:10371800014636016846FFF7E3FFB01C69462044BE
:1037280026440FF021FC0223737204EB05130022D8
:10373800A3F81A21142303FB05400421012380F870
:1037480050104FF48071A0F84A30C364A0F852308A
:10375800A0F85410E384A16284F82E3040F20321CB
:1037680084F8303040F20113A185C4F83A20C4F837
:103778003E20C4F84220A4F84630A4F8483002B0ED
:1037880070BD00BF2404002050310108F7B505467C
:10379800B04CB14A05F11106014637016846FFF7FA
:1037A8009FFFB81C274469462044FDF785FC7B7AB7
:1037B800AA4A052B88BF022304EB061088BF7B7238
:1037C8001188437A41FA03F3DF070FD402234372C7
:1037D80061B14807C1F3800308D441FA03F7FF0732
:1037E800D8B240F1C98104EB0613587204EB0511F5
:1037F8002B0191F81A01042802D9002081F81A0136
:10380800E718508897F81A1140FA01F1C90711D43E
:10381800012187F81A1168B18707C0F3400109D45C
:1038280040FA01FC1CF0010FCFB200F0AA81E118A8
:1038380081F81A71E11891F81B01032802D90020B8
:1038480081F81B01E718908897F81B1140FA01F1DD
:1038580011F001010FD187F81B1160B110F00101BF
:1038680009D140FA01FC1CF0010FCFB200F08E81A3
:10387800E11881F81B7104EB0616717A012905D944
:1038880004291EBF1B19002183F81B11142303FBF5
:10389800054191F84A00042802D9012081F84A001C
:1038A80003FB054393F84B10042902D9002183F840
:1038B8004B10142303FB0543918E93F84B0041FAF8
:1038C80000F0C00712D4012083F84B0071B18807BB
:1038D800C1F340030AD441FA03F6F707D8B240F11E
:1038E8005A81142303FB054383F84B00142303FB7D
:1038F800054393F84C10032902D9012183F84C1091
:10390800142000FB0540D18E90F84C3041FA03F3A7
:1039180013F0010310D180F84C3069B111F00103A4
:103928000AD141FA03F6F607D8B240F139811423D7
:1039380003FB054383F84C00142303FB054393F86A
:103948004E10012902D9002183F84E10142000FBE3
:103958000540118F90F84E3041FA03F313F001033C
:1039680010D180F84E3069B111F001030AD141FA43
:1039780003F6F707D8B240F11881142303FB054377
:1039880083F84E00142303FB054393F84F100229D4
:1039980002D9002183F84F10142000FB0540518FF5
:1039A80090F84F3041FA03F313F0010310D180F877
:1039B8004F3069B111F001030AD141FA03F6F60755
:1039C800D8B240F1F780142303FB054383F84F0076
:1039D800142303FB054191F84D00022802D9002069
:1039E80081F84D0003FB054393F85010052902D9CF
:1039F800042183F85010142303FB054191F8520069
:103A0800012802D9012081F8520003FB054393F8ED
:103A18005510012902D9012183F85510142303FBFD
:103A2800054393F85310022902D9002183F8531053
:103A3800142000FB0540918F90F8533041FA03F3AE
:103A480013F0010317D180F85330A1B111F001032D
:103A580011D105E02404002050310108E0050020C0
:103A680041FA03F6F707D8B240F1A980142303FB03
:103A7800054383F85300142303FB054191F85400D0
:103A8800022802D9002081F8540003FB054393F86B
:103A98004C10012906D193F84F10022904BF0021C8
:103AA80083F84F1094F82630042B02D9012384F8A8
:103AB800263094F82730042B02D9002384F82730C5
:103AC800B2F86C0094F8273040FA03F313F0010FB2
:103AD800694B0ED1012184F8271050B18607C0F335
:103AE800400106D440FA01F7FF07CEB26CD583F83F
:103AF800276094F82810022902D9002184F8281098
:103B080094F82910022902D9012184F82910B2F861
:103B18006E1094F8292041FA02F212F001020CD139
:103B280084F8292049B111F0010206D141FA02F6C0
:103B3800F607D0B24CD583F8290094F82A200C2A2D
:103B480002D9002284F82A2093F832200C2A02D9BC
:103B5800002283F8322093F82B20042A02D900226D
:103B680083F82B2000224549104611F9014F14F122
:103B7800780F31DA087031E00133102B7FF42DAE65
:103B880034E6013110297FF44BAE53E60131102998
:103B98007FF467AE6FE60133102B7FF49CAEA5E689
:103BA8000133102B7FF4BDAEC6E60133102B7FF432
:103BB800DEAEE7E60133102B7FF4FFAE08E70133F2
:103BC800102B7FF44DAF56E7013110298AD190E7C9
:103BD8000132102AAAD1B0E7782CCBDC0132D2B25C
:103BE8000C2AC2D126490022012011F8014F0132C6
:103BF800022CD2B288BF0870042AF6D193F82C2080
:103C0800052A02D9032283F82C2093F82D20022AB2
:103C180002D9022283F82D2093F82E20022A02D9F5
:103C2800012283F82E2093F83020022A02D901229B
:103C380083F83020142101FB0530FF2203EB051423
:103C480080F8512083F82F2083F831204FF6FF7039
:103C58004FF0FF32C4F81C21A4F82001562411FBB0
:103C680005415C181A629A845A50626083F83300DE
:103C78005A631A8703B0F0BD240400205D040020B5
:103C88006904002030B5042804D8DFE800F01E04D9
:103C980023191E00FEE720251F2400220F21104BA8
:103CA80098700338012894BF002001201A711977F1
:103CB8001A74A3F84850A3F84A409873987630BD10
:103CC80009256F2400220721E9E714253224002260
:103CD8000A21E4E73525132401221921DFE700BF73
:103CE800CC0300202DE9F04300F11105784F794C01
:103CF8002D0105F10209B94485B006464846FDF78D
:103D0800F7F904218046039003A8FEF729F8142345
:103D180003FB06733D4493F84A206F4BE08313F985
:103D28002230237323766D4B23656B7A637007EB20
:103D38000613C4F8088093F81A01C4F814804FF0E9
:103D4800000884F85480FFF79DFF654A637812885D
:103D5800A285E28B63733501637684F8283062624A
:103D680084F82A8023B94846FDF7E2F984F82A0046
:103D78003D4495F81B2184F829206AB1E18B02EBB8
:103D8800021303EB03230B44E383A3684FF01131C1
:103D980001FB0233A360636194F82830052B04D833
:103DA800DFE803F00447493D3F45FEE7A378032BCE
:103DB80003D8DFE803F003424403FEE7182507EEC3
:103DC800905ADFF820C184F82050F8EEE77A1CE911
:103DD8000F00B7EE087A67EE877A8CE80F00FCEEE2
:103DE800E77A40F2E243CDED017AA4F84C309DF831
:103DF8000430B4F84820A4F84E304FF47A73B3FB7B
:103E0800F2F3A4F84030142303FB067393F8503000
:103E1800052B3DD8DFE803F0154236393C3F022533
:103E2800CDE7A378012B08D0022B08D0FEE70325A5
:103E3800C5E71925C3E70625C1E71225BFE70C2505
:103E4800BDE74FF416536364002384F8553084F8B3
:103E58005730142303FB067696F84C20032A03D028
:103E680096F84F30022B02D1012384F85530511EA9
:103E78004B424B4194F8551084F8563089B1012AC9
:103E88000FD1FEE74FF41643DDE74FF46143DAE75D
:103E98004FF4E133D7E74FF46133D4E74FF4964357
:103EA800D1E72378142000FB037393F84C30022BDE
:103EB80007D1012384F8573021B194F857301BB14A
:103EC800FEE709B9012AF8D005B0BDE8F08300BFC4
:103ED80024040020CC0300206C40010801010001EB
:103EE800E0050020FC03002002484FF4DE72FF21A9
:103EF8000EF0DABF2404002002484FF4DE71FEF70A
:103F0800EBBF00BF2404002002484FF4DE71FEF727
:103F1800CFBF00BF2404002008B5FFF7F5FF034B0F
:103F28001878BDE80840FFF731BC00BFCC0300207B
:103F380070B5FFF7D9FFFEF7E5FF04280CD0FFF7AF
:103F4800D3FFFEF7DFFF042803D1FFF7DDFF0428C6
:103F580006D0FFF7C9FF03E0FFF7D6FF0428EED12C
:103F68005749584810220EF0C3FF08B1FFF7BCFFAD
:103F7800544CA38A40F24F12934267D0B3F5A47F02
:103F880036D8062204F1160104F58970FDF728FADF
:103F9800637F84F81931A37F84F81A3101252846F4
:103FA8000135EDB2FFF7AEFB0A2DF8D10023E37718
:103FB80040F24F13A382012522694149414842F644
:103FC8003D039A424FF010021CBF236101250EF0F9
:103FD8008FFF00283CD03A493A481022FDF7EEF905
:103FE80039493A480822FDF7E9F9FFF785FF31E03A
:103FF800B3F5A77F22D823460022032501210226F4
:1040080093F84C0001280DD003280ED093F84F00E8
:1040180001280DD002280ED001320A2A03F1140318
:10402800EED1C5E783F84C50F0E783F84C10EDE784
:1040380083F84F60F0E783F84F10EDE70025E8B20A
:104048000135FFF75FFB0A2DF9D1AFE70025B3E78C
:10405800002DCAD1E37F092B84BF0023E377E17FDA
:10406800142303FB014393F84C2002F0FD02012ABC
:1040780017D114490022013293F84C0081F84C0002
:104088000A2A01F11401F6D1114DE37F2B70FFF7D5
:10409800D3FA2878FFF77AFB2878BDE87040FFF755
:1040A80021BE49B10B4903F14A025E3352F8040BB1
:1040B80041F8040B9A42F9D10023E377E4E700BF03
:1040C800573101082404002068310108D605002072
:1040D800CC0300206E0400200129F7B5054600D95D
:1040E800FEE70F4E06EB01131C460F016278F15DE7
:1040F80003619B780DF090FBE678E3790193A3794F
:10410800009331462846637922790DF09AFB06EB35
:104118004606B108284603B0BDE8F0400DF0E9BCFA
:10412800405C010838B50246044652F8183BDD6980
:1041380000F11903A847217E20460022BDE8384037
:104148000DF0E1BB70B58160897A88B0044601B191
:1041580001210DF03CFB01230DF11F0240F6D801AF
:1041680020460DF092FA9DF81F3043F01E0340F6EA
:10417800D8018DF81F300DF11F02012320460DF0E4
:104188004EFA20460DF097FC217BFF2903D0FA2236
:1041980020460DF09CFCA3685B7A013B042B04D8F5
:1041A800DFE803F0043E41413E00FEE7E922E12159
:1041B80020460DF0E5FC012120460DF059FC962122
:1041C80020460DF0C1FC382120460DF0C4FC2046E5
:1041D8000DF0C8FCA368204693F90810FFF7A2FF6A
:1041E800A3689D7A15B319782046FFF775FF00225A
:1041F800114620460DF003FB0023009340F20322F2
:1042080020464FF6FF710DF04BFB20464FF6FF712D
:104218000DF06DFB204608B0BDE870400DF038BCCD
:10422800DB22D721C4E76F226B21C1E70F4B10496E
:10423800DE8B104B63614CF25033009320461923F8
:104248000B220DF0ADFC0123CDE903335B23CDE94F
:104258000153102319462046009504220DF0D2FC84
:10426800314620460DF0F2FCC1E700BFCC03002028
:10427800A0860100205C010810B504460DF008FC7A
:1042880020464FF6FF71BDE810400DF030BB00002E
:1042980038B58168036891F90810DD69044600F1B2
:1042A800190300F11802A847A3689A7A42B11A784C
:1042B800012A00D9FEE7044B03EB0213236138BD42
:1042C800024B6361FBE700BF405C0108205C01080A
:1042D80010B5094C236923B9636913B92046FFF760
:1042E800D7FFA3689B7A23B123699868A0F57A70F1
:1042F80010BD63699869F9E730230020036910B598
:1043080004461BB943690BB9FFF7C2FFA3689B7A40
:104318001BB12369B3F90C0010BD6369B3F91C0024
:10432800FAE7036910B504461BB943690BB9FFF7EF
:10433800AFFF94F9190010BD90F8D8305BB190F830
:10434800D930074A180102EB03139B6819781358F0
:1043580053F821007047837D0E3350F823007047CF
:104368000C4001082DE9F3419DF824701646402FB2
:1043780088464FF05B024FF0000104461D4628BFF7
:1043880040270EF091FD8E4BDB8B23803278A3788B
:1043980062F30203A3707378DB0003F0080343EAB7
:1043A8000811A37803F007031943A1707279E37821
:1043B80062F30003E370B279637962F38613637181
:1043C80096F90200FCF7B0FDE37860F34703E37069
:1043D800F278237962F3060323713279DBB202F0B3
:1043E800010203F07F0343EAC21323713279637930
:1043F800C2F3450223F03F0313436371A37967F3C4
:104408004703A3712B78AA78E3716B7802F01F0237
:1044180003F0070343EAC20323726A88637AC2F38C
:10442800451223F03F03134363722A79DBB202F08B
:10443800030203F03F0343EA82136372AB88C3F3BA
:104448008703A3726A79E37AC2F3800223F0010337
:104458001343E372AA79DBB202F07F0203F001038F
:1044680043EA4203E372EA88237BC2F3C31223F0D0
:104478000F03134323732B7AE373AA7A6B7A02F040
:104488001F0203F0070343EAC20323746A89637CAB
:10449800C2F3451223F03F03134363742A7BDBB254
:1044A80002F0030203F03F0343EA82136374AB890B
:1044B800C3F38703A3746A7BE37CC2F3800223F00F
:1044C80001031343E374AA7BDBB202F07F0203F01B
:1044D800010343EA4203E374EA89237DC2F3C3126A
:1044E80023F00F03134323752B8ADB0863756B8A4C
:1044F800DB08A375AB8ADB08E375EB8ADB08237658
:104508002B8BB3F5C06F4ED2B3F5007F94BF002359
:104518000123227B63F3051222736B8BB3F5C06F03
:1045280043D2B3F5007F94BF00230123227B63F3BA
:1045380087122273AB8BB3F5C06F38D2B3F5007F07
:1045480094BF00230123227D63F305122275EB8BB0
:10455800B3F5C06F2DD2B3F5007F94BF00230123BC
:10456800227D63F38712089B22751F4404F1180209
:10457800BB4220D14FF6FF7321460DF106000D22F4
:10458800ADF80630FDF7D2FB2146BDF8063021F81C
:104598000D3F4C22FDF7CAFBBDF80630A4F8593090
:1045A80002B0BDE8F0810223B3E70223BEE702238D
:1045B800C9E70223D4E713F8011B02F8011FD7E764
:1045C800CC03002013B59DF81040CDE90034134604
:1045D8000A460021FFF7C6FE02B010BD13B5144B02
:1045E8000288DB8B9A4204461DD1837803F0F003DE
:1045F800102B01D0202B18D1A379A52B15D84FF655
:10460800FF730DF1060059222146ADF80630FDF77B
:104618008DFBB4F85900BDF80630C01A18BF012048
:10462800800002B010BD0120FBE70220F9E700BFBF
:10463800CC03002030B5314B027893F8261061F393
:104648000302027093F8271061F30712027093F8BF
:104658002810427861F30302427093F8291061F33D
:104668000712427093F82A10827861F3030282706D
:1046780093F83210827961F30302827193F82B1058
:10468800827861F30712827093F82C10C27861F374
:104698000302C27093F82D1061F30712C27093F8E9
:1046A8002E10027961F30302027193F830104279F7
:1046B80061F30302427103F1390100F10A0200F1CA
:1046C800160411F9015F02F8015FA242F9D193F8CB
:1046D8004610C27D61F30102C27593F8471061F379
:1046E8008302C27593F8481061F30512C27593F8F6
:1046F800493063F38712C27530BD00BF240400201F
:1047080002782C4BC2F3030230B583F826200278D6
:10471800C2F3031283F827204278C2F3030283F816
:1047280028204278C2F3031283F829208278C2F342
:10473800030283F82A208279C2F3030283F8322025
:104748008278C2F3031283F82B20C278C2F30302E3
:1047580083F82C20C278C2F3031283F82D20027943
:10476800C2F3030283F82E204279C2F3030283F8CE
:10477800302003F1390100F10A0200F1160412F9A0
:10478800015F01F8015FA242F9D1C27DC2F30102C3
:1047980083F84620C27DC2F3810283F84720C27D98
:1047A800C2F3011283F84820C27DC2F3811283F854
:1047B800492030BD240400201FB58DF80C3001239A
:1047C800019303AB009313460A460221FFF7CAFD83
:1047D80005B05DF804FB0000F0B51F4D012385F816
:1047E8007030044685B0B0F80900FCF78EFD6867A4
:1047F800B4F80B30A5F87830142204F10D0105F156
:104808007A00FCF7EDFD94F9213085F88F3094F8A3
:10481800223085F8903004F12300FFF771FF6E46CF
:1048280004F1410304F1510718685968324603C27C
:104838000833BB421646F7D108482C23082269469C
:10484800FCF7C0FC94F85130A5F86C3094F852305D
:10485800A5F86E3005B0F0BDE00500201E0600206A
:104868002DE9F04395B0DFF89090039204AF4FF034
:10487800400805460E464246002138460EF014FB15
:104888001C4C99F80010222204EB01118DF810201D
:104898000DF11200062201F58971FCF78FFD99F8D8
:1048A800000004EB001107A891F81A2191F81941AA
:1048B80002F00F0204F00F0444EA021491F81B21DD
:1048C80002F00F0244EA0224BDF8182022F47F62A5
:1048D80022F00F021443ADF81840FFF7ABFECDE904
:1048E8000078039B324602212846FFF73BFD15B0AE
:1048F800BDE8F08324040020CC0300200A4A126893
:1049080082600A4A00238380837183810384136849
:1049180003615368064A4361136883615368C3613E
:104928004EF6602303607047483800206E31010856
:104938007731010808B50220FFF7A4F90848FFF706
:104948009BFC07486FF07F01FFF7ECFB0448836886
:104958001978FFF7C1FB0248FFF78EFC08BD00BFBE
:104968003023002008B5254B196890F820300246FE
:104978005BBBFEF749F918B982F82100916011E094
:1049880092F8213001335BB2032B82F82130F5DD38
:10499800012382F820309368C91AB1F57A6F01D9DA
:1049A80001235371137913B3154B517B1B7819B13C
:1049B800022B1CBF03211173991E4B424B415373A9
:1049C80093790BB10323137308BDFEF71DF918B1D2
:1049D800042382F82130DEE792F82130013B5BB2F4
:1049E800002B82F82130D6DC82F82000C6E7537904
:1049F800002BE9D001231371E5E700BF48380020F8
:104A080095070020037B9A1E012A4FF0000202D866
:104A180090F8201011B90273184670471346FBE747
:104A28000A4A38B5138801339BB2502B04460D4609
:104A380001D8138038BD002305491380FDF74BFECC
:104A480029462046FDF747FEF4E700BF980B0020F3
:104A5800793201082DE9F84F154604460F46774983
:104A6800FDF739FE29462046FDF735FE744B002236
:104A7800012F1A804FF0904610D10223B362B7611C
:104A880046F2A810FEF75CF9B76246F2A810FEF7E6
:104A980057F929462046FFF7C3FFF0E7BB1E01225E
:104AA8000C2B00F2BE80DFE803F0374A5E1F07BC1C
:104AB800BCBC7171717171004FF090464FF00108E4
:104AC8000227C6F8188046F2A810B762FEF738F930
:104AD800C6F8288046F2A810B761FEF731F92946D2
:104AE8002046FFF79DFFEBE74FF090464FF0010897
:104AF8000227C6F8188046F2A810B761FEF720F919
:104B0800C6F8288046F2A810B762FEF719F92946B8
:104B18002046FFF785FFEBE7B26202274FF0904689
:104B2800B76146F2A810FEF70BF9B76246F2A81073
:104B3800FEF706F929462046FFF772FFF0E7022341
:104B4800B36101274FF09046B76146F2A810FEF70F
:104B5800F7F8B76246F2A810FEF7F2F829462046A1
:104B6800FFF75EFFF0E7B26102274FF09046B761AA
:104B780046F2A810FEF7E4F8B76246F2A810FEF76E
:104B8800DFF829462046FFF74BFFF0E7A7F1090AAF
:104B98005FFA8AFA00264FF0010956453EBF4FF0EA
:104BA800904302229A614FF004084FF0904B46F26E
:104BB800A810CBF81890FEF7C3F846F2A810CBF867
:104BC8002890FEF7BDF808F1FF3829462046FFF780
:104BD80027FF18F0FF08EAD10223CBF828304FF05E
:104BE80004084FF0904B46F2A810CBF81890FEF747
:104BF800A7F846F2A810CBF82890FEF7A1F808F11C
:104C0800FF3829462046FFF70BFF18F0FF08EAD1C6
:104C18000136A7F10803F6B2DBB2B34238BF00266B
:104C2800BBE70223B261B3614CF25030FEF788F85B
:104C380029462046FFF7F4FEF6E700BF793201085F
:104C4800980B002010B50446084694F901308B42B1
:104C580001D1237823B901232370FEF71AF8607075
:104C680010BD00001FB50C4670B9084801930DF13E
:104C78000E020DF10F010CF0B5FE019B9DF80E1010
:104C8800024822460CF05DFD04B010BD3023002020
:104C980038B515461C46A8B9FDF768FF2B460A46E5
:104CA80001460A480CF026FD08484FF6FF710CF043
:104CB8001EFE0648A1010CF033FEBDE838407D20F9
:104CC800FEF73EB80148FFF7D7FA38BD3023002079
:104CD8002DE9F0411F4C204F05464FF05B080E466A
:104CE8004246002120460EF0DFF82B6923606B69ED
:104CF80063601A4B39781B78194D9A1E53425341F9
:104D0800627A05EB011163F30002627204F10A0092
:104D1800062201F58971FCF751FB3B7805EB031579
:104D2800237C95F81A2162F30713237495F81B2145
:104D3800637C592162F3030320466374FDF710F87E
:104D48003B7FA4F85900424621463046BDE8F04171
:104D5800FFF79EBF69230020CC03002095070020A1
:104D68002404002037B50C46A8B9124883689D7AF8
:104D78009DB101F18E020DF106010CF01DFEBDF989
:104D88000630002B10DB4FF6FF73ADF80630BDF888
:104D9800063084F88C3003B030BD0DF106010CF0FC
:104DA80066FF84F88E50EAE77F33F0DA4FF68173B6
:104DB800EBE700BF3023002070B5114C0D460646C6
:104DC8005B23224621462846FFF74CFFD6E9061307
:104DD800206862689A4208BF88420ED1204659214D
:104DE800FCF7BEFFB4F85940231A5C425C412846E0
:104DF8000449FFF7B7FF601C70BD0024F7E700BF48
:104E080077210020882200200A4608B5014601487B
:104E1800FFF720FE2800002000B591B00446684640
:104E280016461D460EF0A0F8184968460EF044F8DC
:104E380030460CF08DFB014668460EF03DF81449EB
:104E480068460EF039F8134B684653F82510124D92
:104E58000EF032F8114968460EF02EF89DF84830E9
:104E6800684655F823100EF027F80D4968460EF0ED
:104E780023F89DF84C30684655F823100EF01CF8BE
:104E880008486A462146FFF7E5FD00BF8031010862
:104E98008731010800000020180000208C3101082B
:104EA80093310108280000200023037083704370A9
:104EB80003714371C370704703780022022B42715B
:104EC80004D0032B09D0012B16D0FEE70123037170
:104ED800437183784370C370704783784278991A16
:104EE800A3EB020218BF012112F0060F14BF012222
:104EF800002201714271EDE70271704702788170FA
:104F0800002A0CBF022203220270FFF7D5BF00005F
:104F1800074B282202FB003083681A78542A05D1EF
:104F28005878A0F1780358425841704700207047DC
:104F380080400108074B282202FB003083681A785A
:104F4800522A05D15878A0F1780358425841704741
:104F58000020704780400108074B282202FB0030E0
:104F680083681A78542A04D15878783818BF0120F1
:104F780070470120704700BF8040010828230B4A72
:104F8800434310B5D1580446FFF7D4FF48B920462B
:104F9800FFF7BEFF064B1B7828B103EB830301EB39
:104FA8008301084610BD01EB0311FAE780400108B0
:104FB800CC030020292838B505460C4631D81A4BB1
:104FC800282202FB00331B79042B07D84BB3023B82
:104FD800022B05D8DFE803F011171F00FE2B20D1A4
:104FE8002846FFF7CBFF0378E4B2A34219D0047038
:104FF8002846BDE83840FFF7AFBFFFF7BFFF64B2F0
:1050080090F90030F1E7FFF7B9FF0288A3B29A429E
:1050180007D00480ECE7FFF7B1FF23B2B0F9002016
:10502800F5E7002038BD00BF80400108292838B5C1
:1050380004460D4619D80E4B282202FB00331B7973
:10504800FF2B12D1FFF79AFF06222946FCF7DBF95E
:1050580058B92046FFF792FF29460622FCF7C0F907
:105068002046BDE83840FFF777BF002038BD00BFB5
:10507800804001082DE9F0430746154635482822A7
:105088004A438418012B246A87B026D1324B8258B0
:10509800022908BF1C46314B9A422FD03049243B85
:1050A8009A4208BF0C46FF238DF800304FF00008E5
:1050B80001262046FBF7B6F85FFA88F9484521D85B
:1050C80006F118036B44AE4203F8188C28D8002365
:1050D8003B70184607B0BDE8F083022BE3D1214BA3
:1050E8008258022908BF1C461C4B9A4208D0A3F1DB
:1050F80024018A4204D01C491E3BD1E7184CD2E750
:105108001A4CD0E714F809302C2B06D106F11803F5
:105118006B44013603F8188CF6B208F10108C8E7A9
:1051280005F118030DEB0305002315F8182C15F9E4
:10513800175C0132D2B29918C9B2A94207EB030031
:1051480003DB002303700120C4E7615C01700133B5
:10515800DBB2F0E7804001089A3101086F040020B3
:1051680000320108D3310108343201084C320108F9
:10517800054B282202FB0030436A0BB118887047A0
:105188004FF6FF70704700BF8040010838B50B4BE1
:10519800282202FB0030056A2846FBF743F8002264
:1051A8001146D4B24B1CA042DBB201D8184638BD18
:1051B8002C5D01322C2C08BF1946F2E7804001080B
:1051C8000F4B282202FB003310B51B79FE2B01463A
:1051D80014D1FFF7CDFF04460846FFF7D7FF00229A
:1051E8001346D1B2884201D8184610BD44FA02F1DC
:1051F800C90744BF0133DBB20132F2E7FF23F3E70B
:10520800804001082DE9F04F4FF0000A1D4E93B081
:1052180004460F46D146D6F808805FFA8AF54FF063
:10522800000B0DE018F8030001920DF019FEC3B24F
:10523800019A202B08BF5F2302F8403C0BF1010BB9
:105248005FFA8BF340460193FAF7ECFF019B03F1F9
:10525800480298426A44E5D802F8409C394602A8B8
:10526800FAF7D6FF48B10AF1010ABAF12A0F06F196
:105278002806D0D10025284600E00120257013B06B
:10528800BDE8F08F8040010837B51E4D134628222F
:1052980002FB015504462A79FE2A18D0FF2A24D099
:1052A800022A2BD10846FFF769FE214690F9000033
:1052B8000CF0F1F82D692B783BB1134920460DF01D
:1052C800FBFD294620460DF0F7FD012018E00846B1
:1052D80001930091FFF752FE019B02780099204646
:1052E80003B0BDE83040FFF7C5BE0846FFF746FEED
:1052F800062201462046FCF773F8E6E700202070F6
:1053080003B030BD8040010898320108F8B5194B48
:105318001646282202FB063300241A790470022A52
:1053280007460D4603D0FE2A13D02046F8BD93F950
:1053380018208A42F9DC93F91C309942F5DC4FF0C9
:10534800000165F307013046FFF734FE0124387089
:10535800EBE70029E9DB3046FFF718FFA842E4DD58
:105368003046FFF705FF40FA05F313F00103E6D1D5
:105378001C46DAE7804001082DE9F8430023037052
:10538800124B1746282202FB073306461B79FF2BD0
:105398000C4603D000252846BDE8F8830846FAF7EE
:1053A80041FF0628F6D104F1FF3804F1050918F881
:1053B800010FFBF767FE05460028EBD0C845F6D17C
:1053C80021463846FFF732FE3070E4E78040010896
:1053D800F8B5114B4FF0280C0CFB023300271B7952
:1053E8000770FE2B04460E46154604D0FF2B0CD042
:1053F800013B032B0DD830460DF09AFC2A46014696
:105408002046BDE8F840FFF781BFBDE8F840FFF748
:10541800B3BF3846F8BD00BF8040010838B50588DD
:10542800B5F5807F044605D943F69820803DFDF701
:1054380087FC258038BD10B504464068FDF73FF964
:1054480023880BB1013323802046FFF7E7FF10BD07
:1054580070B5044640680E46FDF73DF9258825B12C
:105468003046FAF7DFFE284420802046FFF7D6FFB3
:1054780070BDF8B5044604F10A0740680D46FDF70B
:105488002AF960683946FDF726F926884EB128467C
:10549800FAF7C8FE05463846FAF7C4FE284406441B
:1054A80026802046FFF7BAFFF8BD000038B54160F6
:1054B800003904464FF0000518BF012101724572FA
:1054C80008490A300DF050FD84F88E50A573C4F8D1
:1054D800905084F89450C4F8985084F89C502580D3
:1054E80038BD00BF76320108437A8B420DD00129BE
:1054F800417206D0022906D039B904490A300DF0A4
:1055080033BD0349FAE70349F8E7704776320108E3
:10551800793201087832010890F88E30642B08D867
:10552800C2180133DBB2917380F88E30184400231F
:105538008373704708B50E30FAF76AFEB0FA80F048
:10554800400908BD2DE9F04192B006460846019190
:105558001546FAF767FE06F10E0804464046FAF7C4
:1055680061FEE4B2631CC7B2BB42019903DB0020B1
:1055780012B0BDE8F081224640460DF0B9FC002883
:10558800F5D104F10D0223461644BB4202461BD353
:1055980000F148036B44002403F8404C0028E6D08F
:1055A8009DF808303D2BE2D1302302A88DF8083051
:1055B800FAF738FE2346DAB2904212D802A80DF064
:1055C800B7FB28600120D3E716F8011F202905D072
:1055D80048326A440130C0B202F8401C0133DBB2E1
:1055E800D3E748326A44013312F8402C303A092A8A
:1055F800E1D9BCE710B508490446FFF729FF074B76
:10560800197830312046C9B2FFF715FF0449204602
:10561800FFF72FFF10BD00BF7B320108CC0300202D
:105628007F3101082DE9F047837B702B90B08046CD
:105638000F46164671D1C37B202B6ED1007C0DF02E
:1056480007FC00285CD000254FF0020A2C4608F120
:105658000E094846FAF7E6FD824522D305F14003D4
:105668000DEB0305002305F8403CC4B3E8461D468E
:1056780018F8010B0DF0F4FB78550135EBB2A34295
:10568800F6D300253D550134E4B26846FAF7CAFD61
:105698006719FFB2874206EB050334D300221A705C
:1056A8002DE008EB0A039B7B3D2B0ED0202B07D067
:1056B80005F140016A1C0DEB010505F8403CD5B227
:1056C8000AF101035FFA83FAC3E72C46F0E705F114
:1056D80040036B4413F8400C0DF0C2FB7855684644
:1056E800FAF7A0FDE5B2A84207EB050304F10104AF
:1056F800EDD800220A491A7030460DF035FC012019
:1057080010B0BDE8F08707F140020DEB0207013544
:1057180017F8402C1A70EDB2B7E70020F0E700BF89
:10572800853201082DE9FF472B4E282303FB01662C
:1057380004463379FE2B0D461FD0FF2B4AD0022B8F
:105748002CD196F918502549FFF782FE284669465C
:105758000BF0A1FE69462046FFF78BFE96F91C5018
:105768001F492046FFF774FE694628460BF093FE52
:1057780069462046FFF77DFE10E00846FFF7F8FC73
:10578800DFF86490DFF864A080460027FEB20123AA
:10579800324629466846FFF76DFC10B904B0BDE8EB
:1057A800F087BBB248FA03F3DB0711D54946204618
:1057B800FFF74EFE06F13001C9B22046FFF73BFE67
:1057C80051462046FFF744FE69462046FFF751FE42
:1057D8000137DBE70349CDE780400108873201083C
:1057E8008F3201089E320108973201089A32010867
:1057F800F0B5044689B008460D46FFF7E1FC2E4F88
:105808002E4906462046FFF723FE282303FB05778B
:105818002046B968FFF71CFE29492046FFF718FE05
:105828002EB928492046FFF724FE09B0F0BD012211
:1058380029466846FFF728FD69462046FFF708FE17
:105848003B79FE2B07D0FF2B1ED004F10A0120461E
:10585800FFF7FEFDE9E72846FFF790FB05781A49B0
:105868002046FFF7F5FD05F13001C9B22046FFF7E4
:10587800E2FD16492046FFF7EBFD012EE5D114495C
:105888002046FFF7E5FDE0E7124B5B78002BDCD103
:105898006846FBF74DFC0428D7D8DFE800F003057D
:1058A80007090B000C49EBE70C49E9E70C49E7E766
:1058B8000C49E5E70C49E3E7804001089732010805
:1058C8009A320108AD320108BD320108AB32010835
:1058D800C0320108CC030020CF320108D4320108BD
:1058E800D9320108DE320108E43201080129F8B58D
:1058F80006460D4601D9032907D1194B1B78022BFF
:1059080003D018493046FFF7B4FD154F0024012D88
:1059180008D12046FFF7FCFA50B92046FFF70AFBEA
:10592800A8B105E0022D08D12046FFF7F1FA70B9B9
:105938000134E4B22A2CEAD1F8BD032D0CD120465B
:10594800FFF7F8FA0028F3D03B78022BE5D121467F
:105958003046FFF74DFFEBE7002DF5D0F7E700BF26
:1059680095070020EA32010838B53D4B1A6890F8CF
:105978009C30012B044671D1D0F89030D31AB3F57E
:10598800FA7F6BD3374DC0F890202846FBF79AFA78
:105998000BF0B6FD01462046FFF75AFD3249204676
:1059A800FFF756FD05F11400FBF769FE0BF0A8FDA3
:1059B80001462046FFF74CFD2C492046FFF748FDDD
:1059C80095F894000BF09CFD01462046FFF740FD3A
:1059D80027492046FFF73CFD95F98C000BF09AFD0E
:1059E80001462046FFF734FD22492046FFF730FDE7
:1059F80095F992000BF08EFD01462046FFF728FD31
:105A08001B492046FFF724FD95F98E000BF082FD17
:105A180001462046FFF71CFD17492046FFF718FDF1
:105A280005F15000FBF731FE80B20BF07DFD014619
:105A38002046FFF70DFD0E492046FFF709FD05F149
:105A48006400FBF722FE80B20BF06EFD0146204693
:105A5800FFF7FEFC09492046FFF70BFD38BD00BFE4
:105A6800483800208822002007330108093301083C
:105A78000C3301080A3301080F33010812330108F7
:105A880030B5144989B00446FFF7F3FC12492046A3
:105A9800FFF7DEFC114B1B78022B18D1104D95F83F
:105AA800703093B105F17A012046FFF7D1FC0D491A
:105AB8002046FFF7CDFC696F6846FBF733FC694663
:105AC8002046FFF7D6FC09B030BD0749F8E707497B
