:020000040800F2
:10000000004000205DCC000849CC00084BCC000823
:1000100000000000000000000000000000000000E0
:100020000000000000000000000000004DCC0008AF
:1000300000000000000000004FCC000851CC000878
:10004000ADCC0008ADCC0008ADCC0008ADCC0008AC
:10005000ADCC0008ADCC0008ADCC000881B50008DF
:10006000ADCC0008ADCC0008ADCC00088141000843
:10007000ADCC0008ADCC0008ADCC0008BD590008DF
:10008000ADCC0008ADCC0008ADCC0008ADCC00086C
:10009000ADCC0008ADCC0008ADCC0008ADCC00085C
:1000A00061410008ADCC0008ADCC0008A16E00088D
:1000B0005D3D0008ADCC0008ADCC000899100108EA
:1000C00010B5064C2378002B07D1054B002B02D02E
:1000D000044800E000BF0123237010BD8000002011
:1000E0000000000068300108044B10B5002B03D05D
:1000F0000349044800E000BF10BDC04600000000F6
:10010000840000206830010802780B78002A03D0B0
:10011000013001319A42F7D0D01A70470023C25CF7
:100120000133002AFBD1581E7047000002B471460B
:1001300049084900095649008E4402BC7047C04630
:1001400002B4714649084900095C49008E4402BC6A
:100150007047C04603B47146490840004900095E33
:1001600049008E4403BC704703B4714649084000FF
:100170004900095A49008E4403BC704700224308D5
:100180008B4274D303098B425FD3030A8B4244D35F
:10019000030B8B4228D3030C8B420DD3FF220902A1
:1001A00012BA030C8B4202D31212090265D0030B60
:1001B0008B4219D300E0090AC30B8B4201D3CB0356
:1001C000C01A5241830B8B4201D38B03C01A524198
:1001D000430B8B4201D34B03C01A5241030B8B429A
:1001E00001D30B03C01A5241C30A8B4201D3CB0285
:1001F000C01A5241830A8B4201D38B02C01A52416A
:10020000430A8B4201D34B02C01A5241030A8B426C
:1002100001D30B02C01A5241CDD2C3098B4201D384
:10022000CB01C01A524183098B4201D38B01C01A02
:10023000524143098B4201D34B01C01A5241030979
:100240008B4201D30B01C01A5241C3088B4201D328
:10025000CB00C01A524183088B4201D38B00C01AD5
:10026000524143088B4201D34B00C01A5241411AFC
:1002700000D20146524110467047FFE701B5002009
:1002800000F0F0F802BDC0460029F7D076E77047CD
:1002900003460B437FD4002243088B4274D30309E7
:1002A0008B425FD3030A8B4244D3030B8B4228D388
:1002B000030C8B420DD3FF22090212BA030C8B42AE
:1002C00002D31212090265D0030B8B4219D300E04E
:1002D000090AC30B8B4201D3CB03C01A5241830BD3
:1002E0008B4201D38B03C01A5241430B8B4201D383
:1002F0004B03C01A5241030B8B4201D30B03C01AAC
:100300005241C30A8B4201D3CB02C01A5241830A25
:100310008B4201D38B02C01A5241430A8B4201D354
:100320004B02C01A5241030A8B4201D30B02C01A7E
:100330005241CDD2C3098B4201D3CB01C01A5241E5
:1003400083098B4201D38B01C01A524143098B426E
:1003500001D34B01C01A524103098B4201D30B0157
:10036000C01A5241C3088B4201D3CB00C01A52417C
:1003700083088B4201D38B00C01A524143088B4241
:1003800001D34B00C01A5241411A00D201465241DA
:10039000104670475DE0CA0F00D04942031000D3F9
:1003A0004042534000229C4603098B422DD3030A4E
:1003B0008B4212D3FC22890112BA030A8B420CD35E
:1003C000890192118B4208D3890192118B4204D387
:1003D00089013AD0921100E08909C3098B4201D307
:1003E000CB01C01A524183098B4201D38B01C01A41
:1003F000524143098B4201D34B01C01A52410309B8
:100400008B4201D30B01C01A5241C3088B4201D366
:10041000CB00C01A524183088B4201D38B00C01A13
:100420005241D9D243088B4201D34B00C01A5241EA
:10043000411A00D20146634652415B10104601D377
:100440004042002B00D54942704763465B1000D301
:10045000404201B5002000F005F802BD0029F8D0A7
:1004600016E770477047C046D0400B00D1409C460D
:10047000203AD34018435242634693401843704792
:10048000844608006146FFE71FB500F09FFB002887
:1004900001D40021C8421FBD10B500F02BFB404223
:1004A000013010BD10B500F091FB002801DB0020E9
:1004B00010BD012010BDC04610B500F087FB00281C
:1004C00001DD002010BD012010BDC04610B500F0B8
:1004D00037FB002801DC002010BD012010BDC04604
:1004E00010B500F02DFB002801DA002010BD01201E
:1004F00010BDC046F0B5CE469946030C9C46130489
:1005000047461B0C1D000E0061460404240C80B5F8
:100510000700100C4B436543414360432C0CC0184B
:1005200020188C46834203D980235B029846C4443A
:10053000494679435643030C2D042D0C8919634415
:1005400000044019C918C0BCB946B046F0BDC04649
:100550009E2110B5C905041CFFF7C2FF002803D176
:10056000201C00F07BFE10BD9E21201CC90500F060
:10057000BFFC00F073FE80231B069C466044F2E73C
:10058000F8B54746CE464A0243024500C40F500A1A
:10059000804648005B0A000E9209944680B51E0012
:1005A000814602002D0EDF00C90F8C4224D0281A8C
:1005B00000280EDD002A3ED16246002A00D1FDE06F
:1005C000421E012800D137E1FF2800D1A9E0100028
:1005D00039E0002863D04B46521B002D00D0E0E0EC
:1005E000002F00D1CEE0531E012A00D155E1FF2A91
:1005F00000D194E01A00D9E02A1A002A00DC99E020
:10060000002862D0FF2D00D18BE080236146DB04FF
:1006100019438C461B2A00DCD2E00123DB195A0166
:100620006AD50135FF2D5BD00122A3491A405B0832
:100630000B4013431CE0FF2D00D172E08023624683
:10064000DB041A4394461B2800DC90E00123FB1ACC
:100650005A0151D59B019E09300000F0B9FE3300CC
:1006600005388340854200DC75E0944A2D1A13401A
:100670005A0704D00F221A40042A00D004335A012A
:100680003CD5681CFE2D2BD09B015E0AC0B2C00574
:100690003043E4072043C0BCB946B046F8BDFE2055
:1006A0006A1C104272D1002D00D0AEE0002F00D1A4
:1006B000ECE063460020002BE9D0FB1A5A0100D47D
:1006C000F3E063460C00DB1BD2E7614600295BD0F8
:1006D000511E012A00D1A7E0FF2A22D00A0099E783
:1006E000FF200026D3E7FE216A1C114273D0FF2AA7
:1006F000F6D0150067447B085A07BBD1DB08FF2DF5
:100700000FD05B025E0AE8B2C1E76246002A08D059
:100710008022D203134204D04046104201D10C0083
:100720004346002BDCD08026F6031E437602FF20D2
:10073000760AACE7002AD6D0421B002D5CD0FF28F9
:10074000EED08023DB041F431B2A00DC82E0012360
:100750004D46634463E72022401B0130121A190002
:100760009340C1405A1E934100250B4380E720234C
:1007700061461B1A994062460B00C240591E8B41CC
:10078000134364E70C0043461500B8E76346FE1ABE
:10079000730145D4002E00D05EE70024002000261F
:1007A00075E7FF2BBBD08023DB041F431B2A47DDEB
:1007B000012362460C004D46D31A49E705009EE727
:1007C00061462023D1409B1A62469A4013005A1E6C
:1007D00093410B4322E7002D46D1002F62D06346A0
:1007E0000020002B00D152E73B0063445A0183D51F
:1007F000324A013513407FE7002FC4D0531E012A2F
:1008000012D0FF2A8CD01A009EE7002F00D07CE780
:100810006346002B83D180260024FF20F60336E7B1
:1008200063460C00DE1B17E73B00634401255A01B9
:1008300000D461E70225F7E663460125FB1A07E7C6
:1008400020239B1A38009F403B00D0405A1E934102
:100850000343AEE720239B1A39009F403B00D14061
:100860005A1E93410B4373E7002F00D158E76246AD
:10087000002A00D155E78022D203134200D150E76D
:100880004146114200D04CE743464AE76346002BFD
:1008900083D00C0046460020F9E663460C00DB1BC3
:1008A0000135D5E646460020F1E6002B00D023E7CF
:1008B00000240026EBE6C046FFFFFF7DFFFFFFFBA5
:1008C000F0B54F464646D6464502C0B547000C1C1B
:1008D0006D0A3F0EC60F002F00D16FE0FF2F00D131
:1008E00074E00023802299469A46ED00D204154315
:1008F0007F3F63025B0A984663001B0EE40F002BE8
:100900004DD0FF2B45D042468021D200C90411436F
:10091000884600227F3B3100FF1A4B466140C9B236
:100920000F2B00D9B8E070489B00C3589F460023A6
:1009300098462600454692465346022B00D18DE04C
:10094000032B00D1A1E0012B18D03B007F33002BFB
:100950006DDD6A0704D00F222A40042A00D0043536
:100960002A0103D5614B1D403B008033FE2B00DD87
:1009700074E0AA01520AD8B202E00E000020002260
:10098000C005F60710433043E0BCBA46B146A8465E
:10099000F0BD4346002B3FD10222FF3F03E0434618
:1009A000002B2DD1012231004B466140C9B21343C7
:1009B0000F2B38D84E489B00C3589F46002D13D1AB
:1009C00004239946033B00279A4692E7002D05D160
:1009D00008239946063BFF279A468AE70C23994647
:1009E000093BFF279A4684E7280000F0F1FC7627B0
:1009F000431F9D4000237F4299469A463F1A78E75D
:100A0000404600F0E5FC4246431F9A4076235B4295
:100A100090461B1A00227EE703234A461A4391465A
:100A2000FC33032277E70E00FF200022A8E7012213
:100A3000D31A1B2BA2DC9E372A00BD40DA406B1E66
:100A40009D4115436A0704D00F222A40042A00D092
:100A500004356A0144D50120002291E7FF200022DD
:100A60008EE780220026FF20D20389E700239846E4
:100A70008022D203154208D04346134205D11A43BF
:100A800052022600FF20520A7AE78022D2032A432C
:100A90005202FF20520A73E742466B015501AB42F6
:100AA0001AD21B200022013F01261C0052005B00CD
:100AB000002C01DB9D4201D85B1B3243013800282A
:100AC000F3D1581E834113431D003B007F330E00BA
:100AD000002B00DD3DE7AAE71A2001225B1BE3E7BC
:100AE000AA010020520A4BE7B0300108FFFFFFF7D0
:100AF000F030010870B5420045024E024C00C30FB1
:100B00006D0A0120120E760A240EC90FFF2A06D0A4
:100B1000FF2C03D0A24201D1B54206D070BD002DFA
:100B2000FCD1FF2CFAD1002EF8D18B4206D0012047
:100B3000002AF3D12800431E9841EFE70020EDE79B
:100B400070B5420045024E024C00C30F6D0A120EF2
:100B5000760A240EC80FFF2A1BD0FF2C0ED0002AC5
:100B60001BD1002C01D1002E1CD0002D0CD08342B3
:100B70001CD00221581E0840013870BD002E22D121
:100B8000002AF4D1002DF2D10028F6D101204042F4
:100B9000F3E7002D17D1FF2CF0D0002CE7D1002E69
:100BA000E5D1E6E70020002DE7D0E2E7A24205DC30
:100BB000EADBB54202D8E7D30020DEE743425841E2
:100BC00040000138D9E702204042D6E770B5420024
:100BD00045024E024C00C30F6D0A120E760A240E17
:100BE000C80FFF2A0BD0FF2C0DD0002A1FD1002CDC
:100BF00016D1002E14D10020002D10D009E0002DB8
:100C00000CD1FF2C13D1002E08D1002A08D083422A
:100C100012D00221581E0840013800E0022070BDA9
:100C2000002DF4D10028FAD101204042F7E7002C32
:100C3000EDD1002EEBD1ECE7A24205DCF2DBB542B0
:100C400002D8EFD30020EAE7434258414000013880
:100C5000E5E7C04643025B0AF0B54F464646994673
:100C6000D646C30F45009846C0B54B460F1C2D0E07
:100C700000D1CBE0FF2D00D1CFE08022DB00D204F9
:100C80001A430023914600269A467F3D7C027B0052
:100C9000640A1B0EFF0F002B00D1A9E0FF2B11D01F
:100CA0008022E400D204144342467F3B5B197A4021
:100CB0000020D2B25D1C0A2E13DD3A000B2E47D065
:100CC00047463FE02B00FF33002C1ED10222164383
:100CD000424601357A40D2B2FF350A2E00DDE4E00B
:100CE0000220022E1CDC013E012E42D802283DD0FB
:100CF000012866D100200021C0050843D207104317
:100D0000E0BCBA46B146A846F0BD032216434246AF
:100D100001357A40D2B2FF350A2E00DDE4E003202F
:100D20000121B140A626F60031420AD19026B60034
:100D3000314216D1B93EFF3E0E421AD0A14682463C
:100D400000E0170053463A00022B0FD04C465046A5
:100D50000328CDD18021C90321434902FF20490A3C
:100D6000CAE780210022FF20C903C5E7FF20002138
:100D7000C2E7200C49462404240C27000E0C090469
:100D8000090C74434F4346434843390C0019091872
:100D90008C4203D980204002844666443F04080404
:100DA0003F0CC0198401671EBC41090C800E8919D3
:100DB000044389010C43090171D5012361081C40DA
:100DC0000C432B007F33002B51DD610704D00F2132
:100DD0002140042900D00434210103D5434B1C4099
:100DE0002B008033FE2BC1DCA101490AD8B283E776
:100DF000002C2CD1012342461E432B007A400120B7
:100E0000D2B25D1C0A2E00DD57E76AE7002B10D135
:100E10000123042600259A4638E7002B04D102233B
:100E20000826FF259A4631E703230C26FF259A461C
:100E30002CE7484600F0CCFA4A46431F76259A40F4
:100E400000236D42914600269A462D1A1EE7200087
:100E500000F0BEFA4246431F9C402B1A763B7A4074
:100E60000020D2B25D1C0A2E00DD26E739E7012101
:100E7000CB1A1B2B00DD3DE79E352100AC40D9404D
:100E8000631E9C4121434B0704D00F230B40042BCE
:100E900000D004314B0104D5012000212CE71D00B6
:100EA0008FE789010020490A26E702230F2E0CD183
:100EB00080214B46C9030B420DD00C420BD121437C
:100EC00049023A00FF20490A16E70B2E00D0F7E648
:100ED000A1469A4636E780214B46C9031943490289
:100EE0004246FF20490A07E70323DFE7FFFFFFF73A
:100EF000F0B5C64643025B0A4500DA00C40F48025B
:100F00004F009446420A1E00904600B52D0E3F0E3B
:100F1000C90F8009FF2F59D0012251408C4239D08E
:100F2000EA1B002A58DD002F68D0FF2D00D1D1E048
:100F30008023DB0418431B2A00DCE3E00123624624
:100F4000D31A5A0100D4ACE09B019E09300000F096
:100F50003FFA330005388340854200DCC6E0B24AE0
:100F60002D1A13405A0704D00F221A40042A00D029
:100F700004335A0100D497E06A1CFE2D00D184E0AE
:100F80009B015E0AD2B2D0053043E407204380BC07
:100F9000B846F0BDEA1B002A41DD002F6BD0FF2DC3
:100FA00000D197E08023DB0418431B2A00DCCCE04F
:100FB000012363445A0174D50135FF2D65D0012208
:100FC0009A491A405B080B401343CBE700281FD017
:100FD0008C4222D02A00FF3A002A35D07A1B002DFD
:100FE00000D099E06346002B00D1DDE0531E012ABA
:100FF00000D105E1FF2A6BD01A0094E0002873D0DD
:10100000511E012A00D1DFE0FF2A63D00A0092E7D7
:1010100001225140A14200D082E72A00FF3A002A73
:1010200036D07A1B002D00D1AAE0FF2F00D1DAE0E4
:1010300080236146DB0419438C461B2A00DCD4E084
:1010400001233D001B18B5E7FE276A1C174271D12A
:10105000002D00D09EE06346002B00D1D5E0002299
:10106000002800D18FE71B1A5E0100D4D6E063464A
:101070000C00C31A76E7002836D0511E012A00D191
:101080009AE0FF2A26D00A008FE7FF2200267AE79F
:10109000FE276A1C174262D0FF2AF6D01500604472
:1010A00043085A0700D05FE7DB08FF2D12D05B0230
:1010B0005E0AEAB267E76246002A00D193E00028A0
:1010C00008D08022D203134204D04046104201D1FE
:1010D0000C004346002BD8D08026F6031E43760230
:1010E000FF22760A4FE743461500DEE72022401B29
:1010F0000130121A19009340C1405A1E9341002535
:101100000B432FE720239B1A010098400300D14096
:101110005A1E93410B4312E7FF2FD9D08023644618
:10112000DB041C43A4461B2A52DD01230C003D00B6
:10113000C31A06E763461E1A730139D4002E00D085
:1011400004E70024002200261DE720239B1A01004B
:1011500098400300D1405A1E93410B4329E7002DCC
:10116000A9D16346002B56D00022002800D10AE7FF
:10117000030063445A0194D52B4A0135134090E78C
:101180006346002BAFD0531E012A15D0FF2A2AD068
:101190001A0052E76246002A91D1002898D1802691
:1011A0000024FF22F603EEE60C00434615007CE720
:1011B00063460C00C61AC9E60300634401255A01C0
:1011C00000D46EE70225FAE6634601251B1AB8E64D
:1011D00064462023D4409B1A62469A4013005A1E4C
:1011E00093412343A2E7434674E761462023D1405D
:1011F0009B1A62469A4013005A1E93410B4320E704
:1012000063460C000125C31A9BE6002899D00C0008
:1012100046460022B7E646460022B4E6002B00D040
:101220003FE700240026AEE6FFFFFFFBFFFFFF7D48
:1012300043024A02400049005B0A520A090E000EAE
:10124000FF2806D00020FF2902D1531E9A4110002A
:101250007047FE38002BFBD1F4E7C0464102420044
:10126000C30F490A0020120E7E2A03DD9D2A02DDEB
:10127000094A98187047802000040143952A07DC2A
:101280009620821AD1404842002BF3D10800F1E7A2
:10129000963A9140F7E7C046FFFFFF7F70B5002800
:1012A00013D0C317C5185D40C40F280000F090F894
:1012B0009E2301001B1A962B0FDC082831D0083919
:1012C0008D406D026D0AD8B202E000240020002596
:1012D000C0052843E407204370BD992B0CDD05228F
:1012E000121A2800D040020008001B308540280058
:1012F000451EA84102431500052916DC2A000F48A7
:1013000002406E0709D00F263540042D05D0043267
:10131000550102D59F2302405B1A9201550AD8B2AB
:10132000D6E76D0296206D0AD2E74A1F95402A0043
:10133000024802406E07F0D0E5E7C046FFFFFFFB22
:1013400070B5041E0ED000F043F89E2301001B1A56
:10135000962B0CDC08282CD008398C406402640AD7
:10136000D8B201E000200024C005204370BD992BB5
:101370000ADD020020001B3290400200501E824114
:101380000520401AC4401443052916DC22000F48EA
:101390000240650709D00F252C40042C05D00432EB
:1013A000540102D59F2302405B1A9201540AD8B21D
:1013B000DAE764029620640AD6E74A1F94402200C6
:1013C000024802406507F0D0E5E7C046FFFFFFFB9B
:1013D0001C2101231B04984201D3000C10391B0A65
:1013E000984201D3000A08391B09984201D3000929
:1013F000043902A2105C40187047C0460403020280
:101400000101010100000000000000004B425941B1
:101410000023437083700133C370013303710133C0
:1014200001704371704743788B420DD041700129A0
:101430000BD0022914D000291DD10123C370DB1861
:10144000037181700133437170470378002B0AD018
:1014500001238370DB18C370002303710333F2E7A9
:101460000378002BF4D0022383700023C370013370
:1014700003710233E7E7FEE713B56A460B88138072
:101480004B8853808B889380CB88D380831C063015
:101490006C461A7801335200A25A0A800231834204
:1014A000F6D113BD0300094A8C3310B51A60084AFF
:1014B00004005A60074A98301A81FF229A7200F09D
:1014C00004FD0023A434237010BDC0467F7F7F7FBE
:1014D000FFFF7F0000FFFFFF70B504001100150043
:1014E0001E0000F084FC20002900143000F07FFC76
:1014F00020002900283000F07AFC200029003C3030
:1015000000F075FC20002900503000F070FC200035
:101510002900643000F06BFC20002900783000F0D6
:1015200066FCFA232000190032005B00C9009830E5
:1015300000F0B3FC2000FFF7B5FF23000022A53325
:101540001A70024BA634238070BDC04600FFFFFF17
:10155000704710B500F052FC10BD10B5143000F00B
:101560004DFC10BD10B5503000F052FC2921040094
:101570001430FEF703FEC0B2002802D1631E9C4166
:10158000E0B210BD10B5643000F042FC2921040027
:101590001430FEF7F3FDC0B2002802D1631E9C4157
:1015A000E0B210BD030090331B78002B03D18C30C8
:1015B000007840B270478D30FAE7030090331B7813
:1015C000002B03D18E30007840B270478F30FAE79D
:1015D00010B504000AF078F90023984208D02000E2
:1015E0003C3000F00FFC031C002800D10123DBB2CB
:1015F000180010BD10B5783000F00CFC10BD10B50F
:10160000783000F010FC10BD10B5040000F0CAFBEB
:101610002000143000F0C6FB2000283000F0C2FB90
:1016200020003C3000F0BEFB2000503000F0C8FB32
:101630002000643000F0C4FB2000783000F0C6FBCE
:1016400010BD030000207F2B08D00130002B05DAED
:101650001A007E30803201D05B42D8B2704703005E
:101660007F20002B01D05B4258B27047030010B5B9
:10167000FF207F2B10D01A00013831320CDA1A000B
:101680000020783208DB78335BB2FE3058434621C5
:101690002330FEF7FDFDC0B210BD000003000120A5
:1016A000834204DD024A98B2934200DD014870474C
:1016B000FE070000FF070000064B10B5C018C3026C
:1016C0000549181AFEF7E4FD8023DB00C018FFF778
:1016D000E5FF10BD20FCFFFFAE07000010B5FFF7CF
:1016E000EBFF10BD03000020032B18DD01300C2B95
:1016F00015DD01300F2B12DD0630122B0FDD053802
:10170000162B0CDD0430192B09DD03381C2B06DDEC
:1017100001301F2B03DDFA30212B00DCF938704734
:101720000300FF20042B01D8014AD05C7047C0465B
:101730003E3101080300FF20042B01D8014AD05C90
:101740007047C046433101087F2800D10020C0B255
:101750007047030010B5FF207F2B10D01A009B3874
:1017600032320CDA00208B4209DD5B1A64305843B8
:1017700032235B423130591AFEF78AFDC0B210BDE8
:1017800010B5002A09D08A18044C92B20B780131A6
:1017900058408BB2205C9A42F8D110BD4831010804
:1017A0000300392809D80020222B05D90848233BFB
:1017B000DBB2D84001231840704701205F2BFBD0DB
:1017C00000201922613BDBB29A424041C0B2F3E7EC
:1017D00001EC7F00F7B504000F0006000025831D13
:1017E00001933078FF2801D10135EDB2FFF7D8FF22
:1017F000002801D15F233370019B0136B342F0D141
:10180000062D06D1002F04D02A003900200011F047
:1018100021FC0023A371F7BDF0B5831D85B0002224
:101820000393002304000126002500920193114F29
:101830003800217811F0BCFB002801D0C31BD8B2BE
:1018400032002B000021FEF755FE009A019B121872
:101850004B41300000920193290000232822FEF71B
:1018600049FE039B013406000D00A342E0D100981D
:1018700005B0F0BD4832010810B541790800303894
:10188000C3B2092B04D80521FEF7E8FDC8B210BD8C
:10189000054C200011F08CFB002801D0031BD8B2AE
:1018A0000521FEF7F1FCF1E74832010870B50400AC
:1018B000FEF734FC002382B2501EE118834205DBA0
:1018C000D21A2000013211F04BFB70BD0D78302D83
:1018D000F6D101339BB2F0E7F0B50C009BB01500D8
:1018E00000211A001F00060011F04DFB00212A22E2
:1018F00003A86D00029111F046FB63190193019B4F
:10190000A3420FD102A8FEF709FC002804D002ABC5
:10191000C018002301380370300002A911F092FBB7
:101920001BB0F0BD0023E05E234B9842EAD00028B4
:1019300013DC22490EA811F085FB02A8FEF7EEFB8E
:1019400005000EA8FEF7EAFB2D18AF4203D30EA93F
:1019500002A811F020FB0234D1E7FA239B00984241
:101960000BDA0EA980B20FF05FFD0EA8FFF79EFF05
:1019700013490EA811F00FFBDFE764213230FEF7A8
:1019800087FC0EA980B20FF04FFD0EA8FFF78EFF67
:101990000EA8FEF7C3FB302102AA431E5218D25CE8
:1019A00002AD6D1802392A54E9540EAB1818002301
:1019B00004494370DDE7C046FF7F00003031010875
:1019C000353101083A310108F0B5002489B00231FF
:1019D000E5B2AA4204D86946FFF77EFF09B0F0BD20
:1019E0006F46A6008E5B65007E530134F0E7000071
:1019F00070B50B490400FEF747FC20000D000849B4
:101A0000FEF7BCFB642104032800FEF73DFC280020
:101A100064186421FEF7B2FB8001201880B270BD0B
:101A2000102700000300020B0548190050433F2215
:101A30009B0911401340253253434018C01870478A
:101A40001027000070B50E0088B004002249300055
:101A5000FEF71AFC20000D00204911F0F3FA3000C7
:101A60001D49FEF78BFB6946C0B20FF0BBFC684610
:101A7000FFF71CFF6946200011F08DFA184E200078
:101A8000310011F088FA64212800FEF777FB6946DF
:101A9000C0B20FF0A7FC6846FFF708FF69462000B8
:101AA00011F079FA3100200011F075FA2800642154
:101AB000FEF7EAFBC8B269460FF094FC6B466A4633
:101AC0005B786946137093782000537000239370FD
:101AD00011F061FA08B070BD10270000D240010873
:101AE000563C010870B50E0000210500140011F0ED
:101AF0004AFA00239AB2944200D870BDF25C002AE0
:101B0000FBD0EA540133F5E770B50E001400002154
:101B10000132050011F037FA00239AB2944200D83E
:101B200070BDF25C002AFBD0EA540133F5E730B512
:101B30000023040098B2904201D3012006E0E55C46
:101B4000C85C002D03D143425841C0B230BD0028CB
:101B5000FCD001338542EDD00020F7E77D234380A0
:101B6000044B09B2C360002301808180C3800372EB
:101B70007047C046393000000268044B5343044AA2
:101B80009B185B005A080260580C7047FD43030025
:101B9000C39E2600F0B5002599B001608580040041
:101BA0005622290002A811F0EEF90126E27DAA4290
:101BB00008D8002320008021A375B83011F0E3F984
:101BC00019B0F0BD2000FFF7D7FFE779791BFEF7CA
:101BD00045FC00221000CBB20193D3B29F4222D821
:101BE000002300221100277BD0B2874226D800298B
:101BF000DCD1A2796119033A012A07D9002D05D059
:101C000017228A56002A20D1012BCFD90B76A26841
:101C1000990089582A000E3292001151013502AA0A
:101C2000D654EDB2C2E702A9895C002904D101991A
:101C30008842D6D00130C0B20132CEE72069805C44
:101C4000984200D131000132CEE7501E8342DDDBE5
:101C500001329342DADCA9E7F0B5150004009DB02B
:101C60000160027143715622002106A8013D0593CF
:101C700011F089F9EBB2E6790193022B14D8300008
:101C80000321FEF77BFA0323C6B2039300273D002E
:101C9000E27DAA420DD8002320008021A375B83030
:101CA00011F071F91DB0F0BD0123039300230193DE
:101CB000ECE72000FFF760FF711BFEF7CFFB00226F
:101CC000CBB202931300D0B2864206D906A9515C6A
:101CD000002926D102998B4221D1321C864200D99B
:101CE000021C039BD2B253430199CB18DBB202937F
:101CF000237B9C4600230493D8B2844513D8049BCD
:101D0000002BC5D1029BA16805989B00C91801381A
:101D10000B68032815D8FEF713FA0F292B2D013372
:101D2000DBB20132CFE720690299C05C884201D161
:101D3000012104910133DFE714481B181448834242
:101D4000A6D9002D03D0002F18D1012AA0D90298BE
:101D5000631918762B0009680E339B001951012175
:101D600006AB6D1817009954EDB291E70948E4E706
:101D70000948E2E709481B180948E0E77B1E9A4238
:101D8000E5DB7B1C9A42E2DC82E7C046C54E47FF9A
:101D90003BB10100776245FF287643FF3CB142FF2B
:101DA0003CB1010070B5836845680400EB1AC3605C
:101DB0006420618A5843FEF7E1F9A560207470BD84
:101DC000426883688260D31AC360704710B5416867
:101DD00004000020814205D06423E0685843FEF7E8
:101DE000CDF9C0B200232074E360636010BD00230E
:101DF0004182C3608360436003747047436801336A
:101E000043607047007C704743685B1843607047CD
:101E1000C0687047002902D0C3680133C3604368BB
:101E2000013343607047007C7047002343600381A7
:101E3000704700000A2310B50400838002F016FAF0
:101E40002368E0809B6820009847034B984200D9A4
:101E50001800208110BDC0462FF8000070B503891E
:101E60000400002B15D08588002D09D0013DADB2AE
:101E70008580002D0DD103681B682000984708E07D
:101E800002F0F4F9E388C01A238980B2834201D2B8
:101E9000258170BD23685B68EFE7F7B5050010008A
:101EA00014001E000191FFF74BFA019B071CE0187C
:101EB000FFF746FA011C381CFEF702FD6E60286031
:101EC0003000FFF7EBF9A860F7BD10B504004068DB
:101ED000FFF7E4F9A06010BD7F23181A80B210B597
:101EE0007F2815D83F23591A89B23F2910D80124D9
:101EF000CB08DB01C0180B4B80B2DC831B181442EB
:101F000007D007220A40944020331A7814431C70EB
:101F100010BD07220A40944020331A78A2431A7059
:101F2000F6E7C046A000002010B57F2812D83F2950
:101F300010D80124CB08DB01C0180B4B80B2DC8326
:101F40001B18144207D007220A40944020331A7805
:101F500014431C7010BD07220A40944020331A78A5
:101F6000A2431A70F6E7C046A000002010B57F29F2
:101F700015D83F23181A80B23F2810D80124C3086F
:101F8000DB01C9180A4B89B2DC835B18144207D005
:101F900007220240944020331A7814431C7010BD6D
:101FA00007220240944020331A78A2431A70F6E7C1
:101FB000A00000207F23591A89B210B57F2912D8BA
:101FC0003F2810D80124C308DB01C9180A4B89B285
:101FD000DC835B18144207D0072202409440203370
:101FE0001A7814431C7010BD07220240944020331D
:101FF0001A78A2431A70F6E7A000002010B5134C1F
:1020000082B0E38B002B04D02388002B03D0002365
:10201000E38302B010BD69460D4B00201A689B880F
:1020200000928B80032202F0BDF86B460322D91C7C
:10203000002002F0B7F88022210040202031D20099
:1020400002F0C8F80028E2D0E3E7C046A000002074
:102050008030010810B502F0CFF80238431E9841D5
:10206000C0B210BD114B10B5D88002281CD010D8BA
:10207000002814D0802040220D49996098805A8011
:102080001800802200212030D200D98310F07BFF7D
:1020900010BD032803D1802040220649EDE7064AFF
:1020A0009A6040208022E9E7044AF9E7A000002076
:1020B000B51F00086D1F0008291F0008D91E000861
:1020C000054B01211800802210B52030D983D200A1
:1020D000002110F058FF10BDA000002010B5034BE8
:1020E00080B29B6889B2984710BDC046A00000200E
:1020F000F0B51F0089B00EAB039200229A5E072351
:102100000E00F91D0190C81703405B18DB10069301
:102110000FAB1B880493002A30DD002F2EDD9219AF
:1021200013B20793002300250293154B0593002358
:10213000B6B20FE0EDB2019BE0186BB280B2002B9B
:1021400004DA059B31009B68049A9847013423B256
:102150009F4209D06D009CB25A07EBD1039A0299B5
:10216000DB105218D55CE6E7069A029B944663445E
:1021700001360293079B36B29E42D8D109B0F0BD1A
:10218000A0000020F0B51E0083B0002A12DB0FD0A3
:1021900084B2A21893B2124F8DB200932000BB6894
:1021A0003200290098470134009BA4B2A342F5D124
:1021B00003B0F0BD002453420193094F83B2009352
:1021C0008DB2009BA4B2181B3200BB68290080B2FC
:1021D00098470134019B24B29C42F2DBE8E7C046F9
:1021E000A0000020F0B51E0083B0002A12DB0FD043
:1021F0008CB2A21893B2124F85B200932100BB6833
:102200003200280098470134009BA4B2A342F5D1C4
:1022100003B0F0BD002453420193094F8BB20093E9
:1022200085B2009BA4B2191B3200BB68280089B29A
:1022300098470134019B24B29C42F2DBE8E7C04698
:10224000A0000020F0B589B00590180004930EABF3
:102250001F88031E56DB013B9BB20693002A56DB08
:1022600093B2581E80B20790002A00D1A4E08AB22F
:1022700001926A46958A524C2E005B199BB20293DA
:102280003000A3683A00019998470136029BB6B224
:10229000B342F5D1019B069E9C466644B6B2280027
:1022A000A3683A00310098470135029BADB2AB42BA
:1022B000F5D1049B002B59DB002B21D0019D6A46F0
:1022C000AC4663449BB2968A3D4C02932900A368B6
:1022D0003A00300098470135029BADB2AB42F5D1D0
:1022E000079BF618B6B2019D3A00A368290030009A
:1022F00098472B00029A01339BB201939A42F2D184
:1023000009B0F0BD01339BB20693002AA8DA8BB264
:102310000193531C9BB20793534202936B460025D3
:102320009B8A274C0393039BADB2581B3A00A368CA
:10233000019980B298470135029B2DB2AB42F2DC85
:10234000019B00259C46069E6644B6B2039BADB237
:10235000581B3A00A368310080B298470135029BB0
:102360002DB2AB42F2DC049B002BA5DA5E426B4639
:1023700000259B8A124C0293019BADB2591B01357B
:102380003A000298A36889B22DB29847B542F3DBB0
:10239000079A00259446029B63449BB20293019BDB
:1023A000ADB2591B01353A000298A36889B22DB22B
:1023B0009847B542F3DBA3E78BB2019379E7C046B8
:1023C000A0000020F0B587B003920CAA0D0017887A
:1023D0000490002B3BDB5B18059399421BDA424EBD
:1023E000039B002B19DB00D16EE06B461C8A039B1C
:1023F000ADB2E3189BB201932000B3683A00290004
:1024000098470134019BA4B2A342F5D10135059B45
:102410002DB29D42E4DB07B0F0BD5B4202936B46F8
:1024200000241B8AADB20193019BA4B2181B3A0091
:10243000B368290080B298470134029B24B29C42C1
:10244000F2DB0135059B2DB29D42C9DBE3E75B184A
:1024500005939942DFDD039B234E002B1ADB002BF3
:102460003AD06B461C8A039BADB2E3189BB2019332
:102470002000B3683A00290098470134019BA4B2B8
:10248000A342F5D1013D059B2DB2AB42C3DA039BBC
:10249000002BE4DA5B4201936B4600241B8AADB249
:1024A0000293029BA4B2181B3A00B368290080B2C1
:1024B00098470134019B24B29C42F2DB013D059B0D
:1024C0002DB2AB42E3DBA6E7ADB20135059B2DB2E1
:1024D0009D4200DA84E79EE7ADB2013D059B2DB237
:1024E000AB42D4DB97E7C046A00000200122014B9D
:1024F0009A837047A00000200022014B9A83704706
:10250000A0000020014B98617047C046A000002049
:102510000022014B9A617047A00000200122014B6C
:102520009A827047A00000200022014B9A827047D7
:10253000A0000020014B98817047C046A0000020F9
:10254000014BD8817047C046A0000020014B988104
:10255000D9817047A0000020F0B587B00A2800D1CB
:102560006CE01F283CD93A4F20380C23FE5E7B8854
:10257000B21DC0B29A4257DAB6B2B21DFB8911B28F
:102580009C1F023392B2B981B98B04934300059228
:102590001B18304A5B00A4B29B18039402930029D5
:1025A00028D0029B1D781422BB5E002B01D0ED4386
:1025B000EDB26B461B8A039C01932100BB68AAB253
:1025C000300098470134019BA4B26D089C42F4D1BD
:1025D000029B013601330293059BB6B29E42E0D1C5
:1025E00007B0F0BD029B013601330293059BB6B2E2
:1025F0009E42F5D01422BB5E029A1578002B01D0C2
:10260000ED43EDB26B461B8A039C0193EB0704D5A7
:10261000012221003000BB6898470134019BA4B21D
:102620006D089C42F2D1DDE7FB893A8A06219B18AE
:1026300008339BB200260622FB81A1E70021044A51
:10264000D389108A91811B180833D381C8E7C0460B
:10265000A000002098320108F0B5524B8DB09A6965
:102660000593937A0A2800D16DE0117A884268D3E5
:10267000547A844265D30527401A51681268C40011
:1026800008920C19E757059E06970C22B05E718AD6
:102690002279A5785218C119A77849197588039726
:1026A000E77892B20B970627E757A94254DC83B22A
:1026B000D118079389B20E23F55EB1811421735EA0
:1026C000002B57D10599898B012900D166E05A4228
:1026D00053419BB209930B9B2688002B31D0039B5F
:1026E000002B2ED0ED19ABB2049300230025002758
:1026F0000A9300243B195B0703D1089A731C955D6C
:102700009EB22B0609D5079B069A04999818059B3B
:1027100020189B68099A80B298470134039B6D008A
:10272000A4B2ADB2A342E5D8DF19049B0A9A0133E3
:102730009BB2013204930B9B92B20A92BFB29342B6
:10274000D7D80DB0F0BD00210598C2898181018ADA
:1027500052189B18C381F4E7002011000790F089FC
:10276000358AB18140191B181DB21421735EF581A1
:10277000002BA7D00123023212B20093069B791ED0
:10278000581E079B491918180B9B09B2023300B257
:10279000FFF718FE059B14229B5E98E70232009318
:1027A00012B2EBE7A0000020054B10B59B69002B8F
:1027B00002D0FFF751FF10BDFFF7CEFEFBE7C0468A
:1027C000A000002070B504000078002810D0094D4A
:1027D00005E00134FFF740FF2078002808D0AB69FE
:1027E000002BF6D10134FFF7B7FE20780028F6D190
:1027F00070BDC046A0000020F0B5224E0400B569AF
:1028000083B0002D35D06A7A037894462F7A002B56
:1028100036D000220100708A019001319F420AD80F
:102820009C4508D30198DB1B82186868DB00C01840
:102830000379D21892B20B78002BEED173889A1AD2
:10284000D30F9B185B10B3812078002807D10EE0CE
:102850000134FFF701FF2078002808D0B569002D6A
:10286000F6D10134FFF778FE20780028F6D103B0C6
:10287000F0BDFDF753FC42001218520092B2DDE7A2
:102880000022DBE7A000002070B52D4C050082B0CF
:102890002080002819D08023C02280205B02D20231
:1028A000E361402300216080E260200080226360B9
:1028B000244B20302161D200A161A182A36010F0DD
:1028C00062FB0023E38302B070BD3C2001F064FC96
:1028D00020221D49002001F065FCC023DB02E360DB
:1028E0008023A5612561A5822500802240215B020D
:1028F0002688E3612035134B616062800021280047
:10290000D200A36010F03FFB002EDAD10F4B6946D6
:102910001A68002000926A469B889380032201F087
:1029200041FC6B460322D91C002001F03BFC8022B5
:1029300029004020D20001F04DFC0028C1D0C2E7A0
:10294000A0000020291F0008D834010880300108A9
:10295000C31770B50400C01858400D0016000300DE
:10296000022963D1002A0BD13F22002C00DB403228
:10297000904200DD13004022002C0ADB180070BDDD
:10298000012A18D1632806DC4300002CF6DA8022E5
:1029900052001343F2E7554AFF239042F5DCFEF75D
:1029A000CFFC5349FEF756F90FF0ACF9FDF7D0FD17
:1029B00043003343E9E70023022ADFD18300632881
:1029C0001EDDFA239B0098420CDAFEF7B9FC484959
:1029D000FEF740F90FF096F9FDF7BAFD01238000EC
:1029E00003430DE0434B98420FD8FEF7A9FC424940
:1029F000FEF730F90FF086F9FDF7AAFD83003343A7
:102A0000002CBBDA80229200C3E73C4B98420BD8E3
:102A1000FEF796FC3A49FEF71DF90FF073F9FDF742
:102A200097FD03238000DBE7364BE9E7002303290A
:102A3000A4D1012A1BD1FA239B00984205DA430056
:102A4000002C9BDA80221201A3E7A0239B0198426D
:102A50000BDAFEF775FC2649FEF7FCF80FF052F989
:102A6000FDF776FD43003343EAE7274BE8E7022A08
:102A700000D083E7FA239B00984206DA8300002CFB
:102A800000DB7BE78022520183E71A4B98420CDC83
:102A9000FEF756FC1649FEF7DDF80FF033F9FDF7A7
:102AA00057FD012380000343E9E7184B98420BD8F8
:102AB000FEF746FC1049FEF7CDF80FF023F9FDF7BD
:102AC00047FD83003343DAE7FA231B0398420BD216
:102AD000FEF736FC0A49FEF7BDF80FF013F9FDF7D3
:102AE00037FD83002B43CAE7094BC8E7F504000014
:102AF000CDCCCC3D0F2700000AD7233C17F00100B6
:102B00006F12833AFF010000FF0700009F8601005B
:102B1000FF0F0000002303607047000070B5040041
:102B20000D1C092900D90925064AEBB212789A42F0
:102B300002D10023236070BD01F08AFB2571206063
:102B4000F9E7C046C0040020036810B50400002B5C
:102B500001D1002010BD01F07BFB2368C01A074B98
:102B60009842F6D90023064A2360127823799A42C4
:102B7000EFD0044A0120D377ECE7C046EE02000014
:102B8000C004002018050020FF23437100230171B9
:102B9000837103818372704770B5037904000D005F
:102BA000002B0DD04179A9420AD0002909D0012972
:102BB0000CD000236571A3719D420BD0012D10D064
:102BC00070BD03689B6820009847F2E70368002106
:102BD000DB68F8E7012123689B6820009847A07113
:102BE000EEE723682900DB68F7E70D23F0B59C4684
:102BF000837B8FB00193C37B0C003F221900019DA2
:102C00001140067C4901ED080D43417C9B09B6004B
:102C100002951E430D0001231D40AD0235430F26D2
:102C2000ABB2857C49082E40F60131437F260491E2
:102C3000C17C077D0E4036012D093543467DC9090B
:102C40007F0005950F430325310029404902394390
:102C50001F2703938BB2817DB6080F40BF013E430F
:102C60000796C67D4909AE403143467E089137003C
:102C700007210693EE40037E0F403F023B4309933A
:102C80000123877E84443A40520116430A96BA09CA
:102C9000067FC77E3340BF0017439B023B439BB276
:102CA0000B930F23427F760813408B401E430C96F4
:102CB0007F26837F12091E40360132430D92DA09C6
:102CC000C37F1F265B0013436246D27C15406D0212
:102CD0001D4363461B7D92081E40B60116436246A3
:102CE000577D019A5B09FF0011401F43437B080297
:102CF000184380B2FEF7E0FC20800298FEF7DCFC6F
:102D000060800398FEF7D8FCA0800498FEF7D4FCFE
:102D1000E0800598FEF7D0FC20810698FEF7CCFCF9
:102D200060810798FEF7C8FCA0810898FEF7C4FCF4
:102D3000E0810998FEF7C0FC20820A98FEF7BCFCEF
:102D400060820B98FEF7B8FCA0820C98FEF7B4FCEA
:102D5000E0820D98FEF7B0FCADB220832800FEF7AC
:102D6000ABFC60833000FEF7A7FCA0833800FEF7C1
:102D7000A3FC8023DB00E083238463840FB0F0BDD9
:102D8000F8B504000F0001F071FA05002368200077
:102D90001B689847061E09D1A37A012B1FD12389EE
:102DA000ED1A124B9D421ADDA07218E02368200034
:102DB0005B689847A37A002B13D10F2813D10133F6
:102DC0006381E37AE2180133DBB21073E372182BEC
:102DD00009D939002000FFF708FF0023A372300053
:102DE000F8BD012BEDD02581D0E7C046C409000015
:102DF00010B58379002B06D042790023012A02D82E
:102E0000FFF7BEFF0300180010BD70477047704702
:102E100070470020704700207047704700207047BF
:102E200000207047054B82B05A6902435A615B69C2
:102E300018400190019B02B07047C046001002404C
:102E4000054B82B0DA690243DA61DB691840019010
:102E5000019B02B07047C04600100240054B82B093
:102E60009A6902439A619B6918400190019B02B0E4
:102E70007047C04600100240EFF31082012383F335
:102E80001088202103688B43036082F31088704709
:102E9000EFF31082012383F31088402103688B43F2
:102EA000036082F310887047EFF31082012383F3ED
:102EB0001088802103688B43036082F31088704779
:102EC000704700000388044A5940C9B249008A5A31
:102ED0001B0A534003807047146E010870B5002A26
:102EE0000FD08A180688074D94B20B78320A7340C7
:102EF000DBB25B00EE5A013156408BB20680A34232
:102F0000F3D170BD146E010837B501236A460C0079
:102F100005005B42D380013C064BA4B29C4202D127
:102F20006B46D8883EBD6B462978981DFFF7CAFFCF
:102F30000135F0E7FFFF000090238022DB0512023D
:102F40009A62704790238022DB0512029A617047D3
:102F5000044B1888044B1B88C01A431E9841C0B20A
:102F60007047C046102D00200E2D00200023044A7B
:102F70001380044A1380044A1380044A1380704764
:102F80000E2D0020102D0020122F0020142F0020C5
:102F90000020704770470000064A074913880988D7
:102FA0000133DB05DB0D994202D00449C85413807C
:102FB0007047C04608230020062300200621002079
:102FC000034BC21800235380014A83527047C04606
:102FD0006E020000034BC21800235380014A835243
:102FE0007047C0465A0200000300304A10B5506ACC
:102FF0001A7A80B2002A0DD0FA249A896400821AC3
:1030000092B2A24201D900221A729A7A4F2A01D9A9
:1030100000221A729881187A08280FD8FDF790F8C4
:10302000050E0E0E0E0E0F172200EE2901D0C82934
:1030300004D1012259759A7205321A7210BD9A7A1A
:10304000501C9A189872517507225972F5E7987AB0
:10305000421CD2B218189A724175597A9142EDD237
:103060000822EAE79A7A501C9A1898725175DA7D0C
:10307000162A04D11A0001216532117010E00C49A2
:103080005A690A400B498A420CD1A222598BD200BC
:10309000914207D11A00012167321170197F5170D6
:1030A0000922CAE71A0001216632E6E7000400405F
:1030B00000FF00FF00C80032044B1888044B1B8837
:1030C000C01A431E9841C0B27047C0460823002072
:1030D0000623002070470000074BC2185188C35ACE
:1030E0005B1A98B21B0403D593880133C01880B2D1
:1030F000431E9841C0B270476E02000008B4024BF4
:103100009C46143808BC6047D9300008074B074973
:10311000C218415A53880020994205D0D1188879A5
:10312000918801330B4053807047C0466E02000007
:1031300008B4024B9C46143808BC60470D310008A7
:1031400070B54A780D0004000C31352A09D80FF00B
:1031500081FF362268780021121A20180FF013FF21
:1031600070BD36220FF076FFFAE770B54A780D0091
:1031700004000C311B2A09D80FF06CFF1C22687860
:103180000021121A20180FF0FEFE70BD1C220FF055
:1031900061FFFAE770B54A780D0004000C31082A87
:1031A00009D80FF057FF092268780021121A201859
:1031B0000FF0E9FE70BD09220FF04CFFFAE770B581
:1031C0004A780D0004000C31072A09D80FF042FF9D
:1031D000082268780021121A20180FF0D4FE70BD62
:1031E00008220FF037FFFAE7064B9A8CEFF31081B5
:1031F000012282F3108818681F3202431A6081F39B
:10320000108870470038014010B50400FEF758FFE1
:1032100006210020FFF79AF90C48FFF773F9200008
:10322000FCF77CFFC0B2082808D81B20FFF788F9FC
:103230002000FFF7E1FAFFF76BF910BD1B20FFF745
:103240007FF92000FFF7BEFAF5E7C04644440108C5
:103250000288838810B5541C234044889C4202D0C5
:1032600082189171038010BD002370B568309CB244
:10327000A24200D870BD058884886E1C3440468800
:10328000A64203D0CE5C4519AE7104800133EEE74F
:1032900008B4024B9C46143808BC604769320008E9
:1032A00070470000064B9A8CEFF31081012282F3E5
:1032B000108818681F3202431A6081F31088704723
:1032C0000044004013B56B460268D9710733D468D7
:1032D00019000122A04713BD70B5040008000D00BD
:1032E000FCF71CFF2368290082B2DB6820009847A6
:1032F00070BD0000902310B5DB050400984209D191
:1033000080208002FFF78EFD0F4B9C420CD1802065
:10331000C00307E00D4B984207D00D4B984207D1F0
:1033200080200003FFF77EFD10BD8020C002E9E78A
:10333000084B984202D180204003F3E7064B9842A5
:10334000E2D180208003EDE700140048000400482B
:1033500000080048000C0048001000481B4B10B546
:10336000040098420BD180200001FFF777FD184B35
:103370009C420ED180204002FFF770FD25E08023A3
:10338000DB0598420BD0134B98420CD10220FFF77B
:1033900057FD114B9C420CD180208002ECE70120AC
:1033A000FFF74EFDE3E70D4B984208D11020FFF7E1
:1033B00047FD0B4B9C4208D18020C002DCE7094B43
:1033C0009842D4D12020FFF73BFD10BD002C0140D6
:1033D0000040014000040040004401400010004053
:1033E0000048014000140040044B10B5984203D13E
:1033F00080208000FFF732FD10BDC0460024014050
:10340000F0B50E0089B000930EAB1F780FAB1B78A0
:10341000050014000021142203A801930FF0B3FD4E
:1034200002960B2C23D82000FCF78AFE060609130F
:103430001515151717171B1D0323039301E002230E
:103440000693009B032B21D81800FCF779FE11137B
:103450001D110123F4E70123EFE7012303930593F3
:10346000EFE70223E9E702230393013BF7E7FEE7D7
:1034700003230493082F1BD83800FCF761FE1A1AA7
:10348000080D0F11131517000123F2E7FEE70123C2
:103490000793022303930EE00223F9E70323F7E7E0
:1034A0000423F5E70523F3E70623F1E70723EFE716
:1034B000FEE7002FEDD1019B002B02D02800FFF783
:1034C00019FF601F042805D8FCF73AFE030A04031D
:1034D0000A00AE62280002A90CF004FA09B0F0BD9F
:1034E000AE61F7E713B50124019400240094FFF7BF
:1034F00087FF13BD37B51C00012506AB1B7801956E
:103500000094FFF77DFF37BD37B50D489025FFF7D5
:10351000B3FC002402238021ED05280000930A2239
:10352000019401338900FFF76BFF032380212800FA
:103530000122994001940094FFF762FF37BDC04615
:103540000038014070B586B016006B460022DA8064
:1035500004000D00FFF702FF042E37D83000FCF7FF
:10356000EFFD2529032D36001A4B1B491868FCF77F
:1035700005FE80B2002301A9013808802000CB603D
:103580004B608D600B610CF04FFB80222368134968
:1035900093432360A3680B407021A36063688B434F
:1035A0006360A3689343A36006B070BD094B0C49E8
:1035B0001868DCE7074B0B491868D8E7054B084942
:1035C0001868FCF7DBFD0A235843D2E7FEE7012029
:1035D000D0E7C0461C00002080A81201F8BFFFFF02
:1035E00040420F0000127A0010B50400FFF7AAFF56
:1035F000012322681343236010BD012110B500226E
:103600004942FFF7F1FF10BD184B10B51B68184C6D
:1036100023600DF033FD09F04BFB9020C0050CF04A
:10362000FBF814480CF0F8F813480CF0F5F81348C0
:103630000CF04AFC12480CF047FC0CF0A5F90022F3
:10364000104B1A605A609A6072B601230E4A5B42B0
:10365000D367C0220D4952008B5062B60C4B1B68D9
:1036600083F3088823689847FEE7C04604C8FF1F15
:1036700068070020000400480008004800380140A6
:103680000044004010E000E004E100E000E100E060
:1036900000C8FF1F10B58AB004000C22002102A848
:1036A0000FF071FC1422002105A80FF06CFC8023A0
:1036B00001A91B06200001930CF078F8002380225A
:1036C000059306930893802392015B01200005A9CE
:1036D000079209930CF086F80AB010BD010010B5EE
:1036E00004241800CB685203A343CB608B6A520BAF
:1036F0001A438A6207224B6913434B61063A00233F
:103700000299FFF7EFFE10BD10218368094A10B53A
:1037100013400B43836083680B42FCD183681340E2
:1037200002221343836083681342FCD1FFF75CFEDF
:1037300010BDC046E8FFFF7F012202608368044994
:103740000B401343836003681342FCD07047C046AC
:10375000E8FFFF7F70B50849084C081BEFF30883AA
:103760005D1E0022A84202D8621AD218013AAA218C
:103770000FF009FC70BDC0460040002000040000AE
:1037800070B59024E4052000032306220121FFF7F1
:10379000A9FE032380210F4D994028000222FFF744
:1037A000A1FE032328001A004021FFF79BFE200002
:1037B000032305221021FFF795FE2800032305228D
:1037C0000221FFF78FFE0323052220212000FFF7AF
:1037D00089FE70BD00040048024B18694006C00F06
:1037E0007047C0460004004810B5FFF7F5FF0028F9
:1037F00000D110BDC046F8E70222044B9A62902324
:103800001E32DB059A61103A9A6170470004004845
:1038100090231022DB059A6292189A62014B1E3A9D
:103820009A617047000400481249134B0A69C1208D
:103830001A4080235B0013430B61104B10495A68F8
:1038400080000A405A601A680A401A60DA680A4022
:10385000DA6080229968D2000A4380219A60094A7E
:10386000090613581B021B0A0B43135080231360D5
:103870007047C04600000140FFF0FFFF0004014018
:10388000FFFBFFFF00E100E08023034ADB00536100
:1038900011680B431360704700040140802110B58C
:1038A0000A4C0023200006224900FFF71BFE2000DF
:1038B000002306228021FFF715FE80210023062227
:1038C00020008900FFF70EFE10BDC046000400482E
:1038D00080220549520448690304134080225200A3
:1038E000824313438B6170470004004880220549DE
:1038F00012044869030413408022824313438B61FE
:103900007047C0460004004813B50D4C2000FFF777
:10391000FBFE2000FFF7BEFE802290230021200046
:103920000092DB05074AFFF7D9FE2000FFF704FFEE
:10393000A268054B1A4004231343A36013BDC0467D
:10394000002401408000001CE8FFFF7F104B022094
:103950001B6C9BB2C72B1AD9C7210E4A49009A1873
:1039600092B206308A4212D90B4A07389A1892B29C
:103970008A420CD9094A03309A1892B28A4206D96F
:103980000020074A9B189BB29942404100017047B2
:1039900000240140E9FCFFFF01F9FFFF4BF5FFFFA9
:1039A0003EF3FFFF9020002303228021C00510B5C5
:1039B000FFF798FD9021102200238020C9050C6993
:1039C000044201D10133DBB2013AD2B2002AF6D16E
:1039D0000C2B01D9FFF718FE10BD000010B50248EE
:1039E000FFF70BFE10BDC046001400400449013033
:1039F0004A6A80B292B24B6A9B1A8342FBD37047E9
:103A00000014004070B5FA250400AD00002C00D170
:103A100070BD2800013CFFF7E9FFA4B2F6E71FB52F
:103A20000023029001936946013301A8039309F032
:103A30008DFB431E9841043005B000BD0A000023F1
:103A4000010010B5022009F019FB431E9841043013
:103A500010BD10B5FFF7E3FF04384342584180B270
:103A600010BD10B5FFF7EAFF04384342584180B259
:103A700010BD0000F0B50E00140085B0012813D071
:103A80003C27254B254D0293254B019309F0AEFAB7
:103A900039002800FFF7DDFF00280CD1002409F0D1
:103AA000B9FA200005B0F0BD1C4B3D2702931D4B19
:103AB000194D0193EAE7002E01D1FC24E400033400
:103AC000A410A3B22C00002703931034039ABBB2B6
:103AD0009A4207D828001449FFF7C3FF431E9841B4
:103AE0008400DCE7002E08D1029B5B1B1B191968C0
:103AF0004B1C05D101370434E8E7BB00F158F7E768
:103B0000019B9C4205D22000FFF7ABFF0028F1D1BA
:103B1000C4E70324C3E7C04600E8010800E0010849
:103B2000FFE70108FFEF01081111111110B509F0AD
:103B30005DFA3C210848FFF78CFF0024A04206D024
:103B40003D210648FFF785FF431E9841840009F098
:103B500061FA200010BDC04600E0010800E801083D
:103B6000002310B5074C9AB2914201D8042010BD31
:103B7000A34205D0044A9A181278C2540133F2E7DE
:103B80000320F4E7EF07000010E0010870B504001F
:103B90000D0072B60A0001000020FFF76BFF62B64D
:103BA000042806D172B62A0021000338FFF762FF0D
:103BB00062B670BD104B70B51D68104B1C68104B81
:103BC0009D4208D10420AC4204D0002211000338E9
:103BD000FFF750FF70BD9C4203D10022110010007E
:103BE000F6E7FFF7A3FF0428F4D12C400134634229
:103BF0005C41601CEEE7C04600E0010800E80108F7
:103C0000111111110122044B187399681142FCD053
:103C1000187BC0B27047C04600300140F8B50600BE
:103C20000F0015000024AC4200D1F8BD305DFFF755
:103C3000E9FF38550134F6E710B5080011001A0005
:103C4000FFF7ECFF10BD000070B505000C00002C64
:103C500000D170BD044B013C1878FFF7D3FFA4B22C
:103C600028700135F3E7C0461000002010B50800A9
:103C70001100FFF7E9FF10BD70B505000C00002C26
:103C800000D170BD2878013CFFF7BCFF0135A4B21C
:103C9000F5E710B508001100FFF7EEFF10BD0000BA
:103CA00030B58DB02822002102A80FF06CF98025D4
:103CB000802090242D02E4054001FFF7CFF8290071
:103CC000200003230622FFF70DFCA5610324012336
:103CD0000A2208211E480094FFF70CFC01230A2247
:103CE00020211B480094FFF705FC2200012310212E
:103CF00017480094FFF7FEFB822252000392FC3229
:103D000000230792E0220825124CD2000593069367
:103D1000029309930A932000073302A904920B939C
:103D200008950BF043FF1022636893436360636858
:103D3000AB43636040232268134323600223A268DD
:103D40001A42FCD0FF22237B034B1A700DB030BD0A
:103D500000040048003001401000002020231A4ACF
:103D600070B5D069184211D0116819420ED0174CA5
:103D7000918C174D23882D8801335B0589B25B0D2B
:103D80009D4203D0134DC9B2E95423801F2313620F
:103D90006133184212D0116819420FD00E4B0F49EF
:103DA00018880B8898420AD00B880133DB05DB0D9D
:103DB0000B800B880A499BB2CB5C138570BD02480F
:103DC000FFF772F8FAE7C04600440040102D0020CB
:103DD0000E2D00200E250020142F0020122F002071
:103DE000122D00200D4902000B880D4810B501333B
:103DF0000488DB050020DB0D9C420ED00948C2542C
:103E00000B80EFF31081012080F310888023064A95
:103E100014682343136081F3108810BD142F002011
:103E2000122F0020122D00200044004070B5040025
:103E30004518AC4200D170BD2078FFF7D3FF0134A4
:103E4000F7E710B508001100FFF7F0FF10BD000004
:103E5000064B074A1B8812889B1A98B21B0403D58D
:103E600080231B01C01880B27047C046102D00206F
:103E70000E2D002010B5FFF7EBFF10BD0848094AD2
:103E8000018813889942FBD0138801335B055B0DD1
:103E900013801388044A9BB2D05CC0B27047C046FE
:103EA000102D00200E2D00200E25002010B5FFF74C
:103EB000E5FF10BD70B50C0088B0060015000021AC
:103EC000082206A80FF05FF823005A1E93411B0337
:103ED00002930C2301A904480196039504940593C9
:103EE0000CF03CF808B070BD0044004070B50125EE
:103EF000044C2368AB432360FFF7DCFF23681D43BA
:103F0000256070BD00440040002210B5080011007B
:103F1000FFF7ECFF10BD000073B501258020344C85
:103F2000800223680326AB432360FEF789FF9020BD
:103F300002230A2204210096C005FFF7DBFA902035
:103F40000223320008210096C005FFF7D3FA0022B1
:103F5000E12011004002FFF7ADFF6368254AC7204A
:103F600013402A226360A36880009343A360224B1E
:103F7000D532195891437F3A0A431A50802252058C
:103F80001A602000FEF790FF2000FEF781FF40231B
:103F900000262362194B20001E80194B1E80FEF75D
:103FA0006BFF184B184A1E80184B80211E806368D7
:103FB0008903134008226360A3689343A360636886
:103FC000134A134022226360A3689343A3608023B3
:103FD000A2685B011343A36023681D43802325600F
:103FE000DB03E2690A42FCD0E2691A42F9D073BDF0
:103FF00000440040FFB7FFFF00E100E0122F002067
:10400000142F00200E2D0020FFF7FFFF102D0020A1
:10401000FFBFFFFF10B5FFF77FFFFFF743F910BDAC
:1040200010B5FFF7F7FF10BDF0B58021022485B071
:10403000060006230B22244889010094FFF75AFA50
:1040400080210B22C90106231F480094FFF752FA72
:1040500031681E4A914209D180241D4BE403D8697E
:104060002043D861DB6923400293029B0023802018
:104070001027184D184C6B60AB60E8602B616B61CA
:10408000AB61EB616760A360E06023616361A36182
:10409000E361914216D101210D4B28005A690A4370
:1040A0005A615B690B400393039B0C4B2B6008F038
:1040B0009FFE0B4B2000F5636E62236008F098FEB4
:1040C000B463666205B0F0BD0004004800580040CB
:1040D000001002405C0E0020A00E0020580002409C
:1040E0004400024010B50122194C1A4BE2602360D3
:1040F0000023194A2000A36023616361E361236206
:104100006260A36109F0FEF9011E20D120000AF0CF
:1041100015FA011E1BD120000AF036FA002816D12C
:10412000C620FF220D4B8000195891433F3A0A43A5
:104130001A50802252041A60C02110381A580906F9
:104140001202120A0A431A50802212011A6010BD8C
:10415000E40E0020005800401A09102000E100E0A1
:10416000064810B503689A69E023DB001A4202D0C2
:1041700009F0AEFF10BD09F035FCFBE7E40E0020AE
:1041800010B5034808F0C7FE024808F0C4FE10BD91
:10419000A00E00205C0E0020014B18707047C04636
:1041A000380F002030B5094B0D0019780123084C59
:1041B00085B05B4202930192490002000095200005
:1041C000023309F0F5F905B030BDC046380F0020C4
:1041D000E40E002037B50D00054B064C197801920E
:1041E0000095020001232000490009F0C3FA3EBDFA
:1041F000380F0020E40E0020012310B5044A0548C2
:1042000011780A2299405B4209F048FB10BDC04674
:10421000380F0020E40E002010B5FFF763FF0022E6
:10422000014B1A7010BDC046380F0020054A064BDE
:1042300011681B785B181360044A1368013313601C
:104240007047C046242F002020000020740D00205D
:10425000014B18687047C046242F002010B5024853
:10426000FFF7CBF910BDC04600040040014B586A6F
:1042700080B2704700040040002210B5024B1A6063
:10428000FFF7ECFF10BDC046740D002070B51B4C4D
:1042900090220021201D0EF076FE0123184D238070
:1042A0000633638008332900A380052215481D3397
:1042B000FDF78AFB144B29006363144B0522A363AB
:1042C00001235B42A38712482D33FDF77DFB0223B8
:1042D0002200E36600237032137022000D49783209
:1042E0000D48636713800EF0ADFE23007F228F33ED
:1042F0001A7005239034237070BDC046D406002088
:1043000024440108DA06002002000F000300050023
:1043100012070020273501084E07002070B5084C11
:104320004518415C20000EF043FE031E05D0001B23
:104330000130C3B2272B00D90023E35C2B7070BD82
:10434000E04A010870B50D001100040016000EF0DF
:1043500079FE002D13D0681E082808D8FBF7F0FE60
:104360000510121416181A1C1E0035236371627989
:1043700073799A4203D105212000FFF7CFFF70BD6A
:104380006123F3E76623F1E76B23EFE77023EDE7A3
:104390007523EBE77A23E9E73123E7E73223E5E703
:1043A00073B505002E0001001C4A68461136FFF760
:1043B000C9FF36011A4CB01C694600190EF042FEC6
:1043C0001420022300216843A61973722B010019DF
:1043D0001B190200FE339983042501234A321380FE
:1043E000C364957113818022543052000280A2620E
:1043F0000C4AE384A28522002E3213702200303250
:10440000137009480C220EF0BEFD22000223083270
:10441000FF334834D387238073BDC046F834010886
:10442000180500200302000052050020F0B5050029
:1044300085B00100BC4A02A8FFF784FF2B001133AE
:104440001E01BA4CB01C001902A9A6190193FDF770
:10445000C1F9737A052B01D900237372B44B198803
:1044600000930E00019B1A01A218507A0641012008
:1044700037000740064210D1577200290DD00A00BC
:104480000240014209D10F001741D6B2074200D1C4
:10449000E4E1019B1A01A21856722A01A118FF310A
:1044A000C87E042801D90020C876009BA1185E8828
:1044B000FF313700C87E074101203B0003409C4686
:1044C000074210D16346CB76002E0CD0310001405C
:1044D000064208D133000B41CFB2034200D1C2E102
:1044E000A118FF31CF76A118FF31087F032801D929
:1044F00000200877009BA1189E88FF313700087FB5
:10450000074101203B0003409C46074211D163460E
:104510000B77002E0DD031000140064209D1330047
:104520000B41CFB2034200D1A2E129016118FF3152
:104530000F77019B19016118497A012905D90429CE
:1045400003D00021A218FF32117714221100694311
:1045500061184A310878042801D9012008706A439B
:10456000A2184B321178042901D9002111701422AC
:10457000009B6A43998EA2180B004B3210780126DB
:104580000341334212D1167000290FD048100200A7
:10459000324030420AD10F001741D0B2374200D129
:1045A0006BE114226A43A2184B32107014226A4342
:1045B000A2184C321178032901D90121117014225B
:1045C000009B6A43D98EA2180B004C32107801264A
:1045D00003411F003740334211D1177000290ED01C
:1045E0000A00324031420AD10F001741D0B237429F
:1045F00000D147E114226A43A2184C3210701422F1
:104600006A43A2184E321178012901D90021117094
:104610001422009B6A43198FA2180B004E321078A7
:10462000012603411F003740334211D11770002982
:104630000ED00A00324031420AD10F001741D0B2E9
:10464000374200D123E114226A43A2184E3210707F
:1046500014226A43A2184F321178022901D900218D
:1046600011701422009B6A43598FA2180B004F321D
:104670001078012603411F003740334211D11770D3
:1046800000290ED00A00324031420AD10F001741F2
:10469000D0B2374200D1FFE014226A43A2184F3251
:1046A000107014221100694361184D3108780228F6
:1046B00001D9002008706A43A218503211780529E8
:1046C00001D904211170142211006943611852317B
:1046D0000878012801D9012008706A43A2185532D0
:1046E0001178012901D90121117014226A43A218FD
:1046F00053321178022901D9002111701422009B34
:104700006A43998FA2180B00533210780126034197
:104710001F003740334218D11770002915D00A0006
:104720003240314211D105E0F8340108180500206B
:10473000D40600200F001741D0B2374200D1B0E0BC
:1047400014226A43A21853321070142211006943D4
:10475000611854310878022801D9002008706A4392
:10476000A21811004C310978012905D14F32117876
:10477000022901D100211170E21DD17F042901D944
:104780000121D17722000832D17F042901D90021EB
:10479000D177009B22006C33188808320700D17F44
:1047A0006F4E0F4101210F420FD1D17700280CD05D
:1047B00047103A000A400F4207D103001341D7B215
:1047C0000B4273D032000832D7772200283211789A
:1047D000022901D900211170220029321178022901
:1047E00001D901211170009B20006E3319882930F6
:1047F0000A0003781A41130001221F0017401342D8
:104800000ED1077000290BD00B001340114207D1C5
:104810000F001F41D8B217424CD033002933187013
:104820002A3423780C2B01D9002323703300323330
:104830001A780C2A01D900221A7033002B331A7807
:10484000042A01D900221A7000231900454A0020C9
:1048500010560400783431DA117031E00132102A38
:1048600000D010E619E60131102900D032E63AE610
:104870000131102900D052E65BE60132102A00D047
:1048800089E693E60132102A00D0ADE6B7E60132A0
:10489000102A00D0D1E6DBE60132102A00D0F5E67E
:1048A000FFE60132102A00D044E74EE70132102A19
:1048B00083D18AE70133102BAAD1B1E77828CBDC6A
:1048C0000133DBB201320C2BC1D100230121264A76
:1048D0001078022800D911700133DBB20132042BA9
:1048E000F6D133002C331A78052A01D903221A7025
:1048F00033002D331A78012A01D900221A703300AF
:104900002E331A78022A01D901221A70330030336B
:104910001A78022A01D901221A701420FF21684353
:1049200033185133197033002F33197033002D01B0
:1049300075193133197001242B006442FC33FE35A4
:1049400056301C6208223462B4846C8430180EF035
:104950001AFB330033331C707463348705B0F0BD29
:1049600018050020520500205E05002070B50428BF
:1049700021D8FBF7E5FB2103261B2100020020259F
:104980001F240F21114B1E001A711A7401229870F6
:1049900003384836C0B23580824292411D005242EF
:1049A0004A352C8019779A739A7670BD09256F2441
:1049B00000220721E6E7FEE71425322400220A211F
:1049C000E0E70200352513241921DBE7C0040020AD
:1049D0000300F0B51133804D1B019F1C85B07F197A
:1049E000009038000193FCF717FF042106000390A4
:1049F00003A8FEF789FA14230099784A4B43EB1871
:104A00004A331B78764C9B009B56002223732376F7
:104A1000744BA6602365230054331A70019B6661B2
:104A2000EB185B7AE0836370009B1B011E00EB18A0
:104A3000FF33D87EFFF79AFF21006B4A6378128814
:104A400028310B70A285E28B684962620022637391
:104A500063760A70934204D13800FCF70DFF634B74
:104A60001870AB19FF331A7F230029331A70002AFC
:104A70000AD05F49E38B51435B18E3835D4B53439B
:104A8000A2689B18A3606361230028331878052867
:104A900047D8FBF755FB0347493C3E44A078032821
:104AA00034D8FBF74DFB024345021820631CD8772E
:104AB0002200230020323033C2CAC2C312681A60F7
:104AC00023004D4A4C331A80FCF7E8FBFF2189058F
:104AD000FCF7C0F8FBF73CFD2300C0B24E33188052
:104AE0002300FA20483319888000FBF7D1FBA31C70
:104AF000D8871423009A5343EB18503318780528AD
:104B000046D8FBF71DFB174B40434548FEE7022004
:104B1000CCE7A378012B09D0022B09D0FEE70320B4
:104B2000C4E7FEE71920C1E70620BFE71220BDE772
:104B30000C20BBE796239B012200636400235532BF
:104B40001370220057321370009A14335343EB183A
:104B50001A004C321278032A03D04F331B78022BF1
:104B600003D12300012155331970531E59424B4183
:104B7000210056310B70230055331B78002B10D0C9
:104B8000012A0ED1FEE796231B02D5E7E123FBE7BE
:104B9000E1235B02D0E7E1239B02CDE79623DB0113
:104BA000CAE71421207841436D184C352978022931
:104BB0000CD12100012057310870002B08D0573448
:104BC0002378002B01D105B0F0BDFEE7002BFAD110
:104BD000012AF4D0F7E7C046180500202444010854
:104BE000C004002001010001D4060020EA040020D6
:104BF0001111000011111111E2040000DE2210B5A4
:104C0000FF21024852000EF0BEF910BD1805002029
:104C1000DE2110B502484900FEF7B8FF10BDC046BE
:104C200018050020DE2110B502484900FEF798FF64
:104C300010BDC0461805002010B5FFF7F3FF024B6A
:104C40001878FFF7F3FB10BDC0040020F8B5FFF79C
:104C5000D5FFFEF7AFFF04280CD0FFF7CFFFFEF71C
:104C6000A9FF042803D1FFF7DDFF042806D0FFF7D2
:104C7000C5FF03E0FFF7D6FF0428EED1524D534C99
:104C80001022290020000EF0A1F9002801D0FFF722
:104C9000B5FF5026A38AFF360027B3421BD0A422BB
:104CA0005200934231D8433AFF3A49494948FCF708
:104CB0002BFF2300627FFF339A76A27F0137DA76DB
:104CC00038000137FFB2FFF76BFB0A2FF8D1002342
:104CD000E3770127A682404B22699A4201D001273F
:104CE00023611022290020000EF070F9002839D02D
:104CF000102229002000FCF7F5FE08223749384829
:104D0000FCF7F0FEFFF784FF2EE0A722520093424B
:104D10001FD80220032701218446453A314BFF3A30
:104D2000187801280CD003280CD0D87801280BD093
:104D300002280CD0013AD2B21433002AF0D1C8E7CD
:104D40001F70F2E71970F0E76046D870F2E7D9708B
:104D5000F0E7002738000137FFB2FFF721FB0A2FE9
:104D6000F8D1B4E7002FCDD1E37F092B01D900237F
:104D7000E37714221100E07F0226414361180D0001
:104D80004C352B78B343012B13D10023154A2978D6
:104D9000D1541433C82BFAD1134BE27F1C001A7084
:104DA000FFF774FA2078FFF741FB2078FFF710FE39
:104DB000F8BD002804D020004A314A300EF04AF9EC
:104DC0000023E377E8E7C046FF3401081805002018
:104DD0002E0500202A0600203C280000103501087E
:104DE000CA06002064050020C004002030B5C01AA7
:104DF00003AC12302578041C1F2800DD1F2420047A
:104E000000D5002424B2AC4200DD2CB2E4B2123B47
:104E10000C70E418147030BD07B5080011001A00BA
:104E200018230093FFF7E2FF07BD000037B5050028
:104E3000022900D9FEE70A4809014418A3786278DC
:104E4000095CAC6028000CF0ABFCE0796379019060
:104E5000A07922790090E17828000CF0C9FC37BDD8
:104E60002870010870B503000400020000681533C3
:104E7000C56914322000A84720222000217D0CF0B3
:104E800000FD70BD7FB501618D7A0400002D29D031
:104E900001210CF065FC012120000CF04FFD0121E7
:104EA00020000CF061FD0821236920005956FFF70E
:104EB000D9FF236920001978FFF7B8FF00222000EE
:104EC00011000CF062FC00231D4A009320001D49D4
:104ED0000CF0A2FC20001B490CF0BEFC20000CF0E2
:104EE00036FD7FBD03210CF03BFC200001210CF0BE
:104EF00025FD200001210CF037FD08212369200049
:104F00005956FFF7AFFF23692A005E680E4B200059
:104F1000E360862110230CF04FFD0C4B200003931F
:104F20005B23042201937021029500954B3B0CF00A
:104F30004FFD2A00310020000CF072FDBEE7C04694
:104F400003400000FFFF000014700108E86A000041
:104F500010B504000CF0FBFC200002490CF07CFCB6
:104F600010BDC046FFFF000070B503000400020042
:104F700001690068097AC56915331432200049B205
:104F8000A84723699A7A002A08D01A78022A00D9F9
:104F9000FEE7044B12019B18A36070BD024BE36057
:104FA000FBE7C046287001081470010810B50B4CCF
:104FB000A368002B05D1E368002B02D12000FFF786
:104FC000D3FF23699B7A002B04D0A3689868044B15
:104FD000C01810BDE368D868F9E7C0461820002063
:104FE00018FCFFFF836810B50400002B04D1C368D0
:104FF000002B01D1FFF7B8FF23699B7A002B03D068
:10500000A3680C20185E10BDE3681020185EFAE754
:10501000836810B50400002B04D1C368002B01D1B4
:10502000FFF7A2FF1520205610BD00000300D83363
:105030001B78002B0AD0D9300278074B120199183F
:105040008968D2580978890088587047837D0E3363
:105050009B001858F9E7C046C0430108F0B587B077
:105060001D000CAB160004CB040003926A461B78AB
:105070000F001371402B01D9402313716B461B792C
:105080005B220021200002930DF07DFF07219F4B42
:105090003278DB8B0A4023701B0A6370A3783F01D0
:1050A0008B4313430822A37073780220DB00134064
:1050B0001F43A3780B401F43A77001277279E37841
:1050C0003A40BB431343E370B279637939313A40D4
:1050D00092018B43134363713056FCF7B2FA4300DD
:1050E000E078384018437F239C46E0706046F278B1
:1050F0001A4023798343134323713179227939404C
:10510000C90102400A43227130793F22F840072644
:1051100061791040914301436171019B5900A3796A
:105120003B400B43A37129786878E171217A3040C4
:10513000B143014321721F21A8780840217AC000A1
:105140003140014321726888617A400910409143DF
:10515000014361720321664628790840617A800123
:10516000114001436172A9888908A1726879E17AC6
:1051700080083840B9430143E172A879C9B2304090
:10518000B840394001430F20E172EE88217BF609D7
:10519000064081433143072621732B7A217CE37338
:1051A0006B7AB14333401943231859701F21AE7AEB
:1051B0000E40F1000726019159783140019E31439C
:1051C00059706E89997876091640914331439970E8
:1051D00003212E7B0E409978B6011140314399701E
:1051E000AA899208DA70697B1A7989083940BA432A
:1051F0000A431A716246A97B1140B9401A793A40B4
:105200000A431A71E9895A79C909014082430A435C
:10521000C0215A712B8AC900DB0863756B8ADB08D1
:10522000A375AB8ADB08E375EB8ADB0823762A8B50
:1052300002238A4206D2FF33FF3393429B4103216C
:105240005B420B403021227B1B018A43C021134368
:1052500023736A8B0223C9008A4206D2FF33FF33CD
:1052600093429B4103225B4213403F21227B9B01DF
:105270000A40C02113432373AA8B0223C9008A4228
:1052800004D2FF33FF3393429B415B423021227DA6
:105290001B018A43C02113432375EA8B0223C900F3
:1052A0008A4206D2FF33FF3393429B4103225B4283
:1052B00013403F21227D9B010A40134321002375A7
:1052C000002319310298DAB290421AD804AB9D1D1E
:1052D0000123210028005B420D222B80FDF7FEFDFB
:1052E00021002B780D3163736B784C224B702800B2
:1052F000FDF7F4FD2B78593423706B78637007B099
:10530000F0BD039AD25CCA540133DBE7C00400202D
:1053100013B504AC24780093019413000A00002113
:10532000FFF79CFE13BD000013B5164A43780178C1
:10533000D28B1B0204000B4301209A4221D10F2281
:10534000A37800189343103BE032134219D1A3799C
:10535000A52B16D801236A465B42D3806B462100F9
:10536000981D5922FDF7BAFD2300694659335A3476
:105370001A782378C8881B021343C01A431E984129
:10538000800016BDC004002030B5464A0178D31D08
:10539000DC7F0F231C409943214301701100083129
:1053A000CC7F01782401194021430170110028317C
:1053B0000C7841781C4099432143417011002931F8
:1053C0000C784178240119402143417011002A31A1
:1053D0000C7881781C40994321438170110032314F
:1053E0000C7881791C4099432143817111002B3144
:1053F0000C788178240119402143817011002C31EF
:105400000C78C1781C4099432143C17011002D31A3
:105410000C78C178240119402143C17011002E314C
:105420000C7801791C4099432143017111003031FE
:105430000C7841791C4099430B00234343710400CD
:10544000030019490B33173400254D5701311D70E6
:105450000133A342F8D11300032446331978C37DE6
:105460002140A3430B43C37513000C254733197820
:10547000C37D2140AB4389000B43C3751300483300
:105480001978C37D21402D340901A3430B433F21EB
:10549000C37549321278DBB292010B401343C375D6
:1054A00030BDC04618050020520500200278304B60
:1054B0001207120FD91D30B5CA77190002780831CA
:1054C0001209CA771900427828311207120F0A70A0
:1054D00019004278293112090A70190082782A319C
:1054E0001207120F0A701900827932311207120F57
:1054F0000A70190082782B3112090A701900C278DB
:105500002C311207120F0A701900C2782D311209BE
:105510000A70190002792E311207120F0A70190051
:10552000427930311207120F0A700400020011494B
:105530000B3217340025555701320D700131A2424C
:10554000F8D11900C27D46319207920F0A701900F6
:10555000C27D47311207920F0A701900C27D48318F
:105560009206920F0A70C27D493392091A7030BDBB
:1055700018050020520500201FB503AC237001233D
:105580000193009413000A000221FFF767FD1FBD7D
:105590007FB51F4D01222B0070331A700400C61D09
:1055A000437A807A00021843FCF73CFA6867237B51
:1055B000E27A1B0213432A002100783213800D3156
:1055C00014221448FCF7A0FA1A222B00B2568F338B
:1055D0001A7020002B00F27E903323301A70FFF7F0
:1055E00065FF21001022684641310DF033FD2C2368
:1055F000082269460848FCF76FF9230051331A78EE
:105600002B006C331A80523423786E352B807FBD8B
:10561000D40600204E07002012070020F0B54026D7
:1056200097B006AC0390049105920021320020004F
:105630000DF0A9FC22230A20184F194D3978237048
:105640000901133104ABFF314919C0180622FCF7D8
:1056500049FA0F203A781301EB181132FF33120187
:10566000D97EAD186A7A1B7F0140090102400340D0
:105670000A431B021343228909A8120B1203134386
:105680002381FFF781FE0221059B049A039801966E
:105690000094FFF7E3FC17B0F0BDC046C004002043
:1056A0001805002070B50023082504000A4A8380ED
:1056B0001268837183810384826008492A00103054
:1056C0000DF0C8FC20002A00054918300DF0C2FC7E
:1056D000044B236070BDC046242F002016350108FE
:1056E0001F35010860EA000010B50220FFF73EF9FF
:1056F0000E4C2000FFF72CFC802120004942FFF7D0
:10570000B1FB002120000CF015F8FA208000FEF714
:105710006DF9200001210CF023F82369200019788D
:10572000FFF784FB2000FFF713FC10BD18200020BA
:1057300010B51B4B441C1968E37F821C002B02D15F
:10574000D377816016E0D37F013B5BB2D377002B28
:1057500008DC0023E377F4E74379002B1FD0012313
:1057600003711BE0FA2283681201CB1A934201D91C
:10577000012343710379002BEED00A4B427B1B7847
:10578000002A03D0022B01D003220273023B5A42AB
:10579000534143738379002B01D00323037310BD5E
:1057A000242F00205D0800200300007B0022811EC2
:1057B000012903D8591CC97F914201D11A7370473E
:1057C0001000FCE70A4A70B51388040001339BB24D
:1057D0000D00502B01D8138070BD002305491380A4
:1057E000FDF77AFD29002000FDF776FDF4E7C046BD
:1057F000780D0020FF350108F0B51700050085B0D1
:1058000002916949FDF768FD39002800FDF764FD44
:105810000022664B664C1A80029B012B0FD180261A
:10582000FF33A3616348A662FEF7E0F86148A66112
:10583000FEF7DCF839002800FFF7C4FFF2E7029B0F
:10584000981E80230C2800D9A1E0FAF779FC0717ED
:1058500028384BA0A0A05E5E5E5E5E008026A3613D
:1058600076005448A662FEF7C1F85248A661FEF7DA
:10587000BDF839002800FFF7A5FFF2E78023802656
:105880005B00A3624B48A662FEF7B0F84948A661E8
:10589000FEF7ACF839002800FFF794FFF2E7802606
:1058A000A36276004348A662FEF7A0F84148A661CD
:1058B000FEF79CF839002800FFF784FFF2E7802606
:1058C00080237600A3623B48A662FEF78FF8802310
:1058D0003848A361A661FEF789F839002800FFF770
:1058E00071FFECE7802680237600A3623148A66131
:1058F000FEF77CF880232F48A361A662FEF776F8B6
:1059000039002800FFF75EFFECE7029B093BDBB2A2
:10591000039300230193019B039A934202D28023B5
:105920005B00A362042680232248A362FEF75EF890
:1059300080232048A361013EFEF758F8F6B23900F3
:105940002800FFF73FFF002EEDD180235B00A3610D
:10595000043680231748A362FEF748F880231548D1
:10596000A361013EFEF742F8F6B239002800FFF7C6
:1059700029FF002EEDD1019B0133DBB20193029B85
:10598000019A083BDBB29342C5D20196C3E7A362FA
:1059900080235B00A3620848FEF728F8390028003E
:1059A000FFF710FFF7E7C046FF350108780D00202C
:1059B00000040048A861000050C3000080230222B8
:1059C00009495242DB051A610A88013A92B20A80FB
:1059D0000A88002A06D10121DA688A43DA601A6847
:1059E0008A431A607047C046AA070020802302221B
:1059F0000121DB0552421A61DA688A43DA601A68CB
:105A00008A431A607047000010B58AB0FFF7EEFFB6
:105A10000123802100930A220233194809018024BE
:105A2000FDF768FDFA21E405200000228900FDF75A
:105A300089FD0C22002103A80DF0A5FA02226023A3
:105A4000802102930692A0330792200002AA490106
:105A5000089309930AF038F90A4AC32013680A49DF
:105A600080000B40C0211360084A090613581B022E
:105A70001B0A0B43135080231B0213600AB010BD96
:105A8000000400481C000040FFFBFFFF00E100E0B5
:105A900010B50948FAF772FB80230122DB05D862B2
:105AA0004008186419680A431A608022196A520172
:105AB0000A431A6210BDC04640420F0070B510483C
:105AC000802415000E00FAF759FBE405E062430854
:105AD000FA212800236470438900FAF74FFB094B31
