:020000040800F2
:100000000000012055C800083FC8000841C800088A
:1000100043C8000845C8000847C8000800000000A1
:1000200000000000000000000000000049C80008B7
:100030004BC80008000000004DC800084FC8000869
:10004000A5C80008A5C80008A5C80008A5C80008DC
:10005000A5C80008A5C80008A5C80008A5C80008CC
:10006000A5C80008A5C80008A5C80008A5C80008BC
:10007000A5C80008A5C80008A5C80008A5C80008AC
:10008000A5C80008A5C80008A5C80008A5C800089C
:1000900000000000A5C80008A5C80008A5C8000801
:1000A000A5C80008A5C80008A5C80008A5C800087C
:1000B000A5C80008B9350008A5C80008A5C80008EB
:1000C000A5C80008A5C80008A5C80008A5C800085C
:1000D0003D3300089D30000875600008A5C8000881
:1000E000A5C80008A5C80008A5C80008A5C800083C
:1000F000A5C800080000000000000000A5C8000816
:10010000A5C80008A5C8000811B40008A5C80008C3
:10011000A5C80008A5C80008A5C80008A5C800080B
:10012000A5C80008A5C80008A5C80008A5C80008FB
:08013000A5C80008A5C80008DD
:1001380010B5054C237833B9044B13B10448AFF319
:1001480000800123237010BDA800002000000000DB
:1001580054FF000808B5034B1BB103490348AFF32C
:10016800008008BD00000000AC00002054FF00081B
:1001780010F8012B11F8013B012A28BF9A42F7D049
:10018800D01A7047034613F8012B002AFBD1181A1E
:100198000138704781F0004102E000BF83F000435E
:1001A80030B54FEA41044FEA430594EA050F08BF0A
:1001B80090EA020F1FBF54EA000C55EA020C7FEACE
:1001C800645C7FEA655C00F0E2804FEA5454D4EB4B
:1001D8005555B8BF6D420CDD2C4480EA020281EA15
:1001E800030382EA000083EA010180EA020281EA4D
:1001F8000303362D88BF30BD11F0004F4FEA01319F
:100208004FF4801C4CEA113102D0404261EB4101AD
:1002180013F0004F4FEA03334CEA133302D0524233
:1002280063EB430394EA050F00F0A780A4F10104EF
:10023800D5F1200E0DDB02FA0EFC22FA05F2801829
:1002480041F1000103FA0EF2801843FA05F359410F
:100258000EE0A5F120050EF1200E012A03FA0EFC8E
:1002680028BF4CF0020C43FA05F3C01851EBE371B8
:1002780001F0004507D54FF0000EDCF1000C7EEBD5
:1002880000006EEB0101B1F5801F1BD3B1F5001F13
:100298000CD349085FEA30004FEA3C0C04F1010432
:1002A8004FEA445212F5800F80F09A80BCF1004F5B
:1002B80008BF5FEA500C50F1000041EB045141EADD
:1002C800050130BD5FEA4C0C404141EB0101013CA6
:1002D80028BFB1F5801FE9D291F0000F04BF014695
:1002E8000020B1FA81F308BF2033A3F10B03B3F167
:1002F80020020CDA0C3208DD02F1140CC2F10C02F7
:1003080001FA0CF021FA02F10CE002F11402D8BF54
:10031800C2F1200C01FA02F120FA0CFCDCBF41EA20
:100328000C019040E41AA2BF01EB0451294330BDEF
:100338006FEA04041F3C1CDA0C340EDC04F11404CC
:10034800C4F1200220FA04F001FA02F340EA0300A3
:1003580021FA04F345EA030130BDC4F10C04C4F1E9
:10036800200220FA02F001FA04F340EA03002946C9
:1003780030BD21FA04F0294630BD94F0000F83F413
:10038800801306BF81F480110134013D4EE77FEAF6
:10039800645C18BF7FEA655C29D094EA050F08BF42
:1003A80090EA020F05D054EA000C04BF1946104623
:1003B80030BD91EA030F1EBF0021002030BD5FEA67
:1003C800545C05D14000494128BF41F0004130BD8F
:1003D80014F580043CBF01F5801130BD01F00045E3
:1003E80045F0FE4141F470014FF0000030BD7FEA56
:1003F800645C1ABF194610467FEA655C1CBF0B4651
:10040800024650EA013406BF52EA033591EA030F67
:1004180041F4002130BD00BF90F0000F04BF00215F
:10042800704730B54FF4806404F132044FF0000592
:100438004FF0000150E700BF90F0000F04BF00210B
:10044800704730B54FF4806404F1320410F0004571
:1004580048BF40424FF000013EE700BF42004FEA6C
:10046800E2014FEA31014FEA02701FBF12F07F43E9
:1004780093F07F4F81F06051704732F07F4208BFA0
:10048800704793F07F4F04BF41F40021704730B5A7
:100498004FF4607401F0004521F000411CE700BFF3
:1004A80050EA010208BF704730B54FF000050AE076
:1004B80050EA010208BF704730B511F0004502D577
:1004C800404261EB41014FF4806404F132045FEA79
:1004D800915C3FF4D8AE4FF003025FEADC0C18BF22
:1004E80003325FEADC0C18BF033202EBDC02C2F114
:1004F800200300FA03FC20FA02F001FA03FE40EAA6
:100508000E0021FA02F11444BDE600BF70B54FF0A9
:10051800FF0C4CF4E06C1CEA11541DBF1CEA135587
:1005280094EA0C0F95EA0C0F00F0DEF82C4481EAEF
:10053800030621EA4C5123EA4C5350EA013518BF0F
:1005480052EA033541F4801143F4801338D0A0FBFC
:1005580002CE4FF00005E1FB02E506F00042E0FBA9
:1005680003E54FF00006E1FB03569CF0000F18BFAF
:100578004EF0010EA4F1FF04B6F5007F64F5407457
:1005880004D25FEA4E0E6D4146EB060642EAC621EA
:1005980041EA55514FEAC52040EA5E504FEACE2E57
:1005A800B4F1FD0C88BFBCF5E06F1ED8BEF1004F5A
:1005B80008BF5FEA500E50F1000041EB045170BDD6
:1005C80006F0004646EA010140EA020081EA03011A
:1005D800B4EB5C04C2BFD4EB0C0541EA045170BD16
:1005E80041F480114FF0000E013C00F3AB8014F190
:1005F800360FDEBF002001F0004170BDC4F10004D9
:10060800203C35DA0C341BDC04F11404C4F1200559
:1006180000FA05F320FA04F001FA05F240EA0200B4
:1006280001F0004221F0004110EBD37021FA04F6EA
:1006380042EB06015EEA430E08BF20EAD37070BDA4
:10064800C4F10C04C4F1200500FA04F320FA05F003
:1006580001FA04F240EA020001F0004110EBD37005
:1006680041F100015EEA430E08BF20EAD37070BD75
:10067800C4F1200500FA05F24EEA020E20FA04F34E
:1006880001FA05F243EA020321FA04F001F00041FD
:1006980021FA04F220EA020000EBD3705EEA430E6E
:1006A80008BF20EAD37070BD94F0000F0FD101F09D
:1006B8000046400041EB010111F4801F08BF013CD6
:1006C800F7D041EA060195F0000F18BF704703F014
:1006D8000046520043EB030313F4801F08BF013D9B
:1006E800F7D043EA0603704794EA0C0F0CEA135557
:1006F80018BF95EA0C0F0CD050EA410618BF52EA11
:100708004306D1D181EA030101F000414FF0000016
:1007180070BD50EA410606BF1046194652EA430624
:1007280019D094EA0C0F02D150EA013613D195EA98
:100738000C0F05D152EA03361CBF104619460AD1E0
:1007480081EA030101F0004141F0FE4141F47001EA
:100758004FF0000070BD41F0FE4141F4780170BDDA
:1007680070B54FF0FF0C4CF4E06C1CEA11541DBF3F
:100778001CEA135594EA0C0F95EA0C0F00F0A7F841
:10078800A4EB050481EA030E52EA03354FEA01316E
:1007980000F088804FEA03334FF0805545EA131381
:1007A80043EA12634FEA022245EA111545EA106549
:1007B8004FEA00260EF000419D4208BF964244F1E0
:1007C800FD0404F5407402D25B084FEA3202B61AFF
:1007D80065EB03055B084FEA32024FF480104FF4D3
:1007E800002CB6EB020E75EB030E22BFB61A754647
:1007F80040EA0C005B084FEA3202B6EB020E75EBDA
:10080800030E22BFB61A754640EA5C005B084FEA41
:100818003202B6EB020E75EB030E22BFB61A75460E
:1008280040EA9C005B084FEA3202B6EB020E75EB19
:10083800030E22BFB61A754640EADC0055EA060EDA
:1008480018D04FEA051545EA16754FEA06164FEA1D
:10085800C30343EA52734FEAC2025FEA1C1CC0D1C9
:1008680011F4801F0BD141EA00014FF000004FF056
:10087800004CB6E711F4801F04BF01430020B4F117
:10088800FD0C88BFBCF5E06F3FF6AFAEB5EB030CCF
:1008980004BFB6EB020C5FEA500C50F1000041EBCC
:1008A800045170BD0EF0004E4EEA113114EB5C0499
:1008B800C2BFD4EB0C0541EA045170BD41F480116C
:1008C8004FF0000E013C90E645EA060E8DE60CEA74
:1008D800135594EA0C0F08BF95EA0C0F3FF43BAF91
:1008E80094EA0C0F0AD150EA01347FF434AF95EA48
:1008F8000C0F7FF425AF104619462CE795EA0C0F2C
:1009080006D152EA03353FF4FDAE1046194622E7F8
:1009180050EA410618BF52EA43067FF4C5AE50EAD2
:1009280041047FF40DAF52EA43057FF4EBAE12E7C2
:100938004A0011D212F5001211D20DD56FF4787356
:10094800B3EB62520ED44FEAC12343F0004343EAAB
:10095800505323FA02F070474FF00000704750EAF6
:10096800013002D14FF0FF3070474FF00000704760
:1009780080F0004002E000BF81F0004142001FBF4C
:100988005FEA410392EA030F7FEA226C7FEA236C55
:100998006AD04FEA1262D2EB1363C1BFD21841404A
:1009A80048404140B8BF5B42192B88BF704710F0E0
:1009B800004F40F4000020F07F4018BF404211F083
:1009C800004F41F4000121F07F4118BF494292EAEB
:1009D800030F3FD0A2F1010241FA03FC10EB0C0017
:1009E800C3F1200301FA03F100F0004302D54942A4
:1009F80060EB4000B0F5000F13D3B0F1807F06D351
:100A080040084FEA310102F10102FE2A51D2B1F148
:100A1800004F40EBC25008BF20F0010040EA03003D
:100A28007047490040EB0000013A28BFB0F5000FBD
:100A3800EDD2B0FA80FCACF1080CB2EB0C0200FA73
:100A48000CF0AABF00EBC25052421843BCBFD040C2
:100A58001843704792F0000F81F4000106BF80F43C
:100A680000000132013BB5E74FEA41037FEA226CFF
:100A780018BF7FEA236C21D092EA030F04D092F0CA
:100A8800000F08BF0846704790EA010F1CBF0020FE
:100A9800704712F07F4F04D1400028BF40F000405B
:100AA800704712F100723CBF00F50000704700F07B
:100AB800004343F0FE4040F4000070477FEA2262A2
:100AC80016BF08467FEA23630146420206BF5FEA73
:100AD800412390EA010F40F4800070474FF0000373
:100AE80004E000BF10F0004348BF40425FEA000C3A
:100AF80008BF704743F0964301464FF000001CE0E2
:100B080050EA010208BF70474FF000030AE000BF37
:100B180050EA010208BF704711F0004302D5404275
:100B280061EB41015FEA010C02BF844601460020E7
:100B380043F0B64308BFA3F18053A3F50003BCFA02
:100B48008CF2083AA3EBC25310DB01FA02FC6344AF
:100B580000FA02FCC2F12002BCF1004F20FA02F2B6
:100B680043EB020008BF20F00100704702F12002A9
:100B780001FA02FCC2F1200250EA4C0021FA02F20A
:100B880043EB020008BF20EADC7070474FF0FF0C0F
:100B98001CEAD0521EBF1CEAD15392EA0C0F93EA0A
:100BA8000C0F6FD01A4480EA010C400218BF5FEAAC
:100BB80041211ED04FF0006343EA501043EA51111F
:100BC800A0FB01310CF00040B1F5000F3EBF490019
:100BD80041EAD3715B0040EA010062F17F02FD2A1D
:100BE8001DD8B3F1004F40EBC25008BF20F0010000
:100BF800704790F0000F0CF0004C08BF49024CEA17
:100C0800502040EA51207F3AC2BFD2F1FF0340EAA8
:100C1800C250704740F400004FF00003013A5DDC19
:100C280012F1190FDCBF00F000407047C2F100025A
:100C3800410021FA02F1C2F1200200FA02FC5FEA47
:100C4800310040F1000053EA4C0308BF20EADC7091
:100C5800704792F0000F00F0004C02BF400010F403
:100C6800000F013AF9D040EA0C0093F0000F01F0B0
:100C7800004C02BF490011F4000F013BF9D041EAD2
:100C88000C018FE70CEAD15392EA0C0F18BF93EAD4
:100C98000C0F0AD030F0004C18BF31F0004CD8D1FE
:100CA80080EA010000F00040704790F0000F17BF85
:100CB80090F0004F084691F0000F91F0004F14D0CB
:100CC80092EA0C0F01D142020FD193EA0C0F03D123
:100CD8004B0218BF084608D180EA010000F0004026
:100CE80040F0FE4040F40000704740F0FE4040F401
:100CF800400070474FF0FF0C1CEAD0521EBF1CEAA0
:100D0800D15392EA0C0F93EA0C0F69D0A2EB0302BD
:100D180080EA010C49024FEA402037D04FF0805357
:100D280043EA111143EA10130CF000408B4238BF1C
:100D38005B0042F17D024FF4000C8B4224BF5B1A2A
:100D480040EA0C00B3EB510F24BFA3EB510340EA78
:100D58005C00B3EB910F24BFA3EB910340EA9C0026
:100D6800B3EBD10F24BFA3EBD10340EADC001B0196
:100D780018BF5FEA1C1CE0D1FD2A3FF650AF8B423A
:100D880040EBC25008BF20F0010070470CF0004C47
:100D98004CEA50207F32C2BFD2F1FF0340EAC25072
:100DA800704740F400004FF00003013A37E792F033
:100DB800000F00F0004C02BF400010F4000F013A91
:100DC800F9D040EA0C0093F0000F01F0004C02BF8C
:100DD800490011F4000F013BF9D041EA0C0195E7F5
:100DE8000CEAD15392EA0C0F08D142027FF47DAF8E
:100DF80093EA0C0F7FF470AF084676E793EA0C0F7E
:100E080004D14B023FF44CAF08466EE730F0004C7B
:100E180018BF31F0004CCAD130F000427FF45CAF0B
:100E280031F000437FF43CAF5FE700BF4FF0FF3C79
:100E380006E000BF4FF0010C02E000BF4FF0010CCC
:100E48004DF804CD4FEA40024FEA41037FEA226C95
:100E580018BF7FEA236C11D001B052EA530C18BFB7
:100E680090EA010F58BFB2EB030088BFC81738BF1C
:100E78006FEAE17018BF40F0010070477FEA226C0A
:100E880002D15FEA402C05D17FEA236CE4D15FEA06
:100E9800412CE1D05DF8040B704700BF844608463A
:100EA8006146FFE70FB5FFF7C9FF002848BF10F1FB
:100EB800000F0FBD4DF808EDFFF7F4FF0CBF012040
:100EC80000205DF808FB00BF4DF808EDFFF7EAFFCA
:100ED80034BF012000205DF808FB00BF4DF808ED85
:100EE800FFF7E0FF94BF012000205DF808FB00BF7A
:100EF8004DF808EDFFF7D2FF94BF012000205DF800
:100F080008FB00BF4DF808EDFFF7C8FF34BF01200C
:100F180000205DF808FB00BF4FEA40024FEA41039A
:100F28007FEA226C02D15FEA402C08D17FEA236C69
:100F380002D15FEA412C02D14FF0000070474FF018
:100F4800010070474FEA4002B2F1FE4F0FD34FF055
:100F58009E03B3EB12620DD94FEA002343F000431E
:100F680010F0004F23FA02F018BF404270474FF0CC
:100F78000000704712F1610F01D1420205D110F053
:100F8800004008BF6FF0004070474FF00000704706
:100F980042000ED2B2F1FE4F0BD34FF09E03B3EBDB
:100FA800126209D44FEA002343F0004323FA02F007
:100FB80070474FF00000704712F1610F01D14202F3
:100FC80002D14FF0FF3070474FF00000704700BF6C
:100FD80053B94AB9002908BF00281CBF4FF0FF3198
:100FE8004FF0FF3000F070B9ADF1080C6DE904CE98
:100FF80000F006F8DDF804E0DDE9022304B07047EC
:101008002DE9F047089E0D4604460F46002B4AD1AD
:101018008A42944665D9B2FA82F343B102FA03FCD4
:10102800C3F120029F4020FA02F217439C404FEA86
:101038001C4E1FFA8CF5B7FBFEF1220C0EFB117744
:1010480042EA074201FB05F090420AD91CEB020272
:1010580001F1FF3780F01B81904240F2188102397C
:101068006244121AA4B2B2FBFEF00EFB102244EA4C
:10107800024400FB05F5A5420AD91CEB040400F163
:10108800FF3280F00681A54240F2038164440238B1
:1010980040EA0140641B00211EB1DC400023C6E980
:1010A8000043BDE8F0878B4208D9002E00F0EC80A1
:1010B8000021C6E900050846BDE8F087B3FA83F1C8
:1010C800002949D1AB4202D3824200F2F780841A48
:1010D80065EB030201201746002EE2D0C6E900475F
:1010E800DFE702B9FFDEB2FA82F3002B40F08F800F
:1010F8008A1A4FEA1C471FFA8CFE0121B2FBF7F54A
:1011080007FB1520220C42EA00420EFB05F0904234
:1011180008D91CEB020205F1FF3802D2904200F216
:10112800CA804546121AA4B2B2FBF7F007FB102298
:1011380044EA02440EFB00FEA64508D91CEB040451
:1011480000F1FF3202D2A64500F2BA801046A4EBA5
:101158000E0440EA05409FE7C1F120078B4022FAC0
:1011680007FC4CEA030C05FA01F420FA07F3FD40EA
:10117800234300FA01F94FEA1C401FFA8CFEB5FB25
:10118800F0F81C0C00FB185544EA054408FB0EF562
:10119800A54202FA01F20BD91CEB040408F1FF3A4C
:1011A80080F08780A54240F28480A8F10208644458
:1011B800641B9DB2B4FBF0F300FB134445EA0444FE
:1011C80003FB0EFEA64508D91CEB040403F1FF300F
:1011D8006BD2A64569D9023B644443EA0840A0FBA8
:1011E8000283A4EB0E049C42C6461D4655D352D03A
:1011F80056B1B9EB0E0364EB050404FA07F7CB40CC
:10120800CC401F43C6E900740021BDE8F087C3F154
:10121800200102FA03FC20FA01F225FA01F19D40AF
:101228002A434FEA1C471FFA8CFEB1FBF7F007FB75
:101238001015110C41EA054100FB0EF58D4204FA28
:1012480003F408D91CEB010100F1FF382FD28D42BD
:101258002DD902386144491B92B2B1FBF7F507FB5F
:10126800151142EA014205FB0EF1914208D91CEB27
:10127800020205F1FF3816D2914214D9023D6244A8
:10128800521A45EA004139E73146304609E73946FE
:10129800E7E61046FCE6C145AAD2B8EB020E63EBBE
:1012A8000C050138A4E74546EAE7034695E74046BA
:1012B800D1E7D0467CE7023D624433E708460BE7B6
:1012C8006444023843E700BF704700BF0022427001
:1012D80082700122C270B1FA81F1022249090271B9
:1012E800032201704271704743788B421FD0012955
:1012F80041700AD0022910D0C1B90123C37081708E
:1013080002230371032343717047037843B1012318
:1013180083700223C3700023F3E70378002BF6D011
:10132800022383700023C3700123EAE7FEE77047B6
:1013380082B00B88ADF800304B88ADF802308B884E
:10134800ADF80430CB88ADF806300239431C0530BF
:1013580013F8012F0DF1080C0CEB4202834232F80E
:10136800082C21F8022FF3D102B070470A4B10B5B0
:101378004FF07F32C0E923234FF47F43A0F8943025
:10138800FF2380F896300446983000F0A1FC002333
:1013980084F8A43010BD00BFFFFF7F0070B5114670
:1013A800154604461E4600F029FC294604F114009F
:1013B80000F024FC294604F1280000F01FFC29460F
:1013C80004F13C0000F01AFC294604F1500000F03A
:1013D80015FC294604F1640000F010FC294604F1CC
:1013E800780000F00BFC4FF4FA7332464FF4FA61C0
:1013F80004F1980000F052FC2046FFF7B7FF0023E5
:1014080084F8A5304FF47F43A4F8A63070BD704728
:1014180000F0FBBB143000F0F8BB08B5503000F00A
:10142800FEFB292100F114030246B3FBF1F313F08C
:10143800FF0002D1101E18BF012008BD08B5643096
:1014480000F0EDFB292100F114030246B3FBF1F390
:1014580013F0FF0002D1101E18BF012008BD90F83C
:10146800903013B990F98C00704790F98D0070474F
:1014780090F8903013B990F98E00704790F98F006A
:10148800704710B504460AF06BF938B104F13C0016
:1014980000F0BFFB012838BF0120C0B210BD783072
:1014A80000F0BFBB783000F0C4BB10B5044600F0B4
:1014B80086FB04F1140000F082FB04F1280000F020
:1014C8007EFB04F13C0000F07AFB04F1500000F0D0
:1014D80082FB04F1640000F07EFB04F17800BDE8B3
:1014E800104000F07EBB7F2807D0002807DA10F1F3
:1014F800800F06D04042C0B27047002070470120DC
:1015080070477F20704710B1404240B270477F203B
:1015180070477F280FD010F1310F0EDA10F1780FD5
:101528000DDB7830FE2340B2584323304623B0FB0E
:10153800F3F0C0B27047FF207047FE2070470020CC
:101548007047012805DD40F2FE73984203DC80B243
:1015580070470120704740F2FF707047A0F578701F
:10156800C0EBC02040F2AE7390FBF3F000F5806052
:10157800FFF7E7BFFFF7F2BF032812DD0C2812DDE3
:101588000F2812DD122812DD162812DD192812DDA7
:101598001C2812DD1F2812DD2128CCBFFF200620C1
:1015A80070470020704701207047022070470820CC
:1015B80070470320704707207047042070470520B4
:1015C8007047000004289ABF014B185CFF20704741
:1015D800B0FF000804289ABF014B185CFF20704731
:1015E800B5FF00087F2808BF0020C0B270477F28D9
:1015F80011D010F1320F10DA884210DD401A64233E
:10160800C1F1FF21584301F57F01CE31313090FB04
:10161800F1F0C0B27047FF20704764207047002087
:101628007047000052B110B4054C0A4411F8013B50
:1016380058408A42205CF9D110BC7047704700BFFF
:10164800BCFF0008392808D822280ED9094B2338AE
:10165800C0B2C34003F0010070475F2807D061386B
:1016680019288CBF002001207047002070470120F6
:10167800704700BF01EC7F00F8B50246451E461DC5
:1016880000245F2715F8010FFF2804BF0134E4B2D6
:10169800FFF7D8FF00B92F70AE42F3D1062C04D162
:1016A80019B10B6813608B88938000239371F8BD80
:1016B8002DE9F843DFF83490471E441D0125002624
:1016C8004FF0280817F8011F08480EF0E0FB034602
:1016D80010B1A0EB0903DBB2A3FB05329E19A742A8
:1016E800A5FB0853EED13046BDE8F883BC000108DD
:1016F80010B54179A1F13000C3B2092B07D80523F1
:10170800B0FBF3F303EB8303C01AC0B210BD044C63
:1017180020460EF0BCFB0028F1D0001BC0B2EEE75B
:10172800BC00010870B50446FEF72CFD82B2002308
:10173800551E98B2A84214FA83F104DA265C302EBA
:1017480003F10103F5D0121A01322046BDE87040BA
:101758000EF06CBB2DE9F04F0D4699B016460021EE
:101768001A461F4680460EF07BFB00212A2201A85C
:1017780000910EF075FBDFF8CC90DFF8CCA0DFF815
:10178800CCB005EB4606AE4211D16846FEF7FAFC2E
:1017980030B100F160030DEB0300002300F8613C59
:1017A800694640460EF0BCFB19B0BDE8F08F35F92C
:1017B800020B47F6FF739842E7D0002812DC59461F
:1017C8000CA80EF0ADFB6846FEF7DCFC04460CA83E
:1017D800FEF7D8FC0444A742D5D30CA968460EF0FE
:1017E80047FBD0E7B0F57A7F0BDA0CA980B20CF092
:1017F8008EFC0CA8FFF796FF51460CA80EF038FB9C
:10180800E1E764230CA93230B0FBF3F080B20CF0AE
:101818007EFC0CA8FFF786FF0CA8FEF7B3FC00F1CE
:101828005F036B4400F160010DEB010013F8302CED
:1018380000F8302C2E2203F8302C002300F82F3C1F
:101848004946DAE7AAFF0008A5FF0008A0FF00083C
:10185800F0B589B06D4600242F468E1CE1B28A424D
:1018680004D83946FFF776FF09B0F0BD36F82410E2
:1018780025F8021B0134F1E742F210736421B0FB32
:10188800F3F203FB1200B0FBF1F301FB130000EBD2
:10189800023000EB831080B27047020B00F03F0368
:1018A80042F2107101FB0233C0F38510642202FB7F
:1018B800003070472DE9F04142F2107388B0B1FB57
:1018C800F3F603FB16141F49DFF87C8005460EF07B
:1018D80027FB6946F0B20CF0F7FB6846FFF722FFDA
:1018E800694628460EF0C4FA414628460EF0C0FA6A
:1018F80064276946B4FBF7F6F0B20CF0E5FB6846DE
:10190800FFF710FF694628460EF0B2FA07FB1644A7
:10191800414628460EF0ACFA6946E0B20CF0D4FB1A
:101928009DF801308DF800309DF802308DF80130B7
:101938006946002328468DF802300EF099FA08B05F
:10194800BDE8F081440C0108AEFF000870B50E46F2
:101958000021054614460EF083FA00239AB29442F9
:1019680000D870BDF25C002AFBD0EA540133F5E7D9
:1019780070B50E4614460021013205460EF070FA85
:1019880000239AB2944200D870BDF25C002AFBD0C2
:10199800EA540133F5E730B50023044698B2904283
:1019A80001D3012005E0E55CC85C1DB9B0FA80F000
:1019B800400930BD0028FCD0854203F10103EDD079
:1019C8000020F6E77D23438043F2390309B2C36060
:1019D800002301808180C380037270470268044934
:1019E800044B01FB023323F000430360180C7047DB
:1019F800FD430300C39E2600F0B5002597B00160A3
:101A0800858004465622294668460EF029FA0126A2
:101A1800E27DAA4209D80023802104F1B800A37509
:101A280017B0BDE8F0400EF01BBA2046FFF7D6FF0E
:101A3800E7797B1B002190FBF3F202FB1300C0B295
:101A4800EC460A46CBB29F4223D800230022277BCC
:101A58001146D0B2874227D80029D9D1A279033AB2
:101A6800012A04EB050105D925B191F9172012BB0C
:101A7800012BCDD90B76A26852F82310583305F103
:101A88000E026B44013544F8221003F8586CEDB28D
:101A9800BEE71CF801EBBEF1000F03D18242D5D09E
:101AA8000132D2B20131CDE72069805C013298421F
:101AB80008BF0121CDE7501E8342DBDB0132934290
:101AC800D8DCA5E72DE9F047154696B0013D016041
:101AD800027104464371EDB25622002168460EF0A9
:101AE800BFF90027022D84BF4FF0010900253E46AB
:101AF8004FF0010A94F807809CBF4FF00309B8FB28
:101B0800F9F8E27DB24209D80023802104F1B80037
:101B1800A37516B0BDE8F0470EF0A2B92046FFF74E
:101B28005DFFA8EB0603002190FBF3F202FB130014
:101B3800C0B2EC460A46CBB2434506D21CF801EBCC
:101B4800BEF1000F2AD1824226D1434528BF434621
:101B580003FB0951002094F80CE001F0FF018446D2
:101B6800C2B296451CD8BCF1000FCAD116B1FFB954
:101B7800012BC6D9A2191F461176A26852F8211066
:101B880006F10E02013644F8221003F158026A44A5
:101B9800F6B202F858ACB4E70132D2B20131CAE762
:101BA8002269125C01308A4208BF4FF0010CD7E766
:101BB8007A1E9342DEDB7A1C9342DBDCA1E7D0E994
:101BC80001236421D31AC36082604B43418AB3FB6B
:101BD800F1F303747047D0E90123D31AC0E9022353
:101BE800704743682BB1C26864214A43B2FBF3F2E1
:101BF800D3B203740023C360436070470023C0E975
:101C08000233418243600374704743680133436081
:101C18007047007C704743680B4443607047C06856
:101C2800704711B1C3680133C3604368013343602F
:101C38007047007C704700234360038170470A2384
:101C480010B50446838001F0D5FD2368E0809B68C9
:101C5800204698474FF62F03984228BF1846208100
:101C680010BD038970B504469BB1858845B1013D17
:101C7800ADB285806DB903681B68BDE87040184730
:101C880001F0B8FDE388C01A238980B2834201D2EB
:101C9800258170BD236820465B68EEE72DE9F04199
:101CA800044610461D4616468846FEF717FF0746A7
:101CB80006EB0800FEF712FF01463846FFF71AF850
:101CC800656020602846FEF70DFFA060BDE8F08142
:101CD80010B504464068FEF705FFA06010BD00007F
:101CE80010B50229044680EAE070A0EBE47068D1E0
:101CF8005AB9002CACBF7F233F239842A8BF18468F
:101D0800002C01DA40F0400010BD012A1AD16328E6
:101D180005DC4000002CF7DA40F48070F4E740F26C
:101D2800F54398420CDCFEF7D9FE5749FEF72EFF23
:101D38000CF052FFFFF72CF9400040F00100E9E7F2
:101D4800FF20E7E7022A40F09C80632805DC80003A
:101D5800002CD9DA40F40070D6E7B0F57A7F0CDAB7
:101D6800FEF7BCFE4849FEF711FF0CF035FFFFF700
:101D78000FF9800040F00100EAE742F20F73984241
:101D88000CD8FEF7ABFE4149FEF700FF0CF024FF2C
:101D9800FFF7FEF8800040F00200D9E73C4B98427C
:101DA8000CD8FEF79BFE3B49FEF7F0FE0CF014FF43
:101DB800FFF7EEF8800040F00300C9E740F2FF109B
:101DC800C6E703295DD1012A1BD1B0F57A7F05DA70
:101DD8004000002C98DA40F4006095E7B0F5205FE9
:101DE8000CDAFEF77BFE2849FEF7D0FE0CF0F4FE75
:101DF800FFF7CEF8400040F00100EAE740F2FF703C
:101E0800E7E7022A3DD1B0F57A7F06DA8000002C98
:101E1800BFF67AAF40F4805076E742F20F739842EB
:101E28000CDCFEF75BFE1849FEF7B0FE0CF0D4FEA2
:101E3800FFF7AEF8800040F00100E8E7164B984243
:101E48000CD8FEF74BFE1149FEF7A0FE0CF0C4FEBD
:101E5800FFF79EF8800040F00200D8E7B0F57A2F2F
:101E68000CD2FEF73BFE0B49FEF790FE0CF0B4FED9
:101E7800FFF78EF8800040F00300C8E740F6FF70D7
:101E8800C5E7002040E700BFCDCCCC3D0AD7233CB6
:101E980017F001006F12833A9F8601000023036048
:101EA8007047000038B5084B09291B7828BF09215D
:101EB8008B4204460D4602D10023036038BD01F071
:101EC8008DFC25712060F9E7C4000020036810B577
:101ED80004460BB9002010BD01F080FC2368C01A2D
:101EE80040F2EE239842F5D90023054A2360127880
:101EF80023799A42EED0034A0120D377EBE700BF5B
:101F0800C40000201C010020FF234371002301713D
:101F1800837103818372704738B5037904460D468F
:101F28005BB14179A94208D041B101290AD0002307
:101F3800A371657155B1012D0FD038BD03689B6839
:101F48009847F4E703680021DB68F9E723689B6892
:101F5800012120469847A071EFE723682946DB68EE
:101F6800F7E77047704770477047002070470020B8
:101F78007047704700207047002070474FF0B0430B
:101F880082B0DA6C0243DA64DB6C03400193019B94
:101F980002B070474FF0B04382B09A6D02439A6521
:101FA8009B6D03400193019B02B070474FF0B04313
:101FB80082B0DA6D0243DA65DB6D03400193019B61
:101FC80002B070474FF0B04382B01A6E02431A66EF
:101FD8001B6E03400193019B02B0704750E8003F1D
:101FE80043F0200340E80032002AF7D1704750E858
:101FF800003F43F0800340E80032002AF7D17047E1
:1020080050E8003F23F0200340E80032002AF7D1CF
:10201800704750E8003F23F0400340E80032002AB0
:10202800F7D1704750E8003F23F0800340E80032C2
:10203800002AF7D1704770470288044B5140C9B253
:1020480033F8113083EA1223038070477C29010892
:102058009AB110B4B0F800C0084C0A4411F8013B1A
:1020680083EA0C03DBB2914234F8133083EA1C2C68
:10207800A0F800C0F2D110BC704770477C29010855
:1020880037B54FF6FF730446ADF806304518AC4235
:1020980003D1BDF8060003B030BD14F8011B0DF1E3
:1020A8000600FFF7C9FFF2E7044B1888044B1B88AA
:1020B80080B29BB2C01A18BF012070470C2D0020B7
:1020C8000A2D0020044A00231380044A1380044A7E
:1020D8001380044A138070470A2D00200C2D00201D
:1020E8000E2F0020102F002001207047044B188865
:1020F800044B1B8880B29BB2C01A18BF01207047DE
:1021080014310020123100200023A0F87032A0F80A
:102118006E3270470023A0F85C32A0F85A3270473C
:102128002D4B5A6A037A92B263B18389D31A9BB250
:10213800B3F5FA7F84BF00230372837A4F2B84BFE1
:1021480000230372037A8281082B0FD8DFE803F09B
:10215800050E0E0E0E0E0F172200EE2901D0C8290B
:1021680004D1012383724175062303727047837A71
:102178005A1C03448272597541720723F5E7827A23
:10218800531C0244DBB283725175427A9A42EDD2F3
:102198000823EAE7837A5A1C034482725975C37D7F
:1021A800162B04D1012380F865300923DDE7436944
:1021B8000A4A03F0FF2393424FF0010309D1428BEF
:1021C800B2F5A26F05D180F86730037F80F86830D8
:1021D800EBE780F86630E8E70044014000C80032C9
:1021E800002070470020704700207047002070478B
:1021F8007047B0F87032B0F86E22D21A93B2120457
:1022080041BFB0F8722201329B189BB2181E18BF4A
:1022180001207047A0F11400EBE7B0F87022B0F885
:102228006E12914203461FBF8118013291F8740261
:10223800B3F872121ABF0A40A3F870220020704740
:10224800A0F11400E9E7000008B51E2203480021A8
:102258000DF006FE024B00221A7008BD9C0A0020F1
:102268007003002038B54A78352A0D46044601F136
:102278000C010AD80DF05CFE68780021C0F1360226
:102288002044BDE838400DF0EBBD403551F8043B23
:1022980040F8043BA942F9D10B88038038BD38B512
:1022A8004A781B2A0C46054601F10C010AD80DF0A4
:1022B8003FFE60780021C0F11C022844BDE8384088
:1022C8000DF0CEBD283451F8043B45F8043BA1423B
:1022D800F9D138BD38B54A78082A0D46044601F1C7
:1022E8000C010AD80DF024FE68780021C0F109021B
:1022F8002044BDE838400DF0B3BDEB6803604B687F
:1023080043600B7A037238BD38B54A78072A0C4601
:10231800054601F10C010AD80DF00AFE607800218B
:10232800C0F108022844BDE838400DF099BDE368C3
:1023380003604B68436038BD2DE9F04113780370A2
:1023480092F8018080F80180FD2B04460F4615465F
:1023580054D193788370D378C37013790371537908
:102368004371937983716B7A127A1B0403EB02230E
:10237800EA79134423F07F430A26A26863F317021D
:10238800A260A919424604F10C000DF0D1FD7A7B38
:10239800904507D208F10C00A2EB08020021204466
:1023A8000DF05EFD63781E44AB195A78AB5D03EB04
:1023B8000223A4F80C31A378DB070ED5023615FAF0
:1023C80086F304F5887203F10C0153F8040B42F804
:1023D800040B8B42F9D11B781370BB7A84F8213136
:1023E800FB7A84F822313B7B84F823317B7B84F8A9
:1023F80024313B7884F82031BDE8F0810023438004
:1024080093780371D37843711379837153790626CE
:10241800B3E770B50B7803704B7843700B78FD2BDE
:1024280005460C4638D18B788370CB78C3700B790E
:1024380003714B7943718B7983718B68C3718B6896
:10244800C3F30F2303728B7A43720A26627804F16E
:102458000C01A8190DF06CFD6378B4F80C21334415
:10246800981CEA545A1CB4F80C1192B2090AA954DF
:10247800A278D20780B20ED504F58872054404F517
:102488008E7452F8041B45F8041BA242F9D1127845
:102498002A700F3398B270BD00238B700B7983704C
:1024A8004B79C3708B7903718B6843710626CDE72E
:1024B8002DE9F04F0C465188B1F58C7F054685B063
:1024C8004FF0000010D31070D91CC9B2012995BF74
:1024D80001210023518053809CBF2370117000207C
:1024E800287005B0BDE8F08F16780E2E00F29080A7
:1024F80001A757F826F000BFD12400083D250008A1
:1025080065250008832500081926000819260008F3
:102518001926000819260008192600081926000897
:102528001926000819260008192600081926000887
:1025380095250008481C508063542178FD299BB2DA
:1025480006D10C330A21D380918002231370C6E789
:1025580008330621D38091800E23F7E7481C50806A
:102568006354D80742BFD1880D31D1800020012B98
:102578008CBF034603231370B2E7481C5080002029
:102588008342635414BF03460E23F4E7481C50806B
:1025980063545388D1888B4232D3002353801370FD
:1025A80002232B7069802378FD2B37D163792B7236
:1025B800A3796B72637A227A1B0403EB0223E27914
:1025C80013446B60637803F10C026A80A278D10728
:1025D80001D519336B8000266968DFF800816E81A8
:1025E80040F26B120C20B31801335B0800FB03F7B1
:1025F80058F80770B9421AD25A1EB242F3D818E0F6
:1026080092889A423FF66BAF01232B70002068E74F
:10261800107050809080D0802870F7E7E3782B7294
:1026280023796B7263796B6063780833D2E71E464F
:10263800E3D80C27774358F80730994227D12378F5
:102648002046FD2B10F801BF0CBF4FF00A094FF0D0
:10265800060909EB0B03591E89B247440193FFF79A
:102668000FFD97F804A0ADF80E0051460DF10E00CD
:10267800FFF7E2FC019BE218E35C527803EB0223CC
:10268800BDF80E209BB29A4209D0052000E0032035
:102698002870023801288CBF0020012021E7BB796F
:1026A800DA0706D5FA79934582BF04EB09018A5CFB
:1026B800AA729B0709D50C2303FB068362781B7A51
:1026C8009A4282BF4C44E35CEB720C2303FB068303
:1026D80085F80CA05B796B730220DAE7981701087C
:1026E8000148436AFFF77ABC0080004008B5FFF74D
:1026F800F7FF024B00221A7208BD00BF201300200A
:1027080008B5FFF7EDFF024B00221A7208BD00BFA3
:10271800900400200A4A0B4B12680B49A3FB0232B3
:102728003220920C00FB02F2084B486802F5FA725C
:10273800A3FB023292094B681B1A9A42FBD87047D6
:102748004000002083DE1B43001000E0D34D6210E0
:10275800028810B58488531C234044889C421EBFBD
:1027680012189171038010BD70B5104C00252346D6
:1027780026782EB166788E4202D1A67896420BD082
:1027880001350C2D04F10404F2D1002413F824506F
:102798001DB101340C2CF9D170BD012503F824506A
:1027A80003EB8403D87059709A70F5E7750300201D
:1027B8002DE9F8430B460D795A7A9E7ADF7A204B39
:1027C800097A1B5CDB07044600D50DB9FFF7CCFF7F
:1027D80000231C491A4898464FF0010E9C4201F804
:1027E800018B25D02DB90278920702D501F801ECAA
:1027F8001EE0154A4FF0000C92F80090B9F1000F56
:102808000FD092F8039099450BD1002EEED092F894
:102818000190B14505D1002FE8D092F80290B94552
:10282800E4D00CF1010CBCF10C0F02F10402E3D16D
:102838000133DBB2042B00F10100CFD1BDE8F883EE
:10284800A50300207103002075030020704770471E
:10285800044AD2F8903023F40043C2F89030FFF7CE
:1028680059BF00BF0004005808B5FFF753FF044ADA
:10287800D2F8903043F40043C2F8903008BD00BF4E
:102888000004005807B503688DF80710DB680122BB
:102898000DF10701984703B05DF804FB70B50446D5
:1028A80008460D46FDF76EFC236882B2294620468D
:1028B800DB68BDE870401847B0F1904F02D10120A5
:1028C800FFF75CBB084B984205D003F5806398423C
:1028D80003D10420F4E70220F2E7044B984201D127
:1028E8008020EDE7704700BF00040048001C004846
:1028F8000C4B984203D14FF40060FFF763BBB0F173
:10290800804F05D0084B984205D14FF40030F4E7CA
:102918000120FFF73FBB054B984202D14FF48020BE
:10292800EBE77047002C014000440140004801409B
:102938002DE9F04387B00E460546144600211422BF
:1029480001A89DF838809DF83C901F460DF088FA44
:1029580000960B2C07D8DFE804F007070A121414B6
:10296800141616161A1CFEE70323019301E002232E
:102978000493032F11D8DFE807F011132111012365
:10298800F6E70123F1E7012301930393F1E702231B
:10299800EBE7022301930123F7E7FEE70223029303
:1029A800B8F1100F0CD8DFE808F02D2D0C11131515
:1029B80017191B1D1F21232527292B000123EEE7AB
:1029C800FEE701230593022301931EE00223F9E7A2
:1029D8000323F7E70423F5E70523F3E70623F1E7E5
:1029E8000723EFE70823EDE70923EBE70A23E9E7E5
:1029F8000B23E7E70C23E5E70D23E3E70E23E1E7E5
:102A08000F23DFE7B8F1000FDDD1B9F1000F02D0D5
:102A18002846FFF751FF053C042C05D8DFE804F0F1
:102A2800030B04030B00AE62694628460AF0D2FD88
:102A380007B0BDE8F083AE61F6E713B54FF0010CBF
:102A48000024CDE9004CFFF773FF02B010BD000071
:102A580030B587B0002315460446ADF80630FFF7B9
:102A680047FF042D04D8DFE805F02E3204363F0076
:102A7800FEE71E4B1E4A1B68B3FBF2F39BB2002213
:102A8800CDE90221013B01A92046ADF804300492AA
:102A980005920BF04FF8236823F080032360A368A6
:102AA80023F4A03323F00703A360636823F07003C3
:102AB8006360636823F470036360A36823F0800392
:102AC800A36007B030BD094B0A4A1B68D4E7074B1F
:102AD800094A1B68D0E7054B064A1B68B3FBF2F3AB
:102AE80003EB83035B00C9E70123C8E7400000202C
:102AF80080A8120140420F0000127A0010B5044667
:102B0800FFF7A6FF236843F00103236010BD0022EE
:102B18004FF0FF31FFF7F2BF1A4B10B51A4C5B6844
:102B2800236009F0BDFE4FF090400AF015FD1748EC
:102B38000AF012FD16480AF00FFD16480BF088F946
:102B480015480BF085F90AF0FBFE4FF0E022002350
:102B580013615361936172B64FF0FF319A0002F12D
:102B6800604202F561420133082BC2F88010C2F8B6
:102B78008011F3D162B6034B1B6883F3088823687E
:102B88009847FEE70000FF1F6C0300200004004880
:102B98000008004800380140004400400749084A3E
:102BA800881AEFF30883521A1A44013A013B9842F3
:102BB80088BF0022AA210DF053B900BF00000120F0
:102BC80000040000044B5A69586910F0020018BF4D
:102BD800C2F38000704700BF000400584FF0B042B5
:102BE800D2F8943043F40043C2F894304FF47A7327
:102BF80000BF013B9BB2002BFAD14FF0B043D3F892
:102C0800942022F40042C3F89420D3F8942052046C
:102C1800FBD40C4BD3F8902022F40042C3F8902048
:102C28004FF47A7200BF013A92B2002AFAD1D3F86F
:102C3800902042F40042C3F890204FF400629A6159
:102C4800704700BF0004005810B503230522202157
:102C58004FF09040FFF7F1FEBDE810400323052236
:102C680010214FF09040FFF7E8BE08B5FFF7AAFF24
:102C7800003818BF012008BD08B5FFF7F6FF00B9F6
:102C880008BD00BFF9E74FF0904310229A62202256
:102C98009A6170474FF0904320229A6210229A61FD
:102CA80070470000024B4FF480225A60704700BF03
:102CB80000E100E00348002303224FF40051FFF72E
:102CC800BCBE00BF00040048034B186980F40050E4
:102CD800C0F34030704700BF0004004810B50F4CE7
:102CE800002305224FF400414FF09040FFF7A5FE66
:102CF8002046002306222021FFF79FFE00231A46C4
:102D080020464FF40041FFF798FEBDE8104000232D
:102D1800052201214FF09040FFF78FBE00040048C4
:102D280005494B691A04DB4302F4001203F020033F
:102D380013438B61704700BF000400480C4BD3F865
:102D4800FC2022F08072C3F8FC20D3F8FC2042F06B
:102D58008072C3F8FC20A3F55D431A6822F00102D3
:102D68001A601A6842F001021A6000225A6070471D
:102D780000ED00E00649074B074A1B68B3FBF2F376
:102D880010B54C6843434A68121B9A42FBD310BDE6
:102D9800001000E04000002040420F001FB5022351
:102DA800CDE9013101A801236946039309F0E2FE48
:102DB80000280CBF0420052005B05DF804FB01467F
:102DC80008B5012009F090FE00280CBF042005205A
:102DD80008BD08B5FFF7E2FF031F5842584108BD78
:102DE80008B5FFF7ECFF031F5842584108BD000023
:102DF8002DE9F047294B2A4D01280E46144629494A
:102E0800294A0FBF79277827AA461D4606BF884654
:102E18009A46904609F01CFE39462846FFF7D9FF26
:102E280028B9002409F026FE2046BDE8F087002EC8
:102E380008BF4FF4FC64073424F0070405F11007B9
:102E4800B1463444AAEB050AA1450BD14FF0113223
:102E58004FF0FF332846FFF7C3FF041E18BF0124B5
:102E6800A400DFE76EB90AEB0703D3E90023B3F147
:102E7800FF3F08BFB2F1FF3F06D1083709F1080943
:102E8800E2E7D9E90023F2E7B84505D93846FFF764
:102E9800A7FF0028F1D1C4E70324C3E700C0030853
:102EA80000C80308FFCF0308FFC7030810B509F0DF
:102EB800CFFD09487821FFF78CFF044638B1074851
:102EC8007921FFF786FF041E18BF0124A40009F02A
:102ED800D1FD204610BD00BF00C0030800C803088C
:102EE80030B5084D002340F2EF749AB2914201D8F0
:102EF800042030BDA34203D05A5DC2540133F4E725
:102F08000320F6E710C0030838B504460D4672B62C
:102F18000A4601460020FFF76BFF62B6042806D177
:102F280072B601202A462146FFF762FF62B638BD15
:102F380038B5124B1C68D3F80058B4F1113F09D1C9
:102F4800B5F1113F17D0002211460120BDE83840E5
:102F5800FFF74EBFB5F1113F03D1002211461046CD
:102F6800F4E7FFF7A3FF042804D12C4001340CBF79
:102F78000220012038BD0420FCE700BF00C0030880
:102F8800044B9A689107FCD518739A68D207FCD548
:102F9800187B70470000015870B50C46451E8E1806
:102FA800B44200D170BD15F8010FFFF7E9FF04F82E
:102FB800010BF5E7084611461A46FFF7EDBF00007A
:102FC80070B5064E04464518A54200D170BD30784C
:102FD800FFF7D6FF04F8010BF6E700BF3400002026
:102FE80008461146FFF7ECBF38B504464518AC4211
:102FF80000D138BD14F8010BFFF7C2FFF7E7084608
:103008001146FFF7F1BF000010B58CB0282200214F
:1030180002A80CF025FF4FF0B0431C4C5A6E42F04A
:1030280001025A665B6E03F001030193019BFFF7EF
:10303800D5FD082208924FF48272002303924FF4C0
:103048000072CDE90533CDE90933029307920723CE
:103058004FF4E06202A920460B9304920AF030FD77
:10306800636823F010036360636823F008036360F8
:10307800236843F040032360A3689B07FCD5237BA8
:10308800034BFF221A700CB010BD00BF000001589E
:10309800340000201B4B10B4DC69A00611D51A6857
:1030A80091060ED5184819495A6A038809880133C8
:1030B800C3F30A0389B299421FBF1549D2B2CA5451
:1030C800038010481F232206036215D503681B06D8
:1030D80012D5104B104A1988138889B29BB29942AD
:1030E8000CD013880133C3F30803138013880B4AE9
:1030F8009BB2D35CDBB2836210BC704710BCFEF796
:1031080091BF00BF004400400C2D00200A2D002074
:103118000A250020102F00200E2F00200E2D002041
:103128000A490B4A08B50B8812880133C3F3080310
:1031380092B29A4207D0074AD05407480B80FEF74C
:1031480056FF012008BD0020FCE700BF102F00201B
:103158000E2F00200E2D00200044004038B50446F4
:103168004518AC4200D138BD14F8010BFFF7D8FF61
:10317800F7E708461146FFF7F1BF0000054B064A7E
:103188001B8812889B1A98B21B0444BF00F5006084
:1031980080B270470C2D00200A2D0020FFF7EEBFEB
:1031A8000848094A0188138889B29BB29942F9D024
:1031B80013880133C3F30A0313801388034A9BB2AD
:1031C800D05C70470C2D00200A2D00200A25002015
:1031D800FFF7E6BF70B588B00C46064615460021D5
:1031E800202268460CF03CFE231E18BF01231B0357
:1031F800CDE9023569460C230348019604940593EA
:103208000AF04AFE08B070BD0044004010B5064CF4
:10321800236823F001032360FFF7DCFF236843F0F2
:103228000103236010BD00BF00440040002208468F
:103238001146FFF7EBBF000073B5314C236823F04C
:1032480001030825236001264FF40030FEF7A2FE93
:103258000421CDE9005603230A224FF09040FFF7DE
:1032680067FB03231A462946CDE900564FF09040E4
:10327800FFF75EFB002211464FF4E130FFF7AAFF8B
:10328800636823F490436360A36823F02A03A36070
:103298001C4BB02283F8252320225A602046FEF7D3
:1032A800C1FEFEF7B6FE40232362174B00211980AA
:1032B800164B1980FEF7A4FE154B1980154B198083
:1032C800636823F400636360A36823F00803A360C2
:1032D800636823F480436360A36823F02203A36038
:1032E800A36843F48053A360236833432360E369EE
:1032F8009A02FCD5E3695B02F9D502B070BD00BF44
:103308000044004000E100E00E2F0020102F0020B4
:103318000A2D00200C2D002008B5FFF78DFF03486B
:10332800436ABDE80840FEF759BE00BF00440040AC
:10333800FFF7F2BF1B4B10B4DC69A00611D51A6861
:1033480091060ED5184819495A6A03880988013325
:10335800C3F3080389B299421FBF1549D2B2CA54B0
:10336800038010481F232206036215D503681B0635
:1033780012D5104B104A1988138889B29BB299420A
:103388000CD013880133C3F30903138013880B4A45
:103398009BB2D35CDBB2836210BC704710BCFEF7F3
:1033A80041BE00BF00380140143100201231002016
:1033B800122F002018350020163500201631002065
:1033C8000A490B4A08B50B8812880133C3F309036D
:1033D80092B29A4207D0074AD05407480B80FEF7AA
:1033E80006FE012008BD0020FCE700BF18350020BC
:1033F80016350020163100200038014038B5044643
:103408004518AC4200D138BD14F8010BFFF7D8FFBE
:10341800F7E708461146FFF7F1BF00000848094AD8
:103428000188138889B29BB29942F9D01388013375
:10343800C3F3080313801388034A9BB2D05C704718
:103448001431002012310020122F0020FFF7E6BFB0
:1034580070B588B00C4606461546002120226846FD
:103468000CF0FEFC231E18BF01231B03CDE9023517
:1034780069460C2303480196049405930AF00CFD51
:1034880008B070BD0038014073B5304C236823F094
:1034980001032360082501264FF48040FEF792FDC2
:1034A8004021CDE900562A4803230A22FFF740FAB3
:1034B80003231A46CDE9005625488021FFF738FA3C
:1034C800002211464FF4E130FFF7C2FF636823F48E
:1034D80090436360A36823F02A03A3601D4BB022C6
:1034E80083F8242310225A602046FEF79BFDFEF73E
:1034F80090FD40232362184B00211980174B198037
:10350800FEF77EFD164B1980164B1980636823F46D
:1035180000636360A36823F00803A360636823F46F
:1035280080436360A36823F02203A360A36843F485
:103538008053A360236833432360E3699A02FCD570
:10354800E3695B02F9D502B070BD00BF00380140E5
:103558000004004800E100E016350020183500207E
:10356800123100201431002008B5FFF78DFF034801
:10357800436ABDE80840FEF731BD00BF003801408E
:10358800FFF7F2BF084BDA6892070CD4074A01210B
:1035980011805A6A10325A636FF002021A61DA68AF
:1035A80042F00202DA607047004801400C20002017
:1035B8002E4A13699B0710B524D56FF002031361D7
:1035C8002B4B1B88516B11FA83F35363294B1988D2
:1035D80089B2002941D01988013189B21980198826
:1035E80089B202290FD8244B08229A62234A1388E9
:1035F8000133C3F3080313801388214A9BB2D35CB9
:10360800204A138010BD198889B20A291A490DD891
:103618001C4B1A8812F0010F4FF0080214BF8A6180
:103628008A621A88C2F34E021A80EBE7188880B2C1
:103638000B284FF00800886109D1134A11880F4AF6
:10364800128889B292B29142DCD00122ECE7D168AB
:1036580021F00201D1600022E6E7074808248461CE
:10366800D06820F00200D0601980CBE70048014004
:10367800082000200C200020000400481022002010
:103688000E2000200E2200201222002009490A4A9A
:1036980008B50B8812880133C3F3080392B29A4223
:1036A80006D0064AD0540B80FFF76CFF012008BDF6
:1036B8000020FCE712220020102200200E2000200B
:1036C80038B504464518AC4200D138BD14F8010B92
:1036D800FFF7DCFFF7E708461146FFF7F1BF0000E8
:1036E800B0F5614F0D4A0E4B0CD0B0F5E13F10D04C
:1036F800B0F5165F0DD172B640F24131118040F23B
:10370800E24203E072B68B211180D0221A8062B6A1
:10371800704772B6452111805422F7E7082000202F
:103728000A20002010B51C4C88B02046032305222F
:103738000821FFF782F90823A361184C01222046CB
:103748004FF0FF31FFF7DAF92022002168460CF02C
:1037580087FB6A46012120460AF026FA104AD2F869
:10376800183823F00403C2F818386FF002032361F5
:103778000C4B902283F81D234FF000521A604FF42F
:10378800E130FFF7ADFF084A00231380074A138092
:10379800074A138008B010BD0004004800480140E3
:1037A8000040014000E100E0102200201222002029
:1037B8000C200020FFF7B6BF054A064B11681B789E
:1037C8000B441360044A136801331360704700BF49
:1037D800283500204400002088080020014B186884
:1037E800704700BF283500200148FFF790B900BF97
:1037F80000440140014B586A80B2704700440140C0
:10380800024B00221A60FFF7EFBF00BF88080020B4
:1038180070B51B4C1B4E90220021201D0CF020FB84
:1038280006232380162363800F23A38005222C23DD
:103838003146A01DFEF70CF8134A4FF4A0230025CB
:10384800C4E90D2331462C23052204F13E00A58747
:10385800FDF7FEFF02230D49E36604F17A00A4F8A0
:10386800705084F872506567A4F878500CF058FBD3
:103878007F2384F88F30052384F8903070BD00BF13
:10388800D8020020C80F010802000B0043010108FC
:1038980070B5094E05460C46415C30460CF0F7FA07
:1038A800034628B1831B0133DBB2282B28BF002332
:1038B800F35C2B5570BD00BF6C16010870B50C4643
:1038C800114606460CF02CFB44B100250521304674
:1038D8000135FFF7DDFFEBB29C42F7D870BD000061
:1038E80073B5054605F111061B4C1C4A0146360105
:1038F8006846FFF7E3FFB01C694620440CF010FB54
:10390800264404EB0511002302227272A1F81A3131
:10391800142101FB0540E284A0F84A200121104A45
:10392800C1640425A0F8523080F8543080F8505013
:10393800C4F83A304FF48070C4F83E30C4F84230CE
:1039480040F20113C4E90A0284F83010A4F84630A2
:10395800A4F8483002B070BD1C0100201401010811
:1039680003020100F7B50546AB4CAC4A05F1110658
:10397800014637016846FFF7A1FFB81C274469468E
:103988002044FDF779FE7B7A052B84BF02237B72E6
:1039980004EB0610A24B427A198841FA02F2D707C3
:1039A8000FD40222427261B14807C1F3800208D4E1
:1039B80041FA02F7FF07D0B240F1DE8104EB0612AC
:1039C800507204EB05112A0191F81A01042802D952
:1039D800002081F81A01A718588897F81A1140FA98
:1039E80001F1C90711D4022187F81A1168B14707F4
:1039F800C0F3800109D440FA01FC1CF0010FCFB2DA
:103A080000F0BF81A11881F81A71A11891F81B0163
:103A1800032802D9002081F81B01A718988897F875
:103A28001B1140FA01F111F001010FD187F81B11A8
:103A380060B110F0010109D140FA01FC1CF0010F3E
:103A4800CFB200F0A381A11881F81B7104EB061610
:103A5800717A012905D904291EBF1219002182F89B
:103A68001B11142202FB054191F84A00042802D9CF
:103A7800022081F84A0002FB054292F84B10042903
:103A880002D9002182F84B10142202FB0542998EBC
:103A980092F84B0041FA00F0C00712D4012082F8D6
:103AA8004B0071B18F07C1F340020AD441FA02F604
:103AB800F607D0B240F16F81142202FB054282F86A
:103AC8004B00142202FB054292F84C10032902D93C
:103AD800012182F84C10142000FB0540D98E90F883
:103AE8004C2041FA02F212F0010210D180F84C2069
:103AF80069B111F001020AD141FA02F6F707D0B212
:103B080040F14E81142202FB054282F84C00142237
:103B180002FB054292F84E10012902D9002182F8D1
:103B28004E10142000FB0540198F90F84E2041FAE2
:103B380002F212F0010210D180F84E2069B111F0A2
:103B480001020AD141FA02F6F607D0B240F12D81FE
:103B5800142202FB054282F84E00142202FB0542A1
:103B680092F84F10022902D9002182F84F10142030
:103B780000FB0540598F90F84F2041FA02F212F0ED
:103B8800010210D180F84F2069B111F001020AD169
:103B980041FA02F6F707D0B240F10C81142202FB79
:103BA800054282F84F00142202FB054191F84D00AE
:103BB800022802D9002081F84D0002FB054292F844
:103BC8005010052902D9042182F85010142202FB52
:103BD800054191F85200012802D9002081F85200CD
:103BE80002FB054292F85310022902D9002182F8FB
:103BF8005310142000FB0540998F90F8532041FA88
:103C080002F212F0010218D180F85320A9B111F084
:103C1800010212D106E000BF1C01002014010108B6
:103C2800D802002041FA02F6F607D0B240F1C78068
:103C3800142202FB054282F85300142202FB0541BC
:103C480091F85400022802D9002081F8540002FBA0
:103C5800054292F84C10012906D192F84F1002291A
:103C680004BF002182F84F1094F82620042A02D9B4
:103C7800022284F8262094F82720042A02D9002258
:103C880084F82720B3F86C1094F8272041FA02F240
:103C9800D6070FD4012284F8272059B18807C1F329
:103CA800400207D441FA02F6F707D0B240F18C80FF
:103CB80084F8270094F82820022A02D9002284F8E0
:103CC800282094F82920022A02D9012284F82920E0
:103CD800B3F86E1094F8293041FA03F313F0010297
:103CE800674B0CD184F8292049B111F0010206D1A3
:103CF80041FA02F6F607D0B26BD583F8290094F89A
:103D08002A200C2A02D9002284F82A2094F832208A
:103D18000C2A02D9002284F8322093F82B20042A96
:103D280002D9002283F82B2093F82F20012A02D9E8
:103D3800002283F82F20534AB2F8701093F82F20EE
:103D480041FA02F212F001020CD183F82F2049B196
:103D580011F0010206D141FA02F4E707D0B23CD5CE
:103D680083F82F0000224849104611F9014F14F139
:103D7800780F36DA087036E00132102A7FF418AE70
:103D88001FE6013110297FF436AE3EE601311029D5
:103D98007FF452AE5AE60132102A7FF487AE90E6DD
:103DA8000132102A7FF4A8AEB1E60132102A7FF45E
:103DB800C9AED2E60132102A7FF4EAAEF3E6013248
:103DC800102A7FF42FAF38E70132102A7FF46AAF48
:103DD80070E70132102A8BD191E70132102ABAD14B
:103DE800C0E7782CC6DC0132D2B20C2ABDD12749F3
:103DF8000022012011F8014F0132022CD2B288BFF3
:103E08000870042AF6D193F82C20052A02D9032237
:103E180083F82C2093F82D20022A02D9022283F855
:103E28002D2093F82E20022A02D9012283F82E2071
:103E380093F83020022A02D9012283F83020142175
:103E480001FB0530FF2280F8512003EB051083F8B1
:103E580031204FF6FF744FF0FF32C0F81C21A0F854
:103E68002041552011FB050158181A629A845A50AE
:103E78004260047283F833205A631A8703B0F0BD96
:103E88001C010020D80200205501002061010020FB
:103E980030B5042804D8DFE800F01E0423191E00FA
:103EA800FEE720251F2400220F21104B98700338AD
:103EB800012894BF002001201A7119771A74A3F8F9
:103EC8004850A3F84A409873987630BD09256F2466
:103ED80000220721E9E71425322400220A21E4E719
:103EE8003525132401221921DFE700BFC400002073
:103EF8002DE9F74300F111066C4D6D4C360106F1C2
:103F08000209A94407464846FDF7D2FB042180462A
:103F180001900DEB0100FEF7B3F8142303FB0753E0
:103F28002E4493F84A20634BE08313F9223023731D
:103F38002376614B2365737A637005EB0713C4F826
:103F4800088093F81A01C4F814804FF0000884F828
:103F58005480FFF79DFF594A63781288A285E28B47
:103F680063733E01637684F82830626284F82A809D
:103F780023B94846FDF7BCFB84F82A002E4496F87E
:103F88001B2184F829206AB1E18B02EB021303EBB1
:103F980003230B44E383A3684FF0113101FB023381
:103FA800A360636194F82830052B04D8DFE803F098
:103FB800044345393B41FEE7A378032B03D8DFE8E8
:103FC80003F0033E4003FEE71826DFF8F4C084F848
:103FD80020601CE90F008CE80F0040F2E2433046F5
:103FE800A4F84C30FCF77EFD4FF07F51FCF7CEFD76
:103FF800FCF7CEFFB4F848204FF47A73B3FBF2F322
:10400800A4F84030142303FB0753C0B293F8503090
:10401800A4F84E00052B3DD8DFE803F015423639E9
:104028003C3F0226D1E7A378012B08D0022B08D009
:10403800FEE70326C9E71926C7E70626C5E71226BD
:10404800C3E70C26C1E74FF416536364002384F8D2
:10405800553084F85730142303FB075595F84C3036
:10406800032B03D095F84F20022A02D1012284F8AD
:104078005520591E4A424A4184F8562094F8552042
:104088008AB1012B0FD1FEE74FF41643DDE74FF459
:104098006143DAE74FF4E133D7E74FF46133D4E70C
:1040A8004FF49643D1E703B0BDE8F0831C0100202C
:1040B800C4000020C80F010801010001D802002037
:1040C800F400002002484FF4DE72FF210BF0C8BE56
:1040D8001C01002002484FF4DE71FEF715BF00BF37
:1040E8001C01002002484FF4DE71FEF7F9BE00BF44
:1040F8001C01002008B5FFF7F5FF034B1878BDE851
:104108000840FFF72FBC00BFC400002070B5FFF7C0
:10411800D9FFFEF70DFF04280CD0FFF7D3FFFEF7F9
:1041280007FF042803D1FFF7DDFF042806D0FFF7B7
:10413800C9FF03E0FFF7D6FF0428EED157495848D6
:1041480010220BF0B1FE08B1FFF7BCFF544CA38A54
:1041580040F24F12934267D0B3F5A47F36D80622B7
:1041680004F1160104F58970FDF702FC637F84F8F9
:104178001931A37F84F81A31012528460135EDB29B
:10418800FFF7AEFB0A2DF8D10023E37740F24F1377
:10419800A382012522694149414842F2DD739A42CE
:1041A8004FF010021CBF236101250BF07DFE002893
:1041B8003CD03A493A481022FDF7C8FB39493A48F9
:1041C8000822FDF7C3FBFFF785FF31E0B3F5A77FB2
:1041D80022D82346002203250121022693F84C0009
:1041E80001280DD003280ED093F84F0001280DD0D8
:1041F80002280ED001320A2A03F11403EED1C5E7D2
:1042080083F84C50F0E783F84C10EDE783F84F60E3
:10421800F0E783F84F10EDE70025E8B20135FFF726
:104228005FFB0A2DF9D1AFE70025B3E7002DCAD10E
:10423800E37F092B84BF0023E377E17F142303FB8B
:10424800014393F84C2002F0FD02012A17D11449CA
:104258000022013293F84C0081F84C000A2A01F13F
:104268001401F6D1114DE37F2B70FFF7D1FA2878AE
:10427800FFF778FB2878BDE87040FFF739BE49B1F1
:104288000B4903F14A025E3352F8040B41F8040B60
:104298009A42F9D10023E377E4E700BF1B01010844
:1042A8001C0100202C010108CE020020C4000020BF
:1042B8006601002030B5C01A1628A8BF16206FF076
:1042C8000805A8429DF80C40B8BF2846A042C8BFC0
:1042D80020B2C0B208701844107030BD07B5084647
:1042E80011461A46162300930023FFF7E3FF03B095
:1042F8005DF804FB0129F7B5054600D9FEE70F4E26
:1043080006EB01131C460F016278F15D83609B7810
:104318000AF002F9E678E3790193A379009331462C
:104328002846637922790AF00CF906EB4606B108AB
:10433800284603B0BDE8F0400AF05ABA9C2B0108A1
:1043480038B50246044652F8143BDD6900F11503FE
:10435800A847217D20460022BDE838400AF053B91D
:1043680070B50161897A88B0044601B101210AF06B
:10437800AEF801230DF11F0240F6D80120460AF0DD
:1043880004F89DF81F3043F01E0340F6D8018DF85D
:104398001F300DF11F020123204609F0C0FF2046FF
:1043A8000AF008FAE179FF2903D0FA2220460AF038
:1043B8000DFA23695B7A013B042B04D8DFE803F08C
:1043C800043E41413E00FEE7E922E12120460AF091
:1043D80057FA012120460AF0CAF9962120460AF028
:1043E80033FA382120460AF036FA20460AF03AFA1B
:1043F8002369204693F90810FFF7A2FF23699D7AE5
:1044080015B319782046FFF775FF0022114620469C
:104418000AF075F80023009340F2032220464FF675
:10442800FF710AF0BDF820464FF6FF710AF0DFF879
:10443800204608B0BDE870400AF0A9B9DB22D721B0
:10444800C4E76F226B21C1E70F4B1049DE8B104B7D
:10445800E3604CF250330093204619230B220AF0F4
:104468001FFA0123CDE903335B23CDE90153102360
:1044780019462046009504220AF044FA314620469F
:104488000AF064FAC1E700BFC4000020A08601005A
:104498007C2B010810B504460AF079F920464FF63E
:1044A800FF71BDE810400AF0A2B8000038B50169F4
:1044B800036891F90810DD69044600F1150300F15D
:1044C8001402A84723699A7A42B11A78012A00D9B6
:1044D800FEE7044B03EB0213A36038BD024BE36015
:1044E800FBE700BF9C2B01087C2B010810B5094C89
:1044F800A36823B9E36813B92046FFF7D7FF2369F8
:104508009B7A23B1A3689868A0F57A7010BDE36818
:104518009869F9E714220020836810B504461BB98E
:10452800C3680BB9FFF7C2FF23699B7A1BB1A36865
:10453800B3F90C0010BDE368B3F91C00FAE783680F
:1045480010B504461BB9C3680BB9FFF7AFFF94F960
:10455800150010BD90F8D8305BB190F8D930074AF3
:10456800180102EB03139B681978135853F82100BC
:104578007047837D0E3350F823007047680F010899
:104588002DE9F3419DF824701646402F88464FF0D8
:104598005B024FF0000104461D4628BF40270BF080
:1045A8005FFC8E4BDB8B23803278A37862F30203A7
:1045B800A3707178C90001F00801DBB203F00703AA
:1045C80041EA08111943A1707279E37862F3000394
:1045D800E370B279637962F38613637196F9020026
:1045E800FCF781FFE37860F34703E370F2782379FF
:1045F80062F3060323713279DBB202F0010203F0A1
:104608007F0343EAC213237132796379C2F3450207
:1046180023F03F0313436371A37967F34703A3713F
:104628002B78AA78E3716B7802F01F0203F0070376
:1046380043EAC20323726A88637AC2F3451223F0FD
:104648003F03134363722A79DBB202F0030203F0DB
:104658003F0343EA82136372AB88C3F38703A372F1
:104668006A79E37AC2F3800223F001031343E37209
:10467800AA79DBB202F07F0203F0010343EA4203A6
:10468800E372EA88237BC2F3C31223F00F031343B8
:1046980023732B7AE373AA7A6B7A02F01F0203F072
:1046A800070343EAC20323746A89637CC2F3451291
:1046B80023F03F03134363742A7BDBB202F0030247
:1046C80003F03F0343EA82136374AB89C3F38703A0
:1046D800A3746A7BE37CC2F3800223F001031343D3
:1046E800E374AA7BDBB202F07F0203F0010343EA22
:1046F8004203E374EA89237DC2F3C31223F00F0354
:10470800134323752B8ADB0863756B8ADB08A37553
:10471800AB8ADB08E375EB8ADB0823762B8BB3F5D2
:10472800C06F4ED2B3F5007F94BF00230123227BD4
:1047380063F3051222736B8BB3F5C06F43D2B3F5E5
:10474800007F94BF00230123227B63F38712227327
:10475800AB8BB3F5C06F38D2B3F5007F94BF00239D
:104768000123227D63F305122275EB8BB3F5C06F2D
:104778002DD2B3F5007F94BF00230123227D63F37C
:104788008712089B22751F4404F11802BB4220D1EE
:104798004FF6FF7321460DF106000D22ADF80630E5
:1047A800FDF756FC2146BDF8063021F80D3F4C2296
:1047B800FDF74EFCBDF80630A4F8593002B0BDE84C
:1047C800F0810223B3E70223BEE70223C9E70223ED
:1047D800D4E713F8011B02F8011FD7E7C400002033
:1047E80013B59DF81040CDE9003413460A46002160
:1047F800FFF7C6FE02B010BD13B5144B0288DB8B61
:104808009A4204461DD1837803F0F003102B01D09F
:10481800202B18D1A379A52B15D84FF6FF730DF1CE
:10482800060059222146ADF80630FDF711FCB4F810
:104838005900BDF80630C01A18BF0120800002B028
:1048480010BD0120FBE70220F9E700BFC4000020EB
:1048580030B5334B027893F8261061F303020270E7
:1048680093F8271061F30712027093F82810427822
:1048780061F30302427093F8291061F30712427042
:1048880093F82A10827861F30302827093F8321049
:10489800827961F30302827193F82B10827861F3B5
:1048A8000712827093F82C10C27861F30302C27069
:1048B80093F82D1061F30712C27093F82E10027945
:1048C80061F30302027193F82F1061F3071202716A
:1048D80093F83010427961F30302427103F1390110
:1048E80000F10A0200F1160411F9015F02F8015FF4
:1048F800A242F9D193F84610C27D61F30102C27554
:1049080093F8471061F38302C27593F8481061F376
:104918000512C27593F8493063F38712C27530BD2A
:104928001C01002002782F4BC2F3030230B583F834
:1049380026200278C2F3031283F827204278C2F3B4
:10494800030283F828204278C2F3031283F829204F
:104958008278C2F3030283F82A208279C2F3030221
:1049680083F832208278C2F3031283F82B20C278AE
:10497800C2F3030283F82C20C278C2F3031283F82F
:104988002D200279C2F3030283F82E200279C2F3A4
:10499800031283F82F204279C2F3030283F83020F0
:1049A80003F1390100F10A0200F1160412F9015F5E
:1049B80001F8015FA242F9D1C27DC2F3010283F876
:1049C8004620C27DC2F3810283F84720C27DC2F32C
:1049D800011283F84820C27DC2F3811283F849206E
:1049E80030BD00BF1C0100201FB58DF80C3001231D
:1049F800019303AB009313460A460221FFF7C0FD5B
:104A080005B05DF804FB0000F0B5214D012385F8E1
:104A18007230044685B0B0F80900FCF73EFF6867BD
:104A2800B4F80B30A5F87830142204F10D0105F123
:104A38007A00FCF79DFF94F9213085F88F3094F8BF
:104A4800223085F8903004F12300FFF76BFF6E46A3
:104A580004F1410304F1510718685968324603C24A
:104A68000833BB421646F7D10A482C230822694668
:104A7800FCF770FE94F85130A5F86C3094F8523079
:104A8800A5F86E3094F85330A5F8703005B0F0BD35
:104A9800D8020020160300202DE9F04792B0DFF875
:104AA80090A0244C0DF108084FF0400905460E4629
:104AB800174600214A4640460BF0D2F99AF80010F2
:104AC80004EB011122230DF10A00062201F5897178
:104AD8008DF80830FCF73AFF9AF8001004EB011241
:104AE80005A892F81A3192F8194103F00F0304F05F
:104AF8000F0444EA031492F81B3103F00F0344EA4D
:104B08000324BDF8103023F47F6323F00F031C4304
:104B1800ADF81040FFF79CFECDE900893B463246D0
:104B280002212846FFF72CFD12B0BDE8F08700BF30
:104B3800C40000201C0100200A4A126882600A4A48
:104B4800002383808371838103841368036153681E
:104B5800064A4361136883615368C3614EF6602354
:104B68000360704728350020320101083B01010825
:104B780010B50A4C0220FFF78BF92046FFF78AFC94
:104B880020466FF07F01FFF7DBFB23692046197889
:104B9800FFF7B0FB2046FFF77DFC10BD1422002074
:104BA80008B5254B196890F8203002465BBBFEF724
:104BB8008BF818B982F82100916011E092F8213041
:104BC80001335BB2032B82F82130F5DD012382F833
:104BD80020309368C91AB1F57A6F01D9012353714E
:104BE800137913B3154B517B1B7819B1022B1CBFDA
:104BF80003211173991E4B424B41537393790BB1A7
:104C08000323137308BDFEF75FF818B1042382F875
:104C18002130DEE792F82130013B5BB2002B82F8AD
:104C28002130D6DC82F82000C6E75379002BE9D082
:104C380001231371E5E700BF28350020890400200F
:104C48000346007B821E012A4FF0000202D893F827
:104C5800201009B91A737047104670470A4A38B5C8
:104C6800138801339BB2502B04460D4601D813809C
:104C780038BD002305491380FDF710FE294620465C
:104C8800FDF70CFEF4E700BF8C0800203D02010888
:104C9800154680B50C490D4E0446FDF7FFFD294623
:104CA8002046FDF7FBFD0A4B00221A80202746F21A
:104CB800A810B762FEF75EF8B761FEF75BF8294601
:104CC8002046FFF7CBFFF2E73D0201080004004849
:104CD8008C08002037B50C461D4668B907480DF109
:104CE80006020DF1070109F0FDFC9DF806100348C6
:104CF8002B46224609F0A5FB03B030BD1422002044
:104D080070B50D4616461C460146A0B9FDF7BBFF17
:104D18000B4833462A4609F06DFB09484FF6FF71E8
:104D280009F065FC0648A10109F07AFCBDE870406D
:104D38007D20FEF71FB80248FFF7ACFB70BD00BF2F
:104D4800142200202DE9F0411F4C204F05464FF05A
:104D58005B080E464246002120460BF081F82B697D
:104D680023606B6963601A4B39781B78194D9A1E5A
:104D780053425341627A05EB011163F300026272F8
:104D880004F10A00062201F58971FCF7DFFD3B7882
:104D980005EB0315237C95F81A2162F30713237496
:104DA80095F81B21637C592162F303032046637441
:104DB800FDF766F93B7FA4F8590042462146304684
:104DC800BDE8F041FFF79CBF49220020C400002045
:104DD800890400201C01002037B50C46A8B91248E8
:104DE80003699D7A9DB101F18E020DF1060109F06A
:104DF80063FCBDF90630002B10DB4FF6FF73ADF8EE
:104E08000630BDF8063084F88C3003B030BD0DF1A3
:104E1800060109F0ACFD84F88E50EAE77F33F0DA3A
:104E28004FF68173EBE700BF1422002070B5114CD8
:104E38000D4606465B23224621462846FFF74AFFD1
:104E4800D6E90613206862689A4208BF88420ED1E4
:104E580020465921FDF714F9B4F85940231A5C4249
:104E68005C4128460449FFF7B7FF601C70BD002469
:104E7800F7E700BF4F1E0020601F00200A4608B554
:104E880001460148FFF704FF2800002000B591B053
:104E98000446684616461D460BF042F8184968460F
:104EA8000AF0E6FF304609F0D3F9014668460AF0F1
:104EB800DFFF144968460AF0DBFF134B684653F8D6
:104EC8002510124D0AF0D4FF114968460AF0D0FFA8
:104ED8009DF84830684655F823100AF0C9FF0D4977
:104EE80068460AF0C5FF9DF84C30684655F823100F
:104EF8000AF0BEFF08486A462146FFF7C9FE00BF10
:104F0800440101084B01010800000020180000209E
:104F180050010108570101082800002000230370F0
:104F28008370437003714371C37070470378002224
:104F3800022B427104D0032B09D0012B16D0FEE7B7
:104F480001230371437183784370C370704783787A
:104F58004278991AA3EB020218BF012112F0060F3A
:104F680014BF0122002201714271EDE702717047FE
:104F780002788170002A0CBF022203220270FFF718
:104F8800D5BF0000074B282202FB00339B681A7824
:104F9800542A05D15878A0F17803584258417047EF
:104FA80000207047DC0F0108074B282202FB003362
:104FB8009B681A78522A05D15878A0F1780358428C
:104FC8005841704700207047DC0F0108074B282222
:104FD80002FB00339B681A78542A04D15878783831
:104FE80018BF012070470120704700BFDC0F01087F
:104FF80028230B4A434310B5D1580446FFF7D4FF82
:1050080048B92046FFF7BEFF064B1B7828B103EBD3
:10501800830301EB8301084610BD01EB0311FAE796
:10502800DC0F0108C4000020292838B505460C46C5
:1050380031D81A4B282202FB00331B79042B07D8DE
:105048004BB3023B022B05D8DFE803F011171F0012
:10505800FE2B20D12846FFF7CBFF0378E4B2A3420A
:1050680019D004702846BDE83840FFF7AFBFFFF7F6
:10507800BFFF64B290F90030F1E7FFF7B9FF02888B
:10508800A3B29A4207D00480ECE7FFF7B1FF23B23E
:10509800B0F90020F5E7002038BD00BFDC0F01089B
:1050A800292838B504460D4619D80E4B282202FB8C
:1050B80000331B79FF2B12D1FFF79AFF06222946EE
:1050C800FCF769FC58B92046FFF792FF29460622EB
:1050D800FCF74EFC2046BDE83840FFF777BF0020BC
:1050E80038BD00BFDC0F01082DE9F043074615461F
:1050F800354828224A438418012B246A87B025D1D1
:10510800324B8258022908BF1C46314B9A422ED096
:105118003049243B9A4208BF0C46FF238DF80030E3
:105128004FF0000801262046FBF72CF85FFA88F9B3
:10513800484520D806F118036B44AE4203F8188C92
:1051480027D80020387007B0BDE8F083022BE4D1DF
:10515800214B8258022908BF1C461D4B9A4208D091
:10516800A3F124018A4204D01C491E3BD2E7194C02
:10517800D3E71B4CD1E714F809302C2B06D106F1E4
:1051880018036B44013603F8188CF6B208F10108CD
:10519800C9E705F118030DEB0305002315F8182CD2
:1051A80015F9175C0132D2B29918C9B2A94207EBB6
:1051B800030003DB002303700120C4E7615C017076
:1051C8000133DBB2F0E700BFDC0F01085E01010824
:1051D80067010020C401010897010108F8010108CE
:1051E80010020108054B282202FB00335B6A0BB151
:1051F800188870474FF6FF70704700BFDC0F010832
:105208000B4B282202FB003370B51E6A3046FAF7B2
:10521800B9FF002201461446D5B2631CA942D8B290
:1052280000D870BD735D01322C2B08BF0446F3E72C
:10523800DC0F01080F4B282202FB003310B51B7945
:10524800FE2B014614D1FFF7CDFF04460846FFF7B1
:10525800D7FF002201461046D3B2994200D810BDAC
:1052680044FA02F3DB0744BF431CD8B20132F3E728
:10527800FF20F4E7DC0F01082DE9F04F4FF0000A9A
:105288001D4E93B004460F46D146D6F808805FFA03
:105298008AF54FF0000B0DE018F8030001920AF0B0
:1052A800BBFDC3B2019A202B08BF5F2302F8403C24
:1052B8000BF1010B5FFA8BF340460193FAF762FF9B
:1052C800019B03F1480298426A44E5D802F8409CE1
:1052D800394602A8FAF74CFF48B10AF1010ABAF1B7
:1052E8002A0F06F12806D0D10025284600E0012023
:1052F800257013B0BDE8F08FDC0F01082DE9F041EF
:105308001D4E282303FB016604463379FE2B0D4608
:10531800174618D0FF2B21D0022B28D10846FFF7BB
:1053280067FE214690F9000008F035FF35692B78B3
:105338003BB1124920460AF09BFD294620460AF057
:1053480097FD012015E00846FFF752FE3B4602781C
:1053580029462046BDE8F041FFF7C6BE0846FFF7DC
:1053680047FE062201462046FCF702FBE9E700203B
:105378002070BDE8F08100BFDC0F01085C02010865
:10538800F8B5194B1646282202FB063300241A7971
:105398000470022A07460D4603D0FE2A13D0204681
:1053A800F8BD93F918208A42F9DC93F91C30994228
:1053B800F5DC4FF0000165F307013046FFF734FED6
:1053C80001243870EBE70029E9DB3046FFF718FFC6
:1053D800A842E4DD3046FFF705FF40FA05F313F075
:1053E8000100E6D10446DAE7DC0F01082DE9F843AD
:1053F80000230370124B1746282202FB0733064688
:105408001B79FF2B0C4603D000252846BDE8F883FE
:105418000846FAF7B7FE0628F6D104F1FF3804F17A
:10542800050918F8010FFCF70DF905460028EBD01F
:10543800C845F6D121463846FFF732FE3070E4E71A
:10544800DC0F0108F8B5114B4FF0280C0CFB0233A8
:1054580000271B790770FE2B04460E46154604D01C
:10546800FF2B0CD0013B032B0DD830460AF040FC33
:105478002A4601462046BDE8F840FFF781BFBDE84F
:10548800F840FFF7B3BF3846F8BD00BFDC0F01088E
:1054980038B50588B5F5407F044606D949F6404039
:1054A800A5F50075FDF766FC258038BD10B50446E6
:1054B8004068FDF7E7F923880BB1013323802046C4
:1054C800FFF7E6FF10BD70B5044640680E46FDF7CD
:1054D800E5F9258825B13046FAF754FE05442580BC
:1054E8002046FFF7D5FF70BDF8B5044604F10A075A
:1054F80040680D46FDF7D2F960683946FDF7CEF9E8
:1055080026884EB12846FAF73DFE05463846FAF792
:1055180039FE05442E4426802046FFF7B9FFF8BD22
:1055280038B54160003904464FF0000518BF012125
:105538000172457207490A300AF0F2FC84F88E506D
:10554800A573C4F8905084F8945084F89C50258032
:1055580038BD00BF3A020108437A8B420DD00129B9
:10556800417206D0022906D039B904490A300AF036
:10557800D7BC0349FAE70349F8E770473A0201083C
:105588003D0201083C02010890F88E30642B08D8CF
:10559800C2180133DBB2917380F88E3018440023AF
:1055A8008373704708B50E30FAF7E2FDB0FA80F061
:1055B800400908BD2DE9F043064691B008468846E3
:1055C8001546FAF7DFFD06F10E0904464846FAF7D4
:1055D800D9FDE4B2631CC7B2BB4203DB002011B0A3
:1055E800BDE8F0832246414648460AF05DFC0028A3
:1055F800F4D104F10D0322461E44BA42034614D3E3
:1056080000F140036B440022022803F8402CE5D146
:105618009DF800303D2BE1D19DF80130303BDAB2E6
:10562800092ADBD82B600120D9E716F8011F2029A9
:1056380005D040336B440130C0B203F8401C01323E
:10564800D2B2DAE710B508490446FFF73CFF074B2A
:10565800197830312046C9B2FFF728FF044920469F
:10566800FFF742FF10BD00BF3F020108C400002041
:10567800430101082DE9F047837B702B90B08046E9
:105688000F46164671D1C37B202B6ED1007C0AF0E1
:10569800BBFB00285CD000254FF0020A2C4608F11D
:1056A8000E094846FAF76EFD824522D305F14003FC
:1056B8000DEB0305002305F8403CC4B3E8461D463E
:1056C80018F8010B0AF0A8FB78550135EBB2A34294
:1056D800F6D300253D550134E4B26846FAF752FD89
:1056E8006719FFB2874206EB050334D300221A700C
:1056F8002DE008EB0A039B7B3D2B0ED0202B07D017
:1057080005F140016A1C0DEB010505F8403CD5B2D6
:105718000AF101035FFA83FAC3E72C46F0E705F1C3
:1057280040036B4413F8400C0AF076FB7855684642
:10573800FAF728FDE5B2A84207EB050304F10104D6
:10574800EDD800220A491A7030460AF0E9FB012018
:1057580010B0BDE8F08707F140020DEB02070135F4
:1057680017F8402C1A70EDB2B7E70020F0E700BF39
:10577800490201082DE9FF472B4E282303FB016648
:1057880004463379FE2B0D461FD0FF2B4AD0022B3F
:105798002CD196F918502549FFF795FE28466946F9
:1057A80008F0F9FC69462046FFF79EFE96F91C5062
:1057B8001F492046FFF787FE6946284608F0EBFC9C
:1057C80069462046FFF790FE10E00846FFF70AFDFD
:1057D800DFF86090DFF860A080460027FEB2012362
:1057E800324629466846FFF77FFC10B904B0BDE889
:1057F800F087BBB248FA03F3DB0711D549462046C8
:10580800FFF761FE06F13001C9B22046FFF74EFEF0
:1058180051462046FFF757FE69462046FFF764FECB
:105828000137DBE70549CDE7DC0F01084B0201082A
:10583800530201085B0201085E02010862020108C6
:10584800F0B5044689B008460D46FFF7F3FC2E4F25
:105858002E4906462046FFF736FE282303FB057728
:105868002046B968FFF72FFE29492046FFF72BFE8F
:105878002EB928492046FFF737FE09B0F0BD0122AE
:1058880029466846FFF73AFD69462046FFF71BFEA2
:105898003B79FE2B07D0FF2B1ED004F10A012046CE
:1058A800FFF711FEE9E72846FFF7A2FB05781A493A
:1058B8002046FFF708FE05F13001C9B22046FFF780
:1058C800F5FD16492046FFF7FEFD012EE5D11449E6
:1058D8002046FFF7F8FDE0E7124B5B78002BDCD1A0
:1058E8006846FBF705FF0428D7D8DFE800F0030572
:1058F80007090B000C49EBE70C49E9E70C49E7E716
:105908000C49E5E70C49E3E7DC0F01085B020108F5
:105918005E02010871020108810201086F02010894
:1059280084020108C40000209302010898020108BB
:105938009D020108A2020108A80201080129F8B580
:1059480006460D4601D9032907D1194B1B78022BAE
:1059580003D018493046FFF7C7FD154F0024012D25
:1059680008D12046FFF70EFB50B92046FFF71CFB75
:10597800A8B105E0022D08D12046FFF703FB70B956
:105988000134E4B22A2CEAD1F8BD032D0CD120460B
:10599800FFF70AFB0028F3D03B78022BE5D121461C
:1059A8003046FFF74DFFEBE7002DF5D0F7E700BFD6
:1059B80089040020AE02010838B53D4B1A6890F8FA
:1059C8009C30012B044671D1D0F89030D31AB3F52E
:1059D800FA7F6BD3374DC0F890202846FBF751FD6E
:1059E80008F00EFC01462046FFF76DFD32492046BF
:1059F800FFF769FD05F11400FCF70BF908F000FC4E
:105A080001462046FFF75FFD2C492046FFF75BFD66
:105A180095F8940008F0F4FB01462046FFF753FD83
:105A280027492046FFF74FFD95F98C0008F0F2FB57
:105A380001462046FFF747FD22492046FFF743FD70
:105A480095F9920008F0E6FB01462046FFF73BFD7A
:105A58001B492046FFF737FD95F98E0008F0DAFB61
:105A680001462046FFF72FFD17492046FFF72BFD7B
:105A780005F15000FCF7D3F880B208F0D5FB0146D9
:105A88002046FFF720FD0E492046FFF71CFD05F1D3
:105A98006400FCF7C4F880B208F0C6FB0146204653
:105AA800FFF711FD09492046FFF71EFD38BD00BF6D
:105AB80028350020601F0020CB020108CD02010814
:105AC800D0020108CE020108D3020108D60201085B
